{"_format":"hh-sol-artifact-1","contractName":"DiscordMinter","sourceName":"contracts/minters/DiscordMinter.sol","abi":[{"inputs":[{"internalType":"address","name":"DiscordAuthOracleAddress","type":"address"}],"stateMutability":"nonpayable","type":"constructor"},{"anonymous":false,"inputs":[{"indexed":true,"internalType":"uint256","name":"requestId","type":"uint256"},{"indexed":false,"internalType":"string","name":"error","type":"string"}],"name":"DiscordAuthRequestFailed","type":"event"},{"anonymous":false,"inputs":[{"indexed":true,"internalType":"address","name":"sender","type":"address"},{"indexed":false,"internalType":"uint256","name":"requestId","type":"uint256"}],"name":"DiscordAuthRequestSubmited","type":"event"},{"anonymous":false,"inputs":[{"indexed":true,"internalType":"uint256","name":"requestId","type":"uint256"},{"indexed":false,"internalType":"uint256","name":"tokenId","type":"uint256"}],"name":"DiscordAuthRequestSucceeded","type":"event"},{"anonymous":false,"inputs":[{"indexed":true,"internalType":"bytes32","name":"role","type":"bytes32"},{"indexed":true,"internalType":"bytes32","name":"previousAdminRole","type":"bytes32"},{"indexed":true,"internalType":"bytes32","name":"newAdminRole","type":"bytes32"}],"name":"RoleAdminChanged","type":"event"},{"anonymous":false,"inputs":[{"indexed":true,"internalType":"bytes32","name":"role","type":"bytes32"},{"indexed":true,"internalType":"address","name":"account","type":"address"},{"indexed":true,"internalType":"address","name":"sender","type":"address"}],"name":"RoleGranted","type":"event"},{"anonymous":false,"inputs":[{"indexed":true,"internalType":"bytes32","name":"role","type":"bytes32"},{"indexed":true,"internalType":"address","name":"account","type":"address"},{"indexed":true,"internalType":"address","name":"sender","type":"address"}],"name":"RoleRevoked","type":"event"},{"inputs":[],"name":"ADMIN_ROLE","outputs":[{"internalType":"bytes32","name":"","type":"bytes32"}],"stateMutability":"view","type":"function"},{"inputs":[],"name":"DEFAULT_ADMIN_ROLE","outputs":[{"internalType":"bytes32","name":"","type":"bytes32"}],"stateMutability":"view","type":"function"},{"inputs":[],"name":"USER_ROLE","outputs":[{"internalType":"bytes32","name":"","type":"bytes32"}],"stateMutability":"view","type":"function"},{"inputs":[{"internalType":"uint256","name":"reqId","type":"uint256"},{"internalType":"string","name":"err","type":"string"}],"name":"failMint","outputs":[],"stateMutability":"nonpayable","type":"function"},{"inputs":[{"internalType":"string","name":"sn_id","type":"string"}],"name":"getOWNSBySnId","outputs":[{"components":[{"internalType":"uint256","name":"id","type":"uint256"},{"internalType":"string","name":"sn_name","type":"string"},{"internalType":"string","name":"sn_id","type":"string"},{"internalType":"string","name":"sn_url","type":"string"}],"internalType":"struct OwnedAccount.data","name":"","type":"tuple"}],"stateMutability":"view","type":"function"},{"inputs":[{"internalType":"uint256","name":"tokenId","type":"uint256"}],"name":"getOWSNByTokenId","outputs":[{"components":[{"internalType":"uint256","name":"id","type":"uint256"},{"internalType":"string","name":"sn_name","type":"string"},{"internalType":"string","name":"sn_id","type":"string"},{"internalType":"string","name":"sn_url","type":"string"}],"internalType":"struct OwnedAccount.data","name":"","type":"tuple"}],"stateMutability":"view","type":"function"},{"inputs":[],"name":"getPriceWEI","outputs":[{"internalType":"uint256","name":"","type":"uint256"}],"stateMutability":"view","type":"function"},{"inputs":[{"internalType":"bytes32","name":"role","type":"bytes32"}],"name":"getRoleAdmin","outputs":[{"internalType":"bytes32","name":"","type":"bytes32"}],"stateMutability":"view","type":"function"},{"inputs":[],"name":"getSnName","outputs":[{"internalType":"bytes32","name":"","type":"bytes32"}],"stateMutability":"pure","type":"function"},{"inputs":[{"internalType":"bytes32","name":"role","type":"bytes32"},{"internalType":"address","name":"account","type":"address"}],"name":"grantRole","outputs":[],"stateMutability":"nonpayable","type":"function"},{"inputs":[{"internalType":"bytes32","name":"role","type":"bytes32"},{"internalType":"address","name":"account","type":"address"}],"name":"hasRole","outputs":[{"internalType":"bool","name":"","type":"bool"}],"stateMutability":"view","type":"function"},{"inputs":[{"internalType":"string","name":"sn_id","type":"string"}],"name":"isAvailable","outputs":[{"internalType":"bool","name":"","type":"bool"}],"stateMutability":"view","type":"function"},{"inputs":[],"name":"oracle","outputs":[{"internalType":"contract DiscordAuthOracle","name":"","type":"address"}],"stateMutability":"view","type":"function"},{"inputs":[{"internalType":"bytes32","name":"role","type":"bytes32"},{"internalType":"address","name":"account","type":"address"}],"name":"renounceRole","outputs":[],"stateMutability":"nonpayable","type":"function"},{"inputs":[],"name":"retrieveFunds","outputs":[],"stateMutability":"nonpayable","type":"function"},{"inputs":[{"internalType":"bytes32","name":"role","type":"bytes32"},{"internalType":"address","name":"account","type":"address"}],"name":"revokeRole","outputs":[],"stateMutability":"nonpayable","type":"function"},{"inputs":[{"internalType":"address","name":"DiscordAuthOracleAddress","type":"address"}],"name":"setDiscordAuthOracle","outputs":[],"stateMutability":"nonpayable","type":"function"},{"inputs":[],"name":"snName","outputs":[{"internalType":"bytes32","name":"","type":"bytes32"}],"stateMutability":"view","type":"function"},{"inputs":[{"internalType":"string","name":"code","type":"string"},{"internalType":"string","name":"redirectUrl","type":"string"},{"internalType":"address","name":"owner","type":"address"},{"internalType":"function (address) external returns (uint256)","name":"cb","type":"function"}],"name":"startMint","outputs":[],"stateMutability":"payable","type":"function"},{"inputs":[{"components":[{"internalType":"uint256","name":"requestId","type":"uint256"},{"internalType":"string","name":"userName","type":"string"},{"internalType":"string","name":"userId","type":"string"},{"internalType":"address","name":"owner","type":"address"}],"internalType":"struct DiscordAuthData.Response","name":"res","type":"tuple"}],"name":"succeedMint","outputs":[],"stateMutability":"nonpayable","type":"function"},{"inputs":[{"internalType":"bytes4","name":"interfaceId","type":"bytes4"}],"name":"supportsInterface","outputs":[{"internalType":"bool","name":"","type":"bool"}],"stateMutability":"view","type":"function"},{"inputs":[{"internalType":"uint256","name":"token_id","type":"uint256"}],"name":"tokenExists","outputs":[{"internalType":"bool","name":"","type":"bool"}],"stateMutability":"view","type":"function"}],"bytecode":"0x60806040523480156200001157600080fd5b506040516200226438038062002264833981016040819052620000349162000494565b600180546001600160a01b0319166001600160a01b0383161790556200006360006200005d3390565b620000ca565b6200007e6000805160206200224483398151915233620000ca565b620000a86000805160206200224483398151915260008051602062002224833981519152620000da565b620000c3600080516020620022248339815191528262000125565b506200060b565b620000d6828262000154565b5050565b600082815260208190526040808220600101805490849055905190918391839186917fbd79b86ffe0ab8e8776151514217cd7cacd52c909f66475c3af44e129f0b00ff9190a4505050565b600082815260208190526040902060010154620001438133620001f4565b6200014f838362000154565b505050565b6000828152602081815260408083206001600160a01b038516845290915290205460ff16620000d6576000828152602081815260408083206001600160a01b03851684529091529020805460ff19166001179055620001b03390565b6001600160a01b0316816001600160a01b0316837f2f8788117e7eff1d82e926ec794901d17c78024a50270940304540a733656f0d60405160405180910390a45050565b6000828152602081815260408083206001600160a01b038516845290915290205460ff16620000d6576200023e816001600160a01b031660146200029860201b6200118c1760201c565b620002548360206200118c62000298821b17811c565b60405160200162000267929190620004bd565b60408051601f198184030181529082905262461bcd60e51b82526200028f9160040162000536565b60405180910390fd5b60606000620002a983600262000586565b620002b69060026200056b565b6001600160401b03811115620002dc57634e487b7160e01b600052604160045260246000fd5b6040519080825280601f01601f19166020018201604052801562000307576020820181803683370190505b509050600360fc1b816000815181106200033157634e487b7160e01b600052603260045260246000fd5b60200101906001600160f81b031916908160001a905350600f60fb1b816001815181106200036f57634e487b7160e01b600052603260045260246000fd5b60200101906001600160f81b031916908160001a90535060006200039584600262000586565b620003a29060016200056b565b90505b60018111156200043c576f181899199a1a9b1b9c1cb0b131b232b360811b85600f1660108110620003e657634e487b7160e01b600052603260045260246000fd5b1a60f81b8282815181106200040b57634e487b7160e01b600052603260045260246000fd5b60200101906001600160f81b031916908160001a90535060049490941c936200043481620005db565b9050620003a5565b5083156200048d5760405162461bcd60e51b815260206004820181905260248201527f537472696e67733a20686578206c656e67746820696e73756666696369656e7460448201526064016200028f565b9392505050565b600060208284031215620004a6578081fd5b81516001600160a01b03811681146200048d578182fd5b7f416363657373436f6e74726f6c3a206163636f756e7420000000000000000000815260008351620004f7816017850160208801620005a8565b7001034b99036b4b9b9b4b733903937b6329607d1b60179184019182015283516200052a816028840160208801620005a8565b01602801949350505050565b602081526000825180602084015262000557816040850160208701620005a8565b601f01601f19169190910160400192915050565b60008219821115620005815762000581620005f5565b500190565b6000816000190483118215151615620005a357620005a3620005f5565b500290565b60005b83811015620005c5578181015183820152602001620005ab565b83811115620005d5576000848401525b50505050565b600081620005ed57620005ed620005f5565b506000190190565b634e487b7160e01b600052601160045260246000fd5b611c09806200061b6000396000f3fe6080604052600436106101345760003560e01c80635324fd2e116100ab57806391d148541161006f57806391d14854146103a4578063965306aa146103c457806399692ec3146103e4578063a217fddf14610418578063d547741f1461042d578063ee0f9d3b1461044d57600080fd5b80635324fd2e146102d657806361b20d8c1461030357806375b238fc146103185780637dc0d1d01461034c5780638ade73551461038457600080fd5b8063248a9ca3116100fd578063248a9ca31461020057806329b1164f146102305780632a72c2b3146102435780632f2ff15d1461026357806336568abe146102835780633791ea53146102a357600080fd5b8062923f9e1461013957806301ffc9a71461016e5780630b84be381461018e57806313119161146101b05780631ed6c886146101e0575b600080fd5b34801561014557600080fd5b50610159610154366004611618565b610462565b60405190151581526020015b60405180910390f35b34801561017a57600080fd5b5061015961018936600461165b565b610697565b34801561019a57600080fd5b506101ae6101a9366004611821565b6106ce565b005b3480156101bc57600080fd5b506101d2600080516020611bb483398151915281565b604051908152602001610165565b3480156101ec57600080fd5b506101ae6101fb366004611762565b610724565b34801561020c57600080fd5b506101d261021b366004611618565b60009081526020819052604090206001015490565b6101ae61023e3660046116be565b610933565b34801561024f57600080fd5b506101ae61025e3660046115fe565b610a65565b34801561026f57600080fd5b506101ae61027e366004611630565b610aec565b34801561028f57600080fd5b506101ae61029e366004611630565b610b17565b3480156102af57600080fd5b507fd1ada853a846888c20f5b55fe7b9a6ffe350cfbadd47882268c816594ce6e7a96101d2565b3480156102e257600080fd5b506102f66102f1366004611683565b610b96565b6040516101659190611a3a565b34801561030f57600080fd5b506101ae610de8565b34801561032457600080fd5b506101d27fa49807205ce4d355092ef5a8a18f56e8913cf4a201fbe287825b095693c2177581565b34801561035857600080fd5b5060015461036c906001600160a01b031681565b6040516001600160a01b039091168152602001610165565b34801561039057600080fd5b506102f661039f366004611618565b610e3f565b3480156103b057600080fd5b506101596103bf366004611630565b611074565b3480156103d057600080fd5b506101596103df366004611683565b61109d565b3480156103f057600080fd5b506101d27fd1ada853a846888c20f5b55fe7b9a6ffe350cfbadd47882268c816594ce6e7a981565b34801561042457600080fd5b506101d2600081565b34801561043957600080fd5b506101ae610448366004611630565b6110e4565b34801561045957600080fd5b506101d261110a565b60008181526004602090815260408083208151608081019092528054825260018101805485948401919061049590611b4c565b80601f01602080910402602001604051908101604052809291908181526020018280546104c190611b4c565b801561050e5780601f106104e35761010080835404028352916020019161050e565b820191906000526020600020905b8154815290600101906020018083116104f157829003601f168201915b5050505050815260200160028201805461052790611b4c565b80601f016020809104026020016040519081016040528092919081815260200182805461055390611b4c565b80156105a05780601f10610575576101008083540402835291602001916105a0565b820191906000526020600020905b81548152906001019060200180831161058357829003601f168201915b505050505081526020016003820180546105b990611b4c565b80601f01602080910402602001604051908101604052809291908181526020018280546105e590611b4c565b80156106325780601f1061060757610100808354040283529160200191610632565b820191906000526020600020905b81548152906001019060200180831161061557829003601f168201915b505050505081525050905080602001516040516020016106529190611892565b6040516020818303038152906040528051906020012061068f7fd1ada853a846888c20f5b55fe7b9a6ffe350cfbadd47882268c816594ce6e7a990565b149392505050565b60006001600160e01b03198216637965db0b60e01b14806106c857506301ffc9a760e01b6001600160e01b03198316145b92915050565b600080516020611bb48339815191526106e78133611375565b827f03a9b0b08c68c4f64c5f13a589163427dc6b4609b4ffd1d75c9f70c97efb99e3836040516107179190611968565b60405180910390a2505050565b600080516020611bb483398151915261073d8133611375565b81516000908152600260209081526040808320546060860151915160e082901b6001600160e01b03191681526001600160a01b0392831660048201529281901c9091169163ffffffff90911690602401602060405180830381600087803b1580156107a757600080fd5b505af11580156107bb573d6000803e3d6000fd5b505050506040513d601f19601f820116820180604052508101906107df9190611809565b600081815260046020818152604080842085815581518083019092526007825266191a5cd8dbdc9960ca1b82840190815294869052929091525192935061082c92600190910191906114c2565b50826040015160046000838152602001908152602001600020600201908051906020019061085b9291906114c2565b50826040015160405160200161087191906118ae565b60408051601f1981840301815291815260008381526004602090815291902082516108a593600390920192909101906114c2565b5080600384604001516040516108bb9190611892565b9081526040805191829003602001822092909255908401516001916003916108e291611892565b90815260405160209181900382018120600101805460ff1916931515939093179092558451838352917f2d5f2cbc074caee3e4c783f888de45afe900187890e1ed66d191f3b50c9c104d9101610717565b60015460405163cb2859b160e01b81526000916001600160a01b03169063cb2859b190349061097a908a908a908a903090631ed6c886908290630b84be389060040161197b565b6020604051808303818588803b15801561099357600080fd5b505af11580156109a7573d6000803e3d6000fd5b50505050506040513d601f19601f820116820180604052508101906109cc9190611809565b604080516020808201835263ffffffff86811688831b17841b8352600085815260028352849020925183546001600160c01b03191690851c918216640100000000600160c01b0392909216919091171790915590518281529192506001600160a01b038616917f61c64b60eb9b3e27867d54602a36420ecd6a80a013258b7eaa679c02ef8f3e55910160405180910390a2505050505050565b7fa49807205ce4d355092ef5a8a18f56e8913cf4a201fbe287825b095693c21775610a908133611375565b600154610ab590600080516020611bb4833981519152906001600160a01b03166110e4565b600180546001600160a01b0319166001600160a01b038416179055610ae8600080516020611bb483398151915283610aec565b5050565b600082815260208190526040902060010154610b088133611375565b610b1283836113d9565b505050565b6001600160a01b0381163314610b8c5760405162461bcd60e51b815260206004820152602f60248201527f416363657373436f6e74726f6c3a2063616e206f6e6c792072656e6f756e636560448201526e103937b632b9903337b91039b2b63360891b60648201526084015b60405180910390fd5b610ae8828261145d565b610bc16040518060800160405280600081526020016060815260200160608152602001606081525090565b610bca8261109d565b15610be75760405162461bcd60e51b8152600401610b83906119f1565b6000600383604051610bf99190611892565b9081526040805191829003602090810183205460008181526004835283902060808501909352825484526001830180549195509184019190610c3a90611b4c565b80601f0160208091040260200160405190810160405280929190818152602001828054610c6690611b4c565b8015610cb35780601f10610c8857610100808354040283529160200191610cb3565b820191906000526020600020905b815481529060010190602001808311610c9657829003601f168201915b50505050508152602001600282018054610ccc90611b4c565b80601f0160208091040260200160405190810160405280929190818152602001828054610cf890611b4c565b8015610d455780601f10610d1a57610100808354040283529160200191610d45565b820191906000526020600020905b815481529060010190602001808311610d2857829003601f168201915b50505050508152602001600382018054610d5e90611b4c565b80601f0160208091040260200160405190810160405280929190818152602001828054610d8a90611b4c565b8015610dd75780601f10610dac57610100808354040283529160200191610dd7565b820191906000526020600020905b815481529060010190602001808311610dba57829003601f168201915b505050505081525050915050919050565b7fa49807205ce4d355092ef5a8a18f56e8913cf4a201fbe287825b095693c21775610e138133611375565b60405133904780156108fc02916000818181858888f19350505050158015610ae8573d6000803e3d6000fd5b610e6a6040518060800160405280600081526020016060815260200160608152602001606081525090565b610e7382610462565b610e8f5760405162461bcd60e51b8152600401610b83906119f1565b6004600083815260200190815260200160002060405180608001604052908160008201548152602001600182018054610ec790611b4c565b80601f0160208091040260200160405190810160405280929190818152602001828054610ef390611b4c565b8015610f405780601f10610f1557610100808354040283529160200191610f40565b820191906000526020600020905b815481529060010190602001808311610f2357829003601f168201915b50505050508152602001600282018054610f5990611b4c565b80601f0160208091040260200160405190810160405280929190818152602001828054610f8590611b4c565b8015610fd25780601f10610fa757610100808354040283529160200191610fd2565b820191906000526020600020905b815481529060010190602001808311610fb557829003601f168201915b50505050508152602001600382018054610feb90611b4c565b80601f016020809104026020016040519081016040528092919081815260200182805461101790611b4c565b80156110645780601f1061103957610100808354040283529160200191611064565b820191906000526020600020905b81548152906001019060200180831161104757829003601f168201915b5050505050815250509050919050565b6000918252602082815260408084206001600160a01b0393909316845291905290205460ff1690565b6000806003836040516110b09190611892565b9081526040805191829003602090810183208383019092528154835260019091015460ff1615801591909201529392505050565b6000828152602081905260409020600101546111008133611375565b610b12838361145d565b600154604080516378bb750960e11b815290516000926001600160a01b03169163f176ea12916004808301926020929190829003018186803b15801561114f57600080fd5b505afa158015611163573d6000803e3d6000fd5b505050506040513d601f19601f820116820180604052508101906111879190611809565b905090565b6060600061119b836002611ae6565b6111a6906002611ace565b67ffffffffffffffff8111156111cc57634e487b7160e01b600052604160045260246000fd5b6040519080825280601f01601f1916602001820160405280156111f6576020820181803683370190505b509050600360fc1b8160008151811061121f57634e487b7160e01b600052603260045260246000fd5b60200101906001600160f81b031916908160001a905350600f60fb1b8160018151811061125c57634e487b7160e01b600052603260045260246000fd5b60200101906001600160f81b031916908160001a9053506000611280846002611ae6565b61128b906001611ace565b90505b600181111561131f576f181899199a1a9b1b9c1cb0b131b232b360811b85600f16601081106112cd57634e487b7160e01b600052603260045260246000fd5b1a60f81b8282815181106112f157634e487b7160e01b600052603260045260246000fd5b60200101906001600160f81b031916908160001a90535060049490941c9361131881611b35565b905061128e565b50831561136e5760405162461bcd60e51b815260206004820181905260248201527f537472696e67733a20686578206c656e67746820696e73756666696369656e746044820152606401610b83565b9392505050565b61137f8282611074565b610ae857611397816001600160a01b0316601461118c565b6113a283602061118c565b6040516020016113b39291906118f3565b60408051601f198184030181529082905262461bcd60e51b8252610b8391600401611968565b6113e38282611074565b610ae8576000828152602081815260408083206001600160a01b03851684529091529020805460ff191660011790556114193390565b6001600160a01b0316816001600160a01b0316837f2f8788117e7eff1d82e926ec794901d17c78024a50270940304540a733656f0d60405160405180910390a45050565b6114678282611074565b15610ae8576000828152602081815260408083206001600160a01b0385168085529252808320805460ff1916905551339285917ff6391f5c32d9c69d2a47ea670b442974b53935d1edc7fd64eb21e047a839171b9190a45050565b8280546114ce90611b4c565b90600052602060002090601f0160209004810192826114f05760008555611536565b82601f1061150957805160ff1916838001178555611536565b82800160010185558215611536579182015b8281111561153657825182559160200191906001019061151b565b50611542929150611546565b5090565b5b808211156115425760008155600101611547565b80356001600160a01b038116811461157257600080fd5b919050565b600082601f830112611587578081fd5b813567ffffffffffffffff808211156115a2576115a2611b9d565b604051601f8301601f19908116603f011681019082821181831017156115ca576115ca611b9d565b816040528381528660208588010111156115e2578485fd5b8360208701602083013792830160200193909352509392505050565b60006020828403121561160f578081fd5b61136e8261155b565b600060208284031215611629578081fd5b5035919050565b60008060408385031215611642578081fd5b823591506116526020840161155b565b90509250929050565b60006020828403121561166c578081fd5b81356001600160e01b03198116811461136e578182fd5b600060208284031215611694578081fd5b813567ffffffffffffffff8111156116aa578182fd5b6116b684828501611577565b949350505050565b6000806000806000608086880312156116d5578081fd5b853567ffffffffffffffff808211156116ec578283fd5b6116f889838a01611577565b9650602088013591508082111561170d578283fd5b5061171a88828901611577565b9450506117296040870161155b565b9250606086013567ffffffffffffffff1981168114611746578182fd5b94979396509194505050606082901c9160401c63ffffffff1690565b600060208284031215611773578081fd5b813567ffffffffffffffff8082111561178a578283fd5b908301906080828603121561179d578283fd5b6117a5611aa5565b823581526020830135828111156117ba578485fd5b6117c687828601611577565b6020830152506040830135828111156117dd578485fd5b6117e987828601611577565b6040830152506117fb6060840161155b565b606082015295945050505050565b60006020828403121561181a578081fd5b5051919050565b60008060408385031215611833578182fd5b82359150602083013567ffffffffffffffff811115611850578182fd5b61185c85828601611577565b9150509250929050565b6000815180845261187e816020860160208601611b05565b601f01601f19169290920160200192915050565b600082516118a4818460208701611b05565b9190910192915050565b7f68747470733a2f2f646973636f72642e636f6d2f75736572732f0000000000008152600082516118e681601a850160208701611b05565b91909101601a0192915050565b7f416363657373436f6e74726f6c3a206163636f756e742000000000000000000081526000835161192b816017850160208801611b05565b7001034b99036b4b9b9b4b733903937b6329607d1b601791840191820152835161195c816028840160208801611b05565b01602801949350505050565b60208152600061136e6020830184611866565b60a08152600061198e60a083018a611866565b82810360208401526119a0818a611866565b6001600160a01b038916604085015291506119d0905060608301868860201b63ffffffff919091161760401b9052565b63ffffffff8316602085901b1760401b608083015298975050505050505050565b60208082526029908201527f446973636f72644d696e7465723a204163636f756e7420776173206e6f742079604082015268195d081b5a5b9d195960ba1b606082015260800190565b60208152815160208201526000602083015160806040840152611a6060a0840182611866565b90506040840151601f1980858403016060860152611a7e8383611866565b9250606086015191508085840301608086015250611a9c8282611866565b95945050505050565b6040516080810167ffffffffffffffff81118282101715611ac857611ac8611b9d565b60405290565b60008219821115611ae157611ae1611b87565b500190565b6000816000190483118215151615611b0057611b00611b87565b500290565b60005b83811015611b20578181015183820152602001611b08565b83811115611b2f576000848401525b50505050565b600081611b4457611b44611b87565b506000190190565b600181811c90821680611b6057607f821691505b60208210811415611b8157634e487b7160e01b600052602260045260246000fd5b50919050565b634e487b7160e01b600052601160045260246000fd5b634e487b7160e01b600052604160045260246000fdfe14823911f2da1b49f045a0929a60b8c1f2a7fc8c06c7284ca3e8ab4e193a08c8a2646970667358221220085196b0945e6a8515d701413f88b3dd4ce0504344ac6cd3f9f1a20334fcd92d64736f6c6343000804003314823911f2da1b49f045a0929a60b8c1f2a7fc8c06c7284ca3e8ab4e193a08c8a49807205ce4d355092ef5a8a18f56e8913cf4a201fbe287825b095693c21775","linkReferences":{},"deployedLinkReferences":{}}