{"_format":"hh-sol-artifact-1","contractName":"OwnYourSocialNetwork","sourceName":"contracts/OwnYourSocialNetwork.sol","abi":[{"anonymous":false,"inputs":[{"indexed":true,"internalType":"address","name":"owner","type":"address"},{"indexed":true,"internalType":"address","name":"approved","type":"address"},{"indexed":true,"internalType":"uint256","name":"tokenId","type":"uint256"}],"name":"Approval","type":"event"},{"anonymous":false,"inputs":[{"indexed":true,"internalType":"address","name":"owner","type":"address"},{"indexed":true,"internalType":"address","name":"operator","type":"address"},{"indexed":false,"internalType":"bool","name":"approved","type":"bool"}],"name":"ApprovalForAll","type":"event"},{"anonymous":false,"inputs":[{"indexed":true,"internalType":"bytes32","name":"role","type":"bytes32"},{"indexed":true,"internalType":"bytes32","name":"previousAdminRole","type":"bytes32"},{"indexed":true,"internalType":"bytes32","name":"newAdminRole","type":"bytes32"}],"name":"RoleAdminChanged","type":"event"},{"anonymous":false,"inputs":[{"indexed":true,"internalType":"bytes32","name":"role","type":"bytes32"},{"indexed":true,"internalType":"address","name":"account","type":"address"},{"indexed":true,"internalType":"address","name":"sender","type":"address"}],"name":"RoleGranted","type":"event"},{"anonymous":false,"inputs":[{"indexed":true,"internalType":"bytes32","name":"role","type":"bytes32"},{"indexed":true,"internalType":"address","name":"account","type":"address"},{"indexed":true,"internalType":"address","name":"sender","type":"address"}],"name":"RoleRevoked","type":"event"},{"anonymous":false,"inputs":[{"indexed":true,"internalType":"address","name":"from","type":"address"},{"indexed":true,"internalType":"address","name":"to","type":"address"},{"indexed":true,"internalType":"uint256","name":"tokenId","type":"uint256"}],"name":"Transfer","type":"event"},{"inputs":[],"name":"DEFAULT_ADMIN_ROLE","outputs":[{"internalType":"bytes32","name":"","type":"bytes32"}],"stateMutability":"view","type":"function"},{"inputs":[],"name":"MINTER_ROLE","outputs":[{"internalType":"bytes32","name":"","type":"bytes32"}],"stateMutability":"view","type":"function"},{"inputs":[],"name":"PAUSER_ROLE","outputs":[{"internalType":"bytes32","name":"","type":"bytes32"}],"stateMutability":"view","type":"function"},{"inputs":[{"internalType":"string","name":"name","type":"string"},{"internalType":"string","name":"symbol","type":"string"},{"internalType":"string","name":"baseURI","type":"string"}],"name":"__OwnYourSocialNetwork__init","outputs":[],"stateMutability":"nonpayable","type":"function"},{"inputs":[{"internalType":"address","name":"to","type":"address"},{"internalType":"uint256","name":"tokenId","type":"uint256"}],"name":"approve","outputs":[],"stateMutability":"nonpayable","type":"function"},{"inputs":[{"internalType":"address","name":"owner","type":"address"}],"name":"balanceOf","outputs":[{"internalType":"uint256","name":"","type":"uint256"}],"stateMutability":"view","type":"function"},{"inputs":[{"internalType":"uint256","name":"tokenId","type":"uint256"}],"name":"getApproved","outputs":[{"internalType":"address","name":"","type":"address"}],"stateMutability":"view","type":"function"},{"inputs":[{"internalType":"string","name":"gen_sn_id","type":"string"}],"name":"getOWSNByGenSnId","outputs":[{"components":[{"internalType":"uint256","name":"id","type":"uint256"},{"internalType":"string","name":"sn_name","type":"string"},{"internalType":"string","name":"sn_id","type":"string"},{"internalType":"string","name":"sn_url","type":"string"}],"internalType":"struct OwnedAccount.data","name":"","type":"tuple"}],"stateMutability":"view","type":"function"},{"inputs":[{"internalType":"uint256","name":"tokenId","type":"uint256"}],"name":"getOWSNByTokenId","outputs":[{"components":[{"internalType":"uint256","name":"id","type":"uint256"},{"internalType":"string","name":"sn_name","type":"string"},{"internalType":"string","name":"sn_id","type":"string"},{"internalType":"string","name":"sn_url","type":"string"}],"internalType":"struct OwnedAccount.data","name":"","type":"tuple"}],"stateMutability":"view","type":"function"},{"inputs":[{"internalType":"bytes32","name":"role","type":"bytes32"}],"name":"getRoleAdmin","outputs":[{"internalType":"bytes32","name":"","type":"bytes32"}],"stateMutability":"view","type":"function"},{"inputs":[{"internalType":"bytes32","name":"role","type":"bytes32"},{"internalType":"uint256","name":"index","type":"uint256"}],"name":"getRoleMember","outputs":[{"internalType":"address","name":"","type":"address"}],"stateMutability":"view","type":"function"},{"inputs":[{"internalType":"bytes32","name":"role","type":"bytes32"}],"name":"getRoleMemberCount","outputs":[{"internalType":"uint256","name":"","type":"uint256"}],"stateMutability":"view","type":"function"},{"inputs":[{"internalType":"bytes32","name":"role","type":"bytes32"},{"internalType":"address","name":"account","type":"address"}],"name":"grantRole","outputs":[],"stateMutability":"nonpayable","type":"function"},{"inputs":[{"internalType":"bytes32","name":"role","type":"bytes32"},{"internalType":"address","name":"account","type":"address"}],"name":"hasRole","outputs":[{"internalType":"bool","name":"","type":"bool"}],"stateMutability":"view","type":"function"},{"inputs":[{"internalType":"string","name":"name","type":"string"},{"internalType":"string","name":"symbol","type":"string"},{"internalType":"string","name":"_baseURI","type":"string"}],"name":"initialize","outputs":[],"stateMutability":"nonpayable","type":"function"},{"inputs":[{"internalType":"string","name":"gen_sn_id","type":"string"}],"name":"isAccountAvailable","outputs":[{"internalType":"bool","name":"","type":"bool"}],"stateMutability":"view","type":"function"},{"inputs":[{"internalType":"address","name":"owner","type":"address"},{"internalType":"address","name":"operator","type":"address"}],"name":"isApprovedForAll","outputs":[{"internalType":"bool","name":"","type":"bool"}],"stateMutability":"view","type":"function"},{"inputs":[{"internalType":"string","name":"sn_name","type":"string"},{"internalType":"string","name":"sn_id","type":"string"},{"internalType":"string","name":"sn_url","type":"string"},{"internalType":"address","name":"to","type":"address"}],"name":"mint","outputs":[{"internalType":"uint256","name":"","type":"uint256"}],"stateMutability":"nonpayable","type":"function"},{"inputs":[{"internalType":"string","name":"oauthToken","type":"string"},{"internalType":"string","name":"oauthVerifier","type":"string"}],"name":"mintTwitter","outputs":[],"stateMutability":"payable","type":"function"},{"inputs":[],"name":"name","outputs":[{"internalType":"string","name":"","type":"string"}],"stateMutability":"view","type":"function"},{"inputs":[{"internalType":"uint256","name":"tokenId","type":"uint256"}],"name":"ownerOf","outputs":[{"internalType":"address","name":"","type":"address"}],"stateMutability":"view","type":"function"},{"inputs":[{"internalType":"bytes32","name":"role","type":"bytes32"},{"internalType":"address","name":"account","type":"address"}],"name":"renounceRole","outputs":[],"stateMutability":"nonpayable","type":"function"},{"inputs":[],"name":"retrieveFunds","outputs":[],"stateMutability":"nonpayable","type":"function"},{"inputs":[{"internalType":"bytes32","name":"role","type":"bytes32"},{"internalType":"address","name":"account","type":"address"}],"name":"revokeRole","outputs":[],"stateMutability":"nonpayable","type":"function"},{"inputs":[{"internalType":"address","name":"from","type":"address"},{"internalType":"address","name":"to","type":"address"},{"internalType":"uint256","name":"tokenId","type":"uint256"}],"name":"safeTransferFrom","outputs":[],"stateMutability":"nonpayable","type":"function"},{"inputs":[{"internalType":"address","name":"from","type":"address"},{"internalType":"address","name":"to","type":"address"},{"internalType":"uint256","name":"tokenId","type":"uint256"},{"internalType":"bytes","name":"_data","type":"bytes"}],"name":"safeTransferFrom","outputs":[],"stateMutability":"nonpayable","type":"function"},{"inputs":[{"internalType":"address","name":"operator","type":"address"},{"internalType":"bool","name":"approved","type":"bool"}],"name":"setApprovalForAll","outputs":[],"stateMutability":"nonpayable","type":"function"},{"inputs":[{"internalType":"string","name":"newBaseURI","type":"string"}],"name":"setBaseURI","outputs":[],"stateMutability":"nonpayable","type":"function"},{"inputs":[{"internalType":"bytes4","name":"interfaceId","type":"bytes4"}],"name":"supportsInterface","outputs":[{"internalType":"bool","name":"","type":"bool"}],"stateMutability":"view","type":"function"},{"inputs":[],"name":"symbol","outputs":[{"internalType":"string","name":"","type":"string"}],"stateMutability":"view","type":"function"},{"inputs":[{"internalType":"uint256","name":"index","type":"uint256"}],"name":"tokenByIndex","outputs":[{"internalType":"uint256","name":"","type":"uint256"}],"stateMutability":"view","type":"function"},{"inputs":[{"internalType":"address","name":"owner","type":"address"},{"internalType":"uint256","name":"index","type":"uint256"}],"name":"tokenOfOwnerByIndex","outputs":[{"internalType":"uint256","name":"","type":"uint256"}],"stateMutability":"view","type":"function"},{"inputs":[{"internalType":"uint256","name":"tokenId","type":"uint256"}],"name":"tokenURI","outputs":[{"internalType":"string","name":"","type":"string"}],"stateMutability":"view","type":"function"},{"inputs":[],"name":"totalSupply","outputs":[{"internalType":"uint256","name":"","type":"uint256"}],"stateMutability":"view","type":"function"},{"inputs":[{"internalType":"address","name":"from","type":"address"},{"internalType":"address","name":"to","type":"address"},{"internalType":"uint256","name":"tokenId","type":"uint256"}],"name":"transferFrom","outputs":[],"stateMutability":"nonpayable","type":"function"},{"inputs":[],"name":"twitterMinter","outputs":[{"internalType":"contract TwitterMinter","name":"","type":"address"}],"stateMutability":"view","type":"function"},{"inputs":[{"internalType":"address","name":"twitterMinterAddress","type":"address"}],"name":"updateTwitterMinterAddress","outputs":[],"stateMutability":"nonpayable","type":"function"}],"bytecode":"0x608060405234801561001057600080fd5b5061344a806100206000396000f3fe60806040526004361061021a5760003560e01c80638ade735511610123578063a6487c53116100ab578063d547741f1161006f578063d547741f14610641578063d56ed9b214610661578063e63ab1e914610681578063e985e9c5146106b5578063f9751b28146106fe57600080fd5b8063a6487c531461059f578063b88d4fde146105bf578063c87b56dd146105df578063ca15c873146105ff578063d53913931461061f57600080fd5b806395d89b41116100f257806395d89b41146105155780639b5051391461052a5780639ea4953d1461054a578063a217fddf1461056a578063a22cb4651461057f57600080fd5b80638ade7355146104955780638e8876b1146104c25780639010d07c146104d557806391d14854146104f557600080fd5b80632f745c59116101a65780634f6ccce7116101755780634f6ccce71461040057806355f804b31461042057806361b20d8c146104405780636352211e1461045557806370a082311461047557600080fd5b80632f745c591461037f57806336568abe1461039f5780633f4acc32146103bf57806342842e0e146103e057600080fd5b806318160ddd116101ed57806318160ddd146102d057806323b872dd146102ef578063248a9ca31461030f5780632aedc3f91461033f5780632f2ff15d1461035f57600080fd5b806301ffc9a71461021f57806306fdde0314610254578063081812fc14610276578063095ea7b3146102ae575b600080fd5b34801561022b57600080fd5b5061023f61023a366004612c9f565b61071e565b60405190151581526020015b60405180910390f35b34801561026057600080fd5b5061026961072f565b60405161024b919061307f565b34801561028257600080fd5b50610296610291366004612c44565b6107c1565b6040516001600160a01b03909116815260200161024b565b3480156102ba57600080fd5b506102ce6102c9366004612c1b565b61085b565b005b3480156102dc57600080fd5b5060fd545b60405190815260200161024b565b3480156102fb57600080fd5b506102ce61030a366004612b2d565b610971565b34801561031b57600080fd5b506102e161032a366004612c44565b60009081526065602052604090206001015490565b34801561034b57600080fd5b506102e161035a366004612def565b6109a2565b34801561036b57600080fd5b506102ce61037a366004612c5c565b610b2c565b34801561038b57600080fd5b506102e161039a366004612c1b565b610b4e565b3480156103ab57600080fd5b506102ce6103ba366004612c5c565b610be4565b3480156103cb57600080fd5b5061016154610296906001600160a01b031681565b3480156103ec57600080fd5b506102ce6103fb366004612b2d565b610c06565b34801561040c57600080fd5b506102e161041b366004612c44565b610c21565b34801561042c57600080fd5b506102ce61043b366004612cd7565b610cc2565b34801561044c57600080fd5b506102ce610d57565b34801561046157600080fd5b50610296610470366004612c44565b610e08565b34801561048157600080fd5b506102e1610490366004612ae1565b610e7f565b3480156104a157600080fd5b506104b56104b0366004612c44565b610f06565b60405161024b919061322b565b6102ce6104d0366004612d0a565b611152565b3480156104e157600080fd5b506102966104f0366004612c7e565b6111c9565b34801561050157600080fd5b5061023f610510366004612c5c565b6111e8565b34801561052157600080fd5b50610269611213565b34801561053657600080fd5b506102ce610545366004612d6b565b611222565b34801561055657600080fd5b506104b5610565366004612cd7565b6112bd565b34801561057657600080fd5b506102e1600081565b34801561058b57600080fd5b506102ce61059a366004612be1565b61133c565b3480156105ab57600080fd5b506102ce6105ba366004612d6b565b611401565b3480156105cb57600080fd5b506102ce6105da366004612b68565b611463565b3480156105eb57600080fd5b506102696105fa366004612c44565b611495565b34801561060b57600080fd5b506102e161061a366004612c44565b611547565b34801561062b57600080fd5b506102e16000805160206133f583398151915281565b34801561064d57600080fd5b506102ce61065c366004612c5c565b61155e565b34801561066d57600080fd5b5061023f61067c366004612cd7565b611568565b34801561068d57600080fd5b506102e17f65d7a28e3265b37a6474929f336521b332c1681b933f6cb9f3376673440d862a81565b3480156106c157600080fd5b5061023f6106d0366004612afb565b6001600160a01b03918216600090815260ce6020908152604080832093909416825291909152205460ff1690565b34801561070a57600080fd5b506102ce610719366004612ae1565b6115b0565b600061072982611699565b92915050565b606060c9805461073e90613332565b80601f016020809104026020016040519081016040528092919081815260200182805461076a90613332565b80156107b75780601f1061078c576101008083540402835291602001916107b7565b820191906000526020600020905b81548152906001019060200180831161079a57829003601f168201915b5050505050905090565b600081815260cb60205260408120546001600160a01b031661083f5760405162461bcd60e51b815260206004820152602c60248201527f4552433732313a20617070726f76656420717565727920666f72206e6f6e657860448201526b34b9ba32b73a103a37b5b2b760a11b60648201526084015b60405180910390fd5b50600090815260cd60205260409020546001600160a01b031690565b600061086682610e08565b9050806001600160a01b0316836001600160a01b031614156108d45760405162461bcd60e51b815260206004820152602160248201527f4552433732313a20617070726f76616c20746f2063757272656e74206f776e656044820152603960f91b6064820152608401610836565b336001600160a01b03821614806108f057506108f081336106d0565b6109625760405162461bcd60e51b815260206004820152603860248201527f4552433732313a20617070726f76652063616c6c6572206973206e6f74206f7760448201527f6e6572206e6f7220617070726f76656420666f7220616c6c00000000000000006064820152608401610836565b61096c83836116be565b505050565b61097b338261172c565b6109975760405162461bcd60e51b8152600401610836906131da565b61096c83838361181f565b60008085856040516020016109b8929190612ee8565b60405160208183030381529060405290506109d281611568565b1515600114610a405760405162461bcd60e51b815260206004820152603460248201527f4f776e596f7572536f6369616c4e6574776f726b3a20546865206163636f756e6044820152731d081dd85cc8185b1c9958591e481b5a5b9d195960621b6064820152608401610836565b6000610a4b846119ca565b6000818152610160602090815260409091208281558951929350610a77926001909101918a0190612997565b506000818152610160602090815260409091208751610a9e92600290920191890190612997565b506000818152610160602090815260409091208651610ac592600390920191880190612997565b508061015f83604051610ad89190612ecc565b9081526040519081900360200181209190915560019061015f90610afd908590612ecc565b908152604051908190036020019020600101805491151560ff199092169190911790559150505b949350505050565b610b368282611a89565b600082815260976020526040902061096c9082611aaf565b6000610b5983610e7f565b8210610bbb5760405162461bcd60e51b815260206004820152602b60248201527f455243373231456e756d657261626c653a206f776e657220696e646578206f7560448201526a74206f6620626f756e647360a81b6064820152608401610836565b506001600160a01b0391909116600090815260fb60209081526040808320938352929052205490565b610bee8282611ac4565b600082815260976020526040902061096c9082611b3e565b61096c83838360405180602001604052806000815250611463565b6000610c2c60fd5490565b8210610c8f5760405162461bcd60e51b815260206004820152602c60248201527f455243373231456e756d657261626c653a20676c6f62616c20696e646578206f60448201526b7574206f6620626f756e647360a01b6064820152608401610836565b60fd8281548110610cb057634e487b7160e01b600052603260045260246000fd5b90600052602060002001549050919050565b610ccd6000336111e8565b610d3f5760405162461bcd60e51b815260206004820152603960248201527f4f776e596f7572536f6369616c4e6574776f726b3a206d75737420686176652060448201527f6d696e74657220726f6c6520746f2073657442617365555249000000000000006064820152608401610836565b8051610d539061012e906020840190612997565b5050565b610d817f65d7a28e3265b37a6474929f336521b332c1681b933f6cb9f3376673440d862a336111e8565b610dd95760405162461bcd60e51b815260206004820152602360248201527f455243373231437573746f6d3a206d75737420686176652070617573657220726044820152626f6c6560e81b6064820152608401610836565b60405133904780156108fc02916000818181858888f19350505050158015610e05573d6000803e3d6000fd5b50565b600081815260cb60205260408120546001600160a01b0316806107295760405162461bcd60e51b815260206004820152602960248201527f4552433732313a206f776e657220717565727920666f72206e6f6e657869737460448201526832b73a103a37b5b2b760b91b6064820152608401610836565b60006001600160a01b038216610eea5760405162461bcd60e51b815260206004820152602a60248201527f4552433732313a2062616c616e636520717565727920666f7220746865207a65604482015269726f206164647265737360b01b6064820152608401610836565b506001600160a01b0316600090815260cc602052604090205490565b610f316040518060800160405280600081526020016060815260200160608152602001606081525090565b600082815260cb60205260409020546001600160a01b031615151515600114610f6c5760405162461bcd60e51b815260040161083690613138565b610160600083815260200190815260200160002060405180608001604052908160008201548152602001600182018054610fa590613332565b80601f0160208091040260200160405190810160405280929190818152602001828054610fd190613332565b801561101e5780601f10610ff35761010080835404028352916020019161101e565b820191906000526020600020905b81548152906001019060200180831161100157829003601f168201915b5050505050815260200160028201805461103790613332565b80601f016020809104026020016040519081016040528092919081815260200182805461106390613332565b80156110b05780601f10611085576101008083540402835291602001916110b0565b820191906000526020600020905b81548152906001019060200180831161109357829003601f168201915b505050505081526020016003820180546110c990613332565b80601f01602080910402602001604051908101604052809291908181526020018280546110f590613332565b80156111425780601f1061111757610100808354040283529160200191611142565b820191906000526020600020905b81548152906001019060200180831161112557829003601f168201915b5050505050815250509050919050565b610161546001600160a01b03166329b1164f348484336040516001600160e01b031960e087901b168152611193939291903090632aedc3f990600401613092565b6000604051808303818588803b1580156111ac57600080fd5b505af11580156111c0573d6000803e3d6000fd5b50505050505050565b60008281526097602052604081206111e19083611b53565b9392505050565b60009182526065602090815260408084206001600160a01b0393909316845291905290205460ff1690565b606060ca805461073e90613332565b600054610100900460ff168061123b575060005460ff16155b6112575760405162461bcd60e51b81526004016108369061318c565b600054610100900460ff16158015611279576000805461ffff19166101011790555b6112a584848486604051602001611291929190612ee8565b604051602081830303815290604052611b5f565b80156112b7576000805461ff00191690555b50505050565b6112e86040518060800160405280600081526020016060815260200160608152602001606081525090565b6112f182611568565b1561130e5760405162461bcd60e51b815260040161083690613138565b600061015f836040516113219190612ecc565b9081526040519081900360200190205490506111e181610f06565b6001600160a01b0382163314156113955760405162461bcd60e51b815260206004820152601960248201527f4552433732313a20617070726f766520746f2063616c6c6572000000000000006044820152606401610836565b33600081815260ce602090815260408083206001600160a01b03871680855290835292819020805460ff191686151590811790915590519081529192917f17307eab39ab6107e8899845ad3d59bd9653f200f220920489ca2b5937696c31910160405180910390a35050565b600054610100900460ff168061141a575060005460ff16155b6114365760405162461bcd60e51b81526004016108369061318c565b600054610100900460ff16158015611458576000805461ffff19166101011790555b6112a5848484611b5f565b61146d338361172c565b6114895760405162461bcd60e51b8152600401610836906131da565b6112b784848484611c1c565b600081815260cb60205260409020546060906001600160a01b03166115145760405162461bcd60e51b815260206004820152602f60248201527f4552433732314d657461646174613a2055524920717565727920666f72206e6f60448201526e3732bc34b9ba32b73a103a37b5b2b760891b6064820152608401610836565b61012e61152083611c4f565b604051602001611531929190612f17565b6040516020818303038152906040529050919050565b600081815260976020526040812061072990611d69565b610bee8282611d73565b60008061015f8360405161157c9190612ecc565b9081526040805191829003602090810183208383019092528154835260019091015460ff1615801591909201529392505050565b6115bb6000336111e8565b61163f5760405162461bcd60e51b815260206004820152604960248201527f4f776e596f7572536f6369616c4e6574776f726b3a206d75737420686176652060448201527f6d696e74657220726f6c6520746f20757064617465547769747465724d696e7460648201526865724164647265737360b81b608482015260a401610836565b61016154611665906000805160206133f5833981519152906001600160a01b031661155e565b61016180546001600160a01b0319166001600160a01b038316179055610e056000805160206133f583398151915282611d99565b60006001600160e01b0319821663780e9d6360e01b1480610729575061072982611da3565b600081815260cd6020526040902080546001600160a01b0319166001600160a01b03841690811790915581906116f382610e08565b6001600160a01b03167f8c5be1e5ebec7d5bd14f71427d1e84f3dd0314c0f7b2291e5b200ac8c7c3b92560405160405180910390a45050565b600081815260cb60205260408120546001600160a01b03166117a55760405162461bcd60e51b815260206004820152602c60248201527f4552433732313a206f70657261746f7220717565727920666f72206e6f6e657860448201526b34b9ba32b73a103a37b5b2b760a11b6064820152608401610836565b60006117b083610e08565b9050806001600160a01b0316846001600160a01b031614806117eb5750836001600160a01b03166117e0846107c1565b6001600160a01b0316145b80610b2457506001600160a01b03808216600090815260ce602090815260408083209388168352929052205460ff16610b24565b826001600160a01b031661183282610e08565b6001600160a01b03161461189a5760405162461bcd60e51b815260206004820152602960248201527f4552433732313a207472616e73666572206f6620746f6b656e2074686174206960448201526839903737ba1037bbb760b91b6064820152608401610836565b6001600160a01b0382166118fc5760405162461bcd60e51b8152602060048201526024808201527f4552433732313a207472616e7366657220746f20746865207a65726f206164646044820152637265737360e01b6064820152608401610836565b611907838383611de3565b6119126000826116be565b6001600160a01b038316600090815260cc6020526040812080546001929061193b9084906132d8565b90915550506001600160a01b038216600090815260cc6020526040812080546001929061196990849061328d565b9091555050600081815260cb602052604080822080546001600160a01b0319166001600160a01b0386811691821790925591518493918716917fddf252ad1be2c89b69c2b068fc378daa952ba7f163c4a11628f55a4df523b3ef91a4505050565b60006119e46000805160206133f5833981519152336111e8565b604051602001611a2b907f455243373231437573746f6d3a206d7573742068617665206d696e746572207281526a1bdb19481d1bc81b5a5b9d60aa1b6020820152602b0190565b60405160208183030381529060405290611a585760405162461bcd60e51b8152600401610836919061307f565b506000611a6561012d5490565b9050611a7a83611a7561012d5490565b611dee565b61072961012d80546001019055565b600082815260656020526040902060010154611aa58133611f3c565b61096c8383611fa0565b60006111e1836001600160a01b038416612026565b6001600160a01b0381163314611b345760405162461bcd60e51b815260206004820152602f60248201527f416363657373436f6e74726f6c3a2063616e206f6e6c792072656e6f756e636560448201526e103937b632b9903337b91039b2b63360891b6064820152608401610836565b610d538282612075565b60006111e1836001600160a01b0384166120dc565b60006111e183836121f9565b600054610100900460ff1680611b78575060005460ff16155b611b945760405162461bcd60e51b81526004016108369061318c565b600054610100900460ff16158015611bb6576000805461ffff19166101011790555b611bbe612231565b611bc6612231565b611bce612231565b611bd6612231565b611be0848461229c565b611be8612231565b611bf0612331565b8151611c049061012e906020850190612997565b5080156112b7576000805461ff001916905550505050565b611c2784848461181f565b611c33848484846123d5565b6112b75760405162461bcd60e51b8152600401610836906130e6565b606081611c735750506040805180820190915260018152600360fc1b602082015290565b8160005b8115611c9d5780611c878161336d565b9150611c969050600a836132a5565b9150611c77565b60008167ffffffffffffffff811115611cc657634e487b7160e01b600052604160045260246000fd5b6040519080825280601f01601f191660200182016040528015611cf0576020820181803683370190505b5090505b8415610b2457611d056001836132d8565b9150611d12600a86613388565b611d1d90603061328d565b60f81b818381518110611d4057634e487b7160e01b600052603260045260246000fd5b60200101906001600160f81b031916908160001a905350611d62600a866132a5565b9450611cf4565b6000610729825490565b600082815260656020526040902060010154611d8f8133611f3c565b61096c8383612075565b610b3682826124df565b60006001600160e01b031982166380ac58cd60e01b1480611dd457506001600160e01b03198216635b5e139f60e01b145b806107295750610729826124e9565b61096c83838361250e565b6001600160a01b038216611e445760405162461bcd60e51b815260206004820181905260248201527f4552433732313a206d696e7420746f20746865207a65726f20616464726573736044820152606401610836565b600081815260cb60205260409020546001600160a01b031615611ea95760405162461bcd60e51b815260206004820152601c60248201527f4552433732313a20746f6b656e20616c7265616479206d696e746564000000006044820152606401610836565b611eb560008383611de3565b6001600160a01b038216600090815260cc60205260408120805460019290611ede90849061328d565b9091555050600081815260cb602052604080822080546001600160a01b0319166001600160a01b03861690811790915590518392907fddf252ad1be2c89b69c2b068fc378daa952ba7f163c4a11628f55a4df523b3ef908290a45050565b611f4682826111e8565b610d5357611f5e816001600160a01b031660146125c6565b611f698360206125c6565b604051602001611f7a929190612fcd565b60408051601f198184030181529082905262461bcd60e51b82526108369160040161307f565b611faa82826111e8565b610d535760008281526065602090815260408083206001600160a01b03851684529091529020805460ff19166001179055611fe23390565b6001600160a01b0316816001600160a01b0316837f2f8788117e7eff1d82e926ec794901d17c78024a50270940304540a733656f0d60405160405180910390a45050565b600081815260018301602052604081205461206d57508154600181810184556000848152602080822090930184905584548482528286019093526040902091909155610729565b506000610729565b61207f82826111e8565b15610d535760008281526065602090815260408083206001600160a01b0385168085529252808320805460ff1916905551339285917ff6391f5c32d9c69d2a47ea670b442974b53935d1edc7fd64eb21e047a839171b9190a45050565b600081815260018301602052604081205480156121ef5760006121006001836132d8565b8554909150600090612114906001906132d8565b905081811461219557600086600001828154811061214257634e487b7160e01b600052603260045260246000fd5b906000526020600020015490508087600001848154811061217357634e487b7160e01b600052603260045260246000fd5b6000918252602080832090910192909255918252600188019052604090208390555b85548690806121b457634e487b7160e01b600052603160045260246000fd5b600190038181906000526020600020016000905590558560010160008681526020019081526020016000206000905560019350505050610729565b6000915050610729565b600082600001828154811061221e57634e487b7160e01b600052603260045260246000fd5b9060005260206000200154905092915050565b600054610100900460ff168061224a575060005460ff16155b6122665760405162461bcd60e51b81526004016108369061318c565b600054610100900460ff16158015612288576000805461ffff19166101011790555b8015610e05576000805461ff001916905550565b600054610100900460ff16806122b5575060005460ff16155b6122d15760405162461bcd60e51b81526004016108369061318c565b600054610100900460ff161580156122f3576000805461ffff19166101011790555b82516123069060c9906020860190612997565b50815161231a9060ca906020850190612997565b50801561096c576000805461ff0019169055505050565b600054610100900460ff168061234a575060005460ff16155b6123665760405162461bcd60e51b81526004016108369061318c565b600054610100900460ff16158015612388576000805461ffff19166101011790555b612393600033611d99565b6123ab6000805160206133f583398151915233611d99565b6122887f65d7a28e3265b37a6474929f336521b332c1681b933f6cb9f3376673440d862a33611d99565b60006001600160a01b0384163b156124d757604051630a85bd0160e11b81526001600160a01b0385169063150b7a0290612419903390899088908890600401613042565b602060405180830381600087803b15801561243357600080fd5b505af1925050508015612463575060408051601f3d908101601f1916820190925261246091810190612cbb565b60015b6124bd573d808015612491576040519150601f19603f3d011682016040523d82523d6000602084013e612496565b606091505b5080516124b55760405162461bcd60e51b8152600401610836906130e6565b805181602001fd5b6001600160e01b031916630a85bd0160e11b149050610b24565b506001610b24565b610d538282611fa0565b60006001600160e01b03198216635a05180f60e01b14806107295750610729826127a8565b6001600160a01b038316612569576125648160fd8054600083815260fe60205260408120829055600182018355919091527f9346ac6dd7de6b96975fec380d4d994c4c12e6a8897544f22915316cc6cca2800155565b61258c565b816001600160a01b0316836001600160a01b03161461258c5761258c83826127dd565b6001600160a01b0382166125a35761096c8161287a565b826001600160a01b0316826001600160a01b03161461096c5761096c8282612953565b606060006125d58360026132b9565b6125e090600261328d565b67ffffffffffffffff81111561260657634e487b7160e01b600052604160045260246000fd5b6040519080825280601f01601f191660200182016040528015612630576020820181803683370190505b509050600360fc1b8160008151811061265957634e487b7160e01b600052603260045260246000fd5b60200101906001600160f81b031916908160001a905350600f60fb1b8160018151811061269657634e487b7160e01b600052603260045260246000fd5b60200101906001600160f81b031916908160001a90535060006126ba8460026132b9565b6126c590600161328d565b90505b6001811115612759576f181899199a1a9b1b9c1cb0b131b232b360811b85600f166010811061270757634e487b7160e01b600052603260045260246000fd5b1a60f81b82828151811061272b57634e487b7160e01b600052603260045260246000fd5b60200101906001600160f81b031916908160001a90535060049490941c936127528161331b565b90506126c8565b5083156111e15760405162461bcd60e51b815260206004820181905260248201527f537472696e67733a20686578206c656e67746820696e73756666696369656e746044820152606401610836565b60006001600160e01b03198216637965db0b60e01b148061072957506301ffc9a760e01b6001600160e01b0319831614610729565b600060016127ea84610e7f565b6127f491906132d8565b600083815260fc6020526040902054909150808214612847576001600160a01b038416600090815260fb60209081526040808320858452825280832054848452818420819055835260fc90915290208190555b50600091825260fc602090815260408084208490556001600160a01b03909416835260fb81528383209183525290812055565b60fd5460009061288c906001906132d8565b600083815260fe602052604081205460fd80549394509092849081106128c257634e487b7160e01b600052603260045260246000fd5b906000526020600020015490508060fd83815481106128f157634e487b7160e01b600052603260045260246000fd5b600091825260208083209091019290925582815260fe909152604080822084905585825281205560fd80548061293757634e487b7160e01b600052603160045260246000fd5b6001900381819060005260206000200160009055905550505050565b600061295e83610e7f565b6001600160a01b03909316600090815260fb60209081526040808320868452825280832085905593825260fc9052919091209190915550565b8280546129a390613332565b90600052602060002090601f0160209004810192826129c55760008555612a0b565b82601f106129de57805160ff1916838001178555612a0b565b82800160010185558215612a0b579182015b82811115612a0b5782518255916020019190600101906129f0565b50612a17929150612a1b565b5090565b5b80821115612a175760008155600101612a1c565b600067ffffffffffffffff80841115612a4b57612a4b6133c8565b604051601f8501601f19908116603f01168101908282118183101715612a7357612a736133c8565b81604052809350858152868686011115612a8c57600080fd5b858560208301376000602087830101525050509392505050565b80356001600160a01b0381168114612abd57600080fd5b919050565b600082601f830112612ad2578081fd5b6111e183833560208501612a30565b600060208284031215612af2578081fd5b6111e182612aa6565b60008060408385031215612b0d578081fd5b612b1683612aa6565b9150612b2460208401612aa6565b90509250929050565b600080600060608486031215612b41578081fd5b612b4a84612aa6565b9250612b5860208501612aa6565b9150604084013590509250925092565b60008060008060808587031215612b7d578081fd5b612b8685612aa6565b9350612b9460208601612aa6565b925060408501359150606085013567ffffffffffffffff811115612bb6578182fd5b8501601f81018713612bc6578182fd5b612bd587823560208401612a30565b91505092959194509250565b60008060408385031215612bf3578182fd5b612bfc83612aa6565b915060208301358015158114612c10578182fd5b809150509250929050565b60008060408385031215612c2d578182fd5b612c3683612aa6565b946020939093013593505050565b600060208284031215612c55578081fd5b5035919050565b60008060408385031215612c6e578182fd5b82359150612b2460208401612aa6565b60008060408385031215612c90578182fd5b50508035926020909101359150565b600060208284031215612cb0578081fd5b81356111e1816133de565b600060208284031215612ccc578081fd5b81516111e1816133de565b600060208284031215612ce8578081fd5b813567ffffffffffffffff811115612cfe578182fd5b610b2484828501612ac2565b60008060408385031215612d1c578182fd5b823567ffffffffffffffff80821115612d33578384fd5b612d3f86838701612ac2565b93506020850135915080821115612d54578283fd5b50612d6185828601612ac2565b9150509250929050565b600080600060608486031215612d7f578081fd5b833567ffffffffffffffff80821115612d96578283fd5b612da287838801612ac2565b94506020860135915080821115612db7578283fd5b612dc387838801612ac2565b93506040860135915080821115612dd8578283fd5b50612de586828701612ac2565b9150509250925092565b60008060008060808587031215612e04578182fd5b843567ffffffffffffffff80821115612e1b578384fd5b612e2788838901612ac2565b95506020870135915080821115612e3c578384fd5b612e4888838901612ac2565b94506040870135915080821115612e5d578384fd5b50612e6a87828801612ac2565b925050612e7960608601612aa6565b905092959194509250565b60008151808452612e9c8160208601602086016132ef565b601f01601f19169290920160200192915050565b60008151612ec28185602086016132ef565b9290920192915050565b60008251612ede8184602087016132ef565b9190910192915050565b60008351612efa8184602088016132ef565b835190830190612f0e8183602088016132ef565b01949350505050565b600080845482600182811c915080831680612f3357607f831692505b6020808410821415612f5357634e487b7160e01b87526022600452602487fd5b818015612f675760018114612f7857612fa4565b60ff19861689528489019650612fa4565b60008b815260209020885b86811015612f9c5781548b820152908501908301612f83565b505084890196505b505050505050612fc4612fbe82602f60f81b815260010190565b85612eb0565b95945050505050565b7f416363657373436f6e74726f6c3a206163636f756e74200000000000000000008152600083516130058160178501602088016132ef565b7001034b99036b4b9b9b4b733903937b6329607d1b60179184019182015283516130368160288401602088016132ef565b01602801949350505050565b6001600160a01b038581168252841660208201526040810183905260806060820181905260009061307590830184612e84565b9695505050505050565b6020815260006111e16020830184612e84565b6080815260006130a56080830188612e84565b82810360208401526130b78188612e84565b91505060018060a01b038516604083015263ffffffff83168460201b1760401b60608301529695505050505050565b60208082526032908201527f4552433732313a207472616e7366657220746f206e6f6e20455243373231526560408201527131b2b4bb32b91034b6b83632b6b2b73a32b960711b606082015260800190565b60208082526034908201527f4f776e596f7572536f6369616c4e6574776f726b3a20546865206163636f756e6040820152731d081dd85cc81b9bdd081e595d081b5a5b9d195960621b606082015260800190565b6020808252602e908201527f496e697469616c697a61626c653a20636f6e747261637420697320616c72656160408201526d191e481a5b9a5d1a585b1a5e995960921b606082015260800190565b60208082526031908201527f4552433732313a207472616e736665722063616c6c6572206973206e6f74206f6040820152701ddb995c881b9bdc88185c1c1c9bdd9959607a1b606082015260800190565b6020815281516020820152600060208301516080604084015261325160a0840182612e84565b90506040840151601f198085840301606086015261326f8383612e84565b9250606086015191508085840301608086015250612fc48282612e84565b600082198211156132a0576132a061339c565b500190565b6000826132b4576132b46133b2565b500490565b60008160001904831182151516156132d3576132d361339c565b500290565b6000828210156132ea576132ea61339c565b500390565b60005b8381101561330a5781810151838201526020016132f2565b838111156112b75750506000910152565b60008161332a5761332a61339c565b506000190190565b600181811c9082168061334657607f821691505b6020821081141561336757634e487b7160e01b600052602260045260246000fd5b50919050565b60006000198214156133815761338161339c565b5060010190565b600082613397576133976133b2565b500690565b634e487b7160e01b600052601160045260246000fd5b634e487b7160e01b600052601260045260246000fd5b634e487b7160e01b600052604160045260246000fd5b6001600160e01b031981168114610e0557600080fdfe9f2df0fed2c77648de5860a4cc508cd0818c85b8b8a1ab4ceeef8d981c8956a6a2646970667358221220b6529edaef0bd16be336930a9fe00651d5076f19fe465c866328cbc91c3d23f064736f6c63430008040033","linkReferences":{},"deployedLinkReferences":{}}