{"_format":"hh-sol-artifact-1","contractName":"OwnYourSocialNetwork","sourceName":"contracts/OwnYourSocialNetwork.sol","abi":[{"anonymous":false,"inputs":[{"indexed":true,"internalType":"address","name":"owner","type":"address"},{"indexed":true,"internalType":"address","name":"approved","type":"address"},{"indexed":true,"internalType":"uint256","name":"tokenId","type":"uint256"}],"name":"Approval","type":"event"},{"anonymous":false,"inputs":[{"indexed":true,"internalType":"address","name":"owner","type":"address"},{"indexed":true,"internalType":"address","name":"operator","type":"address"},{"indexed":false,"internalType":"bool","name":"approved","type":"bool"}],"name":"ApprovalForAll","type":"event"},{"anonymous":false,"inputs":[{"indexed":false,"internalType":"address","name":"account","type":"address"}],"name":"Paused","type":"event"},{"anonymous":false,"inputs":[{"indexed":true,"internalType":"bytes32","name":"role","type":"bytes32"},{"indexed":true,"internalType":"bytes32","name":"previousAdminRole","type":"bytes32"},{"indexed":true,"internalType":"bytes32","name":"newAdminRole","type":"bytes32"}],"name":"RoleAdminChanged","type":"event"},{"anonymous":false,"inputs":[{"indexed":true,"internalType":"bytes32","name":"role","type":"bytes32"},{"indexed":true,"internalType":"address","name":"account","type":"address"},{"indexed":true,"internalType":"address","name":"sender","type":"address"}],"name":"RoleGranted","type":"event"},{"anonymous":false,"inputs":[{"indexed":true,"internalType":"bytes32","name":"role","type":"bytes32"},{"indexed":true,"internalType":"address","name":"account","type":"address"},{"indexed":true,"internalType":"address","name":"sender","type":"address"}],"name":"RoleRevoked","type":"event"},{"anonymous":false,"inputs":[{"indexed":true,"internalType":"address","name":"from","type":"address"},{"indexed":true,"internalType":"address","name":"to","type":"address"},{"indexed":true,"internalType":"uint256","name":"tokenId","type":"uint256"}],"name":"Transfer","type":"event"},{"anonymous":false,"inputs":[{"indexed":false,"internalType":"address","name":"account","type":"address"}],"name":"Unpaused","type":"event"},{"inputs":[],"name":"ADMIN_ROLE","outputs":[{"internalType":"bytes32","name":"","type":"bytes32"}],"stateMutability":"view","type":"function"},{"inputs":[],"name":"DEFAULT_ADMIN_ROLE","outputs":[{"internalType":"bytes32","name":"","type":"bytes32"}],"stateMutability":"view","type":"function"},{"inputs":[],"name":"MINTER_ROLE","outputs":[{"internalType":"bytes32","name":"","type":"bytes32"}],"stateMutability":"view","type":"function"},{"inputs":[],"name":"PAUSER_ROLE","outputs":[{"internalType":"bytes32","name":"","type":"bytes32"}],"stateMutability":"view","type":"function"},{"inputs":[{"internalType":"address","name":"to","type":"address"},{"internalType":"uint256","name":"tokenId","type":"uint256"}],"name":"approve","outputs":[],"stateMutability":"nonpayable","type":"function"},{"inputs":[{"internalType":"address","name":"owner","type":"address"}],"name":"balanceOf","outputs":[{"internalType":"uint256","name":"","type":"uint256"}],"stateMutability":"view","type":"function"},{"inputs":[{"internalType":"uint256","name":"tokenId","type":"uint256"}],"name":"getApproved","outputs":[{"internalType":"address","name":"","type":"address"}],"stateMutability":"view","type":"function"},{"inputs":[{"internalType":"string","name":"sn_name","type":"string"},{"internalType":"string","name":"sn_id","type":"string"}],"name":"getOWSNBySnId","outputs":[{"components":[{"internalType":"uint256","name":"id","type":"uint256"},{"internalType":"string","name":"sn_name","type":"string"},{"internalType":"string","name":"sn_id","type":"string"},{"internalType":"string","name":"sn_url","type":"string"}],"internalType":"struct OwnedAccount.data","name":"","type":"tuple"}],"stateMutability":"view","type":"function"},{"inputs":[{"internalType":"uint256","name":"tokenId","type":"uint256"}],"name":"getOWSNByTokenId","outputs":[{"components":[{"internalType":"uint256","name":"id","type":"uint256"},{"internalType":"string","name":"sn_name","type":"string"},{"internalType":"string","name":"sn_id","type":"string"},{"internalType":"string","name":"sn_url","type":"string"}],"internalType":"struct OwnedAccount.data","name":"","type":"tuple"}],"stateMutability":"view","type":"function"},{"inputs":[{"internalType":"bytes32","name":"role","type":"bytes32"}],"name":"getRoleAdmin","outputs":[{"internalType":"bytes32","name":"","type":"bytes32"}],"stateMutability":"view","type":"function"},{"inputs":[{"internalType":"bytes32","name":"role","type":"bytes32"},{"internalType":"uint256","name":"index","type":"uint256"}],"name":"getRoleMember","outputs":[{"internalType":"address","name":"","type":"address"}],"stateMutability":"view","type":"function"},{"inputs":[{"internalType":"bytes32","name":"role","type":"bytes32"}],"name":"getRoleMemberCount","outputs":[{"internalType":"uint256","name":"","type":"uint256"}],"stateMutability":"view","type":"function"},{"inputs":[{"internalType":"bytes32","name":"role","type":"bytes32"},{"internalType":"address","name":"account","type":"address"}],"name":"grantRole","outputs":[],"stateMutability":"nonpayable","type":"function"},{"inputs":[{"internalType":"bytes32","name":"role","type":"bytes32"},{"internalType":"address","name":"account","type":"address"}],"name":"hasRole","outputs":[{"internalType":"bool","name":"","type":"bool"}],"stateMutability":"view","type":"function"},{"inputs":[{"internalType":"string","name":"name","type":"string"},{"internalType":"string","name":"symbol","type":"string"},{"internalType":"string","name":"baseTokenURI","type":"string"}],"name":"initialize","outputs":[],"stateMutability":"nonpayable","type":"function"},{"inputs":[{"internalType":"address","name":"owner","type":"address"},{"internalType":"address","name":"operator","type":"address"}],"name":"isApprovedForAll","outputs":[{"internalType":"bool","name":"","type":"bool"}],"stateMutability":"view","type":"function"},{"inputs":[{"internalType":"string","name":"sn_name","type":"string"},{"internalType":"string","name":"sn_id","type":"string"}],"name":"isAvailable","outputs":[{"internalType":"bool","name":"","type":"bool"}],"stateMutability":"view","type":"function"},{"inputs":[{"internalType":"address","name":"to","type":"address"}],"name":"mint","outputs":[{"internalType":"uint256","name":"","type":"uint256"}],"stateMutability":"nonpayable","type":"function"},{"inputs":[{"internalType":"string","name":"code","type":"string"},{"internalType":"string","name":"redirectUrl","type":"string"}],"name":"mintDiscord","outputs":[],"stateMutability":"payable","type":"function"},{"inputs":[{"internalType":"string","name":"oauthToken","type":"string"},{"internalType":"string","name":"oauthVerifier","type":"string"}],"name":"mintTwitter","outputs":[],"stateMutability":"payable","type":"function"},{"inputs":[],"name":"name","outputs":[{"internalType":"string","name":"","type":"string"}],"stateMutability":"view","type":"function"},{"inputs":[{"internalType":"uint256","name":"tokenId","type":"uint256"}],"name":"ownerOf","outputs":[{"internalType":"address","name":"","type":"address"}],"stateMutability":"view","type":"function"},{"inputs":[],"name":"pause","outputs":[],"stateMutability":"nonpayable","type":"function"},{"inputs":[],"name":"paused","outputs":[{"internalType":"bool","name":"","type":"bool"}],"stateMutability":"view","type":"function"},{"inputs":[{"internalType":"bytes32","name":"role","type":"bytes32"},{"internalType":"address","name":"account","type":"address"}],"name":"renounceRole","outputs":[],"stateMutability":"nonpayable","type":"function"},{"inputs":[],"name":"retrieveFunds","outputs":[],"stateMutability":"nonpayable","type":"function"},{"inputs":[{"internalType":"bytes32","name":"role","type":"bytes32"},{"internalType":"address","name":"account","type":"address"}],"name":"revokeRole","outputs":[],"stateMutability":"nonpayable","type":"function"},{"inputs":[{"internalType":"address","name":"from","type":"address"},{"internalType":"address","name":"to","type":"address"},{"internalType":"uint256","name":"tokenId","type":"uint256"}],"name":"safeTransferFrom","outputs":[],"stateMutability":"nonpayable","type":"function"},{"inputs":[{"internalType":"address","name":"from","type":"address"},{"internalType":"address","name":"to","type":"address"},{"internalType":"uint256","name":"tokenId","type":"uint256"},{"internalType":"bytes","name":"_data","type":"bytes"}],"name":"safeTransferFrom","outputs":[],"stateMutability":"nonpayable","type":"function"},{"inputs":[{"internalType":"address","name":"operator","type":"address"},{"internalType":"bool","name":"approved","type":"bool"}],"name":"setApprovalForAll","outputs":[],"stateMutability":"nonpayable","type":"function"},{"inputs":[{"internalType":"string","name":"newBaseURI","type":"string"}],"name":"setBaseURI","outputs":[],"stateMutability":"nonpayable","type":"function"},{"inputs":[{"internalType":"address","name":"discordMinterAddress","type":"address"}],"name":"setDiscordMinterAddress","outputs":[],"stateMutability":"nonpayable","type":"function"},{"inputs":[{"internalType":"address","name":"twitterMinterAddress","type":"address"}],"name":"setTwitterMinterAddress","outputs":[],"stateMutability":"nonpayable","type":"function"},{"inputs":[{"internalType":"bytes4","name":"interfaceId","type":"bytes4"}],"name":"supportsInterface","outputs":[{"internalType":"bool","name":"","type":"bool"}],"stateMutability":"view","type":"function"},{"inputs":[],"name":"symbol","outputs":[{"internalType":"string","name":"","type":"string"}],"stateMutability":"view","type":"function"},{"inputs":[{"internalType":"uint256","name":"index","type":"uint256"}],"name":"tokenByIndex","outputs":[{"internalType":"uint256","name":"","type":"uint256"}],"stateMutability":"view","type":"function"},{"inputs":[{"internalType":"address","name":"owner","type":"address"},{"internalType":"uint256","name":"index","type":"uint256"}],"name":"tokenOfOwnerByIndex","outputs":[{"internalType":"uint256","name":"","type":"uint256"}],"stateMutability":"view","type":"function"},{"inputs":[{"internalType":"uint256","name":"tokenId","type":"uint256"}],"name":"tokenURI","outputs":[{"internalType":"string","name":"","type":"string"}],"stateMutability":"view","type":"function"},{"inputs":[],"name":"totalSupply","outputs":[{"internalType":"uint256","name":"","type":"uint256"}],"stateMutability":"view","type":"function"},{"inputs":[{"internalType":"address","name":"from","type":"address"},{"internalType":"address","name":"to","type":"address"},{"internalType":"uint256","name":"tokenId","type":"uint256"}],"name":"transferFrom","outputs":[],"stateMutability":"nonpayable","type":"function"},{"inputs":[],"name":"unpause","outputs":[],"stateMutability":"nonpayable","type":"function"}],"bytecode":"0x608060405234801561001057600080fd5b50613a67806100206000396000f3fe6080604052600436106102465760003560e01c806370a0823111610139578063a217fddf116100b6578063c87b56dd1161007a578063c87b56dd146106a2578063ca15c873146106c2578063d5391393146106e2578063d547741f14610704578063e63ab1e914610724578063e985e9c51461074657600080fd5b8063a217fddf1461060d578063a22cb46514610622578063a6487c5314610642578063adac30c914610662578063b88d4fde1461068257600080fd5b80639010d07c116100fd5780639010d07c1461058557806391d14854146105a557806394925ecc146105c557806395d89b41146105d8578063965a122c146105ed57600080fd5b806370a08231146104ee57806375b238fc1461050e5780638456cb59146105305780638ade7355146105455780638e8876b11461057257600080fd5b8063327e29eb116101c757806355f804b31161018b57806355f804b3146104605780635c975abb1461048057806361b20d8c146104995780636352211e146104ae5780636a627842146104ce57600080fd5b8063327e29eb146103cb57806336568abe146103eb5780633f4ba83a1461040b57806342842e0e146104205780634f6ccce71461044057600080fd5b806318160ddd1161020e57806318160ddd1461031c57806323b872dd1461033b578063248a9ca31461035b5780632f2ff15d1461038b5780632f745c59146103ab57600080fd5b806301ffc9a71461024b57806306fdde0314610280578063081812fc146102a2578063095ea7b3146102da5780630e565948146102fc575b600080fd5b34801561025757600080fd5b5061026b610266366004613261565b61078f565b60405190151581526020015b60405180910390f35b34801561028c57600080fd5b506102956107a0565b6040516102779190613593565b3480156102ae57600080fd5b506102c26102bd3660046131ee565b610832565b6040516001600160a01b039091168152602001610277565b3480156102e657600080fd5b506102fa6102f53660046131a9565b6108cc565b005b34801561030857600080fd5b5061026b6103173660046132cc565b6109e2565b34801561032857600080fd5b5060fd545b604051908152602001610277565b34801561034757600080fd5b506102fa6103563660046130bf565b610c29565b34801561036757600080fd5b5061032d6103763660046131ee565b60009081526065602052604090206001015490565b34801561039757600080fd5b506102fa6103a636600461321e565b610c5a565b3480156103b757600080fd5b5061032d6103c63660046131a9565b610c80565b3480156103d757600080fd5b506102fa6103e6366004613073565b610d16565b3480156103f757600080fd5b506102fa61040636600461321e565b610da7565b34801561041757600080fd5b506102fa610e25565b34801561042c57600080fd5b506102fa61043b3660046130bf565b610ea0565b34801561044c57600080fd5b5061032d61045b3660046131ee565b610ebb565b34801561046c57600080fd5b506102fa61047b366004613299565b610f5c565b34801561048c57600080fd5b5061012d5460ff1661026b565b3480156104a557600080fd5b506102fa610f89565b3480156104ba57600080fd5b506102c26104c93660046131ee565b610fce565b3480156104da57600080fd5b5061032d6104e9366004613073565b611045565b3480156104fa57600080fd5b5061032d610509366004613073565b6110dc565b34801561051a57600080fd5b5061032d6000805160206139f283398151915281565b34801561053c57600080fd5b506102fa611163565b34801561055157600080fd5b506105656105603660046131ee565b6111da565b6040516102779190613758565b6102fa6105803660046132cc565b6114bd565b34801561059157600080fd5b506102c26105a0366004613240565b611535565b3480156105b157600080fd5b5061026b6105c036600461321e565b611554565b6102fa6105d33660046132cc565b61157f565b3480156105e457600080fd5b5061029561159a565b3480156105f957600080fd5b506105656106083660046132cc565b6115a9565b34801561061957600080fd5b5061032d600081565b34801561062e57600080fd5b506102fa61063d366004613173565b6118ad565b34801561064e57600080fd5b506102fa61065d36600461332d565b6118b8565b34801561066e57600080fd5b506102fa61067d366004613073565b61197f565b34801561068e57600080fd5b506102fa61069d3660046130fa565b611a0d565b3480156106ae57600080fd5b506102956106bd3660046131ee565b611a3f565b3480156106ce57600080fd5b5061032d6106dd3660046131ee565b611b19565b3480156106ee57600080fd5b5061032d6000805160206139d283398151915281565b34801561071057600080fd5b506102fa61071f36600461321e565b611b30565b34801561073057600080fd5b5061032d6000805160206139b283398151915281565b34801561075257600080fd5b5061026b61076136600461308d565b6001600160a01b03918216600090815260ce6020908152604080832093909416825291909152205460ff1690565b600061079a82611b56565b92915050565b606060c980546107af906138e1565b80601f01602080910402602001604051908101604052809291908181526020018280546107db906138e1565b80156108285780601f106107fd57610100808354040283529160200191610828565b820191906000526020600020905b81548152906001019060200180831161080b57829003601f168201915b5050505050905090565b600081815260cb60205260408120546001600160a01b03166108b05760405162461bcd60e51b815260206004820152602c60248201527f4552433732313a20617070726f76656420717565727920666f72206e6f6e657860448201526b34b9ba32b73a103a37b5b2b760a11b60648201526084015b60405180910390fd5b50600090815260cd60205260409020546001600160a01b031690565b60006108d782610fce565b9050806001600160a01b0316836001600160a01b031614156109455760405162461bcd60e51b815260206004820152602160248201527f4552433732313a20617070726f76616c20746f2063757272656e74206f776e656044820152603960f91b60648201526084016108a7565b336001600160a01b038216148061096157506109618133610761565b6109d35760405162461bcd60e51b815260206004820152603860248201527f4552433732313a20617070726f76652063616c6c6572206973206e6f74206f7760448201527f6e6572206e6f7220617070726f76656420666f7220616c6c000000000000000060648201526084016108a7565b6109dd8383611b7b565b505050565b6000826040516020016109f59190613496565b60408051601f19818403018152828252805160209182012061019354633791ea5360e01b8552925190936001600160a01b0390931692633791ea53926004808301939192829003018186803b158015610a4d57600080fd5b505afa158015610a61573d6000803e3d6000fd5b505050506040513d601f19601f82011682018060405250810190610a859190613206565b1415610b135761019354604051634b29835560e11b81526001600160a01b039091169063965306aa90610abc908590600401613593565b60206040518083038186803b158015610ad457600080fd5b505afa158015610ae8573d6000803e3d6000fd5b505050506040513d601f19601f82011682018060405250810190610b0c91906131d2565b905061079a565b82604051602001610b249190613496565b60408051601f1981840301815282825280516020918201206101c454633791ea5360e01b8552925190936001600160a01b0390931692633791ea53926004808301939192829003018186803b158015610b7c57600080fd5b505afa158015610b90573d6000803e3d6000fd5b505050506040513d601f19601f82011682018060405250810190610bb49190613206565b1415610beb576101c454604051634b29835560e11b81526001600160a01b039091169063965306aa90610abc908590600401613593565b610c2060405180604001604052806013815260200172556e6b6e6f776e20736e5f6e616d653a20257360681b81525084611be9565b50600092915050565b610c333382611c2e565b610c4f5760405162461bcd60e51b81526004016108a7906136bc565b6109dd838383611d25565b600082815260656020526040902060010154610c768133611ed0565b6109dd8383611f34565b6000610c8b836110dc565b8210610ced5760405162461bcd60e51b815260206004820152602b60248201527f455243373231456e756d657261626c653a206f776e657220696e646578206f7560448201526a74206f6620626f756e647360a81b60648201526084016108a7565b506001600160a01b0391909116600090815260fb60209081526040808320938352929052205490565b610d2e6000805160206139f283398151915233611554565b610d4a5760405162461bcd60e51b81526004016108a79061367a565b61019354610d70906000805160206139d2833981519152906001600160a01b0316611b30565b61019380546001600160a01b0319166001600160a01b038316179055610da46000805160206139d283398151915282610c5a565b50565b6001600160a01b0381163314610e175760405162461bcd60e51b815260206004820152602f60248201527f416363657373436f6e74726f6c3a2063616e206f6e6c792072656e6f756e636560448201526e103937b632b9903337b91039b2b63360891b60648201526084016108a7565b610e218282611f56565b5050565b610e3d6000805160206139b283398151915233611554565b610e965760405162461bcd60e51b81526020600482015260366024820152600080516020613a1283398151915260448201527570617573657220726f6c6520746f20756e706175736560501b60648201526084016108a7565b610e9e611f78565b565b6109dd83838360405180602001604052806000815250611a0d565b6000610ec660fd5490565b8210610f295760405162461bcd60e51b815260206004820152602c60248201527f455243373231456e756d657261626c653a20676c6f62616c20696e646578206f60448201526b7574206f6620626f756e647360a01b60648201526084016108a7565b60fd8281548110610f4a57634e487b7160e01b600052603260045260246000fd5b90600052602060002001549050919050565b6000805160206139f2833981519152610f758133611ed0565b81516109dd90610192906020850190612f23565b6000805160206139f2833981519152610fa28133611ed0565b60405133904780156108fc02916000818181858888f19350505050158015610e21573d6000803e3d6000fd5b600081815260cb60205260408120546001600160a01b03168061079a5760405162461bcd60e51b815260206004820152602960248201527f4552433732313a206f776e657220717565727920666f72206e6f6e657869737460448201526832b73a103a37b5b2b760b91b60648201526084016108a7565b600061105f6000805160206139d283398151915233611554565b6110b55760405162461bcd60e51b81526020600482015260336024820152600080516020613a128339815191526044820152721b5a5b9d195c881c9bdb19481d1bc81b5a5b9d606a1b60648201526084016108a7565b60006110c16101915490565b90506110cd838261200d565b61079a61019180546001019055565b60006001600160a01b0382166111475760405162461bcd60e51b815260206004820152602a60248201527f4552433732313a2062616c616e636520717565727920666f7220746865207a65604482015269726f206164647265737360b01b60648201526084016108a7565b506001600160a01b0316600090815260cc602052604090205490565b61117b6000805160206139b283398151915233611554565b6111d25760405162461bcd60e51b81526020600482015260346024820152600080516020613a1283398151915260448201527370617573657220726f6c6520746f20706175736560601b60648201526084016108a7565b610e9e61215b565b6112056040518060800160405280600081526020016060815260200160608152602001606081525090565b600082815260cb60205260409020546001600160a01b0316151515156001146112965760405162461bcd60e51b815260206004820152603d60248201527f4f776e596f7572536f6369616c4e6574776f726b3a20546865206163636f756e60448201527f7420776173206e6f7420796574206d696e746564205b5f65786973745d00000060648201526084016108a7565b6101935460405162491fcf60e11b8152600481018490526001600160a01b039091169062923f9e9060240160206040518083038186803b1580156112d957600080fd5b505afa1580156112ed573d6000803e3d6000fd5b505050506040513d601f19601f8201168201806040525081019061131191906131d2565b156113985761019354604051638ade735560e01b8152600481018490526001600160a01b0390911690638ade7355906024015b60006040518083038186803b15801561135c57600080fd5b505afa158015611370573d6000803e3d6000fd5b505050506040513d6000823e601f3d908101601f1916820160405261079a91908101906133b1565b6101c45460405162491fcf60e11b8152600481018490526001600160a01b039091169062923f9e9060240160206040518083038186803b1580156113db57600080fd5b505afa1580156113ef573d6000803e3d6000fd5b505050506040513d601f19601f8201168201806040525081019061141391906131d2565b1561144a576101c454604051638ade735560e01b8152600481018490526001600160a01b0390911690638ade735590602401611344565b60405162461bcd60e51b815260206004820152603e60248201527f4f776e596f7572536f6369616c4e6574776f726b3a20546865206163636f756e60448201527f7420776173206e6f7420796574206d696e746564205b6d696e746572735d000060648201526084016108a7565b919050565b610193546001600160a01b03166329b1164f348484335b6040516001600160e01b031960e087901b1681526114ff939291903090636a627842906004016135d4565b6000604051808303818588803b15801561151857600080fd5b505af115801561152c573d6000803e3d6000fd5b50505050505050565b600082815260976020526040812061154d90836121d8565b9392505050565b60009182526065602090815260408084206001600160a01b0393909316845291905290205460ff1690565b6101c4546001600160a01b03166329b1164f348484336114d4565b606060ca80546107af906138e1565b6115d46040518060800160405280600081526020016060815260200160608152602001606081525090565b6115de83836109e2565b156116485760405162461bcd60e51b815260206004820152603460248201527f4f776e596f7572536f6369616c4e6574776f726b3a20546865206163636f756e6044820152731d081dd85cc81b9bdd081e595d081b5a5b9d195960621b60648201526084016108a7565b826040516020016116599190613496565b60408051601f19818403018152828252805160209182012061019354633791ea5360e01b8552925190936001600160a01b0390931692633791ea53926004808301939192829003018186803b1580156116b157600080fd5b505afa1580156116c5573d6000803e3d6000fd5b505050506040513d601f19601f820116820180604052508101906116e99190613206565b141561177457610193546040516329927e9760e11b81526001600160a01b0390911690635324fd2e90611720908590600401613593565b60006040518083038186803b15801561173857600080fd5b505afa15801561174c573d6000803e3d6000fd5b505050506040513d6000823e601f3d908101601f19168201604052610b0c91908101906133b1565b826040516020016117859190613496565b60408051601f1981840301815282825280516020918201206101c454633791ea5360e01b8552925190936001600160a01b0390931692633791ea53926004808301939192829003018186803b1580156117dd57600080fd5b505afa1580156117f1573d6000803e3d6000fd5b505050506040513d601f19601f820116820180604052508101906118159190613206565b141561184c576101c4546040516329927e9760e11b81526001600160a01b0390911690635324fd2e90611720908590600401613593565b60405162461bcd60e51b815260206004820152603060248201527f4f776e596f7572536f6369616c4e6574776f726b3a20556e737570706f72746560448201526f6420736f6369616c206e6574776f726b60801b60648201526084016108a7565b610e213383836121e4565b600054610100900460ff166118d35760005460ff16156118d7565b303b155b61193a5760405162461bcd60e51b815260206004820152602e60248201527f496e697469616c697a61626c653a20636f6e747261637420697320616c72656160448201526d191e481a5b9a5d1a585b1a5e995960921b60648201526084016108a7565b600054610100900460ff1615801561195c576000805461ffff19166101011790555b6119678484846122b3565b8015611979576000805461ff00191690555b50505050565b6119976000805160206139f283398151915233611554565b6119b35760405162461bcd60e51b81526004016108a79061367a565b6101c4546119d9906000805160206139d2833981519152906001600160a01b0316611b30565b6101c480546001600160a01b0319166001600160a01b038316179055610da46000805160206139d283398151915282610c5a565b611a173383611c2e565b611a335760405162461bcd60e51b81526004016108a7906136bc565b61197984848484612325565b600081815260cb60205260409020546060906001600160a01b0316611abe5760405162461bcd60e51b815260206004820152602f60248201527f4552433732314d657461646174613a2055524920717565727920666f72206e6f60448201526e3732bc34b9ba32b73a103a37b5b2b760891b60648201526084016108a7565b6000611ac8612358565b90506000815111611ae8576040518060200160405280600081525061154d565b80611af284612368565b604051602001611b039291906134b2565b6040516020818303038152906040529392505050565b600081815260976020526040812061079a90612482565b600082815260656020526040902060010154611b4c8133611ed0565b6109dd8383611f56565b60006001600160e01b0319821663780e9d6360e01b148061079a575061079a8261248c565b600081815260cd6020526040902080546001600160a01b0319166001600160a01b0384169081179091558190611bb082610fce565b6001600160a01b03167f8c5be1e5ebec7d5bd14f71427d1e84f3dd0314c0f7b2291e5b200ac8c7c3b92560405160405180910390a45050565b610e218282604051602401611bff9291906135a6565b60408051601f198184030181529190526020810180516001600160e01b0316634b5c427760e01b1790526124cc565b600081815260cb60205260408120546001600160a01b0316611ca75760405162461bcd60e51b815260206004820152602c60248201527f4552433732313a206f70657261746f7220717565727920666f72206e6f6e657860448201526b34b9ba32b73a103a37b5b2b760a11b60648201526084016108a7565b6000611cb283610fce565b9050806001600160a01b0316846001600160a01b03161480611ced5750836001600160a01b0316611ce284610832565b6001600160a01b0316145b80611d1d57506001600160a01b03808216600090815260ce602090815260408083209388168352929052205460ff165b949350505050565b826001600160a01b0316611d3882610fce565b6001600160a01b031614611da05760405162461bcd60e51b815260206004820152602960248201527f4552433732313a207472616e73666572206f6620746f6b656e2074686174206960448201526839903737ba1037bbb760b91b60648201526084016108a7565b6001600160a01b038216611e025760405162461bcd60e51b8152602060048201526024808201527f4552433732313a207472616e7366657220746f20746865207a65726f206164646044820152637265737360e01b60648201526084016108a7565b611e0d8383836124ed565b611e18600082611b7b565b6001600160a01b038316600090815260cc60205260408120805460019290611e41908490613887565b90915550506001600160a01b038216600090815260cc60205260408120805460019290611e6f90849061383c565b9091555050600081815260cb602052604080822080546001600160a01b0319166001600160a01b0386811691821790925591518493918716917fddf252ad1be2c89b69c2b068fc378daa952ba7f163c4a11628f55a4df523b3ef91a4505050565b611eda8282611554565b610e2157611ef2816001600160a01b031660146124f8565b611efd8360206124f8565b604051602001611f0e9291906134e1565b60408051601f198184030181529082905262461bcd60e51b82526108a791600401613593565b611f3e82826126da565b60008281526097602052604090206109dd9082612760565b611f608282612775565b60008281526097602052604090206109dd90826127dc565b61012d5460ff16611fc25760405162461bcd60e51b815260206004820152601460248201527314185d5cd8589b194e881b9bdd081c185d5cd95960621b60448201526064016108a7565b61012d805460ff191690557f5db9ee0a495bf2e6ff9c91a7834c1ba4fdd244a5e8aa4e537bd38aeae4b073aa335b6040516001600160a01b03909116815260200160405180910390a1565b6001600160a01b0382166120635760405162461bcd60e51b815260206004820181905260248201527f4552433732313a206d696e7420746f20746865207a65726f206164647265737360448201526064016108a7565b600081815260cb60205260409020546001600160a01b0316156120c85760405162461bcd60e51b815260206004820152601c60248201527f4552433732313a20746f6b656e20616c7265616479206d696e7465640000000060448201526064016108a7565b6120d4600083836124ed565b6001600160a01b038216600090815260cc602052604081208054600192906120fd90849061383c565b9091555050600081815260cb602052604080822080546001600160a01b0319166001600160a01b03861690811790915590518392907fddf252ad1be2c89b69c2b068fc378daa952ba7f163c4a11628f55a4df523b3ef908290a45050565b61012d5460ff16156121a25760405162461bcd60e51b815260206004820152601060248201526f14185d5cd8589b194e881c185d5cd95960821b60448201526064016108a7565b61012d805460ff191660011790557f62e78cea01bee320cd4e420270b5ea74000d11b0c9f74754ebdbfc544b05a258611ff03390565b600061154d83836127f1565b816001600160a01b0316836001600160a01b031614156122465760405162461bcd60e51b815260206004820152601960248201527f4552433732313a20617070726f766520746f2063616c6c65720000000000000060448201526064016108a7565b6001600160a01b03838116600081815260ce6020908152604080832094871680845294825291829020805460ff191686151590811790915591519182527f17307eab39ab6107e8899845ad3d59bd9653f200f220920489ca2b5937696c31910160405180910390a3505050565b600054610100900460ff166122da5760405162461bcd60e51b81526004016108a79061370d565b6122e2612829565b6122ea612829565b6122f2612829565b6122fa612829565b6123048383612850565b61230c612829565b61231461289e565b61231c612829565b6109dd816128d2565b612330848484611d25565b61233c84848484612961565b6119795760405162461bcd60e51b81526004016108a790613628565b606061019280546107af906138e1565b60608161238c5750506040805180820190915260018152600360fc1b602082015290565b8160005b81156123b657806123a08161391c565b91506123af9050600a83613854565b9150612390565b60008167ffffffffffffffff8111156123df57634e487b7160e01b600052604160045260246000fd5b6040519080825280601f01601f191660200182016040528015612409576020820181803683370190505b5090505b8415611d1d5761241e600183613887565b915061242b600a86613937565b61243690603061383c565b60f81b81838151811061245957634e487b7160e01b600052603260045260246000fd5b60200101906001600160f81b031916908160001a90535061247b600a86613854565b945061240d565b600061079a825490565b60006001600160e01b031982166380ac58cd60e01b14806124bd57506001600160e01b03198216635b5e139f60e01b145b8061079a575061079a82612a6e565b80516a636f6e736f6c652e6c6f67602083016000808483855afa5050505050565b6109dd838383612a93565b60606000612507836002613868565b61251290600261383c565b67ffffffffffffffff81111561253857634e487b7160e01b600052604160045260246000fd5b6040519080825280601f01601f191660200182016040528015612562576020820181803683370190505b509050600360fc1b8160008151811061258b57634e487b7160e01b600052603260045260246000fd5b60200101906001600160f81b031916908160001a905350600f60fb1b816001815181106125c857634e487b7160e01b600052603260045260246000fd5b60200101906001600160f81b031916908160001a90535060006125ec846002613868565b6125f790600161383c565b90505b600181111561268b576f181899199a1a9b1b9c1cb0b131b232b360811b85600f166010811061263957634e487b7160e01b600052603260045260246000fd5b1a60f81b82828151811061265d57634e487b7160e01b600052603260045260246000fd5b60200101906001600160f81b031916908160001a90535060049490941c93612684816138ca565b90506125fa565b50831561154d5760405162461bcd60e51b815260206004820181905260248201527f537472696e67733a20686578206c656e67746820696e73756666696369656e7460448201526064016108a7565b6126e48282611554565b610e215760008281526065602090815260408083206001600160a01b03851684529091529020805460ff1916600117905561271c3390565b6001600160a01b0316816001600160a01b0316837f2f8788117e7eff1d82e926ec794901d17c78024a50270940304540a733656f0d60405160405180910390a45050565b600061154d836001600160a01b038416612b06565b61277f8282611554565b15610e215760008281526065602090815260408083206001600160a01b0385168085529252808320805460ff1916905551339285917ff6391f5c32d9c69d2a47ea670b442974b53935d1edc7fd64eb21e047a839171b9190a45050565b600061154d836001600160a01b038416612b55565b600082600001828154811061281657634e487b7160e01b600052603260045260246000fd5b9060005260206000200154905092915050565b600054610100900460ff16610e9e5760405162461bcd60e51b81526004016108a79061370d565b600054610100900460ff166128775760405162461bcd60e51b81526004016108a79061370d565b815161288a9060c9906020850190612f23565b5080516109dd9060ca906020840190612f23565b600054610100900460ff166128c55760405162461bcd60e51b81526004016108a79061370d565b61012d805460ff19169055565b600054610100900460ff166128f95760405162461bcd60e51b81526004016108a79061370d565b805161290d90610192906020840190612f23565b50612919600033612c72565b6129316000805160206139d283398151915233612c72565b6129496000805160206139b283398151915233612c72565b610da46000805160206139f283398151915233612c72565b60006001600160a01b0384163b15612a6357604051630a85bd0160e11b81526001600160a01b0385169063150b7a02906129a5903390899088908890600401613556565b602060405180830381600087803b1580156129bf57600080fd5b505af19250505080156129ef575060408051601f3d908101601f191682019092526129ec9181019061327d565b60015b612a49573d808015612a1d576040519150601f19603f3d011682016040523d82523d6000602084013e612a22565b606091505b508051612a415760405162461bcd60e51b81526004016108a790613628565b805181602001fd5b6001600160e01b031916630a85bd0160e11b149050611d1d565b506001949350505050565b60006001600160e01b03198216635a05180f60e01b148061079a575061079a82612c7c565b612a9e838383612cb1565b61012d5460ff16156109dd5760405162461bcd60e51b815260206004820152602b60248201527f4552433732315061757361626c653a20746f6b656e207472616e73666572207760448201526a1a1a5b19481c185d5cd95960aa1b60648201526084016108a7565b6000818152600183016020526040812054612b4d5750815460018181018455600084815260208082209093018490558454848252828601909352604090209190915561079a565b50600061079a565b60008181526001830160205260408120548015612c68576000612b79600183613887565b8554909150600090612b8d90600190613887565b9050818114612c0e576000866000018281548110612bbb57634e487b7160e01b600052603260045260246000fd5b9060005260206000200154905080876000018481548110612bec57634e487b7160e01b600052603260045260246000fd5b6000918252602080832090910192909255918252600188019052604090208390555b8554869080612c2d57634e487b7160e01b600052603160045260246000fd5b60019003818190600052602060002001600090559055856001016000868152602001908152602001600020600090556001935050505061079a565b600091505061079a565b610e218282611f34565b60006001600160e01b03198216637965db0b60e01b148061079a57506301ffc9a760e01b6001600160e01b031983161461079a565b6001600160a01b038316612d0c57612d078160fd8054600083815260fe60205260408120829055600182018355919091527f9346ac6dd7de6b96975fec380d4d994c4c12e6a8897544f22915316cc6cca2800155565b612d2f565b816001600160a01b0316836001600160a01b031614612d2f57612d2f8382612d69565b6001600160a01b038216612d46576109dd81612e06565b826001600160a01b0316826001600160a01b0316146109dd576109dd8282612edf565b60006001612d76846110dc565b612d809190613887565b600083815260fc6020526040902054909150808214612dd3576001600160a01b038416600090815260fb60209081526040808320858452825280832054848452818420819055835260fc90915290208190555b50600091825260fc602090815260408084208490556001600160a01b03909416835260fb81528383209183525290812055565b60fd54600090612e1890600190613887565b600083815260fe602052604081205460fd8054939450909284908110612e4e57634e487b7160e01b600052603260045260246000fd5b906000526020600020015490508060fd8381548110612e7d57634e487b7160e01b600052603260045260246000fd5b600091825260208083209091019290925582815260fe909152604080822084905585825281205560fd805480612ec357634e487b7160e01b600052603160045260246000fd5b6001900381819060005260206000200160009055905550505050565b6000612eea836110dc565b6001600160a01b03909316600090815260fb60209081526040808320868452825280832085905593825260fc9052919091209190915550565b828054612f2f906138e1565b90600052602060002090601f016020900481019282612f515760008555612f97565b82601f10612f6a57805160ff1916838001178555612f97565b82800160010185558215612f97579182015b82811115612f97578251825591602001919060010190612f7c565b50612fa3929150612fa7565b5090565b5b80821115612fa35760008155600101612fa8565b6000612fcf612fca84613814565b6137e3565b9050828152838383011115612fe357600080fd5b828260208301376000602084830101529392505050565b80356001600160a01b03811681146114b857600080fd5b600082601f830112613021578081fd5b61154d83833560208501612fbc565b600082601f830112613040578081fd5b815161304e612fca82613814565b818152846020838601011115613062578283fd5b611d1d82602083016020870161389e565b600060208284031215613084578081fd5b61154d82612ffa565b6000806040838503121561309f578081fd5b6130a883612ffa565b91506130b660208401612ffa565b90509250929050565b6000806000606084860312156130d3578081fd5b6130dc84612ffa565b92506130ea60208501612ffa565b9150604084013590509250925092565b6000806000806080858703121561310f578081fd5b61311885612ffa565b935061312660208601612ffa565b925060408501359150606085013567ffffffffffffffff811115613148578182fd5b8501601f81018713613158578182fd5b61316787823560208401612fbc565b91505092959194509250565b60008060408385031215613185578182fd5b61318e83612ffa565b9150602083013561319e8161398d565b809150509250929050565b600080604083850312156131bb578182fd5b6131c483612ffa565b946020939093013593505050565b6000602082840312156131e3578081fd5b815161154d8161398d565b6000602082840312156131ff578081fd5b5035919050565b600060208284031215613217578081fd5b5051919050565b60008060408385031215613230578182fd5b823591506130b660208401612ffa565b60008060408385031215613252578182fd5b50508035926020909101359150565b600060208284031215613272578081fd5b813561154d8161399b565b60006020828403121561328e578081fd5b815161154d8161399b565b6000602082840312156132aa578081fd5b813567ffffffffffffffff8111156132c0578182fd5b611d1d84828501613011565b600080604083850312156132de578182fd5b823567ffffffffffffffff808211156132f5578384fd5b61330186838701613011565b93506020850135915080821115613316578283fd5b5061332385828601613011565b9150509250929050565b600080600060608486031215613341578081fd5b833567ffffffffffffffff80821115613358578283fd5b61336487838801613011565b94506020860135915080821115613379578283fd5b61338587838801613011565b9350604086013591508082111561339a578283fd5b506133a786828701613011565b9150509250925092565b6000602082840312156133c2578081fd5b815167ffffffffffffffff808211156133d9578283fd5b90830190608082860312156133ec578283fd5b6133f46137ba565b82518152602083015182811115613409578485fd5b61341587828601613030565b60208301525060408301518281111561342c578485fd5b61343887828601613030565b60408301525060608301518281111561344f578485fd5b61345b87828601613030565b60608301525095945050505050565b6000815180845261348281602086016020860161389e565b601f01601f19169290920160200192915050565b600082516134a881846020870161389e565b9190910192915050565b600083516134c481846020880161389e565b8351908301906134d881836020880161389e565b01949350505050565b7f416363657373436f6e74726f6c3a206163636f756e742000000000000000000081526000835161351981601785016020880161389e565b7001034b99036b4b9b9b4b733903937b6329607d1b601791840191820152835161354a81602884016020880161389e565b01602801949350505050565b6001600160a01b03858116825284166020820152604081018390526080606082018190526000906135899083018461346a565b9695505050505050565b60208152600061154d602083018461346a565b6040815260006135b9604083018561346a565b82810360208401526135cb818561346a565b95945050505050565b6080815260006135e7608083018861346a565b82810360208401526135f9818861346a565b91505060018060a01b038516604083015263ffffffff83168460201b1760401b60608301529695505050505050565b60208082526032908201527f4552433732313a207472616e7366657220746f206e6f6e20455243373231526560408201527131b2b4bb32b91034b6b83632b6b2b73a32b960711b606082015260800190565b6020808252603490820152600080516020613a1283398151915260408201527361646d696e20726f6c6520746f206368616e676560601b606082015260800190565b60208082526031908201527f4552433732313a207472616e736665722063616c6c6572206973206e6f74206f6040820152701ddb995c881b9bdc88185c1c1c9bdd9959607a1b606082015260800190565b6020808252602b908201527f496e697469616c697a61626c653a20636f6e7472616374206973206e6f74206960408201526a6e697469616c697a696e6760a81b606082015260800190565b6020815281516020820152600060208301516080604084015261377e60a084018261346a565b90506040840151601f198085840301606086015261379c838361346a565b92506060860151915080858403016080860152506135cb828261346a565b6040516080810167ffffffffffffffff811182821017156137dd576137dd613977565b60405290565b604051601f8201601f1916810167ffffffffffffffff8111828210171561380c5761380c613977565b604052919050565b600067ffffffffffffffff82111561382e5761382e613977565b50601f01601f191660200190565b6000821982111561384f5761384f61394b565b500190565b60008261386357613863613961565b500490565b60008160001904831182151516156138825761388261394b565b500290565b6000828210156138995761389961394b565b500390565b60005b838110156138b95781810151838201526020016138a1565b838111156119795750506000910152565b6000816138d9576138d961394b565b506000190190565b600181811c908216806138f557607f821691505b6020821081141561391657634e487b7160e01b600052602260045260246000fd5b50919050565b60006000198214156139305761393061394b565b5060010190565b60008261394657613946613961565b500690565b634e487b7160e01b600052601160045260246000fd5b634e487b7160e01b600052601260045260246000fd5b634e487b7160e01b600052604160045260246000fd5b8015158114610da457600080fd5b6001600160e01b031981168114610da457600080fdfe65d7a28e3265b37a6474929f336521b332c1681b933f6cb9f3376673440d862a9f2df0fed2c77648de5860a4cc508cd0818c85b8b8a1ab4ceeef8d981c8956a6a49807205ce4d355092ef5a8a18f56e8913cf4a201fbe287825b095693c217754f776e596f7572536f6369616c4e6574776f726b3a206d757374206861766520a26469706673582212208ab76ffd3a0640dcd20d471e4818fd303e67d218fd674c8357716f2c2af8334164736f6c63430008040033","linkReferences":{},"deployedLinkReferences":{}}