{"_format":"hh-sol-artifact-1","contractName":"OwnYourSocialNetwork","sourceName":"contracts/OwnYourSocialNetwork.sol","abi":[{"anonymous":false,"inputs":[{"indexed":true,"internalType":"address","name":"owner","type":"address"},{"indexed":true,"internalType":"address","name":"approved","type":"address"},{"indexed":true,"internalType":"uint256","name":"tokenId","type":"uint256"}],"name":"Approval","type":"event"},{"anonymous":false,"inputs":[{"indexed":true,"internalType":"address","name":"owner","type":"address"},{"indexed":true,"internalType":"address","name":"operator","type":"address"},{"indexed":false,"internalType":"bool","name":"approved","type":"bool"}],"name":"ApprovalForAll","type":"event"},{"anonymous":false,"inputs":[{"indexed":true,"internalType":"bytes32","name":"role","type":"bytes32"},{"indexed":true,"internalType":"bytes32","name":"previousAdminRole","type":"bytes32"},{"indexed":true,"internalType":"bytes32","name":"newAdminRole","type":"bytes32"}],"name":"RoleAdminChanged","type":"event"},{"anonymous":false,"inputs":[{"indexed":true,"internalType":"bytes32","name":"role","type":"bytes32"},{"indexed":true,"internalType":"address","name":"account","type":"address"},{"indexed":true,"internalType":"address","name":"sender","type":"address"}],"name":"RoleGranted","type":"event"},{"anonymous":false,"inputs":[{"indexed":true,"internalType":"bytes32","name":"role","type":"bytes32"},{"indexed":true,"internalType":"address","name":"account","type":"address"},{"indexed":true,"internalType":"address","name":"sender","type":"address"}],"name":"RoleRevoked","type":"event"},{"anonymous":false,"inputs":[{"indexed":true,"internalType":"address","name":"from","type":"address"},{"indexed":true,"internalType":"address","name":"to","type":"address"},{"indexed":true,"internalType":"uint256","name":"tokenId","type":"uint256"}],"name":"Transfer","type":"event"},{"inputs":[],"name":"DEFAULT_ADMIN_ROLE","outputs":[{"internalType":"bytes32","name":"","type":"bytes32"}],"stateMutability":"view","type":"function"},{"inputs":[],"name":"MINTER_ROLE","outputs":[{"internalType":"bytes32","name":"","type":"bytes32"}],"stateMutability":"view","type":"function"},{"inputs":[],"name":"PAUSER_ROLE","outputs":[{"internalType":"bytes32","name":"","type":"bytes32"}],"stateMutability":"view","type":"function"},{"inputs":[{"internalType":"string","name":"name","type":"string"},{"internalType":"string","name":"symbol","type":"string"},{"internalType":"string","name":"baseURI","type":"string"}],"name":"__OwnYourSocialNetwork__init","outputs":[],"stateMutability":"nonpayable","type":"function"},{"inputs":[{"internalType":"address","name":"to","type":"address"},{"internalType":"uint256","name":"tokenId","type":"uint256"}],"name":"approve","outputs":[],"stateMutability":"nonpayable","type":"function"},{"inputs":[{"internalType":"address","name":"owner","type":"address"}],"name":"balanceOf","outputs":[{"internalType":"uint256","name":"","type":"uint256"}],"stateMutability":"view","type":"function"},{"inputs":[{"internalType":"uint256","name":"tokenId","type":"uint256"}],"name":"getApproved","outputs":[{"internalType":"address","name":"","type":"address"}],"stateMutability":"view","type":"function"},{"inputs":[{"internalType":"string","name":"gen_sn_id","type":"string"}],"name":"getOwnedAccountByGenSnId","outputs":[{"components":[{"internalType":"uint256","name":"id","type":"uint256"},{"internalType":"address","name":"owner","type":"address"},{"internalType":"string","name":"sn_name","type":"string"},{"internalType":"string","name":"sn_id","type":"string"},{"internalType":"string","name":"sn_url","type":"string"}],"internalType":"struct OwnedAccount.data","name":"","type":"tuple"}],"stateMutability":"view","type":"function"},{"inputs":[{"internalType":"uint256","name":"token_id","type":"uint256"}],"name":"getOwnedAccountByToken","outputs":[{"components":[{"internalType":"uint256","name":"id","type":"uint256"},{"internalType":"address","name":"owner","type":"address"},{"internalType":"string","name":"sn_name","type":"string"},{"internalType":"string","name":"sn_id","type":"string"},{"internalType":"string","name":"sn_url","type":"string"}],"internalType":"struct OwnedAccount.data","name":"","type":"tuple"}],"stateMutability":"view","type":"function"},{"inputs":[{"internalType":"bytes32","name":"role","type":"bytes32"}],"name":"getRoleAdmin","outputs":[{"internalType":"bytes32","name":"","type":"bytes32"}],"stateMutability":"view","type":"function"},{"inputs":[{"internalType":"bytes32","name":"role","type":"bytes32"},{"internalType":"uint256","name":"index","type":"uint256"}],"name":"getRoleMember","outputs":[{"internalType":"address","name":"","type":"address"}],"stateMutability":"view","type":"function"},{"inputs":[{"internalType":"bytes32","name":"role","type":"bytes32"}],"name":"getRoleMemberCount","outputs":[{"internalType":"uint256","name":"","type":"uint256"}],"stateMutability":"view","type":"function"},{"inputs":[],"name":"getVersion","outputs":[{"internalType":"string","name":"","type":"string"}],"stateMutability":"pure","type":"function"},{"inputs":[{"internalType":"bytes32","name":"role","type":"bytes32"},{"internalType":"address","name":"account","type":"address"}],"name":"grantRole","outputs":[],"stateMutability":"nonpayable","type":"function"},{"inputs":[{"internalType":"bytes32","name":"role","type":"bytes32"},{"internalType":"address","name":"account","type":"address"}],"name":"hasRole","outputs":[{"internalType":"bool","name":"","type":"bool"}],"stateMutability":"view","type":"function"},{"inputs":[{"internalType":"string","name":"name","type":"string"},{"internalType":"string","name":"symbol","type":"string"},{"internalType":"string","name":"_baseURI","type":"string"}],"name":"initialize","outputs":[],"stateMutability":"nonpayable","type":"function"},{"inputs":[{"internalType":"address","name":"owner","type":"address"},{"internalType":"address","name":"operator","type":"address"}],"name":"isApprovedForAll","outputs":[{"internalType":"bool","name":"","type":"bool"}],"stateMutability":"view","type":"function"},{"inputs":[{"internalType":"string","name":"sn_name","type":"string"},{"internalType":"string","name":"sn_id","type":"string"},{"internalType":"string","name":"sn_url","type":"string"},{"internalType":"address","name":"to","type":"address"}],"name":"mint","outputs":[{"internalType":"uint256","name":"","type":"uint256"}],"stateMutability":"nonpayable","type":"function"},{"inputs":[{"internalType":"string","name":"oauthToken","type":"string"},{"internalType":"string","name":"oauthVerifier","type":"string"}],"name":"mintTwitter","outputs":[],"stateMutability":"payable","type":"function"},{"inputs":[],"name":"name","outputs":[{"internalType":"string","name":"","type":"string"}],"stateMutability":"view","type":"function"},{"inputs":[{"internalType":"uint256","name":"tokenId","type":"uint256"}],"name":"ownerOf","outputs":[{"internalType":"address","name":"","type":"address"}],"stateMutability":"view","type":"function"},{"inputs":[{"internalType":"bytes32","name":"role","type":"bytes32"},{"internalType":"address","name":"account","type":"address"}],"name":"renounceRole","outputs":[],"stateMutability":"nonpayable","type":"function"},{"inputs":[],"name":"retrieveFunds","outputs":[],"stateMutability":"nonpayable","type":"function"},{"inputs":[{"internalType":"bytes32","name":"role","type":"bytes32"},{"internalType":"address","name":"account","type":"address"}],"name":"revokeRole","outputs":[],"stateMutability":"nonpayable","type":"function"},{"inputs":[{"internalType":"address","name":"from","type":"address"},{"internalType":"address","name":"to","type":"address"},{"internalType":"uint256","name":"tokenId","type":"uint256"}],"name":"safeTransferFrom","outputs":[],"stateMutability":"nonpayable","type":"function"},{"inputs":[{"internalType":"address","name":"from","type":"address"},{"internalType":"address","name":"to","type":"address"},{"internalType":"uint256","name":"tokenId","type":"uint256"},{"internalType":"bytes","name":"_data","type":"bytes"}],"name":"safeTransferFrom","outputs":[],"stateMutability":"nonpayable","type":"function"},{"inputs":[{"internalType":"address","name":"operator","type":"address"},{"internalType":"bool","name":"approved","type":"bool"}],"name":"setApprovalForAll","outputs":[],"stateMutability":"nonpayable","type":"function"},{"inputs":[{"internalType":"string","name":"newBaseURI","type":"string"}],"name":"setBaseURI","outputs":[],"stateMutability":"nonpayable","type":"function"},{"inputs":[{"internalType":"bytes4","name":"interfaceId","type":"bytes4"}],"name":"supportsInterface","outputs":[{"internalType":"bool","name":"","type":"bool"}],"stateMutability":"view","type":"function"},{"inputs":[],"name":"symbol","outputs":[{"internalType":"string","name":"","type":"string"}],"stateMutability":"view","type":"function"},{"inputs":[{"internalType":"uint256","name":"index","type":"uint256"}],"name":"tokenByIndex","outputs":[{"internalType":"uint256","name":"","type":"uint256"}],"stateMutability":"view","type":"function"},{"inputs":[{"internalType":"address","name":"owner","type":"address"},{"internalType":"uint256","name":"index","type":"uint256"}],"name":"tokenOfOwnerByIndex","outputs":[{"internalType":"uint256","name":"","type":"uint256"}],"stateMutability":"view","type":"function"},{"inputs":[{"internalType":"uint256","name":"tokenId","type":"uint256"}],"name":"tokenURI","outputs":[{"internalType":"string","name":"","type":"string"}],"stateMutability":"view","type":"function"},{"inputs":[],"name":"totalSupply","outputs":[{"internalType":"uint256","name":"","type":"uint256"}],"stateMutability":"view","type":"function"},{"inputs":[{"internalType":"address","name":"from","type":"address"},{"internalType":"address","name":"to","type":"address"},{"internalType":"uint256","name":"tokenId","type":"uint256"}],"name":"transferFrom","outputs":[],"stateMutability":"nonpayable","type":"function"},{"inputs":[],"name":"twitterMinter","outputs":[{"internalType":"contract TwitterMinter","name":"","type":"address"}],"stateMutability":"view","type":"function"},{"inputs":[{"internalType":"address","name":"twitterMinterAddress","type":"address"}],"name":"updateTwitterMinterAddress","outputs":[],"stateMutability":"nonpayable","type":"function"}],"bytecode":"0x608060405234801561001057600080fd5b506134b2806100206000396000f3fe60806040526004361061021a5760003560e01c806370a0823111610123578063a6487c53116100ab578063d547741f1161006f578063d547741f1461064f578063e38f87a31461066f578063e63ab1e91461068f578063e985e9c5146106c3578063f9751b281461070c57600080fd5b8063a6487c53146105ad578063b88d4fde146105cd578063c87b56dd146105ed578063ca15c8731461060d578063d53913931461062d57600080fd5b806395d89b41116100f257806395d89b41146105165780639b5051391461052b578063a217fddf1461054b578063a22cb46514610560578063a56e0f1b1461058057600080fd5b806370a08231146104a35780638e8876b1146104c35780639010d07c146104d657806391d14854146104f657600080fd5b80632f2ff15d116101a657806342842e0e1161017557806342842e0e1461040e5780634f6ccce71461042e57806355f804b31461044e57806361b20d8c1461046e5780636352211e1461048357600080fd5b80632f2ff15d1461038d5780632f745c59146103ad57806336568abe146103cd5780633f4acc32146103ed57600080fd5b80630d8e6e2c116101ed5780630d8e6e2c146102d057806318160ddd146102fe57806323b872dd1461031d578063248a9ca31461033d5780632aedc3f91461036d57600080fd5b806301ffc9a71461021f57806306fdde0314610254578063081812fc14610276578063095ea7b3146102ae575b600080fd5b34801561022b57600080fd5b5061023f61023a366004612d49565b61072c565b60405190151581526020015b60405180910390f35b34801561026057600080fd5b5061026961073d565b60405161024b9190613129565b34801561028257600080fd5b50610296610291366004612cee565b6107cf565b6040516001600160a01b03909116815260200161024b565b3480156102ba57600080fd5b506102ce6102c9366004612cc5565b61085c565b005b3480156102dc57600080fd5b50604080518082019091526005815264312e302e3160d81b6020820152610269565b34801561030a57600080fd5b5060fd545b60405190815260200161024b565b34801561032957600080fd5b506102ce610338366004612bd7565b610972565b34801561034957600080fd5b5061030f610358366004612cee565b60009081526065602052604090206001015490565b34801561037957600080fd5b5061030f610388366004612e99565b6109a3565b34801561039957600080fd5b506102ce6103a8366004612d06565b610b2d565b3480156103b957600080fd5b5061030f6103c8366004612cc5565b610b4f565b3480156103d957600080fd5b506102ce6103e8366004612d06565b610be5565b3480156103f957600080fd5b5061016154610296906001600160a01b031681565b34801561041a57600080fd5b506102ce610429366004612bd7565b610c07565b34801561043a57600080fd5b5061030f610449366004612cee565b610c22565b34801561045a57600080fd5b506102ce610469366004612d81565b610cc3565b34801561047a57600080fd5b506102ce610d58565b34801561048f57600080fd5b5061029661049e366004612cee565b610e09565b3480156104af57600080fd5b5061030f6104be366004612b8b565b610e80565b6102ce6104d1366004612db4565b610f07565b3480156104e257600080fd5b506102966104f1366004612d28565b610f7e565b34801561050257600080fd5b5061023f610511366004612d06565b610f9d565b34801561052257600080fd5b50610269610fc8565b34801561053757600080fd5b506102ce610546366004612e15565b610fd7565b34801561055757600080fd5b5061030f600081565b34801561056c57600080fd5b506102ce61057b366004612c8b565b611072565b34801561058c57600080fd5b506105a061059b366004612cee565b611137565b60405161024b9190613281565b3480156105b957600080fd5b506102ce6105c8366004612e15565b6113be565b3480156105d957600080fd5b506102ce6105e8366004612c12565b611420565b3480156105f957600080fd5b50610269610608366004612cee565b611452565b34801561061957600080fd5b5061030f610628366004612cee565b6114f4565b34801561063957600080fd5b5061030f60008051602061345d83398151915281565b34801561065b57600080fd5b506102ce61066a366004612d06565b61150b565b34801561067b57600080fd5b506105a061068a366004612d81565b611515565b34801561069b57600080fd5b5061030f7f65d7a28e3265b37a6474929f336521b332c1681b933f6cb9f3376673440d862a81565b3480156106cf57600080fd5b5061023f6106de366004612ba5565b6001600160a01b03918216600090815260ce6020908152604080832093909416825291909152205460ff1690565b34801561071857600080fd5b506102ce610727366004612b8b565b611621565b60006107378261170a565b92915050565b606060c9805461074c9061339a565b80601f01602080910402602001604051908101604052809291908181526020018280546107789061339a565b80156107c55780601f1061079a576101008083540402835291602001916107c5565b820191906000526020600020905b8154815290600101906020018083116107a857829003601f168201915b5050505050905090565b60006107da8261172f565b6108405760405162461bcd60e51b815260206004820152602c60248201527f4552433732313a20617070726f76656420717565727920666f72206e6f6e657860448201526b34b9ba32b73a103a37b5b2b760a11b60648201526084015b60405180910390fd5b50600090815260cd60205260409020546001600160a01b031690565b600061086782610e09565b9050806001600160a01b0316836001600160a01b031614156108d55760405162461bcd60e51b815260206004820152602160248201527f4552433732313a20617070726f76616c20746f2063757272656e74206f776e656044820152603960f91b6064820152608401610837565b336001600160a01b03821614806108f157506108f181336106de565b6109635760405162461bcd60e51b815260206004820152603860248201527f4552433732313a20617070726f76652063616c6c6572206973206e6f74206f7760448201527f6e6572206e6f7220617070726f76656420666f7220616c6c00000000000000006064820152608401610837565b61096d838361174c565b505050565b61097c33826117ba565b6109985760405162461bcd60e51b815260040161083790613230565b61096d8383836118a0565b60008085856040516020016109b9929190612f92565b60405160208183030381529060405290506109f261015f826040516109de9190612f76565b90815260200160405180910390205461172f565b15610a5c5760405162461bcd60e51b815260206004820152603460248201527f4f776e596f7572536f6369616c4e6574776f726b3a20546865206163636f756e6044820152731d081dd85cc8185b1c9958591e481b5a5b9d195960621b6064820152608401610837565b6000610a6784611a4b565b6000818152610160602090815260409091208281556001810180546001600160a01b0319166001600160a01b0389161790558951929350610ab0926002909101918a0190612a09565b506000818152610160602090815260409091208751610ad792600390920191890190612a09565b506000818152610160602090815260409091208651610afe92600490920191880190612a09565b508061015f83604051610b119190612f76565b908152604051908190036020019020559150505b949350505050565b610b378282611b0a565b600082815260976020526040902061096d9082611b30565b6000610b5a83610e80565b8210610bbc5760405162461bcd60e51b815260206004820152602b60248201527f455243373231456e756d657261626c653a206f776e657220696e646578206f7560448201526a74206f6620626f756e647360a81b6064820152608401610837565b506001600160a01b0391909116600090815260fb60209081526040808320938352929052205490565b610bef8282611b45565b600082815260976020526040902061096d9082611bbf565b61096d83838360405180602001604052806000815250611420565b6000610c2d60fd5490565b8210610c905760405162461bcd60e51b815260206004820152602c60248201527f455243373231456e756d657261626c653a20676c6f62616c20696e646578206f60448201526b7574206f6620626f756e647360a01b6064820152608401610837565b60fd8281548110610cb157634e487b7160e01b600052603260045260246000fd5b90600052602060002001549050919050565b610cce600033610f9d565b610d405760405162461bcd60e51b815260206004820152603960248201527f4f776e596f7572536f6369616c4e6574776f726b3a206d75737420686176652060448201527f6d696e74657220726f6c6520746f2073657442617365555249000000000000006064820152608401610837565b8051610d549061012e906020840190612a09565b5050565b610d827f65d7a28e3265b37a6474929f336521b332c1681b933f6cb9f3376673440d862a33610f9d565b610dda5760405162461bcd60e51b815260206004820152602360248201527f455243373231437573746f6d3a206d75737420686176652070617573657220726044820152626f6c6560e81b6064820152608401610837565b60405133904780156108fc02916000818181858888f19350505050158015610e06573d6000803e3d6000fd5b50565b600081815260cb60205260408120546001600160a01b0316806107375760405162461bcd60e51b815260206004820152602960248201527f4552433732313a206f776e657220717565727920666f72206e6f6e657869737460448201526832b73a103a37b5b2b760b91b6064820152608401610837565b60006001600160a01b038216610eeb5760405162461bcd60e51b815260206004820152602a60248201527f4552433732313a2062616c616e636520717565727920666f7220746865207a65604482015269726f206164647265737360b01b6064820152608401610837565b506001600160a01b0316600090815260cc602052604090205490565b610161546001600160a01b03166329b1164f348484336040516001600160e01b031960e087901b168152610f48939291903090632aedc3f99060040161313c565b6000604051808303818588803b158015610f6157600080fd5b505af1158015610f75573d6000803e3d6000fd5b50505050505050565b6000828152609760205260408120610f969083611bd4565b9392505050565b60009182526065602090815260408084206001600160a01b0393909316845291905290205460ff1690565b606060ca805461074c9061339a565b600054610100900460ff1680610ff0575060005460ff16155b61100c5760405162461bcd60e51b8152600401610837906131e2565b600054610100900460ff1615801561102e576000805461ffff19166101011790555b61105a84848486604051602001611046929190612f92565b604051602081830303815290604052611be0565b801561106c576000805461ff00191690555b50505050565b6001600160a01b0382163314156110cb5760405162461bcd60e51b815260206004820152601960248201527f4552433732313a20617070726f766520746f2063616c6c6572000000000000006044820152606401610837565b33600081815260ce602090815260408083206001600160a01b03871680855290835292819020805460ff191686151590811790915590519081529192917f17307eab39ab6107e8899845ad3d59bd9653f200f220920489ca2b5937696c31910160405180910390a35050565b61113f612a8d565b6111488261172f565b6111c65760405162461bcd60e51b815260206004820152604360248201527f4f776e596f7572536f6369616c4e6574776f726b3a20476574206f776e65642060448201527f6163636f756e7420717565727920666f72206e6f6e6578697374656e7420746f60648201526235b2b760e91b608482015260a401610837565b60008281526101606020908152604091829020825160a0810184528154815260018201546001600160a01b03169281019290925260028101805492939192918401916112119061339a565b80601f016020809104026020016040519081016040528092919081815260200182805461123d9061339a565b801561128a5780601f1061125f5761010080835404028352916020019161128a565b820191906000526020600020905b81548152906001019060200180831161126d57829003601f168201915b505050505081526020016003820180546112a39061339a565b80601f01602080910402602001604051908101604052809291908181526020018280546112cf9061339a565b801561131c5780601f106112f15761010080835404028352916020019161131c565b820191906000526020600020905b8154815290600101906020018083116112ff57829003601f168201915b505050505081526020016004820180546113359061339a565b80601f01602080910402602001604051908101604052809291908181526020018280546113619061339a565b80156113ae5780601f10611383576101008083540402835291602001916113ae565b820191906000526020600020905b81548152906001019060200180831161139157829003601f168201915b5050505050815250509050919050565b600054610100900460ff16806113d7575060005460ff16155b6113f35760405162461bcd60e51b8152600401610837906131e2565b600054610100900460ff16158015611415576000805461ffff19166101011790555b61105a848484611be0565b61142a33836117ba565b6114465760405162461bcd60e51b815260040161083790613230565b61106c84848484611c9d565b606061145d8261172f565b6114c15760405162461bcd60e51b815260206004820152602f60248201527f4552433732314d657461646174613a2055524920717565727920666f72206e6f60448201526e3732bc34b9ba32b73a103a37b5b2b760891b6064820152608401610837565b61012e6114cd83611cd0565b6040516020016114de929190612fc1565b6040516020818303038152906040529050919050565b600081815260976020526040812061073790611dea565b610bef8282611df4565b61151d612a8d565b61153161015f836040516109de9190612f76565b61159a5760405162461bcd60e51b815260206004820152603460248201527f4f776e596f7572536f6369616c4e6574776f726b3a20546865206163636f756e6044820152731d081dd85cc81b9bdd081e595d081b5a5b9d195960621b6064820152608401610837565b610160600061015f846040516115b09190612f76565b90815260200160405180910390205481526020019081526020016000206040518060a0016040529081600082015481526020016001820160009054906101000a90046001600160a01b03166001600160a01b03166001600160a01b031681526020016002820180546112119061339a565b61162c600033610f9d565b6116b05760405162461bcd60e51b815260206004820152604960248201527f4f776e596f7572536f6369616c4e6574776f726b3a206d75737420686176652060448201527f6d696e74657220726f6c6520746f20757064617465547769747465724d696e7460648201526865724164647265737360b81b608482015260a401610837565b610161546116d69060008051602061345d833981519152906001600160a01b031661150b565b61016180546001600160a01b0319166001600160a01b038316179055610e0660008051602061345d83398151915282611e1a565b60006001600160e01b0319821663780e9d6360e01b1480610737575061073782611e24565b600090815260cb60205260409020546001600160a01b0316151590565b600081815260cd6020526040902080546001600160a01b0319166001600160a01b038416908117909155819061178182610e09565b6001600160a01b03167f8c5be1e5ebec7d5bd14f71427d1e84f3dd0314c0f7b2291e5b200ac8c7c3b92560405160405180910390a45050565b60006117c58261172f565b6118265760405162461bcd60e51b815260206004820152602c60248201527f4552433732313a206f70657261746f7220717565727920666f72206e6f6e657860448201526b34b9ba32b73a103a37b5b2b760a11b6064820152608401610837565b600061183183610e09565b9050806001600160a01b0316846001600160a01b0316148061186c5750836001600160a01b0316611861846107cf565b6001600160a01b0316145b80610b2557506001600160a01b03808216600090815260ce602090815260408083209388168352929052205460ff16610b25565b826001600160a01b03166118b382610e09565b6001600160a01b03161461191b5760405162461bcd60e51b815260206004820152602960248201527f4552433732313a207472616e73666572206f6620746f6b656e2074686174206960448201526839903737ba1037bbb760b91b6064820152608401610837565b6001600160a01b03821661197d5760405162461bcd60e51b8152602060048201526024808201527f4552433732313a207472616e7366657220746f20746865207a65726f206164646044820152637265737360e01b6064820152608401610837565b611988838383611e64565b61199360008261174c565b6001600160a01b038316600090815260cc602052604081208054600192906119bc908490613340565b90915550506001600160a01b038216600090815260cc602052604081208054600192906119ea9084906132f5565b9091555050600081815260cb602052604080822080546001600160a01b0319166001600160a01b0386811691821790925591518493918716917fddf252ad1be2c89b69c2b068fc378daa952ba7f163c4a11628f55a4df523b3ef91a4505050565b6000611a6560008051602061345d83398151915233610f9d565b604051602001611aac907f455243373231437573746f6d3a206d7573742068617665206d696e746572207281526a1bdb19481d1bc81b5a5b9d60aa1b6020820152602b0190565b60405160208183030381529060405290611ad95760405162461bcd60e51b81526004016108379190613129565b506000611ae661012d5490565b9050611afb83611af661012d5490565b611e6f565b61073761012d80546001019055565b600082815260656020526040902060010154611b268133611fae565b61096d8383612012565b6000610f96836001600160a01b038416612098565b6001600160a01b0381163314611bb55760405162461bcd60e51b815260206004820152602f60248201527f416363657373436f6e74726f6c3a2063616e206f6e6c792072656e6f756e636560448201526e103937b632b9903337b91039b2b63360891b6064820152608401610837565b610d5482826120e7565b6000610f96836001600160a01b03841661214e565b6000610f96838361226b565b600054610100900460ff1680611bf9575060005460ff16155b611c155760405162461bcd60e51b8152600401610837906131e2565b600054610100900460ff16158015611c37576000805461ffff19166101011790555b611c3f6122a3565b611c476122a3565b611c4f6122a3565b611c576122a3565b611c61848461230e565b611c696122a3565b611c716123a3565b8151611c859061012e906020850190612a09565b50801561106c576000805461ff001916905550505050565b611ca88484846118a0565b611cb484848484612447565b61106c5760405162461bcd60e51b815260040161083790613190565b606081611cf45750506040805180820190915260018152600360fc1b602082015290565b8160005b8115611d1e5780611d08816133d5565b9150611d179050600a8361330d565b9150611cf8565b60008167ffffffffffffffff811115611d4757634e487b7160e01b600052604160045260246000fd5b6040519080825280601f01601f191660200182016040528015611d71576020820181803683370190505b5090505b8415610b2557611d86600183613340565b9150611d93600a866133f0565b611d9e9060306132f5565b60f81b818381518110611dc157634e487b7160e01b600052603260045260246000fd5b60200101906001600160f81b031916908160001a905350611de3600a8661330d565b9450611d75565b6000610737825490565b600082815260656020526040902060010154611e108133611fae565b61096d83836120e7565b610b378282612551565b60006001600160e01b031982166380ac58cd60e01b1480611e5557506001600160e01b03198216635b5e139f60e01b145b8061073757506107378261255b565b61096d838383612580565b6001600160a01b038216611ec55760405162461bcd60e51b815260206004820181905260248201527f4552433732313a206d696e7420746f20746865207a65726f20616464726573736044820152606401610837565b611ece8161172f565b15611f1b5760405162461bcd60e51b815260206004820152601c60248201527f4552433732313a20746f6b656e20616c7265616479206d696e746564000000006044820152606401610837565b611f2760008383611e64565b6001600160a01b038216600090815260cc60205260408120805460019290611f509084906132f5565b9091555050600081815260cb602052604080822080546001600160a01b0319166001600160a01b03861690811790915590518392907fddf252ad1be2c89b69c2b068fc378daa952ba7f163c4a11628f55a4df523b3ef908290a45050565b611fb88282610f9d565b610d5457611fd0816001600160a01b03166014612638565b611fdb836020612638565b604051602001611fec929190613077565b60408051601f198184030181529082905262461bcd60e51b825261083791600401613129565b61201c8282610f9d565b610d545760008281526065602090815260408083206001600160a01b03851684529091529020805460ff191660011790556120543390565b6001600160a01b0316816001600160a01b0316837f2f8788117e7eff1d82e926ec794901d17c78024a50270940304540a733656f0d60405160405180910390a45050565b60008181526001830160205260408120546120df57508154600181810184556000848152602080822090930184905584548482528286019093526040902091909155610737565b506000610737565b6120f18282610f9d565b15610d545760008281526065602090815260408083206001600160a01b0385168085529252808320805460ff1916905551339285917ff6391f5c32d9c69d2a47ea670b442974b53935d1edc7fd64eb21e047a839171b9190a45050565b60008181526001830160205260408120548015612261576000612172600183613340565b855490915060009061218690600190613340565b90508181146122075760008660000182815481106121b457634e487b7160e01b600052603260045260246000fd5b90600052602060002001549050808760000184815481106121e557634e487b7160e01b600052603260045260246000fd5b6000918252602080832090910192909255918252600188019052604090208390555b855486908061222657634e487b7160e01b600052603160045260246000fd5b600190038181906000526020600020016000905590558560010160008681526020019081526020016000206000905560019350505050610737565b6000915050610737565b600082600001828154811061229057634e487b7160e01b600052603260045260246000fd5b9060005260206000200154905092915050565b600054610100900460ff16806122bc575060005460ff16155b6122d85760405162461bcd60e51b8152600401610837906131e2565b600054610100900460ff161580156122fa576000805461ffff19166101011790555b8015610e06576000805461ff001916905550565b600054610100900460ff1680612327575060005460ff16155b6123435760405162461bcd60e51b8152600401610837906131e2565b600054610100900460ff16158015612365576000805461ffff19166101011790555b82516123789060c9906020860190612a09565b50815161238c9060ca906020850190612a09565b50801561096d576000805461ff0019169055505050565b600054610100900460ff16806123bc575060005460ff16155b6123d85760405162461bcd60e51b8152600401610837906131e2565b600054610100900460ff161580156123fa576000805461ffff19166101011790555b612405600033611e1a565b61241d60008051602061345d83398151915233611e1a565b6122fa7f65d7a28e3265b37a6474929f336521b332c1681b933f6cb9f3376673440d862a33611e1a565b60006001600160a01b0384163b1561254957604051630a85bd0160e11b81526001600160a01b0385169063150b7a029061248b9033908990889088906004016130ec565b602060405180830381600087803b1580156124a557600080fd5b505af19250505080156124d5575060408051601f3d908101601f191682019092526124d291810190612d65565b60015b61252f573d808015612503576040519150601f19603f3d011682016040523d82523d6000602084013e612508565b606091505b5080516125275760405162461bcd60e51b815260040161083790613190565b805181602001fd5b6001600160e01b031916630a85bd0160e11b149050610b25565b506001610b25565b610d548282612012565b60006001600160e01b03198216635a05180f60e01b148061073757506107378261281a565b6001600160a01b0383166125db576125d68160fd8054600083815260fe60205260408120829055600182018355919091527f9346ac6dd7de6b96975fec380d4d994c4c12e6a8897544f22915316cc6cca2800155565b6125fe565b816001600160a01b0316836001600160a01b0316146125fe576125fe838261284f565b6001600160a01b0382166126155761096d816128ec565b826001600160a01b0316826001600160a01b03161461096d5761096d82826129c5565b60606000612647836002613321565b6126529060026132f5565b67ffffffffffffffff81111561267857634e487b7160e01b600052604160045260246000fd5b6040519080825280601f01601f1916602001820160405280156126a2576020820181803683370190505b509050600360fc1b816000815181106126cb57634e487b7160e01b600052603260045260246000fd5b60200101906001600160f81b031916908160001a905350600f60fb1b8160018151811061270857634e487b7160e01b600052603260045260246000fd5b60200101906001600160f81b031916908160001a905350600061272c846002613321565b6127379060016132f5565b90505b60018111156127cb576f181899199a1a9b1b9c1cb0b131b232b360811b85600f166010811061277957634e487b7160e01b600052603260045260246000fd5b1a60f81b82828151811061279d57634e487b7160e01b600052603260045260246000fd5b60200101906001600160f81b031916908160001a90535060049490941c936127c481613383565b905061273a565b508315610f965760405162461bcd60e51b815260206004820181905260248201527f537472696e67733a20686578206c656e67746820696e73756666696369656e746044820152606401610837565b60006001600160e01b03198216637965db0b60e01b148061073757506301ffc9a760e01b6001600160e01b0319831614610737565b6000600161285c84610e80565b6128669190613340565b600083815260fc60205260409020549091508082146128b9576001600160a01b038416600090815260fb60209081526040808320858452825280832054848452818420819055835260fc90915290208190555b50600091825260fc602090815260408084208490556001600160a01b03909416835260fb81528383209183525290812055565b60fd546000906128fe90600190613340565b600083815260fe602052604081205460fd805493945090928490811061293457634e487b7160e01b600052603260045260246000fd5b906000526020600020015490508060fd838154811061296357634e487b7160e01b600052603260045260246000fd5b600091825260208083209091019290925582815260fe909152604080822084905585825281205560fd8054806129a957634e487b7160e01b600052603160045260246000fd5b6001900381819060005260206000200160009055905550505050565b60006129d083610e80565b6001600160a01b03909316600090815260fb60209081526040808320868452825280832085905593825260fc9052919091209190915550565b828054612a159061339a565b90600052602060002090601f016020900481019282612a375760008555612a7d565b82601f10612a5057805160ff1916838001178555612a7d565b82800160010185558215612a7d579182015b82811115612a7d578251825591602001919060010190612a62565b50612a89929150612ac5565b5090565b6040518060a001604052806000815260200160006001600160a01b031681526020016060815260200160608152602001606081525090565b5b80821115612a895760008155600101612ac6565b600067ffffffffffffffff80841115612af557612af5613430565b604051601f8501601f19908116603f01168101908282118183101715612b1d57612b1d613430565b81604052809350858152868686011115612b3657600080fd5b858560208301376000602087830101525050509392505050565b80356001600160a01b0381168114612b6757600080fd5b919050565b600082601f830112612b7c578081fd5b610f9683833560208501612ada565b600060208284031215612b9c578081fd5b610f9682612b50565b60008060408385031215612bb7578081fd5b612bc083612b50565b9150612bce60208401612b50565b90509250929050565b600080600060608486031215612beb578081fd5b612bf484612b50565b9250612c0260208501612b50565b9150604084013590509250925092565b60008060008060808587031215612c27578081fd5b612c3085612b50565b9350612c3e60208601612b50565b925060408501359150606085013567ffffffffffffffff811115612c60578182fd5b8501601f81018713612c70578182fd5b612c7f87823560208401612ada565b91505092959194509250565b60008060408385031215612c9d578182fd5b612ca683612b50565b915060208301358015158114612cba578182fd5b809150509250929050565b60008060408385031215612cd7578182fd5b612ce083612b50565b946020939093013593505050565b600060208284031215612cff578081fd5b5035919050565b60008060408385031215612d18578182fd5b82359150612bce60208401612b50565b60008060408385031215612d3a578182fd5b50508035926020909101359150565b600060208284031215612d5a578081fd5b8135610f9681613446565b600060208284031215612d76578081fd5b8151610f9681613446565b600060208284031215612d92578081fd5b813567ffffffffffffffff811115612da8578182fd5b610b2584828501612b6c565b60008060408385031215612dc6578182fd5b823567ffffffffffffffff80821115612ddd578384fd5b612de986838701612b6c565b93506020850135915080821115612dfe578283fd5b50612e0b85828601612b6c565b9150509250929050565b600080600060608486031215612e29578081fd5b833567ffffffffffffffff80821115612e40578283fd5b612e4c87838801612b6c565b94506020860135915080821115612e61578283fd5b612e6d87838801612b6c565b93506040860135915080821115612e82578283fd5b50612e8f86828701612b6c565b9150509250925092565b60008060008060808587031215612eae578182fd5b843567ffffffffffffffff80821115612ec5578384fd5b612ed188838901612b6c565b95506020870135915080821115612ee6578384fd5b612ef288838901612b6c565b94506040870135915080821115612f07578384fd5b50612f1487828801612b6c565b925050612f2360608601612b50565b905092959194509250565b60008151808452612f46816020860160208601613357565b601f01601f19169290920160200192915050565b60008151612f6c818560208601613357565b9290920192915050565b60008251612f88818460208701613357565b9190910192915050565b60008351612fa4818460208801613357565b835190830190612fb8818360208801613357565b01949350505050565b600080845482600182811c915080831680612fdd57607f831692505b6020808410821415612ffd57634e487b7160e01b87526022600452602487fd5b81801561301157600181146130225761304e565b60ff1986168952848901965061304e565b60008b815260209020885b868110156130465781548b82015290850190830161302d565b505084890196505b50505050505061306e61306882602f60f81b815260010190565b85612f5a565b95945050505050565b7f416363657373436f6e74726f6c3a206163636f756e74200000000000000000008152600083516130af816017850160208801613357565b7001034b99036b4b9b9b4b733903937b6329607d1b60179184019182015283516130e0816028840160208801613357565b01602801949350505050565b6001600160a01b038581168252841660208201526040810183905260806060820181905260009061311f90830184612f2e565b9695505050505050565b602081526000610f966020830184612f2e565b60808152600061314f6080830188612f2e565b82810360208401526131618188612f2e565b91505060018060a01b038516604083015263ffffffff83168460201b1760401b60608301529695505050505050565b60208082526032908201527f4552433732313a207472616e7366657220746f206e6f6e20455243373231526560408201527131b2b4bb32b91034b6b83632b6b2b73a32b960711b606082015260800190565b6020808252602e908201527f496e697469616c697a61626c653a20636f6e747261637420697320616c72656160408201526d191e481a5b9a5d1a585b1a5e995960921b606082015260800190565b60208082526031908201527f4552433732313a207472616e736665722063616c6c6572206973206e6f74206f6040820152701ddb995c881b9bdc88185c1c1c9bdd9959607a1b606082015260800190565b602081528151602082015260018060a01b0360208301511660408201526000604083015160a060608401526132b960c0840182612f2e565b90506060840151601f19808584030160808601526132d78383612f2e565b925060808601519150808584030160a08601525061306e8282612f2e565b6000821982111561330857613308613404565b500190565b60008261331c5761331c61341a565b500490565b600081600019048311821515161561333b5761333b613404565b500290565b60008282101561335257613352613404565b500390565b60005b8381101561337257818101518382015260200161335a565b8381111561106c5750506000910152565b60008161339257613392613404565b506000190190565b600181811c908216806133ae57607f821691505b602082108114156133cf57634e487b7160e01b600052602260045260246000fd5b50919050565b60006000198214156133e9576133e9613404565b5060010190565b6000826133ff576133ff61341a565b500690565b634e487b7160e01b600052601160045260246000fd5b634e487b7160e01b600052601260045260246000fd5b634e487b7160e01b600052604160045260246000fd5b6001600160e01b031981168114610e0657600080fdfe9f2df0fed2c77648de5860a4cc508cd0818c85b8b8a1ab4ceeef8d981c8956a6a2646970667358221220ef6779a9592c5328555c8864fa6e52773fbd98ff147fc3b96c9d961efaecdb8e64736f6c63430008040033","linkReferences":{},"deployedLinkReferences":{}}