{"_format":"hh-sol-artifact-1","contractName":"OwnYourSocialNetwork","sourceName":"contracts/OwnYourSocialNetwork.sol","abi":[{"anonymous":false,"inputs":[{"indexed":true,"internalType":"address","name":"owner","type":"address"},{"indexed":true,"internalType":"address","name":"approved","type":"address"},{"indexed":true,"internalType":"uint256","name":"tokenId","type":"uint256"}],"name":"Approval","type":"event"},{"anonymous":false,"inputs":[{"indexed":true,"internalType":"address","name":"owner","type":"address"},{"indexed":true,"internalType":"address","name":"operator","type":"address"},{"indexed":false,"internalType":"bool","name":"approved","type":"bool"}],"name":"ApprovalForAll","type":"event"},{"anonymous":false,"inputs":[{"indexed":true,"internalType":"bytes32","name":"role","type":"bytes32"},{"indexed":true,"internalType":"bytes32","name":"previousAdminRole","type":"bytes32"},{"indexed":true,"internalType":"bytes32","name":"newAdminRole","type":"bytes32"}],"name":"RoleAdminChanged","type":"event"},{"anonymous":false,"inputs":[{"indexed":true,"internalType":"bytes32","name":"role","type":"bytes32"},{"indexed":true,"internalType":"address","name":"account","type":"address"},{"indexed":true,"internalType":"address","name":"sender","type":"address"}],"name":"RoleGranted","type":"event"},{"anonymous":false,"inputs":[{"indexed":true,"internalType":"bytes32","name":"role","type":"bytes32"},{"indexed":true,"internalType":"address","name":"account","type":"address"},{"indexed":true,"internalType":"address","name":"sender","type":"address"}],"name":"RoleRevoked","type":"event"},{"anonymous":false,"inputs":[{"indexed":true,"internalType":"address","name":"from","type":"address"},{"indexed":true,"internalType":"address","name":"to","type":"address"},{"indexed":true,"internalType":"uint256","name":"tokenId","type":"uint256"}],"name":"Transfer","type":"event"},{"inputs":[],"name":"ADMIN_ROLE","outputs":[{"internalType":"bytes32","name":"","type":"bytes32"}],"stateMutability":"view","type":"function"},{"inputs":[],"name":"DEFAULT_ADMIN_ROLE","outputs":[{"internalType":"bytes32","name":"","type":"bytes32"}],"stateMutability":"view","type":"function"},{"inputs":[],"name":"MINTER_ROLE","outputs":[{"internalType":"bytes32","name":"","type":"bytes32"}],"stateMutability":"view","type":"function"},{"inputs":[{"internalType":"string","name":"name","type":"string"},{"internalType":"string","name":"symbol","type":"string"},{"internalType":"string","name":"baseURI","type":"string"}],"name":"__OwnYourSocialNetwork__init","outputs":[],"stateMutability":"nonpayable","type":"function"},{"inputs":[{"internalType":"address","name":"to","type":"address"},{"internalType":"uint256","name":"tokenId","type":"uint256"}],"name":"approve","outputs":[],"stateMutability":"nonpayable","type":"function"},{"inputs":[{"internalType":"address","name":"owner","type":"address"}],"name":"balanceOf","outputs":[{"internalType":"uint256","name":"","type":"uint256"}],"stateMutability":"view","type":"function"},{"inputs":[{"internalType":"uint256","name":"tokenId","type":"uint256"}],"name":"getApproved","outputs":[{"internalType":"address","name":"","type":"address"}],"stateMutability":"view","type":"function"},{"inputs":[{"internalType":"string","name":"gen_sn_id","type":"string"}],"name":"getOWSNByGenSnId","outputs":[{"components":[{"internalType":"uint256","name":"id","type":"uint256"},{"internalType":"string","name":"sn_name","type":"string"},{"internalType":"string","name":"sn_id","type":"string"},{"internalType":"string","name":"sn_url","type":"string"}],"internalType":"struct OwnedAccount.data","name":"","type":"tuple"}],"stateMutability":"view","type":"function"},{"inputs":[{"internalType":"uint256","name":"tokenId","type":"uint256"}],"name":"getOWSNByTokenId","outputs":[{"components":[{"internalType":"uint256","name":"id","type":"uint256"},{"internalType":"string","name":"sn_name","type":"string"},{"internalType":"string","name":"sn_id","type":"string"},{"internalType":"string","name":"sn_url","type":"string"}],"internalType":"struct OwnedAccount.data","name":"","type":"tuple"}],"stateMutability":"view","type":"function"},{"inputs":[{"internalType":"bytes32","name":"role","type":"bytes32"}],"name":"getRoleAdmin","outputs":[{"internalType":"bytes32","name":"","type":"bytes32"}],"stateMutability":"view","type":"function"},{"inputs":[{"internalType":"bytes32","name":"role","type":"bytes32"},{"internalType":"uint256","name":"index","type":"uint256"}],"name":"getRoleMember","outputs":[{"internalType":"address","name":"","type":"address"}],"stateMutability":"view","type":"function"},{"inputs":[{"internalType":"bytes32","name":"role","type":"bytes32"}],"name":"getRoleMemberCount","outputs":[{"internalType":"uint256","name":"","type":"uint256"}],"stateMutability":"view","type":"function"},{"inputs":[{"internalType":"bytes32","name":"role","type":"bytes32"},{"internalType":"address","name":"account","type":"address"}],"name":"grantRole","outputs":[],"stateMutability":"nonpayable","type":"function"},{"inputs":[{"internalType":"bytes32","name":"role","type":"bytes32"},{"internalType":"address","name":"account","type":"address"}],"name":"hasRole","outputs":[{"internalType":"bool","name":"","type":"bool"}],"stateMutability":"view","type":"function"},{"inputs":[{"internalType":"string","name":"name","type":"string"},{"internalType":"string","name":"symbol","type":"string"},{"internalType":"string","name":"_baseURI","type":"string"}],"name":"initialize","outputs":[],"stateMutability":"nonpayable","type":"function"},{"inputs":[{"internalType":"string","name":"gen_sn_id","type":"string"}],"name":"isAccountAvailable","outputs":[{"internalType":"bool","name":"","type":"bool"}],"stateMutability":"view","type":"function"},{"inputs":[{"internalType":"address","name":"owner","type":"address"},{"internalType":"address","name":"operator","type":"address"}],"name":"isApprovedForAll","outputs":[{"internalType":"bool","name":"","type":"bool"}],"stateMutability":"view","type":"function"},{"inputs":[{"internalType":"string","name":"sn_name","type":"string"},{"internalType":"string","name":"sn_id","type":"string"},{"internalType":"string","name":"sn_url","type":"string"},{"internalType":"address","name":"to","type":"address"}],"name":"mint","outputs":[{"internalType":"uint256","name":"","type":"uint256"}],"stateMutability":"nonpayable","type":"function"},{"inputs":[{"internalType":"string","name":"oauthToken","type":"string"},{"internalType":"string","name":"oauthVerifier","type":"string"}],"name":"mintTwitter","outputs":[],"stateMutability":"payable","type":"function"},{"inputs":[],"name":"name","outputs":[{"internalType":"string","name":"","type":"string"}],"stateMutability":"view","type":"function"},{"inputs":[{"internalType":"uint256","name":"tokenId","type":"uint256"}],"name":"ownerOf","outputs":[{"internalType":"address","name":"","type":"address"}],"stateMutability":"view","type":"function"},{"inputs":[{"internalType":"bytes32","name":"role","type":"bytes32"},{"internalType":"address","name":"account","type":"address"}],"name":"renounceRole","outputs":[],"stateMutability":"nonpayable","type":"function"},{"inputs":[],"name":"retrieveFunds","outputs":[],"stateMutability":"nonpayable","type":"function"},{"inputs":[{"internalType":"bytes32","name":"role","type":"bytes32"},{"internalType":"address","name":"account","type":"address"}],"name":"revokeRole","outputs":[],"stateMutability":"nonpayable","type":"function"},{"inputs":[{"internalType":"address","name":"from","type":"address"},{"internalType":"address","name":"to","type":"address"},{"internalType":"uint256","name":"tokenId","type":"uint256"}],"name":"safeTransferFrom","outputs":[],"stateMutability":"nonpayable","type":"function"},{"inputs":[{"internalType":"address","name":"from","type":"address"},{"internalType":"address","name":"to","type":"address"},{"internalType":"uint256","name":"tokenId","type":"uint256"},{"internalType":"bytes","name":"_data","type":"bytes"}],"name":"safeTransferFrom","outputs":[],"stateMutability":"nonpayable","type":"function"},{"inputs":[{"internalType":"address","name":"operator","type":"address"},{"internalType":"bool","name":"approved","type":"bool"}],"name":"setApprovalForAll","outputs":[],"stateMutability":"nonpayable","type":"function"},{"inputs":[{"internalType":"string","name":"newBaseURI","type":"string"}],"name":"setBaseURI","outputs":[],"stateMutability":"nonpayable","type":"function"},{"inputs":[{"internalType":"bytes4","name":"interfaceId","type":"bytes4"}],"name":"supportsInterface","outputs":[{"internalType":"bool","name":"","type":"bool"}],"stateMutability":"view","type":"function"},{"inputs":[],"name":"symbol","outputs":[{"internalType":"string","name":"","type":"string"}],"stateMutability":"view","type":"function"},{"inputs":[{"internalType":"uint256","name":"index","type":"uint256"}],"name":"tokenByIndex","outputs":[{"internalType":"uint256","name":"","type":"uint256"}],"stateMutability":"view","type":"function"},{"inputs":[{"internalType":"address","name":"owner","type":"address"},{"internalType":"uint256","name":"index","type":"uint256"}],"name":"tokenOfOwnerByIndex","outputs":[{"internalType":"uint256","name":"","type":"uint256"}],"stateMutability":"view","type":"function"},{"inputs":[{"internalType":"uint256","name":"tokenId","type":"uint256"}],"name":"tokenURI","outputs":[{"internalType":"string","name":"","type":"string"}],"stateMutability":"view","type":"function"},{"inputs":[],"name":"totalSupply","outputs":[{"internalType":"uint256","name":"","type":"uint256"}],"stateMutability":"view","type":"function"},{"inputs":[{"internalType":"address","name":"from","type":"address"},{"internalType":"address","name":"to","type":"address"},{"internalType":"uint256","name":"tokenId","type":"uint256"}],"name":"transferFrom","outputs":[],"stateMutability":"nonpayable","type":"function"},{"inputs":[],"name":"twitterMinter","outputs":[{"internalType":"contract TwitterMinter","name":"","type":"address"}],"stateMutability":"view","type":"function"},{"inputs":[{"internalType":"address","name":"twitterMinterAddress","type":"address"}],"name":"updateTwitterMinterAddress","outputs":[],"stateMutability":"nonpayable","type":"function"}],"bytecode":"0x608060405234801561001057600080fd5b506132b1806100206000396000f3fe60806040526004361061021a5760003560e01c806375b238fc11610123578063a22cb465116100ab578063d53913931161006f578063d539139314610495578063d547741f14610641578063d56ed9b214610661578063e985e9c514610681578063f9751b28146106ca57600080fd5b8063a22cb465146105a1578063a6487c53146105c1578063b88d4fde146105e1578063c87b56dd14610601578063ca15c8731461062157600080fd5b806391d14854116100f257806391d148541461051757806395d89b41146105375780639b5051391461054c5780639ea4953d1461056c578063a217fddf1461058c57600080fd5b806375b238fc146104955780638ade7355146104b75780638e8876b1146104e45780639010d07c146104f757600080fd5b80632f745c59116101a65780634f6ccce7116101755780634f6ccce71461040057806355f804b31461042057806361b20d8c146104405780636352211e1461045557806370a082311461047557600080fd5b80632f745c591461037f57806336568abe1461039f5780633f4acc32146103bf57806342842e0e146103e057600080fd5b806318160ddd116101ed57806318160ddd146102d057806323b872dd146102ef578063248a9ca31461030f5780632aedc3f91461033f5780632f2ff15d1461035f57600080fd5b806301ffc9a71461021f57806306fdde0314610254578063081812fc14610276578063095ea7b3146102ae575b600080fd5b34801561022b57600080fd5b5061023f61023a366004612b0c565b6106ea565b60405190151581526020015b60405180910390f35b34801561026057600080fd5b506102696106fb565b60405161024b9190612eec565b34801561028257600080fd5b50610296610291366004612ab1565b61078d565b6040516001600160a01b03909116815260200161024b565b3480156102ba57600080fd5b506102ce6102c9366004612a88565b610827565b005b3480156102dc57600080fd5b5060fd545b60405190815260200161024b565b3480156102fb57600080fd5b506102ce61030a36600461299a565b61093d565b34801561031b57600080fd5b506102e161032a366004612ab1565b60009081526065602052604090206001015490565b34801561034b57600080fd5b506102e161035a366004612c5c565b61096e565b34801561036b57600080fd5b506102ce61037a366004612ac9565b610af8565b34801561038b57600080fd5b506102e161039a366004612a88565b610b1a565b3480156103ab57600080fd5b506102ce6103ba366004612ac9565b610bb0565b3480156103cb57600080fd5b5061016154610296906001600160a01b031681565b3480156103ec57600080fd5b506102ce6103fb36600461299a565b610bd2565b34801561040c57600080fd5b506102e161041b366004612ab1565b610bed565b34801561042c57600080fd5b506102ce61043b366004612b44565b610c8e565b34801561044c57600080fd5b506102ce610cbb565b34801561046157600080fd5b50610296610470366004612ab1565b610d04565b34801561048157600080fd5b506102e161049036600461294e565b610d7b565b3480156104a157600080fd5b506102e160008051602061325c83398151915281565b3480156104c357600080fd5b506104d76104d2366004612ab1565b610e02565b60405161024b9190613098565b6102ce6104f2366004612b77565b61104e565b34801561050357600080fd5b50610296610512366004612aeb565b6110c5565b34801561052357600080fd5b5061023f610532366004612ac9565b6110e4565b34801561054357600080fd5b5061026961110f565b34801561055857600080fd5b506102ce610567366004612bd8565b61111e565b34801561057857600080fd5b506104d7610587366004612b44565b6111b9565b34801561059857600080fd5b506102e1600081565b3480156105ad57600080fd5b506102ce6105bc366004612a4e565b611238565b3480156105cd57600080fd5b506102ce6105dc366004612bd8565b6112fd565b3480156105ed57600080fd5b506102ce6105fc3660046129d5565b61135f565b34801561060d57600080fd5b5061026961061c366004612ab1565b611391565b34801561062d57600080fd5b506102e161063c366004612ab1565b611443565b34801561064d57600080fd5b506102ce61065c366004612ac9565b61145a565b34801561066d57600080fd5b5061023f61067c366004612b44565b611464565b34801561068d57600080fd5b5061023f61069c366004612968565b6001600160a01b03918216600090815260ce6020908152604080832093909416825291909152205460ff1690565b3480156106d657600080fd5b506102ce6106e536600461294e565b6114ac565b60006106f58261151f565b92915050565b606060c9805461070a9061319f565b80601f01602080910402602001604051908101604052809291908181526020018280546107369061319f565b80156107835780601f1061075857610100808354040283529160200191610783565b820191906000526020600020905b81548152906001019060200180831161076657829003601f168201915b5050505050905090565b600081815260cb60205260408120546001600160a01b031661080b5760405162461bcd60e51b815260206004820152602c60248201527f4552433732313a20617070726f76656420717565727920666f72206e6f6e657860448201526b34b9ba32b73a103a37b5b2b760a11b60648201526084015b60405180910390fd5b50600090815260cd60205260409020546001600160a01b031690565b600061083282610d04565b9050806001600160a01b0316836001600160a01b031614156108a05760405162461bcd60e51b815260206004820152602160248201527f4552433732313a20617070726f76616c20746f2063757272656e74206f776e656044820152603960f91b6064820152608401610802565b336001600160a01b03821614806108bc57506108bc813361069c565b61092e5760405162461bcd60e51b815260206004820152603860248201527f4552433732313a20617070726f76652063616c6c6572206973206e6f74206f7760448201527f6e6572206e6f7220617070726f76656420666f7220616c6c00000000000000006064820152608401610802565b6109388383611544565b505050565b61094733826115b2565b6109635760405162461bcd60e51b815260040161080290613047565b6109388383836116a5565b6000808585604051602001610984929190612d55565b604051602081830303815290604052905061099e81611464565b1515600114610a0c5760405162461bcd60e51b815260206004820152603460248201527f4f776e596f7572536f6369616c4e6574776f726b3a20546865206163636f756e6044820152731d081dd85cc8185b1c9958591e481b5a5b9d195960621b6064820152608401610802565b6000610a1784611850565b6000818152610160602090815260409091208281558951929350610a43926001909101918a0190612804565b506000818152610160602090815260409091208751610a6a92600290920191890190612804565b506000818152610160602090815260409091208651610a9192600390920191880190612804565b508061015f83604051610aa49190612d39565b9081526040519081900360200181209190915560019061015f90610ac9908590612d39565b908152604051908190036020019020600101805491151560ff199092169190911790559150505b949350505050565b610b0282826118a4565b600082815260976020526040902061093890826118ca565b6000610b2583610d7b565b8210610b875760405162461bcd60e51b815260206004820152602b60248201527f455243373231456e756d657261626c653a206f776e657220696e646578206f7560448201526a74206f6620626f756e647360a81b6064820152608401610802565b506001600160a01b0391909116600090815260fb60209081526040808320938352929052205490565b610bba82826118df565b60008281526097602052604090206109389082611959565b6109388383836040518060200160405280600081525061135f565b6000610bf860fd5490565b8210610c5b5760405162461bcd60e51b815260206004820152602c60248201527f455243373231456e756d657261626c653a20676c6f62616c20696e646578206f60448201526b7574206f6620626f756e647360a01b6064820152608401610802565b60fd8281548110610c7c57634e487b7160e01b600052603260045260246000fd5b90600052602060002001549050919050565b60008051602061325c833981519152610ca7813361196e565b81516109389061012e906020850190612804565b60008051602061325c833981519152610cd4813361196e565b60405133904780156108fc02916000818181858888f19350505050158015610d00573d6000803e3d6000fd5b5050565b600081815260cb60205260408120546001600160a01b0316806106f55760405162461bcd60e51b815260206004820152602960248201527f4552433732313a206f776e657220717565727920666f72206e6f6e657869737460448201526832b73a103a37b5b2b760b91b6064820152608401610802565b60006001600160a01b038216610de65760405162461bcd60e51b815260206004820152602a60248201527f4552433732313a2062616c616e636520717565727920666f7220746865207a65604482015269726f206164647265737360b01b6064820152608401610802565b506001600160a01b0316600090815260cc602052604090205490565b610e2d6040518060800160405280600081526020016060815260200160608152602001606081525090565b600082815260cb60205260409020546001600160a01b031615151515600114610e685760405162461bcd60e51b815260040161080290612fa5565b610160600083815260200190815260200160002060405180608001604052908160008201548152602001600182018054610ea19061319f565b80601f0160208091040260200160405190810160405280929190818152602001828054610ecd9061319f565b8015610f1a5780601f10610eef57610100808354040283529160200191610f1a565b820191906000526020600020905b815481529060010190602001808311610efd57829003601f168201915b50505050508152602001600282018054610f339061319f565b80601f0160208091040260200160405190810160405280929190818152602001828054610f5f9061319f565b8015610fac5780601f10610f8157610100808354040283529160200191610fac565b820191906000526020600020905b815481529060010190602001808311610f8f57829003601f168201915b50505050508152602001600382018054610fc59061319f565b80601f0160208091040260200160405190810160405280929190818152602001828054610ff19061319f565b801561103e5780601f106110135761010080835404028352916020019161103e565b820191906000526020600020905b81548152906001019060200180831161102157829003601f168201915b5050505050815250509050919050565b610161546001600160a01b03166329b1164f348484336040516001600160e01b031960e087901b16815261108f939291903090632aedc3f990600401612eff565b6000604051808303818588803b1580156110a857600080fd5b505af11580156110bc573d6000803e3d6000fd5b50505050505050565b60008281526097602052604081206110dd90836119d2565b9392505050565b60009182526065602090815260408084206001600160a01b0393909316845291905290205460ff1690565b606060ca805461070a9061319f565b600054610100900460ff1680611137575060005460ff16155b6111535760405162461bcd60e51b815260040161080290612ff9565b600054610100900460ff16158015611175576000805461ffff19166101011790555b6111a18484848660405160200161118d929190612d55565b6040516020818303038152906040526119de565b80156111b3576000805461ff00191690555b50505050565b6111e46040518060800160405280600081526020016060815260200160608152602001606081525090565b6111ed82611464565b1561120a5760405162461bcd60e51b815260040161080290612fa5565b600061015f8360405161121d9190612d39565b9081526040519081900360200190205490506110dd81610e02565b6001600160a01b0382163314156112915760405162461bcd60e51b815260206004820152601960248201527f4552433732313a20617070726f766520746f2063616c6c6572000000000000006044820152606401610802565b33600081815260ce602090815260408083206001600160a01b03871680855290835292819020805460ff191686151590811790915590519081529192917f17307eab39ab6107e8899845ad3d59bd9653f200f220920489ca2b5937696c31910160405180910390a35050565b600054610100900460ff1680611316575060005460ff16155b6113325760405162461bcd60e51b815260040161080290612ff9565b600054610100900460ff16158015611354576000805461ffff19166101011790555b6111a18484846119de565b61136933836115b2565b6113855760405162461bcd60e51b815260040161080290613047565b6111b384848484611a9b565b600081815260cb60205260409020546060906001600160a01b03166114105760405162461bcd60e51b815260206004820152602f60248201527f4552433732314d657461646174613a2055524920717565727920666f72206e6f60448201526e3732bc34b9ba32b73a103a37b5b2b760891b6064820152608401610802565b61012e61141c83611ace565b60405160200161142d929190612d84565b6040516020818303038152906040529050919050565b60008181526097602052604081206106f590611be8565b610bba8282611bf2565b60008061015f836040516114789190612d39565b9081526040805191829003602090810183208383019092528154835260019091015460ff1615801591909201529392505050565b60008051602061325c8339815191526114c5813361196e565b610161546114eb9060008051602061325c833981519152906001600160a01b031661145a565b61016180546001600160a01b0319166001600160a01b038416179055610d0060008051602061325c83398151915283610af8565b60006001600160e01b0319821663780e9d6360e01b14806106f557506106f582611c18565b600081815260cd6020526040902080546001600160a01b0319166001600160a01b038416908117909155819061157982610d04565b6001600160a01b03167f8c5be1e5ebec7d5bd14f71427d1e84f3dd0314c0f7b2291e5b200ac8c7c3b92560405160405180910390a45050565b600081815260cb60205260408120546001600160a01b031661162b5760405162461bcd60e51b815260206004820152602c60248201527f4552433732313a206f70657261746f7220717565727920666f72206e6f6e657860448201526b34b9ba32b73a103a37b5b2b760a11b6064820152608401610802565b600061163683610d04565b9050806001600160a01b0316846001600160a01b031614806116715750836001600160a01b03166116668461078d565b6001600160a01b0316145b80610af057506001600160a01b03808216600090815260ce602090815260408083209388168352929052205460ff16610af0565b826001600160a01b03166116b882610d04565b6001600160a01b0316146117205760405162461bcd60e51b815260206004820152602960248201527f4552433732313a207472616e73666572206f6620746f6b656e2074686174206960448201526839903737ba1037bbb760b91b6064820152608401610802565b6001600160a01b0382166117825760405162461bcd60e51b8152602060048201526024808201527f4552433732313a207472616e7366657220746f20746865207a65726f206164646044820152637265737360e01b6064820152608401610802565b61178d838383611c58565b611798600082611544565b6001600160a01b038316600090815260cc602052604081208054600192906117c1908490613145565b90915550506001600160a01b038216600090815260cc602052604081208054600192906117ef9084906130fa565b9091555050600081815260cb602052604080822080546001600160a01b0319166001600160a01b0386811691821790925591518493918716917fddf252ad1be2c89b69c2b068fc378daa952ba7f163c4a11628f55a4df523b3ef91a4505050565b600060008051602061325c83398151915261186b813361196e565b600061187761012d5490565b905061188c8461188761012d5490565b611c63565b61189b61012d80546001019055565b91505b50919050565b6000828152606560205260409020600101546118c0813361196e565b6109388383611db1565b60006110dd836001600160a01b038416611e37565b6001600160a01b038116331461194f5760405162461bcd60e51b815260206004820152602f60248201527f416363657373436f6e74726f6c3a2063616e206f6e6c792072656e6f756e636560448201526e103937b632b9903337b91039b2b63360891b6064820152608401610802565b610d008282611e86565b60006110dd836001600160a01b038416611eed565b61197882826110e4565b610d0057611990816001600160a01b0316601461200a565b61199b83602061200a565b6040516020016119ac929190612e3a565b60408051601f198184030181529082905262461bcd60e51b825261080291600401612eec565b60006110dd83836121ec565b600054610100900460ff16806119f7575060005460ff16155b611a135760405162461bcd60e51b815260040161080290612ff9565b600054610100900460ff16158015611a35576000805461ffff19166101011790555b611a3d612224565b611a45612224565b611a4d612224565b611a55612224565b611a5f8484612290565b611a67612224565b611a6f612325565b8151611a839061012e906020850190612804565b5080156111b3576000805461ff001916905550505050565b611aa68484846116a5565b611ab2848484846123cf565b6111b35760405162461bcd60e51b815260040161080290612f53565b606081611af25750506040805180820190915260018152600360fc1b602082015290565b8160005b8115611b1c5780611b06816131d4565b9150611b159050600a83613112565b9150611af6565b60008167ffffffffffffffff811115611b4557634e487b7160e01b600052604160045260246000fd5b6040519080825280601f01601f191660200182016040528015611b6f576020820181803683370190505b5090505b8415610af057611b84600183613145565b9150611b91600a866131ef565b611b9c9060306130fa565b60f81b818381518110611bbf57634e487b7160e01b600052603260045260246000fd5b60200101906001600160f81b031916908160001a905350611be1600a86613112565b9450611b73565b60006106f5825490565b600082815260656020526040902060010154611c0e813361196e565b6109388383611e86565b60006001600160e01b031982166380ac58cd60e01b1480611c4957506001600160e01b03198216635b5e139f60e01b145b806106f557506106f5826124d9565b6109388383836124fe565b6001600160a01b038216611cb95760405162461bcd60e51b815260206004820181905260248201527f4552433732313a206d696e7420746f20746865207a65726f20616464726573736044820152606401610802565b600081815260cb60205260409020546001600160a01b031615611d1e5760405162461bcd60e51b815260206004820152601c60248201527f4552433732313a20746f6b656e20616c7265616479206d696e746564000000006044820152606401610802565b611d2a60008383611c58565b6001600160a01b038216600090815260cc60205260408120805460019290611d539084906130fa565b9091555050600081815260cb602052604080822080546001600160a01b0319166001600160a01b03861690811790915590518392907fddf252ad1be2c89b69c2b068fc378daa952ba7f163c4a11628f55a4df523b3ef908290a45050565b611dbb82826110e4565b610d005760008281526065602090815260408083206001600160a01b03851684529091529020805460ff19166001179055611df33390565b6001600160a01b0316816001600160a01b0316837f2f8788117e7eff1d82e926ec794901d17c78024a50270940304540a733656f0d60405160405180910390a45050565b6000818152600183016020526040812054611e7e575081546001818101845560008481526020808220909301849055845484825282860190935260409020919091556106f5565b5060006106f5565b611e9082826110e4565b15610d005760008281526065602090815260408083206001600160a01b0385168085529252808320805460ff1916905551339285917ff6391f5c32d9c69d2a47ea670b442974b53935d1edc7fd64eb21e047a839171b9190a45050565b60008181526001830160205260408120548015612000576000611f11600183613145565b8554909150600090611f2590600190613145565b9050818114611fa6576000866000018281548110611f5357634e487b7160e01b600052603260045260246000fd5b9060005260206000200154905080876000018481548110611f8457634e487b7160e01b600052603260045260246000fd5b6000918252602080832090910192909255918252600188019052604090208390555b8554869080611fc557634e487b7160e01b600052603160045260246000fd5b6001900381819060005260206000200160009055905585600101600086815260200190815260200160002060009055600193505050506106f5565b60009150506106f5565b60606000612019836002613126565b6120249060026130fa565b67ffffffffffffffff81111561204a57634e487b7160e01b600052604160045260246000fd5b6040519080825280601f01601f191660200182016040528015612074576020820181803683370190505b509050600360fc1b8160008151811061209d57634e487b7160e01b600052603260045260246000fd5b60200101906001600160f81b031916908160001a905350600f60fb1b816001815181106120da57634e487b7160e01b600052603260045260246000fd5b60200101906001600160f81b031916908160001a90535060006120fe846002613126565b6121099060016130fa565b90505b600181111561219d576f181899199a1a9b1b9c1cb0b131b232b360811b85600f166010811061214b57634e487b7160e01b600052603260045260246000fd5b1a60f81b82828151811061216f57634e487b7160e01b600052603260045260246000fd5b60200101906001600160f81b031916908160001a90535060049490941c9361219681613188565b905061210c565b5083156110dd5760405162461bcd60e51b815260206004820181905260248201527f537472696e67733a20686578206c656e67746820696e73756666696369656e746044820152606401610802565b600082600001828154811061221157634e487b7160e01b600052603260045260246000fd5b9060005260206000200154905092915050565b600054610100900460ff168061223d575060005460ff16155b6122595760405162461bcd60e51b815260040161080290612ff9565b600054610100900460ff1615801561227b576000805461ffff19166101011790555b801561228d576000805461ff00191690555b50565b600054610100900460ff16806122a9575060005460ff16155b6122c55760405162461bcd60e51b815260040161080290612ff9565b600054610100900460ff161580156122e7576000805461ffff19166101011790555b82516122fa9060c9906020860190612804565b50815161230e9060ca906020850190612804565b508015610938576000805461ff0019169055505050565b600054610100900460ff168061233e575060005460ff16155b61235a5760405162461bcd60e51b815260040161080290612ff9565b600054610100900460ff1615801561237c576000805461ffff19166101011790555b6123876000336125b6565b61239f60008051602061325c833981519152336125b6565b6123b760008051602061325c833981519152806125c0565b61227b60008051602061325c833981519152336125b6565b60006001600160a01b0384163b156124d157604051630a85bd0160e11b81526001600160a01b0385169063150b7a0290612413903390899088908890600401612eaf565b602060405180830381600087803b15801561242d57600080fd5b505af192505050801561245d575060408051601f3d908101601f1916820190925261245a91810190612b28565b60015b6124b7573d80801561248b576040519150601f19603f3d011682016040523d82523d6000602084013e612490565b606091505b5080516124af5760405162461bcd60e51b815260040161080290612f53565b805181602001fd5b6001600160e01b031916630a85bd0160e11b149050610af0565b506001610af0565b60006001600160e01b03198216635a05180f60e01b14806106f557506106f58261260b565b6001600160a01b038316612559576125548160fd8054600083815260fe60205260408120829055600182018355919091527f9346ac6dd7de6b96975fec380d4d994c4c12e6a8897544f22915316cc6cca2800155565b61257c565b816001600160a01b0316836001600160a01b03161461257c5761257c8382612640565b6001600160a01b03821661259357610938816126dd565b826001600160a01b0316826001600160a01b0316146109385761093882826127b6565b610b0282826127fa565b600082815260656020526040808220600101805490849055905190918391839186917fbd79b86ffe0ab8e8776151514217cd7cacd52c909f66475c3af44e129f0b00ff9190a4505050565b60006001600160e01b03198216637965db0b60e01b14806106f557506301ffc9a760e01b6001600160e01b03198316146106f5565b6000600161264d84610d7b565b6126579190613145565b600083815260fc60205260409020549091508082146126aa576001600160a01b038416600090815260fb60209081526040808320858452825280832054848452818420819055835260fc90915290208190555b50600091825260fc602090815260408084208490556001600160a01b03909416835260fb81528383209183525290812055565b60fd546000906126ef90600190613145565b600083815260fe602052604081205460fd805493945090928490811061272557634e487b7160e01b600052603260045260246000fd5b906000526020600020015490508060fd838154811061275457634e487b7160e01b600052603260045260246000fd5b600091825260208083209091019290925582815260fe909152604080822084905585825281205560fd80548061279a57634e487b7160e01b600052603160045260246000fd5b6001900381819060005260206000200160009055905550505050565b60006127c183610d7b565b6001600160a01b03909316600090815260fb60209081526040808320868452825280832085905593825260fc9052919091209190915550565b610d008282611db1565b8280546128109061319f565b90600052602060002090601f0160209004810192826128325760008555612878565b82601f1061284b57805160ff1916838001178555612878565b82800160010185558215612878579182015b8281111561287857825182559160200191906001019061285d565b50612884929150612888565b5090565b5b808211156128845760008155600101612889565b600067ffffffffffffffff808411156128b8576128b861322f565b604051601f8501601f19908116603f011681019082821181831017156128e0576128e061322f565b816040528093508581528686860111156128f957600080fd5b858560208301376000602087830101525050509392505050565b80356001600160a01b038116811461292a57600080fd5b919050565b600082601f83011261293f578081fd5b6110dd8383356020850161289d565b60006020828403121561295f578081fd5b6110dd82612913565b6000806040838503121561297a578081fd5b61298383612913565b915061299160208401612913565b90509250929050565b6000806000606084860312156129ae578081fd5b6129b784612913565b92506129c560208501612913565b9150604084013590509250925092565b600080600080608085870312156129ea578081fd5b6129f385612913565b9350612a0160208601612913565b925060408501359150606085013567ffffffffffffffff811115612a23578182fd5b8501601f81018713612a33578182fd5b612a428782356020840161289d565b91505092959194509250565b60008060408385031215612a60578182fd5b612a6983612913565b915060208301358015158114612a7d578182fd5b809150509250929050565b60008060408385031215612a9a578182fd5b612aa383612913565b946020939093013593505050565b600060208284031215612ac2578081fd5b5035919050565b60008060408385031215612adb578182fd5b8235915061299160208401612913565b60008060408385031215612afd578182fd5b50508035926020909101359150565b600060208284031215612b1d578081fd5b81356110dd81613245565b600060208284031215612b39578081fd5b81516110dd81613245565b600060208284031215612b55578081fd5b813567ffffffffffffffff811115612b6b578182fd5b610af08482850161292f565b60008060408385031215612b89578182fd5b823567ffffffffffffffff80821115612ba0578384fd5b612bac8683870161292f565b93506020850135915080821115612bc1578283fd5b50612bce8582860161292f565b9150509250929050565b600080600060608486031215612bec578081fd5b833567ffffffffffffffff80821115612c03578283fd5b612c0f8783880161292f565b94506020860135915080821115612c24578283fd5b612c308783880161292f565b93506040860135915080821115612c45578283fd5b50612c528682870161292f565b9150509250925092565b60008060008060808587031215612c71578182fd5b843567ffffffffffffffff80821115612c88578384fd5b612c948883890161292f565b95506020870135915080821115612ca9578384fd5b612cb58883890161292f565b94506040870135915080821115612cca578384fd5b50612cd78782880161292f565b925050612ce660608601612913565b905092959194509250565b60008151808452612d0981602086016020860161315c565b601f01601f19169290920160200192915050565b60008151612d2f81856020860161315c565b9290920192915050565b60008251612d4b81846020870161315c565b9190910192915050565b60008351612d6781846020880161315c565b835190830190612d7b81836020880161315c565b01949350505050565b600080845482600182811c915080831680612da057607f831692505b6020808410821415612dc057634e487b7160e01b87526022600452602487fd5b818015612dd45760018114612de557612e11565b60ff19861689528489019650612e11565b60008b815260209020885b86811015612e095781548b820152908501908301612df0565b505084890196505b505050505050612e31612e2b82602f60f81b815260010190565b85612d1d565b95945050505050565b7f416363657373436f6e74726f6c3a206163636f756e7420000000000000000000815260008351612e7281601785016020880161315c565b7001034b99036b4b9b9b4b733903937b6329607d1b6017918401918201528351612ea381602884016020880161315c565b01602801949350505050565b6001600160a01b0385811682528416602082015260408101839052608060608201819052600090612ee290830184612cf1565b9695505050505050565b6020815260006110dd6020830184612cf1565b608081526000612f126080830188612cf1565b8281036020840152612f248188612cf1565b91505060018060a01b038516604083015263ffffffff83168460201b1760401b60608301529695505050505050565b60208082526032908201527f4552433732313a207472616e7366657220746f206e6f6e20455243373231526560408201527131b2b4bb32b91034b6b83632b6b2b73a32b960711b606082015260800190565b60208082526034908201527f4f776e596f7572536f6369616c4e6574776f726b3a20546865206163636f756e6040820152731d081dd85cc81b9bdd081e595d081b5a5b9d195960621b606082015260800190565b6020808252602e908201527f496e697469616c697a61626c653a20636f6e747261637420697320616c72656160408201526d191e481a5b9a5d1a585b1a5e995960921b606082015260800190565b60208082526031908201527f4552433732313a207472616e736665722063616c6c6572206973206e6f74206f6040820152701ddb995c881b9bdc88185c1c1c9bdd9959607a1b606082015260800190565b602081528151602082015260006020830151608060408401526130be60a0840182612cf1565b90506040840151601f19808584030160608601526130dc8383612cf1565b9250606086015191508085840301608086015250612e318282612cf1565b6000821982111561310d5761310d613203565b500190565b60008261312157613121613219565b500490565b600081600019048311821515161561314057613140613203565b500290565b60008282101561315757613157613203565b500390565b60005b8381101561317757818101518382015260200161315f565b838111156111b35750506000910152565b60008161319757613197613203565b506000190190565b600181811c908216806131b357607f821691505b6020821081141561189e57634e487b7160e01b600052602260045260246000fd5b60006000198214156131e8576131e8613203565b5060010190565b6000826131fe576131fe613219565b500690565b634e487b7160e01b600052601160045260246000fd5b634e487b7160e01b600052601260045260246000fd5b634e487b7160e01b600052604160045260246000fd5b6001600160e01b03198116811461228d57600080fdfe9f2df0fed2c77648de5860a4cc508cd0818c85b8b8a1ab4ceeef8d981c8956a6a2646970667358221220c7bcadb140dc36f35b309bec725e3aaf9b3cd1b29b3fcf65a49c40909026651c64736f6c63430008040033","linkReferences":{},"deployedLinkReferences":{}}