{"_format":"hh-sol-artifact-1","contractName":"OwnYourWords","sourceName":"contracts/OwnYourWords.sol","abi":[{"anonymous":false,"inputs":[{"indexed":true,"internalType":"address","name":"owner","type":"address"},{"indexed":true,"internalType":"address","name":"approved","type":"address"},{"indexed":true,"internalType":"uint256","name":"tokenId","type":"uint256"}],"name":"Approval","type":"event"},{"anonymous":false,"inputs":[{"indexed":true,"internalType":"address","name":"owner","type":"address"},{"indexed":true,"internalType":"address","name":"operator","type":"address"},{"indexed":false,"internalType":"bool","name":"approved","type":"bool"}],"name":"ApprovalForAll","type":"event"},{"anonymous":false,"inputs":[{"indexed":true,"internalType":"bytes32","name":"role","type":"bytes32"},{"indexed":true,"internalType":"bytes32","name":"previousAdminRole","type":"bytes32"},{"indexed":true,"internalType":"bytes32","name":"newAdminRole","type":"bytes32"}],"name":"RoleAdminChanged","type":"event"},{"anonymous":false,"inputs":[{"indexed":true,"internalType":"bytes32","name":"role","type":"bytes32"},{"indexed":true,"internalType":"address","name":"account","type":"address"},{"indexed":true,"internalType":"address","name":"sender","type":"address"}],"name":"RoleGranted","type":"event"},{"anonymous":false,"inputs":[{"indexed":true,"internalType":"bytes32","name":"role","type":"bytes32"},{"indexed":true,"internalType":"address","name":"account","type":"address"},{"indexed":true,"internalType":"address","name":"sender","type":"address"}],"name":"RoleRevoked","type":"event"},{"anonymous":false,"inputs":[{"indexed":true,"internalType":"address","name":"from","type":"address"},{"indexed":true,"internalType":"address","name":"to","type":"address"},{"indexed":true,"internalType":"uint256","name":"tokenId","type":"uint256"}],"name":"Transfer","type":"event"},{"inputs":[],"name":"DEFAULT_ADMIN_ROLE","outputs":[{"internalType":"bytes32","name":"","type":"bytes32"}],"stateMutability":"view","type":"function"},{"inputs":[],"name":"MINTER_ROLE","outputs":[{"internalType":"bytes32","name":"","type":"bytes32"}],"stateMutability":"view","type":"function"},{"inputs":[],"name":"PAUSER_ROLE","outputs":[{"internalType":"bytes32","name":"","type":"bytes32"}],"stateMutability":"view","type":"function"},{"inputs":[{"internalType":"string","name":"name","type":"string"},{"internalType":"string","name":"symbol","type":"string"},{"internalType":"string","name":"baseURI","type":"string"}],"name":"__OwnYourWords__init","outputs":[],"stateMutability":"nonpayable","type":"function"},{"inputs":[{"internalType":"address","name":"to","type":"address"},{"internalType":"uint256","name":"tokenId","type":"uint256"}],"name":"approve","outputs":[],"stateMutability":"nonpayable","type":"function"},{"inputs":[{"internalType":"address","name":"owner","type":"address"}],"name":"balanceOf","outputs":[{"internalType":"uint256","name":"","type":"uint256"}],"stateMutability":"view","type":"function"},{"inputs":[{"internalType":"uint256","name":"tokenId","type":"uint256"}],"name":"getApproved","outputs":[{"internalType":"address","name":"","type":"address"}],"stateMutability":"view","type":"function"},{"inputs":[{"internalType":"string","name":"gen_sn_id","type":"string"}],"name":"getOWWByGenSnId","outputs":[{"components":[{"internalType":"uint256","name":"id","type":"uint256"},{"internalType":"address","name":"owner","type":"address"},{"internalType":"string","name":"sn_name","type":"string"},{"internalType":"string","name":"post_id","type":"string"},{"internalType":"string","name":"post_url","type":"string"}],"internalType":"struct OwnedWords.data","name":"","type":"tuple"}],"stateMutability":"view","type":"function"},{"inputs":[{"internalType":"uint256","name":"tokenId","type":"uint256"}],"name":"getOWWByTokenId","outputs":[{"components":[{"internalType":"uint256","name":"id","type":"uint256"},{"internalType":"address","name":"owner","type":"address"},{"internalType":"string","name":"sn_name","type":"string"},{"internalType":"string","name":"post_id","type":"string"},{"internalType":"string","name":"post_url","type":"string"}],"internalType":"struct OwnedWords.data","name":"","type":"tuple"}],"stateMutability":"view","type":"function"},{"inputs":[{"internalType":"bytes32","name":"role","type":"bytes32"}],"name":"getRoleAdmin","outputs":[{"internalType":"bytes32","name":"","type":"bytes32"}],"stateMutability":"view","type":"function"},{"inputs":[{"internalType":"bytes32","name":"role","type":"bytes32"},{"internalType":"uint256","name":"index","type":"uint256"}],"name":"getRoleMember","outputs":[{"internalType":"address","name":"","type":"address"}],"stateMutability":"view","type":"function"},{"inputs":[{"internalType":"bytes32","name":"role","type":"bytes32"}],"name":"getRoleMemberCount","outputs":[{"internalType":"uint256","name":"","type":"uint256"}],"stateMutability":"view","type":"function"},{"inputs":[{"internalType":"bytes32","name":"role","type":"bytes32"},{"internalType":"address","name":"account","type":"address"}],"name":"grantRole","outputs":[],"stateMutability":"nonpayable","type":"function"},{"inputs":[{"internalType":"bytes32","name":"role","type":"bytes32"},{"internalType":"address","name":"account","type":"address"}],"name":"hasRole","outputs":[{"internalType":"bool","name":"","type":"bool"}],"stateMutability":"view","type":"function"},{"inputs":[{"internalType":"string","name":"name","type":"string"},{"internalType":"string","name":"symbol","type":"string"},{"internalType":"string","name":"_baseURI","type":"string"}],"name":"initialize","outputs":[],"stateMutability":"nonpayable","type":"function"},{"inputs":[{"internalType":"address","name":"owner","type":"address"},{"internalType":"address","name":"operator","type":"address"}],"name":"isApprovedForAll","outputs":[{"internalType":"bool","name":"","type":"bool"}],"stateMutability":"view","type":"function"},{"inputs":[{"internalType":"string","name":"gen_sn_id","type":"string"}],"name":"isPostAvailable","outputs":[{"internalType":"bool","name":"","type":"bool"}],"stateMutability":"view","type":"function"},{"inputs":[{"internalType":"string","name":"sn_name","type":"string"},{"internalType":"string","name":"post_id","type":"string"},{"internalType":"string","name":"post_url","type":"string"},{"internalType":"address","name":"to","type":"address"}],"name":"mint","outputs":[{"internalType":"uint256","name":"","type":"uint256"}],"stateMutability":"nonpayable","type":"function"},{"inputs":[{"internalType":"string","name":"postId","type":"string"}],"name":"mintTwitterPost","outputs":[],"stateMutability":"payable","type":"function"},{"inputs":[],"name":"name","outputs":[{"internalType":"string","name":"","type":"string"}],"stateMutability":"view","type":"function"},{"inputs":[{"internalType":"uint256","name":"tokenId","type":"uint256"}],"name":"ownerOf","outputs":[{"internalType":"address","name":"","type":"address"}],"stateMutability":"view","type":"function"},{"inputs":[{"internalType":"bytes32","name":"role","type":"bytes32"},{"internalType":"address","name":"account","type":"address"}],"name":"renounceRole","outputs":[],"stateMutability":"nonpayable","type":"function"},{"inputs":[],"name":"retrieveFunds","outputs":[],"stateMutability":"nonpayable","type":"function"},{"inputs":[{"internalType":"bytes32","name":"role","type":"bytes32"},{"internalType":"address","name":"account","type":"address"}],"name":"revokeRole","outputs":[],"stateMutability":"nonpayable","type":"function"},{"inputs":[{"internalType":"address","name":"from","type":"address"},{"internalType":"address","name":"to","type":"address"},{"internalType":"uint256","name":"tokenId","type":"uint256"}],"name":"safeTransferFrom","outputs":[],"stateMutability":"nonpayable","type":"function"},{"inputs":[{"internalType":"address","name":"from","type":"address"},{"internalType":"address","name":"to","type":"address"},{"internalType":"uint256","name":"tokenId","type":"uint256"},{"internalType":"bytes","name":"_data","type":"bytes"}],"name":"safeTransferFrom","outputs":[],"stateMutability":"nonpayable","type":"function"},{"inputs":[{"internalType":"address","name":"operator","type":"address"},{"internalType":"bool","name":"approved","type":"bool"}],"name":"setApprovalForAll","outputs":[],"stateMutability":"nonpayable","type":"function"},{"inputs":[{"internalType":"string","name":"newBaseURI","type":"string"}],"name":"setBaseURI","outputs":[],"stateMutability":"nonpayable","type":"function"},{"inputs":[{"internalType":"bytes4","name":"interfaceId","type":"bytes4"}],"name":"supportsInterface","outputs":[{"internalType":"bool","name":"","type":"bool"}],"stateMutability":"view","type":"function"},{"inputs":[],"name":"symbol","outputs":[{"internalType":"string","name":"","type":"string"}],"stateMutability":"view","type":"function"},{"inputs":[{"internalType":"uint256","name":"index","type":"uint256"}],"name":"tokenByIndex","outputs":[{"internalType":"uint256","name":"","type":"uint256"}],"stateMutability":"view","type":"function"},{"inputs":[{"internalType":"address","name":"owner","type":"address"},{"internalType":"uint256","name":"index","type":"uint256"}],"name":"tokenOfOwnerByIndex","outputs":[{"internalType":"uint256","name":"","type":"uint256"}],"stateMutability":"view","type":"function"},{"inputs":[{"internalType":"uint256","name":"tokenId","type":"uint256"}],"name":"tokenURI","outputs":[{"internalType":"string","name":"","type":"string"}],"stateMutability":"view","type":"function"},{"inputs":[],"name":"totalSupply","outputs":[{"internalType":"uint256","name":"","type":"uint256"}],"stateMutability":"view","type":"function"},{"inputs":[{"internalType":"address","name":"from","type":"address"},{"internalType":"address","name":"to","type":"address"},{"internalType":"uint256","name":"tokenId","type":"uint256"}],"name":"transferFrom","outputs":[],"stateMutability":"nonpayable","type":"function"},{"inputs":[],"name":"twitterPostMinter","outputs":[{"internalType":"contract TwitterPostMinter","name":"","type":"address"}],"stateMutability":"view","type":"function"},{"inputs":[{"internalType":"address","name":"twitterPostMinterAddress","type":"address"}],"name":"updateTwitterPostMinterAddress","outputs":[],"stateMutability":"nonpayable","type":"function"}],"bytecode":"0x608060405234801561001057600080fd5b506133e1806100206000396000f3fe60806040526004361061021a5760003560e01c806370a0823111610123578063c90b43b3116100ab578063e63ab1e91161006f578063e63ab1e91461064d578063e9856dac14610681578063e985e9c514610694578063f259df8d146106dd578063fde7d88e146106fd57600080fd5b8063c90b43b3146105ab578063ca15c873146105cb578063d05ec970146105eb578063d53913931461060b578063d547741f1461062d57600080fd5b8063a217fddf116100f2578063a217fddf14610516578063a22cb4651461052b578063a6487c531461054b578063b88d4fde1461056b578063c87b56dd1461058b57600080fd5b806370a08231146104a15780639010d07c146104c157806391d14854146104e157806395d89b411461050157600080fd5b80632f745c59116101a657806355f804b31161017557806355f804b3146103ff57806361b20d8c1461041f5780636352211e146104345780636eb0ac4c146104545780637026427b1461048157600080fd5b80632f745c591461037f57806336568abe1461039f57806342842e0e146103bf5780634f6ccce7146103df57600080fd5b806318160ddd116101ed57806318160ddd146102d057806323b872dd146102ef578063248a9ca31461030f5780632aedc3f91461033f5780632f2ff15d1461035f57600080fd5b806301ffc9a71461021f57806306fdde0314610254578063081812fc14610276578063095ea7b3146102ae575b600080fd5b34801561022b57600080fd5b5061023f61023a366004612ca4565b61071e565b60405190151581526020015b60405180910390f35b34801561026057600080fd5b5061026961072f565b60405161024b9190613023565b34801561028257600080fd5b50610296610291366004612c49565b6107c1565b6040516001600160a01b03909116815260200161024b565b3480156102ba57600080fd5b506102ce6102c9366004612c20565b61085b565b005b3480156102dc57600080fd5b5060fd545b60405190815260200161024b565b3480156102fb57600080fd5b506102ce61030a366004612b32565b610971565b34801561031b57600080fd5b506102e161032a366004612c49565b60009081526065602052604090206001015490565b34801561034b57600080fd5b506102e161035a366004612d93565b6109a2565b34801561036b57600080fd5b506102ce61037a366004612c61565b610b42565b34801561038b57600080fd5b506102e161039a366004612c20565b610b64565b3480156103ab57600080fd5b506102ce6103ba366004612c61565b610bfa565b3480156103cb57600080fd5b506102ce6103da366004612b32565b610c1c565b3480156103eb57600080fd5b506102e16103fa366004612c49565b610c37565b34801561040b57600080fd5b506102ce61041a366004612cdc565b610cd8565b34801561042b57600080fd5b506102ce610d6d565b34801561044057600080fd5b5061029661044f366004612c49565b610e1e565b34801561046057600080fd5b5061047461046f366004612cdc565b610e95565b60405161024b91906131b0565b34801561048d57600080fd5b506102ce61049c366004612d0f565b610ef8565b3480156104ad57600080fd5b506102e16104bc366004612ae6565b610f93565b3480156104cd57600080fd5b506102966104dc366004612c83565b61101a565b3480156104ed57600080fd5b5061023f6104fc366004612c61565b611032565b34801561050d57600080fd5b5061026961105d565b34801561052257600080fd5b506102e1600081565b34801561053757600080fd5b506102ce610546366004612be6565b61106c565b34801561055757600080fd5b506102ce610566366004612d0f565b611131565b34801561057757600080fd5b506102ce610586366004612b6d565b611193565b34801561059757600080fd5b506102696105a6366004612c49565b6111c5565b3480156105b757600080fd5b5061023f6105c6366004612cdc565b611277565b3480156105d757600080fd5b506102e16105e6366004612c49565b6112bf565b3480156105f757600080fd5b506102ce610606366004612ae6565b6112d6565b34801561061757600080fd5b506102e160008051602061338c83398151915281565b34801561063957600080fd5b506102ce610648366004612c61565b6113ad565b34801561065957600080fd5b506102e17f65d7a28e3265b37a6474929f336521b332c1681b933f6cb9f3376673440d862a81565b6102ce61068f366004612cdc565b6113b7565b3480156106a057600080fd5b5061023f6106af366004612b00565b6001600160a01b03918216600090815260ce6020908152604080832093909416825291909152205460ff1690565b3480156106e957600080fd5b506104746106f8366004612c49565b61142b565b34801561070957600080fd5b5061016154610296906001600160a01b031681565b600061072982611666565b92915050565b606060c9805461073e906132c9565b80601f016020809104026020016040519081016040528092919081815260200182805461076a906132c9565b80156107b75780601f1061078c576101008083540402835291602001916107b7565b820191906000526020600020905b81548152906001019060200180831161079a57829003601f168201915b5050505050905090565b600081815260cb60205260408120546001600160a01b031661083f5760405162461bcd60e51b815260206004820152602c60248201527f4552433732313a20617070726f76656420717565727920666f72206e6f6e657860448201526b34b9ba32b73a103a37b5b2b760a11b60648201526084015b60405180910390fd5b50600090815260cd60205260409020546001600160a01b031690565b600061086682610e1e565b9050806001600160a01b0316836001600160a01b031614156108d45760405162461bcd60e51b815260206004820152602160248201527f4552433732313a20617070726f76616c20746f2063757272656e74206f776e656044820152603960f91b6064820152608401610836565b336001600160a01b03821614806108f057506108f081336106af565b6109625760405162461bcd60e51b815260206004820152603860248201527f4552433732313a20617070726f76652063616c6c6572206973206e6f74206f7760448201527f6e6572206e6f7220617070726f76656420666f7220616c6c00000000000000006064820152608401610836565b61096c838361168b565b505050565b61097b33826116f9565b6109975760405162461bcd60e51b81526004016108369061315f565b61096c8383836117ec565b60008085856040516020016109b8929190612e8c565b60405160208183030381529060405290506109d281611277565b1515600114610a395760405162461bcd60e51b815260206004820152602d60248201527f4f776e596f7572576f7264733a20546865736520776f7264732077657265206160448201526c1b1c9958591e481b5a5b9d1959609a1b6064820152608401610836565b6000610a4484611997565b6000818152610160602090815260409091208281556001810180546001600160a01b0319166001600160a01b0389161790558951929350610a8d926002909101918a0190612964565b506000818152610160602090815260409091208751610ab492600390920191890190612964565b506000818152610160602090815260409091208651610adb92600490920191880190612964565b508061015f83604051610aee9190612e70565b9081526040519081900360200181209190915560019061015f90610b13908590612e70565b908152604051908190036020019020600101805491151560ff199092169190911790559150505b949350505050565b610b4c8282611a56565b600082815260976020526040902061096c9082611a7c565b6000610b6f83610f93565b8210610bd15760405162461bcd60e51b815260206004820152602b60248201527f455243373231456e756d657261626c653a206f776e657220696e646578206f7560448201526a74206f6620626f756e647360a81b6064820152608401610836565b506001600160a01b0391909116600090815260fb60209081526040808320938352929052205490565b610c048282611a91565b600082815260976020526040902061096c9082611b0b565b61096c83838360405180602001604052806000815250611193565b6000610c4260fd5490565b8210610ca55760405162461bcd60e51b815260206004820152602c60248201527f455243373231456e756d657261626c653a20676c6f62616c20696e646578206f60448201526b7574206f6620626f756e647360a01b6064820152608401610836565b60fd8281548110610cc657634e487b7160e01b600052603260045260246000fd5b90600052602060002001549050919050565b610ce3600033611032565b610d555760405162461bcd60e51b815260206004820152603960248201527f4f776e596f7572536f6369616c4e6574776f726b3a206d75737420686176652060448201527f6d696e74657220726f6c6520746f2073657442617365555249000000000000006064820152608401610836565b8051610d699061012e906020840190612964565b5050565b610d977f65d7a28e3265b37a6474929f336521b332c1681b933f6cb9f3376673440d862a33611032565b610def5760405162461bcd60e51b815260206004820152602360248201527f455243373231437573746f6d3a206d75737420686176652070617573657220726044820152626f6c6560e81b6064820152608401610836565b60405133904780156108fc02916000818181858888f19350505050158015610e1b573d6000803e3d6000fd5b50565b600081815260cb60205260408120546001600160a01b0316806107295760405162461bcd60e51b815260206004820152602960248201527f4552433732313a206f776e657220717565727920666f72206e6f6e657869737460448201526832b73a103a37b5b2b760b91b6064820152608401610836565b610e9d6129e8565b610ea682611277565b15610ec35760405162461bcd60e51b815260040161083690613076565b600061015f83604051610ed69190612e70565b908152604051908190036020019020549050610ef18161142b565b9392505050565b600054610100900460ff1680610f11575060005460ff16155b610f2d5760405162461bcd60e51b815260040161083690613111565b600054610100900460ff16158015610f4f576000805461ffff19166101011790555b610f7b84848486604051602001610f67929190612e8c565b604051602081830303815290604052611b20565b8015610f8d576000805461ff00191690555b50505050565b60006001600160a01b038216610ffe5760405162461bcd60e51b815260206004820152602a60248201527f4552433732313a2062616c616e636520717565727920666f7220746865207a65604482015269726f206164647265737360b01b6064820152608401610836565b506001600160a01b0316600090815260cc602052604090205490565b6000828152609760205260408120610ef19083611bdd565b60009182526065602090815260408084206001600160a01b0393909316845291905290205460ff1690565b606060ca805461073e906132c9565b6001600160a01b0382163314156110c55760405162461bcd60e51b815260206004820152601960248201527f4552433732313a20617070726f766520746f2063616c6c6572000000000000006044820152606401610836565b33600081815260ce602090815260408083206001600160a01b03871680855290835292819020805460ff191686151590811790915590519081529192917f17307eab39ab6107e8899845ad3d59bd9653f200f220920489ca2b5937696c31910160405180910390a35050565b600054610100900460ff168061114a575060005460ff16155b6111665760405162461bcd60e51b815260040161083690613111565b600054610100900460ff16158015611188576000805461ffff19166101011790555b610f7b848484611b20565b61119d33836116f9565b6111b95760405162461bcd60e51b81526004016108369061315f565b610f8d84848484611be9565b600081815260cb60205260409020546060906001600160a01b03166112445760405162461bcd60e51b815260206004820152602f60248201527f4552433732314d657461646174613a2055524920717565727920666f72206e6f60448201526e3732bc34b9ba32b73a103a37b5b2b760891b6064820152608401610836565b61012e61125083611c1c565b604051602001611261929190612ebb565b6040516020818303038152906040529050919050565b60008061015f8360405161128b9190612e70565b9081526040805191829003602090810183208383019092528154835260019091015460ff1615801591909201529392505050565b600081815260976020526040812061072990611d36565b6112e1600033611032565b6113615760405162461bcd60e51b815260206004820152604560248201527f4f776e596f7572576f7264733a206d7573742068617665206d696e746572207260448201527f6f6c6520746f2075706461746554776974746572506f73744d696e7465724164606482015264647265737360d81b608482015260a401610836565b61137960008051602061338c833981519152826113ad565b61016180546001600160a01b0319166001600160a01b038316179055610e1b60008051602061338c83398151915282611d40565b610c048282611d4a565b610161546001600160a01b031663744cc5413483336040516001600160e01b031960e086901b1681526113f69291903090632aedc3f990600401613036565b6000604051808303818588803b15801561140f57600080fd5b505af1158015611423573d6000803e3d6000fd5b505050505050565b6114336129e8565b600082815260cb60205260409020546001600160a01b03161515151560011461146e5760405162461bcd60e51b815260040161083690613076565b60008281526101606020908152604091829020825160a0810184528154815260018201546001600160a01b03169281019290925260028101805492939192918401916114b9906132c9565b80601f01602080910402602001604051908101604052809291908181526020018280546114e5906132c9565b80156115325780601f1061150757610100808354040283529160200191611532565b820191906000526020600020905b81548152906001019060200180831161151557829003601f168201915b5050505050815260200160038201805461154b906132c9565b80601f0160208091040260200160405190810160405280929190818152602001828054611577906132c9565b80156115c45780601f10611599576101008083540402835291602001916115c4565b820191906000526020600020905b8154815290600101906020018083116115a757829003601f168201915b505050505081526020016004820180546115dd906132c9565b80601f0160208091040260200160405190810160405280929190818152602001828054611609906132c9565b80156116565780601f1061162b57610100808354040283529160200191611656565b820191906000526020600020905b81548152906001019060200180831161163957829003601f168201915b5050505050815250509050919050565b60006001600160e01b0319821663780e9d6360e01b1480610729575061072982611d70565b600081815260cd6020526040902080546001600160a01b0319166001600160a01b03841690811790915581906116c082610e1e565b6001600160a01b03167f8c5be1e5ebec7d5bd14f71427d1e84f3dd0314c0f7b2291e5b200ac8c7c3b92560405160405180910390a45050565b600081815260cb60205260408120546001600160a01b03166117725760405162461bcd60e51b815260206004820152602c60248201527f4552433732313a206f70657261746f7220717565727920666f72206e6f6e657860448201526b34b9ba32b73a103a37b5b2b760a11b6064820152608401610836565b600061177d83610e1e565b9050806001600160a01b0316846001600160a01b031614806117b85750836001600160a01b03166117ad846107c1565b6001600160a01b0316145b80610b3a57506001600160a01b03808216600090815260ce602090815260408083209388168352929052205460ff16610b3a565b826001600160a01b03166117ff82610e1e565b6001600160a01b0316146118675760405162461bcd60e51b815260206004820152602960248201527f4552433732313a207472616e73666572206f6620746f6b656e2074686174206960448201526839903737ba1037bbb760b91b6064820152608401610836565b6001600160a01b0382166118c95760405162461bcd60e51b8152602060048201526024808201527f4552433732313a207472616e7366657220746f20746865207a65726f206164646044820152637265737360e01b6064820152608401610836565b6118d4838383611db0565b6118df60008261168b565b6001600160a01b038316600090815260cc6020526040812080546001929061190890849061326f565b90915550506001600160a01b038216600090815260cc60205260408120805460019290611936908490613224565b9091555050600081815260cb602052604080822080546001600160a01b0319166001600160a01b0386811691821790925591518493918716917fddf252ad1be2c89b69c2b068fc378daa952ba7f163c4a11628f55a4df523b3ef91a4505050565b60006119b160008051602061338c83398151915233611032565b6040516020016119f8907f455243373231437573746f6d3a206d7573742068617665206d696e746572207281526a1bdb19481d1bc81b5a5b9d60aa1b6020820152602b0190565b60405160208183030381529060405290611a255760405162461bcd60e51b81526004016108369190613023565b506000611a3261012d5490565b9050611a4783611a4261012d5490565b611dbb565b61072961012d80546001019055565b600082815260656020526040902060010154611a728133611f09565b61096c8383611f6d565b6000610ef1836001600160a01b038416611ff3565b6001600160a01b0381163314611b015760405162461bcd60e51b815260206004820152602f60248201527f416363657373436f6e74726f6c3a2063616e206f6e6c792072656e6f756e636560448201526e103937b632b9903337b91039b2b63360891b6064820152608401610836565b610d698282612042565b6000610ef1836001600160a01b0384166120a9565b600054610100900460ff1680611b39575060005460ff16155b611b555760405162461bcd60e51b815260040161083690613111565b600054610100900460ff16158015611b77576000805461ffff19166101011790555b611b7f6121c6565b611b876121c6565b611b8f6121c6565b611b976121c6565b611ba18484612231565b611ba96121c6565b611bb16122c6565b8151611bc59061012e906020850190612964565b508015610f8d576000805461ff001916905550505050565b6000610ef1838361236a565b611bf48484846117ec565b611c00848484846123a2565b610f8d5760405162461bcd60e51b8152600401610836906130bf565b606081611c405750506040805180820190915260018152600360fc1b602082015290565b8160005b8115611c6a5780611c5481613304565b9150611c639050600a8361323c565b9150611c44565b60008167ffffffffffffffff811115611c9357634e487b7160e01b600052604160045260246000fd5b6040519080825280601f01601f191660200182016040528015611cbd576020820181803683370190505b5090505b8415610b3a57611cd260018361326f565b9150611cdf600a8661331f565b611cea906030613224565b60f81b818381518110611d0d57634e487b7160e01b600052603260045260246000fd5b60200101906001600160f81b031916908160001a905350611d2f600a8661323c565b9450611cc1565b6000610729825490565b610b4c82826124ac565b600082815260656020526040902060010154611d668133611f09565b61096c8383612042565b60006001600160e01b031982166380ac58cd60e01b1480611da157506001600160e01b03198216635b5e139f60e01b145b806107295750610729826124b6565b61096c8383836124db565b6001600160a01b038216611e115760405162461bcd60e51b815260206004820181905260248201527f4552433732313a206d696e7420746f20746865207a65726f20616464726573736044820152606401610836565b600081815260cb60205260409020546001600160a01b031615611e765760405162461bcd60e51b815260206004820152601c60248201527f4552433732313a20746f6b656e20616c7265616479206d696e746564000000006044820152606401610836565b611e8260008383611db0565b6001600160a01b038216600090815260cc60205260408120805460019290611eab908490613224565b9091555050600081815260cb602052604080822080546001600160a01b0319166001600160a01b03861690811790915590518392907fddf252ad1be2c89b69c2b068fc378daa952ba7f163c4a11628f55a4df523b3ef908290a45050565b611f138282611032565b610d6957611f2b816001600160a01b03166014612593565b611f36836020612593565b604051602001611f47929190612f71565b60408051601f198184030181529082905262461bcd60e51b825261083691600401613023565b611f778282611032565b610d695760008281526065602090815260408083206001600160a01b03851684529091529020805460ff19166001179055611faf3390565b6001600160a01b0316816001600160a01b0316837f2f8788117e7eff1d82e926ec794901d17c78024a50270940304540a733656f0d60405160405180910390a45050565b600081815260018301602052604081205461203a57508154600181810184556000848152602080822090930184905584548482528286019093526040902091909155610729565b506000610729565b61204c8282611032565b15610d695760008281526065602090815260408083206001600160a01b0385168085529252808320805460ff1916905551339285917ff6391f5c32d9c69d2a47ea670b442974b53935d1edc7fd64eb21e047a839171b9190a45050565b600081815260018301602052604081205480156121bc5760006120cd60018361326f565b85549091506000906120e19060019061326f565b905081811461216257600086600001828154811061210f57634e487b7160e01b600052603260045260246000fd5b906000526020600020015490508087600001848154811061214057634e487b7160e01b600052603260045260246000fd5b6000918252602080832090910192909255918252600188019052604090208390555b855486908061218157634e487b7160e01b600052603160045260246000fd5b600190038181906000526020600020016000905590558560010160008681526020019081526020016000206000905560019350505050610729565b6000915050610729565b600054610100900460ff16806121df575060005460ff16155b6121fb5760405162461bcd60e51b815260040161083690613111565b600054610100900460ff1615801561221d576000805461ffff19166101011790555b8015610e1b576000805461ff001916905550565b600054610100900460ff168061224a575060005460ff16155b6122665760405162461bcd60e51b815260040161083690613111565b600054610100900460ff16158015612288576000805461ffff19166101011790555b825161229b9060c9906020860190612964565b5081516122af9060ca906020850190612964565b50801561096c576000805461ff0019169055505050565b600054610100900460ff16806122df575060005460ff16155b6122fb5760405162461bcd60e51b815260040161083690613111565b600054610100900460ff1615801561231d576000805461ffff19166101011790555b612328600033611d40565b61234060008051602061338c83398151915233611d40565b61221d7f65d7a28e3265b37a6474929f336521b332c1681b933f6cb9f3376673440d862a33611d40565b600082600001828154811061238f57634e487b7160e01b600052603260045260246000fd5b9060005260206000200154905092915050565b60006001600160a01b0384163b156124a457604051630a85bd0160e11b81526001600160a01b0385169063150b7a02906123e6903390899088908890600401612fe6565b602060405180830381600087803b15801561240057600080fd5b505af1925050508015612430575060408051601f3d908101601f1916820190925261242d91810190612cc0565b60015b61248a573d80801561245e576040519150601f19603f3d011682016040523d82523d6000602084013e612463565b606091505b5080516124825760405162461bcd60e51b8152600401610836906130bf565b805181602001fd5b6001600160e01b031916630a85bd0160e11b149050610b3a565b506001610b3a565b610d698282611f6d565b60006001600160e01b03198216635a05180f60e01b1480610729575061072982612775565b6001600160a01b038316612536576125318160fd8054600083815260fe60205260408120829055600182018355919091527f9346ac6dd7de6b96975fec380d4d994c4c12e6a8897544f22915316cc6cca2800155565b612559565b816001600160a01b0316836001600160a01b0316146125595761255983826127aa565b6001600160a01b0382166125705761096c81612847565b826001600160a01b0316826001600160a01b03161461096c5761096c8282612920565b606060006125a2836002613250565b6125ad906002613224565b67ffffffffffffffff8111156125d357634e487b7160e01b600052604160045260246000fd5b6040519080825280601f01601f1916602001820160405280156125fd576020820181803683370190505b509050600360fc1b8160008151811061262657634e487b7160e01b600052603260045260246000fd5b60200101906001600160f81b031916908160001a905350600f60fb1b8160018151811061266357634e487b7160e01b600052603260045260246000fd5b60200101906001600160f81b031916908160001a9053506000612687846002613250565b612692906001613224565b90505b6001811115612726576f181899199a1a9b1b9c1cb0b131b232b360811b85600f16601081106126d457634e487b7160e01b600052603260045260246000fd5b1a60f81b8282815181106126f857634e487b7160e01b600052603260045260246000fd5b60200101906001600160f81b031916908160001a90535060049490941c9361271f816132b2565b9050612695565b508315610ef15760405162461bcd60e51b815260206004820181905260248201527f537472696e67733a20686578206c656e67746820696e73756666696369656e746044820152606401610836565b60006001600160e01b03198216637965db0b60e01b148061072957506301ffc9a760e01b6001600160e01b0319831614610729565b600060016127b784610f93565b6127c1919061326f565b600083815260fc6020526040902054909150808214612814576001600160a01b038416600090815260fb60209081526040808320858452825280832054848452818420819055835260fc90915290208190555b50600091825260fc602090815260408084208490556001600160a01b03909416835260fb81528383209183525290812055565b60fd546000906128599060019061326f565b600083815260fe602052604081205460fd805493945090928490811061288f57634e487b7160e01b600052603260045260246000fd5b906000526020600020015490508060fd83815481106128be57634e487b7160e01b600052603260045260246000fd5b600091825260208083209091019290925582815260fe909152604080822084905585825281205560fd80548061290457634e487b7160e01b600052603160045260246000fd5b6001900381819060005260206000200160009055905550505050565b600061292b83610f93565b6001600160a01b03909316600090815260fb60209081526040808320868452825280832085905593825260fc9052919091209190915550565b828054612970906132c9565b90600052602060002090601f01602090048101928261299257600085556129d8565b82601f106129ab57805160ff19168380011785556129d8565b828001600101855582156129d8579182015b828111156129d85782518255916020019190600101906129bd565b506129e4929150612a20565b5090565b6040518060a001604052806000815260200160006001600160a01b031681526020016060815260200160608152602001606081525090565b5b808211156129e45760008155600101612a21565b600067ffffffffffffffff80841115612a5057612a5061335f565b604051601f8501601f19908116603f01168101908282118183101715612a7857612a7861335f565b81604052809350858152868686011115612a9157600080fd5b858560208301376000602087830101525050509392505050565b80356001600160a01b0381168114612ac257600080fd5b919050565b600082601f830112612ad7578081fd5b610ef183833560208501612a35565b600060208284031215612af7578081fd5b610ef182612aab565b60008060408385031215612b12578081fd5b612b1b83612aab565b9150612b2960208401612aab565b90509250929050565b600080600060608486031215612b46578081fd5b612b4f84612aab565b9250612b5d60208501612aab565b9150604084013590509250925092565b60008060008060808587031215612b82578081fd5b612b8b85612aab565b9350612b9960208601612aab565b925060408501359150606085013567ffffffffffffffff811115612bbb578182fd5b8501601f81018713612bcb578182fd5b612bda87823560208401612a35565b91505092959194509250565b60008060408385031215612bf8578182fd5b612c0183612aab565b915060208301358015158114612c15578182fd5b809150509250929050565b60008060408385031215612c32578182fd5b612c3b83612aab565b946020939093013593505050565b600060208284031215612c5a578081fd5b5035919050565b60008060408385031215612c73578182fd5b82359150612b2960208401612aab565b60008060408385031215612c95578182fd5b50508035926020909101359150565b600060208284031215612cb5578081fd5b8135610ef181613375565b600060208284031215612cd1578081fd5b8151610ef181613375565b600060208284031215612ced578081fd5b813567ffffffffffffffff811115612d03578182fd5b610b3a84828501612ac7565b600080600060608486031215612d23578283fd5b833567ffffffffffffffff80821115612d3a578485fd5b612d4687838801612ac7565b94506020860135915080821115612d5b578384fd5b612d6787838801612ac7565b93506040860135915080821115612d7c578283fd5b50612d8986828701612ac7565b9150509250925092565b60008060008060808587031215612da8578182fd5b843567ffffffffffffffff80821115612dbf578384fd5b612dcb88838901612ac7565b95506020870135915080821115612de0578384fd5b612dec88838901612ac7565b94506040870135915080821115612e01578384fd5b50612e0e87828801612ac7565b925050612e1d60608601612aab565b905092959194509250565b60008151808452612e40816020860160208601613286565b601f01601f19169290920160200192915050565b60008151612e66818560208601613286565b9290920192915050565b60008251612e82818460208701613286565b9190910192915050565b60008351612e9e818460208801613286565b835190830190612eb2818360208801613286565b01949350505050565b600080845482600182811c915080831680612ed757607f831692505b6020808410821415612ef757634e487b7160e01b87526022600452602487fd5b818015612f0b5760018114612f1c57612f48565b60ff19861689528489019650612f48565b60008b815260209020885b86811015612f405781548b820152908501908301612f27565b505084890196505b505050505050612f68612f6282602f60f81b815260010190565b85612e54565b95945050505050565b7f416363657373436f6e74726f6c3a206163636f756e7420000000000000000000815260008351612fa9816017850160208801613286565b7001034b99036b4b9b9b4b733903937b6329607d1b6017918401918201528351612fda816028840160208801613286565b01602801949350505050565b6001600160a01b038581168252841660208201526040810183905260806060820181905260009061301990830184612e28565b9695505050505050565b602081526000610ef16020830184612e28565b6060815260006130496060830187612e28565b905060018060a01b038516602083015263ffffffff83168460201b1760401b604083015295945050505050565b60208082526029908201527f4f776e596f7572576f7264733a2054686520706f737420776173206e6f742079604082015268195d081b5a5b9d195960ba1b606082015260800190565b60208082526032908201527f4552433732313a207472616e7366657220746f206e6f6e20455243373231526560408201527131b2b4bb32b91034b6b83632b6b2b73a32b960711b606082015260800190565b6020808252602e908201527f496e697469616c697a61626c653a20636f6e747261637420697320616c72656160408201526d191e481a5b9a5d1a585b1a5e995960921b606082015260800190565b60208082526031908201527f4552433732313a207472616e736665722063616c6c6572206973206e6f74206f6040820152701ddb995c881b9bdc88185c1c1c9bdd9959607a1b606082015260800190565b602081528151602082015260018060a01b0360208301511660408201526000604083015160a060608401526131e860c0840182612e28565b90506060840151601f19808584030160808601526132068383612e28565b925060808601519150808584030160a086015250612f688282612e28565b6000821982111561323757613237613333565b500190565b60008261324b5761324b613349565b500490565b600081600019048311821515161561326a5761326a613333565b500290565b60008282101561328157613281613333565b500390565b60005b838110156132a1578181015183820152602001613289565b83811115610f8d5750506000910152565b6000816132c1576132c1613333565b506000190190565b600181811c908216806132dd57607f821691505b602082108114156132fe57634e487b7160e01b600052602260045260246000fd5b50919050565b600060001982141561331857613318613333565b5060010190565b60008261332e5761332e613349565b500690565b634e487b7160e01b600052601160045260246000fd5b634e487b7160e01b600052601260045260246000fd5b634e487b7160e01b600052604160045260246000fd5b6001600160e01b031981168114610e1b57600080fdfe9f2df0fed2c77648de5860a4cc508cd0818c85b8b8a1ab4ceeef8d981c8956a6a264697066735822122090c1c81c874a0ae0ee9bb6cb096b9f902aa5dca5514090119d1e5c2be43f852864736f6c63430008040033","linkReferences":{},"deployedLinkReferences":{}}