{"_format":"hh-sol-artifact-1","contractName":"OwnYourWords","sourceName":"contracts/OwnYourWords.sol","abi":[{"anonymous":false,"inputs":[{"indexed":true,"internalType":"address","name":"owner","type":"address"},{"indexed":true,"internalType":"address","name":"approved","type":"address"},{"indexed":true,"internalType":"uint256","name":"tokenId","type":"uint256"}],"name":"Approval","type":"event"},{"anonymous":false,"inputs":[{"indexed":true,"internalType":"address","name":"owner","type":"address"},{"indexed":true,"internalType":"address","name":"operator","type":"address"},{"indexed":false,"internalType":"bool","name":"approved","type":"bool"}],"name":"ApprovalForAll","type":"event"},{"anonymous":false,"inputs":[{"indexed":true,"internalType":"bytes32","name":"role","type":"bytes32"},{"indexed":true,"internalType":"bytes32","name":"previousAdminRole","type":"bytes32"},{"indexed":true,"internalType":"bytes32","name":"newAdminRole","type":"bytes32"}],"name":"RoleAdminChanged","type":"event"},{"anonymous":false,"inputs":[{"indexed":true,"internalType":"bytes32","name":"role","type":"bytes32"},{"indexed":true,"internalType":"address","name":"account","type":"address"},{"indexed":true,"internalType":"address","name":"sender","type":"address"}],"name":"RoleGranted","type":"event"},{"anonymous":false,"inputs":[{"indexed":true,"internalType":"bytes32","name":"role","type":"bytes32"},{"indexed":true,"internalType":"address","name":"account","type":"address"},{"indexed":true,"internalType":"address","name":"sender","type":"address"}],"name":"RoleRevoked","type":"event"},{"anonymous":false,"inputs":[{"indexed":true,"internalType":"address","name":"from","type":"address"},{"indexed":true,"internalType":"address","name":"to","type":"address"},{"indexed":true,"internalType":"uint256","name":"tokenId","type":"uint256"}],"name":"Transfer","type":"event"},{"inputs":[],"name":"ADMIN_ROLE","outputs":[{"internalType":"bytes32","name":"","type":"bytes32"}],"stateMutability":"view","type":"function"},{"inputs":[],"name":"DEFAULT_ADMIN_ROLE","outputs":[{"internalType":"bytes32","name":"","type":"bytes32"}],"stateMutability":"view","type":"function"},{"inputs":[],"name":"MINTER_ROLE","outputs":[{"internalType":"bytes32","name":"","type":"bytes32"}],"stateMutability":"view","type":"function"},{"inputs":[{"internalType":"string","name":"name","type":"string"},{"internalType":"string","name":"symbol","type":"string"},{"internalType":"string","name":"baseURI","type":"string"}],"name":"__OwnYourWords__init","outputs":[],"stateMutability":"nonpayable","type":"function"},{"inputs":[{"internalType":"address","name":"to","type":"address"},{"internalType":"uint256","name":"tokenId","type":"uint256"}],"name":"approve","outputs":[],"stateMutability":"nonpayable","type":"function"},{"inputs":[{"internalType":"address","name":"owner","type":"address"}],"name":"balanceOf","outputs":[{"internalType":"uint256","name":"","type":"uint256"}],"stateMutability":"view","type":"function"},{"inputs":[{"internalType":"uint256","name":"tokenId","type":"uint256"}],"name":"getApproved","outputs":[{"internalType":"address","name":"","type":"address"}],"stateMutability":"view","type":"function"},{"inputs":[{"internalType":"string","name":"gen_sn_id","type":"string"}],"name":"getOWWByGenSnId","outputs":[{"components":[{"internalType":"uint256","name":"id","type":"uint256"},{"internalType":"address","name":"owner","type":"address"},{"internalType":"string","name":"sn_name","type":"string"},{"internalType":"string","name":"post_id","type":"string"},{"internalType":"string","name":"post_url","type":"string"}],"internalType":"struct OwnedWords.data","name":"","type":"tuple"}],"stateMutability":"view","type":"function"},{"inputs":[{"internalType":"uint256","name":"tokenId","type":"uint256"}],"name":"getOWWByTokenId","outputs":[{"components":[{"internalType":"uint256","name":"id","type":"uint256"},{"internalType":"address","name":"owner","type":"address"},{"internalType":"string","name":"sn_name","type":"string"},{"internalType":"string","name":"post_id","type":"string"},{"internalType":"string","name":"post_url","type":"string"}],"internalType":"struct OwnedWords.data","name":"","type":"tuple"}],"stateMutability":"view","type":"function"},{"inputs":[{"internalType":"bytes32","name":"role","type":"bytes32"}],"name":"getRoleAdmin","outputs":[{"internalType":"bytes32","name":"","type":"bytes32"}],"stateMutability":"view","type":"function"},{"inputs":[{"internalType":"bytes32","name":"role","type":"bytes32"},{"internalType":"uint256","name":"index","type":"uint256"}],"name":"getRoleMember","outputs":[{"internalType":"address","name":"","type":"address"}],"stateMutability":"view","type":"function"},{"inputs":[{"internalType":"bytes32","name":"role","type":"bytes32"}],"name":"getRoleMemberCount","outputs":[{"internalType":"uint256","name":"","type":"uint256"}],"stateMutability":"view","type":"function"},{"inputs":[{"internalType":"bytes32","name":"role","type":"bytes32"},{"internalType":"address","name":"account","type":"address"}],"name":"grantRole","outputs":[],"stateMutability":"nonpayable","type":"function"},{"inputs":[{"internalType":"bytes32","name":"role","type":"bytes32"},{"internalType":"address","name":"account","type":"address"}],"name":"hasRole","outputs":[{"internalType":"bool","name":"","type":"bool"}],"stateMutability":"view","type":"function"},{"inputs":[{"internalType":"string","name":"name","type":"string"},{"internalType":"string","name":"symbol","type":"string"},{"internalType":"string","name":"_baseURI","type":"string"}],"name":"initialize","outputs":[],"stateMutability":"nonpayable","type":"function"},{"inputs":[{"internalType":"address","name":"owner","type":"address"},{"internalType":"address","name":"operator","type":"address"}],"name":"isApprovedForAll","outputs":[{"internalType":"bool","name":"","type":"bool"}],"stateMutability":"view","type":"function"},{"inputs":[{"internalType":"string","name":"gen_sn_id","type":"string"}],"name":"isPostAvailable","outputs":[{"internalType":"bool","name":"","type":"bool"}],"stateMutability":"view","type":"function"},{"inputs":[{"internalType":"string","name":"sn_name","type":"string"},{"internalType":"string","name":"post_id","type":"string"},{"internalType":"string","name":"post_url","type":"string"},{"internalType":"address","name":"to","type":"address"}],"name":"mint","outputs":[{"internalType":"uint256","name":"","type":"uint256"}],"stateMutability":"nonpayable","type":"function"},{"inputs":[{"internalType":"string","name":"postId","type":"string"}],"name":"mintTwitterPost","outputs":[],"stateMutability":"payable","type":"function"},{"inputs":[],"name":"name","outputs":[{"internalType":"string","name":"","type":"string"}],"stateMutability":"view","type":"function"},{"inputs":[{"internalType":"uint256","name":"tokenId","type":"uint256"}],"name":"ownerOf","outputs":[{"internalType":"address","name":"","type":"address"}],"stateMutability":"view","type":"function"},{"inputs":[{"internalType":"bytes32","name":"role","type":"bytes32"},{"internalType":"address","name":"account","type":"address"}],"name":"renounceRole","outputs":[],"stateMutability":"nonpayable","type":"function"},{"inputs":[],"name":"retrieveFunds","outputs":[],"stateMutability":"nonpayable","type":"function"},{"inputs":[{"internalType":"bytes32","name":"role","type":"bytes32"},{"internalType":"address","name":"account","type":"address"}],"name":"revokeRole","outputs":[],"stateMutability":"nonpayable","type":"function"},{"inputs":[{"internalType":"address","name":"from","type":"address"},{"internalType":"address","name":"to","type":"address"},{"internalType":"uint256","name":"tokenId","type":"uint256"}],"name":"safeTransferFrom","outputs":[],"stateMutability":"nonpayable","type":"function"},{"inputs":[{"internalType":"address","name":"from","type":"address"},{"internalType":"address","name":"to","type":"address"},{"internalType":"uint256","name":"tokenId","type":"uint256"},{"internalType":"bytes","name":"_data","type":"bytes"}],"name":"safeTransferFrom","outputs":[],"stateMutability":"nonpayable","type":"function"},{"inputs":[{"internalType":"address","name":"operator","type":"address"},{"internalType":"bool","name":"approved","type":"bool"}],"name":"setApprovalForAll","outputs":[],"stateMutability":"nonpayable","type":"function"},{"inputs":[{"internalType":"string","name":"newBaseURI","type":"string"}],"name":"setBaseURI","outputs":[],"stateMutability":"nonpayable","type":"function"},{"inputs":[{"internalType":"bytes4","name":"interfaceId","type":"bytes4"}],"name":"supportsInterface","outputs":[{"internalType":"bool","name":"","type":"bool"}],"stateMutability":"view","type":"function"},{"inputs":[],"name":"symbol","outputs":[{"internalType":"string","name":"","type":"string"}],"stateMutability":"view","type":"function"},{"inputs":[{"internalType":"uint256","name":"index","type":"uint256"}],"name":"tokenByIndex","outputs":[{"internalType":"uint256","name":"","type":"uint256"}],"stateMutability":"view","type":"function"},{"inputs":[{"internalType":"address","name":"owner","type":"address"},{"internalType":"uint256","name":"index","type":"uint256"}],"name":"tokenOfOwnerByIndex","outputs":[{"internalType":"uint256","name":"","type":"uint256"}],"stateMutability":"view","type":"function"},{"inputs":[{"internalType":"uint256","name":"tokenId","type":"uint256"}],"name":"tokenURI","outputs":[{"internalType":"string","name":"","type":"string"}],"stateMutability":"view","type":"function"},{"inputs":[],"name":"totalSupply","outputs":[{"internalType":"uint256","name":"","type":"uint256"}],"stateMutability":"view","type":"function"},{"inputs":[{"internalType":"address","name":"from","type":"address"},{"internalType":"address","name":"to","type":"address"},{"internalType":"uint256","name":"tokenId","type":"uint256"}],"name":"transferFrom","outputs":[],"stateMutability":"nonpayable","type":"function"},{"inputs":[],"name":"twitterPostMinter","outputs":[{"internalType":"contract TwitterPostMinter","name":"","type":"address"}],"stateMutability":"view","type":"function"},{"inputs":[{"internalType":"address","name":"twitterPostMinterAddress","type":"address"}],"name":"updateTwitterPostMinterAddress","outputs":[],"stateMutability":"nonpayable","type":"function"}],"bytecode":"0x608060405234801561001057600080fd5b5061325a806100206000396000f3fe60806040526004361061021a5760003560e01c806370a0823111610123578063c87b56dd116100ab578063d547741f1161006f578063d547741f1461062d578063e9856dac1461064d578063e985e9c514610660578063f259df8d146106a9578063fde7d88e146106c957600080fd5b8063c87b56dd146105ad578063c90b43b3146105cd578063ca15c873146105ed578063d05ec9701461060d578063d5391393146104c157600080fd5b806395d89b41116100f257806395d89b4114610523578063a217fddf14610538578063a22cb4651461054d578063a6487c531461056d578063b88d4fde1461058d57600080fd5b806370a08231146104a157806375b238fc146104c15780639010d07c146104e357806391d148541461050357600080fd5b80632f745c59116101a657806355f804b31161017557806355f804b3146103ff57806361b20d8c1461041f5780636352211e146104345780636eb0ac4c146104545780637026427b1461048157600080fd5b80632f745c591461037f57806336568abe1461039f57806342842e0e146103bf5780634f6ccce7146103df57600080fd5b806318160ddd116101ed57806318160ddd146102d057806323b872dd146102ef578063248a9ca31461030f5780632aedc3f91461033f5780632f2ff15d1461035f57600080fd5b806301ffc9a71461021f57806306fdde0314610254578063081812fc14610276578063095ea7b3146102ae575b600080fd5b34801561022b57600080fd5b5061023f61023a366004612b23565b6106ea565b60405190151581526020015b60405180910390f35b34801561026057600080fd5b506102696106fb565b60405161024b9190612ea2565b34801561028257600080fd5b50610296610291366004612ac8565b61078d565b6040516001600160a01b03909116815260200161024b565b3480156102ba57600080fd5b506102ce6102c9366004612a9f565b610827565b005b3480156102dc57600080fd5b5060fd545b60405190815260200161024b565b3480156102fb57600080fd5b506102ce61030a3660046129b1565b61093d565b34801561031b57600080fd5b506102e161032a366004612ac8565b60009081526065602052604090206001015490565b34801561034b57600080fd5b506102e161035a366004612c12565b61096e565b34801561036b57600080fd5b506102ce61037a366004612ae0565b610b0e565b34801561038b57600080fd5b506102e161039a366004612a9f565b610b30565b3480156103ab57600080fd5b506102ce6103ba366004612ae0565b610bc6565b3480156103cb57600080fd5b506102ce6103da3660046129b1565b610be8565b3480156103eb57600080fd5b506102e16103fa366004612ac8565b610c03565b34801561040b57600080fd5b506102ce61041a366004612b5b565b610ca4565b34801561042b57600080fd5b506102ce610cd1565b34801561044057600080fd5b5061029661044f366004612ac8565b610d1a565b34801561046057600080fd5b5061047461046f366004612b5b565b610d91565b60405161024b919061302f565b34801561048d57600080fd5b506102ce61049c366004612b8e565b610df4565b3480156104ad57600080fd5b506102e16104bc366004612965565b610e8f565b3480156104cd57600080fd5b506102e160008051602061320583398151915281565b3480156104ef57600080fd5b506102966104fe366004612b02565b610f16565b34801561050f57600080fd5b5061023f61051e366004612ae0565b610f2e565b34801561052f57600080fd5b50610269610f59565b34801561054457600080fd5b506102e1600081565b34801561055957600080fd5b506102ce610568366004612a65565b610f68565b34801561057957600080fd5b506102ce610588366004612b8e565b61102d565b34801561059957600080fd5b506102ce6105a83660046129ec565b61108f565b3480156105b957600080fd5b506102696105c8366004612ac8565b6110c1565b3480156105d957600080fd5b5061023f6105e8366004612b5b565b611173565b3480156105f957600080fd5b506102e1610608366004612ac8565b6111bb565b34801561061957600080fd5b506102ce610628366004612965565b6111d2565b34801561063957600080fd5b506102ce610648366004612ae0565b611245565b6102ce61065b366004612b5b565b61124f565b34801561066c57600080fd5b5061023f61067b36600461297f565b6001600160a01b03918216600090815260ce6020908152604080832093909416825291909152205460ff1690565b3480156106b557600080fd5b506104746106c4366004612ac8565b6112c3565b3480156106d557600080fd5b5061016154610296906001600160a01b031681565b60006106f5826114fe565b92915050565b606060c9805461070a90613148565b80601f016020809104026020016040519081016040528092919081815260200182805461073690613148565b80156107835780601f1061075857610100808354040283529160200191610783565b820191906000526020600020905b81548152906001019060200180831161076657829003601f168201915b5050505050905090565b600081815260cb60205260408120546001600160a01b031661080b5760405162461bcd60e51b815260206004820152602c60248201527f4552433732313a20617070726f76656420717565727920666f72206e6f6e657860448201526b34b9ba32b73a103a37b5b2b760a11b60648201526084015b60405180910390fd5b50600090815260cd60205260409020546001600160a01b031690565b600061083282610d1a565b9050806001600160a01b0316836001600160a01b031614156108a05760405162461bcd60e51b815260206004820152602160248201527f4552433732313a20617070726f76616c20746f2063757272656e74206f776e656044820152603960f91b6064820152608401610802565b336001600160a01b03821614806108bc57506108bc813361067b565b61092e5760405162461bcd60e51b815260206004820152603860248201527f4552433732313a20617070726f76652063616c6c6572206973206e6f74206f7760448201527f6e6572206e6f7220617070726f76656420666f7220616c6c00000000000000006064820152608401610802565b6109388383611523565b505050565b6109473382611591565b6109635760405162461bcd60e51b815260040161080290612fde565b610938838383611684565b6000808585604051602001610984929190612d0b565b604051602081830303815290604052905061099e81611173565b1515600114610a055760405162461bcd60e51b815260206004820152602d60248201527f4f776e596f7572576f7264733a20546865736520776f7264732077657265206160448201526c1b1c9958591e481b5a5b9d1959609a1b6064820152608401610802565b6000610a108461182f565b6000818152610160602090815260409091208281556001810180546001600160a01b0319166001600160a01b0389161790558951929350610a59926002909101918a01906127e3565b506000818152610160602090815260409091208751610a80926003909201918901906127e3565b506000818152610160602090815260409091208651610aa7926004909201918801906127e3565b508061015f83604051610aba9190612cef565b9081526040519081900360200181209190915560019061015f90610adf908590612cef565b908152604051908190036020019020600101805491151560ff199092169190911790559150505b949350505050565b610b188282611883565b600082815260976020526040902061093890826118a9565b6000610b3b83610e8f565b8210610b9d5760405162461bcd60e51b815260206004820152602b60248201527f455243373231456e756d657261626c653a206f776e657220696e646578206f7560448201526a74206f6620626f756e647360a81b6064820152608401610802565b506001600160a01b0391909116600090815260fb60209081526040808320938352929052205490565b610bd082826118be565b60008281526097602052604090206109389082611938565b6109388383836040518060200160405280600081525061108f565b6000610c0e60fd5490565b8210610c715760405162461bcd60e51b815260206004820152602c60248201527f455243373231456e756d657261626c653a20676c6f62616c20696e646578206f60448201526b7574206f6620626f756e647360a01b6064820152608401610802565b60fd8281548110610c9257634e487b7160e01b600052603260045260246000fd5b90600052602060002001549050919050565b600080516020613205833981519152610cbd813361194d565b81516109389061012e9060208501906127e3565b600080516020613205833981519152610cea813361194d565b60405133904780156108fc02916000818181858888f19350505050158015610d16573d6000803e3d6000fd5b5050565b600081815260cb60205260408120546001600160a01b0316806106f55760405162461bcd60e51b815260206004820152602960248201527f4552433732313a206f776e657220717565727920666f72206e6f6e657869737460448201526832b73a103a37b5b2b760b91b6064820152608401610802565b610d99612867565b610da282611173565b15610dbf5760405162461bcd60e51b815260040161080290612ef5565b600061015f83604051610dd29190612cef565b908152604051908190036020019020549050610ded816112c3565b9392505050565b600054610100900460ff1680610e0d575060005460ff16155b610e295760405162461bcd60e51b815260040161080290612f90565b600054610100900460ff16158015610e4b576000805461ffff19166101011790555b610e7784848486604051602001610e63929190612d0b565b6040516020818303038152906040526119b1565b8015610e89576000805461ff00191690555b50505050565b60006001600160a01b038216610efa5760405162461bcd60e51b815260206004820152602a60248201527f4552433732313a2062616c616e636520717565727920666f7220746865207a65604482015269726f206164647265737360b01b6064820152608401610802565b506001600160a01b0316600090815260cc602052604090205490565b6000828152609760205260408120610ded9083611a6e565b60009182526065602090815260408084206001600160a01b0393909316845291905290205460ff1690565b606060ca805461070a90613148565b6001600160a01b038216331415610fc15760405162461bcd60e51b815260206004820152601960248201527f4552433732313a20617070726f766520746f2063616c6c6572000000000000006044820152606401610802565b33600081815260ce602090815260408083206001600160a01b03871680855290835292819020805460ff191686151590811790915590519081529192917f17307eab39ab6107e8899845ad3d59bd9653f200f220920489ca2b5937696c31910160405180910390a35050565b600054610100900460ff1680611046575060005460ff16155b6110625760405162461bcd60e51b815260040161080290612f90565b600054610100900460ff16158015611084576000805461ffff19166101011790555b610e778484846119b1565b6110993383611591565b6110b55760405162461bcd60e51b815260040161080290612fde565b610e8984848484611a7a565b600081815260cb60205260409020546060906001600160a01b03166111405760405162461bcd60e51b815260206004820152602f60248201527f4552433732314d657461646174613a2055524920717565727920666f72206e6f60448201526e3732bc34b9ba32b73a103a37b5b2b760891b6064820152608401610802565b61012e61114c83611aad565b60405160200161115d929190612d3a565b6040516020818303038152906040529050919050565b60008061015f836040516111879190612cef565b9081526040805191829003602090810183208383019092528154835260019091015460ff1615801591909201529392505050565b60008181526097602052604081206106f590611bc7565b6000805160206132058339815191526111eb813361194d565b6101615461121190600080516020613205833981519152906001600160a01b0316611245565b61016180546001600160a01b0319166001600160a01b038416179055610d1660008051602061320583398151915283610b0e565b610bd08282611bd1565b610161546001600160a01b031663744cc5413483336040516001600160e01b031960e086901b16815261128e9291903090632aedc3f990600401612eb5565b6000604051808303818588803b1580156112a757600080fd5b505af11580156112bb573d6000803e3d6000fd5b505050505050565b6112cb612867565b600082815260cb60205260409020546001600160a01b0316151515156001146113065760405162461bcd60e51b815260040161080290612ef5565b60008281526101606020908152604091829020825160a0810184528154815260018201546001600160a01b031692810192909252600281018054929391929184019161135190613148565b80601f016020809104026020016040519081016040528092919081815260200182805461137d90613148565b80156113ca5780601f1061139f576101008083540402835291602001916113ca565b820191906000526020600020905b8154815290600101906020018083116113ad57829003601f168201915b505050505081526020016003820180546113e390613148565b80601f016020809104026020016040519081016040528092919081815260200182805461140f90613148565b801561145c5780601f106114315761010080835404028352916020019161145c565b820191906000526020600020905b81548152906001019060200180831161143f57829003601f168201915b5050505050815260200160048201805461147590613148565b80601f01602080910402602001604051908101604052809291908181526020018280546114a190613148565b80156114ee5780601f106114c3576101008083540402835291602001916114ee565b820191906000526020600020905b8154815290600101906020018083116114d157829003601f168201915b5050505050815250509050919050565b60006001600160e01b0319821663780e9d6360e01b14806106f557506106f582611bf7565b600081815260cd6020526040902080546001600160a01b0319166001600160a01b038416908117909155819061155882610d1a565b6001600160a01b03167f8c5be1e5ebec7d5bd14f71427d1e84f3dd0314c0f7b2291e5b200ac8c7c3b92560405160405180910390a45050565b600081815260cb60205260408120546001600160a01b031661160a5760405162461bcd60e51b815260206004820152602c60248201527f4552433732313a206f70657261746f7220717565727920666f72206e6f6e657860448201526b34b9ba32b73a103a37b5b2b760a11b6064820152608401610802565b600061161583610d1a565b9050806001600160a01b0316846001600160a01b031614806116505750836001600160a01b03166116458461078d565b6001600160a01b0316145b80610b0657506001600160a01b03808216600090815260ce602090815260408083209388168352929052205460ff16610b06565b826001600160a01b031661169782610d1a565b6001600160a01b0316146116ff5760405162461bcd60e51b815260206004820152602960248201527f4552433732313a207472616e73666572206f6620746f6b656e2074686174206960448201526839903737ba1037bbb760b91b6064820152608401610802565b6001600160a01b0382166117615760405162461bcd60e51b8152602060048201526024808201527f4552433732313a207472616e7366657220746f20746865207a65726f206164646044820152637265737360e01b6064820152608401610802565b61176c838383611c37565b611777600082611523565b6001600160a01b038316600090815260cc602052604081208054600192906117a09084906130ee565b90915550506001600160a01b038216600090815260cc602052604081208054600192906117ce9084906130a3565b9091555050600081815260cb602052604080822080546001600160a01b0319166001600160a01b0386811691821790925591518493918716917fddf252ad1be2c89b69c2b068fc378daa952ba7f163c4a11628f55a4df523b3ef91a4505050565b600060008051602061320583398151915261184a813361194d565b600061185661012d5490565b905061186b8461186661012d5490565b611c42565b61187a61012d80546001019055565b91505b50919050565b60008281526065602052604090206001015461189f813361194d565b6109388383611d90565b6000610ded836001600160a01b038416611e16565b6001600160a01b038116331461192e5760405162461bcd60e51b815260206004820152602f60248201527f416363657373436f6e74726f6c3a2063616e206f6e6c792072656e6f756e636560448201526e103937b632b9903337b91039b2b63360891b6064820152608401610802565b610d168282611e65565b6000610ded836001600160a01b038416611ecc565b6119578282610f2e565b610d165761196f816001600160a01b03166014611fe9565b61197a836020611fe9565b60405160200161198b929190612df0565b60408051601f198184030181529082905262461bcd60e51b825261080291600401612ea2565b600054610100900460ff16806119ca575060005460ff16155b6119e65760405162461bcd60e51b815260040161080290612f90565b600054610100900460ff16158015611a08576000805461ffff19166101011790555b611a106121cb565b611a186121cb565b611a206121cb565b611a286121cb565b611a328484612237565b611a3a6121cb565b611a426122cc565b8151611a569061012e9060208501906127e3565b508015610e89576000805461ff001916905550505050565b6000610ded8383612376565b611a85848484611684565b611a91848484846123ae565b610e895760405162461bcd60e51b815260040161080290612f3e565b606081611ad15750506040805180820190915260018152600360fc1b602082015290565b8160005b8115611afb5780611ae58161317d565b9150611af49050600a836130bb565b9150611ad5565b60008167ffffffffffffffff811115611b2457634e487b7160e01b600052604160045260246000fd5b6040519080825280601f01601f191660200182016040528015611b4e576020820181803683370190505b5090505b8415610b0657611b636001836130ee565b9150611b70600a86613198565b611b7b9060306130a3565b60f81b818381518110611b9e57634e487b7160e01b600052603260045260246000fd5b60200101906001600160f81b031916908160001a905350611bc0600a866130bb565b9450611b52565b60006106f5825490565b600082815260656020526040902060010154611bed813361194d565b6109388383611e65565b60006001600160e01b031982166380ac58cd60e01b1480611c2857506001600160e01b03198216635b5e139f60e01b145b806106f557506106f5826124b8565b6109388383836124dd565b6001600160a01b038216611c985760405162461bcd60e51b815260206004820181905260248201527f4552433732313a206d696e7420746f20746865207a65726f20616464726573736044820152606401610802565b600081815260cb60205260409020546001600160a01b031615611cfd5760405162461bcd60e51b815260206004820152601c60248201527f4552433732313a20746f6b656e20616c7265616479206d696e746564000000006044820152606401610802565b611d0960008383611c37565b6001600160a01b038216600090815260cc60205260408120805460019290611d329084906130a3565b9091555050600081815260cb602052604080822080546001600160a01b0319166001600160a01b03861690811790915590518392907fddf252ad1be2c89b69c2b068fc378daa952ba7f163c4a11628f55a4df523b3ef908290a45050565b611d9a8282610f2e565b610d165760008281526065602090815260408083206001600160a01b03851684529091529020805460ff19166001179055611dd23390565b6001600160a01b0316816001600160a01b0316837f2f8788117e7eff1d82e926ec794901d17c78024a50270940304540a733656f0d60405160405180910390a45050565b6000818152600183016020526040812054611e5d575081546001818101845560008481526020808220909301849055845484825282860190935260409020919091556106f5565b5060006106f5565b611e6f8282610f2e565b15610d165760008281526065602090815260408083206001600160a01b0385168085529252808320805460ff1916905551339285917ff6391f5c32d9c69d2a47ea670b442974b53935d1edc7fd64eb21e047a839171b9190a45050565b60008181526001830160205260408120548015611fdf576000611ef06001836130ee565b8554909150600090611f04906001906130ee565b9050818114611f85576000866000018281548110611f3257634e487b7160e01b600052603260045260246000fd5b9060005260206000200154905080876000018481548110611f6357634e487b7160e01b600052603260045260246000fd5b6000918252602080832090910192909255918252600188019052604090208390555b8554869080611fa457634e487b7160e01b600052603160045260246000fd5b6001900381819060005260206000200160009055905585600101600086815260200190815260200160002060009055600193505050506106f5565b60009150506106f5565b60606000611ff88360026130cf565b6120039060026130a3565b67ffffffffffffffff81111561202957634e487b7160e01b600052604160045260246000fd5b6040519080825280601f01601f191660200182016040528015612053576020820181803683370190505b509050600360fc1b8160008151811061207c57634e487b7160e01b600052603260045260246000fd5b60200101906001600160f81b031916908160001a905350600f60fb1b816001815181106120b957634e487b7160e01b600052603260045260246000fd5b60200101906001600160f81b031916908160001a90535060006120dd8460026130cf565b6120e89060016130a3565b90505b600181111561217c576f181899199a1a9b1b9c1cb0b131b232b360811b85600f166010811061212a57634e487b7160e01b600052603260045260246000fd5b1a60f81b82828151811061214e57634e487b7160e01b600052603260045260246000fd5b60200101906001600160f81b031916908160001a90535060049490941c9361217581613131565b90506120eb565b508315610ded5760405162461bcd60e51b815260206004820181905260248201527f537472696e67733a20686578206c656e67746820696e73756666696369656e746044820152606401610802565b600054610100900460ff16806121e4575060005460ff16155b6122005760405162461bcd60e51b815260040161080290612f90565b600054610100900460ff16158015612222576000805461ffff19166101011790555b8015612234576000805461ff00191690555b50565b600054610100900460ff1680612250575060005460ff16155b61226c5760405162461bcd60e51b815260040161080290612f90565b600054610100900460ff1615801561228e576000805461ffff19166101011790555b82516122a19060c99060208601906127e3565b5081516122b59060ca9060208501906127e3565b508015610938576000805461ff0019169055505050565b600054610100900460ff16806122e5575060005460ff16155b6123015760405162461bcd60e51b815260040161080290612f90565b600054610100900460ff16158015612323576000805461ffff19166101011790555b61232e600033612595565b61234660008051602061320583398151915233612595565b61235e6000805160206132058339815191528061259f565b61222260008051602061320583398151915233612595565b600082600001828154811061239b57634e487b7160e01b600052603260045260246000fd5b9060005260206000200154905092915050565b60006001600160a01b0384163b156124b057604051630a85bd0160e11b81526001600160a01b0385169063150b7a02906123f2903390899088908890600401612e65565b602060405180830381600087803b15801561240c57600080fd5b505af192505050801561243c575060408051601f3d908101601f1916820190925261243991810190612b3f565b60015b612496573d80801561246a576040519150601f19603f3d011682016040523d82523d6000602084013e61246f565b606091505b50805161248e5760405162461bcd60e51b815260040161080290612f3e565b805181602001fd5b6001600160e01b031916630a85bd0160e11b149050610b06565b506001610b06565b60006001600160e01b03198216635a05180f60e01b14806106f557506106f5826125ea565b6001600160a01b038316612538576125338160fd8054600083815260fe60205260408120829055600182018355919091527f9346ac6dd7de6b96975fec380d4d994c4c12e6a8897544f22915316cc6cca2800155565b61255b565b816001600160a01b0316836001600160a01b03161461255b5761255b838261261f565b6001600160a01b03821661257257610938816126bc565b826001600160a01b0316826001600160a01b031614610938576109388282612795565b610b1882826127d9565b600082815260656020526040808220600101805490849055905190918391839186917fbd79b86ffe0ab8e8776151514217cd7cacd52c909f66475c3af44e129f0b00ff9190a4505050565b60006001600160e01b03198216637965db0b60e01b14806106f557506301ffc9a760e01b6001600160e01b03198316146106f5565b6000600161262c84610e8f565b61263691906130ee565b600083815260fc6020526040902054909150808214612689576001600160a01b038416600090815260fb60209081526040808320858452825280832054848452818420819055835260fc90915290208190555b50600091825260fc602090815260408084208490556001600160a01b03909416835260fb81528383209183525290812055565b60fd546000906126ce906001906130ee565b600083815260fe602052604081205460fd805493945090928490811061270457634e487b7160e01b600052603260045260246000fd5b906000526020600020015490508060fd838154811061273357634e487b7160e01b600052603260045260246000fd5b600091825260208083209091019290925582815260fe909152604080822084905585825281205560fd80548061277957634e487b7160e01b600052603160045260246000fd5b6001900381819060005260206000200160009055905550505050565b60006127a083610e8f565b6001600160a01b03909316600090815260fb60209081526040808320868452825280832085905593825260fc9052919091209190915550565b610d168282611d90565b8280546127ef90613148565b90600052602060002090601f0160209004810192826128115760008555612857565b82601f1061282a57805160ff1916838001178555612857565b82800160010185558215612857579182015b8281111561285757825182559160200191906001019061283c565b5061286392915061289f565b5090565b6040518060a001604052806000815260200160006001600160a01b031681526020016060815260200160608152602001606081525090565b5b8082111561286357600081556001016128a0565b600067ffffffffffffffff808411156128cf576128cf6131d8565b604051601f8501601f19908116603f011681019082821181831017156128f7576128f76131d8565b8160405280935085815286868601111561291057600080fd5b858560208301376000602087830101525050509392505050565b80356001600160a01b038116811461294157600080fd5b919050565b600082601f830112612956578081fd5b610ded838335602085016128b4565b600060208284031215612976578081fd5b610ded8261292a565b60008060408385031215612991578081fd5b61299a8361292a565b91506129a86020840161292a565b90509250929050565b6000806000606084860312156129c5578081fd5b6129ce8461292a565b92506129dc6020850161292a565b9150604084013590509250925092565b60008060008060808587031215612a01578081fd5b612a0a8561292a565b9350612a186020860161292a565b925060408501359150606085013567ffffffffffffffff811115612a3a578182fd5b8501601f81018713612a4a578182fd5b612a59878235602084016128b4565b91505092959194509250565b60008060408385031215612a77578182fd5b612a808361292a565b915060208301358015158114612a94578182fd5b809150509250929050565b60008060408385031215612ab1578182fd5b612aba8361292a565b946020939093013593505050565b600060208284031215612ad9578081fd5b5035919050565b60008060408385031215612af2578182fd5b823591506129a86020840161292a565b60008060408385031215612b14578182fd5b50508035926020909101359150565b600060208284031215612b34578081fd5b8135610ded816131ee565b600060208284031215612b50578081fd5b8151610ded816131ee565b600060208284031215612b6c578081fd5b813567ffffffffffffffff811115612b82578182fd5b610b0684828501612946565b600080600060608486031215612ba2578283fd5b833567ffffffffffffffff80821115612bb9578485fd5b612bc587838801612946565b94506020860135915080821115612bda578384fd5b612be687838801612946565b93506040860135915080821115612bfb578283fd5b50612c0886828701612946565b9150509250925092565b60008060008060808587031215612c27578182fd5b843567ffffffffffffffff80821115612c3e578384fd5b612c4a88838901612946565b95506020870135915080821115612c5f578384fd5b612c6b88838901612946565b94506040870135915080821115612c80578384fd5b50612c8d87828801612946565b925050612c9c6060860161292a565b905092959194509250565b60008151808452612cbf816020860160208601613105565b601f01601f19169290920160200192915050565b60008151612ce5818560208601613105565b9290920192915050565b60008251612d01818460208701613105565b9190910192915050565b60008351612d1d818460208801613105565b835190830190612d31818360208801613105565b01949350505050565b600080845482600182811c915080831680612d5657607f831692505b6020808410821415612d7657634e487b7160e01b87526022600452602487fd5b818015612d8a5760018114612d9b57612dc7565b60ff19861689528489019650612dc7565b60008b815260209020885b86811015612dbf5781548b820152908501908301612da6565b505084890196505b505050505050612de7612de182602f60f81b815260010190565b85612cd3565b95945050505050565b7f416363657373436f6e74726f6c3a206163636f756e7420000000000000000000815260008351612e28816017850160208801613105565b7001034b99036b4b9b9b4b733903937b6329607d1b6017918401918201528351612e59816028840160208801613105565b01602801949350505050565b6001600160a01b0385811682528416602082015260408101839052608060608201819052600090612e9890830184612ca7565b9695505050505050565b602081526000610ded6020830184612ca7565b606081526000612ec86060830187612ca7565b905060018060a01b038516602083015263ffffffff83168460201b1760401b604083015295945050505050565b60208082526029908201527f4f776e596f7572576f7264733a2054686520706f737420776173206e6f742079604082015268195d081b5a5b9d195960ba1b606082015260800190565b60208082526032908201527f4552433732313a207472616e7366657220746f206e6f6e20455243373231526560408201527131b2b4bb32b91034b6b83632b6b2b73a32b960711b606082015260800190565b6020808252602e908201527f496e697469616c697a61626c653a20636f6e747261637420697320616c72656160408201526d191e481a5b9a5d1a585b1a5e995960921b606082015260800190565b60208082526031908201527f4552433732313a207472616e736665722063616c6c6572206973206e6f74206f6040820152701ddb995c881b9bdc88185c1c1c9bdd9959607a1b606082015260800190565b602081528151602082015260018060a01b0360208301511660408201526000604083015160a0606084015261306760c0840182612ca7565b90506060840151601f19808584030160808601526130858383612ca7565b925060808601519150808584030160a086015250612de78282612ca7565b600082198211156130b6576130b66131ac565b500190565b6000826130ca576130ca6131c2565b500490565b60008160001904831182151516156130e9576130e96131ac565b500290565b600082821015613100576131006131ac565b500390565b60005b83811015613120578181015183820152602001613108565b83811115610e895750506000910152565b600081613140576131406131ac565b506000190190565b600181811c9082168061315c57607f821691505b6020821081141561187d57634e487b7160e01b600052602260045260246000fd5b6000600019821415613191576131916131ac565b5060010190565b6000826131a7576131a76131c2565b500690565b634e487b7160e01b600052601160045260246000fd5b634e487b7160e01b600052601260045260246000fd5b634e487b7160e01b600052604160045260246000fd5b6001600160e01b03198116811461223457600080fdfe9f2df0fed2c77648de5860a4cc508cd0818c85b8b8a1ab4ceeef8d981c8956a6a2646970667358221220f1f20e8c9e98176e8fa5bbe9f2f36966e4daec4caf72b6ef8640896fd2508e1164736f6c63430008040033","linkReferences":{},"deployedLinkReferences":{}}