{"_format":"hh-sol-artifact-1","contractName":"TwitterAuthOracle","sourceName":"contracts/oracles/TwitterAuthOracle.sol","abi":[{"inputs":[],"stateMutability":"nonpayable","type":"constructor"},{"anonymous":false,"inputs":[{"indexed":false,"internalType":"uint256","name":"requestId","type":"uint256"}],"name":"NewPendingRequest","type":"event"},{"anonymous":false,"inputs":[{"indexed":true,"internalType":"address","name":"previousOwner","type":"address"},{"indexed":true,"internalType":"address","name":"newOwner","type":"address"}],"name":"OwnershipTransferred","type":"event"},{"anonymous":false,"inputs":[{"indexed":false,"internalType":"uint256[]","name":"requestsIds","type":"uint256[]"},{"indexed":false,"internalType":"uint8","name":"count","type":"uint8"}],"name":"RetrievePendingRequestsFromQueue","type":"event"},{"inputs":[{"internalType":"uint256","name":"id","type":"uint256"},{"internalType":"string","name":"err","type":"string"}],"name":"failed","outputs":[],"stateMutability":"nonpayable","type":"function"},{"inputs":[],"name":"getMyRequests","outputs":[{"components":[{"internalType":"address","name":"owner","type":"address"},{"internalType":"uint256","name":"id","type":"uint256"},{"internalType":"string","name":"oauthToken","type":"string"},{"internalType":"string","name":"oauthVerifier","type":"string"},{"internalType":"uint8","name":"status","type":"uint8"},{"internalType":"string","name":"err","type":"string"}],"internalType":"struct TwitterAuthData.RequestSerialized[]","name":"","type":"tuple[]"}],"stateMutability":"view","type":"function"},{"inputs":[],"name":"getPendingRequestsIdsFromQueue","outputs":[{"internalType":"uint8","name":"count","type":"uint8"}],"stateMutability":"nonpayable","type":"function"},{"inputs":[{"internalType":"uint256","name":"id","type":"uint256"}],"name":"getRequestById","outputs":[{"components":[{"internalType":"address","name":"owner","type":"address"},{"internalType":"uint256","name":"id","type":"uint256"},{"internalType":"string","name":"oauthToken","type":"string"},{"internalType":"string","name":"oauthVerifier","type":"string"},{"internalType":"uint8","name":"status","type":"uint8"},{"internalType":"string","name":"err","type":"string"}],"internalType":"struct TwitterAuthData.RequestSerialized","name":"","type":"tuple"}],"stateMutability":"view","type":"function"},{"inputs":[],"name":"owner","outputs":[{"internalType":"address","name":"","type":"address"}],"stateMutability":"view","type":"function"},{"inputs":[],"name":"priceWEI","outputs":[{"internalType":"uint256","name":"","type":"uint256"}],"stateMutability":"view","type":"function"},{"inputs":[],"name":"renounceOwnership","outputs":[],"stateMutability":"nonpayable","type":"function"},{"inputs":[{"internalType":"string","name":"oauthToken","type":"string"},{"internalType":"string","name":"oauthVerifier","type":"string"},{"internalType":"address","name":"owner","type":"address"},{"internalType":"function (struct TwitterAuthData.Response) external","name":"successCallback","type":"function"},{"internalType":"function (uint256,string) external","name":"failureCallback","type":"function"}],"name":"request","outputs":[{"internalType":"uint256","name":"","type":"uint256"}],"stateMutability":"payable","type":"function"},{"inputs":[],"name":"retrieveFunds","outputs":[],"stateMutability":"nonpayable","type":"function"},{"inputs":[{"internalType":"uint256","name":"_priceWEI","type":"uint256"}],"name":"setPriceETH","outputs":[],"stateMutability":"nonpayable","type":"function"},{"inputs":[{"internalType":"uint256","name":"id","type":"uint256"}],"name":"startProcessing","outputs":[],"stateMutability":"nonpayable","type":"function"},{"inputs":[{"internalType":"uint256","name":"id","type":"uint256"},{"internalType":"string","name":"screenName","type":"string"},{"internalType":"string","name":"userId","type":"string"}],"name":"succeeded","outputs":[],"stateMutability":"nonpayable","type":"function"},{"inputs":[{"internalType":"address","name":"newOwner","type":"address"}],"name":"transferOwnership","outputs":[],"stateMutability":"nonpayable","type":"function"}],"bytecode":"0x60806040523480156200001157600080fd5b506200001d3362000048565b66b1a2bc2ec5000060015562000042600560c862000098602090811b6200138b17901c565b620000d6565b600080546001600160a01b038381166001600160a01b0319831681178455604051919092169283917f8be0079c531659141344cd1fd0a4f28419497f9722a3daafe3b4186f6b6457e09190a35050565b60018201805463ffffffff1916630100000060ff8416021790555b815460ff82161115620000d257815460010182556000829052620000b3565b5050565b611eda80620000e66000396000f3fe6080604052600436106100c25760003560e01c806391eace8b1161007f578063c1500a5711610059578063c1500a57146101f3578063cb2859b11461021a578063f176ea121461023b578063f2fde38b1461025157600080fd5b806391eace8b14610191578063954db88e146101b357806399a752d7146101d357600080fd5b806317a8791d146100c757806326757b73146100e957806329fa50f91461011f57806361b20d8c1461013f578063715018a6146101545780638da5cb5b14610169575b600080fd5b3480156100d357600080fd5b506100e76100e2366004611a2f565b610271565b005b3480156100f557600080fd5b50610109610104366004611a2f565b610437565b6040516101169190611d0b565b60405180910390f35b34801561012b57600080fd5b506100e761013a366004611a47565b6104b2565b34801561014b57600080fd5b506100e76106b6565b34801561016057600080fd5b506100e761070f565b34801561017557600080fd5b506000546040516001600160a01b039091168152602001610116565b34801561019d57600080fd5b506101a6610745565b6040516101169190611bbb565b3480156101bf57600080fd5b506100e76101ce366004611a8c565b610996565b3480156101df57600080fd5b506100e76101ee366004611a2f565b610bcb565b3480156101ff57600080fd5b50610208610bfa565b60405160ff9091168152602001610116565b61022d61022836600461196e565b610fcf565b604051908152602001610116565b34801561024757600080fd5b5061022d60015481565b34801561025d57600080fd5b506100e761026c36600461194d565b6112f3565b6000546001600160a01b031633146102a45760405162461bcd60e51b815260040161029b90611c6a565b60405180910390fd5b600081815260026020526040902060050154600160c01b900460ff166001146103415760405162461bcd60e51b815260206004820152604360248201527f5265717565737420776974682070726f7669646564206964206973206e6f742060448201527f696e2070656e64696e672073746174652c206f7220646f6573206e6f742065786064820152621a5cdd60ea1b608482015260a40161029b565b600081815260026020908152604080832060058101805460ff60c01b1916600160c11b179055546001600160a01b0316835260039091529020610383826113c7565b8154600180820184556000938452602093849020835160069093020180546001600160a01b0319166001600160a01b03909316929092178255828401519082015560408201518051929391926103df92600285019201906117d4565b50606082015180516103fb9160038401916020909101906117d4565b50608082015160048201805460ff191660ff90921691909117905560a082015180516104319160058401916020909101906117d4565b50505050565b61043f611858565b6000546001600160a01b031633146104695760405162461bcd60e51b815260040161029b90611c6a565b600082815260026020526040902060050154600160c01b900460ff166104a15760405162461bcd60e51b815260040161029b90611c9f565b6104aa826113c7565b90505b919050565b6000546001600160a01b031633146104dc5760405162461bcd60e51b815260040161029b90611c6a565b600082815260026020819052604090912060050154600160c01b900460ff16146105185760405162461bcd60e51b815260040161029b90611c9f565b600082815260026020908152604090912060058101805460ff60c01b1916600160c21b1790558251610552926006909201918401906117d4565b5060008281526002602090815260409182902060050154915160e083901b6001600160e01b03191681529082901c6001600160a01b03169163ffffffff16906105a19085908590600401611d83565b600060405180830381600087803b1580156105bb57600080fd5b505af11580156105cf573d6000803e3d6000fd5b5050506000838152600260209081526040808320546001600160a01b03168352600390915290209050610601836113c7565b8154600180820184556000938452602093849020835160069093020180546001600160a01b0319166001600160a01b039093169290921782558284015190820155604082015180519293919261065d92600285019201906117d4565b50606082015180516106799160038401916020909101906117d4565b50608082015160048201805460ff191660ff90921691909117905560a082015180516106af9160058401916020909101906117d4565b5050505050565b6000546001600160a01b031633146106e05760405162461bcd60e51b815260040161029b90611c6a565b60405133904780156108fc02916000818181858888f1935050505015801561070c573d6000803e3d6000fd5b50565b6000546001600160a01b031633146107395760405162461bcd60e51b815260040161029b90611c6a565b61074360006115f3565b565b336000908152600360209081526040808320805482518185028101850190935280835260609492939192909184015b8282101561098d5760008481526020908190206040805160c0810182526006860290920180546001600160a01b03168352600181015493830193909352600283018054929392918401916107c790611de6565b80601f01602080910402602001604051908101604052809291908181526020018280546107f390611de6565b80156108405780601f1061081557610100808354040283529160200191610840565b820191906000526020600020905b81548152906001019060200180831161082357829003601f168201915b5050505050815260200160038201805461085990611de6565b80601f016020809104026020016040519081016040528092919081815260200182805461088590611de6565b80156108d25780601f106108a7576101008083540402835291602001916108d2565b820191906000526020600020905b8154815290600101906020018083116108b557829003601f168201915b5050509183525050600482015460ff1660208201526005820180546040909201916108fc90611de6565b80601f016020809104026020016040519081016040528092919081815260200182805461092890611de6565b80156109755780601f1061094a57610100808354040283529160200191610975565b820191906000526020600020905b81548152906001019060200180831161095857829003601f168201915b50505050508152505081526020019060010190610774565b50505050905090565b6000546001600160a01b031633146109c05760405162461bcd60e51b815260040161029b90611c6a565b600083815260026020819052604090912060050154600160c01b900460ff16146109fc5760405162461bcd60e51b815260040161029b90611c9f565b610a30604051806080016040528060008152602001606081526020016060815260200160006001600160a01b031681525090565b838152602080820184905260408083018490526000868152600280845282822080546001600160a01b0390811660608801529289905290845260058101805460ff60c01b1916600360c01b179055600490810154925160e084901b6001600160e01b03191681529383901c9091169263ffffffff90921691610ab491859101611d1e565b600060405180830381600087803b158015610ace57600080fd5b505af1158015610ae2573d6000803e3d6000fd5b5050506000858152600260209081526040808320546001600160a01b03168352600390915290209050610b14856113c7565b8154600180820184556000938452602093849020835160069093020180546001600160a01b0319166001600160a01b0390931692909217825582840151908201556040820151805192939192610b7092600285019201906117d4565b5060608201518051610b8c9160038401916020909101906117d4565b50608082015160048201805460ff191660ff90921691909117905560a08201518051610bc29160058401916020909101906117d4565b50505050505050565b6000546001600160a01b03163314610bf55760405162461bcd60e51b815260040161029b90611c6a565b600155565b600080546001600160a01b03163314610c255760405162461bcd60e51b815260040161029b90611c6a565b600080610c326005611643565b91509150610c7c604080516101008101825260008082526020820181905260609282018390528282018390526080820181905260a0820181905260c082015260e081019190915290565b6006546000906301000000900460ff1667ffffffffffffffff811115610cb257634e487b7160e01b600052604160045260246000fd5b604051908082528060200260200182016040528015610cdb578160200160208202803683370190505b50905060005b8315610f8d5760008581526002602081815260409283902083516101008101855281546001600160a01b0316815260018201549281019290925291820180549193840191610d2e90611de6565b80601f0160208091040260200160405190810160405280929190818152602001828054610d5a90611de6565b8015610da75780601f10610d7c57610100808354040283529160200191610da7565b820191906000526020600020905b815481529060010190602001808311610d8a57829003601f168201915b50505050508152602001600382018054610dc090611de6565b80601f0160208091040260200160405190810160405280929190818152602001828054610dec90611de6565b8015610e395780601f10610e0e57610100808354040283529160200191610e39565b820191906000526020600020905b815481529060010190602001808311610e1c57829003601f168201915b5050509183525050600482015463ffffffff808216640100000000600160c01b0392831617604090811b6020850152600585015491821692821692909217821b91830191909152600160c01b900460ff166060820152600682018054608090920191610ea490611de6565b80601f0160208091040260200160405190810160405280929190818152602001828054610ed090611de6565b8015610f1d5780601f10610ef257610100808354040283529160200191610f1d565b820191906000526020600020905b815481529060010190602001808311610f0057829003601f168201915b50505050508152505092508260c0015160ff1660011415610f79578260200151828260ff1681518110610f6057634e487b7160e01b600052603260045260246000fd5b602090810291909101015280610f7581611e21565b9150505b610f836005611643565b9095509350610ce1565b7f66cb254fb886e0d489510b04c89acde5be432fc7247b241872ad1fc23b55f4c18282604051610fbe929190611c1c565b60405180910390a194505050505090565b600060015434146110325760405162461bcd60e51b815260206004820152602760248201527f506c656173652073656e6420656e6f756768742045544820666f7220746865206044820152661c995c5d595cdd60ca1b606482015260840161029b565b604080516101008101825260008082526020820181905260609282018390528282018390526080820181905260a0820181905260c082015260e0810191909152600061107d60045490565b905061108d600480546001019055565b60208281018281526001600160a01b038a8116855260408086018e8152606087018e905263ffffffff8b81168d871b17831b608089015289168a861b17821b60a0880152600160c0880181905260008781526002808852939020885181546001600160a01b0319169516949094178455935193830193909355915180518694929361111d939085019201906117d4565b50606082015180516111399160038401916020909101906117d4565b5060808201516004820180546001600160c01b03191663ffffffff604093841c818116640100000000600160c01b03918216179290921790925560a085015160058501805460c08801519290951c93841693909216929092176001600160c81b031990931692909217600160c01b60ff9092169190910217905560e082015180516111ce9160068401916020909101906117d4565b505082516001600160a01b0316600090815260036020526040902090506111f4826113c7565b8154600180820184556000938452602093849020835160069093020180546001600160a01b0319166001600160a01b039093169290921782558284015190820155604082015180519293919261125092600285019201906117d4565b506060820151805161126c9160038401916020909101906117d4565b50608082015160048201805460ff191660ff90921691909117905560a082015180516112a29160058401916020909101906117d4565b506112b291506005905082611704565b506040518181527f1d5ba61d36a1cd5c3cd949b43386ae4e8c065fe019d3d727fdcf69249cde75be9060200160405180910390a19998505050505050505050565b6000546001600160a01b0316331461131d5760405162461bcd60e51b815260040161029b90611c6a565b6001600160a01b0381166113825760405162461bcd60e51b815260206004820152602660248201527f4f776e61626c653a206e6577206f776e657220697320746865207a65726f206160448201526564647265737360d01b606482015260840161029b565b61070c816115f3565b60018201805463ffffffff1916630100000060ff8416021790555b815460ff821611156113c3578154600101825560008290526113a6565b5050565b6113cf611858565b6113d7611858565b6000838152600260208181526040832060018101548583015280546001600160a01b031685529286905281905201805461141090611de6565b80601f016020809104026020016040519081016040528092919081815260200182805461143c90611de6565b80156114895780601f1061145e57610100808354040283529160200191611489565b820191906000526020600020905b81548152906001019060200180831161146c57829003601f168201915b5050505060408084019290925250600084815260026020522060030180546114b090611de6565b80601f01602080910402602001604051908101604052809291908181526020018280546114dc90611de6565b80156115295780601f106114fe57610100808354040283529160200191611529565b820191906000526020600020905b81548152906001019060200180831161150c57829003601f168201915b50505050506060820152600083815260026020818152604083206005810154600160c01b900460ff1660808601529286905252600601805461156a90611de6565b80601f016020809104026020016040519081016040528092919081815260200182805461159690611de6565b80156115e35780601f106115b8576101008083540402835291602001916115e3565b820191906000526020600020905b8154815290600101906020018083116115c657829003601f168201915b505050505060a082015292915050565b600080546001600160a01b038381166001600160a01b0319831681178455604051919092169283917f8be0079c531659141344cd1fd0a4f28419497f9722a3daafe3b4186f6b6457e09190a35050565b6001810154600090819062010000900460ff16156116ff5760018301548354849160ff1690811061168457634e487b7160e01b600052603260045260246000fd5b600091825260209091200154835460018086015492945090916116ac9160ff90911690611da4565b60ff166116b99190611e41565b60018401805460ff191660ff928316178082556201000090049091169060026116e183611dc9565b91906101000a81548160ff021916908360ff16021790555050600190505b915091565b815460018301546000916201000090910460ff1610156117ce57600183015483548391859161010090910460ff1690811061174f57634e487b7160e01b600052603260045260246000fd5b60009182526020909120015582546001808501546117769161010090910460ff1690611da4565b60ff166117839190611e41565b60018401805461ff00191661010060ff93841602178082556201000090049091169060026117b083611e21565b91906101000a81548160ff021916908360ff16021790555050600190505b92915050565b8280546117e090611de6565b90600052602060002090601f0160209004810192826118025760008555611848565b82601f1061181b57805160ff1916838001178555611848565b82800160010185558215611848579182015b8281111561184857825182559160200191906001019061182d565b5061185492915061189a565b5090565b6040518060c0016040528060006001600160a01b03168152602001600081526020016060815260200160608152602001600060ff168152602001606081525090565b5b80821115611854576000815560010161189b565b80356001600160a01b03811681146104ad57600080fd5b600082601f8301126118d6578081fd5b813567ffffffffffffffff808211156118f1576118f1611e77565b604051601f8301601f19908116603f0116810190828211818310171561191957611919611e77565b81604052838152866020858801011115611931578485fd5b8360208701602083013792830160200193909352509392505050565b60006020828403121561195e578081fd5b611967826118af565b9392505050565b600080600080600080600060a0888a031215611988578283fd5b873567ffffffffffffffff8082111561199f578485fd5b6119ab8b838c016118c6565b985060208a01359150808211156119c0578485fd5b506119cd8a828b016118c6565b9650506119dc604089016118af565b945060608801356119ec81611e8d565b606081901c945060401c63ffffffff1692506080880135611a0c81611e8d565b606081901c63ffffffff604083901c16989b979a50959850939692959293505050565b600060208284031215611a40578081fd5b5035919050565b60008060408385031215611a59578182fd5b82359150602083013567ffffffffffffffff811115611a76578182fd5b611a82858286016118c6565b9150509250929050565b600080600060608486031215611aa0578283fd5b83359250602084013567ffffffffffffffff80821115611abe578384fd5b611aca878388016118c6565b93506040860135915080821115611adf578283fd5b50611aec868287016118c6565b9150509250925092565b60008151808452815b81811015611b1b57602081850181015186830182015201611aff565b81811115611b2c5782602083870101525b50601f01601f19169290920160200192915050565b60018060a01b038151168252602081015160208301526000604082015160c06040850152611b7260c0850182611af6565b905060608301518482036060860152611b8b8282611af6565b91505060ff608084015116608085015260a083015184820360a0860152611bb28282611af6565b95945050505050565b6000602080830181845280855180835260408601915060408160051b8701019250838701855b82811015611c0f57603f19888603018452611bfd858351611b41565b94509285019290850190600101611be1565b5092979650505050505050565b604080825283519082018190526000906020906060840190828701845b82811015611c5557815184529284019290840190600101611c39565b50505060ff9490941692019190915250919050565b6020808252818101527f4f776e61626c653a2063616c6c6572206973206e6f7420746865206f776e6572604082015260600190565b60208082526046908201527f5265717565737420776974682070726f7669646564206964206973206e6f742060408201527f696e2070726f63657373696e672073746174652c206f7220646f6573206e6f7460608201526508195e1a5cdd60d21b608082015260a00190565b6020815260006119676020830184611b41565b60208152815160208201526000602083015160806040840152611d4460a0840182611af6565b90506040840151601f19848303016060850152611d618282611af6565b606095909501516001600160a01b031660809490940193909352509192915050565b828152604060208201526000611d9c6040830184611af6565b949350505050565b600060ff821660ff84168060ff03821115611dc157611dc1611e61565b019392505050565b600060ff821680611ddc57611ddc611e61565b6000190192915050565b600181811c90821680611dfa57607f821691505b60208210811415611e1b57634e487b7160e01b600052602260045260246000fd5b50919050565b600060ff821660ff811415611e3857611e38611e61565b60010192915050565b600082611e5c57634e487b7160e01b81526012600452602481fd5b500690565b634e487b7160e01b600052601160045260246000fd5b634e487b7160e01b600052604160045260246000fd5b67ffffffffffffffff198116811461070c57600080fdfea2646970667358221220529e4e51b21a7d51ef31a809769be4dc13bc0c80e7ef98ca3d0155ddb9e32ee064736f6c63430008040033","linkReferences":{},"deployedLinkReferences":{}}