{"_format":"hh-sol-artifact-1","contractName":"TwitterAuthOracle","sourceName":"contracts/oracles/TwitterAuthOracle.sol","abi":[{"inputs":[],"stateMutability":"nonpayable","type":"constructor"},{"anonymous":false,"inputs":[{"indexed":false,"internalType":"uint256","name":"requestId","type":"uint256"}],"name":"NewPendingRequest","type":"event"},{"anonymous":false,"inputs":[{"indexed":true,"internalType":"address","name":"previousOwner","type":"address"},{"indexed":true,"internalType":"address","name":"newOwner","type":"address"}],"name":"OwnershipTransferred","type":"event"},{"anonymous":false,"inputs":[{"indexed":false,"internalType":"uint256[]","name":"requestsIds","type":"uint256[]"},{"indexed":false,"internalType":"uint8","name":"count","type":"uint8"}],"name":"RetrievePendingRequestsFromQueue","type":"event"},{"inputs":[{"internalType":"uint256","name":"id","type":"uint256"},{"internalType":"string","name":"err","type":"string"}],"name":"failed","outputs":[],"stateMutability":"nonpayable","type":"function"},{"inputs":[],"name":"getPendingRequestsIdsFromQueue","outputs":[{"internalType":"uint8","name":"count","type":"uint8"}],"stateMutability":"nonpayable","type":"function"},{"inputs":[{"internalType":"uint256","name":"id","type":"uint256"}],"name":"getRequestById","outputs":[{"components":[{"internalType":"address","name":"owner","type":"address"},{"internalType":"uint256","name":"id","type":"uint256"},{"internalType":"string","name":"oauthToken","type":"string"},{"internalType":"string","name":"oauthVerifier","type":"string"},{"internalType":"uint8","name":"status","type":"uint8"},{"internalType":"string","name":"err","type":"string"}],"internalType":"struct TwitterAuthData.RequestSerialized","name":"","type":"tuple"}],"stateMutability":"view","type":"function"},{"inputs":[{"internalType":"address","name":"owner","type":"address"}],"name":"getRequestsForAddress","outputs":[{"components":[{"internalType":"address","name":"owner","type":"address"},{"internalType":"uint256","name":"id","type":"uint256"},{"internalType":"string","name":"oauthToken","type":"string"},{"internalType":"string","name":"oauthVerifier","type":"string"},{"internalType":"uint8","name":"status","type":"uint8"},{"internalType":"string","name":"err","type":"string"}],"internalType":"struct TwitterAuthData.RequestSerialized[]","name":"","type":"tuple[]"}],"stateMutability":"view","type":"function"},{"inputs":[],"name":"owner","outputs":[{"internalType":"address","name":"","type":"address"}],"stateMutability":"view","type":"function"},{"inputs":[],"name":"priceWEI","outputs":[{"internalType":"uint256","name":"","type":"uint256"}],"stateMutability":"view","type":"function"},{"inputs":[],"name":"renounceOwnership","outputs":[],"stateMutability":"nonpayable","type":"function"},{"inputs":[{"internalType":"string","name":"oauthToken","type":"string"},{"internalType":"string","name":"oauthVerifier","type":"string"},{"internalType":"address","name":"owner","type":"address"},{"internalType":"function (struct TwitterAuthData.Response) external","name":"successCallback","type":"function"},{"internalType":"function (uint256,string) external","name":"failureCallback","type":"function"}],"name":"request","outputs":[{"internalType":"uint256","name":"","type":"uint256"}],"stateMutability":"payable","type":"function"},{"inputs":[],"name":"retrieveFunds","outputs":[],"stateMutability":"nonpayable","type":"function"},{"inputs":[{"internalType":"uint256","name":"_priceWEI","type":"uint256"}],"name":"setPriceETH","outputs":[],"stateMutability":"nonpayable","type":"function"},{"inputs":[{"internalType":"uint256","name":"id","type":"uint256"}],"name":"startProcessing","outputs":[],"stateMutability":"nonpayable","type":"function"},{"inputs":[{"internalType":"uint256","name":"id","type":"uint256"},{"internalType":"string","name":"screenName","type":"string"},{"internalType":"string","name":"userId","type":"string"}],"name":"succeeded","outputs":[],"stateMutability":"nonpayable","type":"function"},{"inputs":[{"internalType":"address","name":"newOwner","type":"address"}],"name":"transferOwnership","outputs":[],"stateMutability":"nonpayable","type":"function"}],"bytecode":"0x60806040523480156200001157600080fd5b506200001d3362000048565b66b1a2bc2ec5000060015562000042600560c862000098602090811b6200111117901c565b620000d6565b600080546001600160a01b038381166001600160a01b0319831681178455604051919092169283917f8be0079c531659141344cd1fd0a4f28419497f9722a3daafe3b4186f6b6457e09190a35050565b60018201805463ffffffff1916630100000060ff8416021790555b815460ff82161115620000d257815460010182556000829052620000b3565b5050565b611c6080620000e66000396000f3fe6080604052600436106100c25760003560e01c8063954db88e1161007f578063cb2859b111610059578063cb2859b1146101f8578063dcec3ec814610219578063f176ea1214610246578063f2fde38b1461025c57600080fd5b8063954db88e1461019157806399a752d7146101b1578063c1500a57146101d157600080fd5b806317a8791d146100c757806326757b73146100e957806329fa50f91461011f57806361b20d8c1461013f578063715018a6146101545780638da5cb5b14610169575b600080fd5b3480156100d357600080fd5b506100e76100e23660046117b5565b61027c565b005b3480156100f557600080fd5b506101096101043660046117b5565b610370565b6040516101169190611a91565b60405180910390f35b34801561012b57600080fd5b506100e761013a3660046117cd565b6103eb565b34801561014b57600080fd5b506100e7610510565b34801561016057600080fd5b506100e7610569565b34801561017557600080fd5b506000546040516001600160a01b039091168152602001610116565b34801561019d57600080fd5b506100e76101ac366004611812565b61059f565b3480156101bd57600080fd5b506100e76101cc3660046117b5565b6106f5565b3480156101dd57600080fd5b506101e6610724565b60405160ff9091168152602001610116565b61020b6102063660046116f4565b610af9565b604051908152602001610116565b34801561022557600080fd5b506102396102343660046116d3565b610e1d565b6040516101169190611941565b34801561025257600080fd5b5061020b60015481565b34801561026857600080fd5b506100e76102773660046116d3565b611079565b6000546001600160a01b031633146102af5760405162461bcd60e51b81526004016102a6906119f0565b60405180910390fd5b600081815260026020526040902060050154600160c01b900460ff1660011461034c5760405162461bcd60e51b815260206004820152604360248201527f5265717565737420776974682070726f7669646564206964206973206e6f742060448201527f696e2070656e64696e672073746174652c206f7220646f6573206e6f742065786064820152621a5cdd60ea1b608482015260a4016102a6565b6000908152600260205260409020600501805460ff60c01b1916600160c11b179055565b61037861155a565b6000546001600160a01b031633146103a25760405162461bcd60e51b81526004016102a6906119f0565b600082815260026020526040902060050154600160c01b900460ff166103da5760405162461bcd60e51b81526004016102a690611a25565b6103e38261114d565b90505b919050565b6000546001600160a01b031633146104155760405162461bcd60e51b81526004016102a6906119f0565b600082815260026020819052604090912060050154600160c01b900460ff16146104515760405162461bcd60e51b81526004016102a690611a25565b600082815260026020908152604090912060058101805460ff60c01b1916600160c21b179055825161048b9260069092019184019061159c565b5060008281526002602090815260409182902060050154915160e083901b6001600160e01b03191681529082901c6001600160a01b03169163ffffffff16906104da9085908590600401611b09565b600060405180830381600087803b1580156104f457600080fd5b505af1158015610508573d6000803e3d6000fd5b505050505050565b6000546001600160a01b0316331461053a5760405162461bcd60e51b81526004016102a6906119f0565b60405133904780156108fc02916000818181858888f19350505050158015610566573d6000803e3d6000fd5b50565b6000546001600160a01b031633146105935760405162461bcd60e51b81526004016102a6906119f0565b61059d6000611379565b565b6000546001600160a01b031633146105c95760405162461bcd60e51b81526004016102a6906119f0565b600083815260026020819052604090912060050154600160c01b900460ff16146106055760405162461bcd60e51b81526004016102a690611a25565b610639604051806080016040528060008152602001606081526020016060815260200160006001600160a01b031681525090565b838152602080820184905260408083018490526000868152600280845282822080546001600160a01b0390811660608801529289905290845260058101805460ff60c01b1916600360c01b179055600490810154925160e084901b6001600160e01b03191681529383901c9091169263ffffffff909216916106bd91859101611aa4565b600060405180830381600087803b1580156106d757600080fd5b505af11580156106eb573d6000803e3d6000fd5b5050505050505050565b6000546001600160a01b0316331461071f5760405162461bcd60e51b81526004016102a6906119f0565b600155565b600080546001600160a01b0316331461074f5760405162461bcd60e51b81526004016102a6906119f0565b60008061075c60056113c9565b915091506107a6604080516101008101825260008082526020820181905260609282018390528282018390526080820181905260a0820181905260c082015260e081019190915290565b6006546000906301000000900460ff1667ffffffffffffffff8111156107dc57634e487b7160e01b600052604160045260246000fd5b604051908082528060200260200182016040528015610805578160200160208202803683370190505b50905060005b8315610ab75760008581526002602081815260409283902083516101008101855281546001600160a01b031681526001820154928101929092529182018054919384019161085890611b6c565b80601f016020809104026020016040519081016040528092919081815260200182805461088490611b6c565b80156108d15780601f106108a6576101008083540402835291602001916108d1565b820191906000526020600020905b8154815290600101906020018083116108b457829003601f168201915b505050505081526020016003820180546108ea90611b6c565b80601f016020809104026020016040519081016040528092919081815260200182805461091690611b6c565b80156109635780601f1061093857610100808354040283529160200191610963565b820191906000526020600020905b81548152906001019060200180831161094657829003601f168201915b5050509183525050600482015463ffffffff808216640100000000600160c01b0392831617604090811b6020850152600585015491821692821692909217821b91830191909152600160c01b900460ff1660608201526006820180546080909201916109ce90611b6c565b80601f01602080910402602001604051908101604052809291908181526020018280546109fa90611b6c565b8015610a475780601f10610a1c57610100808354040283529160200191610a47565b820191906000526020600020905b815481529060010190602001808311610a2a57829003601f168201915b50505050508152505092508260c0015160ff1660011415610aa3578260200151828260ff1681518110610a8a57634e487b7160e01b600052603260045260246000fd5b602090810291909101015280610a9f81611ba7565b9150505b610aad60056113c9565b909550935061080b565b7f66cb254fb886e0d489510b04c89acde5be432fc7247b241872ad1fc23b55f4c18282604051610ae89291906119a2565b60405180910390a194505050505090565b60006001543414610b5c5760405162461bcd60e51b815260206004820152602760248201527f506c656173652073656e6420656e6f756768742045544820666f7220746865206044820152661c995c5d595cdd60ca1b60648201526084016102a6565b604080516101008101825260008082526020820181905260609282018390528282018390526080820181905260a0820181905260c082015260e08101919091526000610ba760045490565b9050610bb7600480546001019055565b60208281018281526001600160a01b038a8116855260408086018e8152606087018e905263ffffffff8b81168d871b17831b608089015289168a861b17821b60a0880152600160c0880181905260008781526002808852939020885181546001600160a01b03191695169490941784559351938301939093559151805186949293610c479390850192019061159c565b5060608201518051610c6391600384019160209091019061159c565b5060808201516004820180546001600160c01b03191663ffffffff604093841c818116640100000000600160c01b03918216179290921790925560a085015160058501805460c08801519290951c93841693909216929092176001600160c81b031990931692909217600160c01b60ff9092169190910217905560e08201518051610cf891600684019160209091019061159c565b505082516001600160a01b031660009081526003602052604090209050610d1e8261114d565b8154600180820184556000938452602093849020835160069093020180546001600160a01b0319166001600160a01b0390931692909217825582840151908201556040820151805192939192610d7a926002850192019061159c565b5060608201518051610d9691600384019160209091019061159c565b50608082015160048201805460ff191660ff90921691909117905560a08201518051610dcc91600584019160209091019061159c565b50610ddc9150600590508261148a565b506040518181527f1d5ba61d36a1cd5c3cd949b43386ae4e8c065fe019d3d727fdcf69249cde75be9060200160405180910390a19998505050505050505050565b6001600160a01b0381166000908152600360209081526040808320805482518185028101850190935280835260609492939192909184015b8282101561106e5760008481526020908190206040805160c0810182526006860290920180546001600160a01b0316835260018101549383019390935260028301805492939291840191610ea890611b6c565b80601f0160208091040260200160405190810160405280929190818152602001828054610ed490611b6c565b8015610f215780601f10610ef657610100808354040283529160200191610f21565b820191906000526020600020905b815481529060010190602001808311610f0457829003601f168201915b50505050508152602001600382018054610f3a90611b6c565b80601f0160208091040260200160405190810160405280929190818152602001828054610f6690611b6c565b8015610fb35780601f10610f8857610100808354040283529160200191610fb3565b820191906000526020600020905b815481529060010190602001808311610f9657829003601f168201915b5050509183525050600482015460ff166020820152600582018054604090920191610fdd90611b6c565b80601f016020809104026020016040519081016040528092919081815260200182805461100990611b6c565b80156110565780601f1061102b57610100808354040283529160200191611056565b820191906000526020600020905b81548152906001019060200180831161103957829003601f168201915b50505050508152505081526020019060010190610e55565b505050509050919050565b6000546001600160a01b031633146110a35760405162461bcd60e51b81526004016102a6906119f0565b6001600160a01b0381166111085760405162461bcd60e51b815260206004820152602660248201527f4f776e61626c653a206e6577206f776e657220697320746865207a65726f206160448201526564647265737360d01b60648201526084016102a6565b61056681611379565b60018201805463ffffffff1916630100000060ff8416021790555b815460ff821611156111495781546001018255600082905261112c565b5050565b61115561155a565b61115d61155a565b6000838152600260208181526040832060018101548583015280546001600160a01b031685529286905281905201805461119690611b6c565b80601f01602080910402602001604051908101604052809291908181526020018280546111c290611b6c565b801561120f5780601f106111e45761010080835404028352916020019161120f565b820191906000526020600020905b8154815290600101906020018083116111f257829003601f168201915b50505050604080840192909252506000848152600260205220600301805461123690611b6c565b80601f016020809104026020016040519081016040528092919081815260200182805461126290611b6c565b80156112af5780601f10611284576101008083540402835291602001916112af565b820191906000526020600020905b81548152906001019060200180831161129257829003601f168201915b50505050506060820152600083815260026020818152604083206005810154600160c01b900460ff166080860152928690525260060180546112f090611b6c565b80601f016020809104026020016040519081016040528092919081815260200182805461131c90611b6c565b80156113695780601f1061133e57610100808354040283529160200191611369565b820191906000526020600020905b81548152906001019060200180831161134c57829003601f168201915b505050505060a082015292915050565b600080546001600160a01b038381166001600160a01b0319831681178455604051919092169283917f8be0079c531659141344cd1fd0a4f28419497f9722a3daafe3b4186f6b6457e09190a35050565b6001810154600090819062010000900460ff16156114855760018301548354849160ff1690811061140a57634e487b7160e01b600052603260045260246000fd5b600091825260209091200154835460018086015492945090916114329160ff90911690611b2a565b60ff1661143f9190611bc7565b60018401805460ff191660ff9283161780825562010000900490911690600261146783611b4f565b91906101000a81548160ff021916908360ff16021790555050600190505b915091565b815460018301546000916201000090910460ff16101561155457600183015483548391859161010090910460ff169081106114d557634e487b7160e01b600052603260045260246000fd5b60009182526020909120015582546001808501546114fc9161010090910460ff1690611b2a565b60ff166115099190611bc7565b60018401805461ff00191661010060ff938416021780825562010000900490911690600261153683611ba7565b91906101000a81548160ff021916908360ff16021790555050600190505b92915050565b6040518060c0016040528060006001600160a01b03168152602001600081526020016060815260200160608152602001600060ff168152602001606081525090565b8280546115a890611b6c565b90600052602060002090601f0160209004810192826115ca5760008555611610565b82601f106115e357805160ff1916838001178555611610565b82800160010185558215611610579182015b828111156116105782518255916020019190600101906115f5565b5061161c929150611620565b5090565b5b8082111561161c5760008155600101611621565b80356001600160a01b03811681146103e657600080fd5b600082601f83011261165c578081fd5b813567ffffffffffffffff8082111561167757611677611bfd565b604051601f8301601f19908116603f0116810190828211818310171561169f5761169f611bfd565b816040528381528660208588010111156116b7578485fd5b8360208701602083013792830160200193909352509392505050565b6000602082840312156116e4578081fd5b6116ed82611635565b9392505050565b600080600080600080600060a0888a03121561170e578283fd5b873567ffffffffffffffff80821115611725578485fd5b6117318b838c0161164c565b985060208a0135915080821115611746578485fd5b506117538a828b0161164c565b96505061176260408901611635565b9450606088013561177281611c13565b606081901c945060401c63ffffffff169250608088013561179281611c13565b606081901c63ffffffff604083901c16989b979a50959850939692959293505050565b6000602082840312156117c6578081fd5b5035919050565b600080604083850312156117df578182fd5b82359150602083013567ffffffffffffffff8111156117fc578182fd5b6118088582860161164c565b9150509250929050565b600080600060608486031215611826578283fd5b83359250602084013567ffffffffffffffff80821115611844578384fd5b6118508783880161164c565b93506040860135915080821115611865578283fd5b506118728682870161164c565b9150509250925092565b60008151808452815b818110156118a157602081850181015186830182015201611885565b818111156118b25782602083870101525b50601f01601f19169290920160200192915050565b60018060a01b038151168252602081015160208301526000604082015160c060408501526118f860c085018261187c565b905060608301518482036060860152611911828261187c565b91505060ff608084015116608085015260a083015184820360a0860152611938828261187c565b95945050505050565b6000602080830181845280855180835260408601915060408160051b8701019250838701855b8281101561199557603f198886030184526119838583516118c7565b94509285019290850190600101611967565b5092979650505050505050565b604080825283519082018190526000906020906060840190828701845b828110156119db578151845292840192908401906001016119bf565b50505060ff9490941692019190915250919050565b6020808252818101527f4f776e61626c653a2063616c6c6572206973206e6f7420746865206f776e6572604082015260600190565b60208082526046908201527f5265717565737420776974682070726f7669646564206964206973206e6f742060408201527f696e2070726f63657373696e672073746174652c206f7220646f6573206e6f7460608201526508195e1a5cdd60d21b608082015260a00190565b6020815260006116ed60208301846118c7565b60208152815160208201526000602083015160806040840152611aca60a084018261187c565b90506040840151601f19848303016060850152611ae7828261187c565b606095909501516001600160a01b031660809490940193909352509192915050565b828152604060208201526000611b22604083018461187c565b949350505050565b600060ff821660ff84168060ff03821115611b4757611b47611be7565b019392505050565b600060ff821680611b6257611b62611be7565b6000190192915050565b600181811c90821680611b8057607f821691505b60208210811415611ba157634e487b7160e01b600052602260045260246000fd5b50919050565b600060ff821660ff811415611bbe57611bbe611be7565b60010192915050565b600082611be257634e487b7160e01b81526012600452602481fd5b500690565b634e487b7160e01b600052601160045260246000fd5b634e487b7160e01b600052604160045260246000fd5b67ffffffffffffffff198116811461056657600080fdfea26469706673582212204fd7bf4924e21a9284cd17561110e22b787671f4c99a88db51af0fe16f105fcc64736f6c63430008040033","linkReferences":{},"deployedLinkReferences":{}}