{"_format":"hh-sol-artifact-1","contractName":"TwitterMinter","sourceName":"contracts/minters/TwitterMinter.sol","abi":[{"inputs":[{"internalType":"address","name":"twitterAuthOracleAddress","type":"address"}],"stateMutability":"nonpayable","type":"constructor"},{"anonymous":false,"inputs":[{"indexed":true,"internalType":"bytes32","name":"role","type":"bytes32"},{"indexed":true,"internalType":"bytes32","name":"previousAdminRole","type":"bytes32"},{"indexed":true,"internalType":"bytes32","name":"newAdminRole","type":"bytes32"}],"name":"RoleAdminChanged","type":"event"},{"anonymous":false,"inputs":[{"indexed":true,"internalType":"bytes32","name":"role","type":"bytes32"},{"indexed":true,"internalType":"address","name":"account","type":"address"},{"indexed":true,"internalType":"address","name":"sender","type":"address"}],"name":"RoleGranted","type":"event"},{"anonymous":false,"inputs":[{"indexed":true,"internalType":"bytes32","name":"role","type":"bytes32"},{"indexed":true,"internalType":"address","name":"account","type":"address"},{"indexed":true,"internalType":"address","name":"sender","type":"address"}],"name":"RoleRevoked","type":"event"},{"anonymous":false,"inputs":[{"indexed":true,"internalType":"uint256","name":"requestId","type":"uint256"},{"indexed":false,"internalType":"string","name":"error","type":"string"}],"name":"TwitterAuthRequestFailed","type":"event"},{"anonymous":false,"inputs":[{"indexed":true,"internalType":"address","name":"sender","type":"address"},{"indexed":false,"internalType":"uint256","name":"requestId","type":"uint256"}],"name":"TwitterAuthRequestSubmited","type":"event"},{"anonymous":false,"inputs":[{"indexed":true,"internalType":"uint256","name":"requestId","type":"uint256"},{"indexed":false,"internalType":"uint256","name":"tokenId","type":"uint256"}],"name":"TwitterAuthRequestSucceeded","type":"event"},{"inputs":[],"name":"ADMIN_ROLE","outputs":[{"internalType":"bytes32","name":"","type":"bytes32"}],"stateMutability":"view","type":"function"},{"inputs":[],"name":"DEFAULT_ADMIN_ROLE","outputs":[{"internalType":"bytes32","name":"","type":"bytes32"}],"stateMutability":"view","type":"function"},{"inputs":[],"name":"USER_ROLE","outputs":[{"internalType":"bytes32","name":"","type":"bytes32"}],"stateMutability":"view","type":"function"},{"inputs":[{"internalType":"uint256","name":"reqId","type":"uint256"},{"internalType":"string","name":"err","type":"string"}],"name":"failMint","outputs":[],"stateMutability":"nonpayable","type":"function"},{"inputs":[],"name":"getPriceWEI","outputs":[{"internalType":"uint256","name":"","type":"uint256"}],"stateMutability":"view","type":"function"},{"inputs":[{"internalType":"bytes32","name":"role","type":"bytes32"}],"name":"getRoleAdmin","outputs":[{"internalType":"bytes32","name":"","type":"bytes32"}],"stateMutability":"view","type":"function"},{"inputs":[{"internalType":"bytes32","name":"role","type":"bytes32"},{"internalType":"address","name":"account","type":"address"}],"name":"grantRole","outputs":[],"stateMutability":"nonpayable","type":"function"},{"inputs":[{"internalType":"bytes32","name":"role","type":"bytes32"},{"internalType":"address","name":"account","type":"address"}],"name":"hasRole","outputs":[{"internalType":"bool","name":"","type":"bool"}],"stateMutability":"view","type":"function"},{"inputs":[],"name":"oracle","outputs":[{"internalType":"contract TwitterAuthOracle","name":"","type":"address"}],"stateMutability":"view","type":"function"},{"inputs":[{"internalType":"bytes32","name":"role","type":"bytes32"},{"internalType":"address","name":"account","type":"address"}],"name":"renounceRole","outputs":[],"stateMutability":"nonpayable","type":"function"},{"inputs":[],"name":"retrieveFunds","outputs":[],"stateMutability":"nonpayable","type":"function"},{"inputs":[{"internalType":"bytes32","name":"role","type":"bytes32"},{"internalType":"address","name":"account","type":"address"}],"name":"revokeRole","outputs":[],"stateMutability":"nonpayable","type":"function"},{"inputs":[{"internalType":"address","name":"twitterAuthOracleAddress","type":"address"}],"name":"setTwitterAuthOracle","outputs":[],"stateMutability":"nonpayable","type":"function"},{"inputs":[{"internalType":"string","name":"oauthToken","type":"string"},{"internalType":"string","name":"oauthVerifier","type":"string"},{"internalType":"address","name":"owner","type":"address"},{"internalType":"function (string,string,string,address) external returns (uint256)","name":"cb","type":"function"}],"name":"startMint","outputs":[],"stateMutability":"payable","type":"function"},{"inputs":[{"components":[{"internalType":"uint256","name":"requestId","type":"uint256"},{"internalType":"string","name":"screenName","type":"string"},{"internalType":"string","name":"userId","type":"string"},{"internalType":"address","name":"owner","type":"address"}],"internalType":"struct TwitterAuthData.Response","name":"res","type":"tuple"}],"name":"succeedMint","outputs":[],"stateMutability":"nonpayable","type":"function"},{"inputs":[{"internalType":"bytes4","name":"interfaceId","type":"bytes4"}],"name":"supportsInterface","outputs":[{"internalType":"bool","name":"","type":"bool"}],"stateMutability":"view","type":"function"}],"bytecode":"0x60806040523480156200001157600080fd5b50604051620017a7380380620017a7833981016040819052620000349162000494565b600180546001600160a01b0319166001600160a01b0383161790556200006360006200005d3390565b620000ca565b6200007e6000805160206200178783398151915233620000ca565b620000a86000805160206200178783398151915260008051602062001767833981519152620000da565b620000c3600080516020620017678339815191528262000125565b506200060b565b620000d6828262000154565b5050565b600082815260208190526040808220600101805490849055905190918391839186917fbd79b86ffe0ab8e8776151514217cd7cacd52c909f66475c3af44e129f0b00ff9190a4505050565b600082815260208190526040902060010154620001438133620001f4565b6200014f838362000154565b505050565b6000828152602081815260408083206001600160a01b038516845290915290205460ff16620000d6576000828152602081815260408083206001600160a01b03851684529091529020805460ff19166001179055620001b03390565b6001600160a01b0316816001600160a01b0316837f2f8788117e7eff1d82e926ec794901d17c78024a50270940304540a733656f0d60405160405180910390a45050565b6000828152602081815260408083206001600160a01b038516845290915290205460ff16620000d6576200023e816001600160a01b031660146200029860201b6200085b1760201c565b620002548360206200085b62000298821b17811c565b60405160200162000267929190620004bd565b60408051601f198184030181529082905262461bcd60e51b82526200028f9160040162000536565b60405180910390fd5b60606000620002a983600262000586565b620002b69060026200056b565b6001600160401b03811115620002dc57634e487b7160e01b600052604160045260246000fd5b6040519080825280601f01601f19166020018201604052801562000307576020820181803683370190505b509050600360fc1b816000815181106200033157634e487b7160e01b600052603260045260246000fd5b60200101906001600160f81b031916908160001a905350600f60fb1b816001815181106200036f57634e487b7160e01b600052603260045260246000fd5b60200101906001600160f81b031916908160001a90535060006200039584600262000586565b620003a29060016200056b565b90505b60018111156200043c576f181899199a1a9b1b9c1cb0b131b232b360811b85600f1660108110620003e657634e487b7160e01b600052603260045260246000fd5b1a60f81b8282815181106200040b57634e487b7160e01b600052603260045260246000fd5b60200101906001600160f81b031916908160001a90535060049490941c936200043481620005db565b9050620003a5565b5083156200048d5760405162461bcd60e51b815260206004820181905260248201527f537472696e67733a20686578206c656e67746820696e73756666696369656e7460448201526064016200028f565b9392505050565b600060208284031215620004a6578081fd5b81516001600160a01b03811681146200048d578182fd5b7f416363657373436f6e74726f6c3a206163636f756e7420000000000000000000815260008351620004f7816017850160208801620005a8565b7001034b99036b4b9b9b4b733903937b6329607d1b60179184019182015283516200052a816028840160208801620005a8565b01602801949350505050565b602081526000825180602084015262000557816040850160208701620005a8565b601f01601f19169190910160400192915050565b60008219821115620005815762000581620005f5565b500190565b6000816000190483118215151615620005a357620005a3620005f5565b500290565b60005b83811015620005c5578181015183820152602001620005ab565b83811115620005d5576000848401525b50505050565b600081620005ed57620005ed620005f5565b506000190190565b634e487b7160e01b600052601160045260246000fd5b61114c806200061b6000396000f3fe6080604052600436106100f35760003560e01c806361b20d8c1161008a578063a217fddf11610059578063a217fddf146102c3578063a5f41d32146102d8578063d547741f146102f8578063ee0f9d3b1461031857600080fd5b806361b20d8c1461022257806375b238fc146102375780637dc0d1d01461026b57806391d14854146102a357600080fd5b8063248a9ca3116100c6578063248a9ca31461019f57806329b1164f146101cf5780632f2ff15d146101e257806336568abe1461020257600080fd5b806301ffc9a7146100f85780630b84be381461012d578063131191611461014f5780631ed6c8861461017f575b600080fd5b34801561010457600080fd5b50610118610113366004610c91565b61032d565b60405190151581526020015b60405180910390f35b34801561013957600080fd5b5061014d610148366004610e1c565b610364565b005b34801561015b57600080fd5b506101716000805160206110f783398151915281565b604051908152602001610124565b34801561018b57600080fd5b5061014d61019a366004610d5d565b6103ba565b3480156101ab57600080fd5b506101716101ba366004610c4e565b60009081526020819052604090206001015490565b61014d6101dd366004610cb9565b6104d0565b3480156101ee57600080fd5b5061014d6101fd366004610c66565b610602565b34801561020e57600080fd5b5061014d61021d366004610c66565b61062d565b34801561022e57600080fd5b5061014d6106b0565b34801561024357600080fd5b506101717fa49807205ce4d355092ef5a8a18f56e8913cf4a201fbe287825b095693c2177581565b34801561027757600080fd5b5060015461028b906001600160a01b031681565b6040516001600160a01b039091168152602001610124565b3480156102af57600080fd5b506101186102be366004610c66565b610707565b3480156102cf57600080fd5b50610171600081565b3480156102e457600080fd5b5061014d6102f3366004610c34565b610730565b34801561030457600080fd5b5061014d610313366004610c66565b6107b3565b34801561032457600080fd5b506101716107d9565b60006001600160e01b03198216637965db0b60e01b148061035e57506301ffc9a760e01b6001600160e01b03198316145b92915050565b6000805160206110f783398151915261037d8133610a44565b827ffaaf030a237696352029447cf0ba20b79bcbdd4aa458af2d1de1ad993fe5445f836040516103ad9190610f3e565b60405180910390a2505050565b6000805160206110f78339815191526103d38133610a44565b8151600090815260026020908152604080832054818601518387015192516001600160a01b0383861c169463ffffffff909316939192610414929101610e8d565b60408051601f198184030181529082905260608801516001600160e01b031960e086901b1683526104489392600401610fc7565b602060405180830381600087803b15801561046257600080fd5b505af1158015610476573d6000803e3d6000fd5b505050506040513d601f19601f8201168201806040525081019061049a9190610e04565b8351604051828152919250907f882c4362c393268eb160b6ae4ecb7d97739d6d962bff8297f7f72b2af01d799f906020016103ad565b60015460405163cb2859b160e01b81526000916001600160a01b03169063cb2859b1903490610517908a908a908a903090631ed6c886908290630b84be3890600401610f51565b6020604051808303818588803b15801561053057600080fd5b505af1158015610544573d6000803e3d6000fd5b50505050506040513d601f19601f820116820180604052508101906105699190610e04565b604080516020808201835263ffffffff86811688831b17841b8352600085815260028352849020925183546001600160c01b03191690851c918216640100000000600160c01b0392909216919091171790915590518281529192506001600160a01b038616917f6a2696e81bc18547598d0b304f71f9ec1735b6b43abe58220d183bb3c260d0fb910160405180910390a2505050505050565b60008281526020819052604090206001015461061e8133610a44565b6106288383610aa8565b505050565b6001600160a01b03811633146106a25760405162461bcd60e51b815260206004820152602f60248201527f416363657373436f6e74726f6c3a2063616e206f6e6c792072656e6f756e636560448201526e103937b632b9903337b91039b2b63360891b60648201526084015b60405180910390fd5b6106ac8282610b2c565b5050565b7fa49807205ce4d355092ef5a8a18f56e8913cf4a201fbe287825b095693c217756106db8133610a44565b60405133904780156108fc02916000818181858888f193505050501580156106ac573d6000803e3d6000fd5b6000918252602082815260408084206001600160a01b0393909316845291905290205460ff1690565b7fa49807205ce4d355092ef5a8a18f56e8913cf4a201fbe287825b095693c2177561075b8133610a44565b600154610780906000805160206110f7833981519152906001600160a01b03166107b3565b600180546001600160a01b0319166001600160a01b0384161790556106ac6000805160206110f783398151915283610602565b6000828152602081905260409020600101546107cf8133610a44565b6106288383610b2c565b600154604080516378bb750960e11b815290516000926001600160a01b03169163f176ea12916004808301926020929190829003018186803b15801561081e57600080fd5b505afa158015610832573d6000803e3d6000fd5b505050506040513d601f19601f820116820180604052508101906108569190610e04565b905090565b6060600061086a836002611064565b61087590600261104c565b67ffffffffffffffff81111561089b57634e487b7160e01b600052604160045260246000fd5b6040519080825280601f01601f1916602001820160405280156108c5576020820181803683370190505b509050600360fc1b816000815181106108ee57634e487b7160e01b600052603260045260246000fd5b60200101906001600160f81b031916908160001a905350600f60fb1b8160018151811061092b57634e487b7160e01b600052603260045260246000fd5b60200101906001600160f81b031916908160001a905350600061094f846002611064565b61095a90600161104c565b90505b60018111156109ee576f181899199a1a9b1b9c1cb0b131b232b360811b85600f166010811061099c57634e487b7160e01b600052603260045260246000fd5b1a60f81b8282815181106109c057634e487b7160e01b600052603260045260246000fd5b60200101906001600160f81b031916908160001a90535060049490941c936109e7816110b3565b905061095d565b508315610a3d5760405162461bcd60e51b815260206004820181905260248201527f537472696e67733a20686578206c656e67746820696e73756666696369656e746044820152606401610699565b9392505050565b610a4e8282610707565b6106ac57610a66816001600160a01b0316601461085b565b610a7183602061085b565b604051602001610a82929190610ec9565b60408051601f198184030181529082905262461bcd60e51b825261069991600401610f3e565b610ab28282610707565b6106ac576000828152602081815260408083206001600160a01b03851684529091529020805460ff19166001179055610ae83390565b6001600160a01b0316816001600160a01b0316837f2f8788117e7eff1d82e926ec794901d17c78024a50270940304540a733656f0d60405160405180910390a45050565b610b368282610707565b156106ac576000828152602081815260408083206001600160a01b0385168085529252808320805460ff1916905551339285917ff6391f5c32d9c69d2a47ea670b442974b53935d1edc7fd64eb21e047a839171b9190a45050565b80356001600160a01b0381168114610ba857600080fd5b919050565b600082601f830112610bbd578081fd5b813567ffffffffffffffff80821115610bd857610bd86110e0565b604051601f8301601f19908116603f01168101908282118183101715610c0057610c006110e0565b81604052838152866020858801011115610c18578485fd5b8360208701602083013792830160200193909352509392505050565b600060208284031215610c45578081fd5b610a3d82610b91565b600060208284031215610c5f578081fd5b5035919050565b60008060408385031215610c78578081fd5b82359150610c8860208401610b91565b90509250929050565b600060208284031215610ca2578081fd5b81356001600160e01b031981168114610a3d578182fd5b600080600080600060808688031215610cd0578081fd5b853567ffffffffffffffff80821115610ce7578283fd5b610cf389838a01610bad565b96506020880135915080821115610d08578283fd5b50610d1588828901610bad565b945050610d2460408701610b91565b9250606086013567ffffffffffffffff1981168114610d41578182fd5b94979396509194505050606082901c9160401c63ffffffff1690565b600060208284031215610d6e578081fd5b813567ffffffffffffffff80821115610d85578283fd5b9083019060808286031215610d98578283fd5b610da0611023565b82358152602083013582811115610db5578485fd5b610dc187828601610bad565b602083015250604083013582811115610dd8578485fd5b610de487828601610bad565b604083015250610df660608401610b91565b606082015295945050505050565b600060208284031215610e15578081fd5b5051919050565b60008060408385031215610e2e578182fd5b82359150602083013567ffffffffffffffff811115610e4b578182fd5b610e5785828601610bad565b9150509250929050565b60008151808452610e79816020860160208601611083565b601f01601f19169290920160200192915050565b7368747470733a2f2f747769747465722e636f6d2f60601b815260008251610ebc816014850160208701611083565b9190910160140192915050565b7f416363657373436f6e74726f6c3a206163636f756e7420000000000000000000815260008351610f01816017850160208801611083565b7001034b99036b4b9b9b4b733903937b6329607d1b6017918401918201528351610f32816028840160208801611083565b01602801949350505050565b602081526000610a3d6020830184610e61565b60a081526000610f6460a083018a610e61565b8281036020840152610f76818a610e61565b6001600160a01b03891660408501529150610fa6905060608301868860201b63ffffffff919091161760401b9052565b63ffffffff8316602085901b1760401b608083015298975050505050505050565b6080815260076080820152663a3bb4ba3a32b960c91b60a082015260c060208201526000610ff860c0830186610e61565b828103604084015261100a8186610e61565b91505060018060a01b0383166060830152949350505050565b6040516080810167ffffffffffffffff81118282101715611046576110466110e0565b60405290565b6000821982111561105f5761105f6110ca565b500190565b600081600019048311821515161561107e5761107e6110ca565b500290565b60005b8381101561109e578181015183820152602001611086565b838111156110ad576000848401525b50505050565b6000816110c2576110c26110ca565b506000190190565b634e487b7160e01b600052601160045260246000fd5b634e487b7160e01b600052604160045260246000fdfe14823911f2da1b49f045a0929a60b8c1f2a7fc8c06c7284ca3e8ab4e193a08c8a2646970667358221220fb8d11174d5784f948e91ead8529d6d296031525cdfc2b16bc0a697f6ef655dd64736f6c6343000804003314823911f2da1b49f045a0929a60b8c1f2a7fc8c06c7284ca3e8ab4e193a08c8a49807205ce4d355092ef5a8a18f56e8913cf4a201fbe287825b095693c21775","linkReferences":{},"deployedLinkReferences":{}}