{"_format":"hh-sol-artifact-1","contractName":"TwitterMinter","sourceName":"contracts/minters/TwitterMinter.sol","abi":[{"inputs":[{"internalType":"address","name":"twitterAuthOracleAddress","type":"address"}],"stateMutability":"nonpayable","type":"constructor"},{"anonymous":false,"inputs":[{"indexed":true,"internalType":"bytes32","name":"role","type":"bytes32"},{"indexed":true,"internalType":"bytes32","name":"previousAdminRole","type":"bytes32"},{"indexed":true,"internalType":"bytes32","name":"newAdminRole","type":"bytes32"}],"name":"RoleAdminChanged","type":"event"},{"anonymous":false,"inputs":[{"indexed":true,"internalType":"bytes32","name":"role","type":"bytes32"},{"indexed":true,"internalType":"address","name":"account","type":"address"},{"indexed":true,"internalType":"address","name":"sender","type":"address"}],"name":"RoleGranted","type":"event"},{"anonymous":false,"inputs":[{"indexed":true,"internalType":"bytes32","name":"role","type":"bytes32"},{"indexed":true,"internalType":"address","name":"account","type":"address"},{"indexed":true,"internalType":"address","name":"sender","type":"address"}],"name":"RoleRevoked","type":"event"},{"anonymous":false,"inputs":[{"indexed":true,"internalType":"uint256","name":"requestId","type":"uint256"},{"indexed":false,"internalType":"string","name":"error","type":"string"}],"name":"TwitterAuthRequestFailed","type":"event"},{"anonymous":false,"inputs":[{"indexed":true,"internalType":"address","name":"sender","type":"address"},{"indexed":false,"internalType":"uint256","name":"requestId","type":"uint256"}],"name":"TwitterAuthRequestSubmited","type":"event"},{"anonymous":false,"inputs":[{"indexed":true,"internalType":"uint256","name":"requestId","type":"uint256"},{"indexed":false,"internalType":"uint256","name":"tokenId","type":"uint256"}],"name":"TwitterAuthRequestSucceeded","type":"event"},{"inputs":[],"name":"ADMIN_ROLE","outputs":[{"internalType":"bytes32","name":"","type":"bytes32"}],"stateMutability":"view","type":"function"},{"inputs":[],"name":"DEFAULT_ADMIN_ROLE","outputs":[{"internalType":"bytes32","name":"","type":"bytes32"}],"stateMutability":"view","type":"function"},{"inputs":[],"name":"USER_ROLE","outputs":[{"internalType":"bytes32","name":"","type":"bytes32"}],"stateMutability":"view","type":"function"},{"inputs":[{"internalType":"uint256","name":"reqId","type":"uint256"},{"internalType":"string","name":"err","type":"string"}],"name":"failMint","outputs":[],"stateMutability":"nonpayable","type":"function"},{"inputs":[],"name":"getPriceWEI","outputs":[{"internalType":"uint256","name":"","type":"uint256"}],"stateMutability":"view","type":"function"},{"inputs":[{"internalType":"bytes32","name":"role","type":"bytes32"}],"name":"getRoleAdmin","outputs":[{"internalType":"bytes32","name":"","type":"bytes32"}],"stateMutability":"view","type":"function"},{"inputs":[{"internalType":"bytes32","name":"role","type":"bytes32"},{"internalType":"address","name":"account","type":"address"}],"name":"grantRole","outputs":[],"stateMutability":"nonpayable","type":"function"},{"inputs":[{"internalType":"bytes32","name":"role","type":"bytes32"},{"internalType":"address","name":"account","type":"address"}],"name":"hasRole","outputs":[{"internalType":"bool","name":"","type":"bool"}],"stateMutability":"view","type":"function"},{"inputs":[],"name":"oracle","outputs":[{"internalType":"contract TwitterAuthOracle","name":"","type":"address"}],"stateMutability":"view","type":"function"},{"inputs":[{"internalType":"bytes32","name":"role","type":"bytes32"},{"internalType":"address","name":"account","type":"address"}],"name":"renounceRole","outputs":[],"stateMutability":"nonpayable","type":"function"},{"inputs":[],"name":"retrieveFunds","outputs":[],"stateMutability":"nonpayable","type":"function"},{"inputs":[{"internalType":"bytes32","name":"role","type":"bytes32"},{"internalType":"address","name":"account","type":"address"}],"name":"revokeRole","outputs":[],"stateMutability":"nonpayable","type":"function"},{"inputs":[{"internalType":"string","name":"oauthToken","type":"string"},{"internalType":"string","name":"oauthVerifier","type":"string"},{"internalType":"address","name":"owner","type":"address"},{"internalType":"function (string,string,string,address) external returns (uint256)","name":"cb","type":"function"}],"name":"startMint","outputs":[],"stateMutability":"payable","type":"function"},{"inputs":[{"components":[{"internalType":"uint256","name":"requestId","type":"uint256"},{"internalType":"string","name":"screenName","type":"string"},{"internalType":"string","name":"userId","type":"string"},{"internalType":"address","name":"owner","type":"address"}],"internalType":"struct TwitterAuthData.Response","name":"res","type":"tuple"}],"name":"succeedMint","outputs":[],"stateMutability":"nonpayable","type":"function"},{"inputs":[{"internalType":"bytes4","name":"interfaceId","type":"bytes4"}],"name":"supportsInterface","outputs":[{"internalType":"bool","name":"","type":"bool"}],"stateMutability":"view","type":"function"}],"bytecode":"0x60806040523480156200001157600080fd5b50604051620012d2380380620012d28339810160408190526200003491620001b8565b600180546001600160a01b0319166001600160a01b03831617905562000071600080516020620012b28339815191526200006b3390565b620000bd565b6200009b600080516020620012b283398151915260008051602062001292833981519152620000cd565b620000b66000805160206200129283398151915282620000bd565b50620001e8565b620000c9828262000118565b5050565b600082815260208190526040808220600101805490849055905190918391839186917fbd79b86ffe0ab8e8776151514217cd7cacd52c909f66475c3af44e129f0b00ff9190a4505050565b6000828152602081815260408083206001600160a01b038516845290915290205460ff16620000c9576000828152602081815260408083206001600160a01b03851684529091529020805460ff19166001179055620001743390565b6001600160a01b0316816001600160a01b0316837f2f8788117e7eff1d82e926ec794901d17c78024a50270940304540a733656f0d60405160405180910390a45050565b600060208284031215620001ca578081fd5b81516001600160a01b0381168114620001e1578182fd5b9392505050565b61109a80620001f86000396000f3fe6080604052600436106100e85760003560e01c806336568abe1161008a57806391d148541161005957806391d14854146102aa578063a217fddf146102ca578063d547741f146102df578063ee0f9d3b146102ff57600080fd5b806336568abe1461020957806361b20d8c1461022957806375b238fc1461023e5780637dc0d1d01461027257600080fd5b80631ed6c886116100c65780631ed6c88614610186578063248a9ca3146101a657806329b1164f146101d65780632f2ff15d146101e957600080fd5b806301ffc9a7146100ed5780630b84be38146101225780631311916114610144575b600080fd5b3480156100f957600080fd5b5061010d610108366004610bff565b610314565b60405190151581526020015b60405180910390f35b34801561012e57600080fd5b5061014261013d366004610d8a565b61034b565b005b34801561015057600080fd5b506101787f14823911f2da1b49f045a0929a60b8c1f2a7fc8c06c7284ca3e8ab4e193a08c881565b604051908152602001610119565b34801561019257600080fd5b506101426101a1366004610ccb565b6103b3565b3480156101b257600080fd5b506101786101c1366004610bbc565b60009081526020819052604090206001015490565b6101426101e4366004610c27565b6104db565b3480156101f557600080fd5b50610142610204366004610bd4565b61060d565b34801561021557600080fd5b50610142610224366004610bd4565b610638565b34801561023557600080fd5b506101426106bb565b34801561024a57600080fd5b506101787fa49807205ce4d355092ef5a8a18f56e8913cf4a201fbe287825b095693c2177581565b34801561027e57600080fd5b50600154610292906001600160a01b031681565b6040516001600160a01b039091168152602001610119565b3480156102b657600080fd5b5061010d6102c5366004610bd4565b610712565b3480156102d657600080fd5b50610178600081565b3480156102eb57600080fd5b506101426102fa366004610bd4565b61073b565b34801561030b57600080fd5b50610178610761565b60006001600160e01b03198216637965db0b60e01b148061034557506301ffc9a760e01b6001600160e01b03198316145b92915050565b7f14823911f2da1b49f045a0929a60b8c1f2a7fc8c06c7284ca3e8ab4e193a08c861037681336107e3565b827ffaaf030a237696352029447cf0ba20b79bcbdd4aa458af2d1de1ad993fe5445f836040516103a69190610eac565b60405180910390a2505050565b7f14823911f2da1b49f045a0929a60b8c1f2a7fc8c06c7284ca3e8ab4e193a08c86103de81336107e3565b8151600090815260026020908152604080832054818601518387015192516001600160a01b0383861c169463ffffffff90931693919261041f929101610dfb565b60408051601f198184030181529082905260608801516001600160e01b031960e086901b1683526104539392600401610f35565b602060405180830381600087803b15801561046d57600080fd5b505af1158015610481573d6000803e3d6000fd5b505050506040513d601f19601f820116820180604052508101906104a59190610d72565b8351604051828152919250907f882c4362c393268eb160b6ae4ecb7d97739d6d962bff8297f7f72b2af01d799f906020016103a6565b60015460405163cb2859b160e01b81526000916001600160a01b03169063cb2859b1903490610522908a908a908a903090631ed6c886908290630b84be3890600401610ebf565b6020604051808303818588803b15801561053b57600080fd5b505af115801561054f573d6000803e3d6000fd5b50505050506040513d601f19601f820116820180604052508101906105749190610d72565b604080516020808201835263ffffffff86811688831b17841b8352600085815260028352849020925183546001600160c01b03191690851c918216640100000000600160c01b0392909216919091171790915590518281529192506001600160a01b038616917f6a2696e81bc18547598d0b304f71f9ec1735b6b43abe58220d183bb3c260d0fb910160405180910390a2505050505050565b60008281526020819052604090206001015461062981336107e3565b6106338383610847565b505050565b6001600160a01b03811633146106ad5760405162461bcd60e51b815260206004820152602f60248201527f416363657373436f6e74726f6c3a2063616e206f6e6c792072656e6f756e636560448201526e103937b632b9903337b91039b2b63360891b60648201526084015b60405180910390fd5b6106b782826108cb565b5050565b7fa49807205ce4d355092ef5a8a18f56e8913cf4a201fbe287825b095693c217756106e681336107e3565b60405133904780156108fc02916000818181858888f193505050501580156106b7573d6000803e3d6000fd5b6000918252602082815260408084206001600160a01b0393909316845291905290205460ff1690565b60008281526020819052604090206001015461075781336107e3565b61063383836108cb565b600154604080516378bb750960e11b815290516000926001600160a01b03169163f176ea12916004808301926020929190829003018186803b1580156107a657600080fd5b505afa1580156107ba573d6000803e3d6000fd5b505050506040513d601f19601f820116820180604052508101906107de9190610d72565b905090565b6107ed8282610712565b6106b757610805816001600160a01b03166014610930565b610810836020610930565b604051602001610821929190610e37565b60408051601f198184030181529082905262461bcd60e51b82526106a491600401610eac565b6108518282610712565b6106b7576000828152602081815260408083206001600160a01b03851684529091529020805460ff191660011790556108873390565b6001600160a01b0316816001600160a01b0316837f2f8788117e7eff1d82e926ec794901d17c78024a50270940304540a733656f0d60405160405180910390a45050565b6108d58282610712565b156106b7576000828152602081815260408083206001600160a01b0385168085529252808320805460ff1916905551339285917ff6391f5c32d9c69d2a47ea670b442974b53935d1edc7fd64eb21e047a839171b9190a45050565b6060600061093f836002610fd2565b61094a906002610fba565b67ffffffffffffffff81111561097057634e487b7160e01b600052604160045260246000fd5b6040519080825280601f01601f19166020018201604052801561099a576020820181803683370190505b509050600360fc1b816000815181106109c357634e487b7160e01b600052603260045260246000fd5b60200101906001600160f81b031916908160001a905350600f60fb1b81600181518110610a0057634e487b7160e01b600052603260045260246000fd5b60200101906001600160f81b031916908160001a9053506000610a24846002610fd2565b610a2f906001610fba565b90505b6001811115610ac3576f181899199a1a9b1b9c1cb0b131b232b360811b85600f1660108110610a7157634e487b7160e01b600052603260045260246000fd5b1a60f81b828281518110610a9557634e487b7160e01b600052603260045260246000fd5b60200101906001600160f81b031916908160001a90535060049490941c93610abc81611021565b9050610a32565b508315610b125760405162461bcd60e51b815260206004820181905260248201527f537472696e67733a20686578206c656e67746820696e73756666696369656e7460448201526064016106a4565b9392505050565b80356001600160a01b0381168114610b3057600080fd5b919050565b600082601f830112610b45578081fd5b813567ffffffffffffffff80821115610b6057610b6061104e565b604051601f8301601f19908116603f01168101908282118183101715610b8857610b8861104e565b81604052838152866020858801011115610ba0578485fd5b8360208701602083013792830160200193909352509392505050565b600060208284031215610bcd578081fd5b5035919050565b60008060408385031215610be6578081fd5b82359150610bf660208401610b19565b90509250929050565b600060208284031215610c10578081fd5b81356001600160e01b031981168114610b12578182fd5b600080600080600060808688031215610c3e578081fd5b853567ffffffffffffffff80821115610c55578283fd5b610c6189838a01610b35565b96506020880135915080821115610c76578283fd5b50610c8388828901610b35565b945050610c9260408701610b19565b9250606086013567ffffffffffffffff1981168114610caf578182fd5b94979396509194505050606082901c9160401c63ffffffff1690565b600060208284031215610cdc578081fd5b813567ffffffffffffffff80821115610cf3578283fd5b9083019060808286031215610d06578283fd5b610d0e610f91565b82358152602083013582811115610d23578485fd5b610d2f87828601610b35565b602083015250604083013582811115610d46578485fd5b610d5287828601610b35565b604083015250610d6460608401610b19565b606082015295945050505050565b600060208284031215610d83578081fd5b5051919050565b60008060408385031215610d9c578182fd5b82359150602083013567ffffffffffffffff811115610db9578182fd5b610dc585828601610b35565b9150509250929050565b60008151808452610de7816020860160208601610ff1565b601f01601f19169290920160200192915050565b7368747470733a2f2f747769747465722e636f6d2f60601b815260008251610e2a816014850160208701610ff1565b9190910160140192915050565b7f416363657373436f6e74726f6c3a206163636f756e7420000000000000000000815260008351610e6f816017850160208801610ff1565b7001034b99036b4b9b9b4b733903937b6329607d1b6017918401918201528351610ea0816028840160208801610ff1565b01602801949350505050565b602081526000610b126020830184610dcf565b60a081526000610ed260a083018a610dcf565b8281036020840152610ee4818a610dcf565b6001600160a01b03891660408501529150610f14905060608301868860201b63ffffffff919091161760401b9052565b63ffffffff8316602085901b1760401b608083015298975050505050505050565b6080815260076080820152663a3bb4ba3a32b960c91b60a082015260c060208201526000610f6660c0830186610dcf565b8281036040840152610f788186610dcf565b91505060018060a01b0383166060830152949350505050565b6040516080810167ffffffffffffffff81118282101715610fb457610fb461104e565b60405290565b60008219821115610fcd57610fcd611038565b500190565b6000816000190483118215151615610fec57610fec611038565b500290565b60005b8381101561100c578181015183820152602001610ff4565b8381111561101b576000848401525b50505050565b60008161103057611030611038565b506000190190565b634e487b7160e01b600052601160045260246000fd5b634e487b7160e01b600052604160045260246000fdfea2646970667358221220f4f9fb45ecc6a753ff5ca0cd57e5f22b800865c8ede7caca2593bc259eed968164736f6c6343000804003314823911f2da1b49f045a0929a60b8c1f2a7fc8c06c7284ca3e8ab4e193a08c8a49807205ce4d355092ef5a8a18f56e8913cf4a201fbe287825b095693c21775","linkReferences":{},"deployedLinkReferences":{}}