{"_format":"hh-sol-artifact-1","contractName":"TwitterMinter","sourceName":"contracts/minters/TwitterMinter.sol","abi":[{"inputs":[{"internalType":"address","name":"twitterAuthOracleAddress","type":"address"}],"stateMutability":"nonpayable","type":"constructor"},{"anonymous":false,"inputs":[{"indexed":true,"internalType":"bytes32","name":"role","type":"bytes32"},{"indexed":true,"internalType":"bytes32","name":"previousAdminRole","type":"bytes32"},{"indexed":true,"internalType":"bytes32","name":"newAdminRole","type":"bytes32"}],"name":"RoleAdminChanged","type":"event"},{"anonymous":false,"inputs":[{"indexed":true,"internalType":"bytes32","name":"role","type":"bytes32"},{"indexed":true,"internalType":"address","name":"account","type":"address"},{"indexed":true,"internalType":"address","name":"sender","type":"address"}],"name":"RoleGranted","type":"event"},{"anonymous":false,"inputs":[{"indexed":true,"internalType":"bytes32","name":"role","type":"bytes32"},{"indexed":true,"internalType":"address","name":"account","type":"address"},{"indexed":true,"internalType":"address","name":"sender","type":"address"}],"name":"RoleRevoked","type":"event"},{"anonymous":false,"inputs":[{"indexed":true,"internalType":"uint256","name":"requestId","type":"uint256"},{"indexed":false,"internalType":"string","name":"error","type":"string"}],"name":"TwitterAuthRequestFailed","type":"event"},{"anonymous":false,"inputs":[{"indexed":true,"internalType":"address","name":"sender","type":"address"},{"indexed":false,"internalType":"uint256","name":"requestId","type":"uint256"}],"name":"TwitterAuthRequestSubmited","type":"event"},{"anonymous":false,"inputs":[{"indexed":true,"internalType":"uint256","name":"requestId","type":"uint256"},{"indexed":false,"internalType":"uint256","name":"tokenId","type":"uint256"}],"name":"TwitterAuthRequestSucceeded","type":"event"},{"inputs":[],"name":"ADMIN_ROLE","outputs":[{"internalType":"bytes32","name":"","type":"bytes32"}],"stateMutability":"view","type":"function"},{"inputs":[],"name":"DEFAULT_ADMIN_ROLE","outputs":[{"internalType":"bytes32","name":"","type":"bytes32"}],"stateMutability":"view","type":"function"},{"inputs":[],"name":"USER_ROLE","outputs":[{"internalType":"bytes32","name":"","type":"bytes32"}],"stateMutability":"view","type":"function"},{"inputs":[{"internalType":"uint256","name":"reqId","type":"uint256"},{"internalType":"string","name":"err","type":"string"}],"name":"failMint","outputs":[],"stateMutability":"nonpayable","type":"function"},{"inputs":[{"internalType":"string","name":"sn_id","type":"string"}],"name":"getOWNSBySnId","outputs":[{"components":[{"internalType":"uint256","name":"id","type":"uint256"},{"internalType":"string","name":"sn_name","type":"string"},{"internalType":"string","name":"sn_id","type":"string"},{"internalType":"string","name":"sn_url","type":"string"}],"internalType":"struct OwnedAccount.data","name":"","type":"tuple"}],"stateMutability":"view","type":"function"},{"inputs":[{"internalType":"uint256","name":"tokenId","type":"uint256"}],"name":"getOWSNByTokenId","outputs":[{"components":[{"internalType":"uint256","name":"id","type":"uint256"},{"internalType":"string","name":"sn_name","type":"string"},{"internalType":"string","name":"sn_id","type":"string"},{"internalType":"string","name":"sn_url","type":"string"}],"internalType":"struct OwnedAccount.data","name":"","type":"tuple"}],"stateMutability":"view","type":"function"},{"inputs":[],"name":"getPriceWEI","outputs":[{"internalType":"uint256","name":"","type":"uint256"}],"stateMutability":"view","type":"function"},{"inputs":[{"internalType":"bytes32","name":"role","type":"bytes32"}],"name":"getRoleAdmin","outputs":[{"internalType":"bytes32","name":"","type":"bytes32"}],"stateMutability":"view","type":"function"},{"inputs":[],"name":"getSnName","outputs":[{"internalType":"bytes32","name":"","type":"bytes32"}],"stateMutability":"pure","type":"function"},{"inputs":[{"internalType":"bytes32","name":"role","type":"bytes32"},{"internalType":"address","name":"account","type":"address"}],"name":"grantRole","outputs":[],"stateMutability":"nonpayable","type":"function"},{"inputs":[{"internalType":"bytes32","name":"role","type":"bytes32"},{"internalType":"address","name":"account","type":"address"}],"name":"hasRole","outputs":[{"internalType":"bool","name":"","type":"bool"}],"stateMutability":"view","type":"function"},{"inputs":[{"internalType":"string","name":"sn_id","type":"string"}],"name":"isAvailable","outputs":[{"internalType":"bool","name":"","type":"bool"}],"stateMutability":"view","type":"function"},{"inputs":[],"name":"oracle","outputs":[{"internalType":"contract TwitterAuthOracle","name":"","type":"address"}],"stateMutability":"view","type":"function"},{"inputs":[{"internalType":"bytes32","name":"role","type":"bytes32"},{"internalType":"address","name":"account","type":"address"}],"name":"renounceRole","outputs":[],"stateMutability":"nonpayable","type":"function"},{"inputs":[],"name":"retrieveFunds","outputs":[],"stateMutability":"nonpayable","type":"function"},{"inputs":[{"internalType":"bytes32","name":"role","type":"bytes32"},{"internalType":"address","name":"account","type":"address"}],"name":"revokeRole","outputs":[],"stateMutability":"nonpayable","type":"function"},{"inputs":[{"internalType":"address","name":"twitterAuthOracleAddress","type":"address"}],"name":"setTwitterAuthOracle","outputs":[],"stateMutability":"nonpayable","type":"function"},{"inputs":[],"name":"snName","outputs":[{"internalType":"bytes32","name":"","type":"bytes32"}],"stateMutability":"view","type":"function"},{"inputs":[{"internalType":"string","name":"oauthToken","type":"string"},{"internalType":"string","name":"oauthVerifier","type":"string"},{"internalType":"address","name":"owner","type":"address"},{"internalType":"function (address) external returns (uint256)","name":"cb","type":"function"}],"name":"startMint","outputs":[],"stateMutability":"payable","type":"function"},{"inputs":[{"components":[{"internalType":"uint256","name":"requestId","type":"uint256"},{"internalType":"string","name":"screenName","type":"string"},{"internalType":"string","name":"userId","type":"string"},{"internalType":"address","name":"owner","type":"address"}],"internalType":"struct TwitterAuthData.Response","name":"res","type":"tuple"}],"name":"succeedMint","outputs":[],"stateMutability":"nonpayable","type":"function"},{"inputs":[{"internalType":"bytes4","name":"interfaceId","type":"bytes4"}],"name":"supportsInterface","outputs":[{"internalType":"bool","name":"","type":"bool"}],"stateMutability":"view","type":"function"},{"inputs":[{"internalType":"uint256","name":"token_id","type":"uint256"}],"name":"tokenExists","outputs":[{"internalType":"bool","name":"","type":"bool"}],"stateMutability":"view","type":"function"}],"bytecode":"0x60806040523480156200001157600080fd5b506040516200225938038062002259833981016040819052620000349162000494565b600180546001600160a01b0319166001600160a01b0383161790556200006360006200005d3390565b620000ca565b6200007e6000805160206200223983398151915233620000ca565b620000a86000805160206200223983398151915260008051602062002219833981519152620000da565b620000c3600080516020620022198339815191528262000125565b506200060b565b620000d6828262000154565b5050565b600082815260208190526040808220600101805490849055905190918391839186917fbd79b86ffe0ab8e8776151514217cd7cacd52c909f66475c3af44e129f0b00ff9190a4505050565b600082815260208190526040902060010154620001438133620001f4565b6200014f838362000154565b505050565b6000828152602081815260408083206001600160a01b038516845290915290205460ff16620000d6576000828152602081815260408083206001600160a01b03851684529091529020805460ff19166001179055620001b03390565b6001600160a01b0316816001600160a01b0316837f2f8788117e7eff1d82e926ec794901d17c78024a50270940304540a733656f0d60405160405180910390a45050565b6000828152602081815260408083206001600160a01b038516845290915290205460ff16620000d6576200023e816001600160a01b031660146200029860201b6200118a1760201c565b620002548360206200118a62000298821b17811c565b60405160200162000267929190620004bd565b60408051601f198184030181529082905262461bcd60e51b82526200028f9160040162000536565b60405180910390fd5b60606000620002a983600262000586565b620002b69060026200056b565b6001600160401b03811115620002dc57634e487b7160e01b600052604160045260246000fd5b6040519080825280601f01601f19166020018201604052801562000307576020820181803683370190505b509050600360fc1b816000815181106200033157634e487b7160e01b600052603260045260246000fd5b60200101906001600160f81b031916908160001a905350600f60fb1b816001815181106200036f57634e487b7160e01b600052603260045260246000fd5b60200101906001600160f81b031916908160001a90535060006200039584600262000586565b620003a29060016200056b565b90505b60018111156200043c576f181899199a1a9b1b9c1cb0b131b232b360811b85600f1660108110620003e657634e487b7160e01b600052603260045260246000fd5b1a60f81b8282815181106200040b57634e487b7160e01b600052603260045260246000fd5b60200101906001600160f81b031916908160001a90535060049490941c936200043481620005db565b9050620003a5565b5083156200048d5760405162461bcd60e51b815260206004820181905260248201527f537472696e67733a20686578206c656e67746820696e73756666696369656e7460448201526064016200028f565b9392505050565b600060208284031215620004a6578081fd5b81516001600160a01b03811681146200048d578182fd5b7f416363657373436f6e74726f6c3a206163636f756e7420000000000000000000815260008351620004f7816017850160208801620005a8565b7001034b99036b4b9b9b4b733903937b6329607d1b60179184019182015283516200052a816028840160208801620005a8565b01602801949350505050565b602081526000825180602084015262000557816040850160208701620005a8565b601f01601f19169190910160400192915050565b60008219821115620005815762000581620005f5565b500190565b6000816000190483118215151615620005a357620005a3620005f5565b500290565b60005b83811015620005c5578181015183820152602001620005ab565b83811115620005d5576000848401525b50505050565b600081620005ed57620005ed620005f5565b506000190190565b634e487b7160e01b600052601160045260246000fd5b611bfe806200061b6000396000f3fe6080604052600436106101345760003560e01c806361b20d8c116100ab578063965306aa1161006f578063965306aa146103a457806399692ec3146103c4578063a217fddf146103f8578063a5f41d321461040d578063d547741f1461042d578063ee0f9d3b1461044d57600080fd5b806361b20d8c146102e357806375b238fc146102f85780637dc0d1d01461032c5780638ade73551461036457806391d148541461038457600080fd5b8063248a9ca3116100fd578063248a9ca31461020057806329b1164f146102305780632f2ff15d1461024357806336568abe146102635780633791ea53146102835780635324fd2e146102b657600080fd5b8062923f9e1461013957806301ffc9a71461016e5780630b84be381461018e57806313119161146101b05780631ed6c886146101e0575b600080fd5b34801561014557600080fd5b50610159610154366004611616565b610462565b60405190151581526020015b60405180910390f35b34801561017a57600080fd5b50610159610189366004611659565b610697565b34801561019a57600080fd5b506101ae6101a936600461181f565b6106ce565b005b3480156101bc57600080fd5b506101d2600080516020611ba983398151915281565b604051908152602001610165565b3480156101ec57600080fd5b506101ae6101fb366004611760565b610724565b34801561020c57600080fd5b506101d261021b366004611616565b60009081526020819052604090206001015490565b6101ae61023e3660046116bc565b610931565b34801561024f57600080fd5b506101ae61025e36600461162e565b610a63565b34801561026f57600080fd5b506101ae61027e36600461162e565b610a8e565b34801561028f57600080fd5b507fe0c21cec0df89042d0481b515470acf4b93b792ca3f63efbc999f5bb9716a8f46101d2565b3480156102c257600080fd5b506102d66102d1366004611681565b610b11565b6040516101659190611a2f565b3480156102ef57600080fd5b506101ae610d63565b34801561030457600080fd5b506101d27fa49807205ce4d355092ef5a8a18f56e8913cf4a201fbe287825b095693c2177581565b34801561033857600080fd5b5060015461034c906001600160a01b031681565b6040516001600160a01b039091168152602001610165565b34801561037057600080fd5b506102d661037f366004611616565b610dba565b34801561039057600080fd5b5061015961039f36600461162e565b610fef565b3480156103b057600080fd5b506101596103bf366004611681565b611018565b3480156103d057600080fd5b506101d27fe0c21cec0df89042d0481b515470acf4b93b792ca3f63efbc999f5bb9716a8f481565b34801561040457600080fd5b506101d2600081565b34801561041957600080fd5b506101ae6104283660046115fc565b61105f565b34801561043957600080fd5b506101ae61044836600461162e565b6110e2565b34801561045957600080fd5b506101d2611108565b60008181526004602090815260408083208151608081019092528054825260018101805485948401919061049590611b41565b80601f01602080910402602001604051908101604052809291908181526020018280546104c190611b41565b801561050e5780601f106104e35761010080835404028352916020019161050e565b820191906000526020600020905b8154815290600101906020018083116104f157829003601f168201915b5050505050815260200160028201805461052790611b41565b80601f016020809104026020016040519081016040528092919081815260200182805461055390611b41565b80156105a05780601f10610575576101008083540402835291602001916105a0565b820191906000526020600020905b81548152906001019060200180831161058357829003601f168201915b505050505081526020016003820180546105b990611b41565b80601f01602080910402602001604051908101604052809291908181526020018280546105e590611b41565b80156106325780601f1061060757610100808354040283529160200191610632565b820191906000526020600020905b81548152906001019060200180831161061557829003601f168201915b505050505081525050905080602001516040516020016106529190611890565b6040516020818303038152906040528051906020012061068f7fe0c21cec0df89042d0481b515470acf4b93b792ca3f63efbc999f5bb9716a8f490565b149392505050565b60006001600160e01b03198216637965db0b60e01b14806106c857506301ffc9a760e01b6001600160e01b03198316145b92915050565b600080516020611ba98339815191526106e78133611373565b827ffaaf030a237696352029447cf0ba20b79bcbdd4aa458af2d1de1ad993fe5445f83604051610717919061195d565b60405180910390a2505050565b600080516020611ba983398151915261073d8133611373565b81516000908152600260209081526040808320546060860151915160e082901b6001600160e01b03191681526001600160a01b0392831660048201529281901c9091169163ffffffff90911690602401602060405180830381600087803b1580156107a757600080fd5b505af11580156107bb573d6000803e3d6000fd5b505050506040513d601f19601f820116820180604052508101906107df9190611807565b6000818152600460208181526040808420858155815180830190925260078252663a3bb4ba3a32b960c91b82840190815294869052929091525192935061082c92600190910191906114c0565b50826040015160046000838152602001908152602001600020600201908051906020019061085b9291906114c0565b5060208084015160405161086f92016118ac565b60408051601f1981840301815291815260008381526004602090815291902082516108a393600390920192909101906114c0565b5080600384604001516040516108b99190611890565b9081526040805191829003602001822092909255908401516001916003916108e091611890565b90815260405160209181900382018120600101805460ff1916931515939093179092558451838352917f882c4362c393268eb160b6ae4ecb7d97739d6d962bff8297f7f72b2af01d799f9101610717565b60015460405163cb2859b160e01b81526000916001600160a01b03169063cb2859b1903490610978908a908a908a903090631ed6c886908290630b84be3890600401611970565b6020604051808303818588803b15801561099157600080fd5b505af11580156109a5573d6000803e3d6000fd5b50505050506040513d601f19601f820116820180604052508101906109ca9190611807565b604080516020808201835263ffffffff86811688831b17841b8352600085815260028352849020925183546001600160c01b03191690851c918216640100000000600160c01b0392909216919091171790915590518281529192506001600160a01b038616917f6a2696e81bc18547598d0b304f71f9ec1735b6b43abe58220d183bb3c260d0fb910160405180910390a2505050505050565b600082815260208190526040902060010154610a7f8133611373565b610a8983836113d7565b505050565b6001600160a01b0381163314610b035760405162461bcd60e51b815260206004820152602f60248201527f416363657373436f6e74726f6c3a2063616e206f6e6c792072656e6f756e636560448201526e103937b632b9903337b91039b2b63360891b60648201526084015b60405180910390fd5b610b0d828261145b565b5050565b610b3c6040518060800160405280600081526020016060815260200160608152602001606081525090565b610b4582611018565b15610b625760405162461bcd60e51b8152600401610afa906119e6565b6000600383604051610b749190611890565b9081526040805191829003602090810183205460008181526004835283902060808501909352825484526001830180549195509184019190610bb590611b41565b80601f0160208091040260200160405190810160405280929190818152602001828054610be190611b41565b8015610c2e5780601f10610c0357610100808354040283529160200191610c2e565b820191906000526020600020905b815481529060010190602001808311610c1157829003601f168201915b50505050508152602001600282018054610c4790611b41565b80601f0160208091040260200160405190810160405280929190818152602001828054610c7390611b41565b8015610cc05780601f10610c9557610100808354040283529160200191610cc0565b820191906000526020600020905b815481529060010190602001808311610ca357829003601f168201915b50505050508152602001600382018054610cd990611b41565b80601f0160208091040260200160405190810160405280929190818152602001828054610d0590611b41565b8015610d525780601f10610d2757610100808354040283529160200191610d52565b820191906000526020600020905b815481529060010190602001808311610d3557829003601f168201915b505050505081525050915050919050565b7fa49807205ce4d355092ef5a8a18f56e8913cf4a201fbe287825b095693c21775610d8e8133611373565b60405133904780156108fc02916000818181858888f19350505050158015610b0d573d6000803e3d6000fd5b610de56040518060800160405280600081526020016060815260200160608152602001606081525090565b610dee82610462565b610e0a5760405162461bcd60e51b8152600401610afa906119e6565b6004600083815260200190815260200160002060405180608001604052908160008201548152602001600182018054610e4290611b41565b80601f0160208091040260200160405190810160405280929190818152602001828054610e6e90611b41565b8015610ebb5780601f10610e9057610100808354040283529160200191610ebb565b820191906000526020600020905b815481529060010190602001808311610e9e57829003601f168201915b50505050508152602001600282018054610ed490611b41565b80601f0160208091040260200160405190810160405280929190818152602001828054610f0090611b41565b8015610f4d5780601f10610f2257610100808354040283529160200191610f4d565b820191906000526020600020905b815481529060010190602001808311610f3057829003601f168201915b50505050508152602001600382018054610f6690611b41565b80601f0160208091040260200160405190810160405280929190818152602001828054610f9290611b41565b8015610fdf5780601f10610fb457610100808354040283529160200191610fdf565b820191906000526020600020905b815481529060010190602001808311610fc257829003601f168201915b5050505050815250509050919050565b6000918252602082815260408084206001600160a01b0393909316845291905290205460ff1690565b60008060038360405161102b9190611890565b9081526040805191829003602090810183208383019092528154835260019091015460ff1615801591909201529392505050565b7fa49807205ce4d355092ef5a8a18f56e8913cf4a201fbe287825b095693c2177561108a8133611373565b6001546110af90600080516020611ba9833981519152906001600160a01b03166110e2565b600180546001600160a01b0319166001600160a01b038416179055610b0d600080516020611ba983398151915283610a63565b6000828152602081905260409020600101546110fe8133611373565b610a89838361145b565b600154604080516378bb750960e11b815290516000926001600160a01b03169163f176ea12916004808301926020929190829003018186803b15801561114d57600080fd5b505afa158015611161573d6000803e3d6000fd5b505050506040513d601f19601f820116820180604052508101906111859190611807565b905090565b60606000611199836002611adb565b6111a4906002611ac3565b67ffffffffffffffff8111156111ca57634e487b7160e01b600052604160045260246000fd5b6040519080825280601f01601f1916602001820160405280156111f4576020820181803683370190505b509050600360fc1b8160008151811061121d57634e487b7160e01b600052603260045260246000fd5b60200101906001600160f81b031916908160001a905350600f60fb1b8160018151811061125a57634e487b7160e01b600052603260045260246000fd5b60200101906001600160f81b031916908160001a905350600061127e846002611adb565b611289906001611ac3565b90505b600181111561131d576f181899199a1a9b1b9c1cb0b131b232b360811b85600f16601081106112cb57634e487b7160e01b600052603260045260246000fd5b1a60f81b8282815181106112ef57634e487b7160e01b600052603260045260246000fd5b60200101906001600160f81b031916908160001a90535060049490941c9361131681611b2a565b905061128c565b50831561136c5760405162461bcd60e51b815260206004820181905260248201527f537472696e67733a20686578206c656e67746820696e73756666696369656e746044820152606401610afa565b9392505050565b61137d8282610fef565b610b0d57611395816001600160a01b0316601461118a565b6113a083602061118a565b6040516020016113b19291906118e8565b60408051601f198184030181529082905262461bcd60e51b8252610afa9160040161195d565b6113e18282610fef565b610b0d576000828152602081815260408083206001600160a01b03851684529091529020805460ff191660011790556114173390565b6001600160a01b0316816001600160a01b0316837f2f8788117e7eff1d82e926ec794901d17c78024a50270940304540a733656f0d60405160405180910390a45050565b6114658282610fef565b15610b0d576000828152602081815260408083206001600160a01b0385168085529252808320805460ff1916905551339285917ff6391f5c32d9c69d2a47ea670b442974b53935d1edc7fd64eb21e047a839171b9190a45050565b8280546114cc90611b41565b90600052602060002090601f0160209004810192826114ee5760008555611534565b82601f1061150757805160ff1916838001178555611534565b82800160010185558215611534579182015b82811115611534578251825591602001919060010190611519565b50611540929150611544565b5090565b5b808211156115405760008155600101611545565b80356001600160a01b038116811461157057600080fd5b919050565b600082601f830112611585578081fd5b813567ffffffffffffffff808211156115a0576115a0611b92565b604051601f8301601f19908116603f011681019082821181831017156115c8576115c8611b92565b816040528381528660208588010111156115e0578485fd5b8360208701602083013792830160200193909352509392505050565b60006020828403121561160d578081fd5b61136c82611559565b600060208284031215611627578081fd5b5035919050565b60008060408385031215611640578081fd5b8235915061165060208401611559565b90509250929050565b60006020828403121561166a578081fd5b81356001600160e01b03198116811461136c578182fd5b600060208284031215611692578081fd5b813567ffffffffffffffff8111156116a8578182fd5b6116b484828501611575565b949350505050565b6000806000806000608086880312156116d3578081fd5b853567ffffffffffffffff808211156116ea578283fd5b6116f689838a01611575565b9650602088013591508082111561170b578283fd5b5061171888828901611575565b94505061172760408701611559565b9250606086013567ffffffffffffffff1981168114611744578182fd5b94979396509194505050606082901c9160401c63ffffffff1690565b600060208284031215611771578081fd5b813567ffffffffffffffff80821115611788578283fd5b908301906080828603121561179b578283fd5b6117a3611a9a565b823581526020830135828111156117b8578485fd5b6117c487828601611575565b6020830152506040830135828111156117db578485fd5b6117e787828601611575565b6040830152506117f960608401611559565b606082015295945050505050565b600060208284031215611818578081fd5b5051919050565b60008060408385031215611831578182fd5b82359150602083013567ffffffffffffffff81111561184e578182fd5b61185a85828601611575565b9150509250929050565b6000815180845261187c816020860160208601611afa565b601f01601f19169290920160200192915050565b600082516118a2818460208701611afa565b9190910192915050565b7368747470733a2f2f747769747465722e636f6d2f60601b8152600082516118db816014850160208701611afa565b9190910160140192915050565b7f416363657373436f6e74726f6c3a206163636f756e7420000000000000000000815260008351611920816017850160208801611afa565b7001034b99036b4b9b9b4b733903937b6329607d1b6017918401918201528351611951816028840160208801611afa565b01602801949350505050565b60208152600061136c6020830184611864565b60a08152600061198360a083018a611864565b8281036020840152611995818a611864565b6001600160a01b038916604085015291506119c5905060608301868860201b63ffffffff919091161760401b9052565b63ffffffff8316602085901b1760401b608083015298975050505050505050565b60208082526029908201527f547769747465724d696e7465723a204163636f756e7420776173206e6f742079604082015268195d081b5a5b9d195960ba1b606082015260800190565b60208152815160208201526000602083015160806040840152611a5560a0840182611864565b90506040840151601f1980858403016060860152611a738383611864565b9250606086015191508085840301608086015250611a918282611864565b95945050505050565b6040516080810167ffffffffffffffff81118282101715611abd57611abd611b92565b60405290565b60008219821115611ad657611ad6611b7c565b500190565b6000816000190483118215151615611af557611af5611b7c565b500290565b60005b83811015611b15578181015183820152602001611afd565b83811115611b24576000848401525b50505050565b600081611b3957611b39611b7c565b506000190190565b600181811c90821680611b5557607f821691505b60208210811415611b7657634e487b7160e01b600052602260045260246000fd5b50919050565b634e487b7160e01b600052601160045260246000fd5b634e487b7160e01b600052604160045260246000fdfe14823911f2da1b49f045a0929a60b8c1f2a7fc8c06c7284ca3e8ab4e193a08c8a26469706673582212202b9ef8e200897eab9356d07eaa8fdff939fe059e6be242b1884815052b6fa35664736f6c6343000804003314823911f2da1b49f045a0929a60b8c1f2a7fc8c06c7284ca3e8ab4e193a08c8a49807205ce4d355092ef5a8a18f56e8913cf4a201fbe287825b095693c21775","linkReferences":{},"deployedLinkReferences":{}}