{"_format":"hh-sol-artifact-1","contractName":"TwitterPostMinter","sourceName":"contracts/minters/TwitterPostMinter.sol","abi":[{"inputs":[{"internalType":"address","name":"twitterPostOracleAddress","type":"address"}],"stateMutability":"nonpayable","type":"constructor"},{"anonymous":false,"inputs":[{"indexed":true,"internalType":"bytes32","name":"role","type":"bytes32"},{"indexed":true,"internalType":"bytes32","name":"previousAdminRole","type":"bytes32"},{"indexed":true,"internalType":"bytes32","name":"newAdminRole","type":"bytes32"}],"name":"RoleAdminChanged","type":"event"},{"anonymous":false,"inputs":[{"indexed":true,"internalType":"bytes32","name":"role","type":"bytes32"},{"indexed":true,"internalType":"address","name":"account","type":"address"},{"indexed":true,"internalType":"address","name":"sender","type":"address"}],"name":"RoleGranted","type":"event"},{"anonymous":false,"inputs":[{"indexed":true,"internalType":"bytes32","name":"role","type":"bytes32"},{"indexed":true,"internalType":"address","name":"account","type":"address"},{"indexed":true,"internalType":"address","name":"sender","type":"address"}],"name":"RoleRevoked","type":"event"},{"anonymous":false,"inputs":[{"indexed":true,"internalType":"uint256","name":"requestId","type":"uint256"},{"indexed":false,"internalType":"string","name":"error","type":"string"}],"name":"TwitterPostRequestFailed","type":"event"},{"anonymous":false,"inputs":[{"indexed":true,"internalType":"address","name":"sender","type":"address"},{"indexed":false,"internalType":"uint256","name":"requestId","type":"uint256"}],"name":"TwitterPostRequestSubmited","type":"event"},{"anonymous":false,"inputs":[{"indexed":true,"internalType":"uint256","name":"requestId","type":"uint256"},{"indexed":false,"internalType":"uint256","name":"tokenId","type":"uint256"}],"name":"TwitterPostRequestSucceeded","type":"event"},{"inputs":[],"name":"ADMIN_ROLE","outputs":[{"internalType":"bytes32","name":"","type":"bytes32"}],"stateMutability":"view","type":"function"},{"inputs":[],"name":"DEFAULT_ADMIN_ROLE","outputs":[{"internalType":"bytes32","name":"","type":"bytes32"}],"stateMutability":"view","type":"function"},{"inputs":[],"name":"USER_ROLE","outputs":[{"internalType":"bytes32","name":"","type":"bytes32"}],"stateMutability":"view","type":"function"},{"inputs":[{"internalType":"uint256","name":"reqId","type":"uint256"},{"internalType":"string","name":"err","type":"string"}],"name":"failMint","outputs":[],"stateMutability":"nonpayable","type":"function"},{"inputs":[],"name":"getPriceWEI","outputs":[{"internalType":"uint256","name":"","type":"uint256"}],"stateMutability":"view","type":"function"},{"inputs":[{"internalType":"bytes32","name":"role","type":"bytes32"}],"name":"getRoleAdmin","outputs":[{"internalType":"bytes32","name":"","type":"bytes32"}],"stateMutability":"view","type":"function"},{"inputs":[{"internalType":"bytes32","name":"role","type":"bytes32"},{"internalType":"address","name":"account","type":"address"}],"name":"grantRole","outputs":[],"stateMutability":"nonpayable","type":"function"},{"inputs":[{"internalType":"bytes32","name":"role","type":"bytes32"},{"internalType":"address","name":"account","type":"address"}],"name":"hasRole","outputs":[{"internalType":"bool","name":"","type":"bool"}],"stateMutability":"view","type":"function"},{"inputs":[],"name":"oracle","outputs":[{"internalType":"contract TwitterPostOracle","name":"","type":"address"}],"stateMutability":"view","type":"function"},{"inputs":[{"internalType":"bytes32","name":"role","type":"bytes32"},{"internalType":"address","name":"account","type":"address"}],"name":"renounceRole","outputs":[],"stateMutability":"nonpayable","type":"function"},{"inputs":[],"name":"retrieveFunds","outputs":[],"stateMutability":"nonpayable","type":"function"},{"inputs":[{"internalType":"bytes32","name":"role","type":"bytes32"},{"internalType":"address","name":"account","type":"address"}],"name":"revokeRole","outputs":[],"stateMutability":"nonpayable","type":"function"},{"inputs":[{"internalType":"address","name":"twitterPostOracleAddress","type":"address"}],"name":"setTwitterPostOracle","outputs":[],"stateMutability":"nonpayable","type":"function"},{"inputs":[{"internalType":"string","name":"postId","type":"string"},{"internalType":"address","name":"owner","type":"address"},{"internalType":"function (string,string,string,address) external returns (uint256)","name":"cb","type":"function"}],"name":"startMint","outputs":[],"stateMutability":"payable","type":"function"},{"inputs":[{"components":[{"internalType":"uint256","name":"requestId","type":"uint256"},{"internalType":"string","name":"postId","type":"string"},{"internalType":"string","name":"postUrl","type":"string"},{"internalType":"address","name":"owner","type":"address"}],"internalType":"struct TwitterPostData.Response","name":"res","type":"tuple"}],"name":"succeedMint","outputs":[],"stateMutability":"nonpayable","type":"function"},{"inputs":[{"internalType":"bytes4","name":"interfaceId","type":"bytes4"}],"name":"supportsInterface","outputs":[{"internalType":"bool","name":"","type":"bool"}],"stateMutability":"view","type":"function"}],"bytecode":"0x60806040523480156200001157600080fd5b506040516200171038038062001710833981016040819052620000349162000494565b600180546001600160a01b0319166001600160a01b0383161790556200006360006200005d3390565b620000ca565b6200007e600080516020620016f083398151915233620000ca565b620000a8600080516020620016f0833981519152600080516020620016d0833981519152620000da565b620000c3600080516020620016d08339815191528262000125565b506200060b565b620000d6828262000154565b5050565b600082815260208190526040808220600101805490849055905190918391839186917fbd79b86ffe0ab8e8776151514217cd7cacd52c909f66475c3af44e129f0b00ff9190a4505050565b600082815260208190526040902060010154620001438133620001f4565b6200014f838362000154565b505050565b6000828152602081815260408083206001600160a01b038516845290915290205460ff16620000d6576000828152602081815260408083206001600160a01b03851684529091529020805460ff19166001179055620001b03390565b6001600160a01b0316816001600160a01b0316837f2f8788117e7eff1d82e926ec794901d17c78024a50270940304540a733656f0d60405160405180910390a45050565b6000828152602081815260408083206001600160a01b038516845290915290205460ff16620000d6576200023e816001600160a01b031660146200029860201b6200083a1760201c565b620002548360206200083a62000298821b17811c565b60405160200162000267929190620004bd565b60408051601f198184030181529082905262461bcd60e51b82526200028f9160040162000536565b60405180910390fd5b60606000620002a983600262000586565b620002b69060026200056b565b6001600160401b03811115620002dc57634e487b7160e01b600052604160045260246000fd5b6040519080825280601f01601f19166020018201604052801562000307576020820181803683370190505b509050600360fc1b816000815181106200033157634e487b7160e01b600052603260045260246000fd5b60200101906001600160f81b031916908160001a905350600f60fb1b816001815181106200036f57634e487b7160e01b600052603260045260246000fd5b60200101906001600160f81b031916908160001a90535060006200039584600262000586565b620003a29060016200056b565b90505b60018111156200043c576f181899199a1a9b1b9c1cb0b131b232b360811b85600f1660108110620003e657634e487b7160e01b600052603260045260246000fd5b1a60f81b8282815181106200040b57634e487b7160e01b600052603260045260246000fd5b60200101906001600160f81b031916908160001a90535060049490941c936200043481620005db565b9050620003a5565b5083156200048d5760405162461bcd60e51b815260206004820181905260248201527f537472696e67733a20686578206c656e67746820696e73756666696369656e7460448201526064016200028f565b9392505050565b600060208284031215620004a6578081fd5b81516001600160a01b03811681146200048d578182fd5b7f416363657373436f6e74726f6c3a206163636f756e7420000000000000000000815260008351620004f7816017850160208801620005a8565b7001034b99036b4b9b9b4b733903937b6329607d1b60179184019182015283516200052a816028840160208801620005a8565b01602801949350505050565b602081526000825180602084015262000557816040850160208701620005a8565b601f01601f19169190910160400192915050565b60008219821115620005815762000581620005f5565b500190565b6000816000190483118215151615620005a357620005a3620005f5565b500290565b60005b83811015620005c5578181015183820152602001620005ab565b83811115620005d5576000848401525b50505050565b600081620005ed57620005ed620005f5565b506000190190565b634e487b7160e01b600052601160045260246000fd5b6110b5806200061b6000396000f3fe6080604052600436106100f35760003560e01c806361b20d8c1161008a57806391d148541161005957806391d14854146102c3578063a217fddf146102e3578063d547741f146102f8578063ee0f9d3b1461031857600080fd5b806361b20d8c1461022f578063744cc5411461024457806375b238fc146102575780637dc0d1d01461028b57600080fd5b8063248a9ca3116100c6578063248a9ca31461019f57806328893243146101cf5780632f2ff15d146101ef57806336568abe1461020f57600080fd5b806301ffc9a7146100f85780630b84be381461012d578063131191611461014f5780631ed6c8861461017f575b600080fd5b34801561010457600080fd5b50610118610113366004610c70565b61032d565b60405190151581526020015b60405180910390f35b34801561013957600080fd5b5061014d610148366004610dd6565b610364565b005b34801561015b57600080fd5b5061017160008051602061106083398151915281565b604051908152602001610124565b34801561018b57600080fd5b5061014d61019a366004610d17565b6103ba565b3480156101ab57600080fd5b506101716101ba366004610c2d565b60009081526020819052604090206001015490565b3480156101db57600080fd5b5061014d6101ea366004610c13565b6104b2565b3480156101fb57600080fd5b5061014d61020a366004610c45565b610539565b34801561021b57600080fd5b5061014d61022a366004610c45565b610564565b34801561023b57600080fd5b5061014d6105e3565b61014d610252366004610c98565b61063a565b34801561026357600080fd5b506101717fa49807205ce4d355092ef5a8a18f56e8913cf4a201fbe287825b095693c2177581565b34801561029757600080fd5b506001546102ab906001600160a01b031681565b6040516001600160a01b039091168152602001610124565b3480156102cf57600080fd5b506101186102de366004610c45565b610769565b3480156102ef57600080fd5b50610171600081565b34801561030457600080fd5b5061014d610313366004610c45565b610792565b34801561032457600080fd5b506101716107b8565b60006001600160e01b03198216637965db0b60e01b148061035e57506301ffc9a760e01b6001600160e01b03198316145b92915050565b60008051602061106083398151915261037d8133610a23565b827f7136a183484f92779d08edbdd2743be94f52255e7a25d7c173a4005a9bb0e1dd836040516103ad9190610ebc565b60405180910390a2505050565b6000805160206110608339815191526103d38133610a23565b815160009081526002602090815260408083205482860151828701516060880151935160e084901b6001600160e01b03191681529483901c6001600160a01b03169463ffffffff9093169361042a93600401610f30565b602060405180830381600087803b15801561044457600080fd5b505af1158015610458573d6000803e3d6000fd5b505050506040513d601f19601f8201168201806040525081019061047c9190610dbe565b8351604051828152919250907f043a4115f690dc8261bf759c1e71c3e45f226c3d8a6796daeee4fa280bd619dc906020016103ad565b7fa49807205ce4d355092ef5a8a18f56e8913cf4a201fbe287825b095693c217756104dd8133610a23565b60015461050290600080516020611060833981519152906001600160a01b0316610792565b600180546001600160a01b0319166001600160a01b03841617905561053560008051602061106083398151915283610539565b5050565b6000828152602081905260409020600101546105558133610a23565b61055f8383610a87565b505050565b6001600160a01b03811633146105d95760405162461bcd60e51b815260206004820152602f60248201527f416363657373436f6e74726f6c3a2063616e206f6e6c792072656e6f756e636560448201526e103937b632b9903337b91039b2b63360891b60648201526084015b60405180910390fd5b6105358282610b0b565b7fa49807205ce4d355092ef5a8a18f56e8913cf4a201fbe287825b095693c2177561060e8133610a23565b60405133904780156108fc02916000818181858888f19350505050158015610535573d6000803e3d6000fd5b6001546040516302099cb760e61b81526000916001600160a01b0316906382672dc090349061067f90899089903090631ed6c886908290630b84be3890600401610ecf565b6020604051808303818588803b15801561069857600080fd5b505af11580156106ac573d6000803e3d6000fd5b50505050506040513d601f19601f820116820180604052508101906106d19190610dbe565b604080516020808201835263ffffffff86811688831b17841b8352600085815260028352849020925183546001600160c01b03191690851c918216640100000000600160c01b0392909216919091171790915590518281529192506001600160a01b038616917fecb0cdc6ecf180bc1f7f444d9c9958e2241a3ba847c393ddba9460016f4fbef7910160405180910390a25050505050565b6000918252602082815260408084206001600160a01b0393909316845291905290205460ff1690565b6000828152602081905260409020600101546107ae8133610a23565b61055f8383610b0b565b600154604080516378bb750960e11b815290516000926001600160a01b03169163f176ea12916004808301926020929190829003018186803b1580156107fd57600080fd5b505afa158015610811573d6000803e3d6000fd5b505050506040513d601f19601f820116820180604052508101906108359190610dbe565b905090565b60606000610849836002610fcd565b610854906002610fb5565b67ffffffffffffffff81111561087a57634e487b7160e01b600052604160045260246000fd5b6040519080825280601f01601f1916602001820160405280156108a4576020820181803683370190505b509050600360fc1b816000815181106108cd57634e487b7160e01b600052603260045260246000fd5b60200101906001600160f81b031916908160001a905350600f60fb1b8160018151811061090a57634e487b7160e01b600052603260045260246000fd5b60200101906001600160f81b031916908160001a905350600061092e846002610fcd565b610939906001610fb5565b90505b60018111156109cd576f181899199a1a9b1b9c1cb0b131b232b360811b85600f166010811061097b57634e487b7160e01b600052603260045260246000fd5b1a60f81b82828151811061099f57634e487b7160e01b600052603260045260246000fd5b60200101906001600160f81b031916908160001a90535060049490941c936109c68161101c565b905061093c565b508315610a1c5760405162461bcd60e51b815260206004820181905260248201527f537472696e67733a20686578206c656e67746820696e73756666696369656e7460448201526064016105d0565b9392505050565b610a2d8282610769565b61053557610a45816001600160a01b0316601461083a565b610a5083602061083a565b604051602001610a61929190610e47565b60408051601f198184030181529082905262461bcd60e51b82526105d091600401610ebc565b610a918282610769565b610535576000828152602081815260408083206001600160a01b03851684529091529020805460ff19166001179055610ac73390565b6001600160a01b0316816001600160a01b0316837f2f8788117e7eff1d82e926ec794901d17c78024a50270940304540a733656f0d60405160405180910390a45050565b610b158282610769565b15610535576000828152602081815260408083206001600160a01b0385168085529252808320805460ff1916905551339285917ff6391f5c32d9c69d2a47ea670b442974b53935d1edc7fd64eb21e047a839171b9190a45050565b80356001600160a01b0381168114610b8757600080fd5b919050565b600082601f830112610b9c578081fd5b813567ffffffffffffffff80821115610bb757610bb7611049565b604051601f8301601f19908116603f01168101908282118183101715610bdf57610bdf611049565b81604052838152866020858801011115610bf7578485fd5b8360208701602083013792830160200193909352509392505050565b600060208284031215610c24578081fd5b610a1c82610b70565b600060208284031215610c3e578081fd5b5035919050565b60008060408385031215610c57578081fd5b82359150610c6760208401610b70565b90509250929050565b600060208284031215610c81578081fd5b81356001600160e01b031981168114610a1c578182fd5b60008060008060608587031215610cad578182fd5b843567ffffffffffffffff811115610cc3578283fd5b610ccf87828801610b8c565b945050610cde60208601610b70565b9250604085013567ffffffffffffffff1981168114610cfb578283fd5b8060601c925063ffffffff8160401c1691505092959194509250565b600060208284031215610d28578081fd5b813567ffffffffffffffff80821115610d3f578283fd5b9083019060808286031215610d52578283fd5b610d5a610f8c565b82358152602083013582811115610d6f578485fd5b610d7b87828601610b8c565b602083015250604083013582811115610d92578485fd5b610d9e87828601610b8c565b604083015250610db060608401610b70565b606082015295945050505050565b600060208284031215610dcf578081fd5b5051919050565b60008060408385031215610de8578182fd5b82359150602083013567ffffffffffffffff811115610e05578182fd5b610e1185828601610b8c565b9150509250929050565b60008151808452610e33816020860160208601610fec565b601f01601f19169290920160200192915050565b7f416363657373436f6e74726f6c3a206163636f756e7420000000000000000000815260008351610e7f816017850160208801610fec565b7001034b99036b4b9b9b4b733903937b6329607d1b6017918401918201528351610eb0816028840160208801610fec565b01602801949350505050565b602081526000610a1c6020830184610e1b565b608081526000610ee26080830189610e1b565b6001600160a01b03881660208401529050610f1060408301868860201b63ffffffff919091161760401b9052565b63ffffffff8316602085901b1760401b6060830152979650505050505050565b6080815260076080820152663a3bb4ba3a32b960c91b60a082015260c060208201526000610f6160c0830186610e1b565b8281036040840152610f738186610e1b565b91505060018060a01b0383166060830152949350505050565b6040516080810167ffffffffffffffff81118282101715610faf57610faf611049565b60405290565b60008219821115610fc857610fc8611033565b500190565b6000816000190483118215151615610fe757610fe7611033565b500290565b60005b83811015611007578181015183820152602001610fef565b83811115611016576000848401525b50505050565b60008161102b5761102b611033565b506000190190565b634e487b7160e01b600052601160045260246000fd5b634e487b7160e01b600052604160045260246000fdfe14823911f2da1b49f045a0929a60b8c1f2a7fc8c06c7284ca3e8ab4e193a08c8a2646970667358221220ee1b8db12c057cff915fa8f4aeb9f8cee5ffa6172fe506042e124eabeed0d07d64736f6c6343000804003314823911f2da1b49f045a0929a60b8c1f2a7fc8c06c7284ca3e8ab4e193a08c8a49807205ce4d355092ef5a8a18f56e8913cf4a201fbe287825b095693c21775","linkReferences":{},"deployedLinkReferences":{}}