{"_format":"hh-sol-artifact-1","contractName":"TwitterPostMinter","sourceName":"contracts/minters/TwitterPostMinter.sol","abi":[{"inputs":[{"internalType":"address","name":"twitterPostOracleAddress","type":"address"}],"stateMutability":"nonpayable","type":"constructor"},{"anonymous":false,"inputs":[{"indexed":true,"internalType":"bytes32","name":"role","type":"bytes32"},{"indexed":true,"internalType":"bytes32","name":"previousAdminRole","type":"bytes32"},{"indexed":true,"internalType":"bytes32","name":"newAdminRole","type":"bytes32"}],"name":"RoleAdminChanged","type":"event"},{"anonymous":false,"inputs":[{"indexed":true,"internalType":"bytes32","name":"role","type":"bytes32"},{"indexed":true,"internalType":"address","name":"account","type":"address"},{"indexed":true,"internalType":"address","name":"sender","type":"address"}],"name":"RoleGranted","type":"event"},{"anonymous":false,"inputs":[{"indexed":true,"internalType":"bytes32","name":"role","type":"bytes32"},{"indexed":true,"internalType":"address","name":"account","type":"address"},{"indexed":true,"internalType":"address","name":"sender","type":"address"}],"name":"RoleRevoked","type":"event"},{"anonymous":false,"inputs":[{"indexed":true,"internalType":"uint256","name":"requestId","type":"uint256"},{"indexed":false,"internalType":"string","name":"error","type":"string"}],"name":"TwitterPostRequestFailed","type":"event"},{"anonymous":false,"inputs":[{"indexed":true,"internalType":"address","name":"sender","type":"address"},{"indexed":false,"internalType":"uint256","name":"requestId","type":"uint256"}],"name":"TwitterPostRequestSubmited","type":"event"},{"anonymous":false,"inputs":[{"indexed":true,"internalType":"uint256","name":"requestId","type":"uint256"},{"indexed":false,"internalType":"uint256","name":"tokenId","type":"uint256"}],"name":"TwitterPostRequestSucceeded","type":"event"},{"inputs":[],"name":"ADMIN_ROLE","outputs":[{"internalType":"bytes32","name":"","type":"bytes32"}],"stateMutability":"view","type":"function"},{"inputs":[],"name":"DEFAULT_ADMIN_ROLE","outputs":[{"internalType":"bytes32","name":"","type":"bytes32"}],"stateMutability":"view","type":"function"},{"inputs":[],"name":"USER_ROLE","outputs":[{"internalType":"bytes32","name":"","type":"bytes32"}],"stateMutability":"view","type":"function"},{"inputs":[{"internalType":"uint256","name":"reqId","type":"uint256"},{"internalType":"string","name":"err","type":"string"}],"name":"failMint","outputs":[],"stateMutability":"nonpayable","type":"function"},{"inputs":[],"name":"getPriceWEI","outputs":[{"internalType":"uint256","name":"","type":"uint256"}],"stateMutability":"view","type":"function"},{"inputs":[{"internalType":"bytes32","name":"role","type":"bytes32"}],"name":"getRoleAdmin","outputs":[{"internalType":"bytes32","name":"","type":"bytes32"}],"stateMutability":"view","type":"function"},{"inputs":[{"internalType":"bytes32","name":"role","type":"bytes32"},{"internalType":"address","name":"account","type":"address"}],"name":"grantRole","outputs":[],"stateMutability":"nonpayable","type":"function"},{"inputs":[{"internalType":"bytes32","name":"role","type":"bytes32"},{"internalType":"address","name":"account","type":"address"}],"name":"hasRole","outputs":[{"internalType":"bool","name":"","type":"bool"}],"stateMutability":"view","type":"function"},{"inputs":[],"name":"oracle","outputs":[{"internalType":"contract TwitterPostOracle","name":"","type":"address"}],"stateMutability":"view","type":"function"},{"inputs":[{"internalType":"bytes32","name":"role","type":"bytes32"},{"internalType":"address","name":"account","type":"address"}],"name":"renounceRole","outputs":[],"stateMutability":"nonpayable","type":"function"},{"inputs":[],"name":"retrieveFunds","outputs":[],"stateMutability":"nonpayable","type":"function"},{"inputs":[{"internalType":"bytes32","name":"role","type":"bytes32"},{"internalType":"address","name":"account","type":"address"}],"name":"revokeRole","outputs":[],"stateMutability":"nonpayable","type":"function"},{"inputs":[{"internalType":"string","name":"postId","type":"string"},{"internalType":"address","name":"owner","type":"address"},{"internalType":"function (string,string,string,address) external returns (uint256)","name":"cb","type":"function"}],"name":"startMint","outputs":[],"stateMutability":"payable","type":"function"},{"inputs":[{"components":[{"internalType":"uint256","name":"requestId","type":"uint256"},{"internalType":"string","name":"postId","type":"string"},{"internalType":"string","name":"postUrl","type":"string"},{"internalType":"address","name":"owner","type":"address"}],"internalType":"struct TwitterPostData.Response","name":"res","type":"tuple"}],"name":"succeedMint","outputs":[],"stateMutability":"nonpayable","type":"function"},{"inputs":[{"internalType":"bytes4","name":"interfaceId","type":"bytes4"}],"name":"supportsInterface","outputs":[{"internalType":"bool","name":"","type":"bool"}],"stateMutability":"view","type":"function"}],"bytecode":"0x60806040523480156200001157600080fd5b506040516200123b3803806200123b8339810160408190526200003491620001b8565b600180546001600160a01b0319166001600160a01b038316179055620000716000805160206200121b8339815191526200006b3390565b620000bd565b6200009b6000805160206200121b833981519152600080516020620011fb833981519152620000cd565b620000b6600080516020620011fb83398151915282620000bd565b50620001e8565b620000c9828262000118565b5050565b600082815260208190526040808220600101805490849055905190918391839186917fbd79b86ffe0ab8e8776151514217cd7cacd52c909f66475c3af44e129f0b00ff9190a4505050565b6000828152602081815260408083206001600160a01b038516845290915290205460ff16620000c9576000828152602081815260408083206001600160a01b03851684529091529020805460ff19166001179055620001743390565b6001600160a01b0316816001600160a01b0316837f2f8788117e7eff1d82e926ec794901d17c78024a50270940304540a733656f0d60405160405180910390a45050565b600060208284031215620001ca578081fd5b81516001600160a01b0381168114620001e1578182fd5b9392505050565b61100380620001f86000396000f3fe6080604052600436106100e85760003560e01c806361b20d8c1161008a57806391d148541161005957806391d14854146102aa578063a217fddf146102ca578063d547741f146102df578063ee0f9d3b146102ff57600080fd5b806361b20d8c14610216578063744cc5411461022b57806375b238fc1461023e5780637dc0d1d01461027257600080fd5b80631ed6c886116100c65780631ed6c88614610186578063248a9ca3146101a65780632f2ff15d146101d657806336568abe146101f657600080fd5b806301ffc9a7146100ed5780630b84be38146101225780631311916114610144575b600080fd5b3480156100f957600080fd5b5061010d610108366004610bde565b610314565b60405190151581526020015b60405180910390f35b34801561012e57600080fd5b5061014261013d366004610d44565b61034b565b005b34801561015057600080fd5b506101787f14823911f2da1b49f045a0929a60b8c1f2a7fc8c06c7284ca3e8ab4e193a08c881565b604051908152602001610119565b34801561019257600080fd5b506101426101a1366004610c85565b6103b3565b3480156101b257600080fd5b506101786101c1366004610b9b565b60009081526020819052604090206001015490565b3480156101e257600080fd5b506101426101f1366004610bb3565b6104bd565b34801561020257600080fd5b50610142610211366004610bb3565b6104e8565b34801561022257600080fd5b5061014261056b565b610142610239366004610c06565b6105c2565b34801561024a57600080fd5b506101787fa49807205ce4d355092ef5a8a18f56e8913cf4a201fbe287825b095693c2177581565b34801561027e57600080fd5b50600154610292906001600160a01b031681565b6040516001600160a01b039091168152602001610119565b3480156102b657600080fd5b5061010d6102c5366004610bb3565b6106f1565b3480156102d657600080fd5b50610178600081565b3480156102eb57600080fd5b506101426102fa366004610bb3565b61071a565b34801561030b57600080fd5b50610178610740565b60006001600160e01b03198216637965db0b60e01b148061034557506301ffc9a760e01b6001600160e01b03198316145b92915050565b7f14823911f2da1b49f045a0929a60b8c1f2a7fc8c06c7284ca3e8ab4e193a08c861037681336107c2565b827f7136a183484f92779d08edbdd2743be94f52255e7a25d7c173a4005a9bb0e1dd836040516103a69190610e2a565b60405180910390a2505050565b7f14823911f2da1b49f045a0929a60b8c1f2a7fc8c06c7284ca3e8ab4e193a08c86103de81336107c2565b815160009081526002602090815260408083205482860151828701516060880151935160e084901b6001600160e01b03191681529483901c6001600160a01b03169463ffffffff9093169361043593600401610e9e565b602060405180830381600087803b15801561044f57600080fd5b505af1158015610463573d6000803e3d6000fd5b505050506040513d601f19601f820116820180604052508101906104879190610d2c565b8351604051828152919250907f043a4115f690dc8261bf759c1e71c3e45f226c3d8a6796daeee4fa280bd619dc906020016103a6565b6000828152602081905260409020600101546104d981336107c2565b6104e38383610826565b505050565b6001600160a01b038116331461055d5760405162461bcd60e51b815260206004820152602f60248201527f416363657373436f6e74726f6c3a2063616e206f6e6c792072656e6f756e636560448201526e103937b632b9903337b91039b2b63360891b60648201526084015b60405180910390fd5b61056782826108aa565b5050565b7fa49807205ce4d355092ef5a8a18f56e8913cf4a201fbe287825b095693c2177561059681336107c2565b60405133904780156108fc02916000818181858888f19350505050158015610567573d6000803e3d6000fd5b6001546040516302099cb760e61b81526000916001600160a01b0316906382672dc090349061060790899089903090631ed6c886908290630b84be3890600401610e3d565b6020604051808303818588803b15801561062057600080fd5b505af1158015610634573d6000803e3d6000fd5b50505050506040513d601f19601f820116820180604052508101906106599190610d2c565b604080516020808201835263ffffffff86811688831b17841b8352600085815260028352849020925183546001600160c01b03191690851c918216640100000000600160c01b0392909216919091171790915590518281529192506001600160a01b038616917fecb0cdc6ecf180bc1f7f444d9c9958e2241a3ba847c393ddba9460016f4fbef7910160405180910390a25050505050565b6000918252602082815260408084206001600160a01b0393909316845291905290205460ff1690565b60008281526020819052604090206001015461073681336107c2565b6104e383836108aa565b600154604080516378bb750960e11b815290516000926001600160a01b03169163f176ea12916004808301926020929190829003018186803b15801561078557600080fd5b505afa158015610799573d6000803e3d6000fd5b505050506040513d601f19601f820116820180604052508101906107bd9190610d2c565b905090565b6107cc82826106f1565b610567576107e4816001600160a01b0316601461090f565b6107ef83602061090f565b604051602001610800929190610db5565b60408051601f198184030181529082905262461bcd60e51b825261055491600401610e2a565b61083082826106f1565b610567576000828152602081815260408083206001600160a01b03851684529091529020805460ff191660011790556108663390565b6001600160a01b0316816001600160a01b0316837f2f8788117e7eff1d82e926ec794901d17c78024a50270940304540a733656f0d60405160405180910390a45050565b6108b482826106f1565b15610567576000828152602081815260408083206001600160a01b0385168085529252808320805460ff1916905551339285917ff6391f5c32d9c69d2a47ea670b442974b53935d1edc7fd64eb21e047a839171b9190a45050565b6060600061091e836002610f3b565b610929906002610f23565b67ffffffffffffffff81111561094f57634e487b7160e01b600052604160045260246000fd5b6040519080825280601f01601f191660200182016040528015610979576020820181803683370190505b509050600360fc1b816000815181106109a257634e487b7160e01b600052603260045260246000fd5b60200101906001600160f81b031916908160001a905350600f60fb1b816001815181106109df57634e487b7160e01b600052603260045260246000fd5b60200101906001600160f81b031916908160001a9053506000610a03846002610f3b565b610a0e906001610f23565b90505b6001811115610aa2576f181899199a1a9b1b9c1cb0b131b232b360811b85600f1660108110610a5057634e487b7160e01b600052603260045260246000fd5b1a60f81b828281518110610a7457634e487b7160e01b600052603260045260246000fd5b60200101906001600160f81b031916908160001a90535060049490941c93610a9b81610f8a565b9050610a11565b508315610af15760405162461bcd60e51b815260206004820181905260248201527f537472696e67733a20686578206c656e67746820696e73756666696369656e746044820152606401610554565b9392505050565b80356001600160a01b0381168114610b0f57600080fd5b919050565b600082601f830112610b24578081fd5b813567ffffffffffffffff80821115610b3f57610b3f610fb7565b604051601f8301601f19908116603f01168101908282118183101715610b6757610b67610fb7565b81604052838152866020858801011115610b7f578485fd5b8360208701602083013792830160200193909352509392505050565b600060208284031215610bac578081fd5b5035919050565b60008060408385031215610bc5578081fd5b82359150610bd560208401610af8565b90509250929050565b600060208284031215610bef578081fd5b81356001600160e01b031981168114610af1578182fd5b60008060008060608587031215610c1b578182fd5b843567ffffffffffffffff811115610c31578283fd5b610c3d87828801610b14565b945050610c4c60208601610af8565b9250604085013567ffffffffffffffff1981168114610c69578283fd5b8060601c925063ffffffff8160401c1691505092959194509250565b600060208284031215610c96578081fd5b813567ffffffffffffffff80821115610cad578283fd5b9083019060808286031215610cc0578283fd5b610cc8610efa565b82358152602083013582811115610cdd578485fd5b610ce987828601610b14565b602083015250604083013582811115610d00578485fd5b610d0c87828601610b14565b604083015250610d1e60608401610af8565b606082015295945050505050565b600060208284031215610d3d578081fd5b5051919050565b60008060408385031215610d56578182fd5b82359150602083013567ffffffffffffffff811115610d73578182fd5b610d7f85828601610b14565b9150509250929050565b60008151808452610da1816020860160208601610f5a565b601f01601f19169290920160200192915050565b7f416363657373436f6e74726f6c3a206163636f756e7420000000000000000000815260008351610ded816017850160208801610f5a565b7001034b99036b4b9b9b4b733903937b6329607d1b6017918401918201528351610e1e816028840160208801610f5a565b01602801949350505050565b602081526000610af16020830184610d89565b608081526000610e506080830189610d89565b6001600160a01b03881660208401529050610e7e60408301868860201b63ffffffff919091161760401b9052565b63ffffffff8316602085901b1760401b6060830152979650505050505050565b6080815260076080820152663a3bb4ba3a32b960c91b60a082015260c060208201526000610ecf60c0830186610d89565b8281036040840152610ee18186610d89565b91505060018060a01b0383166060830152949350505050565b6040516080810167ffffffffffffffff81118282101715610f1d57610f1d610fb7565b60405290565b60008219821115610f3657610f36610fa1565b500190565b6000816000190483118215151615610f5557610f55610fa1565b500290565b60005b83811015610f75578181015183820152602001610f5d565b83811115610f84576000848401525b50505050565b600081610f9957610f99610fa1565b506000190190565b634e487b7160e01b600052601160045260246000fd5b634e487b7160e01b600052604160045260246000fdfea264697066735822122019ae80376a0c0fc108203c075b8774e726f0aab51f73baa2707b5a74c3f25dd264736f6c6343000804003314823911f2da1b49f045a0929a60b8c1f2a7fc8c06c7284ca3e8ab4e193a08c8a49807205ce4d355092ef5a8a18f56e8913cf4a201fbe287825b095693c21775","linkReferences":{},"deployedLinkReferences":{}}