{"_format":"hh-sol-artifact-1","contractName":"TwitterPostOracle","sourceName":"contracts/oracles/TwitterPostOracle.sol","abi":[{"inputs":[],"stateMutability":"nonpayable","type":"constructor"},{"anonymous":false,"inputs":[{"indexed":false,"internalType":"uint256","name":"requestId","type":"uint256"}],"name":"NewPendingRequest","type":"event"},{"anonymous":false,"inputs":[{"indexed":true,"internalType":"address","name":"previousOwner","type":"address"},{"indexed":true,"internalType":"address","name":"newOwner","type":"address"}],"name":"OwnershipTransferred","type":"event"},{"anonymous":false,"inputs":[{"indexed":false,"internalType":"uint256[]","name":"requestsIds","type":"uint256[]"},{"indexed":false,"internalType":"uint8","name":"count","type":"uint8"}],"name":"RetrievePendingRequestsFromQueue","type":"event"},{"inputs":[{"internalType":"uint256","name":"id","type":"uint256"},{"internalType":"string","name":"err","type":"string"}],"name":"failed","outputs":[],"stateMutability":"nonpayable","type":"function"},{"inputs":[],"name":"getPendingRequestsIdsFromQueue","outputs":[{"internalType":"uint8","name":"count","type":"uint8"}],"stateMutability":"nonpayable","type":"function"},{"inputs":[{"internalType":"uint256","name":"id","type":"uint256"}],"name":"getRequestById","outputs":[{"components":[{"internalType":"address","name":"owner","type":"address"},{"internalType":"uint256","name":"id","type":"uint256"},{"internalType":"string","name":"postId","type":"string"},{"internalType":"uint8","name":"status","type":"uint8"},{"internalType":"string","name":"err","type":"string"}],"internalType":"struct TwitterPostData.RequestSerialized","name":"","type":"tuple"}],"stateMutability":"view","type":"function"},{"inputs":[{"internalType":"address","name":"owner","type":"address"}],"name":"getRequestsForAddress","outputs":[{"components":[{"internalType":"address","name":"owner","type":"address"},{"internalType":"uint256","name":"id","type":"uint256"},{"internalType":"string","name":"postId","type":"string"},{"internalType":"uint8","name":"status","type":"uint8"},{"internalType":"string","name":"err","type":"string"}],"internalType":"struct TwitterPostData.RequestSerialized[]","name":"","type":"tuple[]"}],"stateMutability":"view","type":"function"},{"inputs":[],"name":"owner","outputs":[{"internalType":"address","name":"","type":"address"}],"stateMutability":"view","type":"function"},{"inputs":[],"name":"priceWEI","outputs":[{"internalType":"uint256","name":"","type":"uint256"}],"stateMutability":"view","type":"function"},{"inputs":[],"name":"renounceOwnership","outputs":[],"stateMutability":"nonpayable","type":"function"},{"inputs":[{"internalType":"string","name":"postId","type":"string"},{"internalType":"address","name":"owner","type":"address"},{"internalType":"function (struct TwitterPostData.Response) external","name":"successCallback","type":"function"},{"internalType":"function (uint256,string) external","name":"failureCallback","type":"function"}],"name":"request","outputs":[{"internalType":"uint256","name":"","type":"uint256"}],"stateMutability":"payable","type":"function"},{"inputs":[],"name":"retrieveFunds","outputs":[],"stateMutability":"nonpayable","type":"function"},{"inputs":[{"internalType":"uint256","name":"_priceWEI","type":"uint256"}],"name":"setPriceETH","outputs":[],"stateMutability":"nonpayable","type":"function"},{"inputs":[{"internalType":"uint256","name":"id","type":"uint256"}],"name":"startProcessing","outputs":[],"stateMutability":"nonpayable","type":"function"},{"inputs":[{"internalType":"uint256","name":"id","type":"uint256"},{"internalType":"string","name":"postId","type":"string"},{"internalType":"string","name":"postUrl","type":"string"}],"name":"succeeded","outputs":[],"stateMutability":"nonpayable","type":"function"},{"inputs":[{"internalType":"address","name":"newOwner","type":"address"}],"name":"transferOwnership","outputs":[],"stateMutability":"nonpayable","type":"function"}],"bytecode":"0x60806040523480156200001157600080fd5b506200001d3362000048565b66b1a2bc2ec5000060015562000042600560c862000098602090811b62000fa317901c565b620000d6565b600080546001600160a01b038381166001600160a01b0319831681178455604051919092169283917f8be0079c531659141344cd1fd0a4f28419497f9722a3daafe3b4186f6b6457e09190a35050565b60018201805463ffffffff1916630100000060ff8416021790555b815460ff82161115620000d257815460010182556000829052620000b3565b5050565b611a1180620000e66000396000f3fe6080604052600436106100c25760003560e01c80638da5cb5b1161007f578063c1500a5711610059578063c1500a57146101f2578063dcec3ec814610219578063f176ea1214610246578063f2fde38b1461025c57600080fd5b80638da5cb5b1461018a578063954db88e146101b257806399a752d7146101d257600080fd5b806317a8791d146100c757806326757b73146100e957806329fa50f91461011f57806361b20d8c1461013f578063715018a61461015457806382672dc014610169575b600080fd5b3480156100d357600080fd5b506100e76100e2366004611580565b61027c565b005b3480156100f557600080fd5b50610109610104366004611580565b610370565b6040516101169190611842565b60405180910390f35b34801561012b57600080fd5b506100e761013a366004611598565b6103eb565b34801561014b57600080fd5b506100e7610516565b34801561016057600080fd5b506100e761056f565b61017c6101773660046114e4565b6105a5565b604051908152602001610116565b34801561019657600080fd5b506000546040516001600160a01b039091168152602001610116565b3480156101be57600080fd5b506100e76101cd3660046115dd565b610881565b3480156101de57600080fd5b506100e76101ed366004611580565b6109d8565b3480156101fe57600080fd5b50610207610a07565b60405160ff9091168152602001610116565b34801561022557600080fd5b506102396102343660046114c3565b610d41565b60405161011691906116f2565b34801561025257600080fd5b5061017c60015481565b34801561026857600080fd5b506100e76102773660046114c3565b610f0b565b6000546001600160a01b031633146102af5760405162461bcd60e51b81526004016102a6906117a1565b60405180910390fd5b600081815260026020526040902060040154600160c01b900460ff1660011461034c5760405162461bcd60e51b815260206004820152604360248201527f5265717565737420776974682070726f7669646564206964206973206e6f742060448201527f696e2070656e64696e672073746174652c206f7220646f6573206e6f742065786064820152621a5cdd60ea1b608482015260a4016102a6565b6000908152600260205260409020600401805460ff60c01b1916600160c11b179055565b610378611351565b6000546001600160a01b031633146103a25760405162461bcd60e51b81526004016102a6906117a1565b600082815260026020526040902060040154600160c01b900460ff166103da5760405162461bcd60e51b81526004016102a6906117d6565b6103e382610fdf565b90505b919050565b6000546001600160a01b031633146104155760405162461bcd60e51b81526004016102a6906117a1565b600082815260026020819052604090912060040154600160c01b900460ff16146104515760405162461bcd60e51b81526004016102a6906117d6565b600082815260026020908152604090912060048101805460ff60c01b1916600160c21b179055825161048b9260059092019184019061138c565b506002600083815260200190815260200160002060040160009054906101000a90048060201c6001600160a01b03169063ffffffff1683836040518363ffffffff1660e01b81526004016104e09291906118ba565b600060405180830381600087803b1580156104fa57600080fd5b505af115801561050e573d6000803e3d6000fd5b505050505050565b6000546001600160a01b031633146105405760405162461bcd60e51b81526004016102a6906117a1565b60405133904780156108fc02916000818181858888f1935050505015801561056c573d6000803e3d6000fd5b50565b6000546001600160a01b031633146105995760405162461bcd60e51b81526004016102a6906117a1565b6105a36000611170565b565b600060015434146106085760405162461bcd60e51b815260206004820152602760248201527f506c656173652073656e6420656e6f756768742045544820666f7220746865206044820152661c995c5d595cdd60ca1b60648201526084016102a6565b6040805160e08101825260008082526020820181905260609282018390528282018190526080820181905260a082015260c0810191909152600061064b60045490565b905061065b600480546001019055565b60208281018281526001600160a01b038a8116855260408086018d815263ffffffff8b81168d871b17831b606089015289168a861b17821b6080880152600160a0880181905260008781526002808852939020885181546001600160a01b031916951694909417845593519383019390935591518051869492936106e49390850192019061138c565b5060608201516003820180546001600160c01b03191663ffffffff604093841c818116640100000000600160c01b039182161792909217909255608085015160048501805460a08801519290951c93841693909216929092176001600160c81b031990931692909217600160c01b60ff9092169190910217905560c0820151805161077991600584019160209091019061138c565b505082516001600160a01b03166000908152600360205260409020905061079f82610fdf565b8154600180820184556000938452602093849020835160059093020180546001600160a01b0319166001600160a01b03909316929092178255828401519082015560408201518051929391926107fb926002850192019061138c565b50606082015160038201805460ff191660ff9092169190911790556080820151805161083191600484019160209091019061138c565b50610841915060059050826111c0565b506040518181527f1d5ba61d36a1cd5c3cd949b43386ae4e8c065fe019d3d727fdcf69249cde75be9060200160405180910390a198975050505050505050565b6000546001600160a01b031633146108ab5760405162461bcd60e51b81526004016102a6906117a1565b600083815260026020819052604090912060040154600160c01b900460ff16146108e75760405162461bcd60e51b81526004016102a6906117d6565b61091b604051806080016040528060008152602001606081526020016060815260200160006001600160a01b031681525090565b838152602080820184905260408083018490526000868152600280845282822080546001600160a01b039081166060880152928990529084526004808201805460ff60c01b1916600360c01b179055600390910154925160e084901b6001600160e01b03191681529383901c9091169263ffffffff909216916109a091859101611855565b600060405180830381600087803b1580156109ba57600080fd5b505af11580156109ce573d6000803e3d6000fd5b5050505050505050565b6000546001600160a01b03163314610a025760405162461bcd60e51b81526004016102a6906117a1565b600155565b600080546001600160a01b03163314610a325760405162461bcd60e51b81526004016102a6906117a1565b600080610a3f6005611290565b91509150610a816040805160e08101825260008082526020820181905260609282018390528282018190526080820181905260a082015260c081019190915290565b6006546000906301000000900460ff1667ffffffffffffffff811115610ab757634e487b7160e01b600052604160045260246000fd5b604051908082528060200260200182016040528015610ae0578160200160208202803683370190505b50905060005b8315610cff57600085815260026020818152604092839020835160e08101855281546001600160a01b0316815260018201549281019290925291820180549193840191610b329061191d565b80601f0160208091040260200160405190810160405280929190818152602001828054610b5e9061191d565b8015610bab5780601f10610b8057610100808354040283529160200191610bab565b820191906000526020600020905b815481529060010190602001808311610b8e57829003601f168201915b5050509183525050600382015463ffffffff808216640100000000600160c01b0392831617604090811b6020850152600485015491821692821692909217821b91830191909152600160c01b900460ff166060820152600582018054608090920191610c169061191d565b80601f0160208091040260200160405190810160405280929190818152602001828054610c429061191d565b8015610c8f5780601f10610c6457610100808354040283529160200191610c8f565b820191906000526020600020905b815481529060010190602001808311610c7257829003601f168201915b50505050508152505092508260a0015160ff1660011415610ceb578260200151828260ff1681518110610cd257634e487b7160e01b600052603260045260246000fd5b602090810291909101015280610ce781611958565b9150505b610cf56005611290565b9095509350610ae6565b7f66cb254fb886e0d489510b04c89acde5be432fc7247b241872ad1fc23b55f4c18282604051610d30929190611753565b60405180910390a194505050505090565b6001600160a01b0381166000908152600360209081526040808320805482518185028101850190935280835260609492939192909184015b82821015610f005760008481526020908190206040805160a0810182526005860290920180546001600160a01b0316835260018101549383019390935260028301805492939291840191610dcc9061191d565b80601f0160208091040260200160405190810160405280929190818152602001828054610df89061191d565b8015610e455780601f10610e1a57610100808354040283529160200191610e45565b820191906000526020600020905b815481529060010190602001808311610e2857829003601f168201915b5050509183525050600382015460ff166020820152600482018054604090920191610e6f9061191d565b80601f0160208091040260200160405190810160405280929190818152602001828054610e9b9061191d565b8015610ee85780601f10610ebd57610100808354040283529160200191610ee8565b820191906000526020600020905b815481529060010190602001808311610ecb57829003601f168201915b50505050508152505081526020019060010190610d79565b505050509050919050565b6000546001600160a01b03163314610f355760405162461bcd60e51b81526004016102a6906117a1565b6001600160a01b038116610f9a5760405162461bcd60e51b815260206004820152602660248201527f4f776e61626c653a206e6577206f776e657220697320746865207a65726f206160448201526564647265737360d01b60648201526084016102a6565b61056c81611170565b60018201805463ffffffff1916630100000060ff8416021790555b815460ff82161115610fdb57815460010182556000829052610fbe565b5050565b610fe7611351565b610fef611351565b6000838152600260208181526040832060018101548583015280546001600160a01b03168552928690528190520180546110289061191d565b80601f01602080910402602001604051908101604052809291908181526020018280546110549061191d565b80156110a15780601f10611076576101008083540402835291602001916110a1565b820191906000526020600020905b81548152906001019060200180831161108457829003601f168201915b50505050506040828101919091526000848152600260208181529282206004810154600160c01b900460ff1660608601529186905290915260050180546110e79061191d565b80601f01602080910402602001604051908101604052809291908181526020018280546111139061191d565b80156111605780601f1061113557610100808354040283529160200191611160565b820191906000526020600020905b81548152906001019060200180831161114357829003601f168201915b5050505050608082015292915050565b600080546001600160a01b038381166001600160a01b0319831681178455604051919092169283917f8be0079c531659141344cd1fd0a4f28419497f9722a3daafe3b4186f6b6457e09190a35050565b815460018301546000916201000090910460ff16101561128a57600183015483548391859161010090910460ff1690811061120b57634e487b7160e01b600052603260045260246000fd5b60009182526020909120015582546001808501546112329161010090910460ff16906118db565b60ff1661123f9190611978565b60018401805461ff00191661010060ff938416021780825562010000900490911690600261126c83611958565b91906101000a81548160ff021916908360ff16021790555050600190505b92915050565b6001810154600090819062010000900460ff161561134c5760018301548354849160ff169081106112d157634e487b7160e01b600052603260045260246000fd5b600091825260209091200154835460018086015492945090916112f99160ff909116906118db565b60ff166113069190611978565b60018401805460ff191660ff9283161780825562010000900490911690600261132e83611900565b91906101000a81548160ff021916908360ff16021790555050600190505b915091565b6040518060a0016040528060006001600160a01b031681526020016000815260200160608152602001600060ff168152602001606081525090565b8280546113989061191d565b90600052602060002090601f0160209004810192826113ba5760008555611400565b82601f106113d357805160ff1916838001178555611400565b82800160010185558215611400579182015b828111156114005782518255916020019190600101906113e5565b5061140c929150611410565b5090565b5b8082111561140c5760008155600101611411565b80356001600160a01b03811681146103e657600080fd5b600082601f83011261144c578081fd5b813567ffffffffffffffff80821115611467576114676119ae565b604051601f8301601f19908116603f0116810190828211818310171561148f5761148f6119ae565b816040528381528660208588010111156114a7578485fd5b8360208701602083013792830160200193909352509392505050565b6000602082840312156114d4578081fd5b6114dd82611425565b9392505050565b600080600080600080608087890312156114fc578182fd5b863567ffffffffffffffff811115611512578283fd5b61151e89828a0161143c565b96505061152d60208801611425565b9450604087013561153d816119c4565b606081811c955060409190911c63ffffffff16935087013561155e816119c4565b606081901c63ffffffff604083901c16979a9699509497509295939492505050565b600060208284031215611591578081fd5b5035919050565b600080604083850312156115aa578182fd5b82359150602083013567ffffffffffffffff8111156115c7578182fd5b6115d38582860161143c565b9150509250929050565b6000806000606084860312156115f1578283fd5b83359250602084013567ffffffffffffffff8082111561160f578384fd5b61161b8783880161143c565b93506040860135915080821115611630578283fd5b5061163d8682870161143c565b9150509250925092565b60008151808452815b8181101561166c57602081850181015186830182015201611650565b8181111561167d5782602083870101525b50601f01601f19169290920160200192915050565b60018060a01b038151168252602081015160208301526000604082015160a060408501526116c360a0850182611647565b905060ff6060840151166060850152608083015184820360808601526116e98282611647565b95945050505050565b6000602080830181845280855180835260408601915060408160051b8701019250838701855b8281101561174657603f19888603018452611734858351611692565b94509285019290850190600101611718565b5092979650505050505050565b604080825283519082018190526000906020906060840190828701845b8281101561178c57815184529284019290840190600101611770565b50505060ff9490941692019190915250919050565b6020808252818101527f4f776e61626c653a2063616c6c6572206973206e6f7420746865206f776e6572604082015260600190565b60208082526046908201527f5265717565737420776974682070726f7669646564206964206973206e6f742060408201527f696e2070726f63657373696e672073746174652c206f7220646f6573206e6f7460608201526508195e1a5cdd60d21b608082015260a00190565b6020815260006114dd6020830184611692565b6020815281516020820152600060208301516080604084015261187b60a0840182611647565b90506040840151601f198483030160608501526118988282611647565b606095909501516001600160a01b031660809490940193909352509192915050565b8281526040602082015260006118d36040830184611647565b949350505050565b600060ff821660ff84168060ff038211156118f8576118f8611998565b019392505050565b600060ff82168061191357611913611998565b6000190192915050565b600181811c9082168061193157607f821691505b6020821081141561195257634e487b7160e01b600052602260045260246000fd5b50919050565b600060ff821660ff81141561196f5761196f611998565b60010192915050565b60008261199357634e487b7160e01b81526012600452602481fd5b500690565b634e487b7160e01b600052601160045260246000fd5b634e487b7160e01b600052604160045260246000fd5b67ffffffffffffffff198116811461056c57600080fdfea26469706673582212205e473b0ff1d6148608c633b699552a8bab201cef0c7c694b1c1f35f363299f4064736f6c63430008040033","linkReferences":{},"deployedLinkReferences":{}}