{"_format":"hh-sol-artifact-1","contractName":"OwnYourSocialNetwork","sourceName":"contracts/OwnYourSocialNetwork.sol","abi":[{"anonymous":false,"inputs":[{"indexed":true,"internalType":"address","name":"owner","type":"address"},{"indexed":true,"internalType":"address","name":"approved","type":"address"},{"indexed":true,"internalType":"uint256","name":"tokenId","type":"uint256"}],"name":"Approval","type":"event"},{"anonymous":false,"inputs":[{"indexed":true,"internalType":"address","name":"owner","type":"address"},{"indexed":true,"internalType":"address","name":"operator","type":"address"},{"indexed":false,"internalType":"bool","name":"approved","type":"bool"}],"name":"ApprovalForAll","type":"event"},{"anonymous":false,"inputs":[{"indexed":false,"internalType":"address","name":"account","type":"address"}],"name":"Paused","type":"event"},{"anonymous":false,"inputs":[{"indexed":true,"internalType":"bytes32","name":"role","type":"bytes32"},{"indexed":true,"internalType":"bytes32","name":"previousAdminRole","type":"bytes32"},{"indexed":true,"internalType":"bytes32","name":"newAdminRole","type":"bytes32"}],"name":"RoleAdminChanged","type":"event"},{"anonymous":false,"inputs":[{"indexed":true,"internalType":"bytes32","name":"role","type":"bytes32"},{"indexed":true,"internalType":"address","name":"account","type":"address"},{"indexed":true,"internalType":"address","name":"sender","type":"address"}],"name":"RoleGranted","type":"event"},{"anonymous":false,"inputs":[{"indexed":true,"internalType":"bytes32","name":"role","type":"bytes32"},{"indexed":true,"internalType":"address","name":"account","type":"address"},{"indexed":true,"internalType":"address","name":"sender","type":"address"}],"name":"RoleRevoked","type":"event"},{"anonymous":false,"inputs":[{"indexed":true,"internalType":"address","name":"from","type":"address"},{"indexed":true,"internalType":"address","name":"to","type":"address"},{"indexed":true,"internalType":"uint256","name":"tokenId","type":"uint256"}],"name":"Transfer","type":"event"},{"anonymous":false,"inputs":[{"indexed":false,"internalType":"address","name":"account","type":"address"}],"name":"Unpaused","type":"event"},{"inputs":[],"name":"ADMIN_ROLE","outputs":[{"internalType":"bytes32","name":"","type":"bytes32"}],"stateMutability":"view","type":"function"},{"inputs":[],"name":"DEFAULT_ADMIN_ROLE","outputs":[{"internalType":"bytes32","name":"","type":"bytes32"}],"stateMutability":"view","type":"function"},{"inputs":[],"name":"MINTER_ROLE","outputs":[{"internalType":"bytes32","name":"","type":"bytes32"}],"stateMutability":"view","type":"function"},{"inputs":[],"name":"PAUSER_ROLE","outputs":[{"internalType":"bytes32","name":"","type":"bytes32"}],"stateMutability":"view","type":"function"},{"inputs":[{"internalType":"address","name":"to","type":"address"},{"internalType":"uint256","name":"tokenId","type":"uint256"}],"name":"approve","outputs":[],"stateMutability":"nonpayable","type":"function"},{"inputs":[{"internalType":"address","name":"owner","type":"address"}],"name":"balanceOf","outputs":[{"internalType":"uint256","name":"","type":"uint256"}],"stateMutability":"view","type":"function"},{"inputs":[],"name":"baseTokenURI","outputs":[{"internalType":"string","name":"","type":"string"}],"stateMutability":"view","type":"function"},{"inputs":[{"internalType":"uint256","name":"tokenId","type":"uint256"}],"name":"getApproved","outputs":[{"internalType":"address","name":"","type":"address"}],"stateMutability":"view","type":"function"},{"inputs":[{"internalType":"string","name":"sn_name","type":"string"},{"internalType":"string","name":"sn_id","type":"string"}],"name":"getOWSNBySnId","outputs":[{"components":[{"internalType":"uint256","name":"id","type":"uint256"},{"internalType":"string","name":"sn_name","type":"string"},{"internalType":"string","name":"sn_id","type":"string"},{"internalType":"string","name":"sn_url","type":"string"}],"internalType":"struct OwnedAccount.data","name":"","type":"tuple"}],"stateMutability":"view","type":"function"},{"inputs":[{"internalType":"uint256","name":"tokenId","type":"uint256"}],"name":"getOWSNByTokenId","outputs":[{"components":[{"internalType":"uint256","name":"id","type":"uint256"},{"internalType":"string","name":"sn_name","type":"string"},{"internalType":"string","name":"sn_id","type":"string"},{"internalType":"string","name":"sn_url","type":"string"}],"internalType":"struct OwnedAccount.data","name":"","type":"tuple"}],"stateMutability":"view","type":"function"},{"inputs":[{"internalType":"bytes32","name":"role","type":"bytes32"}],"name":"getRoleAdmin","outputs":[{"internalType":"bytes32","name":"","type":"bytes32"}],"stateMutability":"view","type":"function"},{"inputs":[{"internalType":"bytes32","name":"role","type":"bytes32"},{"internalType":"uint256","name":"index","type":"uint256"}],"name":"getRoleMember","outputs":[{"internalType":"address","name":"","type":"address"}],"stateMutability":"view","type":"function"},{"inputs":[{"internalType":"bytes32","name":"role","type":"bytes32"}],"name":"getRoleMemberCount","outputs":[{"internalType":"uint256","name":"","type":"uint256"}],"stateMutability":"view","type":"function"},{"inputs":[{"internalType":"bytes32","name":"role","type":"bytes32"},{"internalType":"address","name":"account","type":"address"}],"name":"grantRole","outputs":[],"stateMutability":"nonpayable","type":"function"},{"inputs":[{"internalType":"bytes32","name":"role","type":"bytes32"},{"internalType":"address","name":"account","type":"address"}],"name":"hasRole","outputs":[{"internalType":"bool","name":"","type":"bool"}],"stateMutability":"view","type":"function"},{"inputs":[{"internalType":"string","name":"name","type":"string"},{"internalType":"string","name":"symbol","type":"string"},{"internalType":"string","name":"baseTokenURI","type":"string"}],"name":"initialize","outputs":[],"stateMutability":"nonpayable","type":"function"},{"inputs":[{"internalType":"address","name":"owner","type":"address"},{"internalType":"address","name":"operator","type":"address"}],"name":"isApprovedForAll","outputs":[{"internalType":"bool","name":"","type":"bool"}],"stateMutability":"view","type":"function"},{"inputs":[{"internalType":"string","name":"sn_name","type":"string"},{"internalType":"string","name":"sn_id","type":"string"}],"name":"isAvailable","outputs":[{"internalType":"bool","name":"","type":"bool"}],"stateMutability":"view","type":"function"},{"inputs":[{"internalType":"address","name":"to","type":"address"}],"name":"mint","outputs":[{"internalType":"uint256","name":"","type":"uint256"}],"stateMutability":"nonpayable","type":"function"},{"inputs":[{"internalType":"string","name":"code","type":"string"},{"internalType":"string","name":"redirectUrl","type":"string"}],"name":"mintDiscord","outputs":[],"stateMutability":"payable","type":"function"},{"inputs":[{"internalType":"string","name":"oauthToken","type":"string"},{"internalType":"string","name":"oauthVerifier","type":"string"}],"name":"mintTwitter","outputs":[],"stateMutability":"payable","type":"function"},{"inputs":[],"name":"name","outputs":[{"internalType":"string","name":"","type":"string"}],"stateMutability":"view","type":"function"},{"inputs":[{"internalType":"uint256","name":"tokenId","type":"uint256"}],"name":"ownerOf","outputs":[{"internalType":"address","name":"","type":"address"}],"stateMutability":"view","type":"function"},{"inputs":[],"name":"pause","outputs":[],"stateMutability":"nonpayable","type":"function"},{"inputs":[],"name":"paused","outputs":[{"internalType":"bool","name":"","type":"bool"}],"stateMutability":"view","type":"function"},{"inputs":[{"internalType":"bytes32","name":"role","type":"bytes32"},{"internalType":"address","name":"account","type":"address"}],"name":"renounceRole","outputs":[],"stateMutability":"nonpayable","type":"function"},{"inputs":[],"name":"retrieveFunds","outputs":[],"stateMutability":"nonpayable","type":"function"},{"inputs":[{"internalType":"bytes32","name":"role","type":"bytes32"},{"internalType":"address","name":"account","type":"address"}],"name":"revokeRole","outputs":[],"stateMutability":"nonpayable","type":"function"},{"inputs":[{"internalType":"address","name":"from","type":"address"},{"internalType":"address","name":"to","type":"address"},{"internalType":"uint256","name":"tokenId","type":"uint256"}],"name":"safeTransferFrom","outputs":[],"stateMutability":"nonpayable","type":"function"},{"inputs":[{"internalType":"address","name":"from","type":"address"},{"internalType":"address","name":"to","type":"address"},{"internalType":"uint256","name":"tokenId","type":"uint256"},{"internalType":"bytes","name":"_data","type":"bytes"}],"name":"safeTransferFrom","outputs":[],"stateMutability":"nonpayable","type":"function"},{"inputs":[{"internalType":"address","name":"operator","type":"address"},{"internalType":"bool","name":"approved","type":"bool"}],"name":"setApprovalForAll","outputs":[],"stateMutability":"nonpayable","type":"function"},{"inputs":[{"internalType":"string","name":"newBaseURI","type":"string"}],"name":"setBaseURI","outputs":[],"stateMutability":"nonpayable","type":"function"},{"inputs":[{"internalType":"address","name":"discordMinterAddress","type":"address"}],"name":"setDiscordMinterAddress","outputs":[],"stateMutability":"nonpayable","type":"function"},{"inputs":[{"internalType":"address","name":"twitterMinterAddress","type":"address"}],"name":"setTwitterMinterAddress","outputs":[],"stateMutability":"nonpayable","type":"function"},{"inputs":[{"internalType":"bytes4","name":"interfaceId","type":"bytes4"}],"name":"supportsInterface","outputs":[{"internalType":"bool","name":"","type":"bool"}],"stateMutability":"view","type":"function"},{"inputs":[],"name":"symbol","outputs":[{"internalType":"string","name":"","type":"string"}],"stateMutability":"view","type":"function"},{"inputs":[{"internalType":"uint256","name":"index","type":"uint256"}],"name":"tokenByIndex","outputs":[{"internalType":"uint256","name":"","type":"uint256"}],"stateMutability":"view","type":"function"},{"inputs":[{"internalType":"address","name":"owner","type":"address"},{"internalType":"uint256","name":"index","type":"uint256"}],"name":"tokenOfOwnerByIndex","outputs":[{"internalType":"uint256","name":"","type":"uint256"}],"stateMutability":"view","type":"function"},{"inputs":[{"internalType":"uint256","name":"_tokenId","type":"uint256"}],"name":"tokenURI","outputs":[{"internalType":"string","name":"","type":"string"}],"stateMutability":"view","type":"function"},{"inputs":[],"name":"totalSupply","outputs":[{"internalType":"uint256","name":"","type":"uint256"}],"stateMutability":"view","type":"function"},{"inputs":[{"internalType":"address","name":"from","type":"address"},{"internalType":"address","name":"to","type":"address"},{"internalType":"uint256","name":"tokenId","type":"uint256"}],"name":"transferFrom","outputs":[],"stateMutability":"nonpayable","type":"function"},{"inputs":[],"name":"unpause","outputs":[],"stateMutability":"nonpayable","type":"function"}],"bytecode":"0x608060405234801561001057600080fd5b506138fa806100206000396000f3fe6080604052600436106102515760003560e01c806375b238fc11610139578063a22cb465116100b6578063ca15c8731161007a578063ca15c873146106cd578063d5391393146106ed578063d547741f1461070f578063d547cfb71461072f578063e63ab1e914610744578063e985e9c51461076657600080fd5b8063a22cb4651461062d578063a6487c531461064d578063adac30c91461066d578063b88d4fde1461068d578063c87b56dd146106ad57600080fd5b806391d14854116100fd57806391d14854146105b057806394925ecc146105d057806395d89b41146105e3578063965a122c146105f8578063a217fddf1461061857600080fd5b806375b238fc146105195780638456cb591461053b5780638ade7355146105505780638e8876b11461057d5780639010d07c1461059057600080fd5b8063327e29eb116101d257806355f804b31161019657806355f804b31461046b5780635c975abb1461048b57806361b20d8c146104a45780636352211e146104b95780636a627842146104d957806370a08231146104f957600080fd5b8063327e29eb146103d657806336568abe146103f65780633f4ba83a1461041657806342842e0e1461042b5780634f6ccce71461044b57600080fd5b806318160ddd1161021957806318160ddd1461032757806323b872dd14610346578063248a9ca3146103665780632f2ff15d146103965780632f745c59146103b657600080fd5b806301ffc9a71461025657806306fdde031461028b578063081812fc146102ad578063095ea7b3146102e55780630e56594814610307575b600080fd5b34801561026257600080fd5b50610276610271366004613109565b6107af565b60405190151581526020015b60405180910390f35b34801561029757600080fd5b506102a06107c0565b604051610282919061344b565b3480156102b957600080fd5b506102cd6102c8366004613096565b610852565b6040516001600160a01b039091168152602001610282565b3480156102f157600080fd5b50610305610300366004613051565b6108ec565b005b34801561031357600080fd5b50610276610322366004613174565b610a02565b34801561033357600080fd5b5060fd545b604051908152602001610282565b34801561035257600080fd5b50610305610361366004612f67565b610bf6565b34801561037257600080fd5b50610338610381366004613096565b60009081526065602052604090206001015490565b3480156103a257600080fd5b506103056103b13660046130c6565b610c27565b3480156103c257600080fd5b506103386103d1366004613051565b610c4d565b3480156103e257600080fd5b506103056103f1366004612f1b565b610ce3565b34801561040257600080fd5b506103056104113660046130c6565b610d74565b34801561042257600080fd5b50610305610df2565b34801561043757600080fd5b50610305610446366004612f67565b610e6d565b34801561045757600080fd5b50610338610466366004613096565b610e88565b34801561047757600080fd5b50610305610486366004613141565b610f29565b34801561049757600080fd5b5061012d5460ff16610276565b3480156104b057600080fd5b50610305610f56565b3480156104c557600080fd5b506102cd6104d4366004613096565b610f9b565b3480156104e557600080fd5b506103386104f4366004612f1b565b611012565b34801561050557600080fd5b50610338610514366004612f1b565b6110a9565b34801561052557600080fd5b5061033860008051602061388583398151915281565b34801561054757600080fd5b50610305611130565b34801561055c57600080fd5b5061057061056b366004613096565b6111a7565b60405161028291906135e2565b61030561058b366004613174565b61148a565b34801561059c57600080fd5b506102cd6105ab3660046130e8565b611502565b3480156105bc57600080fd5b506102766105cb3660046130c6565b611521565b6103056105de366004613174565b61154c565b3480156105ef57600080fd5b506102a0611567565b34801561060457600080fd5b50610570610613366004613174565b611576565b34801561062457600080fd5b50610338600081565b34801561063957600080fd5b5061030561064836600461301b565b61185b565b34801561065957600080fd5b506103056106683660046131d5565b611866565b34801561067957600080fd5b50610305610688366004612f1b565b61192d565b34801561069957600080fd5b506103056106a8366004612fa2565b6119bb565b3480156106b957600080fd5b506102a06106c8366004613096565b6119ed565b3480156106d957600080fd5b506103386106e8366004613096565b611a27565b3480156106f957600080fd5b5061033860008051602061386583398151915281565b34801561071b57600080fd5b5061030561072a3660046130c6565b611a3e565b34801561073b57600080fd5b506102a0611a64565b34801561075057600080fd5b5061033860008051602061384583398151915281565b34801561077257600080fd5b50610276610781366004612f35565b6001600160a01b03918216600090815260ce6020908152604080832093909416825291909152205460ff1690565b60006107ba82611a74565b92915050565b606060c980546107cf90613774565b80601f01602080910402602001604051908101604052809291908181526020018280546107fb90613774565b80156108485780601f1061081d57610100808354040283529160200191610848565b820191906000526020600020905b81548152906001019060200180831161082b57829003601f168201915b5050505050905090565b600081815260cb60205260408120546001600160a01b03166108d05760405162461bcd60e51b815260206004820152602c60248201527f4552433732313a20617070726f76656420717565727920666f72206e6f6e657860448201526b34b9ba32b73a103a37b5b2b760a11b60648201526084015b60405180910390fd5b50600090815260cd60205260409020546001600160a01b031690565b60006108f782610f9b565b9050806001600160a01b0316836001600160a01b031614156109655760405162461bcd60e51b815260206004820152602160248201527f4552433732313a20617070726f76616c20746f2063757272656e74206f776e656044820152603960f91b60648201526084016108c7565b336001600160a01b038216148061098157506109818133610781565b6109f35760405162461bcd60e51b815260206004820152603860248201527f4552433732313a20617070726f76652063616c6c6572206973206e6f74206f7760448201527f6e6572206e6f7220617070726f76656420666f7220616c6c000000000000000060648201526084016108c7565b6109fd8383611a99565b505050565b60008083604051602001610a16919061333e565b60408051601f19818403018152828252805160209182012061019354633791ea5360e01b8552925190945084936001600160a01b0390931692633791ea53926004808301939192829003018186803b158015610a7157600080fd5b505afa158015610a85573d6000803e3d6000fd5b505050506040513d601f19601f82011682018060405250810190610aa991906130ae565b1415610b385761019354604051634b29835560e11b81526001600160a01b039091169063965306aa90610ae090869060040161344b565b60206040518083038186803b158015610af857600080fd5b505afa158015610b0c573d6000803e3d6000fd5b505050506040513d601f19601f82011682018060405250810190610b30919061307a565b9150506107ba565b6101c45460408051633791ea5360e01b8152905183926001600160a01b031691633791ea53916004808301926020929190829003018186803b158015610b7d57600080fd5b505afa158015610b91573d6000803e3d6000fd5b505050506040513d601f19601f82011682018060405250810190610bb591906130ae565b1415610bec576101c454604051634b29835560e11b81526001600160a01b039091169063965306aa90610ae090869060040161344b565b5060009392505050565b610c003382611b07565b610c1c5760405162461bcd60e51b81526004016108c790613546565b6109fd838383611bfe565b600082815260656020526040902060010154610c438133611da9565b6109fd8383611e0d565b6000610c58836110a9565b8210610cba5760405162461bcd60e51b815260206004820152602b60248201527f455243373231456e756d657261626c653a206f776e657220696e646578206f7560448201526a74206f6620626f756e647360a81b60648201526084016108c7565b506001600160a01b0391909116600090815260fb60209081526040808320938352929052205490565b610cfb60008051602061388583398151915233611521565b610d175760405162461bcd60e51b81526004016108c790613504565b61019354610d3d90600080516020613865833981519152906001600160a01b0316611a3e565b61019380546001600160a01b0319166001600160a01b038316179055610d7160008051602061386583398151915282610c27565b50565b6001600160a01b0381163314610de45760405162461bcd60e51b815260206004820152602f60248201527f416363657373436f6e74726f6c3a2063616e206f6e6c792072656e6f756e636560448201526e103937b632b9903337b91039b2b63360891b60648201526084016108c7565b610dee8282611e2f565b5050565b610e0a60008051602061384583398151915233611521565b610e635760405162461bcd60e51b815260206004820152603660248201526000805160206138a583398151915260448201527570617573657220726f6c6520746f20756e706175736560501b60648201526084016108c7565b610e6b611e51565b565b6109fd838383604051806020016040528060008152506119bb565b6000610e9360fd5490565b8210610ef65760405162461bcd60e51b815260206004820152602c60248201527f455243373231456e756d657261626c653a20676c6f62616c20696e646578206f60448201526b7574206f6620626f756e647360a01b60648201526084016108c7565b60fd8281548110610f1757634e487b7160e01b600052603260045260246000fd5b90600052602060002001549050919050565b600080516020613885833981519152610f428133611da9565b81516109fd90610192906020850190612dcb565b600080516020613885833981519152610f6f8133611da9565b60405133904780156108fc02916000818181858888f19350505050158015610dee573d6000803e3d6000fd5b600081815260cb60205260408120546001600160a01b0316806107ba5760405162461bcd60e51b815260206004820152602960248201527f4552433732313a206f776e657220717565727920666f72206e6f6e657869737460448201526832b73a103a37b5b2b760b91b60648201526084016108c7565b600061102c60008051602061386583398151915233611521565b6110825760405162461bcd60e51b815260206004820152603360248201526000805160206138a58339815191526044820152721b5a5b9d195c881c9bdb19481d1bc81b5a5b9d606a1b60648201526084016108c7565b600061108e6101915490565b905061109a8382611ee6565b6107ba61019180546001019055565b60006001600160a01b0382166111145760405162461bcd60e51b815260206004820152602a60248201527f4552433732313a2062616c616e636520717565727920666f7220746865207a65604482015269726f206164647265737360b01b60648201526084016108c7565b506001600160a01b0316600090815260cc602052604090205490565b61114860008051602061384583398151915233611521565b61119f5760405162461bcd60e51b815260206004820152603460248201526000805160206138a583398151915260448201527370617573657220726f6c6520746f20706175736560601b60648201526084016108c7565b610e6b612034565b6111d26040518060800160405280600081526020016060815260200160608152602001606081525090565b600082815260cb60205260409020546001600160a01b0316151515156001146112635760405162461bcd60e51b815260206004820152603d60248201527f4f776e596f7572536f6369616c4e6574776f726b3a20546865206163636f756e60448201527f7420776173206e6f7420796574206d696e746564205b5f65786973745d00000060648201526084016108c7565b6101935460405162491fcf60e11b8152600481018490526001600160a01b039091169062923f9e9060240160206040518083038186803b1580156112a657600080fd5b505afa1580156112ba573d6000803e3d6000fd5b505050506040513d601f19601f820116820180604052508101906112de919061307a565b156113655761019354604051638ade735560e01b8152600481018490526001600160a01b0390911690638ade7355906024015b60006040518083038186803b15801561132957600080fd5b505afa15801561133d573d6000803e3d6000fd5b505050506040513d6000823e601f3d908101601f191682016040526107ba9190810190613259565b6101c45460405162491fcf60e11b8152600481018490526001600160a01b039091169062923f9e9060240160206040518083038186803b1580156113a857600080fd5b505afa1580156113bc573d6000803e3d6000fd5b505050506040513d601f19601f820116820180604052508101906113e0919061307a565b15611417576101c454604051638ade735560e01b8152600481018490526001600160a01b0390911690638ade735590602401611311565b60405162461bcd60e51b815260206004820152603e60248201527f4f776e596f7572536f6369616c4e6574776f726b3a20546865206163636f756e60448201527f7420776173206e6f7420796574206d696e746564205b6d696e746572735d000060648201526084016108c7565b919050565b610193546001600160a01b03166329b1164f348484335b6040516001600160e01b031960e087901b1681526114cc939291903090636a6278429060040161345e565b6000604051808303818588803b1580156114e557600080fd5b505af11580156114f9573d6000803e3d6000fd5b50505050505050565b600082815260976020526040812061151a90836120b1565b9392505050565b60009182526065602090815260408084206001600160a01b0393909316845291905290205460ff1690565b6101c4546001600160a01b03166329b1164f348484336114a1565b606060ca80546107cf90613774565b6115a16040518060800160405280600081526020016060815260200160608152602001606081525090565b6115ab8383610a02565b156116155760405162461bcd60e51b815260206004820152603460248201527f4f776e596f7572536f6369616c4e6574776f726b3a20546865206163636f756e6044820152731d081dd85cc81b9bdd081e595d081b5a5b9d195960621b60648201526084016108c7565b600083604051602001611628919061333e565b60408051601f19818403018152828252805160209182012061019354633791ea5360e01b8552925190945084936001600160a01b0390931692633791ea53926004808301939192829003018186803b15801561168357600080fd5b505afa158015611697573d6000803e3d6000fd5b505050506040513d601f19601f820116820180604052508101906116bb91906130ae565b141561174657610193546040516329927e9760e11b81526001600160a01b0390911690635324fd2e906116f290869060040161344b565b60006040518083038186803b15801561170a57600080fd5b505afa15801561171e573d6000803e3d6000fd5b505050506040513d6000823e601f3d908101601f19168201604052610b309190810190613259565b6101c45460408051633791ea5360e01b8152905183926001600160a01b031691633791ea53916004808301926020929190829003018186803b15801561178b57600080fd5b505afa15801561179f573d6000803e3d6000fd5b505050506040513d601f19601f820116820180604052508101906117c391906130ae565b14156117fa576101c4546040516329927e9760e11b81526001600160a01b0390911690635324fd2e906116f290869060040161344b565b60405162461bcd60e51b815260206004820152603060248201527f4f776e596f7572536f6369616c4e6574776f726b3a20556e737570706f72746560448201526f6420736f6369616c206e6574776f726b60801b60648201526084016108c7565b610dee3383836120bd565b600054610100900460ff166118815760005460ff1615611885565b303b155b6118e85760405162461bcd60e51b815260206004820152602e60248201527f496e697469616c697a61626c653a20636f6e747261637420697320616c72656160448201526d191e481a5b9a5d1a585b1a5e995960921b60648201526084016108c7565b600054610100900460ff1615801561190a576000805461ffff19166101011790555b61191584848461218c565b8015611927576000805461ff00191690555b50505050565b61194560008051602061388583398151915233611521565b6119615760405162461bcd60e51b81526004016108c790613504565b6101c45461198790600080516020613865833981519152906001600160a01b0316611a3e565b6101c480546001600160a01b0319166001600160a01b038316179055610d7160008051602061386583398151915282610c27565b6119c53383611b07565b6119e15760405162461bcd60e51b81526004016108c790613546565b611927848484846121fe565b60606119f7611a64565b611a0083612231565b604051602001611a1192919061335a565b6040516020818303038152906040529050919050565b60008181526097602052604081206107ba9061234b565b600082815260656020526040902060010154611a5a8133611da9565b6109fd8383611e2f565b606061019280546107cf90613774565b60006001600160e01b0319821663780e9d6360e01b14806107ba57506107ba82612355565b600081815260cd6020526040902080546001600160a01b0319166001600160a01b0384169081179091558190611ace82610f9b565b6001600160a01b03167f8c5be1e5ebec7d5bd14f71427d1e84f3dd0314c0f7b2291e5b200ac8c7c3b92560405160405180910390a45050565b600081815260cb60205260408120546001600160a01b0316611b805760405162461bcd60e51b815260206004820152602c60248201527f4552433732313a206f70657261746f7220717565727920666f72206e6f6e657860448201526b34b9ba32b73a103a37b5b2b760a11b60648201526084016108c7565b6000611b8b83610f9b565b9050806001600160a01b0316846001600160a01b03161480611bc65750836001600160a01b0316611bbb84610852565b6001600160a01b0316145b80611bf657506001600160a01b03808216600090815260ce602090815260408083209388168352929052205460ff165b949350505050565b826001600160a01b0316611c1182610f9b565b6001600160a01b031614611c795760405162461bcd60e51b815260206004820152602960248201527f4552433732313a207472616e73666572206f6620746f6b656e2074686174206960448201526839903737ba1037bbb760b91b60648201526084016108c7565b6001600160a01b038216611cdb5760405162461bcd60e51b8152602060048201526024808201527f4552433732313a207472616e7366657220746f20746865207a65726f206164646044820152637265737360e01b60648201526084016108c7565b611ce6838383612395565b611cf1600082611a99565b6001600160a01b038316600090815260cc60205260408120805460019290611d1a90849061371a565b90915550506001600160a01b038216600090815260cc60205260408120805460019290611d489084906136cf565b9091555050600081815260cb602052604080822080546001600160a01b0319166001600160a01b0386811691821790925591518493918716917fddf252ad1be2c89b69c2b068fc378daa952ba7f163c4a11628f55a4df523b3ef91a4505050565b611db38282611521565b610dee57611dcb816001600160a01b031660146123a0565b611dd68360206123a0565b604051602001611de7929190613399565b60408051601f198184030181529082905262461bcd60e51b82526108c79160040161344b565b611e178282612582565b60008281526097602052604090206109fd9082612608565b611e39828261261d565b60008281526097602052604090206109fd9082612684565b61012d5460ff16611e9b5760405162461bcd60e51b815260206004820152601460248201527314185d5cd8589b194e881b9bdd081c185d5cd95960621b60448201526064016108c7565b61012d805460ff191690557f5db9ee0a495bf2e6ff9c91a7834c1ba4fdd244a5e8aa4e537bd38aeae4b073aa335b6040516001600160a01b03909116815260200160405180910390a1565b6001600160a01b038216611f3c5760405162461bcd60e51b815260206004820181905260248201527f4552433732313a206d696e7420746f20746865207a65726f206164647265737360448201526064016108c7565b600081815260cb60205260409020546001600160a01b031615611fa15760405162461bcd60e51b815260206004820152601c60248201527f4552433732313a20746f6b656e20616c7265616479206d696e7465640000000060448201526064016108c7565b611fad60008383612395565b6001600160a01b038216600090815260cc60205260408120805460019290611fd69084906136cf565b9091555050600081815260cb602052604080822080546001600160a01b0319166001600160a01b03861690811790915590518392907fddf252ad1be2c89b69c2b068fc378daa952ba7f163c4a11628f55a4df523b3ef908290a45050565b61012d5460ff161561207b5760405162461bcd60e51b815260206004820152601060248201526f14185d5cd8589b194e881c185d5cd95960821b60448201526064016108c7565b61012d805460ff191660011790557f62e78cea01bee320cd4e420270b5ea74000d11b0c9f74754ebdbfc544b05a258611ec93390565b600061151a8383612699565b816001600160a01b0316836001600160a01b0316141561211f5760405162461bcd60e51b815260206004820152601960248201527f4552433732313a20617070726f766520746f2063616c6c65720000000000000060448201526064016108c7565b6001600160a01b03838116600081815260ce6020908152604080832094871680845294825291829020805460ff191686151590811790915591519182527f17307eab39ab6107e8899845ad3d59bd9653f200f220920489ca2b5937696c31910160405180910390a3505050565b600054610100900460ff166121b35760405162461bcd60e51b81526004016108c790613597565b6121bb6126d1565b6121c36126d1565b6121cb6126d1565b6121d36126d1565b6121dd83836126f8565b6121e56126d1565b6121ed612746565b6121f56126d1565b6109fd8161277a565b612209848484611bfe565b61221584848484612809565b6119275760405162461bcd60e51b81526004016108c7906134b2565b6060816122555750506040805180820190915260018152600360fc1b602082015290565b8160005b811561227f5780612269816137af565b91506122789050600a836136e7565b9150612259565b60008167ffffffffffffffff8111156122a857634e487b7160e01b600052604160045260246000fd5b6040519080825280601f01601f1916602001820160405280156122d2576020820181803683370190505b5090505b8415611bf6576122e760018361371a565b91506122f4600a866137ca565b6122ff9060306136cf565b60f81b81838151811061232257634e487b7160e01b600052603260045260246000fd5b60200101906001600160f81b031916908160001a905350612344600a866136e7565b94506122d6565b60006107ba825490565b60006001600160e01b031982166380ac58cd60e01b148061238657506001600160e01b03198216635b5e139f60e01b145b806107ba57506107ba82612916565b6109fd83838361293b565b606060006123af8360026136fb565b6123ba9060026136cf565b67ffffffffffffffff8111156123e057634e487b7160e01b600052604160045260246000fd5b6040519080825280601f01601f19166020018201604052801561240a576020820181803683370190505b509050600360fc1b8160008151811061243357634e487b7160e01b600052603260045260246000fd5b60200101906001600160f81b031916908160001a905350600f60fb1b8160018151811061247057634e487b7160e01b600052603260045260246000fd5b60200101906001600160f81b031916908160001a90535060006124948460026136fb565b61249f9060016136cf565b90505b6001811115612533576f181899199a1a9b1b9c1cb0b131b232b360811b85600f16601081106124e157634e487b7160e01b600052603260045260246000fd5b1a60f81b82828151811061250557634e487b7160e01b600052603260045260246000fd5b60200101906001600160f81b031916908160001a90535060049490941c9361252c8161375d565b90506124a2565b50831561151a5760405162461bcd60e51b815260206004820181905260248201527f537472696e67733a20686578206c656e67746820696e73756666696369656e7460448201526064016108c7565b61258c8282611521565b610dee5760008281526065602090815260408083206001600160a01b03851684529091529020805460ff191660011790556125c43390565b6001600160a01b0316816001600160a01b0316837f2f8788117e7eff1d82e926ec794901d17c78024a50270940304540a733656f0d60405160405180910390a45050565b600061151a836001600160a01b0384166129ae565b6126278282611521565b15610dee5760008281526065602090815260408083206001600160a01b0385168085529252808320805460ff1916905551339285917ff6391f5c32d9c69d2a47ea670b442974b53935d1edc7fd64eb21e047a839171b9190a45050565b600061151a836001600160a01b0384166129fd565b60008260000182815481106126be57634e487b7160e01b600052603260045260246000fd5b9060005260206000200154905092915050565b600054610100900460ff16610e6b5760405162461bcd60e51b81526004016108c790613597565b600054610100900460ff1661271f5760405162461bcd60e51b81526004016108c790613597565b81516127329060c9906020850190612dcb565b5080516109fd9060ca906020840190612dcb565b600054610100900460ff1661276d5760405162461bcd60e51b81526004016108c790613597565b61012d805460ff19169055565b600054610100900460ff166127a15760405162461bcd60e51b81526004016108c790613597565b80516127b590610192906020840190612dcb565b506127c1600033612b1a565b6127d960008051602061386583398151915233612b1a565b6127f160008051602061384583398151915233612b1a565b610d7160008051602061388583398151915233612b1a565b60006001600160a01b0384163b1561290b57604051630a85bd0160e11b81526001600160a01b0385169063150b7a029061284d90339089908890889060040161340e565b602060405180830381600087803b15801561286757600080fd5b505af1925050508015612897575060408051601f3d908101601f1916820190925261289491810190613125565b60015b6128f1573d8080156128c5576040519150601f19603f3d011682016040523d82523d6000602084013e6128ca565b606091505b5080516128e95760405162461bcd60e51b81526004016108c7906134b2565b805181602001fd5b6001600160e01b031916630a85bd0160e11b149050611bf6565b506001949350505050565b60006001600160e01b03198216635a05180f60e01b14806107ba57506107ba82612b24565b612946838383612b59565b61012d5460ff16156109fd5760405162461bcd60e51b815260206004820152602b60248201527f4552433732315061757361626c653a20746f6b656e207472616e73666572207760448201526a1a1a5b19481c185d5cd95960aa1b60648201526084016108c7565b60008181526001830160205260408120546129f5575081546001818101845560008481526020808220909301849055845484825282860190935260409020919091556107ba565b5060006107ba565b60008181526001830160205260408120548015612b10576000612a2160018361371a565b8554909150600090612a359060019061371a565b9050818114612ab6576000866000018281548110612a6357634e487b7160e01b600052603260045260246000fd5b9060005260206000200154905080876000018481548110612a9457634e487b7160e01b600052603260045260246000fd5b6000918252602080832090910192909255918252600188019052604090208390555b8554869080612ad557634e487b7160e01b600052603160045260246000fd5b6001900381819060005260206000200160009055905585600101600086815260200190815260200160002060009055600193505050506107ba565b60009150506107ba565b610dee8282611e0d565b60006001600160e01b03198216637965db0b60e01b14806107ba57506301ffc9a760e01b6001600160e01b03198316146107ba565b6001600160a01b038316612bb457612baf8160fd8054600083815260fe60205260408120829055600182018355919091527f9346ac6dd7de6b96975fec380d4d994c4c12e6a8897544f22915316cc6cca2800155565b612bd7565b816001600160a01b0316836001600160a01b031614612bd757612bd78382612c11565b6001600160a01b038216612bee576109fd81612cae565b826001600160a01b0316826001600160a01b0316146109fd576109fd8282612d87565b60006001612c1e846110a9565b612c28919061371a565b600083815260fc6020526040902054909150808214612c7b576001600160a01b038416600090815260fb60209081526040808320858452825280832054848452818420819055835260fc90915290208190555b50600091825260fc602090815260408084208490556001600160a01b03909416835260fb81528383209183525290812055565b60fd54600090612cc09060019061371a565b600083815260fe602052604081205460fd8054939450909284908110612cf657634e487b7160e01b600052603260045260246000fd5b906000526020600020015490508060fd8381548110612d2557634e487b7160e01b600052603260045260246000fd5b600091825260208083209091019290925582815260fe909152604080822084905585825281205560fd805480612d6b57634e487b7160e01b600052603160045260246000fd5b6001900381819060005260206000200160009055905550505050565b6000612d92836110a9565b6001600160a01b03909316600090815260fb60209081526040808320868452825280832085905593825260fc9052919091209190915550565b828054612dd790613774565b90600052602060002090601f016020900481019282612df95760008555612e3f565b82601f10612e1257805160ff1916838001178555612e3f565b82800160010185558215612e3f579182015b82811115612e3f578251825591602001919060010190612e24565b50612e4b929150612e4f565b5090565b5b80821115612e4b5760008155600101612e50565b6000612e77612e72846136a7565b613676565b9050828152838383011115612e8b57600080fd5b828260208301376000602084830101529392505050565b80356001600160a01b038116811461148557600080fd5b600082601f830112612ec9578081fd5b61151a83833560208501612e64565b600082601f830112612ee8578081fd5b8151612ef6612e72826136a7565b818152846020838601011115612f0a578283fd5b611bf6826020830160208701613731565b600060208284031215612f2c578081fd5b61151a82612ea2565b60008060408385031215612f47578081fd5b612f5083612ea2565b9150612f5e60208401612ea2565b90509250929050565b600080600060608486031215612f7b578081fd5b612f8484612ea2565b9250612f9260208501612ea2565b9150604084013590509250925092565b60008060008060808587031215612fb7578081fd5b612fc085612ea2565b9350612fce60208601612ea2565b925060408501359150606085013567ffffffffffffffff811115612ff0578182fd5b8501601f81018713613000578182fd5b61300f87823560208401612e64565b91505092959194509250565b6000806040838503121561302d578182fd5b61303683612ea2565b9150602083013561304681613820565b809150509250929050565b60008060408385031215613063578182fd5b61306c83612ea2565b946020939093013593505050565b60006020828403121561308b578081fd5b815161151a81613820565b6000602082840312156130a7578081fd5b5035919050565b6000602082840312156130bf578081fd5b5051919050565b600080604083850312156130d8578182fd5b82359150612f5e60208401612ea2565b600080604083850312156130fa578182fd5b50508035926020909101359150565b60006020828403121561311a578081fd5b813561151a8161382e565b600060208284031215613136578081fd5b815161151a8161382e565b600060208284031215613152578081fd5b813567ffffffffffffffff811115613168578182fd5b611bf684828501612eb9565b60008060408385031215613186578182fd5b823567ffffffffffffffff8082111561319d578384fd5b6131a986838701612eb9565b935060208501359150808211156131be578283fd5b506131cb85828601612eb9565b9150509250929050565b6000806000606084860312156131e9578081fd5b833567ffffffffffffffff80821115613200578283fd5b61320c87838801612eb9565b94506020860135915080821115613221578283fd5b61322d87838801612eb9565b93506040860135915080821115613242578283fd5b5061324f86828701612eb9565b9150509250925092565b60006020828403121561326a578081fd5b815167ffffffffffffffff80821115613281578283fd5b9083019060808286031215613294578283fd5b61329c61364d565b825181526020830151828111156132b1578485fd5b6132bd87828601612ed8565b6020830152506040830151828111156132d4578485fd5b6132e087828601612ed8565b6040830152506060830151828111156132f7578485fd5b61330387828601612ed8565b60608301525095945050505050565b6000815180845261332a816020860160208601613731565b601f01601f19169290920160200192915050565b60008251613350818460208701613731565b9190910192915050565b6000835161336c818460208801613731565b6327aba9a760e11b908301908152835161338d816004840160208801613731565b01600401949350505050565b7f416363657373436f6e74726f6c3a206163636f756e74200000000000000000008152600083516133d1816017850160208801613731565b7001034b99036b4b9b9b4b733903937b6329607d1b6017918401918201528351613402816028840160208801613731565b01602801949350505050565b6001600160a01b038581168252841660208201526040810183905260806060820181905260009061344190830184613312565b9695505050505050565b60208152600061151a6020830184613312565b6080815260006134716080830188613312565b82810360208401526134838188613312565b91505060018060a01b038516604083015263ffffffff83168460201b1760401b60608301529695505050505050565b60208082526032908201527f4552433732313a207472616e7366657220746f206e6f6e20455243373231526560408201527131b2b4bb32b91034b6b83632b6b2b73a32b960711b606082015260800190565b60208082526034908201526000805160206138a583398151915260408201527361646d696e20726f6c6520746f206368616e676560601b606082015260800190565b60208082526031908201527f4552433732313a207472616e736665722063616c6c6572206973206e6f74206f6040820152701ddb995c881b9bdc88185c1c1c9bdd9959607a1b606082015260800190565b6020808252602b908201527f496e697469616c697a61626c653a20636f6e7472616374206973206e6f74206960408201526a6e697469616c697a696e6760a81b606082015260800190565b6020815281516020820152600060208301516080604084015261360860a0840182613312565b90506040840151601f19808584030160608601526136268383613312565b92506060860151915080858403016080860152506136448282613312565b95945050505050565b6040516080810167ffffffffffffffff811182821017156136705761367061380a565b60405290565b604051601f8201601f1916810167ffffffffffffffff8111828210171561369f5761369f61380a565b604052919050565b600067ffffffffffffffff8211156136c1576136c161380a565b50601f01601f191660200190565b600082198211156136e2576136e26137de565b500190565b6000826136f6576136f66137f4565b500490565b6000816000190483118215151615613715576137156137de565b500290565b60008282101561372c5761372c6137de565b500390565b60005b8381101561374c578181015183820152602001613734565b838111156119275750506000910152565b60008161376c5761376c6137de565b506000190190565b600181811c9082168061378857607f821691505b602082108114156137a957634e487b7160e01b600052602260045260246000fd5b50919050565b60006000198214156137c3576137c36137de565b5060010190565b6000826137d9576137d96137f4565b500690565b634e487b7160e01b600052601160045260246000fd5b634e487b7160e01b600052601260045260246000fd5b634e487b7160e01b600052604160045260246000fd5b8015158114610d7157600080fd5b6001600160e01b031981168114610d7157600080fdfe65d7a28e3265b37a6474929f336521b332c1681b933f6cb9f3376673440d862a9f2df0fed2c77648de5860a4cc508cd0818c85b8b8a1ab4ceeef8d981c8956a6a49807205ce4d355092ef5a8a18f56e8913cf4a201fbe287825b095693c217754f776e596f7572536f6369616c4e6574776f726b3a206d757374206861766520a2646970667358221220433d05795942d3c8c5617c74f8d600ba95414d0e138ec6589e0dc5bd55bf042764736f6c63430008040033","linkReferences":{},"deployedLinkReferences":{}}