{"_format":"hh-sol-artifact-1","contractName":"OwnYourWords","sourceName":"contracts/OwnYourWords.sol","abi":[{"anonymous":false,"inputs":[{"indexed":true,"internalType":"address","name":"owner","type":"address"},{"indexed":true,"internalType":"address","name":"approved","type":"address"},{"indexed":true,"internalType":"uint256","name":"tokenId","type":"uint256"}],"name":"Approval","type":"event"},{"anonymous":false,"inputs":[{"indexed":true,"internalType":"address","name":"owner","type":"address"},{"indexed":true,"internalType":"address","name":"operator","type":"address"},{"indexed":false,"internalType":"bool","name":"approved","type":"bool"}],"name":"ApprovalForAll","type":"event"},{"anonymous":false,"inputs":[{"indexed":false,"internalType":"address","name":"account","type":"address"}],"name":"Paused","type":"event"},{"anonymous":false,"inputs":[{"indexed":true,"internalType":"bytes32","name":"role","type":"bytes32"},{"indexed":true,"internalType":"bytes32","name":"previousAdminRole","type":"bytes32"},{"indexed":true,"internalType":"bytes32","name":"newAdminRole","type":"bytes32"}],"name":"RoleAdminChanged","type":"event"},{"anonymous":false,"inputs":[{"indexed":true,"internalType":"bytes32","name":"role","type":"bytes32"},{"indexed":true,"internalType":"address","name":"account","type":"address"},{"indexed":true,"internalType":"address","name":"sender","type":"address"}],"name":"RoleGranted","type":"event"},{"anonymous":false,"inputs":[{"indexed":true,"internalType":"bytes32","name":"role","type":"bytes32"},{"indexed":true,"internalType":"address","name":"account","type":"address"},{"indexed":true,"internalType":"address","name":"sender","type":"address"}],"name":"RoleRevoked","type":"event"},{"anonymous":false,"inputs":[{"indexed":true,"internalType":"address","name":"from","type":"address"},{"indexed":true,"internalType":"address","name":"to","type":"address"},{"indexed":true,"internalType":"uint256","name":"tokenId","type":"uint256"}],"name":"Transfer","type":"event"},{"anonymous":false,"inputs":[{"indexed":false,"internalType":"address","name":"account","type":"address"}],"name":"Unpaused","type":"event"},{"inputs":[],"name":"ADMIN_ROLE","outputs":[{"internalType":"bytes32","name":"","type":"bytes32"}],"stateMutability":"view","type":"function"},{"inputs":[],"name":"DEFAULT_ADMIN_ROLE","outputs":[{"internalType":"bytes32","name":"","type":"bytes32"}],"stateMutability":"view","type":"function"},{"inputs":[],"name":"MINTER_ROLE","outputs":[{"internalType":"bytes32","name":"","type":"bytes32"}],"stateMutability":"view","type":"function"},{"inputs":[],"name":"PAUSER_ROLE","outputs":[{"internalType":"bytes32","name":"","type":"bytes32"}],"stateMutability":"view","type":"function"},{"inputs":[{"internalType":"address","name":"to","type":"address"},{"internalType":"uint256","name":"tokenId","type":"uint256"}],"name":"approve","outputs":[],"stateMutability":"nonpayable","type":"function"},{"inputs":[{"internalType":"address","name":"owner","type":"address"}],"name":"balanceOf","outputs":[{"internalType":"uint256","name":"","type":"uint256"}],"stateMutability":"view","type":"function"},{"inputs":[],"name":"baseTokenURI","outputs":[{"internalType":"string","name":"","type":"string"}],"stateMutability":"view","type":"function"},{"inputs":[{"internalType":"uint256","name":"tokenId","type":"uint256"}],"name":"getApproved","outputs":[{"internalType":"address","name":"","type":"address"}],"stateMutability":"view","type":"function"},{"inputs":[{"internalType":"string","name":"sn_name","type":"string"},{"internalType":"string","name":"sn_id","type":"string"}],"name":"getOWWBySnId","outputs":[{"components":[{"internalType":"uint256","name":"id","type":"uint256"},{"internalType":"string","name":"sn_name","type":"string"},{"internalType":"string","name":"post_id","type":"string"},{"internalType":"string","name":"post_url","type":"string"}],"internalType":"struct OwnedWords.data","name":"","type":"tuple"}],"stateMutability":"view","type":"function"},{"inputs":[{"internalType":"uint256","name":"tokenId","type":"uint256"}],"name":"getOWWByTokenId","outputs":[{"components":[{"internalType":"uint256","name":"id","type":"uint256"},{"internalType":"string","name":"sn_name","type":"string"},{"internalType":"string","name":"post_id","type":"string"},{"internalType":"string","name":"post_url","type":"string"}],"internalType":"struct OwnedWords.data","name":"","type":"tuple"}],"stateMutability":"view","type":"function"},{"inputs":[{"internalType":"bytes32","name":"role","type":"bytes32"}],"name":"getRoleAdmin","outputs":[{"internalType":"bytes32","name":"","type":"bytes32"}],"stateMutability":"view","type":"function"},{"inputs":[{"internalType":"bytes32","name":"role","type":"bytes32"},{"internalType":"uint256","name":"index","type":"uint256"}],"name":"getRoleMember","outputs":[{"internalType":"address","name":"","type":"address"}],"stateMutability":"view","type":"function"},{"inputs":[{"internalType":"bytes32","name":"role","type":"bytes32"}],"name":"getRoleMemberCount","outputs":[{"internalType":"uint256","name":"","type":"uint256"}],"stateMutability":"view","type":"function"},{"inputs":[{"internalType":"bytes32","name":"role","type":"bytes32"},{"internalType":"address","name":"account","type":"address"}],"name":"grantRole","outputs":[],"stateMutability":"nonpayable","type":"function"},{"inputs":[{"internalType":"bytes32","name":"role","type":"bytes32"},{"internalType":"address","name":"account","type":"address"}],"name":"hasRole","outputs":[{"internalType":"bool","name":"","type":"bool"}],"stateMutability":"view","type":"function"},{"inputs":[{"internalType":"string","name":"name","type":"string"},{"internalType":"string","name":"symbol","type":"string"},{"internalType":"string","name":"baseTokenURI","type":"string"}],"name":"initialize","outputs":[],"stateMutability":"nonpayable","type":"function"},{"inputs":[{"internalType":"address","name":"owner","type":"address"},{"internalType":"address","name":"operator","type":"address"}],"name":"isApprovedForAll","outputs":[{"internalType":"bool","name":"","type":"bool"}],"stateMutability":"view","type":"function"},{"inputs":[{"internalType":"string","name":"sn_name","type":"string"},{"internalType":"string","name":"sn_id","type":"string"}],"name":"isAvailable","outputs":[{"internalType":"bool","name":"","type":"bool"}],"stateMutability":"view","type":"function"},{"inputs":[{"internalType":"address","name":"to","type":"address"}],"name":"mint","outputs":[{"internalType":"uint256","name":"","type":"uint256"}],"stateMutability":"nonpayable","type":"function"},{"inputs":[{"internalType":"string","name":"postId","type":"string"}],"name":"mintTwitterPost","outputs":[],"stateMutability":"payable","type":"function"},{"inputs":[],"name":"name","outputs":[{"internalType":"string","name":"","type":"string"}],"stateMutability":"view","type":"function"},{"inputs":[{"internalType":"uint256","name":"tokenId","type":"uint256"}],"name":"ownerOf","outputs":[{"internalType":"address","name":"","type":"address"}],"stateMutability":"view","type":"function"},{"inputs":[],"name":"pause","outputs":[],"stateMutability":"nonpayable","type":"function"},{"inputs":[],"name":"paused","outputs":[{"internalType":"bool","name":"","type":"bool"}],"stateMutability":"view","type":"function"},{"inputs":[{"internalType":"bytes32","name":"role","type":"bytes32"},{"internalType":"address","name":"account","type":"address"}],"name":"renounceRole","outputs":[],"stateMutability":"nonpayable","type":"function"},{"inputs":[],"name":"retrieveFunds","outputs":[],"stateMutability":"nonpayable","type":"function"},{"inputs":[{"internalType":"bytes32","name":"role","type":"bytes32"},{"internalType":"address","name":"account","type":"address"}],"name":"revokeRole","outputs":[],"stateMutability":"nonpayable","type":"function"},{"inputs":[{"internalType":"address","name":"from","type":"address"},{"internalType":"address","name":"to","type":"address"},{"internalType":"uint256","name":"tokenId","type":"uint256"}],"name":"safeTransferFrom","outputs":[],"stateMutability":"nonpayable","type":"function"},{"inputs":[{"internalType":"address","name":"from","type":"address"},{"internalType":"address","name":"to","type":"address"},{"internalType":"uint256","name":"tokenId","type":"uint256"},{"internalType":"bytes","name":"_data","type":"bytes"}],"name":"safeTransferFrom","outputs":[],"stateMutability":"nonpayable","type":"function"},{"inputs":[{"internalType":"address","name":"operator","type":"address"},{"internalType":"bool","name":"approved","type":"bool"}],"name":"setApprovalForAll","outputs":[],"stateMutability":"nonpayable","type":"function"},{"inputs":[{"internalType":"string","name":"newBaseURI","type":"string"}],"name":"setBaseURI","outputs":[],"stateMutability":"nonpayable","type":"function"},{"inputs":[{"internalType":"address","name":"twitterPostMinterAddress","type":"address"}],"name":"setTwitterPostMinterAddress","outputs":[],"stateMutability":"nonpayable","type":"function"},{"inputs":[{"internalType":"bytes4","name":"interfaceId","type":"bytes4"}],"name":"supportsInterface","outputs":[{"internalType":"bool","name":"","type":"bool"}],"stateMutability":"view","type":"function"},{"inputs":[],"name":"symbol","outputs":[{"internalType":"string","name":"","type":"string"}],"stateMutability":"view","type":"function"},{"inputs":[{"internalType":"uint256","name":"index","type":"uint256"}],"name":"tokenByIndex","outputs":[{"internalType":"uint256","name":"","type":"uint256"}],"stateMutability":"view","type":"function"},{"inputs":[{"internalType":"address","name":"owner","type":"address"},{"internalType":"uint256","name":"index","type":"uint256"}],"name":"tokenOfOwnerByIndex","outputs":[{"internalType":"uint256","name":"","type":"uint256"}],"stateMutability":"view","type":"function"},{"inputs":[{"internalType":"uint256","name":"_tokenId","type":"uint256"}],"name":"tokenURI","outputs":[{"internalType":"string","name":"","type":"string"}],"stateMutability":"view","type":"function"},{"inputs":[],"name":"totalSupply","outputs":[{"internalType":"uint256","name":"","type":"uint256"}],"stateMutability":"view","type":"function"},{"inputs":[{"internalType":"address","name":"from","type":"address"},{"internalType":"address","name":"to","type":"address"},{"internalType":"uint256","name":"tokenId","type":"uint256"}],"name":"transferFrom","outputs":[],"stateMutability":"nonpayable","type":"function"},{"inputs":[],"name":"unpause","outputs":[],"stateMutability":"nonpayable","type":"function"}],"bytecode":"0x608060405234801561001057600080fd5b5061351b806100206000396000f3fe60806040526004361061023b5760003560e01c806370a082311161012e578063b88d4fde116100ab578063d547cfb71161006f578063d547cfb7146106b3578063e63ab1e9146106c8578063e9856dac146106ea578063e985e9c5146106fd578063f259df8d1461074657600080fd5b8063b88d4fde14610611578063c87b56dd14610631578063ca15c87314610651578063d539139314610671578063d547741f1461069357600080fd5b806391d14854116100f257806391d148541461058757806395d89b41146105a7578063a217fddf146105bc578063a22cb465146105d1578063a6487c53146105f157600080fd5b806370a08231146104e357806375b238fc146105035780638456cb5914610525578063885558181461053a5780639010d07c1461056757600080fd5b80632f745c59116101bc57806355f804b31161018057806355f804b3146104555780635c975abb1461047557806361b20d8c1461048e5780636352211e146104a35780636a627842146104c357600080fd5b80632f745c59146103c057806336568abe146103e05780633f4ba83a1461040057806342842e0e146104155780634f6ccce71461043557600080fd5b806318160ddd1161020357806318160ddd146103115780631b2b559d1461033057806323b872dd14610350578063248a9ca3146103705780632f2ff15d146103a057600080fd5b806301ffc9a71461024057806306fdde0314610275578063081812fc14610297578063095ea7b3146102cf5780630e565948146102f1575b600080fd5b34801561024c57600080fd5b5061026061025b366004612d58565b610766565b60405190151581526020015b60405180910390f35b34801561028157600080fd5b5061028a610777565b60405161026c9190613099565b3480156102a357600080fd5b506102b76102b2366004612ce5565b610809565b6040516001600160a01b03909116815260200161026c565b3480156102db57600080fd5b506102ef6102ea366004612ca0565b6108a3565b005b3480156102fd57600080fd5b5061026061030c366004612dc3565b6109b9565b34801561031d57600080fd5b5060fd545b60405190815260200161026c565b34801561033c57600080fd5b506102ef61034b366004612b6a565b610af9565b34801561035c57600080fd5b506102ef61036b366004612bb6565b610bcd565b34801561037c57600080fd5b5061032261038b366004612ce5565b60009081526065602052604090206001015490565b3480156103ac57600080fd5b506102ef6103bb366004612d15565b610bfe565b3480156103cc57600080fd5b506103226103db366004612ca0565b610c24565b3480156103ec57600080fd5b506102ef6103fb366004612d15565b610cba565b34801561040c57600080fd5b506102ef610d38565b34801561042157600080fd5b506102ef610430366004612bb6565b610dbd565b34801561044157600080fd5b50610322610450366004612ce5565b610dd8565b34801561046157600080fd5b506102ef610470366004612d90565b610e79565b34801561048157600080fd5b5061012d5460ff16610260565b34801561049a57600080fd5b506102ef610ea6565b3480156104af57600080fd5b506102b76104be366004612ce5565b610eeb565b3480156104cf57600080fd5b506103226104de366004612b6a565b610f62565b3480156104ef57600080fd5b506103226104fe366004612b6a565b611003565b34801561050f57600080fd5b506103226000805160206134c683398151915281565b34801561053157600080fd5b506102ef61108a565b34801561054657600080fd5b5061055a610555366004612dc3565b61110b565b60405161026c9190613223565b34801561057357600080fd5b506102b7610582366004612d37565b6112e7565b34801561059357600080fd5b506102606105a2366004612d15565b611306565b3480156105b357600080fd5b5061028a611331565b3480156105c857600080fd5b50610322600081565b3480156105dd57600080fd5b506102ef6105ec366004612c6a565b611340565b3480156105fd57600080fd5b506102ef61060c366004612e24565b61134b565b34801561061d57600080fd5b506102ef61062c366004612bf1565b611412565b34801561063d57600080fd5b5061028a61064c366004612ce5565b611444565b34801561065d57600080fd5b5061032261066c366004612ce5565b61147e565b34801561067d57600080fd5b506103226000805160206134a683398151915281565b34801561069f57600080fd5b506102ef6106ae366004612d15565b611495565b3480156106bf57600080fd5b5061028a6114bb565b3480156106d457600080fd5b5061032260008051602061348683398151915281565b6102ef6106f8366004612d90565b6114cb565b34801561070957600080fd5b50610260610718366004612b84565b6001600160a01b03918216600090815260ce6020908152604080832093909416825291909152205460ff1690565b34801561075257600080fd5b5061055a610761366004612ce5565b61153f565b6000610771826116c3565b92915050565b606060c98054610786906133b5565b80601f01602080910402602001604051908101604052809291908181526020018280546107b2906133b5565b80156107ff5780601f106107d4576101008083540402835291602001916107ff565b820191906000526020600020905b8154815290600101906020018083116107e257829003601f168201915b5050505050905090565b600081815260cb60205260408120546001600160a01b03166108875760405162461bcd60e51b815260206004820152602c60248201527f4552433732313a20617070726f76656420717565727920666f72206e6f6e657860448201526b34b9ba32b73a103a37b5b2b760a11b60648201526084015b60405180910390fd5b50600090815260cd60205260409020546001600160a01b031690565b60006108ae82610eeb565b9050806001600160a01b0316836001600160a01b0316141561091c5760405162461bcd60e51b815260206004820152602160248201527f4552433732313a20617070726f76616c20746f2063757272656e74206f776e656044820152603960f91b606482015260840161087e565b336001600160a01b038216148061093857506109388133610718565b6109aa5760405162461bcd60e51b815260206004820152603860248201527f4552433732313a20617070726f76652063616c6c6572206973206e6f74206f7760448201527f6e6572206e6f7220617070726f76656420666f7220616c6c0000000000000000606482015260840161087e565b6109b483836116e8565b505050565b600080836040516020016109cd9190612f8d565b60408051601f19818403018152828252805160209182012061019354633791ea5360e01b8552925190945084936001600160a01b0390931692633791ea53926004808301939192829003018186803b158015610a2857600080fd5b505afa158015610a3c573d6000803e3d6000fd5b505050506040513d601f19601f82011682018060405250810190610a609190612cfd565b1415610aef5761019354604051634b29835560e11b81526001600160a01b039091169063965306aa90610a97908690600401613099565b60206040518083038186803b158015610aaf57600080fd5b505afa158015610ac3573d6000803e3d6000fd5b505050506040513d601f19601f82011682018060405250810190610ae79190612cc9565b915050610771565b5060009392505050565b610b116000805160206134c683398151915233611306565b610b705760405162461bcd60e51b815260206004820152602a60248201527f4f776e596f7572576f7264733a206d75737420686176652061646d696e20726f6044820152691b19481d1bc81b5a5b9d60b21b606482015260840161087e565b61019354610b96906000805160206134a6833981519152906001600160a01b0316611495565b61019380546001600160a01b0319166001600160a01b038316179055610bca6000805160206134a683398151915282610bfe565b50565b610bd73382611756565b610bf35760405162461bcd60e51b815260040161087e90613187565b6109b483838361184d565b600082815260656020526040902060010154610c1a81336119f8565b6109b48383611a5c565b6000610c2f83611003565b8210610c915760405162461bcd60e51b815260206004820152602b60248201527f455243373231456e756d657261626c653a206f776e657220696e646578206f7560448201526a74206f6620626f756e647360a81b606482015260840161087e565b506001600160a01b0391909116600090815260fb60209081526040808320938352929052205490565b6001600160a01b0381163314610d2a5760405162461bcd60e51b815260206004820152602f60248201527f416363657373436f6e74726f6c3a2063616e206f6e6c792072656e6f756e636560448201526e103937b632b9903337b91039b2b63360891b606482015260840161087e565b610d348282611a7e565b5050565b610d5060008051602061348683398151915233611306565b610db35760405162461bcd60e51b815260206004820152602e60248201527f4f776e596f7572576f7264733a206d757374206861766520706175736572207260448201526d6f6c6520746f20756e706175736560901b606482015260840161087e565b610dbb611aa0565b565b6109b483838360405180602001604052806000815250611412565b6000610de360fd5490565b8210610e465760405162461bcd60e51b815260206004820152602c60248201527f455243373231456e756d657261626c653a20676c6f62616c20696e646578206f60448201526b7574206f6620626f756e647360a01b606482015260840161087e565b60fd8281548110610e6757634e487b7160e01b600052603260045260246000fd5b90600052602060002001549050919050565b6000805160206134c6833981519152610e9281336119f8565b81516109b490610192906020850190612a1a565b6000805160206134c6833981519152610ebf81336119f8565b60405133904780156108fc02916000818181858888f19350505050158015610d34573d6000803e3d6000fd5b600081815260cb60205260408120546001600160a01b0316806107715760405162461bcd60e51b815260206004820152602960248201527f4552433732313a206f776e657220717565727920666f72206e6f6e657869737460448201526832b73a103a37b5b2b760b91b606482015260840161087e565b6000610f7c6000805160206134a683398151915233611306565b610fdc5760405162461bcd60e51b815260206004820152602b60248201527f4f776e596f7572576f7264733a206d7573742068617665206d696e746572207260448201526a1bdb19481d1bc81b5a5b9d60aa1b606482015260840161087e565b6000610fe86101915490565b9050610ff48382611b35565b61077161019180546001019055565b60006001600160a01b03821661106e5760405162461bcd60e51b815260206004820152602a60248201527f4552433732313a2062616c616e636520717565727920666f7220746865207a65604482015269726f206164647265737360b01b606482015260840161087e565b506001600160a01b0316600090815260cc602052604090205490565b6110a260008051602061348683398151915233611306565b6111035760405162461bcd60e51b815260206004820152602c60248201527f4f776e596f7572576f7264733a206d757374206861766520706175736572207260448201526b6f6c6520746f20706175736560a01b606482015260840161087e565b610dbb611c83565b6111366040518060800160405280600081526020016060815260200160608152602001606081525090565b61114083836109b9565b1561115d5760405162461bcd60e51b815260040161087e906130ec565b6000836040516020016111709190612f8d565b60408051601f19818403018152828252805160209182012061019354633791ea5360e01b8552925190945084936001600160a01b0390931692633791ea53926004808301939192829003018186803b1580156111cb57600080fd5b505afa1580156111df573d6000803e3d6000fd5b505050506040513d601f19601f820116820180604052508101906112039190612cfd565b141561128e5761019354604051633ecec7bf60e21b81526001600160a01b039091169063fb3b1efc9061123a908690600401613099565b60006040518083038186803b15801561125257600080fd5b505afa158015611266573d6000803e3d6000fd5b505050506040513d6000823e601f3d908101601f19168201604052610ae79190810190612ea8565b60405162461bcd60e51b815260206004820152602860248201527f4f776e596f7572576f7264733a20556e737570706f7274656420736f6369616c604482015267206e6574776f726b60c01b606482015260840161087e565b60008281526097602052604081206112ff9083611d00565b9392505050565b60009182526065602090815260408084206001600160a01b0393909316845291905290205460ff1690565b606060ca8054610786906133b5565b610d34338383611d0c565b600054610100900460ff166113665760005460ff161561136a565b303b155b6113cd5760405162461bcd60e51b815260206004820152602e60248201527f496e697469616c697a61626c653a20636f6e747261637420697320616c72656160448201526d191e481a5b9a5d1a585b1a5e995960921b606482015260840161087e565b600054610100900460ff161580156113ef576000805461ffff19166101011790555b6113fa848484611ddb565b801561140c576000805461ff00191690555b50505050565b61141c3383611756565b6114385760405162461bcd60e51b815260040161087e90613187565b61140c84848484611e4d565b606061144e6114bb565b61145783611e80565b604051602001611468929190612fa9565b6040516020818303038152906040529050919050565b600081815260976020526040812061077190611f9a565b6000828152606560205260409020600101546114b181336119f8565b6109b48383611a7e565b60606101928054610786906133b5565b610193546001600160a01b031663744cc5413483336040516001600160e01b031960e086901b16815261150a9291903090636a627842906004016130ac565b6000604051808303818588803b15801561152357600080fd5b505af1158015611537573d6000803e3d6000fd5b505050505050565b61156a6040518060800160405280600081526020016060815260200160608152602001606081525090565b600082815260cb60205260409020546001600160a01b0316151515156001146115a55760405162461bcd60e51b815260040161087e906130ec565b6101935460405162491fcf60e11b8152600481018490526001600160a01b039091169062923f9e9060240160206040518083038186803b1580156115e857600080fd5b505afa1580156115fc573d6000803e3d6000fd5b505050506040513d601f19601f820116820180604052508101906116209190612cc9565b156116a6576101935460405163f259df8d60e01b8152600481018490526001600160a01b039091169063f259df8d9060240160006040518083038186803b15801561166a57600080fd5b505afa15801561167e573d6000803e3d6000fd5b505050506040513d6000823e601f3d908101601f191682016040526107719190810190612ea8565b60405162461bcd60e51b815260040161087e906130ec565b919050565b60006001600160e01b0319821663780e9d6360e01b1480610771575061077182611fa4565b600081815260cd6020526040902080546001600160a01b0319166001600160a01b038416908117909155819061171d82610eeb565b6001600160a01b03167f8c5be1e5ebec7d5bd14f71427d1e84f3dd0314c0f7b2291e5b200ac8c7c3b92560405160405180910390a45050565b600081815260cb60205260408120546001600160a01b03166117cf5760405162461bcd60e51b815260206004820152602c60248201527f4552433732313a206f70657261746f7220717565727920666f72206e6f6e657860448201526b34b9ba32b73a103a37b5b2b760a11b606482015260840161087e565b60006117da83610eeb565b9050806001600160a01b0316846001600160a01b031614806118155750836001600160a01b031661180a84610809565b6001600160a01b0316145b8061184557506001600160a01b03808216600090815260ce602090815260408083209388168352929052205460ff165b949350505050565b826001600160a01b031661186082610eeb565b6001600160a01b0316146118c85760405162461bcd60e51b815260206004820152602960248201527f4552433732313a207472616e73666572206f6620746f6b656e2074686174206960448201526839903737ba1037bbb760b91b606482015260840161087e565b6001600160a01b03821661192a5760405162461bcd60e51b8152602060048201526024808201527f4552433732313a207472616e7366657220746f20746865207a65726f206164646044820152637265737360e01b606482015260840161087e565b611935838383611fe4565b6119406000826116e8565b6001600160a01b038316600090815260cc6020526040812080546001929061196990849061335b565b90915550506001600160a01b038216600090815260cc60205260408120805460019290611997908490613310565b9091555050600081815260cb602052604080822080546001600160a01b0319166001600160a01b0386811691821790925591518493918716917fddf252ad1be2c89b69c2b068fc378daa952ba7f163c4a11628f55a4df523b3ef91a4505050565b611a028282611306565b610d3457611a1a816001600160a01b03166014611fef565b611a25836020611fef565b604051602001611a36929190612fe7565b60408051601f198184030181529082905262461bcd60e51b825261087e91600401613099565b611a6682826121d1565b60008281526097602052604090206109b49082612257565b611a88828261226c565b60008281526097602052604090206109b490826122d3565b61012d5460ff16611aea5760405162461bcd60e51b815260206004820152601460248201527314185d5cd8589b194e881b9bdd081c185d5cd95960621b604482015260640161087e565b61012d805460ff191690557f5db9ee0a495bf2e6ff9c91a7834c1ba4fdd244a5e8aa4e537bd38aeae4b073aa335b6040516001600160a01b03909116815260200160405180910390a1565b6001600160a01b038216611b8b5760405162461bcd60e51b815260206004820181905260248201527f4552433732313a206d696e7420746f20746865207a65726f2061646472657373604482015260640161087e565b600081815260cb60205260409020546001600160a01b031615611bf05760405162461bcd60e51b815260206004820152601c60248201527f4552433732313a20746f6b656e20616c7265616479206d696e74656400000000604482015260640161087e565b611bfc60008383611fe4565b6001600160a01b038216600090815260cc60205260408120805460019290611c25908490613310565b9091555050600081815260cb602052604080822080546001600160a01b0319166001600160a01b03861690811790915590518392907fddf252ad1be2c89b69c2b068fc378daa952ba7f163c4a11628f55a4df523b3ef908290a45050565b61012d5460ff1615611cca5760405162461bcd60e51b815260206004820152601060248201526f14185d5cd8589b194e881c185d5cd95960821b604482015260640161087e565b61012d805460ff191660011790557f62e78cea01bee320cd4e420270b5ea74000d11b0c9f74754ebdbfc544b05a258611b183390565b60006112ff83836122e8565b816001600160a01b0316836001600160a01b03161415611d6e5760405162461bcd60e51b815260206004820152601960248201527f4552433732313a20617070726f766520746f2063616c6c657200000000000000604482015260640161087e565b6001600160a01b03838116600081815260ce6020908152604080832094871680845294825291829020805460ff191686151590811790915591519182527f17307eab39ab6107e8899845ad3d59bd9653f200f220920489ca2b5937696c31910160405180910390a3505050565b600054610100900460ff16611e025760405162461bcd60e51b815260040161087e906131d8565b611e0a612320565b611e12612320565b611e1a612320565b611e22612320565b611e2c8383612347565b611e34612320565b611e3c612395565b611e44612320565b6109b4816123c9565b611e5884848461184d565b611e6484848484612458565b61140c5760405162461bcd60e51b815260040161087e90613135565b606081611ea45750506040805180820190915260018152600360fc1b602082015290565b8160005b8115611ece5780611eb8816133f0565b9150611ec79050600a83613328565b9150611ea8565b60008167ffffffffffffffff811115611ef757634e487b7160e01b600052604160045260246000fd5b6040519080825280601f01601f191660200182016040528015611f21576020820181803683370190505b5090505b841561184557611f3660018361335b565b9150611f43600a8661340b565b611f4e906030613310565b60f81b818381518110611f7157634e487b7160e01b600052603260045260246000fd5b60200101906001600160f81b031916908160001a905350611f93600a86613328565b9450611f25565b6000610771825490565b60006001600160e01b031982166380ac58cd60e01b1480611fd557506001600160e01b03198216635b5e139f60e01b145b80610771575061077182612565565b6109b483838361258a565b60606000611ffe83600261333c565b612009906002613310565b67ffffffffffffffff81111561202f57634e487b7160e01b600052604160045260246000fd5b6040519080825280601f01601f191660200182016040528015612059576020820181803683370190505b509050600360fc1b8160008151811061208257634e487b7160e01b600052603260045260246000fd5b60200101906001600160f81b031916908160001a905350600f60fb1b816001815181106120bf57634e487b7160e01b600052603260045260246000fd5b60200101906001600160f81b031916908160001a90535060006120e384600261333c565b6120ee906001613310565b90505b6001811115612182576f181899199a1a9b1b9c1cb0b131b232b360811b85600f166010811061213057634e487b7160e01b600052603260045260246000fd5b1a60f81b82828151811061215457634e487b7160e01b600052603260045260246000fd5b60200101906001600160f81b031916908160001a90535060049490941c9361217b8161339e565b90506120f1565b5083156112ff5760405162461bcd60e51b815260206004820181905260248201527f537472696e67733a20686578206c656e67746820696e73756666696369656e74604482015260640161087e565b6121db8282611306565b610d345760008281526065602090815260408083206001600160a01b03851684529091529020805460ff191660011790556122133390565b6001600160a01b0316816001600160a01b0316837f2f8788117e7eff1d82e926ec794901d17c78024a50270940304540a733656f0d60405160405180910390a45050565b60006112ff836001600160a01b0384166125fd565b6122768282611306565b15610d345760008281526065602090815260408083206001600160a01b0385168085529252808320805460ff1916905551339285917ff6391f5c32d9c69d2a47ea670b442974b53935d1edc7fd64eb21e047a839171b9190a45050565b60006112ff836001600160a01b03841661264c565b600082600001828154811061230d57634e487b7160e01b600052603260045260246000fd5b9060005260206000200154905092915050565b600054610100900460ff16610dbb5760405162461bcd60e51b815260040161087e906131d8565b600054610100900460ff1661236e5760405162461bcd60e51b815260040161087e906131d8565b81516123819060c9906020850190612a1a565b5080516109b49060ca906020840190612a1a565b600054610100900460ff166123bc5760405162461bcd60e51b815260040161087e906131d8565b61012d805460ff19169055565b600054610100900460ff166123f05760405162461bcd60e51b815260040161087e906131d8565b805161240490610192906020840190612a1a565b50612410600033612769565b6124286000805160206134a683398151915233612769565b61244060008051602061348683398151915233612769565b610bca6000805160206134c683398151915233612769565b60006001600160a01b0384163b1561255a57604051630a85bd0160e11b81526001600160a01b0385169063150b7a029061249c90339089908890889060040161305c565b602060405180830381600087803b1580156124b657600080fd5b505af19250505080156124e6575060408051601f3d908101601f191682019092526124e391810190612d74565b60015b612540573d808015612514576040519150601f19603f3d011682016040523d82523d6000602084013e612519565b606091505b5080516125385760405162461bcd60e51b815260040161087e90613135565b805181602001fd5b6001600160e01b031916630a85bd0160e11b149050611845565b506001949350505050565b60006001600160e01b03198216635a05180f60e01b1480610771575061077182612773565b6125958383836127a8565b61012d5460ff16156109b45760405162461bcd60e51b815260206004820152602b60248201527f4552433732315061757361626c653a20746f6b656e207472616e73666572207760448201526a1a1a5b19481c185d5cd95960aa1b606482015260840161087e565b600081815260018301602052604081205461264457508154600181810184556000848152602080822090930184905584548482528286019093526040902091909155610771565b506000610771565b6000818152600183016020526040812054801561275f57600061267060018361335b565b85549091506000906126849060019061335b565b90508181146127055760008660000182815481106126b257634e487b7160e01b600052603260045260246000fd5b90600052602060002001549050808760000184815481106126e357634e487b7160e01b600052603260045260246000fd5b6000918252602080832090910192909255918252600188019052604090208390555b855486908061272457634e487b7160e01b600052603160045260246000fd5b600190038181906000526020600020016000905590558560010160008681526020019081526020016000206000905560019350505050610771565b6000915050610771565b610d348282611a5c565b60006001600160e01b03198216637965db0b60e01b148061077157506301ffc9a760e01b6001600160e01b0319831614610771565b6001600160a01b038316612803576127fe8160fd8054600083815260fe60205260408120829055600182018355919091527f9346ac6dd7de6b96975fec380d4d994c4c12e6a8897544f22915316cc6cca2800155565b612826565b816001600160a01b0316836001600160a01b031614612826576128268382612860565b6001600160a01b03821661283d576109b4816128fd565b826001600160a01b0316826001600160a01b0316146109b4576109b482826129d6565b6000600161286d84611003565b612877919061335b565b600083815260fc60205260409020549091508082146128ca576001600160a01b038416600090815260fb60209081526040808320858452825280832054848452818420819055835260fc90915290208190555b50600091825260fc602090815260408084208490556001600160a01b03909416835260fb81528383209183525290812055565b60fd5460009061290f9060019061335b565b600083815260fe602052604081205460fd805493945090928490811061294557634e487b7160e01b600052603260045260246000fd5b906000526020600020015490508060fd838154811061297457634e487b7160e01b600052603260045260246000fd5b600091825260208083209091019290925582815260fe909152604080822084905585825281205560fd8054806129ba57634e487b7160e01b600052603160045260246000fd5b6001900381819060005260206000200160009055905550505050565b60006129e183611003565b6001600160a01b03909316600090815260fb60209081526040808320868452825280832085905593825260fc9052919091209190915550565b828054612a26906133b5565b90600052602060002090601f016020900481019282612a485760008555612a8e565b82601f10612a6157805160ff1916838001178555612a8e565b82800160010185558215612a8e579182015b82811115612a8e578251825591602001919060010190612a73565b50612a9a929150612a9e565b5090565b5b80821115612a9a5760008155600101612a9f565b6000612ac6612ac1846132e8565b6132b7565b9050828152838383011115612ada57600080fd5b828260208301376000602084830101529392505050565b80356001600160a01b03811681146116be57600080fd5b600082601f830112612b18578081fd5b6112ff83833560208501612ab3565b600082601f830112612b37578081fd5b8151612b45612ac1826132e8565b818152846020838601011115612b59578283fd5b611845826020830160208701613372565b600060208284031215612b7b578081fd5b6112ff82612af1565b60008060408385031215612b96578081fd5b612b9f83612af1565b9150612bad60208401612af1565b90509250929050565b600080600060608486031215612bca578081fd5b612bd384612af1565b9250612be160208501612af1565b9150604084013590509250925092565b60008060008060808587031215612c06578081fd5b612c0f85612af1565b9350612c1d60208601612af1565b925060408501359150606085013567ffffffffffffffff811115612c3f578182fd5b8501601f81018713612c4f578182fd5b612c5e87823560208401612ab3565b91505092959194509250565b60008060408385031215612c7c578182fd5b612c8583612af1565b91506020830135612c9581613461565b809150509250929050565b60008060408385031215612cb2578182fd5b612cbb83612af1565b946020939093013593505050565b600060208284031215612cda578081fd5b81516112ff81613461565b600060208284031215612cf6578081fd5b5035919050565b600060208284031215612d0e578081fd5b5051919050565b60008060408385031215612d27578182fd5b82359150612bad60208401612af1565b60008060408385031215612d49578182fd5b50508035926020909101359150565b600060208284031215612d69578081fd5b81356112ff8161346f565b600060208284031215612d85578081fd5b81516112ff8161346f565b600060208284031215612da1578081fd5b813567ffffffffffffffff811115612db7578182fd5b61184584828501612b08565b60008060408385031215612dd5578182fd5b823567ffffffffffffffff80821115612dec578384fd5b612df886838701612b08565b93506020850135915080821115612e0d578283fd5b50612e1a85828601612b08565b9150509250929050565b600080600060608486031215612e38578081fd5b833567ffffffffffffffff80821115612e4f578283fd5b612e5b87838801612b08565b94506020860135915080821115612e70578283fd5b612e7c87838801612b08565b93506040860135915080821115612e91578283fd5b50612e9e86828701612b08565b9150509250925092565b600060208284031215612eb9578081fd5b815167ffffffffffffffff80821115612ed0578283fd5b9083019060808286031215612ee3578283fd5b612eeb61328e565b82518152602083015182811115612f00578485fd5b612f0c87828601612b27565b602083015250604083015182811115612f23578485fd5b612f2f87828601612b27565b604083015250606083015182811115612f46578485fd5b612f5287828601612b27565b60608301525095945050505050565b60008151808452612f79816020860160208601613372565b601f01601f19169290920160200192915050565b60008251612f9f818460208701613372565b9190910192915050565b60008351612fbb818460208801613372565b624f575760e81b9083019081528351612fdb816003840160208801613372565b01600301949350505050565b7f416363657373436f6e74726f6c3a206163636f756e742000000000000000000081526000835161301f816017850160208801613372565b7001034b99036b4b9b9b4b733903937b6329607d1b6017918401918201528351613050816028840160208801613372565b01602801949350505050565b6001600160a01b038581168252841660208201526040810183905260806060820181905260009061308f90830184612f61565b9695505050505050565b6020815260006112ff6020830184612f61565b6060815260006130bf6060830187612f61565b905060018060a01b038516602083015263ffffffff83168460201b1760401b604083015295945050505050565b60208082526029908201527f4f776e596f7572576f7264733a2054686520706f737420776173206e6f742079604082015268195d081b5a5b9d195960ba1b606082015260800190565b60208082526032908201527f4552433732313a207472616e7366657220746f206e6f6e20455243373231526560408201527131b2b4bb32b91034b6b83632b6b2b73a32b960711b606082015260800190565b60208082526031908201527f4552433732313a207472616e736665722063616c6c6572206973206e6f74206f6040820152701ddb995c881b9bdc88185c1c1c9bdd9959607a1b606082015260800190565b6020808252602b908201527f496e697469616c697a61626c653a20636f6e7472616374206973206e6f74206960408201526a6e697469616c697a696e6760a81b606082015260800190565b6020815281516020820152600060208301516080604084015261324960a0840182612f61565b90506040840151601f19808584030160608601526132678383612f61565b92506060860151915080858403016080860152506132858282612f61565b95945050505050565b6040516080810167ffffffffffffffff811182821017156132b1576132b161344b565b60405290565b604051601f8201601f1916810167ffffffffffffffff811182821017156132e0576132e061344b565b604052919050565b600067ffffffffffffffff8211156133025761330261344b565b50601f01601f191660200190565b600082198211156133235761332361341f565b500190565b60008261333757613337613435565b500490565b60008160001904831182151516156133565761335661341f565b500290565b60008282101561336d5761336d61341f565b500390565b60005b8381101561338d578181015183820152602001613375565b8381111561140c5750506000910152565b6000816133ad576133ad61341f565b506000190190565b600181811c908216806133c957607f821691505b602082108114156133ea57634e487b7160e01b600052602260045260246000fd5b50919050565b60006000198214156134045761340461341f565b5060010190565b60008261341a5761341a613435565b500690565b634e487b7160e01b600052601160045260246000fd5b634e487b7160e01b600052601260045260246000fd5b634e487b7160e01b600052604160045260246000fd5b8015158114610bca57600080fd5b6001600160e01b031981168114610bca57600080fdfe65d7a28e3265b37a6474929f336521b332c1681b933f6cb9f3376673440d862a9f2df0fed2c77648de5860a4cc508cd0818c85b8b8a1ab4ceeef8d981c8956a6a49807205ce4d355092ef5a8a18f56e8913cf4a201fbe287825b095693c21775a2646970667358221220a898b9d0477e23b8f772b754800c710e6f8f0f09b41893122a112caf34387d4964736f6c63430008040033","linkReferences":{},"deployedLinkReferences":{}}