{"_format":"hh-sol-artifact-1","contractName":"OwnYourWords","sourceName":"contracts/OwnYourWords.sol","abi":[{"anonymous":false,"inputs":[{"indexed":true,"internalType":"address","name":"owner","type":"address"},{"indexed":true,"internalType":"address","name":"approved","type":"address"},{"indexed":true,"internalType":"uint256","name":"tokenId","type":"uint256"}],"name":"Approval","type":"event"},{"anonymous":false,"inputs":[{"indexed":true,"internalType":"address","name":"owner","type":"address"},{"indexed":true,"internalType":"address","name":"operator","type":"address"},{"indexed":false,"internalType":"bool","name":"approved","type":"bool"}],"name":"ApprovalForAll","type":"event"},{"anonymous":false,"inputs":[{"indexed":false,"internalType":"address","name":"account","type":"address"}],"name":"Paused","type":"event"},{"anonymous":false,"inputs":[{"indexed":true,"internalType":"bytes32","name":"role","type":"bytes32"},{"indexed":true,"internalType":"bytes32","name":"previousAdminRole","type":"bytes32"},{"indexed":true,"internalType":"bytes32","name":"newAdminRole","type":"bytes32"}],"name":"RoleAdminChanged","type":"event"},{"anonymous":false,"inputs":[{"indexed":true,"internalType":"bytes32","name":"role","type":"bytes32"},{"indexed":true,"internalType":"address","name":"account","type":"address"},{"indexed":true,"internalType":"address","name":"sender","type":"address"}],"name":"RoleGranted","type":"event"},{"anonymous":false,"inputs":[{"indexed":true,"internalType":"bytes32","name":"role","type":"bytes32"},{"indexed":true,"internalType":"address","name":"account","type":"address"},{"indexed":true,"internalType":"address","name":"sender","type":"address"}],"name":"RoleRevoked","type":"event"},{"anonymous":false,"inputs":[{"indexed":true,"internalType":"address","name":"from","type":"address"},{"indexed":true,"internalType":"address","name":"to","type":"address"},{"indexed":true,"internalType":"uint256","name":"tokenId","type":"uint256"}],"name":"Transfer","type":"event"},{"anonymous":false,"inputs":[{"indexed":false,"internalType":"address","name":"account","type":"address"}],"name":"Unpaused","type":"event"},{"inputs":[],"name":"ADMIN_ROLE","outputs":[{"internalType":"bytes32","name":"","type":"bytes32"}],"stateMutability":"view","type":"function"},{"inputs":[],"name":"DEFAULT_ADMIN_ROLE","outputs":[{"internalType":"bytes32","name":"","type":"bytes32"}],"stateMutability":"view","type":"function"},{"inputs":[],"name":"MINTER_ROLE","outputs":[{"internalType":"bytes32","name":"","type":"bytes32"}],"stateMutability":"view","type":"function"},{"inputs":[],"name":"PAUSER_ROLE","outputs":[{"internalType":"bytes32","name":"","type":"bytes32"}],"stateMutability":"view","type":"function"},{"inputs":[{"internalType":"address","name":"to","type":"address"},{"internalType":"uint256","name":"tokenId","type":"uint256"}],"name":"approve","outputs":[],"stateMutability":"nonpayable","type":"function"},{"inputs":[{"internalType":"address","name":"owner","type":"address"}],"name":"balanceOf","outputs":[{"internalType":"uint256","name":"","type":"uint256"}],"stateMutability":"view","type":"function"},{"inputs":[{"internalType":"uint256","name":"tokenId","type":"uint256"}],"name":"getApproved","outputs":[{"internalType":"address","name":"","type":"address"}],"stateMutability":"view","type":"function"},{"inputs":[{"internalType":"string","name":"sn_name","type":"string"},{"internalType":"string","name":"sn_id","type":"string"}],"name":"getOWWBySnId","outputs":[{"components":[{"internalType":"uint256","name":"id","type":"uint256"},{"internalType":"string","name":"sn_name","type":"string"},{"internalType":"string","name":"post_id","type":"string"},{"internalType":"string","name":"post_url","type":"string"}],"internalType":"struct OwnedWords.data","name":"","type":"tuple"}],"stateMutability":"view","type":"function"},{"inputs":[{"internalType":"uint256","name":"tokenId","type":"uint256"}],"name":"getOWWByTokenId","outputs":[{"components":[{"internalType":"uint256","name":"id","type":"uint256"},{"internalType":"string","name":"sn_name","type":"string"},{"internalType":"string","name":"post_id","type":"string"},{"internalType":"string","name":"post_url","type":"string"}],"internalType":"struct OwnedWords.data","name":"","type":"tuple"}],"stateMutability":"view","type":"function"},{"inputs":[{"internalType":"bytes32","name":"role","type":"bytes32"}],"name":"getRoleAdmin","outputs":[{"internalType":"bytes32","name":"","type":"bytes32"}],"stateMutability":"view","type":"function"},{"inputs":[{"internalType":"bytes32","name":"role","type":"bytes32"},{"internalType":"uint256","name":"index","type":"uint256"}],"name":"getRoleMember","outputs":[{"internalType":"address","name":"","type":"address"}],"stateMutability":"view","type":"function"},{"inputs":[{"internalType":"bytes32","name":"role","type":"bytes32"}],"name":"getRoleMemberCount","outputs":[{"internalType":"uint256","name":"","type":"uint256"}],"stateMutability":"view","type":"function"},{"inputs":[{"internalType":"bytes32","name":"role","type":"bytes32"},{"internalType":"address","name":"account","type":"address"}],"name":"grantRole","outputs":[],"stateMutability":"nonpayable","type":"function"},{"inputs":[{"internalType":"bytes32","name":"role","type":"bytes32"},{"internalType":"address","name":"account","type":"address"}],"name":"hasRole","outputs":[{"internalType":"bool","name":"","type":"bool"}],"stateMutability":"view","type":"function"},{"inputs":[{"internalType":"string","name":"name","type":"string"},{"internalType":"string","name":"symbol","type":"string"},{"internalType":"string","name":"baseTokenURI","type":"string"}],"name":"initialize","outputs":[],"stateMutability":"nonpayable","type":"function"},{"inputs":[{"internalType":"address","name":"owner","type":"address"},{"internalType":"address","name":"operator","type":"address"}],"name":"isApprovedForAll","outputs":[{"internalType":"bool","name":"","type":"bool"}],"stateMutability":"view","type":"function"},{"inputs":[{"internalType":"string","name":"sn_name","type":"string"},{"internalType":"string","name":"sn_id","type":"string"}],"name":"isAvailable","outputs":[{"internalType":"bool","name":"","type":"bool"}],"stateMutability":"view","type":"function"},{"inputs":[{"internalType":"address","name":"to","type":"address"}],"name":"mint","outputs":[{"internalType":"uint256","name":"","type":"uint256"}],"stateMutability":"nonpayable","type":"function"},{"inputs":[{"internalType":"string","name":"postId","type":"string"}],"name":"mintTwitterPost","outputs":[],"stateMutability":"payable","type":"function"},{"inputs":[],"name":"name","outputs":[{"internalType":"string","name":"","type":"string"}],"stateMutability":"view","type":"function"},{"inputs":[{"internalType":"uint256","name":"tokenId","type":"uint256"}],"name":"ownerOf","outputs":[{"internalType":"address","name":"","type":"address"}],"stateMutability":"view","type":"function"},{"inputs":[],"name":"pause","outputs":[],"stateMutability":"nonpayable","type":"function"},{"inputs":[],"name":"paused","outputs":[{"internalType":"bool","name":"","type":"bool"}],"stateMutability":"view","type":"function"},{"inputs":[{"internalType":"bytes32","name":"role","type":"bytes32"},{"internalType":"address","name":"account","type":"address"}],"name":"renounceRole","outputs":[],"stateMutability":"nonpayable","type":"function"},{"inputs":[],"name":"retrieveFunds","outputs":[],"stateMutability":"nonpayable","type":"function"},{"inputs":[{"internalType":"bytes32","name":"role","type":"bytes32"},{"internalType":"address","name":"account","type":"address"}],"name":"revokeRole","outputs":[],"stateMutability":"nonpayable","type":"function"},{"inputs":[{"internalType":"address","name":"from","type":"address"},{"internalType":"address","name":"to","type":"address"},{"internalType":"uint256","name":"tokenId","type":"uint256"}],"name":"safeTransferFrom","outputs":[],"stateMutability":"nonpayable","type":"function"},{"inputs":[{"internalType":"address","name":"from","type":"address"},{"internalType":"address","name":"to","type":"address"},{"internalType":"uint256","name":"tokenId","type":"uint256"},{"internalType":"bytes","name":"_data","type":"bytes"}],"name":"safeTransferFrom","outputs":[],"stateMutability":"nonpayable","type":"function"},{"inputs":[{"internalType":"address","name":"operator","type":"address"},{"internalType":"bool","name":"approved","type":"bool"}],"name":"setApprovalForAll","outputs":[],"stateMutability":"nonpayable","type":"function"},{"inputs":[{"internalType":"string","name":"newBaseURI","type":"string"}],"name":"setBaseURI","outputs":[],"stateMutability":"nonpayable","type":"function"},{"inputs":[{"internalType":"address","name":"twitterPostMinterAddress","type":"address"}],"name":"setTwitterPostMinterAddress","outputs":[],"stateMutability":"nonpayable","type":"function"},{"inputs":[{"internalType":"bytes4","name":"interfaceId","type":"bytes4"}],"name":"supportsInterface","outputs":[{"internalType":"bool","name":"","type":"bool"}],"stateMutability":"view","type":"function"},{"inputs":[],"name":"symbol","outputs":[{"internalType":"string","name":"","type":"string"}],"stateMutability":"view","type":"function"},{"inputs":[{"internalType":"uint256","name":"index","type":"uint256"}],"name":"tokenByIndex","outputs":[{"internalType":"uint256","name":"","type":"uint256"}],"stateMutability":"view","type":"function"},{"inputs":[{"internalType":"address","name":"owner","type":"address"},{"internalType":"uint256","name":"index","type":"uint256"}],"name":"tokenOfOwnerByIndex","outputs":[{"internalType":"uint256","name":"","type":"uint256"}],"stateMutability":"view","type":"function"},{"inputs":[{"internalType":"uint256","name":"tokenId","type":"uint256"}],"name":"tokenURI","outputs":[{"internalType":"string","name":"","type":"string"}],"stateMutability":"view","type":"function"},{"inputs":[],"name":"totalSupply","outputs":[{"internalType":"uint256","name":"","type":"uint256"}],"stateMutability":"view","type":"function"},{"inputs":[{"internalType":"address","name":"from","type":"address"},{"internalType":"address","name":"to","type":"address"},{"internalType":"uint256","name":"tokenId","type":"uint256"}],"name":"transferFrom","outputs":[],"stateMutability":"nonpayable","type":"function"},{"inputs":[],"name":"unpause","outputs":[],"stateMutability":"nonpayable","type":"function"}],"bytecode":"0x608060405234801561001057600080fd5b50613581806100206000396000f3fe6080604052600436106102305760003560e01c80636a6278421161012e578063a6487c53116100ab578063d547741f1161006f578063d547741f14610688578063e63ab1e9146106a8578063e9856dac146106ca578063e985e9c5146106dd578063f259df8d1461072657600080fd5b8063a6487c53146105e6578063b88d4fde14610606578063c87b56dd14610626578063ca15c87314610646578063d53913931461066657600080fd5b80639010d07c116100f25780639010d07c1461055c57806391d148541461057c57806395d89b411461059c578063a217fddf146105b1578063a22cb465146105c657600080fd5b80636a627842146104b857806370a08231146104d857806375b238fc146104f85780638456cb591461051a578063885558181461052f57600080fd5b80632f2ff15d116101bc5780634f6ccce7116101805780634f6ccce71461042a57806355f804b31461044a5780635c975abb1461046a57806361b20d8c146104835780636352211e1461049857600080fd5b80632f2ff15d146103955780632f745c59146103b557806336568abe146103d55780633f4ba83a146103f557806342842e0e1461040a57600080fd5b80630e565948116102035780630e565948146102e657806318160ddd146103065780631b2b559d1461032557806323b872dd14610345578063248a9ca31461036557600080fd5b806301ffc9a71461023557806306fdde031461026a578063081812fc1461028c578063095ea7b3146102c4575b600080fd5b34801561024157600080fd5b50610255610250366004612dcd565b610746565b60405190151581526020015b60405180910390f35b34801561027657600080fd5b5061027f610757565b60405161026191906130ff565b34801561029857600080fd5b506102ac6102a7366004612d5a565b6107e9565b6040516001600160a01b039091168152602001610261565b3480156102d057600080fd5b506102e46102df366004612d15565b610883565b005b3480156102f257600080fd5b50610255610301366004612e38565b610999565b34801561031257600080fd5b5060fd545b604051908152602001610261565b34801561033157600080fd5b506102e4610340366004612bdf565b610ad3565b34801561035157600080fd5b506102e4610360366004612c2b565b610ba7565b34801561037157600080fd5b50610317610380366004612d5a565b60009081526065602052604090206001015490565b3480156103a157600080fd5b506102e46103b0366004612d8a565b610bd8565b3480156103c157600080fd5b506103176103d0366004612d15565b610bfe565b3480156103e157600080fd5b506102e46103f0366004612d8a565b610c94565b34801561040157600080fd5b506102e4610d12565b34801561041657600080fd5b506102e4610425366004612c2b565b610d97565b34801561043657600080fd5b50610317610445366004612d5a565b610db2565b34801561045657600080fd5b506102e4610465366004612e05565b610e53565b34801561047657600080fd5b5061012d5460ff16610255565b34801561048f57600080fd5b506102e4610e80565b3480156104a457600080fd5b506102ac6104b3366004612d5a565b610ec5565b3480156104c457600080fd5b506103176104d3366004612bdf565b610f3c565b3480156104e457600080fd5b506103176104f3366004612bdf565b610fdd565b34801561050457600080fd5b5061031760008051602061352c83398151915281565b34801561052657600080fd5b506102e4611064565b34801561053b57600080fd5b5061054f61054a366004612e38565b6110e5565b6040516102619190613289565b34801561056857600080fd5b506102ac610577366004612dac565b6112bc565b34801561058857600080fd5b50610255610597366004612d8a565b6112db565b3480156105a857600080fd5b5061027f611306565b3480156105bd57600080fd5b50610317600081565b3480156105d257600080fd5b506102e46105e1366004612cdf565b611315565b3480156105f257600080fd5b506102e4610601366004612e99565b611320565b34801561061257600080fd5b506102e4610621366004612c66565b6113e7565b34801561063257600080fd5b5061027f610641366004612d5a565b611419565b34801561065257600080fd5b50610317610661366004612d5a565b6114f3565b34801561067257600080fd5b5061031760008051602061350c83398151915281565b34801561069457600080fd5b506102e46106a3366004612d8a565b61150a565b3480156106b457600080fd5b506103176000805160206134ec83398151915281565b6102e46106d8366004612e05565b611530565b3480156106e957600080fd5b506102556106f8366004612bf9565b6001600160a01b03918216600090815260ce6020908152604080832093909416825291909152205460ff1690565b34801561073257600080fd5b5061054f610741366004612d5a565b6115a4565b600061075182611728565b92915050565b606060c980546107669061341b565b80601f01602080910402602001604051908101604052809291908181526020018280546107929061341b565b80156107df5780601f106107b4576101008083540402835291602001916107df565b820191906000526020600020905b8154815290600101906020018083116107c257829003601f168201915b5050505050905090565b600081815260cb60205260408120546001600160a01b03166108675760405162461bcd60e51b815260206004820152602c60248201527f4552433732313a20617070726f76656420717565727920666f72206e6f6e657860448201526b34b9ba32b73a103a37b5b2b760a11b60648201526084015b60405180910390fd5b50600090815260cd60205260409020546001600160a01b031690565b600061088e82610ec5565b9050806001600160a01b0316836001600160a01b031614156108fc5760405162461bcd60e51b815260206004820152602160248201527f4552433732313a20617070726f76616c20746f2063757272656e74206f776e656044820152603960f91b606482015260840161085e565b336001600160a01b0382161480610918575061091881336106f8565b61098a5760405162461bcd60e51b815260206004820152603860248201527f4552433732313a20617070726f76652063616c6c6572206973206e6f74206f7760448201527f6e6572206e6f7220617070726f76656420666f7220616c6c0000000000000000606482015260840161085e565b610994838361174d565b505050565b6000826040516020016109ac9190613002565b60408051601f19818403018152828252805160209182012061019354633791ea5360e01b8552925190936001600160a01b0390931692633791ea53926004808301939192829003018186803b158015610a0457600080fd5b505afa158015610a18573d6000803e3d6000fd5b505050506040513d601f19601f82011682018060405250810190610a3c9190612d72565b1415610aca5761019354604051634b29835560e11b81526001600160a01b039091169063965306aa90610a739085906004016130ff565b60206040518083038186803b158015610a8b57600080fd5b505afa158015610a9f573d6000803e3d6000fd5b505050506040513d601f19601f82011682018060405250810190610ac39190612d3e565b9050610751565b50600092915050565b610aeb60008051602061352c833981519152336112db565b610b4a5760405162461bcd60e51b815260206004820152602a60248201527f4f776e596f7572576f7264733a206d75737420686176652061646d696e20726f6044820152691b19481d1bc81b5a5b9d60b21b606482015260840161085e565b61019354610b709060008051602061350c833981519152906001600160a01b031661150a565b61019380546001600160a01b0319166001600160a01b038316179055610ba460008051602061350c83398151915282610bd8565b50565b610bb133826117bb565b610bcd5760405162461bcd60e51b815260040161085e906131ed565b6109948383836118b2565b600082815260656020526040902060010154610bf48133611a5d565b6109948383611ac1565b6000610c0983610fdd565b8210610c6b5760405162461bcd60e51b815260206004820152602b60248201527f455243373231456e756d657261626c653a206f776e657220696e646578206f7560448201526a74206f6620626f756e647360a81b606482015260840161085e565b506001600160a01b0391909116600090815260fb60209081526040808320938352929052205490565b6001600160a01b0381163314610d045760405162461bcd60e51b815260206004820152602f60248201527f416363657373436f6e74726f6c3a2063616e206f6e6c792072656e6f756e636560448201526e103937b632b9903337b91039b2b63360891b606482015260840161085e565b610d0e8282611ae3565b5050565b610d2a6000805160206134ec833981519152336112db565b610d8d5760405162461bcd60e51b815260206004820152602e60248201527f4f776e596f7572576f7264733a206d757374206861766520706175736572207260448201526d6f6c6520746f20756e706175736560901b606482015260840161085e565b610d95611b05565b565b610994838383604051806020016040528060008152506113e7565b6000610dbd60fd5490565b8210610e205760405162461bcd60e51b815260206004820152602c60248201527f455243373231456e756d657261626c653a20676c6f62616c20696e646578206f60448201526b7574206f6620626f756e647360a01b606482015260840161085e565b60fd8281548110610e4157634e487b7160e01b600052603260045260246000fd5b90600052602060002001549050919050565b60008051602061352c833981519152610e6c8133611a5d565b815161099490610192906020850190612a8f565b60008051602061352c833981519152610e998133611a5d565b60405133904780156108fc02916000818181858888f19350505050158015610d0e573d6000803e3d6000fd5b600081815260cb60205260408120546001600160a01b0316806107515760405162461bcd60e51b815260206004820152602960248201527f4552433732313a206f776e657220717565727920666f72206e6f6e657869737460448201526832b73a103a37b5b2b760b91b606482015260840161085e565b6000610f5660008051602061350c833981519152336112db565b610fb65760405162461bcd60e51b815260206004820152602b60248201527f4f776e596f7572576f7264733a206d7573742068617665206d696e746572207260448201526a1bdb19481d1bc81b5a5b9d60aa1b606482015260840161085e565b6000610fc26101915490565b9050610fce8382611b9a565b61075161019180546001019055565b60006001600160a01b0382166110485760405162461bcd60e51b815260206004820152602a60248201527f4552433732313a2062616c616e636520717565727920666f7220746865207a65604482015269726f206164647265737360b01b606482015260840161085e565b506001600160a01b0316600090815260cc602052604090205490565b61107c6000805160206134ec833981519152336112db565b6110dd5760405162461bcd60e51b815260206004820152602c60248201527f4f776e596f7572576f7264733a206d757374206861766520706175736572207260448201526b6f6c6520746f20706175736560a01b606482015260840161085e565b610d95611ce8565b6111106040518060800160405280600081526020016060815260200160608152602001606081525090565b61111a8383610999565b156111375760405162461bcd60e51b815260040161085e90613152565b826040516020016111489190613002565b60408051601f19818403018152828252805160209182012061019354633791ea5360e01b8552925190936001600160a01b0390931692633791ea53926004808301939192829003018186803b1580156111a057600080fd5b505afa1580156111b4573d6000803e3d6000fd5b505050506040513d601f19601f820116820180604052508101906111d89190612d72565b14156112635761019354604051633ecec7bf60e21b81526001600160a01b039091169063fb3b1efc9061120f9085906004016130ff565b60006040518083038186803b15801561122757600080fd5b505afa15801561123b573d6000803e3d6000fd5b505050506040513d6000823e601f3d908101601f19168201604052610ac39190810190612f1d565b60405162461bcd60e51b815260206004820152602860248201527f4f776e596f7572576f7264733a20556e737570706f7274656420736f6369616c604482015267206e6574776f726b60c01b606482015260840161085e565b60008281526097602052604081206112d49083611d65565b9392505050565b60009182526065602090815260408084206001600160a01b0393909316845291905290205460ff1690565b606060ca80546107669061341b565b610d0e338383611d71565b600054610100900460ff1661133b5760005460ff161561133f565b303b155b6113a25760405162461bcd60e51b815260206004820152602e60248201527f496e697469616c697a61626c653a20636f6e747261637420697320616c72656160448201526d191e481a5b9a5d1a585b1a5e995960921b606482015260840161085e565b600054610100900460ff161580156113c4576000805461ffff19166101011790555b6113cf848484611e40565b80156113e1576000805461ff00191690555b50505050565b6113f133836117bb565b61140d5760405162461bcd60e51b815260040161085e906131ed565b6113e184848484611eb2565b600081815260cb60205260409020546060906001600160a01b03166114985760405162461bcd60e51b815260206004820152602f60248201527f4552433732314d657461646174613a2055524920717565727920666f72206e6f60448201526e3732bc34b9ba32b73a103a37b5b2b760891b606482015260840161085e565b60006114a2611ee5565b905060008151116114c257604051806020016040528060008152506112d4565b806114cc84611ef5565b6040516020016114dd92919061301e565b6040516020818303038152906040529392505050565b60008181526097602052604081206107519061200f565b6000828152606560205260409020600101546115268133611a5d565b6109948383611ae3565b610193546001600160a01b031663744cc5413483336040516001600160e01b031960e086901b16815261156f9291903090636a62784290600401613112565b6000604051808303818588803b15801561158857600080fd5b505af115801561159c573d6000803e3d6000fd5b505050505050565b6115cf6040518060800160405280600081526020016060815260200160608152602001606081525090565b600082815260cb60205260409020546001600160a01b03161515151560011461160a5760405162461bcd60e51b815260040161085e90613152565b6101935460405162491fcf60e11b8152600481018490526001600160a01b039091169062923f9e9060240160206040518083038186803b15801561164d57600080fd5b505afa158015611661573d6000803e3d6000fd5b505050506040513d601f19601f820116820180604052508101906116859190612d3e565b1561170b576101935460405163f259df8d60e01b8152600481018490526001600160a01b039091169063f259df8d9060240160006040518083038186803b1580156116cf57600080fd5b505afa1580156116e3573d6000803e3d6000fd5b505050506040513d6000823e601f3d908101601f191682016040526107519190810190612f1d565b60405162461bcd60e51b815260040161085e90613152565b919050565b60006001600160e01b0319821663780e9d6360e01b1480610751575061075182612019565b600081815260cd6020526040902080546001600160a01b0319166001600160a01b038416908117909155819061178282610ec5565b6001600160a01b03167f8c5be1e5ebec7d5bd14f71427d1e84f3dd0314c0f7b2291e5b200ac8c7c3b92560405160405180910390a45050565b600081815260cb60205260408120546001600160a01b03166118345760405162461bcd60e51b815260206004820152602c60248201527f4552433732313a206f70657261746f7220717565727920666f72206e6f6e657860448201526b34b9ba32b73a103a37b5b2b760a11b606482015260840161085e565b600061183f83610ec5565b9050806001600160a01b0316846001600160a01b0316148061187a5750836001600160a01b031661186f846107e9565b6001600160a01b0316145b806118aa57506001600160a01b03808216600090815260ce602090815260408083209388168352929052205460ff165b949350505050565b826001600160a01b03166118c582610ec5565b6001600160a01b03161461192d5760405162461bcd60e51b815260206004820152602960248201527f4552433732313a207472616e73666572206f6620746f6b656e2074686174206960448201526839903737ba1037bbb760b91b606482015260840161085e565b6001600160a01b03821661198f5760405162461bcd60e51b8152602060048201526024808201527f4552433732313a207472616e7366657220746f20746865207a65726f206164646044820152637265737360e01b606482015260840161085e565b61199a838383612059565b6119a560008261174d565b6001600160a01b038316600090815260cc602052604081208054600192906119ce9084906133c1565b90915550506001600160a01b038216600090815260cc602052604081208054600192906119fc908490613376565b9091555050600081815260cb602052604080822080546001600160a01b0319166001600160a01b0386811691821790925591518493918716917fddf252ad1be2c89b69c2b068fc378daa952ba7f163c4a11628f55a4df523b3ef91a4505050565b611a6782826112db565b610d0e57611a7f816001600160a01b03166014612064565b611a8a836020612064565b604051602001611a9b92919061304d565b60408051601f198184030181529082905262461bcd60e51b825261085e916004016130ff565b611acb8282612246565b600082815260976020526040902061099490826122cc565b611aed82826122e1565b60008281526097602052604090206109949082612348565b61012d5460ff16611b4f5760405162461bcd60e51b815260206004820152601460248201527314185d5cd8589b194e881b9bdd081c185d5cd95960621b604482015260640161085e565b61012d805460ff191690557f5db9ee0a495bf2e6ff9c91a7834c1ba4fdd244a5e8aa4e537bd38aeae4b073aa335b6040516001600160a01b03909116815260200160405180910390a1565b6001600160a01b038216611bf05760405162461bcd60e51b815260206004820181905260248201527f4552433732313a206d696e7420746f20746865207a65726f2061646472657373604482015260640161085e565b600081815260cb60205260409020546001600160a01b031615611c555760405162461bcd60e51b815260206004820152601c60248201527f4552433732313a20746f6b656e20616c7265616479206d696e74656400000000604482015260640161085e565b611c6160008383612059565b6001600160a01b038216600090815260cc60205260408120805460019290611c8a908490613376565b9091555050600081815260cb602052604080822080546001600160a01b0319166001600160a01b03861690811790915590518392907fddf252ad1be2c89b69c2b068fc378daa952ba7f163c4a11628f55a4df523b3ef908290a45050565b61012d5460ff1615611d2f5760405162461bcd60e51b815260206004820152601060248201526f14185d5cd8589b194e881c185d5cd95960821b604482015260640161085e565b61012d805460ff191660011790557f62e78cea01bee320cd4e420270b5ea74000d11b0c9f74754ebdbfc544b05a258611b7d3390565b60006112d4838361235d565b816001600160a01b0316836001600160a01b03161415611dd35760405162461bcd60e51b815260206004820152601960248201527f4552433732313a20617070726f766520746f2063616c6c657200000000000000604482015260640161085e565b6001600160a01b03838116600081815260ce6020908152604080832094871680845294825291829020805460ff191686151590811790915591519182527f17307eab39ab6107e8899845ad3d59bd9653f200f220920489ca2b5937696c31910160405180910390a3505050565b600054610100900460ff16611e675760405162461bcd60e51b815260040161085e9061323e565b611e6f612395565b611e77612395565b611e7f612395565b611e87612395565b611e9183836123bc565b611e99612395565b611ea161240a565b611ea9612395565b6109948161243e565b611ebd8484846118b2565b611ec9848484846124cd565b6113e15760405162461bcd60e51b815260040161085e9061319b565b606061019280546107669061341b565b606081611f195750506040805180820190915260018152600360fc1b602082015290565b8160005b8115611f435780611f2d81613456565b9150611f3c9050600a8361338e565b9150611f1d565b60008167ffffffffffffffff811115611f6c57634e487b7160e01b600052604160045260246000fd5b6040519080825280601f01601f191660200182016040528015611f96576020820181803683370190505b5090505b84156118aa57611fab6001836133c1565b9150611fb8600a86613471565b611fc3906030613376565b60f81b818381518110611fe657634e487b7160e01b600052603260045260246000fd5b60200101906001600160f81b031916908160001a905350612008600a8661338e565b9450611f9a565b6000610751825490565b60006001600160e01b031982166380ac58cd60e01b148061204a57506001600160e01b03198216635b5e139f60e01b145b806107515750610751826125da565b6109948383836125ff565b606060006120738360026133a2565b61207e906002613376565b67ffffffffffffffff8111156120a457634e487b7160e01b600052604160045260246000fd5b6040519080825280601f01601f1916602001820160405280156120ce576020820181803683370190505b509050600360fc1b816000815181106120f757634e487b7160e01b600052603260045260246000fd5b60200101906001600160f81b031916908160001a905350600f60fb1b8160018151811061213457634e487b7160e01b600052603260045260246000fd5b60200101906001600160f81b031916908160001a90535060006121588460026133a2565b612163906001613376565b90505b60018111156121f7576f181899199a1a9b1b9c1cb0b131b232b360811b85600f16601081106121a557634e487b7160e01b600052603260045260246000fd5b1a60f81b8282815181106121c957634e487b7160e01b600052603260045260246000fd5b60200101906001600160f81b031916908160001a90535060049490941c936121f081613404565b9050612166565b5083156112d45760405162461bcd60e51b815260206004820181905260248201527f537472696e67733a20686578206c656e67746820696e73756666696369656e74604482015260640161085e565b61225082826112db565b610d0e5760008281526065602090815260408083206001600160a01b03851684529091529020805460ff191660011790556122883390565b6001600160a01b0316816001600160a01b0316837f2f8788117e7eff1d82e926ec794901d17c78024a50270940304540a733656f0d60405160405180910390a45050565b60006112d4836001600160a01b038416612672565b6122eb82826112db565b15610d0e5760008281526065602090815260408083206001600160a01b0385168085529252808320805460ff1916905551339285917ff6391f5c32d9c69d2a47ea670b442974b53935d1edc7fd64eb21e047a839171b9190a45050565b60006112d4836001600160a01b0384166126c1565b600082600001828154811061238257634e487b7160e01b600052603260045260246000fd5b9060005260206000200154905092915050565b600054610100900460ff16610d955760405162461bcd60e51b815260040161085e9061323e565b600054610100900460ff166123e35760405162461bcd60e51b815260040161085e9061323e565b81516123f69060c9906020850190612a8f565b5080516109949060ca906020840190612a8f565b600054610100900460ff166124315760405162461bcd60e51b815260040161085e9061323e565b61012d805460ff19169055565b600054610100900460ff166124655760405162461bcd60e51b815260040161085e9061323e565b805161247990610192906020840190612a8f565b506124856000336127de565b61249d60008051602061350c833981519152336127de565b6124b56000805160206134ec833981519152336127de565b610ba460008051602061352c833981519152336127de565b60006001600160a01b0384163b156125cf57604051630a85bd0160e11b81526001600160a01b0385169063150b7a02906125119033908990889088906004016130c2565b602060405180830381600087803b15801561252b57600080fd5b505af192505050801561255b575060408051601f3d908101601f1916820190925261255891810190612de9565b60015b6125b5573d808015612589576040519150601f19603f3d011682016040523d82523d6000602084013e61258e565b606091505b5080516125ad5760405162461bcd60e51b815260040161085e9061319b565b805181602001fd5b6001600160e01b031916630a85bd0160e11b1490506118aa565b506001949350505050565b60006001600160e01b03198216635a05180f60e01b14806107515750610751826127e8565b61260a83838361281d565b61012d5460ff16156109945760405162461bcd60e51b815260206004820152602b60248201527f4552433732315061757361626c653a20746f6b656e207472616e73666572207760448201526a1a1a5b19481c185d5cd95960aa1b606482015260840161085e565b60008181526001830160205260408120546126b957508154600181810184556000848152602080822090930184905584548482528286019093526040902091909155610751565b506000610751565b600081815260018301602052604081205480156127d45760006126e56001836133c1565b85549091506000906126f9906001906133c1565b905081811461277a57600086600001828154811061272757634e487b7160e01b600052603260045260246000fd5b906000526020600020015490508087600001848154811061275857634e487b7160e01b600052603260045260246000fd5b6000918252602080832090910192909255918252600188019052604090208390555b855486908061279957634e487b7160e01b600052603160045260246000fd5b600190038181906000526020600020016000905590558560010160008681526020019081526020016000206000905560019350505050610751565b6000915050610751565b610d0e8282611ac1565b60006001600160e01b03198216637965db0b60e01b148061075157506301ffc9a760e01b6001600160e01b0319831614610751565b6001600160a01b038316612878576128738160fd8054600083815260fe60205260408120829055600182018355919091527f9346ac6dd7de6b96975fec380d4d994c4c12e6a8897544f22915316cc6cca2800155565b61289b565b816001600160a01b0316836001600160a01b03161461289b5761289b83826128d5565b6001600160a01b0382166128b25761099481612972565b826001600160a01b0316826001600160a01b031614610994576109948282612a4b565b600060016128e284610fdd565b6128ec91906133c1565b600083815260fc602052604090205490915080821461293f576001600160a01b038416600090815260fb60209081526040808320858452825280832054848452818420819055835260fc90915290208190555b50600091825260fc602090815260408084208490556001600160a01b03909416835260fb81528383209183525290812055565b60fd54600090612984906001906133c1565b600083815260fe602052604081205460fd80549394509092849081106129ba57634e487b7160e01b600052603260045260246000fd5b906000526020600020015490508060fd83815481106129e957634e487b7160e01b600052603260045260246000fd5b600091825260208083209091019290925582815260fe909152604080822084905585825281205560fd805480612a2f57634e487b7160e01b600052603160045260246000fd5b6001900381819060005260206000200160009055905550505050565b6000612a5683610fdd565b6001600160a01b03909316600090815260fb60209081526040808320868452825280832085905593825260fc9052919091209190915550565b828054612a9b9061341b565b90600052602060002090601f016020900481019282612abd5760008555612b03565b82601f10612ad657805160ff1916838001178555612b03565b82800160010185558215612b03579182015b82811115612b03578251825591602001919060010190612ae8565b50612b0f929150612b13565b5090565b5b80821115612b0f5760008155600101612b14565b6000612b3b612b368461334e565b61331d565b9050828152838383011115612b4f57600080fd5b828260208301376000602084830101529392505050565b80356001600160a01b038116811461172357600080fd5b600082601f830112612b8d578081fd5b6112d483833560208501612b28565b600082601f830112612bac578081fd5b8151612bba612b368261334e565b818152846020838601011115612bce578283fd5b6118aa8260208301602087016133d8565b600060208284031215612bf0578081fd5b6112d482612b66565b60008060408385031215612c0b578081fd5b612c1483612b66565b9150612c2260208401612b66565b90509250929050565b600080600060608486031215612c3f578081fd5b612c4884612b66565b9250612c5660208501612b66565b9150604084013590509250925092565b60008060008060808587031215612c7b578081fd5b612c8485612b66565b9350612c9260208601612b66565b925060408501359150606085013567ffffffffffffffff811115612cb4578182fd5b8501601f81018713612cc4578182fd5b612cd387823560208401612b28565b91505092959194509250565b60008060408385031215612cf1578182fd5b612cfa83612b66565b91506020830135612d0a816134c7565b809150509250929050565b60008060408385031215612d27578182fd5b612d3083612b66565b946020939093013593505050565b600060208284031215612d4f578081fd5b81516112d4816134c7565b600060208284031215612d6b578081fd5b5035919050565b600060208284031215612d83578081fd5b5051919050565b60008060408385031215612d9c578182fd5b82359150612c2260208401612b66565b60008060408385031215612dbe578182fd5b50508035926020909101359150565b600060208284031215612dde578081fd5b81356112d4816134d5565b600060208284031215612dfa578081fd5b81516112d4816134d5565b600060208284031215612e16578081fd5b813567ffffffffffffffff811115612e2c578182fd5b6118aa84828501612b7d565b60008060408385031215612e4a578182fd5b823567ffffffffffffffff80821115612e61578384fd5b612e6d86838701612b7d565b93506020850135915080821115612e82578283fd5b50612e8f85828601612b7d565b9150509250929050565b600080600060608486031215612ead578081fd5b833567ffffffffffffffff80821115612ec4578283fd5b612ed087838801612b7d565b94506020860135915080821115612ee5578283fd5b612ef187838801612b7d565b93506040860135915080821115612f06578283fd5b50612f1386828701612b7d565b9150509250925092565b600060208284031215612f2e578081fd5b815167ffffffffffffffff80821115612f45578283fd5b9083019060808286031215612f58578283fd5b612f606132f4565b82518152602083015182811115612f75578485fd5b612f8187828601612b9c565b602083015250604083015182811115612f98578485fd5b612fa487828601612b9c565b604083015250606083015182811115612fbb578485fd5b612fc787828601612b9c565b60608301525095945050505050565b60008151808452612fee8160208601602086016133d8565b601f01601f19169290920160200192915050565b600082516130148184602087016133d8565b9190910192915050565b600083516130308184602088016133d8565b8351908301906130448183602088016133d8565b01949350505050565b7f416363657373436f6e74726f6c3a206163636f756e74200000000000000000008152600083516130858160178501602088016133d8565b7001034b99036b4b9b9b4b733903937b6329607d1b60179184019182015283516130b68160288401602088016133d8565b01602801949350505050565b6001600160a01b03858116825284166020820152604081018390526080606082018190526000906130f590830184612fd6565b9695505050505050565b6020815260006112d46020830184612fd6565b6060815260006131256060830187612fd6565b905060018060a01b038516602083015263ffffffff83168460201b1760401b604083015295945050505050565b60208082526029908201527f4f776e596f7572576f7264733a2054686520706f737420776173206e6f742079604082015268195d081b5a5b9d195960ba1b606082015260800190565b60208082526032908201527f4552433732313a207472616e7366657220746f206e6f6e20455243373231526560408201527131b2b4bb32b91034b6b83632b6b2b73a32b960711b606082015260800190565b60208082526031908201527f4552433732313a207472616e736665722063616c6c6572206973206e6f74206f6040820152701ddb995c881b9bdc88185c1c1c9bdd9959607a1b606082015260800190565b6020808252602b908201527f496e697469616c697a61626c653a20636f6e7472616374206973206e6f74206960408201526a6e697469616c697a696e6760a81b606082015260800190565b602081528151602082015260006020830151608060408401526132af60a0840182612fd6565b90506040840151601f19808584030160608601526132cd8383612fd6565b92506060860151915080858403016080860152506132eb8282612fd6565b95945050505050565b6040516080810167ffffffffffffffff81118282101715613317576133176134b1565b60405290565b604051601f8201601f1916810167ffffffffffffffff81118282101715613346576133466134b1565b604052919050565b600067ffffffffffffffff821115613368576133686134b1565b50601f01601f191660200190565b6000821982111561338957613389613485565b500190565b60008261339d5761339d61349b565b500490565b60008160001904831182151516156133bc576133bc613485565b500290565b6000828210156133d3576133d3613485565b500390565b60005b838110156133f35781810151838201526020016133db565b838111156113e15750506000910152565b60008161341357613413613485565b506000190190565b600181811c9082168061342f57607f821691505b6020821081141561345057634e487b7160e01b600052602260045260246000fd5b50919050565b600060001982141561346a5761346a613485565b5060010190565b6000826134805761348061349b565b500690565b634e487b7160e01b600052601160045260246000fd5b634e487b7160e01b600052601260045260246000fd5b634e487b7160e01b600052604160045260246000fd5b8015158114610ba457600080fd5b6001600160e01b031981168114610ba457600080fdfe65d7a28e3265b37a6474929f336521b332c1681b933f6cb9f3376673440d862a9f2df0fed2c77648de5860a4cc508cd0818c85b8b8a1ab4ceeef8d981c8956a6a49807205ce4d355092ef5a8a18f56e8913cf4a201fbe287825b095693c21775a2646970667358221220f511796b467f115ab14b00c67409cf106ea5592f8a5f592ab58d7bc4e94d9b8964736f6c63430008040033","linkReferences":{},"deployedLinkReferences":{}}