{"_format":"hh-sol-artifact-1","contractName":"TwitterPostMinter","sourceName":"contracts/minters/TwitterPostMinter.sol","abi":[{"inputs":[{"internalType":"address","name":"twitterPostOracleAddress","type":"address"}],"stateMutability":"nonpayable","type":"constructor"},{"anonymous":false,"inputs":[{"indexed":true,"internalType":"bytes32","name":"role","type":"bytes32"},{"indexed":true,"internalType":"bytes32","name":"previousAdminRole","type":"bytes32"},{"indexed":true,"internalType":"bytes32","name":"newAdminRole","type":"bytes32"}],"name":"RoleAdminChanged","type":"event"},{"anonymous":false,"inputs":[{"indexed":true,"internalType":"bytes32","name":"role","type":"bytes32"},{"indexed":true,"internalType":"address","name":"account","type":"address"},{"indexed":true,"internalType":"address","name":"sender","type":"address"}],"name":"RoleGranted","type":"event"},{"anonymous":false,"inputs":[{"indexed":true,"internalType":"bytes32","name":"role","type":"bytes32"},{"indexed":true,"internalType":"address","name":"account","type":"address"},{"indexed":true,"internalType":"address","name":"sender","type":"address"}],"name":"RoleRevoked","type":"event"},{"anonymous":false,"inputs":[{"indexed":true,"internalType":"uint256","name":"requestId","type":"uint256"},{"indexed":false,"internalType":"string","name":"error","type":"string"}],"name":"TwitterPostRequestFailed","type":"event"},{"anonymous":false,"inputs":[{"indexed":true,"internalType":"address","name":"sender","type":"address"},{"indexed":false,"internalType":"uint256","name":"requestId","type":"uint256"}],"name":"TwitterPostRequestSubmited","type":"event"},{"anonymous":false,"inputs":[{"indexed":true,"internalType":"uint256","name":"requestId","type":"uint256"},{"indexed":false,"internalType":"uint256","name":"tokenId","type":"uint256"}],"name":"TwitterPostRequestSucceeded","type":"event"},{"inputs":[],"name":"ADMIN_ROLE","outputs":[{"internalType":"bytes32","name":"","type":"bytes32"}],"stateMutability":"view","type":"function"},{"inputs":[],"name":"DEFAULT_ADMIN_ROLE","outputs":[{"internalType":"bytes32","name":"","type":"bytes32"}],"stateMutability":"view","type":"function"},{"inputs":[],"name":"USER_ROLE","outputs":[{"internalType":"bytes32","name":"","type":"bytes32"}],"stateMutability":"view","type":"function"},{"inputs":[{"internalType":"uint256","name":"reqId","type":"uint256"},{"internalType":"string","name":"err","type":"string"}],"name":"failMint","outputs":[],"stateMutability":"nonpayable","type":"function"},{"inputs":[{"internalType":"string","name":"sn_id","type":"string"}],"name":"getOWWBySnId","outputs":[{"components":[{"internalType":"uint256","name":"id","type":"uint256"},{"internalType":"string","name":"sn_name","type":"string"},{"internalType":"string","name":"post_id","type":"string"},{"internalType":"string","name":"post_url","type":"string"}],"internalType":"struct OwnedWords.data","name":"","type":"tuple"}],"stateMutability":"view","type":"function"},{"inputs":[{"internalType":"uint256","name":"tokenId","type":"uint256"}],"name":"getOWWByTokenId","outputs":[{"components":[{"internalType":"uint256","name":"id","type":"uint256"},{"internalType":"string","name":"sn_name","type":"string"},{"internalType":"string","name":"post_id","type":"string"},{"internalType":"string","name":"post_url","type":"string"}],"internalType":"struct OwnedWords.data","name":"","type":"tuple"}],"stateMutability":"view","type":"function"},{"inputs":[],"name":"getPriceWEI","outputs":[{"internalType":"uint256","name":"","type":"uint256"}],"stateMutability":"view","type":"function"},{"inputs":[{"internalType":"bytes32","name":"role","type":"bytes32"}],"name":"getRoleAdmin","outputs":[{"internalType":"bytes32","name":"","type":"bytes32"}],"stateMutability":"view","type":"function"},{"inputs":[],"name":"getSnName","outputs":[{"internalType":"bytes32","name":"","type":"bytes32"}],"stateMutability":"pure","type":"function"},{"inputs":[{"internalType":"bytes32","name":"role","type":"bytes32"},{"internalType":"address","name":"account","type":"address"}],"name":"grantRole","outputs":[],"stateMutability":"nonpayable","type":"function"},{"inputs":[{"internalType":"bytes32","name":"role","type":"bytes32"},{"internalType":"address","name":"account","type":"address"}],"name":"hasRole","outputs":[{"internalType":"bool","name":"","type":"bool"}],"stateMutability":"view","type":"function"},{"inputs":[{"internalType":"string","name":"sn_id","type":"string"}],"name":"isAvailable","outputs":[{"internalType":"bool","name":"","type":"bool"}],"stateMutability":"view","type":"function"},{"inputs":[],"name":"oracle","outputs":[{"internalType":"contract TwitterPostOracle","name":"","type":"address"}],"stateMutability":"view","type":"function"},{"inputs":[{"internalType":"bytes32","name":"role","type":"bytes32"},{"internalType":"address","name":"account","type":"address"}],"name":"renounceRole","outputs":[],"stateMutability":"nonpayable","type":"function"},{"inputs":[],"name":"retrieveFunds","outputs":[],"stateMutability":"nonpayable","type":"function"},{"inputs":[{"internalType":"bytes32","name":"role","type":"bytes32"},{"internalType":"address","name":"account","type":"address"}],"name":"revokeRole","outputs":[],"stateMutability":"nonpayable","type":"function"},{"inputs":[{"internalType":"address","name":"twitterPostOracleAddress","type":"address"}],"name":"setTwitterPostOracle","outputs":[],"stateMutability":"nonpayable","type":"function"},{"inputs":[],"name":"snName","outputs":[{"internalType":"bytes32","name":"","type":"bytes32"}],"stateMutability":"view","type":"function"},{"inputs":[{"internalType":"string","name":"postId","type":"string"},{"internalType":"address","name":"owner","type":"address"},{"internalType":"function (address) external returns (uint256)","name":"cb","type":"function"}],"name":"startMint","outputs":[],"stateMutability":"payable","type":"function"},{"inputs":[{"components":[{"internalType":"uint256","name":"requestId","type":"uint256"},{"internalType":"string","name":"postId","type":"string"},{"internalType":"string","name":"postUrl","type":"string"},{"internalType":"address","name":"owner","type":"address"}],"internalType":"struct TwitterPostData.Response","name":"res","type":"tuple"}],"name":"succeedMint","outputs":[],"stateMutability":"nonpayable","type":"function"},{"inputs":[{"internalType":"bytes4","name":"interfaceId","type":"bytes4"}],"name":"supportsInterface","outputs":[{"internalType":"bool","name":"","type":"bool"}],"stateMutability":"view","type":"function"},{"inputs":[{"internalType":"uint256","name":"token_id","type":"uint256"}],"name":"tokenExists","outputs":[{"internalType":"bool","name":"","type":"bool"}],"stateMutability":"view","type":"function"}],"bytecode":"0x60806040523480156200001157600080fd5b50604051620021c6380380620021c6833981016040819052620000349162000494565b600180546001600160a01b0319166001600160a01b0383161790556200006360006200005d3390565b620000ca565b6200007e600080516020620021a683398151915233620000ca565b620000a8600080516020620021a683398151915260008051602062002186833981519152620000da565b620000c3600080516020620021868339815191528262000125565b506200060b565b620000d6828262000154565b5050565b600082815260208190526040808220600101805490849055905190918391839186917fbd79b86ffe0ab8e8776151514217cd7cacd52c909f66475c3af44e129f0b00ff9190a4505050565b600082815260208190526040902060010154620001438133620001f4565b6200014f838362000154565b505050565b6000828152602081815260408083206001600160a01b038516845290915290205460ff16620000d6576000828152602081815260408083206001600160a01b03851684529091529020805460ff19166001179055620001b03390565b6001600160a01b0316816001600160a01b0316837f2f8788117e7eff1d82e926ec794901d17c78024a50270940304540a733656f0d60405160405180910390a45050565b6000828152602081815260408083206001600160a01b038516845290915290205460ff16620000d6576200023e816001600160a01b031660146200029860201b6200116c1760201c565b620002548360206200116c62000298821b17811c565b60405160200162000267929190620004bd565b60408051601f198184030181529082905262461bcd60e51b82526200028f9160040162000536565b60405180910390fd5b60606000620002a983600262000586565b620002b69060026200056b565b6001600160401b03811115620002dc57634e487b7160e01b600052604160045260246000fd5b6040519080825280601f01601f19166020018201604052801562000307576020820181803683370190505b509050600360fc1b816000815181106200033157634e487b7160e01b600052603260045260246000fd5b60200101906001600160f81b031916908160001a905350600f60fb1b816001815181106200036f57634e487b7160e01b600052603260045260246000fd5b60200101906001600160f81b031916908160001a90535060006200039584600262000586565b620003a29060016200056b565b90505b60018111156200043c576f181899199a1a9b1b9c1cb0b131b232b360811b85600f1660108110620003e657634e487b7160e01b600052603260045260246000fd5b1a60f81b8282815181106200040b57634e487b7160e01b600052603260045260246000fd5b60200101906001600160f81b031916908160001a90535060049490941c936200043481620005db565b9050620003a5565b5083156200048d5760405162461bcd60e51b815260206004820181905260248201527f537472696e67733a20686578206c656e67746820696e73756666696369656e7460448201526064016200028f565b9392505050565b600060208284031215620004a6578081fd5b81516001600160a01b03811681146200048d578182fd5b7f416363657373436f6e74726f6c3a206163636f756e7420000000000000000000815260008351620004f7816017850160208801620005a8565b7001034b99036b4b9b9b4b733903937b6329607d1b60179184019182015283516200052a816028840160208801620005a8565b01602801949350505050565b602081526000825180602084015262000557816040850160208701620005a8565b601f01601f19169190910160400192915050565b60008219821115620005815762000581620005f5565b500190565b6000816000190483118215151615620005a357620005a3620005f5565b500290565b60005b83811015620005c5578181015183820152602001620005ab565b83811115620005d5576000848401525b50505050565b600081620005ed57620005ed620005f5565b506000190190565b634e487b7160e01b600052601160045260246000fd5b611b6b806200061b6000396000f3fe6080604052600436106101345760003560e01c8063744cc541116100ab57806399692ec31161006f57806399692ec314610397578063a217fddf146103cb578063d547741f146103e0578063ee0f9d3b14610400578063f259df8d14610415578063fb3b1efc1461044257600080fd5b8063744cc541146102d857806375b238fc146102eb5780637dc0d1d01461031f57806391d1485414610357578063965306aa1461037757600080fd5b8063248a9ca3116100fd578063248a9ca31461020057806328893243146102305780632f2ff15d1461025057806336568abe146102705780633791ea531461029057806361b20d8c146102c357600080fd5b8062923f9e1461013957806301ffc9a71461016e5780630b84be381461018e57806313119161146101b05780631ed6c886146101e0575b600080fd5b34801561014557600080fd5b506101596101543660046115f8565b610462565b60405190151581526020015b60405180910390f35b34801561017a57600080fd5b5061015961018936600461163b565b610697565b34801561019a57600080fd5b506101ae6101a93660046117dc565b6106ce565b005b3480156101bc57600080fd5b506101d2600080516020611b1683398151915281565b604051908152602001610165565b3480156101ec57600080fd5b506101ae6101fb36600461171d565b610724565b34801561020c57600080fd5b506101d261021b3660046115f8565b60009081526020819052604090206001015490565b34801561023c57600080fd5b506101ae61024b3660046115de565b610916565b34801561025c57600080fd5b506101ae61026b366004611610565b61099d565b34801561027c57600080fd5b506101ae61028b366004611610565b6109c8565b34801561029c57600080fd5b507fe0c21cec0df89042d0481b515470acf4b93b792ca3f63efbc999f5bb9716a8f46101d2565b3480156102cf57600080fd5b506101ae610a47565b6101ae6102e636600461169e565b610a9e565b3480156102f757600080fd5b506101d27fa49807205ce4d355092ef5a8a18f56e8913cf4a201fbe287825b095693c2177581565b34801561032b57600080fd5b5060015461033f906001600160a01b031681565b6040516001600160a01b039091168152602001610165565b34801561036357600080fd5b50610159610372366004611610565b610bcd565b34801561038357600080fd5b50610159610392366004611663565b610bf6565b3480156103a357600080fd5b506101d27fe0c21cec0df89042d0481b515470acf4b93b792ca3f63efbc999f5bb9716a8f481565b3480156103d757600080fd5b506101d2600081565b3480156103ec57600080fd5b506101ae6103fb366004611610565b610c3d565b34801561040c57600080fd5b506101d2610c63565b34801561042157600080fd5b506104356104303660046115f8565b610ce5565b604051610165919061199c565b34801561044e57600080fd5b5061043561045d366004611663565b610f1a565b60008181526004602090815260408083208151608081019092528054825260018101805485948401919061049590611aae565b80601f01602080910402602001604051908101604052809291908181526020018280546104c190611aae565b801561050e5780601f106104e35761010080835404028352916020019161050e565b820191906000526020600020905b8154815290600101906020018083116104f157829003601f168201915b5050505050815260200160028201805461052790611aae565b80601f016020809104026020016040519081016040528092919081815260200182805461055390611aae565b80156105a05780601f10610575576101008083540402835291602001916105a0565b820191906000526020600020905b81548152906001019060200180831161058357829003601f168201915b505050505081526020016003820180546105b990611aae565b80601f01602080910402602001604051908101604052809291908181526020018280546105e590611aae565b80156106325780601f1061060757610100808354040283529160200191610632565b820191906000526020600020905b81548152906001019060200180831161061557829003601f168201915b50505050508152505090508060200151604051602001610652919061184d565b6040516020818303038152906040528051906020012061068f7fe0c21cec0df89042d0481b515470acf4b93b792ca3f63efbc999f5bb9716a8f490565b149392505050565b60006001600160e01b03198216637965db0b60e01b14806106c857506301ffc9a760e01b6001600160e01b03198316145b92915050565b600080516020611b168339815191526106e78133611355565b827f7136a183484f92779d08edbdd2743be94f52255e7a25d7c173a4005a9bb0e1dd8360405161071791906118de565b60405180910390a2505050565b600080516020611b1683398151915261073d8133611355565b81516000908152600260209081526040808320546060860151915160e082901b6001600160e01b03191681526001600160a01b0392831660048201529281901c9091169163ffffffff90911690602401602060405180830381600087803b1580156107a757600080fd5b505af11580156107bb573d6000803e3d6000fd5b505050506040513d601f19601f820116820180604052508101906107df91906117c4565b6000818152600460208181526040808420858155815180830190925260078252663a3bb4ba3a32b960c91b82840190815294869052929091525192935061082c92600190910191906114a2565b5060208084015160008381526004835260409020815161085593600290920192909101906114a2565b5082604001516004600083815260200190815260200160002060030190805190602001906108849291906114a2565b50806003846020015160405161089a919061184d565b9081526020016040518091039020600001819055506001600384602001516040516108c5919061184d565b90815260405160209181900382018120600101805460ff1916931515939093179092558451838352917f043a4115f690dc8261bf759c1e71c3e45f226c3d8a6796daeee4fa280bd619dc9101610717565b7fa49807205ce4d355092ef5a8a18f56e8913cf4a201fbe287825b095693c217756109418133611355565b60015461096690600080516020611b16833981519152906001600160a01b0316610c3d565b600180546001600160a01b0319166001600160a01b038416179055610999600080516020611b168339815191528361099d565b5050565b6000828152602081905260409020600101546109b98133611355565b6109c383836113b9565b505050565b6001600160a01b0381163314610a3d5760405162461bcd60e51b815260206004820152602f60248201527f416363657373436f6e74726f6c3a2063616e206f6e6c792072656e6f756e636560448201526e103937b632b9903337b91039b2b63360891b60648201526084015b60405180910390fd5b610999828261143d565b7fa49807205ce4d355092ef5a8a18f56e8913cf4a201fbe287825b095693c21775610a728133611355565b60405133904780156108fc02916000818181858888f19350505050158015610999573d6000803e3d6000fd5b6001546040516302099cb760e61b81526000916001600160a01b0316906382672dc0903490610ae390899089903090631ed6c886908290630b84be38906004016118f1565b6020604051808303818588803b158015610afc57600080fd5b505af1158015610b10573d6000803e3d6000fd5b50505050506040513d601f19601f82011682018060405250810190610b3591906117c4565b604080516020808201835263ffffffff86811688831b17841b8352600085815260028352849020925183546001600160c01b03191690851c918216640100000000600160c01b0392909216919091171790915590518281529192506001600160a01b038616917fecb0cdc6ecf180bc1f7f444d9c9958e2241a3ba847c393ddba9460016f4fbef7910160405180910390a25050505050565b6000918252602082815260408084206001600160a01b0393909316845291905290205460ff1690565b600080600383604051610c09919061184d565b9081526040805191829003602090810183208383019092528154835260019091015460ff1615801591909201529392505050565b600082815260208190526040902060010154610c598133611355565b6109c3838361143d565b600154604080516378bb750960e11b815290516000926001600160a01b03169163f176ea12916004808301926020929190829003018186803b158015610ca857600080fd5b505afa158015610cbc573d6000803e3d6000fd5b505050506040513d601f19601f82011682018060405250810190610ce091906117c4565b905090565b610d106040518060800160405280600081526020016060815260200160608152602001606081525090565b610d1982610462565b610d355760405162461bcd60e51b8152600401610a3490611952565b6004600083815260200190815260200160002060405180608001604052908160008201548152602001600182018054610d6d90611aae565b80601f0160208091040260200160405190810160405280929190818152602001828054610d9990611aae565b8015610de65780601f10610dbb57610100808354040283529160200191610de6565b820191906000526020600020905b815481529060010190602001808311610dc957829003601f168201915b50505050508152602001600282018054610dff90611aae565b80601f0160208091040260200160405190810160405280929190818152602001828054610e2b90611aae565b8015610e785780601f10610e4d57610100808354040283529160200191610e78565b820191906000526020600020905b815481529060010190602001808311610e5b57829003601f168201915b50505050508152602001600382018054610e9190611aae565b80601f0160208091040260200160405190810160405280929190818152602001828054610ebd90611aae565b8015610f0a5780601f10610edf57610100808354040283529160200191610f0a565b820191906000526020600020905b815481529060010190602001808311610eed57829003601f168201915b5050505050815250509050919050565b610f456040518060800160405280600081526020016060815260200160608152602001606081525090565b610f4e82610bf6565b15610f6b5760405162461bcd60e51b8152600401610a3490611952565b6000600383604051610f7d919061184d565b9081526040805191829003602090810183205460008181526004835283902060808501909352825484526001830180549195509184019190610fbe90611aae565b80601f0160208091040260200160405190810160405280929190818152602001828054610fea90611aae565b80156110375780601f1061100c57610100808354040283529160200191611037565b820191906000526020600020905b81548152906001019060200180831161101a57829003601f168201915b5050505050815260200160028201805461105090611aae565b80601f016020809104026020016040519081016040528092919081815260200182805461107c90611aae565b80156110c95780601f1061109e576101008083540402835291602001916110c9565b820191906000526020600020905b8154815290600101906020018083116110ac57829003601f168201915b505050505081526020016003820180546110e290611aae565b80601f016020809104026020016040519081016040528092919081815260200182805461110e90611aae565b801561115b5780601f106111305761010080835404028352916020019161115b565b820191906000526020600020905b81548152906001019060200180831161113e57829003601f168201915b505050505081525050915050919050565b6060600061117b836002611a48565b611186906002611a30565b67ffffffffffffffff8111156111ac57634e487b7160e01b600052604160045260246000fd5b6040519080825280601f01601f1916602001820160405280156111d6576020820181803683370190505b509050600360fc1b816000815181106111ff57634e487b7160e01b600052603260045260246000fd5b60200101906001600160f81b031916908160001a905350600f60fb1b8160018151811061123c57634e487b7160e01b600052603260045260246000fd5b60200101906001600160f81b031916908160001a9053506000611260846002611a48565b61126b906001611a30565b90505b60018111156112ff576f181899199a1a9b1b9c1cb0b131b232b360811b85600f16601081106112ad57634e487b7160e01b600052603260045260246000fd5b1a60f81b8282815181106112d157634e487b7160e01b600052603260045260246000fd5b60200101906001600160f81b031916908160001a90535060049490941c936112f881611a97565b905061126e565b50831561134e5760405162461bcd60e51b815260206004820181905260248201527f537472696e67733a20686578206c656e67746820696e73756666696369656e746044820152606401610a34565b9392505050565b61135f8282610bcd565b61099957611377816001600160a01b0316601461116c565b61138283602061116c565b604051602001611393929190611869565b60408051601f198184030181529082905262461bcd60e51b8252610a34916004016118de565b6113c38282610bcd565b610999576000828152602081815260408083206001600160a01b03851684529091529020805460ff191660011790556113f93390565b6001600160a01b0316816001600160a01b0316837f2f8788117e7eff1d82e926ec794901d17c78024a50270940304540a733656f0d60405160405180910390a45050565b6114478282610bcd565b15610999576000828152602081815260408083206001600160a01b0385168085529252808320805460ff1916905551339285917ff6391f5c32d9c69d2a47ea670b442974b53935d1edc7fd64eb21e047a839171b9190a45050565b8280546114ae90611aae565b90600052602060002090601f0160209004810192826114d05760008555611516565b82601f106114e957805160ff1916838001178555611516565b82800160010185558215611516579182015b828111156115165782518255916020019190600101906114fb565b50611522929150611526565b5090565b5b808211156115225760008155600101611527565b80356001600160a01b038116811461155257600080fd5b919050565b600082601f830112611567578081fd5b813567ffffffffffffffff8082111561158257611582611aff565b604051601f8301601f19908116603f011681019082821181831017156115aa576115aa611aff565b816040528381528660208588010111156115c2578485fd5b8360208701602083013792830160200193909352509392505050565b6000602082840312156115ef578081fd5b61134e8261153b565b600060208284031215611609578081fd5b5035919050565b60008060408385031215611622578081fd5b823591506116326020840161153b565b90509250929050565b60006020828403121561164c578081fd5b81356001600160e01b03198116811461134e578182fd5b600060208284031215611674578081fd5b813567ffffffffffffffff81111561168a578182fd5b61169684828501611557565b949350505050565b600080600080606085870312156116b3578182fd5b843567ffffffffffffffff8111156116c9578283fd5b6116d587828801611557565b9450506116e46020860161153b565b9250604085013567ffffffffffffffff1981168114611701578283fd5b8060601c925063ffffffff8160401c1691505092959194509250565b60006020828403121561172e578081fd5b813567ffffffffffffffff80821115611745578283fd5b9083019060808286031215611758578283fd5b611760611a07565b82358152602083013582811115611775578485fd5b61178187828601611557565b602083015250604083013582811115611798578485fd5b6117a487828601611557565b6040830152506117b66060840161153b565b606082015295945050505050565b6000602082840312156117d5578081fd5b5051919050565b600080604083850312156117ee578182fd5b82359150602083013567ffffffffffffffff81111561180b578182fd5b61181785828601611557565b9150509250929050565b60008151808452611839816020860160208601611a67565b601f01601f19169290920160200192915050565b6000825161185f818460208701611a67565b9190910192915050565b7f416363657373436f6e74726f6c3a206163636f756e74200000000000000000008152600083516118a1816017850160208801611a67565b7001034b99036b4b9b9b4b733903937b6329607d1b60179184019182015283516118d2816028840160208801611a67565b01602801949350505050565b60208152600061134e6020830184611821565b6080815260006119046080830189611821565b6001600160a01b0388166020840152905061193260408301868860201b63ffffffff919091161760401b9052565b63ffffffff8316602085901b1760401b6060830152979650505050505050565b6020808252602a908201527f54776974746572506f73744d696e7465723a20506f737420776173206e6f74206040820152691e595d081b5a5b9d195960b21b606082015260800190565b602081528151602082015260006020830151608060408401526119c260a0840182611821565b90506040840151601f19808584030160608601526119e08383611821565b92506060860151915080858403016080860152506119fe8282611821565b95945050505050565b6040516080810167ffffffffffffffff81118282101715611a2a57611a2a611aff565b60405290565b60008219821115611a4357611a43611ae9565b500190565b6000816000190483118215151615611a6257611a62611ae9565b500290565b60005b83811015611a82578181015183820152602001611a6a565b83811115611a91576000848401525b50505050565b600081611aa657611aa6611ae9565b506000190190565b600181811c90821680611ac257607f821691505b60208210811415611ae357634e487b7160e01b600052602260045260246000fd5b50919050565b634e487b7160e01b600052601160045260246000fd5b634e487b7160e01b600052604160045260246000fdfe14823911f2da1b49f045a0929a60b8c1f2a7fc8c06c7284ca3e8ab4e193a08c8a26469706673582212208478d5e3c5614514e76784df17c65906d443311d480f132722d6ddacaeb1418664736f6c6343000804003314823911f2da1b49f045a0929a60b8c1f2a7fc8c06c7284ca3e8ab4e193a08c8a49807205ce4d355092ef5a8a18f56e8913cf4a201fbe287825b095693c21775","linkReferences":{},"deployedLinkReferences":{}}