{"_format":"hh-sol-artifact-1","contractName":"TwitterPostOracle","sourceName":"contracts/oracles/TwitterPostOracle.sol","abi":[{"inputs":[],"stateMutability":"nonpayable","type":"constructor"},{"anonymous":false,"inputs":[{"indexed":false,"internalType":"uint256","name":"requestId","type":"uint256"}],"name":"NewPendingRequest","type":"event"},{"anonymous":false,"inputs":[{"indexed":true,"internalType":"address","name":"previousOwner","type":"address"},{"indexed":true,"internalType":"address","name":"newOwner","type":"address"}],"name":"OwnershipTransferred","type":"event"},{"anonymous":false,"inputs":[{"indexed":false,"internalType":"uint256[]","name":"requestsIds","type":"uint256[]"},{"indexed":false,"internalType":"uint8","name":"count","type":"uint8"}],"name":"RetrievePendingRequestsFromQueue","type":"event"},{"inputs":[{"internalType":"uint256","name":"id","type":"uint256"},{"internalType":"string","name":"err","type":"string"}],"name":"failed","outputs":[],"stateMutability":"nonpayable","type":"function"},{"inputs":[],"name":"getMyRequests","outputs":[{"components":[{"internalType":"address","name":"owner","type":"address"},{"internalType":"uint256","name":"id","type":"uint256"},{"internalType":"string","name":"postId","type":"string"},{"internalType":"uint8","name":"status","type":"uint8"},{"internalType":"string","name":"err","type":"string"}],"internalType":"struct TwitterPostData.RequestSerialized[]","name":"","type":"tuple[]"}],"stateMutability":"view","type":"function"},{"inputs":[],"name":"getPendingRequestsIdsFromQueue","outputs":[{"internalType":"uint8","name":"count","type":"uint8"}],"stateMutability":"nonpayable","type":"function"},{"inputs":[{"internalType":"uint256","name":"id","type":"uint256"}],"name":"getRequestById","outputs":[{"components":[{"internalType":"address","name":"owner","type":"address"},{"internalType":"uint256","name":"id","type":"uint256"},{"internalType":"string","name":"postId","type":"string"},{"internalType":"uint8","name":"status","type":"uint8"},{"internalType":"string","name":"err","type":"string"}],"internalType":"struct TwitterPostData.RequestSerialized","name":"","type":"tuple"}],"stateMutability":"view","type":"function"},{"inputs":[],"name":"owner","outputs":[{"internalType":"address","name":"","type":"address"}],"stateMutability":"view","type":"function"},{"inputs":[],"name":"priceWEI","outputs":[{"internalType":"uint256","name":"","type":"uint256"}],"stateMutability":"view","type":"function"},{"inputs":[],"name":"renounceOwnership","outputs":[],"stateMutability":"nonpayable","type":"function"},{"inputs":[{"internalType":"string","name":"postId","type":"string"},{"internalType":"address","name":"owner","type":"address"},{"internalType":"function (struct TwitterPostData.Response) external","name":"successCallback","type":"function"},{"internalType":"function (uint256,string) external","name":"failureCallback","type":"function"}],"name":"request","outputs":[{"internalType":"uint256","name":"","type":"uint256"}],"stateMutability":"payable","type":"function"},{"inputs":[],"name":"retrieveFunds","outputs":[],"stateMutability":"nonpayable","type":"function"},{"inputs":[{"internalType":"uint256","name":"_priceWEI","type":"uint256"}],"name":"setPriceETH","outputs":[],"stateMutability":"nonpayable","type":"function"},{"inputs":[{"internalType":"uint256","name":"id","type":"uint256"}],"name":"startProcessing","outputs":[],"stateMutability":"nonpayable","type":"function"},{"inputs":[{"internalType":"uint256","name":"id","type":"uint256"},{"internalType":"string","name":"postId","type":"string"},{"internalType":"string","name":"postUrl","type":"string"}],"name":"succeeded","outputs":[],"stateMutability":"nonpayable","type":"function"},{"inputs":[{"internalType":"address","name":"newOwner","type":"address"}],"name":"transferOwnership","outputs":[],"stateMutability":"nonpayable","type":"function"}],"bytecode":"0x60806040523480156200001157600080fd5b506200001d3362000048565b66b1a2bc2ec5000060015562000042600560c862000098602090811b620011c917901c565b620000d6565b600080546001600160a01b038381166001600160a01b0319831681178455604051919092169283917f8be0079c531659141344cd1fd0a4f28419497f9722a3daafe3b4186f6b6457e09190a35050565b60018201805463ffffffff1916630100000060ff8416021790555b815460ff82161115620000d257815460010182556000829052620000b3565b5050565b611c3780620000e66000396000f3fe6080604052600436106100c25760003560e01c80638da5cb5b1161007f57806399a752d71161005957806399a752d7146101f4578063c1500a5714610214578063f176ea121461023b578063f2fde38b1461025157600080fd5b80638da5cb5b1461018a57806391eace8b146101b2578063954db88e146101d457600080fd5b806317a8791d146100c757806326757b73146100e957806329fa50f91461011f57806361b20d8c1461013f578063715018a61461015457806382672dc014610169575b600080fd5b3480156100d357600080fd5b506100e76100e23660046117a6565b610271565b005b3480156100f557600080fd5b506101096101043660046117a6565b61041b565b6040516101169190611a68565b60405180910390f35b34801561012b57600080fd5b506100e761013a3660046117be565b610496565b34801561014b57600080fd5b506100e7610684565b34801561016057600080fd5b506100e76106dd565b61017c61017736600461170a565b610713565b604051908152602001610116565b34801561019657600080fd5b506000546040516001600160a01b039091168152602001610116565b3480156101be57600080fd5b506101c76109ef565b6040516101169190611918565b3480156101e057600080fd5b506100e76101ef366004611803565b610bae565b34801561020057600080fd5b506100e761020f3660046117a6565b610dc8565b34801561022057600080fd5b50610229610df7565b60405160ff9091168152602001610116565b34801561024757600080fd5b5061017c60015481565b34801561025d57600080fd5b506100e761026c3660046116e9565b611131565b6000546001600160a01b031633146102a45760405162461bcd60e51b815260040161029b906119c7565b60405180910390fd5b600081815260026020526040902060040154600160c01b900460ff166001146103415760405162461bcd60e51b815260206004820152604360248201527f5265717565737420776974682070726f7669646564206964206973206e6f742060448201527f696e2070656e64696e672073746174652c206f7220646f6573206e6f742065786064820152621a5cdd60ea1b608482015260a40161029b565b600081815260026020908152604080832060048101805460ff60c01b1916600160c11b179055546001600160a01b031683526003909152902061038382611205565b8154600180820184556000938452602093849020835160059093020180546001600160a01b0319166001600160a01b03909316929092178255828401519082015560408201518051929391926103df9260028501920190611577565b50606082015160038201805460ff191660ff90921691909117905560808201518051610415916004840191602090910190611577565b50505050565b6104236115fb565b6000546001600160a01b0316331461044d5760405162461bcd60e51b815260040161029b906119c7565b600082815260026020526040902060040154600160c01b900460ff166104855760405162461bcd60e51b815260040161029b906119fc565b61048e82611205565b90505b919050565b6000546001600160a01b031633146104c05760405162461bcd60e51b815260040161029b906119c7565b600082815260026020819052604090912060040154600160c01b900460ff16146104fc5760405162461bcd60e51b815260040161029b906119fc565b600082815260026020908152604090912060048101805460ff60c01b1916600160c21b179055825161053692600590920191840190611577565b506002600083815260200190815260200160002060040160009054906101000a90048060201c6001600160a01b03169063ffffffff1683836040518363ffffffff1660e01b815260040161058b929190611ae0565b600060405180830381600087803b1580156105a557600080fd5b505af11580156105b9573d6000803e3d6000fd5b5050506000838152600260209081526040808320546001600160a01b031683526003909152902090506105eb83611205565b8154600180820184556000938452602093849020835160059093020180546001600160a01b0319166001600160a01b03909316929092178255828401519082015560408201518051929391926106479260028501920190611577565b50606082015160038201805460ff191660ff9092169190911790556080820151805161067d916004840191602090910190611577565b5050505050565b6000546001600160a01b031633146106ae5760405162461bcd60e51b815260040161029b906119c7565b60405133904780156108fc02916000818181858888f193505050501580156106da573d6000803e3d6000fd5b50565b6000546001600160a01b031633146107075760405162461bcd60e51b815260040161029b906119c7565b6107116000611396565b565b600060015434146107765760405162461bcd60e51b815260206004820152602760248201527f506c656173652073656e6420656e6f756768742045544820666f7220746865206044820152661c995c5d595cdd60ca1b606482015260840161029b565b6040805160e08101825260008082526020820181905260609282018390528282018190526080820181905260a082015260c081019190915260006107b960045490565b90506107c9600480546001019055565b60208281018281526001600160a01b038a8116855260408086018d815263ffffffff8b81168d871b17831b606089015289168a861b17821b6080880152600160a0880181905260008781526002808852939020885181546001600160a01b0319169516949094178455935193830193909355915180518694929361085293908501920190611577565b5060608201516003820180546001600160c01b03191663ffffffff604093841c818116640100000000600160c01b039182161792909217909255608085015160048501805460a08801519290951c93841693909216929092176001600160c81b031990931692909217600160c01b60ff9092169190910217905560c082015180516108e7916005840191602090910190611577565b505082516001600160a01b03166000908152600360205260409020905061090d82611205565b8154600180820184556000938452602093849020835160059093020180546001600160a01b0319166001600160a01b03909316929092178255828401519082015560408201518051929391926109699260028501920190611577565b50606082015160038201805460ff191660ff9092169190911790556080820151805161099f916004840191602090910190611577565b506109af915060059050826113e6565b506040518181527f1d5ba61d36a1cd5c3cd949b43386ae4e8c065fe019d3d727fdcf69249cde75be9060200160405180910390a198975050505050505050565b336000908152600360209081526040808320805482518185028101850190935280835260609492939192909184015b82821015610ba55760008481526020908190206040805160a0810182526005860290920180546001600160a01b0316835260018101549383019390935260028301805492939291840191610a7190611b43565b80601f0160208091040260200160405190810160405280929190818152602001828054610a9d90611b43565b8015610aea5780601f10610abf57610100808354040283529160200191610aea565b820191906000526020600020905b815481529060010190602001808311610acd57829003601f168201915b5050509183525050600382015460ff166020820152600482018054604090920191610b1490611b43565b80601f0160208091040260200160405190810160405280929190818152602001828054610b4090611b43565b8015610b8d5780601f10610b6257610100808354040283529160200191610b8d565b820191906000526020600020905b815481529060010190602001808311610b7057829003601f168201915b50505050508152505081526020019060010190610a1e565b50505050905090565b6000546001600160a01b03163314610bd85760405162461bcd60e51b815260040161029b906119c7565b600083815260026020819052604090912060040154600160c01b900460ff1614610c145760405162461bcd60e51b815260040161029b906119fc565b610c48604051806080016040528060008152602001606081526020016060815260200160006001600160a01b031681525090565b838152602080820184905260408083018490526000868152600280845282822080546001600160a01b039081166060880152928990529084526004808201805460ff60c01b1916600360c01b179055600390910154925160e084901b6001600160e01b03191681529383901c9091169263ffffffff90921691610ccd91859101611a7b565b600060405180830381600087803b158015610ce757600080fd5b505af1158015610cfb573d6000803e3d6000fd5b5050506000858152600260209081526040808320546001600160a01b03168352600390915290209050610d2d85611205565b8154600180820184556000938452602093849020835160059093020180546001600160a01b0319166001600160a01b0390931692909217825582840151908201556040820151805192939192610d899260028501920190611577565b50606082015160038201805460ff191660ff90921691909117905560808201518051610dbf916004840191602090910190611577565b50505050505050565b6000546001600160a01b03163314610df25760405162461bcd60e51b815260040161029b906119c7565b600155565b600080546001600160a01b03163314610e225760405162461bcd60e51b815260040161029b906119c7565b600080610e2f60056114b6565b91509150610e716040805160e08101825260008082526020820181905260609282018390528282018190526080820181905260a082015260c081019190915290565b6006546000906301000000900460ff1667ffffffffffffffff811115610ea757634e487b7160e01b600052604160045260246000fd5b604051908082528060200260200182016040528015610ed0578160200160208202803683370190505b50905060005b83156110ef57600085815260026020818152604092839020835160e08101855281546001600160a01b0316815260018201549281019290925291820180549193840191610f2290611b43565b80601f0160208091040260200160405190810160405280929190818152602001828054610f4e90611b43565b8015610f9b5780601f10610f7057610100808354040283529160200191610f9b565b820191906000526020600020905b815481529060010190602001808311610f7e57829003601f168201915b5050509183525050600382015463ffffffff808216640100000000600160c01b0392831617604090811b6020850152600485015491821692821692909217821b91830191909152600160c01b900460ff16606082015260058201805460809092019161100690611b43565b80601f016020809104026020016040519081016040528092919081815260200182805461103290611b43565b801561107f5780601f106110545761010080835404028352916020019161107f565b820191906000526020600020905b81548152906001019060200180831161106257829003601f168201915b50505050508152505092508260a0015160ff16600114156110db578260200151828260ff16815181106110c257634e487b7160e01b600052603260045260246000fd5b6020908102919091010152806110d781611b7e565b9150505b6110e560056114b6565b9095509350610ed6565b7f66cb254fb886e0d489510b04c89acde5be432fc7247b241872ad1fc23b55f4c18282604051611120929190611979565b60405180910390a194505050505090565b6000546001600160a01b0316331461115b5760405162461bcd60e51b815260040161029b906119c7565b6001600160a01b0381166111c05760405162461bcd60e51b815260206004820152602660248201527f4f776e61626c653a206e6577206f776e657220697320746865207a65726f206160448201526564647265737360d01b606482015260840161029b565b6106da81611396565b60018201805463ffffffff1916630100000060ff8416021790555b815460ff82161115611201578154600101825560008290526111e4565b5050565b61120d6115fb565b6112156115fb565b6000838152600260208181526040832060018101548583015280546001600160a01b031685529286905281905201805461124e90611b43565b80601f016020809104026020016040519081016040528092919081815260200182805461127a90611b43565b80156112c75780601f1061129c576101008083540402835291602001916112c7565b820191906000526020600020905b8154815290600101906020018083116112aa57829003601f168201915b50505050506040828101919091526000848152600260208181529282206004810154600160c01b900460ff16606086015291869052909152600501805461130d90611b43565b80601f016020809104026020016040519081016040528092919081815260200182805461133990611b43565b80156113865780601f1061135b57610100808354040283529160200191611386565b820191906000526020600020905b81548152906001019060200180831161136957829003601f168201915b5050505050608082015292915050565b600080546001600160a01b038381166001600160a01b0319831681178455604051919092169283917f8be0079c531659141344cd1fd0a4f28419497f9722a3daafe3b4186f6b6457e09190a35050565b815460018301546000916201000090910460ff1610156114b057600183015483548391859161010090910460ff1690811061143157634e487b7160e01b600052603260045260246000fd5b60009182526020909120015582546001808501546114589161010090910460ff1690611b01565b60ff166114659190611b9e565b60018401805461ff00191661010060ff938416021780825562010000900490911690600261149283611b7e565b91906101000a81548160ff021916908360ff16021790555050600190505b92915050565b6001810154600090819062010000900460ff16156115725760018301548354849160ff169081106114f757634e487b7160e01b600052603260045260246000fd5b6000918252602090912001548354600180860154929450909161151f9160ff90911690611b01565b60ff1661152c9190611b9e565b60018401805460ff191660ff9283161780825562010000900490911690600261155483611b26565b91906101000a81548160ff021916908360ff16021790555050600190505b915091565b82805461158390611b43565b90600052602060002090601f0160209004810192826115a557600085556115eb565b82601f106115be57805160ff19168380011785556115eb565b828001600101855582156115eb579182015b828111156115eb5782518255916020019190600101906115d0565b506115f7929150611636565b5090565b6040518060a0016040528060006001600160a01b031681526020016000815260200160608152602001600060ff168152602001606081525090565b5b808211156115f75760008155600101611637565b80356001600160a01b038116811461049157600080fd5b600082601f830112611672578081fd5b813567ffffffffffffffff8082111561168d5761168d611bd4565b604051601f8301601f19908116603f011681019082821181831017156116b5576116b5611bd4565b816040528381528660208588010111156116cd578485fd5b8360208701602083013792830160200193909352509392505050565b6000602082840312156116fa578081fd5b6117038261164b565b9392505050565b60008060008060008060808789031215611722578182fd5b863567ffffffffffffffff811115611738578283fd5b61174489828a01611662565b9650506117536020880161164b565b9450604087013561176381611bea565b606081811c955060409190911c63ffffffff16935087013561178481611bea565b606081901c63ffffffff604083901c16979a9699509497509295939492505050565b6000602082840312156117b7578081fd5b5035919050565b600080604083850312156117d0578182fd5b82359150602083013567ffffffffffffffff8111156117ed578182fd5b6117f985828601611662565b9150509250929050565b600080600060608486031215611817578283fd5b83359250602084013567ffffffffffffffff80821115611835578384fd5b61184187838801611662565b93506040860135915080821115611856578283fd5b5061186386828701611662565b9150509250925092565b60008151808452815b8181101561189257602081850181015186830182015201611876565b818111156118a35782602083870101525b50601f01601f19169290920160200192915050565b60018060a01b038151168252602081015160208301526000604082015160a060408501526118e960a085018261186d565b905060ff60608401511660608501526080830151848203608086015261190f828261186d565b95945050505050565b6000602080830181845280855180835260408601915060408160051b8701019250838701855b8281101561196c57603f1988860301845261195a8583516118b8565b9450928501929085019060010161193e565b5092979650505050505050565b604080825283519082018190526000906020906060840190828701845b828110156119b257815184529284019290840190600101611996565b50505060ff9490941692019190915250919050565b6020808252818101527f4f776e61626c653a2063616c6c6572206973206e6f7420746865206f776e6572604082015260600190565b60208082526046908201527f5265717565737420776974682070726f7669646564206964206973206e6f742060408201527f696e2070726f63657373696e672073746174652c206f7220646f6573206e6f7460608201526508195e1a5cdd60d21b608082015260a00190565b60208152600061170360208301846118b8565b60208152815160208201526000602083015160806040840152611aa160a084018261186d565b90506040840151601f19848303016060850152611abe828261186d565b606095909501516001600160a01b031660809490940193909352509192915050565b828152604060208201526000611af9604083018461186d565b949350505050565b600060ff821660ff84168060ff03821115611b1e57611b1e611bbe565b019392505050565b600060ff821680611b3957611b39611bbe565b6000190192915050565b600181811c90821680611b5757607f821691505b60208210811415611b7857634e487b7160e01b600052602260045260246000fd5b50919050565b600060ff821660ff811415611b9557611b95611bbe565b60010192915050565b600082611bb957634e487b7160e01b81526012600452602481fd5b500690565b634e487b7160e01b600052601160045260246000fd5b634e487b7160e01b600052604160045260246000fd5b67ffffffffffffffff19811681146106da57600080fdfea26469706673582212202609275fd769d39daf55126bea4a3bc8c5bd6e7ba91ae131eca83c0c4a877ef664736f6c63430008040033","linkReferences":{},"deployedLinkReferences":{}}