{"_format":"hh-sol-artifact-1","contractName":"TwitterAuthOracle","sourceName":"contracts/oracles/TwitterAuthOracle.sol","abi":[{"inputs":[],"stateMutability":"nonpayable","type":"constructor"},{"anonymous":false,"inputs":[{"indexed":false,"internalType":"uint256","name":"requestId","type":"uint256"}],"name":"NewPendingRequest","type":"event"},{"anonymous":false,"inputs":[{"indexed":true,"internalType":"address","name":"previousOwner","type":"address"},{"indexed":true,"internalType":"address","name":"newOwner","type":"address"}],"name":"OwnershipTransferred","type":"event"},{"inputs":[{"internalType":"uint256","name":"id","type":"uint256"},{"internalType":"string","name":"err","type":"string"}],"name":"failed","outputs":[],"stateMutability":"nonpayable","type":"function"},{"inputs":[{"internalType":"uint256","name":"id","type":"uint256"}],"name":"getRequestById","outputs":[{"components":[{"internalType":"address","name":"owner","type":"address"},{"internalType":"string","name":"oauthToken","type":"string"},{"internalType":"string","name":"oauthVerifier","type":"string"},{"internalType":"uint8","name":"status","type":"uint8"},{"internalType":"string","name":"err","type":"string"}],"internalType":"struct TwitterAuthData.RequestSerialized","name":"","type":"tuple"}],"stateMutability":"view","type":"function"},{"inputs":[],"name":"owner","outputs":[{"internalType":"address","name":"","type":"address"}],"stateMutability":"view","type":"function"},{"inputs":[],"name":"priceWEI","outputs":[{"internalType":"uint256","name":"","type":"uint256"}],"stateMutability":"view","type":"function"},{"inputs":[],"name":"renounceOwnership","outputs":[],"stateMutability":"nonpayable","type":"function"},{"inputs":[{"internalType":"string","name":"oauthToken","type":"string"},{"internalType":"string","name":"oauthVerifier","type":"string"},{"internalType":"address","name":"owner","type":"address"},{"internalType":"function (struct TwitterAuthData.Response) external","name":"successCallback","type":"function"},{"internalType":"function (uint256,string) external","name":"failureCallback","type":"function"}],"name":"request","outputs":[{"internalType":"uint256","name":"","type":"uint256"}],"stateMutability":"payable","type":"function"},{"inputs":[{"internalType":"uint256","name":"_priceWEI","type":"uint256"}],"name":"setPriceETH","outputs":[],"stateMutability":"nonpayable","type":"function"},{"inputs":[{"internalType":"uint256","name":"id","type":"uint256"}],"name":"startProcessing","outputs":[],"stateMutability":"nonpayable","type":"function"},{"inputs":[{"internalType":"uint256","name":"id","type":"uint256"},{"internalType":"string","name":"screenName","type":"string"},{"internalType":"string","name":"userId","type":"string"}],"name":"succeeded","outputs":[],"stateMutability":"nonpayable","type":"function"},{"inputs":[{"internalType":"address","name":"newOwner","type":"address"}],"name":"transferOwnership","outputs":[],"stateMutability":"nonpayable","type":"function"}],"bytecode":"0x608060405234801561001057600080fd5b5061001a3361002a565b6611c37937e0800060015561007a565b600080546001600160a01b038381166001600160a01b0319831681178455604051919092169283917f8be0079c531659141344cd1fd0a4f28419497f9722a3daafe3b4186f6b6457e09190a35050565b611109806100896000396000f3fe6080604052600436106100915760003560e01c8063954db88e11610059578063954db88e1461014b57806399a752d71461016b578063cb2859b11461018b578063f176ea12146101ac578063f2fde38b146101c257600080fd5b806317a8791d1461009657806326757b73146100b857806329fa50f9146100ee578063715018a61461010e5780638da5cb5b14610123575b600080fd5b3480156100a257600080fd5b506100b66100b1366004610db2565b6101e2565b005b3480156100c457600080fd5b506100d86100d3366004610db2565b6102d6565b6040516100e59190610f65565b60405180910390f35b3480156100fa57600080fd5b506100b6610109366004610dca565b610564565b34801561011a57600080fd5b506100b661068f565b34801561012f57600080fd5b506000546040516001600160a01b0390911681526020016100e5565b34801561015757600080fd5b506100b6610166366004610e0f565b6106c5565b34801561017757600080fd5b506100b6610186366004610db2565b61081c565b61019e610199366004610cf1565b61084b565b6040519081526020016100e5565b3480156101b857600080fd5b5061019e60015481565b3480156101ce57600080fd5b506100b66101dd366004610cd0565b610a73565b6000546001600160a01b031633146102155760405162461bcd60e51b815260040161020c90610ec4565b60405180910390fd5b600081815260026020526040902060040154600160c01b900460ff166001146102b25760405162461bcd60e51b815260206004820152604360248201527f5265717565737420776974682070726f7669646564206964206973206e6f742060448201527f696e2070656e64696e672073746174652c206f7220646f6573206e6f742065786064820152621a5cdd60ea1b608482015260a40161020c565b6000908152600260205260409020600401805460ff60c01b1916600160c11b179055565b6102de610b5e565b6000546001600160a01b031633146103085760405162461bcd60e51b815260040161020c90610ec4565b600082815260026020526040902060040154600160c01b900460ff166103405760405162461bcd60e51b815260040161020c90610ef9565b610348610b5e565b6000838152600260208181526040832080546001600160a01b03168552928690525260010180546103789061106b565b80601f01602080910402602001604051908101604052809291908181526020018280546103a49061106b565b80156103f15780601f106103c6576101008083540402835291602001916103f1565b820191906000526020600020905b8154815290600101906020018083116103d457829003601f168201915b505050506020808401929092525060008481526002918290526040902001805461041a9061106b565b80601f01602080910402602001604051908101604052809291908181526020018280546104469061106b565b80156104935780601f1061046857610100808354040283529160200191610493565b820191906000526020600020905b81548152906001019060200180831161047657829003601f168201915b50505050506040828101919091526000848152600260208181529282206004810154600160c01b900460ff1660608601529186905290915260050180546104d99061106b565b80601f01602080910402602001604051908101604052809291908181526020018280546105059061106b565b80156105525780601f1061052757610100808354040283529160200191610552565b820191906000526020600020905b81548152906001019060200180831161053557829003601f168201915b5050505050608082015290505b919050565b6000546001600160a01b0316331461058e5760405162461bcd60e51b815260040161020c90610ec4565b600082815260026020819052604090912060040154600160c01b900460ff16146105ca5760405162461bcd60e51b815260040161020c90610ef9565b600082815260026020908152604090912060048101805460ff60c01b1916600160c21b179055825161060492600590920191840190610b99565b506002600083815260200190815260200160002060040160009054906101000a90048060201c6001600160a01b03169063ffffffff1683836040518363ffffffff1660e01b815260040161065992919061104a565b600060405180830381600087803b15801561067357600080fd5b505af1158015610687573d6000803e3d6000fd5b505050505050565b6000546001600160a01b031633146106b95760405162461bcd60e51b815260040161020c90610ec4565b6106c36000610b0e565b565b6000546001600160a01b031633146106ef5760405162461bcd60e51b815260040161020c90610ec4565b600083815260026020819052604090912060040154600160c01b900460ff161461072b5760405162461bcd60e51b815260040161020c90610ef9565b61075f604051806080016040528060008152602001606081526020016060815260200160006001600160a01b031681525090565b838152602080820184905260408083018490526000868152600280845282822080546001600160a01b039081166060880152928990529084526004808201805460ff60c01b1916600360c01b179055600390910154925160e084901b6001600160e01b03191681529383901c9091169263ffffffff909216916107e491859101610fe5565b600060405180830381600087803b1580156107fe57600080fd5b505af1158015610812573d6000803e3d6000fd5b5050505050505050565b6000546001600160a01b031633146108465760405162461bcd60e51b815260040161020c90610ec4565b600155565b600060015434146108ae5760405162461bcd60e51b815260206004820152602760248201527f506c656173652073656e6420656e6f756768742045544820666f7220746865206044820152661c995c5d595cdd60ca1b606482015260840161020c565b6040805160e08101825260008082526060602083018190529282018390528282018190526080820181905260a082015260c081019190915260006108f160035490565b9050610901600380546001019055565b6001600160a01b03888116835260208084018c815260408086018d905263ffffffff8a81168c851b17821b6060880152881689841b17811b6080870152600160a0870181905260008681526002855291909120865181546001600160a01b03191695169490941784559051805186949361097f938501920190610b99565b506040820151805161099b916002840191602090910190610b99565b5060608201516003820180546001600160c01b03191663ffffffff604093841c818116640100000000600160c01b039182161792909217909255608085015160048501805460a08801519290951c93841693909216929092176001600160c81b031990931692909217600160c01b60ff9092169190910217905560c08201518051610a30916005840191602090910190610b99565b50506040518281527f1d5ba61d36a1cd5c3cd949b43386ae4e8c065fe019d3d727fdcf69249cde75be915060200160405180910390a19998505050505050505050565b6000546001600160a01b03163314610a9d5760405162461bcd60e51b815260040161020c90610ec4565b6001600160a01b038116610b025760405162461bcd60e51b815260206004820152602660248201527f4f776e61626c653a206e6577206f776e657220697320746865207a65726f206160448201526564647265737360d01b606482015260840161020c565b610b0b81610b0e565b50565b600080546001600160a01b038381166001600160a01b0319831681178455604051919092169283917f8be0079c531659141344cd1fd0a4f28419497f9722a3daafe3b4186f6b6457e09190a35050565b6040518060a0016040528060006001600160a01b031681526020016060815260200160608152602001600060ff168152602001606081525090565b828054610ba59061106b565b90600052602060002090601f016020900481019282610bc75760008555610c0d565b82601f10610be057805160ff1916838001178555610c0d565b82800160010185558215610c0d579182015b82811115610c0d578251825591602001919060010190610bf2565b50610c19929150610c1d565b5090565b5b80821115610c195760008155600101610c1e565b80356001600160a01b038116811461055f57600080fd5b600082601f830112610c59578081fd5b813567ffffffffffffffff80821115610c7457610c746110a6565b604051601f8301601f19908116603f01168101908282118183101715610c9c57610c9c6110a6565b81604052838152866020858801011115610cb4578485fd5b8360208701602083013792830160200193909352509392505050565b600060208284031215610ce1578081fd5b610cea82610c32565b9392505050565b600080600080600080600060a0888a031215610d0b578283fd5b873567ffffffffffffffff80821115610d22578485fd5b610d2e8b838c01610c49565b985060208a0135915080821115610d43578485fd5b50610d508a828b01610c49565b965050610d5f60408901610c32565b94506060880135610d6f816110bc565b606081901c945060401c63ffffffff1692506080880135610d8f816110bc565b606081901c63ffffffff604083901c16989b979a50959850939692959293505050565b600060208284031215610dc3578081fd5b5035919050565b60008060408385031215610ddc578182fd5b82359150602083013567ffffffffffffffff811115610df9578182fd5b610e0585828601610c49565b9150509250929050565b600080600060608486031215610e23578283fd5b83359250602084013567ffffffffffffffff80821115610e41578384fd5b610e4d87838801610c49565b93506040860135915080821115610e62578283fd5b50610e6f86828701610c49565b9150509250925092565b60008151808452815b81811015610e9e57602081850181015186830182015201610e82565b81811115610eaf5782602083870101525b50601f01601f19169290920160200192915050565b6020808252818101527f4f776e61626c653a2063616c6c6572206973206e6f7420746865206f776e6572604082015260600190565b60208082526046908201527f5265717565737420776974682070726f7669646564206964206973206e6f742060408201527f696e2070726f63657373696e672073746174652c206f7220646f6573206e6f7460608201526508195e1a5cdd60d21b608082015260a00190565b602080825282516001600160a01b03168282015282015160a06040830152600090610f9360c0840182610e79565b90506040840151601f1980858403016060860152610fb18383610e79565b925060ff606087015116608086015260808601519150808584030160a086015250610fdc8282610e79565b95945050505050565b6020815281516020820152600060208301516080604084015261100b60a0840182610e79565b90506040840151601f198483030160608501526110288282610e79565b606095909501516001600160a01b031660809490940193909352509192915050565b8281526040602082015260006110636040830184610e79565b949350505050565b600181811c9082168061107f57607f821691505b602082108114156110a057634e487b7160e01b600052602260045260246000fd5b50919050565b634e487b7160e01b600052604160045260246000fd5b67ffffffffffffffff1981168114610b0b57600080fdfea2646970667358221220ae2110629c66161180e19cee3664c634dabdc650db4d4e9104b72265152b3a7b64736f6c63430008040033","linkReferences":{},"deployedLinkReferences":{}}