{"_format":"hh-sol-artifact-1","contractName":"TwitterAuthOracle","sourceName":"contracts/oracles/TwitterAuthOracle.sol","abi":[{"inputs":[],"stateMutability":"nonpayable","type":"constructor"},{"anonymous":false,"inputs":[{"indexed":false,"internalType":"uint256","name":"requestId","type":"uint256"}],"name":"NewPendingRequest","type":"event"},{"anonymous":false,"inputs":[{"indexed":true,"internalType":"address","name":"previousOwner","type":"address"},{"indexed":true,"internalType":"address","name":"newOwner","type":"address"}],"name":"OwnershipTransferred","type":"event"},{"anonymous":false,"inputs":[{"indexed":false,"internalType":"uint256[]","name":"requestsIds","type":"uint256[]"},{"indexed":false,"internalType":"uint8","name":"count","type":"uint8"}],"name":"RetrievePendingRequestsFromQueue","type":"event"},{"inputs":[{"internalType":"uint256","name":"id","type":"uint256"},{"internalType":"string","name":"err","type":"string"}],"name":"failed","outputs":[],"stateMutability":"nonpayable","type":"function"},{"inputs":[],"name":"getPendingRequestsIdsFromQueue","outputs":[{"internalType":"uint8","name":"count","type":"uint8"}],"stateMutability":"nonpayable","type":"function"},{"inputs":[{"internalType":"uint256","name":"id","type":"uint256"}],"name":"getRequestById","outputs":[{"components":[{"internalType":"address","name":"owner","type":"address"},{"internalType":"uint256","name":"id","type":"uint256"},{"internalType":"string","name":"oauthToken","type":"string"},{"internalType":"string","name":"oauthVerifier","type":"string"},{"internalType":"uint8","name":"status","type":"uint8"},{"internalType":"string","name":"err","type":"string"}],"internalType":"struct TwitterAuthData.RequestSerialized","name":"","type":"tuple"}],"stateMutability":"view","type":"function"},{"inputs":[],"name":"owner","outputs":[{"internalType":"address","name":"","type":"address"}],"stateMutability":"view","type":"function"},{"inputs":[],"name":"priceWEI","outputs":[{"internalType":"uint256","name":"","type":"uint256"}],"stateMutability":"view","type":"function"},{"inputs":[],"name":"renounceOwnership","outputs":[],"stateMutability":"nonpayable","type":"function"},{"inputs":[{"internalType":"string","name":"oauthToken","type":"string"},{"internalType":"string","name":"oauthVerifier","type":"string"},{"internalType":"address","name":"owner","type":"address"},{"internalType":"function (struct TwitterAuthData.Response) external","name":"successCallback","type":"function"},{"internalType":"function (uint256,string) external","name":"failureCallback","type":"function"}],"name":"request","outputs":[{"internalType":"uint256","name":"","type":"uint256"}],"stateMutability":"payable","type":"function"},{"inputs":[{"internalType":"uint256","name":"_priceWEI","type":"uint256"}],"name":"setPriceETH","outputs":[],"stateMutability":"nonpayable","type":"function"},{"inputs":[{"internalType":"uint256","name":"id","type":"uint256"}],"name":"startProcessing","outputs":[],"stateMutability":"nonpayable","type":"function"},{"inputs":[{"internalType":"uint256","name":"id","type":"uint256"},{"internalType":"string","name":"screenName","type":"string"},{"internalType":"string","name":"userId","type":"string"}],"name":"succeeded","outputs":[],"stateMutability":"nonpayable","type":"function"},{"inputs":[{"internalType":"address","name":"newOwner","type":"address"}],"name":"transferOwnership","outputs":[],"stateMutability":"nonpayable","type":"function"}],"bytecode":"0x608060405234801561001057600080fd5b5061001a33610041565b6611c37937e0800060015561003c600460c8610091602090811b610d2317901c565b6100cd565b600080546001600160a01b038381166001600160a01b0319831681178455604051919092169283917f8be0079c531659141344cd1fd0a4f28419497f9722a3daafe3b4186f6b6457e09190a35050565b60018201805463ffffffff1916630100000060ff8416021790555b815460ff821611156100c9578154600101825560008290526100ac565b5050565b61183880620000dd6000396000f3fe60806040526004361061009c5760003560e01c8063954db88e11610064578063954db88e1461015657806399a752d714610176578063c1500a5714610196578063cb2859b1146101bd578063f176ea12146101de578063f2fde38b146101f457600080fd5b806317a8791d146100a157806326757b73146100c357806329fa50f9146100f9578063715018a6146101195780638da5cb5b1461012e575b600080fd5b3480156100ad57600080fd5b506100c16100bc3660046113f1565b610214565b005b3480156100cf57600080fd5b506100e36100de3660046113f1565b610308565b6040516100f091906115f2565b60405180910390f35b34801561010557600080fd5b506100c1610114366004611409565b610383565b34801561012557600080fd5b506100c16104a8565b34801561013a57600080fd5b506000546040516001600160a01b0390911681526020016100f0565b34801561016257600080fd5b506100c161017136600461144e565b6104de565b34801561018257600080fd5b506100c16101913660046113f1565b610634565b3480156101a257600080fd5b506101ab610663565b60405160ff90911681526020016100f0565b6101d06101cb366004611330565b610a38565b6040519081526020016100f0565b3480156101ea57600080fd5b506101d060015481565b34801561020057600080fd5b506100c161020f36600461130f565b610c88565b6000546001600160a01b031633146102475760405162461bcd60e51b815260040161023e90611551565b60405180910390fd5b600081815260026020526040902060050154600160c01b900460ff166001146102e45760405162461bcd60e51b815260206004820152604360248201527f5265717565737420776974682070726f7669646564206964206973206e6f742060448201527f696e2070656e64696e672073746174652c206f7220646f6573206e6f742065786064820152621a5cdd60ea1b608482015260a40161023e565b6000908152600260205260409020600501805460ff60c01b1916600160c11b179055565b610310611196565b6000546001600160a01b0316331461033a5760405162461bcd60e51b815260040161023e90611551565b600082815260026020526040902060050154600160c01b900460ff166103725760405162461bcd60e51b815260040161023e90611586565b61037b82610d5f565b90505b919050565b6000546001600160a01b031633146103ad5760405162461bcd60e51b815260040161023e90611551565b600082815260026020819052604090912060050154600160c01b900460ff16146103e95760405162461bcd60e51b815260040161023e90611586565b600082815260026020908152604090912060058101805460ff60c01b1916600160c21b1790558251610423926006909201918401906111d8565b5060008281526002602090815260409182902060050154915160e083901b6001600160e01b03191681529082901c6001600160a01b03169163ffffffff169061047290859085906004016116e1565b600060405180830381600087803b15801561048c57600080fd5b505af11580156104a0573d6000803e3d6000fd5b505050505050565b6000546001600160a01b031633146104d25760405162461bcd60e51b815260040161023e90611551565b6104dc6000610fb5565b565b6000546001600160a01b031633146105085760405162461bcd60e51b815260040161023e90611551565b600083815260026020819052604090912060050154600160c01b900460ff16146105445760405162461bcd60e51b815260040161023e90611586565b610578604051806080016040528060008152602001606081526020016060815260200160006001600160a01b031681525090565b838152602080820184905260408083018490526000868152600280845282822080546001600160a01b0390811660608801529289905290845260058101805460ff60c01b1916600360c01b179055600490810154925160e084901b6001600160e01b03191681529383901c9091169263ffffffff909216916105fc9185910161167c565b600060405180830381600087803b15801561061657600080fd5b505af115801561062a573d6000803e3d6000fd5b5050505050505050565b6000546001600160a01b0316331461065e5760405162461bcd60e51b815260040161023e90611551565b600155565b600080546001600160a01b0316331461068e5760405162461bcd60e51b815260040161023e90611551565b60008061069b6004611005565b915091506106e5604080516101008101825260008082526020820181905260609282018390528282018390526080820181905260a0820181905260c082015260e081019190915290565b6005546000906301000000900460ff1667ffffffffffffffff81111561071b57634e487b7160e01b600052604160045260246000fd5b604051908082528060200260200182016040528015610744578160200160208202803683370190505b50905060005b83156109f65760008581526002602081815260409283902083516101008101855281546001600160a01b031681526001820154928101929092529182018054919384019161079790611744565b80601f01602080910402602001604051908101604052809291908181526020018280546107c390611744565b80156108105780601f106107e557610100808354040283529160200191610810565b820191906000526020600020905b8154815290600101906020018083116107f357829003601f168201915b5050505050815260200160038201805461082990611744565b80601f016020809104026020016040519081016040528092919081815260200182805461085590611744565b80156108a25780601f10610877576101008083540402835291602001916108a2565b820191906000526020600020905b81548152906001019060200180831161088557829003601f168201915b5050509183525050600482015463ffffffff808216640100000000600160c01b0392831617604090811b6020850152600585015491821692821692909217821b91830191909152600160c01b900460ff16606082015260068201805460809092019161090d90611744565b80601f016020809104026020016040519081016040528092919081815260200182805461093990611744565b80156109865780601f1061095b57610100808354040283529160200191610986565b820191906000526020600020905b81548152906001019060200180831161096957829003601f168201915b50505050508152505092508260c0015160ff16600114156109e2578260200151828260ff16815181106109c957634e487b7160e01b600052603260045260246000fd5b6020908102919091010152806109de8161177f565b9150505b6109ec6004611005565b909550935061074a565b7f66cb254fb886e0d489510b04c89acde5be432fc7247b241872ad1fc23b55f4c18282604051610a27929190611503565b60405180910390a194505050505090565b60006001543414610a9b5760405162461bcd60e51b815260206004820152602760248201527f506c656173652073656e6420656e6f756768742045544820666f7220746865206044820152661c995c5d595cdd60ca1b606482015260840161023e565b604080516101008101825260008082526020820181905260609282018390528282018390526080820181905260a0820181905260c082015260e08101919091526000610ae660035490565b9050610af6600380546001019055565b60208281018281526001600160a01b038a8116855260408086018e8152606087018e905263ffffffff8b81168d871b17831b608089015289168a861b17821b60a0880152600160c0880181905260008781526002808852939020885181546001600160a01b03191695169490941784559351938301939093559151805186949293610b86939085019201906111d8565b5060608201518051610ba29160038401916020909101906111d8565b5060808201516004820180546001600160c01b03191663ffffffff604093841c818116640100000000600160c01b03918216179290921790925560a085015160058501805460c08801519290951c93841693909216929092176001600160c81b031990931692909217600160c01b60ff9092169190910217905560e08201518051610c379160068401916020909101906111d8565b50610c47915060049050826110c6565b506040518181527f1d5ba61d36a1cd5c3cd949b43386ae4e8c065fe019d3d727fdcf69249cde75be9060200160405180910390a19998505050505050505050565b6000546001600160a01b03163314610cb25760405162461bcd60e51b815260040161023e90611551565b6001600160a01b038116610d175760405162461bcd60e51b815260206004820152602660248201527f4f776e61626c653a206e6577206f776e657220697320746865207a65726f206160448201526564647265737360d01b606482015260840161023e565b610d2081610fb5565b50565b60018201805463ffffffff1916630100000060ff8416021790555b815460ff82161115610d5b57815460010182556000829052610d3e565b5050565b610d67611196565b6000546001600160a01b03163314610d915760405162461bcd60e51b815260040161023e90611551565b610d99611196565b6000838152600260208181526040832060018101548583015280546001600160a01b0316855292869052819052018054610dd290611744565b80601f0160208091040260200160405190810160405280929190818152602001828054610dfe90611744565b8015610e4b5780601f10610e2057610100808354040283529160200191610e4b565b820191906000526020600020905b815481529060010190602001808311610e2e57829003601f168201915b505050506040808401929092525060008481526002602052206003018054610e7290611744565b80601f0160208091040260200160405190810160405280929190818152602001828054610e9e90611744565b8015610eeb5780601f10610ec057610100808354040283529160200191610eeb565b820191906000526020600020905b815481529060010190602001808311610ece57829003601f168201915b50505050506060820152600083815260026020818152604083206005810154600160c01b900460ff16608086015292869052526006018054610f2c90611744565b80601f0160208091040260200160405190810160405280929190818152602001828054610f5890611744565b8015610fa55780601f10610f7a57610100808354040283529160200191610fa5565b820191906000526020600020905b815481529060010190602001808311610f8857829003601f168201915b505050505060a082015292915050565b600080546001600160a01b038381166001600160a01b0319831681178455604051919092169283917f8be0079c531659141344cd1fd0a4f28419497f9722a3daafe3b4186f6b6457e09190a35050565b6001810154600090819062010000900460ff16156110c15760018301548354849160ff1690811061104657634e487b7160e01b600052603260045260246000fd5b6000918252602090912001548354600180860154929450909161106e9160ff90911690611702565b60ff1661107b919061179f565b60018401805460ff191660ff928316178082556201000090049091169060026110a383611727565b91906101000a81548160ff021916908360ff16021790555050600190505b915091565b815460018301546000916201000090910460ff16101561119057600183015483548391859161010090910460ff1690811061111157634e487b7160e01b600052603260045260246000fd5b60009182526020909120015582546001808501546111389161010090910460ff1690611702565b60ff16611145919061179f565b60018401805461ff00191661010060ff93841602178082556201000090049091169060026111728361177f565b91906101000a81548160ff021916908360ff16021790555050600190505b92915050565b6040518060c0016040528060006001600160a01b03168152602001600081526020016060815260200160608152602001600060ff168152602001606081525090565b8280546111e490611744565b90600052602060002090601f016020900481019282611206576000855561124c565b82601f1061121f57805160ff191683800117855561124c565b8280016001018555821561124c579182015b8281111561124c578251825591602001919060010190611231565b5061125892915061125c565b5090565b5b80821115611258576000815560010161125d565b80356001600160a01b038116811461037e57600080fd5b600082601f830112611298578081fd5b813567ffffffffffffffff808211156112b3576112b36117d5565b604051601f8301601f19908116603f011681019082821181831017156112db576112db6117d5565b816040528381528660208588010111156112f3578485fd5b8360208701602083013792830160200193909352509392505050565b600060208284031215611320578081fd5b61132982611271565b9392505050565b600080600080600080600060a0888a03121561134a578283fd5b873567ffffffffffffffff80821115611361578485fd5b61136d8b838c01611288565b985060208a0135915080821115611382578485fd5b5061138f8a828b01611288565b96505061139e60408901611271565b945060608801356113ae816117eb565b606081901c945060401c63ffffffff16925060808801356113ce816117eb565b606081901c63ffffffff604083901c16989b979a50959850939692959293505050565b600060208284031215611402578081fd5b5035919050565b6000806040838503121561141b578182fd5b82359150602083013567ffffffffffffffff811115611438578182fd5b61144485828601611288565b9150509250929050565b600080600060608486031215611462578283fd5b83359250602084013567ffffffffffffffff80821115611480578384fd5b61148c87838801611288565b935060408601359150808211156114a1578283fd5b506114ae86828701611288565b9150509250925092565b60008151808452815b818110156114dd576020818501810151868301820152016114c1565b818111156114ee5782602083870101525b50601f01601f19169290920160200192915050565b604080825283519082018190526000906020906060840190828701845b8281101561153c57815184529284019290840190600101611520565b50505060ff9490941692019190915250919050565b6020808252818101527f4f776e61626c653a2063616c6c6572206973206e6f7420746865206f776e6572604082015260600190565b60208082526046908201527f5265717565737420776974682070726f7669646564206964206973206e6f742060408201527f696e2070726f63657373696e672073746174652c206f7220646f6573206e6f7460608201526508195e1a5cdd60d21b608082015260a00190565b6020815260018060a01b038251166020820152602082015160408201526000604083015160c0606084015261162a60e08401826114b8565b90506060840151601f198085840301608086015261164883836114b8565b925060ff60808701511660a086015260a08601519150808584030160c08601525061167382826114b8565b95945050505050565b602081528151602082015260006020830151608060408401526116a260a08401826114b8565b90506040840151601f198483030160608501526116bf82826114b8565b606095909501516001600160a01b031660809490940193909352509192915050565b8281526040602082015260006116fa60408301846114b8565b949350505050565b600060ff821660ff84168060ff0382111561171f5761171f6117bf565b019392505050565b600060ff82168061173a5761173a6117bf565b6000190192915050565b600181811c9082168061175857607f821691505b6020821081141561177957634e487b7160e01b600052602260045260246000fd5b50919050565b600060ff821660ff811415611796576117966117bf565b60010192915050565b6000826117ba57634e487b7160e01b81526012600452602481fd5b500690565b634e487b7160e01b600052601160045260246000fd5b634e487b7160e01b600052604160045260246000fd5b67ffffffffffffffff1981168114610d2057600080fdfea2646970667358221220d6909bb47d84ccb5a122d1435ff98956794178d15e1ba233759d4171dcaabb0f64736f6c63430008040033","linkReferences":{},"deployedLinkReferences":{}}