{"_format":"hh-sol-artifact-1","contractName":"OwnYourSocialNetwork","sourceName":"contracts/OwnYourSocialNetwork.sol","abi":[{"anonymous":false,"inputs":[{"indexed":true,"internalType":"address","name":"owner","type":"address"},{"indexed":true,"internalType":"address","name":"approved","type":"address"},{"indexed":true,"internalType":"uint256","name":"tokenId","type":"uint256"}],"name":"Approval","type":"event"},{"anonymous":false,"inputs":[{"indexed":true,"internalType":"address","name":"owner","type":"address"},{"indexed":true,"internalType":"address","name":"operator","type":"address"},{"indexed":false,"internalType":"bool","name":"approved","type":"bool"}],"name":"ApprovalForAll","type":"event"},{"anonymous":false,"inputs":[{"indexed":true,"internalType":"bytes32","name":"role","type":"bytes32"},{"indexed":true,"internalType":"bytes32","name":"previousAdminRole","type":"bytes32"},{"indexed":true,"internalType":"bytes32","name":"newAdminRole","type":"bytes32"}],"name":"RoleAdminChanged","type":"event"},{"anonymous":false,"inputs":[{"indexed":true,"internalType":"bytes32","name":"role","type":"bytes32"},{"indexed":true,"internalType":"address","name":"account","type":"address"},{"indexed":true,"internalType":"address","name":"sender","type":"address"}],"name":"RoleGranted","type":"event"},{"anonymous":false,"inputs":[{"indexed":true,"internalType":"bytes32","name":"role","type":"bytes32"},{"indexed":true,"internalType":"address","name":"account","type":"address"},{"indexed":true,"internalType":"address","name":"sender","type":"address"}],"name":"RoleRevoked","type":"event"},{"anonymous":false,"inputs":[{"indexed":true,"internalType":"address","name":"from","type":"address"},{"indexed":true,"internalType":"address","name":"to","type":"address"},{"indexed":true,"internalType":"uint256","name":"tokenId","type":"uint256"}],"name":"Transfer","type":"event"},{"inputs":[],"name":"DEFAULT_ADMIN_ROLE","outputs":[{"internalType":"bytes32","name":"","type":"bytes32"}],"stateMutability":"view","type":"function"},{"inputs":[],"name":"MINTER_ROLE","outputs":[{"internalType":"bytes32","name":"","type":"bytes32"}],"stateMutability":"view","type":"function"},{"inputs":[],"name":"PAUSER_ROLE","outputs":[{"internalType":"bytes32","name":"","type":"bytes32"}],"stateMutability":"view","type":"function"},{"inputs":[{"internalType":"string","name":"name","type":"string"},{"internalType":"string","name":"symbol","type":"string"}],"name":"__OwnYourSocialNetwork__init","outputs":[],"stateMutability":"nonpayable","type":"function"},{"inputs":[{"internalType":"address","name":"to","type":"address"},{"internalType":"uint256","name":"tokenId","type":"uint256"}],"name":"approve","outputs":[],"stateMutability":"nonpayable","type":"function"},{"inputs":[{"internalType":"address","name":"owner","type":"address"}],"name":"balanceOf","outputs":[{"internalType":"uint256","name":"","type":"uint256"}],"stateMutability":"view","type":"function"},{"inputs":[{"internalType":"uint256","name":"tokenId","type":"uint256"}],"name":"burn","outputs":[],"stateMutability":"nonpayable","type":"function"},{"inputs":[{"internalType":"uint256","name":"tokenId","type":"uint256"}],"name":"getApproved","outputs":[{"internalType":"address","name":"","type":"address"}],"stateMutability":"view","type":"function"},{"inputs":[{"internalType":"string","name":"gen_sn_id","type":"string"}],"name":"getOwnedAccountByGenSnId","outputs":[{"components":[{"internalType":"uint256","name":"id","type":"uint256"},{"internalType":"address","name":"owner","type":"address"},{"internalType":"string","name":"sn_name","type":"string"},{"internalType":"string","name":"sn_id","type":"string"},{"internalType":"string","name":"sn_url","type":"string"}],"internalType":"struct OwnedAccount.data","name":"","type":"tuple"}],"stateMutability":"view","type":"function"},{"inputs":[{"internalType":"uint256","name":"token_id","type":"uint256"}],"name":"getOwnedAccountByToken","outputs":[{"components":[{"internalType":"uint256","name":"id","type":"uint256"},{"internalType":"address","name":"owner","type":"address"},{"internalType":"string","name":"sn_name","type":"string"},{"internalType":"string","name":"sn_id","type":"string"},{"internalType":"string","name":"sn_url","type":"string"}],"internalType":"struct OwnedAccount.data","name":"","type":"tuple"}],"stateMutability":"view","type":"function"},{"inputs":[{"internalType":"bytes32","name":"role","type":"bytes32"}],"name":"getRoleAdmin","outputs":[{"internalType":"bytes32","name":"","type":"bytes32"}],"stateMutability":"view","type":"function"},{"inputs":[{"internalType":"bytes32","name":"role","type":"bytes32"},{"internalType":"uint256","name":"index","type":"uint256"}],"name":"getRoleMember","outputs":[{"internalType":"address","name":"","type":"address"}],"stateMutability":"view","type":"function"},{"inputs":[{"internalType":"bytes32","name":"role","type":"bytes32"}],"name":"getRoleMemberCount","outputs":[{"internalType":"uint256","name":"","type":"uint256"}],"stateMutability":"view","type":"function"},{"inputs":[],"name":"getVersion","outputs":[{"internalType":"string","name":"","type":"string"}],"stateMutability":"pure","type":"function"},{"inputs":[{"internalType":"bytes32","name":"role","type":"bytes32"},{"internalType":"address","name":"account","type":"address"}],"name":"grantRole","outputs":[],"stateMutability":"nonpayable","type":"function"},{"inputs":[{"internalType":"bytes32","name":"role","type":"bytes32"},{"internalType":"address","name":"account","type":"address"}],"name":"hasRole","outputs":[{"internalType":"bool","name":"","type":"bool"}],"stateMutability":"view","type":"function"},{"inputs":[{"internalType":"string","name":"name","type":"string"},{"internalType":"string","name":"symbol","type":"string"}],"name":"initialize","outputs":[],"stateMutability":"nonpayable","type":"function"},{"inputs":[{"internalType":"address","name":"owner","type":"address"},{"internalType":"address","name":"operator","type":"address"}],"name":"isApprovedForAll","outputs":[{"internalType":"bool","name":"","type":"bool"}],"stateMutability":"view","type":"function"},{"inputs":[{"internalType":"string","name":"sn_name","type":"string"},{"internalType":"string","name":"sn_id","type":"string"},{"internalType":"string","name":"sn_url","type":"string"},{"internalType":"address","name":"to","type":"address"}],"name":"mint","outputs":[{"internalType":"uint256","name":"","type":"uint256"}],"stateMutability":"nonpayable","type":"function"},{"inputs":[{"internalType":"string","name":"oauthToken","type":"string"},{"internalType":"string","name":"oauthVerifier","type":"string"}],"name":"mintTwitter","outputs":[],"stateMutability":"payable","type":"function"},{"inputs":[],"name":"name","outputs":[{"internalType":"string","name":"","type":"string"}],"stateMutability":"view","type":"function"},{"inputs":[{"internalType":"uint256","name":"tokenId","type":"uint256"}],"name":"ownerOf","outputs":[{"internalType":"address","name":"","type":"address"}],"stateMutability":"view","type":"function"},{"inputs":[{"internalType":"bytes32","name":"role","type":"bytes32"},{"internalType":"address","name":"account","type":"address"}],"name":"renounceRole","outputs":[],"stateMutability":"nonpayable","type":"function"},{"inputs":[{"internalType":"bytes32","name":"role","type":"bytes32"},{"internalType":"address","name":"account","type":"address"}],"name":"revokeRole","outputs":[],"stateMutability":"nonpayable","type":"function"},{"inputs":[{"internalType":"address","name":"from","type":"address"},{"internalType":"address","name":"to","type":"address"},{"internalType":"uint256","name":"tokenId","type":"uint256"}],"name":"safeTransferFrom","outputs":[],"stateMutability":"nonpayable","type":"function"},{"inputs":[{"internalType":"address","name":"from","type":"address"},{"internalType":"address","name":"to","type":"address"},{"internalType":"uint256","name":"tokenId","type":"uint256"},{"internalType":"bytes","name":"_data","type":"bytes"}],"name":"safeTransferFrom","outputs":[],"stateMutability":"nonpayable","type":"function"},{"inputs":[{"internalType":"address","name":"operator","type":"address"},{"internalType":"bool","name":"approved","type":"bool"}],"name":"setApprovalForAll","outputs":[],"stateMutability":"nonpayable","type":"function"},{"inputs":[{"internalType":"bytes4","name":"interfaceId","type":"bytes4"}],"name":"supportsInterface","outputs":[{"internalType":"bool","name":"","type":"bool"}],"stateMutability":"view","type":"function"},{"inputs":[],"name":"symbol","outputs":[{"internalType":"string","name":"","type":"string"}],"stateMutability":"view","type":"function"},{"inputs":[{"internalType":"uint256","name":"index","type":"uint256"}],"name":"tokenByIndex","outputs":[{"internalType":"uint256","name":"","type":"uint256"}],"stateMutability":"view","type":"function"},{"inputs":[{"internalType":"address","name":"owner","type":"address"},{"internalType":"uint256","name":"index","type":"uint256"}],"name":"tokenOfOwnerByIndex","outputs":[{"internalType":"uint256","name":"","type":"uint256"}],"stateMutability":"view","type":"function"},{"inputs":[{"internalType":"uint256","name":"tokenId","type":"uint256"}],"name":"tokenURI","outputs":[{"internalType":"string","name":"","type":"string"}],"stateMutability":"view","type":"function"},{"inputs":[],"name":"totalSupply","outputs":[{"internalType":"uint256","name":"","type":"uint256"}],"stateMutability":"view","type":"function"},{"inputs":[{"internalType":"address","name":"from","type":"address"},{"internalType":"address","name":"to","type":"address"},{"internalType":"uint256","name":"tokenId","type":"uint256"}],"name":"transferFrom","outputs":[],"stateMutability":"nonpayable","type":"function"},{"inputs":[],"name":"twitterMinter","outputs":[{"internalType":"contract TwitterMinter","name":"","type":"address"}],"stateMutability":"view","type":"function"},{"inputs":[{"internalType":"address","name":"twitterMinterAddress","type":"address"}],"name":"updateTwitterMinterAddress","outputs":[],"stateMutability":"nonpayable","type":"function"}],"bytecode":"0x608060405234801561001057600080fd5b5061346d806100206000396000f3fe60806040526004361061020f5760003560e01c806370a0823111610118578063b88d4fde116100a0578063d547741f1161006f578063d547741f1461060f578063e38f87a31461062f578063e63ab1e91461064f578063e985e9c514610683578063f9751b28146106cc57600080fd5b8063b88d4fde1461058d578063c87b56dd146105ad578063ca15c873146105cd578063d5391393146105ed57600080fd5b806395d89b41116100e757806395d89b41146105165780639ea8705e14610443578063a217fddf1461052b578063a22cb46514610540578063a56e0f1b1461056057600080fd5b806370a08231146104a35780638e8876b1146104c35780639010d07c146104d657806391d14854146104f657600080fd5b80632f2ff15d1161019b57806342842e0e1161016a57806342842e0e1461040357806342966c68146104235780634cd88b76146104435780634f6ccce7146104635780636352211e1461048357600080fd5b80632f2ff15d146103825780632f745c59146103a257806336568abe146103c25780633f4acc32146103e257600080fd5b80630d8e6e2c116101e25780630d8e6e2c146102c557806318160ddd146102f357806323b872dd14610312578063248a9ca3146103325780632aedc3f91461036257600080fd5b806301ffc9a71461021457806306fdde0314610249578063081812fc1461026b578063095ea7b3146102a3575b600080fd5b34801561022057600080fd5b5061023461022f366004612c92565b6106ec565b60405190151581526020015b60405180910390f35b34801561025557600080fd5b5061025e6106fd565b6040516102409190612f79565b34801561027757600080fd5b5061028b610286366004612c37565b61078f565b6040516001600160a01b039091168152602001610240565b3480156102af57600080fd5b506102c36102be366004612c0e565b61081c565b005b3480156102d157600080fd5b50604080518082019091526005815264312e302e3160d81b602082015261025e565b3480156102ff57600080fd5b5060fd545b604051908152602001610240565b34801561031e57600080fd5b506102c361032d366004612b20565b610932565b34801561033e57600080fd5b5061030461034d366004612c37565b60009081526065602052604090206001015490565b34801561036e57600080fd5b5061030461037d366004612d5e565b610964565b34801561038e57600080fd5b506102c361039d366004612c4f565b610aee565b3480156103ae57600080fd5b506103046103bd366004612c0e565b610b10565b3480156103ce57600080fd5b506102c36103dd366004612c4f565b610ba6565b3480156103ee57600080fd5b506101925461028b906001600160a01b031681565b34801561040f57600080fd5b506102c361041e366004612b20565b610bc8565b34801561042f57600080fd5b506102c361043e366004612c37565b610be3565b34801561044f57600080fd5b506102c361045e366004612cfd565b610c5d565b34801561046f57600080fd5b5061030461047e366004612c37565b610cd4565b34801561048f57600080fd5b5061028b61049e366004612c37565b610d75565b3480156104af57600080fd5b506103046104be366004612ad4565b610dec565b6102c36104d1366004612cfd565b610e73565b3480156104e257600080fd5b5061028b6104f1366004612c71565b610eea565b34801561050257600080fd5b50610234610511366004612c4f565b610f09565b34801561052257600080fd5b5061025e610f34565b34801561053757600080fd5b50610304600081565b34801561054c57600080fd5b506102c361055b366004612bd4565b610f43565b34801561056c57600080fd5b5061058061057b366004612c37565b611008565b60405161024091906130d1565b34801561059957600080fd5b506102c36105a8366004612b5b565b61128f565b3480156105b957600080fd5b5061025e6105c8366004612c37565b6112c7565b3480156105d957600080fd5b506103046105e8366004612c37565b611365565b3480156105f957600080fd5b5061030460008051602061341883398151915281565b34801561061b57600080fd5b506102c361062a366004612c4f565b61137c565b34801561063b57600080fd5b5061058061064a366004612cca565b611386565b34801561065b57600080fd5b506103047f65d7a28e3265b37a6474929f336521b332c1681b933f6cb9f3376673440d862a81565b34801561068f57600080fd5b5061023461069e366004612aee565b6001600160a01b03918216600090815260ce6020908152604080832093909416825291909152205460ff1690565b3480156106d857600080fd5b506102c36106e7366004612ad4565b611492565b60006106f78261157b565b92915050565b606060c9805461070c90613369565b80601f016020809104026020016040519081016040528092919081815260200182805461073890613369565b80156107855780601f1061075a57610100808354040283529160200191610785565b820191906000526020600020905b81548152906001019060200180831161076857829003601f168201915b5050505050905090565b600061079a826115a0565b6108005760405162461bcd60e51b815260206004820152602c60248201527f4552433732313a20617070726f76656420717565727920666f72206e6f6e657860448201526b34b9ba32b73a103a37b5b2b760a11b60648201526084015b60405180910390fd5b50600090815260cd60205260409020546001600160a01b031690565b600061082782610d75565b9050806001600160a01b0316836001600160a01b031614156108955760405162461bcd60e51b815260206004820152602160248201527f4552433732313a20617070726f76616c20746f2063757272656e74206f776e656044820152603960f91b60648201526084016107f7565b336001600160a01b03821614806108b157506108b1813361069e565b6109235760405162461bcd60e51b815260206004820152603860248201527f4552433732313a20617070726f76652063616c6c6572206973206e6f74206f7760448201527f6e6572206e6f7220617070726f76656420666f7220616c6c000000000000000060648201526084016107f7565b61092d83836115bd565b505050565b61093d335b8261162b565b6109595760405162461bcd60e51b81526004016107f790613080565b61092d838383611711565b600080858560405160200161097a929190612e3b565b60405160208183030381529060405290506109b36101908260405161099f9190612e1f565b9081526020016040518091039020546115a0565b15610a1d5760405162461bcd60e51b815260206004820152603460248201527f4f776e596f7572536f6369616c4e6574776f726b3a20546865206163636f756e6044820152731d081dd85cc8185b1c9958591e481b5a5b9d195960621b60648201526084016107f7565b6000610a28846118bc565b6000818152610191602090815260409091208281556001810180546001600160a01b0319166001600160a01b0389161790558951929350610a71926002909101918a0190612957565b506000818152610191602090815260409091208751610a9892600390920191890190612957565b506000818152610191602090815260409091208651610abf92600490920191880190612957565b508061019083604051610ad29190612e1f565b908152604051908190036020019020559150505b949350505050565b610af8828261194d565b600082815260976020526040902061092d9082611973565b6000610b1b83610dec565b8210610b7d5760405162461bcd60e51b815260206004820152602b60248201527f455243373231456e756d657261626c653a206f776e657220696e646578206f7560448201526a74206f6620626f756e647360a81b60648201526084016107f7565b506001600160a01b0391909116600090815260fb60209081526040808320938352929052205490565b610bb08282611988565b600082815260976020526040902061092d9082611a06565b61092d8383836040518060200160405280600081525061128f565b610bec33610937565b610c515760405162461bcd60e51b815260206004820152603060248201527f4552433732314275726e61626c653a2063616c6c6572206973206e6f74206f7760448201526f1b995c881b9bdc88185c1c1c9bdd995960821b60648201526084016107f7565b610c5a81611a1b565b50565b600054610100900460ff1680610c76575060005460ff16155b610c925760405162461bcd60e51b81526004016107f790613032565b600054610100900460ff16158015610cb4576000805461ffff19166101011790555b610cbe8383611ac2565b801561092d576000805461ff0019169055505050565b6000610cdf60fd5490565b8210610d425760405162461bcd60e51b815260206004820152602c60248201527f455243373231456e756d657261626c653a20676c6f62616c20696e646578206f60448201526b7574206f6620626f756e647360a01b60648201526084016107f7565b60fd8281548110610d6357634e487b7160e01b600052603260045260246000fd5b90600052602060002001549050919050565b600081815260cb60205260408120546001600160a01b0316806106f75760405162461bcd60e51b815260206004820152602960248201527f4552433732313a206f776e657220717565727920666f72206e6f6e657869737460448201526832b73a103a37b5b2b760b91b60648201526084016107f7565b60006001600160a01b038216610e575760405162461bcd60e51b815260206004820152602a60248201527f4552433732313a2062616c616e636520717565727920666f7220746865207a65604482015269726f206164647265737360b01b60648201526084016107f7565b506001600160a01b0316600090815260cc602052604090205490565b610192546001600160a01b03166329b1164f348484336040516001600160e01b031960e087901b168152610eb4939291903090632aedc3f990600401612f8c565b6000604051808303818588803b158015610ecd57600080fd5b505af1158015610ee1573d6000803e3d6000fd5b50505050505050565b6000828152609760205260408120610f029083611b5b565b9392505050565b60009182526065602090815260408084206001600160a01b0393909316845291905290205460ff1690565b606060ca805461070c90613369565b6001600160a01b038216331415610f9c5760405162461bcd60e51b815260206004820152601960248201527f4552433732313a20617070726f766520746f2063616c6c65720000000000000060448201526064016107f7565b33600081815260ce602090815260408083206001600160a01b03871680855290835292819020805460ff191686151590811790915590519081529192917f17307eab39ab6107e8899845ad3d59bd9653f200f220920489ca2b5937696c31910160405180910390a35050565b6110106129db565b611019826115a0565b6110975760405162461bcd60e51b815260206004820152604360248201527f4f776e596f7572536f6369616c4e6574776f726b3a20476574206f776e65642060448201527f6163636f756e7420717565727920666f72206e6f6e6578697374656e7420746f60648201526235b2b760e91b608482015260a4016107f7565b60008281526101916020908152604091829020825160a0810184528154815260018201546001600160a01b03169281019290925260028101805492939192918401916110e290613369565b80601f016020809104026020016040519081016040528092919081815260200182805461110e90613369565b801561115b5780601f106111305761010080835404028352916020019161115b565b820191906000526020600020905b81548152906001019060200180831161113e57829003601f168201915b5050505050815260200160038201805461117490613369565b80601f01602080910402602001604051908101604052809291908181526020018280546111a090613369565b80156111ed5780601f106111c2576101008083540402835291602001916111ed565b820191906000526020600020905b8154815290600101906020018083116111d057829003601f168201915b5050505050815260200160048201805461120690613369565b80601f016020809104026020016040519081016040528092919081815260200182805461123290613369565b801561127f5780601f106112545761010080835404028352916020019161127f565b820191906000526020600020905b81548152906001019060200180831161126257829003601f168201915b5050505050815250509050919050565b611299338361162b565b6112b55760405162461bcd60e51b81526004016107f790613080565b6112c184848484611b67565b50505050565b60606112d2826115a0565b6113365760405162461bcd60e51b815260206004820152602f60248201527f4552433732314d657461646174613a2055524920717565727920666f72206e6f60448201526e3732bc34b9ba32b73a103a37b5b2b760891b60648201526084016107f7565b50506040805180820190915260138152721393d508125354131153515395115108165155606a1b602082015290565b60008181526097602052604081206106f790611b9a565b610bb08282611ba4565b61138e6129db565b6113a26101908360405161099f9190612e1f565b61140b5760405162461bcd60e51b815260206004820152603460248201527f4f776e596f7572536f6369616c4e6574776f726b3a20546865206163636f756e6044820152731d081dd85cc81b9bdd081e595d081b5a5b9d195960621b60648201526084016107f7565b6101916000610190846040516114219190612e1f565b90815260200160405180910390205481526020019081526020016000206040518060a0016040529081600082015481526020016001820160009054906101000a90046001600160a01b03166001600160a01b03166001600160a01b031681526020016002820180546110e290613369565b61149d600033610f09565b6115215760405162461bcd60e51b815260206004820152604960248201527f4f776e596f7572536f6369616c4e6574776f726b3a206d75737420686176652060448201527f6d696e74657220726f6c6520746f20757064617465547769747465724d696e7460648201526865724164647265737360b81b608482015260a4016107f7565b6101925461154790600080516020613418833981519152906001600160a01b031661137c565b61019280546001600160a01b0319166001600160a01b038316179055610c5a60008051602061341883398151915282611bca565b60006001600160e01b0319821663780e9d6360e01b14806106f757506106f782611bd4565b600090815260cb60205260409020546001600160a01b0316151590565b600081815260cd6020526040902080546001600160a01b0319166001600160a01b03841690811790915581906115f282610d75565b6001600160a01b03167f8c5be1e5ebec7d5bd14f71427d1e84f3dd0314c0f7b2291e5b200ac8c7c3b92560405160405180910390a45050565b6000611636826115a0565b6116975760405162461bcd60e51b815260206004820152602c60248201527f4552433732313a206f70657261746f7220717565727920666f72206e6f6e657860448201526b34b9ba32b73a103a37b5b2b760a11b60648201526084016107f7565b60006116a283610d75565b9050806001600160a01b0316846001600160a01b031614806116dd5750836001600160a01b03166116d28461078f565b6001600160a01b0316145b80610ae657506001600160a01b03808216600090815260ce602090815260408083209388168352929052205460ff16610ae6565b826001600160a01b031661172482610d75565b6001600160a01b03161461178c5760405162461bcd60e51b815260206004820152602960248201527f4552433732313a207472616e73666572206f6620746f6b656e2074686174206960448201526839903737ba1037bbb760b91b60648201526084016107f7565b6001600160a01b0382166117ee5760405162461bcd60e51b8152602060048201526024808201527f4552433732313a207472616e7366657220746f20746865207a65726f206164646044820152637265737360e01b60648201526084016107f7565b6117f9838383611c14565b6118046000826115bd565b6001600160a01b038316600090815260cc6020526040812080546001929061182d9084906132ec565b90915550506001600160a01b038216600090815260cc6020526040812080546001929061185b90849061314e565b9091555050600081815260cb602052604080822080546001600160a01b0319166001600160a01b0386811691821790925591518493918716917fddf252ad1be2c89b69c2b068fc378daa952ba7f163c4a11628f55a4df523b3ef91a4505050565b60006118d660008051602061341883398151915233610f09565b6118df33611c1f565b6040516020016118ef9190612e6a565b6040516020818303038152906040529061191c5760405162461bcd60e51b81526004016107f79190612f79565b50600061192961015f5490565b905061193e8361193961015f5490565b611d82565b6106f761015f80546001019055565b6000828152606560205260409020600101546119698133611ec1565b61092d8383611f25565b6000610f02836001600160a01b038416611fab565b6001600160a01b03811633146119f85760405162461bcd60e51b815260206004820152602f60248201527f416363657373436f6e74726f6c3a2063616e206f6e6c792072656e6f756e636560448201526e103937b632b9903337b91039b2b63360891b60648201526084016107f7565b611a028282611ffa565b5050565b6000610f02836001600160a01b038416612061565b6000611a2682610d75565b9050611a3481600084611c14565b611a3f6000836115bd565b6001600160a01b038116600090815260cc60205260408120805460019290611a689084906132ec565b9091555050600082815260cb602052604080822080546001600160a01b0319169055518391906001600160a01b038416907fddf252ad1be2c89b69c2b068fc378daa952ba7f163c4a11628f55a4df523b3ef908390a45050565b600054610100900460ff1680611adb575060005460ff16155b611af75760405162461bcd60e51b81526004016107f790613032565b600054610100900460ff16158015611b19576000805461ffff19166101011790555b611b2161217e565b611b2961217e565b611b3161217e565b611b3961217e565b611b4383836121e9565b611b4b61217e565b611b5361217e565b610cbe61227e565b6000610f028383612322565b611b72848484611711565b611b7e8484848461235a565b6112c15760405162461bcd60e51b81526004016107f790612fe0565b60006106f7825490565b600082815260656020526040902060010154611bc08133611ec1565b61092d8383611ffa565b610af88282612464565b60006001600160e01b031982166380ac58cd60e01b1480611c0557506001600160e01b03198216635b5e139f60e01b145b806106f757506106f78261246e565b61092d838383612493565b60408051602880825260608281019093526000919060208201818036833701905050905060005b6014811015611d7b576000611c5c8260136132ec565b611c679060086132ac565b611c72906002613204565b611c85906001600160a01b03871661318b565b60f81b9050600060108260f81c611c9c919061319f565b60f81b905060008160f81c6010611cb391906132cb565b8360f81c611cc19190613303565b60f81b9050611ccf8261254b565b85611cdb8660026132ac565b81518110611cf957634e487b7160e01b600052603260045260246000fd5b60200101906001600160f81b031916908160001a905350611d198161254b565b85611d258660026132ac565b611d3090600161314e565b81518110611d4e57634e487b7160e01b600052603260045260246000fd5b60200101906001600160f81b031916908160001a9053505050508080611d73906133a4565b915050611c46565b5092915050565b6001600160a01b038216611dd85760405162461bcd60e51b815260206004820181905260248201527f4552433732313a206d696e7420746f20746865207a65726f206164647265737360448201526064016107f7565b611de1816115a0565b15611e2e5760405162461bcd60e51b815260206004820152601c60248201527f4552433732313a20746f6b656e20616c7265616479206d696e7465640000000060448201526064016107f7565b611e3a60008383611c14565b6001600160a01b038216600090815260cc60205260408120805460019290611e6390849061314e565b9091555050600081815260cb602052604080822080546001600160a01b0319166001600160a01b03861690811790915590518392907fddf252ad1be2c89b69c2b068fc378daa952ba7f163c4a11628f55a4df523b3ef908290a45050565b611ecb8282610f09565b611a0257611ee3816001600160a01b03166014612586565b611eee836020612586565b604051602001611eff929190612ec7565b60408051601f198184030181529082905262461bcd60e51b82526107f791600401612f79565b611f2f8282610f09565b611a025760008281526065602090815260408083206001600160a01b03851684529091529020805460ff19166001179055611f673390565b6001600160a01b0316816001600160a01b0316837f2f8788117e7eff1d82e926ec794901d17c78024a50270940304540a733656f0d60405160405180910390a45050565b6000818152600183016020526040812054611ff2575081546001818101845560008481526020808220909301849055845484825282860190935260409020919091556106f7565b5060006106f7565b6120048282610f09565b15611a025760008281526065602090815260408083206001600160a01b0385168085529252808320805460ff1916905551339285917ff6391f5c32d9c69d2a47ea670b442974b53935d1edc7fd64eb21e047a839171b9190a45050565b600081815260018301602052604081205480156121745760006120856001836132ec565b8554909150600090612099906001906132ec565b905081811461211a5760008660000182815481106120c757634e487b7160e01b600052603260045260246000fd5b90600052602060002001549050808760000184815481106120f857634e487b7160e01b600052603260045260246000fd5b6000918252602080832090910192909255918252600188019052604090208390555b855486908061213957634e487b7160e01b600052603160045260246000fd5b6001900381819060005260206000200160009055905585600101600086815260200190815260200160002060009055600193505050506106f7565b60009150506106f7565b600054610100900460ff1680612197575060005460ff16155b6121b35760405162461bcd60e51b81526004016107f790613032565b600054610100900460ff161580156121d5576000805461ffff19166101011790555b8015610c5a576000805461ff001916905550565b600054610100900460ff1680612202575060005460ff16155b61221e5760405162461bcd60e51b81526004016107f790613032565b600054610100900460ff16158015612240576000805461ffff19166101011790555b82516122539060c9906020860190612957565b5081516122679060ca906020850190612957565b50801561092d576000805461ff0019169055505050565b600054610100900460ff1680612297575060005460ff16155b6122b35760405162461bcd60e51b81526004016107f790613032565b600054610100900460ff161580156122d5576000805461ffff19166101011790555b6122e0600033611bca565b6122f860008051602061341883398151915233611bca565b6121d57f65d7a28e3265b37a6474929f336521b332c1681b933f6cb9f3376673440d862a33611bca565b600082600001828154811061234757634e487b7160e01b600052603260045260246000fd5b9060005260206000200154905092915050565b60006001600160a01b0384163b1561245c57604051630a85bd0160e11b81526001600160a01b0385169063150b7a029061239e903390899088908890600401612f3c565b602060405180830381600087803b1580156123b857600080fd5b505af19250505080156123e8575060408051601f3d908101601f191682019092526123e591810190612cae565b60015b612442573d808015612416576040519150601f19603f3d011682016040523d82523d6000602084013e61241b565b606091505b50805161243a5760405162461bcd60e51b81526004016107f790612fe0565b805181602001fd5b6001600160e01b031916630a85bd0160e11b149050610ae6565b506001610ae6565b611a028282611f25565b60006001600160e01b03198216635a05180f60e01b14806106f757506106f782612768565b6001600160a01b0383166124ee576124e98160fd8054600083815260fe60205260408120829055600182018355919091527f9346ac6dd7de6b96975fec380d4d994c4c12e6a8897544f22915316cc6cca2800155565b612511565b816001600160a01b0316836001600160a01b03161461251157612511838261279d565b6001600160a01b0382166125285761092d8161283a565b826001600160a01b0316826001600160a01b03161461092d5761092d8282612913565b6000600a60f883901c10156125725761256960f883901c6030613166565b60f81b92915050565b61256960f883901c6057613166565b919050565b606060006125958360026132ac565b6125a090600261314e565b67ffffffffffffffff8111156125c657634e487b7160e01b600052604160045260246000fd5b6040519080825280601f01601f1916602001820160405280156125f0576020820181803683370190505b509050600360fc1b8160008151811061261957634e487b7160e01b600052603260045260246000fd5b60200101906001600160f81b031916908160001a905350600f60fb1b8160018151811061265657634e487b7160e01b600052603260045260246000fd5b60200101906001600160f81b031916908160001a905350600061267a8460026132ac565b61268590600161314e565b90505b6001811115612719576f181899199a1a9b1b9c1cb0b131b232b360811b85600f16601081106126c757634e487b7160e01b600052603260045260246000fd5b1a60f81b8282815181106126eb57634e487b7160e01b600052603260045260246000fd5b60200101906001600160f81b031916908160001a90535060049490941c9361271281613352565b9050612688565b508315610f025760405162461bcd60e51b815260206004820181905260248201527f537472696e67733a20686578206c656e67746820696e73756666696369656e7460448201526064016107f7565b60006001600160e01b03198216637965db0b60e01b14806106f757506301ffc9a760e01b6001600160e01b03198316146106f7565b600060016127aa84610dec565b6127b491906132ec565b600083815260fc6020526040902054909150808214612807576001600160a01b038416600090815260fb60209081526040808320858452825280832054848452818420819055835260fc90915290208190555b50600091825260fc602090815260408084208490556001600160a01b03909416835260fb81528383209183525290812055565b60fd5460009061284c906001906132ec565b600083815260fe602052604081205460fd805493945090928490811061288257634e487b7160e01b600052603260045260246000fd5b906000526020600020015490508060fd83815481106128b157634e487b7160e01b600052603260045260246000fd5b600091825260208083209091019290925582815260fe909152604080822084905585825281205560fd8054806128f757634e487b7160e01b600052603160045260246000fd5b6001900381819060005260206000200160009055905550505050565b600061291e83610dec565b6001600160a01b03909316600090815260fb60209081526040808320868452825280832085905593825260fc9052919091209190915550565b82805461296390613369565b90600052602060002090601f01602090048101928261298557600085556129cb565b82601f1061299e57805160ff19168380011785556129cb565b828001600101855582156129cb579182015b828111156129cb5782518255916020019190600101906129b0565b506129d7929150612a13565b5090565b6040518060a001604052806000815260200160006001600160a01b031681526020016060815260200160608152602001606081525090565b5b808211156129d75760008155600101612a14565b600067ffffffffffffffff80841115612a4357612a436133eb565b604051601f8501601f19908116603f01168101908282118183101715612a6b57612a6b6133eb565b81604052809350858152868686011115612a8457600080fd5b858560208301376000602087830101525050509392505050565b80356001600160a01b038116811461258157600080fd5b600082601f830112612ac5578081fd5b610f0283833560208501612a28565b600060208284031215612ae5578081fd5b610f0282612a9e565b60008060408385031215612b00578081fd5b612b0983612a9e565b9150612b1760208401612a9e565b90509250929050565b600080600060608486031215612b34578081fd5b612b3d84612a9e565b9250612b4b60208501612a9e565b9150604084013590509250925092565b60008060008060808587031215612b70578081fd5b612b7985612a9e565b9350612b8760208601612a9e565b925060408501359150606085013567ffffffffffffffff811115612ba9578182fd5b8501601f81018713612bb9578182fd5b612bc887823560208401612a28565b91505092959194509250565b60008060408385031215612be6578182fd5b612bef83612a9e565b915060208301358015158114612c03578182fd5b809150509250929050565b60008060408385031215612c20578182fd5b612c2983612a9e565b946020939093013593505050565b600060208284031215612c48578081fd5b5035919050565b60008060408385031215612c61578182fd5b82359150612b1760208401612a9e565b60008060408385031215612c83578182fd5b50508035926020909101359150565b600060208284031215612ca3578081fd5b8135610f0281613401565b600060208284031215612cbf578081fd5b8151610f0281613401565b600060208284031215612cdb578081fd5b813567ffffffffffffffff811115612cf1578182fd5b610ae684828501612ab5565b60008060408385031215612d0f578182fd5b823567ffffffffffffffff80821115612d26578384fd5b612d3286838701612ab5565b93506020850135915080821115612d47578283fd5b50612d5485828601612ab5565b9150509250929050565b60008060008060808587031215612d73578182fd5b843567ffffffffffffffff80821115612d8a578384fd5b612d9688838901612ab5565b95506020870135915080821115612dab578384fd5b612db788838901612ab5565b94506040870135915080821115612dcc578384fd5b50612dd987828801612ab5565b925050612de860608601612a9e565b905092959194509250565b60008151808452612e0b816020860160208601613326565b601f01601f19169290920160200192915050565b60008251612e31818460208701613326565b9190910192915050565b60008351612e4d818460208801613326565b835190830190612e61818360208801613326565b01949350505050565b6d022a9219b9918a1bab9ba37b69d160951b815260008251612e9381600e850160208701613326565b7f206d7573742068617665206d696e74657220726f6c6520746f206d696e740000600e939091019283015250602c01919050565b7f416363657373436f6e74726f6c3a206163636f756e7420000000000000000000815260008351612eff816017850160208801613326565b7001034b99036b4b9b9b4b733903937b6329607d1b6017918401918201528351612f30816028840160208801613326565b01602801949350505050565b6001600160a01b0385811682528416602082015260408101839052608060608201819052600090612f6f90830184612df3565b9695505050505050565b602081526000610f026020830184612df3565b608081526000612f9f6080830188612df3565b8281036020840152612fb18188612df3565b91505060018060a01b038516604083015263ffffffff83168460201b1760401b60608301529695505050505050565b60208082526032908201527f4552433732313a207472616e7366657220746f206e6f6e20455243373231526560408201527131b2b4bb32b91034b6b83632b6b2b73a32b960711b606082015260800190565b6020808252602e908201527f496e697469616c697a61626c653a20636f6e747261637420697320616c72656160408201526d191e481a5b9a5d1a585b1a5e995960921b606082015260800190565b60208082526031908201527f4552433732313a207472616e736665722063616c6c6572206973206e6f74206f6040820152701ddb995c881b9bdc88185c1c1c9bdd9959607a1b606082015260800190565b602081528151602082015260018060a01b0360208301511660408201526000604083015160a0606084015261310960c0840182612df3565b90506060840151601f19808584030160808601526131278383612df3565b925060808601519150808584030160a0860152506131458282612df3565b95945050505050565b60008219821115613161576131616133bf565b500190565b600060ff821660ff84168060ff03821115613183576131836133bf565b019392505050565b60008261319a5761319a6133d5565b500490565b600060ff8316806131b2576131b26133d5565b8060ff84160491505092915050565b600181815b808511156131fc5781600019048211156131e2576131e26133bf565b808516156131ef57918102915b93841c93908002906131c6565b509250929050565b6000610f02838360008261321a575060016106f7565b81613227575060006106f7565b816001811461323d576002811461324757613263565b60019150506106f7565b60ff841115613258576132586133bf565b50506001821b6106f7565b5060208310610133831016604e8410600b8410161715613286575081810a6106f7565b61329083836131c1565b80600019048211156132a4576132a46133bf565b029392505050565b60008160001904831182151516156132c6576132c66133bf565b500290565b600060ff821660ff84168160ff04811182151516156132a4576132a46133bf565b6000828210156132fe576132fe6133bf565b500390565b600060ff821660ff84168082101561331d5761331d6133bf565b90039392505050565b60005b83811015613341578181015183820152602001613329565b838111156112c15750506000910152565b600081613361576133616133bf565b506000190190565b600181811c9082168061337d57607f821691505b6020821081141561339e57634e487b7160e01b600052602260045260246000fd5b50919050565b60006000198214156133b8576133b86133bf565b5060010190565b634e487b7160e01b600052601160045260246000fd5b634e487b7160e01b600052601260045260246000fd5b634e487b7160e01b600052604160045260246000fd5b6001600160e01b031981168114610c5a57600080fdfe9f2df0fed2c77648de5860a4cc508cd0818c85b8b8a1ab4ceeef8d981c8956a6a2646970667358221220bb6d68635bd199adc8422ea171543b8023fc854de58e578c6082cf4c27d5aa1964736f6c63430008040033","linkReferences":{},"deployedLinkReferences":{}}