{"_format":"hh-sol-artifact-1","contractName":"OwnYourSocialNetwork","sourceName":"contracts/OwnYourSocialNetwork.sol","abi":[{"anonymous":false,"inputs":[{"indexed":true,"internalType":"address","name":"owner","type":"address"},{"indexed":true,"internalType":"address","name":"approved","type":"address"},{"indexed":true,"internalType":"uint256","name":"tokenId","type":"uint256"}],"name":"Approval","type":"event"},{"anonymous":false,"inputs":[{"indexed":true,"internalType":"address","name":"owner","type":"address"},{"indexed":true,"internalType":"address","name":"operator","type":"address"},{"indexed":false,"internalType":"bool","name":"approved","type":"bool"}],"name":"ApprovalForAll","type":"event"},{"anonymous":false,"inputs":[{"indexed":true,"internalType":"bytes32","name":"role","type":"bytes32"},{"indexed":true,"internalType":"bytes32","name":"previousAdminRole","type":"bytes32"},{"indexed":true,"internalType":"bytes32","name":"newAdminRole","type":"bytes32"}],"name":"RoleAdminChanged","type":"event"},{"anonymous":false,"inputs":[{"indexed":true,"internalType":"bytes32","name":"role","type":"bytes32"},{"indexed":true,"internalType":"address","name":"account","type":"address"},{"indexed":true,"internalType":"address","name":"sender","type":"address"}],"name":"RoleGranted","type":"event"},{"anonymous":false,"inputs":[{"indexed":true,"internalType":"bytes32","name":"role","type":"bytes32"},{"indexed":true,"internalType":"address","name":"account","type":"address"},{"indexed":true,"internalType":"address","name":"sender","type":"address"}],"name":"RoleRevoked","type":"event"},{"anonymous":false,"inputs":[{"indexed":true,"internalType":"address","name":"from","type":"address"},{"indexed":true,"internalType":"address","name":"to","type":"address"},{"indexed":true,"internalType":"uint256","name":"tokenId","type":"uint256"}],"name":"Transfer","type":"event"},{"inputs":[],"name":"DEFAULT_ADMIN_ROLE","outputs":[{"internalType":"bytes32","name":"","type":"bytes32"}],"stateMutability":"view","type":"function"},{"inputs":[],"name":"MINTER_ROLE","outputs":[{"internalType":"bytes32","name":"","type":"bytes32"}],"stateMutability":"view","type":"function"},{"inputs":[],"name":"PAUSER_ROLE","outputs":[{"internalType":"bytes32","name":"","type":"bytes32"}],"stateMutability":"view","type":"function"},{"inputs":[{"internalType":"string","name":"name","type":"string"},{"internalType":"string","name":"symbol","type":"string"},{"internalType":"address","name":"twitterMinterAddress","type":"address"}],"name":"__OwnYourSocialNetwork__init","outputs":[],"stateMutability":"nonpayable","type":"function"},{"inputs":[{"internalType":"address","name":"to","type":"address"},{"internalType":"uint256","name":"tokenId","type":"uint256"}],"name":"approve","outputs":[],"stateMutability":"nonpayable","type":"function"},{"inputs":[{"internalType":"address","name":"owner","type":"address"}],"name":"balanceOf","outputs":[{"internalType":"uint256","name":"","type":"uint256"}],"stateMutability":"view","type":"function"},{"inputs":[{"internalType":"uint256","name":"tokenId","type":"uint256"}],"name":"burn","outputs":[],"stateMutability":"nonpayable","type":"function"},{"inputs":[{"internalType":"uint256","name":"tokenId","type":"uint256"}],"name":"getApproved","outputs":[{"internalType":"address","name":"","type":"address"}],"stateMutability":"view","type":"function"},{"inputs":[{"internalType":"string","name":"gen_sn_id","type":"string"}],"name":"getOwnedAccountByGenSnId","outputs":[{"components":[{"internalType":"uint256","name":"id","type":"uint256"},{"internalType":"address","name":"owner","type":"address"},{"internalType":"string","name":"sn_name","type":"string"},{"internalType":"string","name":"sn_id","type":"string"},{"internalType":"string","name":"sn_url","type":"string"}],"internalType":"struct OwnedAccount.data","name":"","type":"tuple"}],"stateMutability":"view","type":"function"},{"inputs":[{"internalType":"uint256","name":"token_id","type":"uint256"}],"name":"getOwnedAccountByToken","outputs":[{"components":[{"internalType":"uint256","name":"id","type":"uint256"},{"internalType":"address","name":"owner","type":"address"},{"internalType":"string","name":"sn_name","type":"string"},{"internalType":"string","name":"sn_id","type":"string"},{"internalType":"string","name":"sn_url","type":"string"}],"internalType":"struct OwnedAccount.data","name":"","type":"tuple"}],"stateMutability":"view","type":"function"},{"inputs":[{"internalType":"bytes32","name":"role","type":"bytes32"}],"name":"getRoleAdmin","outputs":[{"internalType":"bytes32","name":"","type":"bytes32"}],"stateMutability":"view","type":"function"},{"inputs":[{"internalType":"bytes32","name":"role","type":"bytes32"},{"internalType":"uint256","name":"index","type":"uint256"}],"name":"getRoleMember","outputs":[{"internalType":"address","name":"","type":"address"}],"stateMutability":"view","type":"function"},{"inputs":[{"internalType":"bytes32","name":"role","type":"bytes32"}],"name":"getRoleMemberCount","outputs":[{"internalType":"uint256","name":"","type":"uint256"}],"stateMutability":"view","type":"function"},{"inputs":[],"name":"getVersion","outputs":[{"internalType":"string","name":"","type":"string"}],"stateMutability":"pure","type":"function"},{"inputs":[{"internalType":"bytes32","name":"role","type":"bytes32"},{"internalType":"address","name":"account","type":"address"}],"name":"grantRole","outputs":[],"stateMutability":"nonpayable","type":"function"},{"inputs":[{"internalType":"bytes32","name":"role","type":"bytes32"},{"internalType":"address","name":"account","type":"address"}],"name":"hasRole","outputs":[{"internalType":"bool","name":"","type":"bool"}],"stateMutability":"view","type":"function"},{"inputs":[{"internalType":"string","name":"name","type":"string"},{"internalType":"string","name":"symbol","type":"string"}],"name":"initialize","outputs":[],"stateMutability":"nonpayable","type":"function"},{"inputs":[{"internalType":"address","name":"owner","type":"address"},{"internalType":"address","name":"operator","type":"address"}],"name":"isApprovedForAll","outputs":[{"internalType":"bool","name":"","type":"bool"}],"stateMutability":"view","type":"function"},{"inputs":[{"internalType":"string","name":"sn_name","type":"string"},{"internalType":"string","name":"sn_id","type":"string"},{"internalType":"string","name":"sn_url","type":"string"},{"internalType":"address","name":"to","type":"address"}],"name":"mint","outputs":[{"internalType":"uint256","name":"","type":"uint256"}],"stateMutability":"nonpayable","type":"function"},{"inputs":[{"internalType":"string","name":"oauthToken","type":"string"},{"internalType":"string","name":"oauthVerifier","type":"string"}],"name":"mintTwitter","outputs":[],"stateMutability":"payable","type":"function"},{"inputs":[],"name":"name","outputs":[{"internalType":"string","name":"","type":"string"}],"stateMutability":"view","type":"function"},{"inputs":[{"internalType":"uint256","name":"tokenId","type":"uint256"}],"name":"ownerOf","outputs":[{"internalType":"address","name":"","type":"address"}],"stateMutability":"view","type":"function"},{"inputs":[{"internalType":"bytes32","name":"role","type":"bytes32"},{"internalType":"address","name":"account","type":"address"}],"name":"renounceRole","outputs":[],"stateMutability":"nonpayable","type":"function"},{"inputs":[{"internalType":"bytes32","name":"role","type":"bytes32"},{"internalType":"address","name":"account","type":"address"}],"name":"revokeRole","outputs":[],"stateMutability":"nonpayable","type":"function"},{"inputs":[{"internalType":"address","name":"from","type":"address"},{"internalType":"address","name":"to","type":"address"},{"internalType":"uint256","name":"tokenId","type":"uint256"}],"name":"safeTransferFrom","outputs":[],"stateMutability":"nonpayable","type":"function"},{"inputs":[{"internalType":"address","name":"from","type":"address"},{"internalType":"address","name":"to","type":"address"},{"internalType":"uint256","name":"tokenId","type":"uint256"},{"internalType":"bytes","name":"_data","type":"bytes"}],"name":"safeTransferFrom","outputs":[],"stateMutability":"nonpayable","type":"function"},{"inputs":[{"internalType":"address","name":"operator","type":"address"},{"internalType":"bool","name":"approved","type":"bool"}],"name":"setApprovalForAll","outputs":[],"stateMutability":"nonpayable","type":"function"},{"inputs":[{"internalType":"bytes4","name":"interfaceId","type":"bytes4"}],"name":"supportsInterface","outputs":[{"internalType":"bool","name":"","type":"bool"}],"stateMutability":"view","type":"function"},{"inputs":[],"name":"symbol","outputs":[{"internalType":"string","name":"","type":"string"}],"stateMutability":"view","type":"function"},{"inputs":[{"internalType":"uint256","name":"index","type":"uint256"}],"name":"tokenByIndex","outputs":[{"internalType":"uint256","name":"","type":"uint256"}],"stateMutability":"view","type":"function"},{"inputs":[{"internalType":"address","name":"owner","type":"address"},{"internalType":"uint256","name":"index","type":"uint256"}],"name":"tokenOfOwnerByIndex","outputs":[{"internalType":"uint256","name":"","type":"uint256"}],"stateMutability":"view","type":"function"},{"inputs":[{"internalType":"uint256","name":"tokenId","type":"uint256"}],"name":"tokenURI","outputs":[{"internalType":"string","name":"","type":"string"}],"stateMutability":"view","type":"function"},{"inputs":[],"name":"totalSupply","outputs":[{"internalType":"uint256","name":"","type":"uint256"}],"stateMutability":"view","type":"function"},{"inputs":[{"internalType":"address","name":"from","type":"address"},{"internalType":"address","name":"to","type":"address"},{"internalType":"uint256","name":"tokenId","type":"uint256"}],"name":"transferFrom","outputs":[],"stateMutability":"nonpayable","type":"function"},{"inputs":[],"name":"twitterMinter","outputs":[{"internalType":"contract TwitterMinter","name":"","type":"address"}],"stateMutability":"view","type":"function"}],"bytecode":"0x608060405234801561001057600080fd5b506130f7806100206000396000f3fe6080604052600436106102045760003560e01c8063581f0b3311610118578063a56e0f1b116100a0578063d53913931161006f578063d539139314610602578063d547741f14610636578063e38f87a314610656578063e63ab1e914610676578063e985e9c5146106aa57600080fd5b8063a56e0f1b14610575578063b88d4fde146105a2578063c87b56dd146105c2578063ca15c873146105e257600080fd5b80639010d07c116100e75780639010d07c146104eb57806391d148541461050b57806395d89b411461052b578063a217fddf14610540578063a22cb4651461055557600080fd5b8063581f0b33146104785780636352211e1461049857806370a08231146104b85780638e8876b1146104d857600080fd5b80632aedc3f91161019b5780633f4acc321161016a5780633f4acc32146103d757806342842e0e146103f857806342966c68146104185780634cd88b76146104385780634f6ccce71461045857600080fd5b80632aedc3f9146103575780632f2ff15d146103775780632f745c591461039757806336568abe146103b757600080fd5b80630d8e6e2c116101d75780630d8e6e2c146102ba57806318160ddd146102e857806323b872dd14610307578063248a9ca31461032757600080fd5b806301ffc9a71461020957806306fdde031461023e578063081812fc14610260578063095ea7b314610298575b600080fd5b34801561021557600080fd5b50610229610224366004612ae3565b6106f3565b60405190151581526020015b60405180910390f35b34801561024a57600080fd5b50610253610704565b6040516102359190612dde565b34801561026c57600080fd5b5061028061027b366004612a88565b610796565b6040516001600160a01b039091168152602001610235565b3480156102a457600080fd5b506102b86102b3366004612a5f565b610823565b005b3480156102c657600080fd5b506040805180820190915260058152640312e302e360dc1b6020820152610253565b3480156102f457600080fd5b5060fd545b604051908152602001610235565b34801561031357600080fd5b506102b8610322366004612971565b610939565b34801561033357600080fd5b506102f9610342366004612a88565b60009081526065602052604090206001015490565b34801561036357600080fd5b506102f9610372366004612c20565b61096b565b34801561038357600080fd5b506102b8610392366004612aa0565b610af5565b3480156103a357600080fd5b506102f96103b2366004612a5f565b610b17565b3480156103c357600080fd5b506102b86103d2366004612aa0565b610bad565b3480156103e357600080fd5b5061019254610280906001600160a01b031681565b34801561040457600080fd5b506102b8610413366004612971565b610bcf565b34801561042457600080fd5b506102b8610433366004612a88565b610bea565b34801561044457600080fd5b506102b8610453366004612b4e565b610c64565b34801561046457600080fd5b506102f9610473366004612a88565b610cdb565b34801561048457600080fd5b506102b8610493366004612baf565b610d7c565b3480156104a457600080fd5b506102806104b3366004612a88565b610e11565b3480156104c457600080fd5b506102f96104d3366004612925565b610e88565b6102b86104e6366004612b4e565b610f0f565b3480156104f757600080fd5b50610280610506366004612ac2565b610f86565b34801561051757600080fd5b50610229610526366004612aa0565b610fa5565b34801561053757600080fd5b50610253610fd0565b34801561054c57600080fd5b506102f9600081565b34801561056157600080fd5b506102b8610570366004612a25565b610fdf565b34801561058157600080fd5b50610595610590366004612a88565b6110a4565b6040516102359190612f36565b3480156105ae57600080fd5b506102b86105bd3660046129ac565b61132b565b3480156105ce57600080fd5b506102536105dd366004612a88565b61135d565b3480156105ee57600080fd5b506102f96105fd366004612a88565b6113fb565b34801561060e57600080fd5b506102f97f9f2df0fed2c77648de5860a4cc508cd0818c85b8b8a1ab4ceeef8d981c8956a681565b34801561064257600080fd5b506102b8610651366004612aa0565b611412565b34801561066257600080fd5b50610595610671366004612b1b565b61141c565b34801561068257600080fd5b506102f97f65d7a28e3265b37a6474929f336521b332c1681b933f6cb9f3376673440d862a81565b3480156106b657600080fd5b506102296106c536600461293f565b6001600160a01b03918216600090815260ce6020908152604080832093909416825291909152205460ff1690565b60006106fe82611528565b92915050565b606060c9805461071390613044565b80601f016020809104026020016040519081016040528092919081815260200182805461073f90613044565b801561078c5780601f106107615761010080835404028352916020019161078c565b820191906000526020600020905b81548152906001019060200180831161076f57829003601f168201915b5050505050905090565b60006107a18261154d565b6108075760405162461bcd60e51b815260206004820152602c60248201527f4552433732313a20617070726f76656420717565727920666f72206e6f6e657860448201526b34b9ba32b73a103a37b5b2b760a11b60648201526084015b60405180910390fd5b50600090815260cd60205260409020546001600160a01b031690565b600061082e82610e11565b9050806001600160a01b0316836001600160a01b0316141561089c5760405162461bcd60e51b815260206004820152602160248201527f4552433732313a20617070726f76616c20746f2063757272656e74206f776e656044820152603960f91b60648201526084016107fe565b336001600160a01b03821614806108b857506108b881336106c5565b61092a5760405162461bcd60e51b815260206004820152603860248201527f4552433732313a20617070726f76652063616c6c6572206973206e6f74206f7760448201527f6e6572206e6f7220617070726f76656420666f7220616c6c000000000000000060648201526084016107fe565b610934838361156a565b505050565b610944335b826115d8565b6109605760405162461bcd60e51b81526004016107fe90612ee5565b6109348383836116be565b6000808585604051602001610981929190612cfd565b60405160208183030381529060405290506109ba610190826040516109a69190612ce1565b90815260200160405180910390205461154d565b15610a245760405162461bcd60e51b815260206004820152603460248201527f4f776e596f7572536f6369616c4e6574776f726b3a20546865206163636f756e6044820152731d081dd85cc8185b1c9958591e481b5a5b9d195960621b60648201526084016107fe565b6000610a2f84611869565b6000818152610191602090815260409091208281556001810180546001600160a01b0319166001600160a01b0389161790558951929350610a78926002909101918a01906127a3565b506000818152610191602090815260409091208751610a9f926003909201918901906127a3565b506000818152610191602090815260409091208651610ac6926004909201918801906127a3565b508061019083604051610ad99190612ce1565b908152604051908190036020019020559150505b949350505050565b610aff8282611925565b6000828152609760205260409020610934908261194b565b6000610b2283610e88565b8210610b845760405162461bcd60e51b815260206004820152602b60248201527f455243373231456e756d657261626c653a206f776e657220696e646578206f7560448201526a74206f6620626f756e647360a81b60648201526084016107fe565b506001600160a01b0391909116600090815260fb60209081526040808320938352929052205490565b610bb78282611960565b600082815260976020526040902061093490826119de565b6109348383836040518060200160405280600081525061132b565b610bf33361093e565b610c585760405162461bcd60e51b815260206004820152603060248201527f4552433732314275726e61626c653a2063616c6c6572206973206e6f74206f7760448201526f1b995c881b9bdc88185c1c1c9bdd995960821b60648201526084016107fe565b610c61816119f3565b50565b600054610100900460ff1680610c7d575060005460ff16155b610c995760405162461bcd60e51b81526004016107fe90612e97565b600054610100900460ff16158015610cbb576000805461ffff19166101011790555b610cc58383611a9a565b8015610934576000805461ff0019169055505050565b6000610ce660fd5490565b8210610d495760405162461bcd60e51b815260206004820152602c60248201527f455243373231456e756d657261626c653a20676c6f62616c20696e646578206f60448201526b7574206f6620626f756e647360a01b60648201526084016107fe565b60fd8281548110610d6a57634e487b7160e01b600052603260045260246000fd5b90600052602060002001549050919050565b600054610100900460ff1680610d95575060005460ff16155b610db15760405162461bcd60e51b81526004016107fe90612e97565b600054610100900460ff16158015610dd3576000805461ffff19166101011790555b610ddd8484611a9a565b61019280546001600160a01b0319166001600160a01b0384161790558015610e0b576000805461ff00191690555b50505050565b600081815260cb60205260408120546001600160a01b0316806106fe5760405162461bcd60e51b815260206004820152602960248201527f4552433732313a206f776e657220717565727920666f72206e6f6e657869737460448201526832b73a103a37b5b2b760b91b60648201526084016107fe565b60006001600160a01b038216610ef35760405162461bcd60e51b815260206004820152602a60248201527f4552433732313a2062616c616e636520717565727920666f7220746865207a65604482015269726f206164647265737360b01b60648201526084016107fe565b506001600160a01b0316600090815260cc602052604090205490565b610192546001600160a01b03166329b1164f348484336040516001600160e01b031960e087901b168152610f50939291903090632aedc3f990600401612df1565b6000604051808303818588803b158015610f6957600080fd5b505af1158015610f7d573d6000803e3d6000fd5b50505050505050565b6000828152609760205260408120610f9e9083611b33565b9392505050565b60009182526065602090815260408084206001600160a01b0393909316845291905290205460ff1690565b606060ca805461071390613044565b6001600160a01b0382163314156110385760405162461bcd60e51b815260206004820152601960248201527f4552433732313a20617070726f766520746f2063616c6c65720000000000000060448201526064016107fe565b33600081815260ce602090815260408083206001600160a01b03871680855290835292819020805460ff191686151590811790915590519081529192917f17307eab39ab6107e8899845ad3d59bd9653f200f220920489ca2b5937696c31910160405180910390a35050565b6110ac612827565b6110b58261154d565b6111335760405162461bcd60e51b815260206004820152604360248201527f4f776e596f7572536f6369616c4e6574776f726b3a20476574206f776e65642060448201527f6163636f756e7420717565727920666f72206e6f6e6578697374656e7420746f60648201526235b2b760e91b608482015260a4016107fe565b60008281526101916020908152604091829020825160a0810184528154815260018201546001600160a01b031692810192909252600281018054929391929184019161117e90613044565b80601f01602080910402602001604051908101604052809291908181526020018280546111aa90613044565b80156111f75780601f106111cc576101008083540402835291602001916111f7565b820191906000526020600020905b8154815290600101906020018083116111da57829003601f168201915b5050505050815260200160038201805461121090613044565b80601f016020809104026020016040519081016040528092919081815260200182805461123c90613044565b80156112895780601f1061125e57610100808354040283529160200191611289565b820191906000526020600020905b81548152906001019060200180831161126c57829003601f168201915b505050505081526020016004820180546112a290613044565b80601f01602080910402602001604051908101604052809291908181526020018280546112ce90613044565b801561131b5780601f106112f05761010080835404028352916020019161131b565b820191906000526020600020905b8154815290600101906020018083116112fe57829003601f168201915b5050505050815250509050919050565b61133533836115d8565b6113515760405162461bcd60e51b81526004016107fe90612ee5565b610e0b84848484611b3f565b60606113688261154d565b6113cc5760405162461bcd60e51b815260206004820152602f60248201527f4552433732314d657461646174613a2055524920717565727920666f72206e6f60448201526e3732bc34b9ba32b73a103a37b5b2b760891b60648201526084016107fe565b50506040805180820190915260138152721393d508125354131153515395115108165155606a1b602082015290565b60008181526097602052604081206106fe90611b72565b610bb78282611b7c565b611424612827565b611438610190836040516109a69190612ce1565b6114a15760405162461bcd60e51b815260206004820152603460248201527f4f776e596f7572536f6369616c4e6574776f726b3a20546865206163636f756e6044820152731d081dd85cc81b9bdd081e595d081b5a5b9d195960621b60648201526084016107fe565b6101916000610190846040516114b79190612ce1565b90815260200160405180910390205481526020019081526020016000206040518060a0016040529081600082015481526020016001820160009054906101000a90046001600160a01b03166001600160a01b03166001600160a01b0316815260200160028201805461117e90613044565b60006001600160e01b0319821663780e9d6360e01b14806106fe57506106fe82611ba2565b600090815260cb60205260409020546001600160a01b0316151590565b600081815260cd6020526040902080546001600160a01b0319166001600160a01b038416908117909155819061159f82610e11565b6001600160a01b03167f8c5be1e5ebec7d5bd14f71427d1e84f3dd0314c0f7b2291e5b200ac8c7c3b92560405160405180910390a45050565b60006115e38261154d565b6116445760405162461bcd60e51b815260206004820152602c60248201527f4552433732313a206f70657261746f7220717565727920666f72206e6f6e657860448201526b34b9ba32b73a103a37b5b2b760a11b60648201526084016107fe565b600061164f83610e11565b9050806001600160a01b0316846001600160a01b0316148061168a5750836001600160a01b031661167f84610796565b6001600160a01b0316145b80610aed57506001600160a01b03808216600090815260ce602090815260408083209388168352929052205460ff16610aed565b826001600160a01b03166116d182610e11565b6001600160a01b0316146117395760405162461bcd60e51b815260206004820152602960248201527f4552433732313a207472616e73666572206f6620746f6b656e2074686174206960448201526839903737ba1037bbb760b91b60648201526084016107fe565b6001600160a01b03821661179b5760405162461bcd60e51b8152602060048201526024808201527f4552433732313a207472616e7366657220746f20746865207a65726f206164646044820152637265737360e01b60648201526084016107fe565b6117a6838383611be2565b6117b160008261156a565b6001600160a01b038316600090815260cc602052604081208054600192906117da908490612fea565b90915550506001600160a01b038216600090815260cc60205260408120805460019290611808908490612fb3565b9091555050600081815260cb602052604080822080546001600160a01b0319166001600160a01b0386811691821790925591518493918716917fddf252ad1be2c89b69c2b068fc378daa952ba7f163c4a11628f55a4df523b3ef91a4505050565b60006118957f9f2df0fed2c77648de5860a4cc508cd0818c85b8b8a1ab4ceeef8d981c8956a633610fa5565b6118f55760405162461bcd60e51b815260206004820152602b60248201527f455243373231437573746f6d3a206d7573742068617665206d696e746572207260448201526a1bdb19481d1bc81b5a5b9d60aa1b60648201526084016107fe565b600061190161015f5490565b90506119168361191161015f5490565b611bed565b6106fe61015f80546001019055565b6000828152606560205260409020600101546119418133611d2c565b6109348383611d90565b6000610f9e836001600160a01b038416611e16565b6001600160a01b03811633146119d05760405162461bcd60e51b815260206004820152602f60248201527f416363657373436f6e74726f6c3a2063616e206f6e6c792072656e6f756e636560448201526e103937b632b9903337b91039b2b63360891b60648201526084016107fe565b6119da8282611e65565b5050565b6000610f9e836001600160a01b038416611ecc565b60006119fe82610e11565b9050611a0c81600084611be2565b611a1760008361156a565b6001600160a01b038116600090815260cc60205260408120805460019290611a40908490612fea565b9091555050600082815260cb602052604080822080546001600160a01b0319169055518391906001600160a01b038416907fddf252ad1be2c89b69c2b068fc378daa952ba7f163c4a11628f55a4df523b3ef908390a45050565b600054610100900460ff1680611ab3575060005460ff16155b611acf5760405162461bcd60e51b81526004016107fe90612e97565b600054610100900460ff16158015611af1576000805461ffff19166101011790555b611af9611fe9565b611b01611fe9565b611b09611fe9565b611b11611fe9565b611b1b8383612054565b611b23611fe9565b611b2b611fe9565b610cc56120e9565b6000610f9e838361219f565b611b4a8484846116be565b611b56848484846121d7565b610e0b5760405162461bcd60e51b81526004016107fe90612e45565b60006106fe825490565b600082815260656020526040902060010154611b988133611d2c565b6109348383611e65565b60006001600160e01b031982166380ac58cd60e01b1480611bd357506001600160e01b03198216635b5e139f60e01b145b806106fe57506106fe826122e1565b610934838383612306565b6001600160a01b038216611c435760405162461bcd60e51b815260206004820181905260248201527f4552433732313a206d696e7420746f20746865207a65726f206164647265737360448201526064016107fe565b611c4c8161154d565b15611c995760405162461bcd60e51b815260206004820152601c60248201527f4552433732313a20746f6b656e20616c7265616479206d696e7465640000000060448201526064016107fe565b611ca560008383611be2565b6001600160a01b038216600090815260cc60205260408120805460019290611cce908490612fb3565b9091555050600081815260cb602052604080822080546001600160a01b0319166001600160a01b03861690811790915590518392907fddf252ad1be2c89b69c2b068fc378daa952ba7f163c4a11628f55a4df523b3ef908290a45050565b611d368282610fa5565b6119da57611d4e816001600160a01b031660146123be565b611d598360206123be565b604051602001611d6a929190612d2c565b60408051601f198184030181529082905262461bcd60e51b82526107fe91600401612dde565b611d9a8282610fa5565b6119da5760008281526065602090815260408083206001600160a01b03851684529091529020805460ff19166001179055611dd23390565b6001600160a01b0316816001600160a01b0316837f2f8788117e7eff1d82e926ec794901d17c78024a50270940304540a733656f0d60405160405180910390a45050565b6000818152600183016020526040812054611e5d575081546001818101845560008481526020808220909301849055845484825282860190935260409020919091556106fe565b5060006106fe565b611e6f8282610fa5565b156119da5760008281526065602090815260408083206001600160a01b0385168085529252808320805460ff1916905551339285917ff6391f5c32d9c69d2a47ea670b442974b53935d1edc7fd64eb21e047a839171b9190a45050565b60008181526001830160205260408120548015611fdf576000611ef0600183612fea565b8554909150600090611f0490600190612fea565b9050818114611f85576000866000018281548110611f3257634e487b7160e01b600052603260045260246000fd5b9060005260206000200154905080876000018481548110611f6357634e487b7160e01b600052603260045260246000fd5b6000918252602080832090910192909255918252600188019052604090208390555b8554869080611fa457634e487b7160e01b600052603160045260246000fd5b6001900381819060005260206000200160009055905585600101600086815260200190815260200160002060009055600193505050506106fe565b60009150506106fe565b600054610100900460ff1680612002575060005460ff16155b61201e5760405162461bcd60e51b81526004016107fe90612e97565b600054610100900460ff16158015612040576000805461ffff19166101011790555b8015610c61576000805461ff001916905550565b600054610100900460ff168061206d575060005460ff16155b6120895760405162461bcd60e51b81526004016107fe90612e97565b600054610100900460ff161580156120ab576000805461ffff19166101011790555b82516120be9060c99060208601906127a3565b5081516120d29060ca9060208501906127a3565b508015610934576000805461ff0019169055505050565b600054610100900460ff1680612102575060005460ff16155b61211e5760405162461bcd60e51b81526004016107fe90612e97565b600054610100900460ff16158015612140576000805461ffff19166101011790555b61214b6000336125a0565b6121757f9f2df0fed2c77648de5860a4cc508cd0818c85b8b8a1ab4ceeef8d981c8956a6336125a0565b6120407f65d7a28e3265b37a6474929f336521b332c1681b933f6cb9f3376673440d862a336125a0565b60008260000182815481106121c457634e487b7160e01b600052603260045260246000fd5b9060005260206000200154905092915050565b60006001600160a01b0384163b156122d957604051630a85bd0160e11b81526001600160a01b0385169063150b7a029061221b903390899088908890600401612da1565b602060405180830381600087803b15801561223557600080fd5b505af1925050508015612265575060408051601f3d908101601f1916820190925261226291810190612aff565b60015b6122bf573d808015612293576040519150601f19603f3d011682016040523d82523d6000602084013e612298565b606091505b5080516122b75760405162461bcd60e51b81526004016107fe90612e45565b805181602001fd5b6001600160e01b031916630a85bd0160e11b149050610aed565b506001610aed565b60006001600160e01b03198216635a05180f60e01b14806106fe57506106fe826125aa565b6001600160a01b0383166123615761235c8160fd8054600083815260fe60205260408120829055600182018355919091527f9346ac6dd7de6b96975fec380d4d994c4c12e6a8897544f22915316cc6cca2800155565b612384565b816001600160a01b0316836001600160a01b0316146123845761238483826125df565b6001600160a01b03821661239b576109348161267c565b826001600160a01b0316826001600160a01b031614610934576109348282612755565b606060006123cd836002612fcb565b6123d8906002612fb3565b67ffffffffffffffff8111156123fe57634e487b7160e01b600052604160045260246000fd5b6040519080825280601f01601f191660200182016040528015612428576020820181803683370190505b509050600360fc1b8160008151811061245157634e487b7160e01b600052603260045260246000fd5b60200101906001600160f81b031916908160001a905350600f60fb1b8160018151811061248e57634e487b7160e01b600052603260045260246000fd5b60200101906001600160f81b031916908160001a90535060006124b2846002612fcb565b6124bd906001612fb3565b90505b6001811115612551576f181899199a1a9b1b9c1cb0b131b232b360811b85600f16601081106124ff57634e487b7160e01b600052603260045260246000fd5b1a60f81b82828151811061252357634e487b7160e01b600052603260045260246000fd5b60200101906001600160f81b031916908160001a90535060049490941c9361254a8161302d565b90506124c0565b508315610f9e5760405162461bcd60e51b815260206004820181905260248201527f537472696e67733a20686578206c656e67746820696e73756666696369656e7460448201526064016107fe565b610aff8282612799565b60006001600160e01b03198216637965db0b60e01b14806106fe57506301ffc9a760e01b6001600160e01b03198316146106fe565b600060016125ec84610e88565b6125f69190612fea565b600083815260fc6020526040902054909150808214612649576001600160a01b038416600090815260fb60209081526040808320858452825280832054848452818420819055835260fc90915290208190555b50600091825260fc602090815260408084208490556001600160a01b03909416835260fb81528383209183525290812055565b60fd5460009061268e90600190612fea565b600083815260fe602052604081205460fd80549394509092849081106126c457634e487b7160e01b600052603260045260246000fd5b906000526020600020015490508060fd83815481106126f357634e487b7160e01b600052603260045260246000fd5b600091825260208083209091019290925582815260fe909152604080822084905585825281205560fd80548061273957634e487b7160e01b600052603160045260246000fd5b6001900381819060005260206000200160009055905550505050565b600061276083610e88565b6001600160a01b03909316600090815260fb60209081526040808320868452825280832085905593825260fc9052919091209190915550565b6119da8282611d90565b8280546127af90613044565b90600052602060002090601f0160209004810192826127d15760008555612817565b82601f106127ea57805160ff1916838001178555612817565b82800160010185558215612817579182015b828111156128175782518255916020019190600101906127fc565b5061282392915061285f565b5090565b6040518060a001604052806000815260200160006001600160a01b031681526020016060815260200160608152602001606081525090565b5b808211156128235760008155600101612860565b600067ffffffffffffffff8084111561288f5761288f613095565b604051601f8501601f19908116603f011681019082821181831017156128b7576128b7613095565b816040528093508581528686860111156128d057600080fd5b858560208301376000602087830101525050509392505050565b80356001600160a01b038116811461290157600080fd5b919050565b600082601f830112612916578081fd5b610f9e83833560208501612874565b600060208284031215612936578081fd5b610f9e826128ea565b60008060408385031215612951578081fd5b61295a836128ea565b9150612968602084016128ea565b90509250929050565b600080600060608486031215612985578081fd5b61298e846128ea565b925061299c602085016128ea565b9150604084013590509250925092565b600080600080608085870312156129c1578081fd5b6129ca856128ea565b93506129d8602086016128ea565b925060408501359150606085013567ffffffffffffffff8111156129fa578182fd5b8501601f81018713612a0a578182fd5b612a1987823560208401612874565b91505092959194509250565b60008060408385031215612a37578182fd5b612a40836128ea565b915060208301358015158114612a54578182fd5b809150509250929050565b60008060408385031215612a71578182fd5b612a7a836128ea565b946020939093013593505050565b600060208284031215612a99578081fd5b5035919050565b60008060408385031215612ab2578182fd5b82359150612968602084016128ea565b60008060408385031215612ad4578182fd5b50508035926020909101359150565b600060208284031215612af4578081fd5b8135610f9e816130ab565b600060208284031215612b10578081fd5b8151610f9e816130ab565b600060208284031215612b2c578081fd5b813567ffffffffffffffff811115612b42578182fd5b610aed84828501612906565b60008060408385031215612b60578182fd5b823567ffffffffffffffff80821115612b77578384fd5b612b8386838701612906565b93506020850135915080821115612b98578283fd5b50612ba585828601612906565b9150509250929050565b600080600060608486031215612bc3578081fd5b833567ffffffffffffffff80821115612bda578283fd5b612be687838801612906565b94506020860135915080821115612bfb578283fd5b50612c0886828701612906565b925050612c17604085016128ea565b90509250925092565b60008060008060808587031215612c35578182fd5b843567ffffffffffffffff80821115612c4c578384fd5b612c5888838901612906565b95506020870135915080821115612c6d578384fd5b612c7988838901612906565b94506040870135915080821115612c8e578384fd5b50612c9b87828801612906565b925050612caa606086016128ea565b905092959194509250565b60008151808452612ccd816020860160208601613001565b601f01601f19169290920160200192915050565b60008251612cf3818460208701613001565b9190910192915050565b60008351612d0f818460208801613001565b835190830190612d23818360208801613001565b01949350505050565b7f416363657373436f6e74726f6c3a206163636f756e7420000000000000000000815260008351612d64816017850160208801613001565b7001034b99036b4b9b9b4b733903937b6329607d1b6017918401918201528351612d95816028840160208801613001565b01602801949350505050565b6001600160a01b0385811682528416602082015260408101839052608060608201819052600090612dd490830184612cb5565b9695505050505050565b602081526000610f9e6020830184612cb5565b608081526000612e046080830188612cb5565b8281036020840152612e168188612cb5565b91505060018060a01b038516604083015263ffffffff83168460201b1760401b60608301529695505050505050565b60208082526032908201527f4552433732313a207472616e7366657220746f206e6f6e20455243373231526560408201527131b2b4bb32b91034b6b83632b6b2b73a32b960711b606082015260800190565b6020808252602e908201527f496e697469616c697a61626c653a20636f6e747261637420697320616c72656160408201526d191e481a5b9a5d1a585b1a5e995960921b606082015260800190565b60208082526031908201527f4552433732313a207472616e736665722063616c6c6572206973206e6f74206f6040820152701ddb995c881b9bdc88185c1c1c9bdd9959607a1b606082015260800190565b602081528151602082015260018060a01b0360208301511660408201526000604083015160a06060840152612f6e60c0840182612cb5565b90506060840151601f1980858403016080860152612f8c8383612cb5565b925060808601519150808584030160a086015250612faa8282612cb5565b95945050505050565b60008219821115612fc657612fc661307f565b500190565b6000816000190483118215151615612fe557612fe561307f565b500290565b600082821015612ffc57612ffc61307f565b500390565b60005b8381101561301c578181015183820152602001613004565b83811115610e0b5750506000910152565b60008161303c5761303c61307f565b506000190190565b600181811c9082168061305857607f821691505b6020821081141561307957634e487b7160e01b600052602260045260246000fd5b50919050565b634e487b7160e01b600052601160045260246000fd5b634e487b7160e01b600052604160045260246000fd5b6001600160e01b031981168114610c6157600080fdfea26469706673582212201ecf97ed825a093c827f391301c80cd563d4dcb4b7e202f04d3068e6aa41669064736f6c63430008040033","linkReferences":{},"deployedLinkReferences":{}}