{"_format":"hh-sol-artifact-1","contractName":"OwnYourSocialNetwork","sourceName":"contracts/OwnYourSocialNetwork.sol","abi":[{"anonymous":false,"inputs":[{"indexed":true,"internalType":"address","name":"owner","type":"address"},{"indexed":true,"internalType":"address","name":"approved","type":"address"},{"indexed":true,"internalType":"uint256","name":"tokenId","type":"uint256"}],"name":"Approval","type":"event"},{"anonymous":false,"inputs":[{"indexed":true,"internalType":"address","name":"owner","type":"address"},{"indexed":true,"internalType":"address","name":"operator","type":"address"},{"indexed":false,"internalType":"bool","name":"approved","type":"bool"}],"name":"ApprovalForAll","type":"event"},{"anonymous":false,"inputs":[{"indexed":true,"internalType":"bytes32","name":"role","type":"bytes32"},{"indexed":true,"internalType":"bytes32","name":"previousAdminRole","type":"bytes32"},{"indexed":true,"internalType":"bytes32","name":"newAdminRole","type":"bytes32"}],"name":"RoleAdminChanged","type":"event"},{"anonymous":false,"inputs":[{"indexed":true,"internalType":"bytes32","name":"role","type":"bytes32"},{"indexed":true,"internalType":"address","name":"account","type":"address"},{"indexed":true,"internalType":"address","name":"sender","type":"address"}],"name":"RoleGranted","type":"event"},{"anonymous":false,"inputs":[{"indexed":true,"internalType":"bytes32","name":"role","type":"bytes32"},{"indexed":true,"internalType":"address","name":"account","type":"address"},{"indexed":true,"internalType":"address","name":"sender","type":"address"}],"name":"RoleRevoked","type":"event"},{"anonymous":false,"inputs":[{"indexed":true,"internalType":"address","name":"from","type":"address"},{"indexed":true,"internalType":"address","name":"to","type":"address"},{"indexed":true,"internalType":"uint256","name":"tokenId","type":"uint256"}],"name":"Transfer","type":"event"},{"inputs":[],"name":"DEFAULT_ADMIN_ROLE","outputs":[{"internalType":"bytes32","name":"","type":"bytes32"}],"stateMutability":"view","type":"function"},{"inputs":[],"name":"MINTER_ROLE","outputs":[{"internalType":"bytes32","name":"","type":"bytes32"}],"stateMutability":"view","type":"function"},{"inputs":[],"name":"PAUSER_ROLE","outputs":[{"internalType":"bytes32","name":"","type":"bytes32"}],"stateMutability":"view","type":"function"},{"inputs":[{"internalType":"string","name":"name","type":"string"},{"internalType":"string","name":"symbol","type":"string"}],"name":"__OwnYourSocialNetwork__init","outputs":[],"stateMutability":"nonpayable","type":"function"},{"inputs":[{"internalType":"address","name":"to","type":"address"},{"internalType":"uint256","name":"tokenId","type":"uint256"}],"name":"approve","outputs":[],"stateMutability":"nonpayable","type":"function"},{"inputs":[{"internalType":"address","name":"owner","type":"address"}],"name":"balanceOf","outputs":[{"internalType":"uint256","name":"","type":"uint256"}],"stateMutability":"view","type":"function"},{"inputs":[{"internalType":"uint256","name":"tokenId","type":"uint256"}],"name":"burn","outputs":[],"stateMutability":"nonpayable","type":"function"},{"inputs":[{"internalType":"uint256","name":"tokenId","type":"uint256"}],"name":"getApproved","outputs":[{"internalType":"address","name":"","type":"address"}],"stateMutability":"view","type":"function"},{"inputs":[{"internalType":"string","name":"gen_sn_id","type":"string"}],"name":"getOwnedAccountByGenSnId","outputs":[{"components":[{"internalType":"uint256","name":"id","type":"uint256"},{"internalType":"address","name":"owner","type":"address"},{"internalType":"string","name":"sn_name","type":"string"},{"internalType":"string","name":"sn_id","type":"string"},{"internalType":"string","name":"sn_url","type":"string"}],"internalType":"struct OwnedAccount.data","name":"","type":"tuple"}],"stateMutability":"view","type":"function"},{"inputs":[{"internalType":"uint256","name":"token_id","type":"uint256"}],"name":"getOwnedAccountByToken","outputs":[{"components":[{"internalType":"uint256","name":"id","type":"uint256"},{"internalType":"address","name":"owner","type":"address"},{"internalType":"string","name":"sn_name","type":"string"},{"internalType":"string","name":"sn_id","type":"string"},{"internalType":"string","name":"sn_url","type":"string"}],"internalType":"struct OwnedAccount.data","name":"","type":"tuple"}],"stateMutability":"view","type":"function"},{"inputs":[{"internalType":"address","name":"owner","type":"address"}],"name":"getOwnedAccounts","outputs":[{"internalType":"uint256[]","name":"","type":"uint256[]"}],"stateMutability":"view","type":"function"},{"inputs":[],"name":"getOwnedAccounts","outputs":[{"internalType":"uint256[]","name":"","type":"uint256[]"}],"stateMutability":"view","type":"function"},{"inputs":[{"internalType":"bytes32","name":"role","type":"bytes32"}],"name":"getRoleAdmin","outputs":[{"internalType":"bytes32","name":"","type":"bytes32"}],"stateMutability":"view","type":"function"},{"inputs":[{"internalType":"bytes32","name":"role","type":"bytes32"},{"internalType":"uint256","name":"index","type":"uint256"}],"name":"getRoleMember","outputs":[{"internalType":"address","name":"","type":"address"}],"stateMutability":"view","type":"function"},{"inputs":[{"internalType":"bytes32","name":"role","type":"bytes32"}],"name":"getRoleMemberCount","outputs":[{"internalType":"uint256","name":"","type":"uint256"}],"stateMutability":"view","type":"function"},{"inputs":[],"name":"getVersion","outputs":[{"internalType":"string","name":"","type":"string"}],"stateMutability":"pure","type":"function"},{"inputs":[{"internalType":"bytes32","name":"role","type":"bytes32"},{"internalType":"address","name":"account","type":"address"}],"name":"grantRole","outputs":[],"stateMutability":"nonpayable","type":"function"},{"inputs":[{"internalType":"bytes32","name":"role","type":"bytes32"},{"internalType":"address","name":"account","type":"address"}],"name":"hasRole","outputs":[{"internalType":"bool","name":"","type":"bool"}],"stateMutability":"view","type":"function"},{"inputs":[{"internalType":"string","name":"name","type":"string"},{"internalType":"string","name":"symbol","type":"string"}],"name":"initialize","outputs":[],"stateMutability":"nonpayable","type":"function"},{"inputs":[{"internalType":"address","name":"owner","type":"address"},{"internalType":"address","name":"operator","type":"address"}],"name":"isApprovedForAll","outputs":[{"internalType":"bool","name":"","type":"bool"}],"stateMutability":"view","type":"function"},{"inputs":[{"internalType":"string","name":"sn_name","type":"string"},{"internalType":"string","name":"sn_id","type":"string"},{"internalType":"string","name":"sn_url","type":"string"},{"internalType":"address","name":"to","type":"address"}],"name":"mint","outputs":[{"internalType":"uint256","name":"","type":"uint256"}],"stateMutability":"nonpayable","type":"function"},{"inputs":[{"internalType":"string","name":"oauthToken","type":"string"},{"internalType":"string","name":"oauthVerifier","type":"string"}],"name":"mintTwitter","outputs":[],"stateMutability":"payable","type":"function"},{"inputs":[],"name":"name","outputs":[{"internalType":"string","name":"","type":"string"}],"stateMutability":"view","type":"function"},{"inputs":[{"internalType":"uint256","name":"tokenId","type":"uint256"}],"name":"ownerOf","outputs":[{"internalType":"address","name":"","type":"address"}],"stateMutability":"view","type":"function"},{"inputs":[{"internalType":"bytes32","name":"role","type":"bytes32"},{"internalType":"address","name":"account","type":"address"}],"name":"renounceRole","outputs":[],"stateMutability":"nonpayable","type":"function"},{"inputs":[{"internalType":"bytes32","name":"role","type":"bytes32"},{"internalType":"address","name":"account","type":"address"}],"name":"revokeRole","outputs":[],"stateMutability":"nonpayable","type":"function"},{"inputs":[{"internalType":"address","name":"from","type":"address"},{"internalType":"address","name":"to","type":"address"},{"internalType":"uint256","name":"tokenId","type":"uint256"}],"name":"safeTransferFrom","outputs":[],"stateMutability":"nonpayable","type":"function"},{"inputs":[{"internalType":"address","name":"from","type":"address"},{"internalType":"address","name":"to","type":"address"},{"internalType":"uint256","name":"tokenId","type":"uint256"},{"internalType":"bytes","name":"_data","type":"bytes"}],"name":"safeTransferFrom","outputs":[],"stateMutability":"nonpayable","type":"function"},{"inputs":[{"internalType":"address","name":"operator","type":"address"},{"internalType":"bool","name":"approved","type":"bool"}],"name":"setApprovalForAll","outputs":[],"stateMutability":"nonpayable","type":"function"},{"inputs":[{"internalType":"bytes4","name":"interfaceId","type":"bytes4"}],"name":"supportsInterface","outputs":[{"internalType":"bool","name":"","type":"bool"}],"stateMutability":"view","type":"function"},{"inputs":[],"name":"symbol","outputs":[{"internalType":"string","name":"","type":"string"}],"stateMutability":"view","type":"function"},{"inputs":[{"internalType":"uint256","name":"index","type":"uint256"}],"name":"tokenByIndex","outputs":[{"internalType":"uint256","name":"","type":"uint256"}],"stateMutability":"view","type":"function"},{"inputs":[{"internalType":"address","name":"owner","type":"address"},{"internalType":"uint256","name":"index","type":"uint256"}],"name":"tokenOfOwnerByIndex","outputs":[{"internalType":"uint256","name":"","type":"uint256"}],"stateMutability":"view","type":"function"},{"inputs":[{"internalType":"uint256","name":"tokenId","type":"uint256"}],"name":"tokenURI","outputs":[{"internalType":"string","name":"","type":"string"}],"stateMutability":"view","type":"function"},{"inputs":[],"name":"totalSupply","outputs":[{"internalType":"uint256","name":"","type":"uint256"}],"stateMutability":"view","type":"function"},{"inputs":[{"internalType":"address","name":"from","type":"address"},{"internalType":"address","name":"to","type":"address"},{"internalType":"uint256","name":"tokenId","type":"uint256"}],"name":"transferFrom","outputs":[],"stateMutability":"nonpayable","type":"function"},{"inputs":[],"name":"twitterMinter","outputs":[{"internalType":"contract TwitterMinter","name":"","type":"address"}],"stateMutability":"view","type":"function"},{"inputs":[{"internalType":"address","name":"twitterMinterAddress","type":"address"}],"name":"updateTwitterMinterAddress","outputs":[],"stateMutability":"nonpayable","type":"function"}],"bytecode":"0x608060405234801561001057600080fd5b50613604806100206000396000f3fe6080604052600436106102255760003560e01c806370a0823111610123578063a56e0f1b116100ab578063d547741f1161006f578063d547741f14610667578063e38f87a314610687578063e63ab1e9146106a7578063e985e9c5146106db578063f9751b281461072457600080fd5b8063a56e0f1b146105b8578063b88d4fde146105e5578063c87b56dd14610605578063ca15c87314610625578063d53913931461064557600080fd5b806391d14854116100f257806391d148541461054e57806395d89b411461056e5780639ea8705e14610486578063a217fddf14610583578063a22cb4651461059857600080fd5b806370a08231146104e657806374cd7d2d146105065780638e8876b11461051b5780639010d07c1461052e57600080fd5b80632aedc3f9116101b157806342842e0e1161017557806342842e0e1461044657806342966c68146104665780634cd88b76146104865780634f6ccce7146104a65780636352211e146104c657600080fd5b80632aedc3f9146103a55780632f2ff15d146103c55780632f745c59146103e557806336568abe146104055780633f4acc321461042557600080fd5b80630bf00aff116101f85780630bf00aff146102db5780630d8e6e2c1461030857806318160ddd1461033657806323b872dd14610355578063248a9ca31461037557600080fd5b806301ffc9a71461022a57806306fdde031461025f578063081812fc14610281578063095ea7b3146102b9575b600080fd5b34801561023657600080fd5b5061024a610245366004612de5565b610744565b60405190151581526020015b60405180910390f35b34801561026b57600080fd5b50610274610755565b6040516102569190613110565b34801561028d57600080fd5b506102a161029c366004612d8a565b6107e7565b6040516001600160a01b039091168152602001610256565b3480156102c557600080fd5b506102d96102d4366004612d61565b610874565b005b3480156102e757600080fd5b506102fb6102f6366004612c27565b61098a565b60405161025691906130cc565b34801561031457600080fd5b50604080518082019091526005815264312e302e3160d81b6020820152610274565b34801561034257600080fd5b5060fd545b604051908152602001610256565b34801561036157600080fd5b506102d9610370366004612c73565b6109f7565b34801561038157600080fd5b50610347610390366004612d8a565b60009081526065602052604090206001015490565b3480156103b157600080fd5b506103476103c0366004612eb1565b610a29565b3480156103d157600080fd5b506102d96103e0366004612da2565b610be0565b3480156103f157600080fd5b50610347610400366004612d61565b610c02565b34801561041157600080fd5b506102d9610420366004612da2565b610c98565b34801561043157600080fd5b50610192546102a1906001600160a01b031681565b34801561045257600080fd5b506102d9610461366004612c73565b610cba565b34801561047257600080fd5b506102d9610481366004612d8a565b610cd5565b34801561049257600080fd5b506102d96104a1366004612e50565b610d4f565b3480156104b257600080fd5b506103476104c1366004612d8a565b610dc6565b3480156104d257600080fd5b506102a16104e1366004612d8a565b610e67565b3480156104f257600080fd5b50610347610501366004612c27565b610ede565b34801561051257600080fd5b506102fb610f65565b6102d9610529366004612e50565b610fc6565b34801561053a57600080fd5b506102a1610549366004612dc4565b61103d565b34801561055a57600080fd5b5061024a610569366004612da2565b61105c565b34801561057a57600080fd5b50610274611087565b34801561058f57600080fd5b50610347600081565b3480156105a457600080fd5b506102d96105b3366004612d27565b611096565b3480156105c457600080fd5b506105d86105d3366004612d8a565b61115b565b6040516102569190613268565b3480156105f157600080fd5b506102d9610600366004612cae565b6113e2565b34801561061157600080fd5b50610274610620366004612d8a565b61141a565b34801561063157600080fd5b50610347610640366004612d8a565b6114b8565b34801561065157600080fd5b506103476000805160206135af83398151915281565b34801561067357600080fd5b506102d9610682366004612da2565b6114cf565b34801561069357600080fd5b506105d86106a2366004612e1d565b6114d9565b3480156106b357600080fd5b506103477f65d7a28e3265b37a6474929f336521b332c1681b933f6cb9f3376673440d862a81565b3480156106e757600080fd5b5061024a6106f6366004612c41565b6001600160a01b03918216600090815260ce6020908152604080832093909416825291909152205460ff1690565b34801561073057600080fd5b506102d961073f366004612c27565b6115e5565b600061074f826116ce565b92915050565b606060c9805461076490613500565b80601f016020809104026020016040519081016040528092919081815260200182805461079090613500565b80156107dd5780601f106107b2576101008083540402835291602001916107dd565b820191906000526020600020905b8154815290600101906020018083116107c057829003601f168201915b5050505050905090565b60006107f2826116f3565b6108585760405162461bcd60e51b815260206004820152602c60248201527f4552433732313a20617070726f76656420717565727920666f72206e6f6e657860448201526b34b9ba32b73a103a37b5b2b760a11b60648201526084015b60405180910390fd5b50600090815260cd60205260409020546001600160a01b031690565b600061087f82610e67565b9050806001600160a01b0316836001600160a01b031614156108ed5760405162461bcd60e51b815260206004820152602160248201527f4552433732313a20617070726f76616c20746f2063757272656e74206f776e656044820152603960f91b606482015260840161084f565b336001600160a01b0382161480610909575061090981336106f6565b61097b5760405162461bcd60e51b815260206004820152603860248201527f4552433732313a20617070726f76652063616c6c6572206973206e6f74206f7760448201527f6e6572206e6f7220617070726f76656420666f7220616c6c0000000000000000606482015260840161084f565b6109858383611710565b505050565b6001600160a01b038116600090815261019360209081526040918290208054835181840281018401909452808452606093928301828280156109eb57602002820191906000526020600020905b8154815260200190600101908083116109d7575b50505050509050919050565b610a02335b8261177e565b610a1e5760405162461bcd60e51b815260040161084f90613217565b610985838383611864565b6000808585604051602001610a3f929190612f8e565b6040516020818303038152906040529050610a7861019082604051610a649190612f72565b9081526020016040518091039020546116f3565b15610ae25760405162461bcd60e51b815260206004820152603460248201527f4f776e596f7572536f6369616c4e6574776f726b3a20546865206163636f756e6044820152731d081dd85cc8185b1c9958591e481b5a5b9d195960621b606482015260840161084f565b6000610aed84611a0f565b6000818152610191602090815260409091208281556001810180546001600160a01b0319166001600160a01b0389161790558951929350610b36926002909101918a0190612aaa565b506000818152610191602090815260409091208751610b5d92600390920191890190612aaa565b506000818152610191602090815260409091208651610b8492600490920191880190612aaa565b508061019083604051610b979190612f72565b9081526040805160209281900383019020929092556001600160a01b0386166000908152610193825291822080546001810182559083529120018190559150505b949350505050565b610bea8282611aa0565b60008281526097602052604090206109859082611ac6565b6000610c0d83610ede565b8210610c6f5760405162461bcd60e51b815260206004820152602b60248201527f455243373231456e756d657261626c653a206f776e657220696e646578206f7560448201526a74206f6620626f756e647360a81b606482015260840161084f565b506001600160a01b0391909116600090815260fb60209081526040808320938352929052205490565b610ca28282611adb565b60008281526097602052604090206109859082611b59565b610985838383604051806020016040528060008152506113e2565b610cde336109fc565b610d435760405162461bcd60e51b815260206004820152603060248201527f4552433732314275726e61626c653a2063616c6c6572206973206e6f74206f7760448201526f1b995c881b9bdc88185c1c1c9bdd995960821b606482015260840161084f565b610d4c81611b6e565b50565b600054610100900460ff1680610d68575060005460ff16155b610d845760405162461bcd60e51b815260040161084f906131c9565b600054610100900460ff16158015610da6576000805461ffff19166101011790555b610db08383611c15565b8015610985576000805461ff0019169055505050565b6000610dd160fd5490565b8210610e345760405162461bcd60e51b815260206004820152602c60248201527f455243373231456e756d657261626c653a20676c6f62616c20696e646578206f60448201526b7574206f6620626f756e647360a01b606482015260840161084f565b60fd8281548110610e5557634e487b7160e01b600052603260045260246000fd5b90600052602060002001549050919050565b600081815260cb60205260408120546001600160a01b03168061074f5760405162461bcd60e51b815260206004820152602960248201527f4552433732313a206f776e657220717565727920666f72206e6f6e657869737460448201526832b73a103a37b5b2b760b91b606482015260840161084f565b60006001600160a01b038216610f495760405162461bcd60e51b815260206004820152602a60248201527f4552433732313a2062616c616e636520717565727920666f7220746865207a65604482015269726f206164647265737360b01b606482015260840161084f565b506001600160a01b0316600090815260cc602052604090205490565b33600090815261019360209081526040918290208054835181840281018401909452808452606093928301828280156107dd57602002820191906000526020600020905b815481526020019060010190808311610fa9575050505050905090565b610192546001600160a01b03166329b1164f348484336040516001600160e01b031960e087901b168152611007939291903090632aedc3f990600401613123565b6000604051808303818588803b15801561102057600080fd5b505af1158015611034573d6000803e3d6000fd5b50505050505050565b60008281526097602052604081206110559083611cae565b9392505050565b60009182526065602090815260408084206001600160a01b0393909316845291905290205460ff1690565b606060ca805461076490613500565b6001600160a01b0382163314156110ef5760405162461bcd60e51b815260206004820152601960248201527f4552433732313a20617070726f766520746f2063616c6c657200000000000000604482015260640161084f565b33600081815260ce602090815260408083206001600160a01b03871680855290835292819020805460ff191686151590811790915590519081529192917f17307eab39ab6107e8899845ad3d59bd9653f200f220920489ca2b5937696c31910160405180910390a35050565b611163612b2e565b61116c826116f3565b6111ea5760405162461bcd60e51b815260206004820152604360248201527f4f776e596f7572536f6369616c4e6574776f726b3a20476574206f776e65642060448201527f6163636f756e7420717565727920666f72206e6f6e6578697374656e7420746f60648201526235b2b760e91b608482015260a40161084f565b60008281526101916020908152604091829020825160a0810184528154815260018201546001600160a01b031692810192909252600281018054929391929184019161123590613500565b80601f016020809104026020016040519081016040528092919081815260200182805461126190613500565b80156112ae5780601f10611283576101008083540402835291602001916112ae565b820191906000526020600020905b81548152906001019060200180831161129157829003601f168201915b505050505081526020016003820180546112c790613500565b80601f01602080910402602001604051908101604052809291908181526020018280546112f390613500565b80156113405780601f1061131557610100808354040283529160200191611340565b820191906000526020600020905b81548152906001019060200180831161132357829003601f168201915b5050505050815260200160048201805461135990613500565b80601f016020809104026020016040519081016040528092919081815260200182805461138590613500565b80156113d25780601f106113a7576101008083540402835291602001916113d2565b820191906000526020600020905b8154815290600101906020018083116113b557829003601f168201915b5050505050815250509050919050565b6113ec338361177e565b6114085760405162461bcd60e51b815260040161084f90613217565b61141484848484611cba565b50505050565b6060611425826116f3565b6114895760405162461bcd60e51b815260206004820152602f60248201527f4552433732314d657461646174613a2055524920717565727920666f72206e6f60448201526e3732bc34b9ba32b73a103a37b5b2b760891b606482015260840161084f565b50506040805180820190915260138152721393d508125354131153515395115108165155606a1b602082015290565b600081815260976020526040812061074f90611ced565b610ca28282611cf7565b6114e1612b2e565b6114f561019083604051610a649190612f72565b61155e5760405162461bcd60e51b815260206004820152603460248201527f4f776e596f7572536f6369616c4e6574776f726b3a20546865206163636f756e6044820152731d081dd85cc81b9bdd081e595d081b5a5b9d195960621b606482015260840161084f565b6101916000610190846040516115749190612f72565b90815260200160405180910390205481526020019081526020016000206040518060a0016040529081600082015481526020016001820160009054906101000a90046001600160a01b03166001600160a01b03166001600160a01b0316815260200160028201805461123590613500565b6115f060003361105c565b6116745760405162461bcd60e51b815260206004820152604960248201527f4f776e596f7572536f6369616c4e6574776f726b3a206d75737420686176652060448201527f6d696e74657220726f6c6520746f20757064617465547769747465724d696e7460648201526865724164647265737360b81b608482015260a40161084f565b6101925461169a906000805160206135af833981519152906001600160a01b03166114cf565b61019280546001600160a01b0319166001600160a01b038316179055610d4c6000805160206135af83398151915282611d1d565b60006001600160e01b0319821663780e9d6360e01b148061074f575061074f82611d27565b600090815260cb60205260409020546001600160a01b0316151590565b600081815260cd6020526040902080546001600160a01b0319166001600160a01b038416908117909155819061174582610e67565b6001600160a01b03167f8c5be1e5ebec7d5bd14f71427d1e84f3dd0314c0f7b2291e5b200ac8c7c3b92560405160405180910390a45050565b6000611789826116f3565b6117ea5760405162461bcd60e51b815260206004820152602c60248201527f4552433732313a206f70657261746f7220717565727920666f72206e6f6e657860448201526b34b9ba32b73a103a37b5b2b760a11b606482015260840161084f565b60006117f583610e67565b9050806001600160a01b0316846001600160a01b031614806118305750836001600160a01b0316611825846107e7565b6001600160a01b0316145b80610bd857506001600160a01b03808216600090815260ce602090815260408083209388168352929052205460ff16610bd8565b826001600160a01b031661187782610e67565b6001600160a01b0316146118df5760405162461bcd60e51b815260206004820152602960248201527f4552433732313a207472616e73666572206f6620746f6b656e2074686174206960448201526839903737ba1037bbb760b91b606482015260840161084f565b6001600160a01b0382166119415760405162461bcd60e51b8152602060048201526024808201527f4552433732313a207472616e7366657220746f20746865207a65726f206164646044820152637265737360e01b606482015260840161084f565b61194c838383611d67565b611957600082611710565b6001600160a01b038316600090815260cc60205260408120805460019290611980908490613483565b90915550506001600160a01b038216600090815260cc602052604081208054600192906119ae9084906132e5565b9091555050600081815260cb602052604080822080546001600160a01b0319166001600160a01b0386811691821790925591518493918716917fddf252ad1be2c89b69c2b068fc378daa952ba7f163c4a11628f55a4df523b3ef91a4505050565b6000611a296000805160206135af8339815191523361105c565b611a3233611d72565b604051602001611a429190612fbd565b60405160208183030381529060405290611a6f5760405162461bcd60e51b815260040161084f9190613110565b506000611a7c61015f5490565b9050611a9183611a8c61015f5490565b611ed5565b61074f61015f80546001019055565b600082815260656020526040902060010154611abc8133612014565b6109858383612078565b6000611055836001600160a01b0384166120fe565b6001600160a01b0381163314611b4b5760405162461bcd60e51b815260206004820152602f60248201527f416363657373436f6e74726f6c3a2063616e206f6e6c792072656e6f756e636560448201526e103937b632b9903337b91039b2b63360891b606482015260840161084f565b611b55828261214d565b5050565b6000611055836001600160a01b0384166121b4565b6000611b7982610e67565b9050611b8781600084611d67565b611b92600083611710565b6001600160a01b038116600090815260cc60205260408120805460019290611bbb908490613483565b9091555050600082815260cb602052604080822080546001600160a01b0319169055518391906001600160a01b038416907fddf252ad1be2c89b69c2b068fc378daa952ba7f163c4a11628f55a4df523b3ef908390a45050565b600054610100900460ff1680611c2e575060005460ff16155b611c4a5760405162461bcd60e51b815260040161084f906131c9565b600054610100900460ff16158015611c6c576000805461ffff19166101011790555b611c746122d1565b611c7c6122d1565b611c846122d1565b611c8c6122d1565b611c96838361233c565b611c9e6122d1565b611ca66122d1565b610db06123d1565b60006110558383612475565b611cc5848484611864565b611cd1848484846124ad565b6114145760405162461bcd60e51b815260040161084f90613177565b600061074f825490565b600082815260656020526040902060010154611d138133612014565b610985838361214d565b610bea82826125b7565b60006001600160e01b031982166380ac58cd60e01b1480611d5857506001600160e01b03198216635b5e139f60e01b145b8061074f575061074f826125c1565b6109858383836125e6565b60408051602880825260608281019093526000919060208201818036833701905050905060005b6014811015611ece576000611daf826013613483565b611dba906008613443565b611dc590600261339b565b611dd8906001600160a01b038716613322565b60f81b9050600060108260f81c611def9190613336565b60f81b905060008160f81c6010611e069190613462565b8360f81c611e14919061349a565b60f81b9050611e228261269e565b85611e2e866002613443565b81518110611e4c57634e487b7160e01b600052603260045260246000fd5b60200101906001600160f81b031916908160001a905350611e6c8161269e565b85611e78866002613443565b611e839060016132e5565b81518110611ea157634e487b7160e01b600052603260045260246000fd5b60200101906001600160f81b031916908160001a9053505050508080611ec69061353b565b915050611d99565b5092915050565b6001600160a01b038216611f2b5760405162461bcd60e51b815260206004820181905260248201527f4552433732313a206d696e7420746f20746865207a65726f2061646472657373604482015260640161084f565b611f34816116f3565b15611f815760405162461bcd60e51b815260206004820152601c60248201527f4552433732313a20746f6b656e20616c7265616479206d696e74656400000000604482015260640161084f565b611f8d60008383611d67565b6001600160a01b038216600090815260cc60205260408120805460019290611fb69084906132e5565b9091555050600081815260cb602052604080822080546001600160a01b0319166001600160a01b03861690811790915590518392907fddf252ad1be2c89b69c2b068fc378daa952ba7f163c4a11628f55a4df523b3ef908290a45050565b61201e828261105c565b611b5557612036816001600160a01b031660146126d9565b6120418360206126d9565b60405160200161205292919061301a565b60408051601f198184030181529082905262461bcd60e51b825261084f91600401613110565b612082828261105c565b611b555760008281526065602090815260408083206001600160a01b03851684529091529020805460ff191660011790556120ba3390565b6001600160a01b0316816001600160a01b0316837f2f8788117e7eff1d82e926ec794901d17c78024a50270940304540a733656f0d60405160405180910390a45050565b60008181526001830160205260408120546121455750815460018181018455600084815260208082209093018490558454848252828601909352604090209190915561074f565b50600061074f565b612157828261105c565b15611b555760008281526065602090815260408083206001600160a01b0385168085529252808320805460ff1916905551339285917ff6391f5c32d9c69d2a47ea670b442974b53935d1edc7fd64eb21e047a839171b9190a45050565b600081815260018301602052604081205480156122c75760006121d8600183613483565b85549091506000906121ec90600190613483565b905081811461226d57600086600001828154811061221a57634e487b7160e01b600052603260045260246000fd5b906000526020600020015490508087600001848154811061224b57634e487b7160e01b600052603260045260246000fd5b6000918252602080832090910192909255918252600188019052604090208390555b855486908061228c57634e487b7160e01b600052603160045260246000fd5b60019003818190600052602060002001600090559055856001016000868152602001908152602001600020600090556001935050505061074f565b600091505061074f565b600054610100900460ff16806122ea575060005460ff16155b6123065760405162461bcd60e51b815260040161084f906131c9565b600054610100900460ff16158015612328576000805461ffff19166101011790555b8015610d4c576000805461ff001916905550565b600054610100900460ff1680612355575060005460ff16155b6123715760405162461bcd60e51b815260040161084f906131c9565b600054610100900460ff16158015612393576000805461ffff19166101011790555b82516123a69060c9906020860190612aaa565b5081516123ba9060ca906020850190612aaa565b508015610985576000805461ff0019169055505050565b600054610100900460ff16806123ea575060005460ff16155b6124065760405162461bcd60e51b815260040161084f906131c9565b600054610100900460ff16158015612428576000805461ffff19166101011790555b612433600033611d1d565b61244b6000805160206135af83398151915233611d1d565b6123287f65d7a28e3265b37a6474929f336521b332c1681b933f6cb9f3376673440d862a33611d1d565b600082600001828154811061249a57634e487b7160e01b600052603260045260246000fd5b9060005260206000200154905092915050565b60006001600160a01b0384163b156125af57604051630a85bd0160e11b81526001600160a01b0385169063150b7a02906124f190339089908890889060040161308f565b602060405180830381600087803b15801561250b57600080fd5b505af192505050801561253b575060408051601f3d908101601f1916820190925261253891810190612e01565b60015b612595573d808015612569576040519150601f19603f3d011682016040523d82523d6000602084013e61256e565b606091505b50805161258d5760405162461bcd60e51b815260040161084f90613177565b805181602001fd5b6001600160e01b031916630a85bd0160e11b149050610bd8565b506001610bd8565b611b558282612078565b60006001600160e01b03198216635a05180f60e01b148061074f575061074f826128bb565b6001600160a01b0383166126415761263c8160fd8054600083815260fe60205260408120829055600182018355919091527f9346ac6dd7de6b96975fec380d4d994c4c12e6a8897544f22915316cc6cca2800155565b612664565b816001600160a01b0316836001600160a01b0316146126645761266483826128f0565b6001600160a01b03821661267b576109858161298d565b826001600160a01b0316826001600160a01b031614610985576109858282612a66565b6000600a60f883901c10156126c5576126bc60f883901c60306132fd565b60f81b92915050565b6126bc60f883901c60576132fd565b919050565b606060006126e8836002613443565b6126f39060026132e5565b67ffffffffffffffff81111561271957634e487b7160e01b600052604160045260246000fd5b6040519080825280601f01601f191660200182016040528015612743576020820181803683370190505b509050600360fc1b8160008151811061276c57634e487b7160e01b600052603260045260246000fd5b60200101906001600160f81b031916908160001a905350600f60fb1b816001815181106127a957634e487b7160e01b600052603260045260246000fd5b60200101906001600160f81b031916908160001a90535060006127cd846002613443565b6127d89060016132e5565b90505b600181111561286c576f181899199a1a9b1b9c1cb0b131b232b360811b85600f166010811061281a57634e487b7160e01b600052603260045260246000fd5b1a60f81b82828151811061283e57634e487b7160e01b600052603260045260246000fd5b60200101906001600160f81b031916908160001a90535060049490941c93612865816134e9565b90506127db565b5083156110555760405162461bcd60e51b815260206004820181905260248201527f537472696e67733a20686578206c656e67746820696e73756666696369656e74604482015260640161084f565b60006001600160e01b03198216637965db0b60e01b148061074f57506301ffc9a760e01b6001600160e01b031983161461074f565b600060016128fd84610ede565b6129079190613483565b600083815260fc602052604090205490915080821461295a576001600160a01b038416600090815260fb60209081526040808320858452825280832054848452818420819055835260fc90915290208190555b50600091825260fc602090815260408084208490556001600160a01b03909416835260fb81528383209183525290812055565b60fd5460009061299f90600190613483565b600083815260fe602052604081205460fd80549394509092849081106129d557634e487b7160e01b600052603260045260246000fd5b906000526020600020015490508060fd8381548110612a0457634e487b7160e01b600052603260045260246000fd5b600091825260208083209091019290925582815260fe909152604080822084905585825281205560fd805480612a4a57634e487b7160e01b600052603160045260246000fd5b6001900381819060005260206000200160009055905550505050565b6000612a7183610ede565b6001600160a01b03909316600090815260fb60209081526040808320868452825280832085905593825260fc9052919091209190915550565b828054612ab690613500565b90600052602060002090601f016020900481019282612ad85760008555612b1e565b82601f10612af157805160ff1916838001178555612b1e565b82800160010185558215612b1e579182015b82811115612b1e578251825591602001919060010190612b03565b50612b2a929150612b66565b5090565b6040518060a001604052806000815260200160006001600160a01b031681526020016060815260200160608152602001606081525090565b5b80821115612b2a5760008155600101612b67565b600067ffffffffffffffff80841115612b9657612b96613582565b604051601f8501601f19908116603f01168101908282118183101715612bbe57612bbe613582565b81604052809350858152868686011115612bd757600080fd5b858560208301376000602087830101525050509392505050565b80356001600160a01b03811681146126d457600080fd5b600082601f830112612c18578081fd5b61105583833560208501612b7b565b600060208284031215612c38578081fd5b61105582612bf1565b60008060408385031215612c53578081fd5b612c5c83612bf1565b9150612c6a60208401612bf1565b90509250929050565b600080600060608486031215612c87578081fd5b612c9084612bf1565b9250612c9e60208501612bf1565b9150604084013590509250925092565b60008060008060808587031215612cc3578081fd5b612ccc85612bf1565b9350612cda60208601612bf1565b925060408501359150606085013567ffffffffffffffff811115612cfc578182fd5b8501601f81018713612d0c578182fd5b612d1b87823560208401612b7b565b91505092959194509250565b60008060408385031215612d39578182fd5b612d4283612bf1565b915060208301358015158114612d56578182fd5b809150509250929050565b60008060408385031215612d73578182fd5b612d7c83612bf1565b946020939093013593505050565b600060208284031215612d9b578081fd5b5035919050565b60008060408385031215612db4578182fd5b82359150612c6a60208401612bf1565b60008060408385031215612dd6578182fd5b50508035926020909101359150565b600060208284031215612df6578081fd5b813561105581613598565b600060208284031215612e12578081fd5b815161105581613598565b600060208284031215612e2e578081fd5b813567ffffffffffffffff811115612e44578182fd5b610bd884828501612c08565b60008060408385031215612e62578182fd5b823567ffffffffffffffff80821115612e79578384fd5b612e8586838701612c08565b93506020850135915080821115612e9a578283fd5b50612ea785828601612c08565b9150509250929050565b60008060008060808587031215612ec6578182fd5b843567ffffffffffffffff80821115612edd578384fd5b612ee988838901612c08565b95506020870135915080821115612efe578384fd5b612f0a88838901612c08565b94506040870135915080821115612f1f578384fd5b50612f2c87828801612c08565b925050612f3b60608601612bf1565b905092959194509250565b60008151808452612f5e8160208601602086016134bd565b601f01601f19169290920160200192915050565b60008251612f848184602087016134bd565b9190910192915050565b60008351612fa08184602088016134bd565b835190830190612fb48183602088016134bd565b01949350505050565b6d022a9219b9918a1bab9ba37b69d160951b815260008251612fe681600e8501602087016134bd565b7f206d7573742068617665206d696e74657220726f6c6520746f206d696e740000600e939091019283015250602c01919050565b7f416363657373436f6e74726f6c3a206163636f756e74200000000000000000008152600083516130528160178501602088016134bd565b7001034b99036b4b9b9b4b733903937b6329607d1b60179184019182015283516130838160288401602088016134bd565b01602801949350505050565b6001600160a01b03858116825284166020820152604081018390526080606082018190526000906130c290830184612f46565b9695505050505050565b6020808252825182820181905260009190848201906040850190845b81811015613104578351835292840192918401916001016130e8565b50909695505050505050565b6020815260006110556020830184612f46565b6080815260006131366080830188612f46565b82810360208401526131488188612f46565b91505060018060a01b038516604083015263ffffffff83168460201b1760401b60608301529695505050505050565b60208082526032908201527f4552433732313a207472616e7366657220746f206e6f6e20455243373231526560408201527131b2b4bb32b91034b6b83632b6b2b73a32b960711b606082015260800190565b6020808252602e908201527f496e697469616c697a61626c653a20636f6e747261637420697320616c72656160408201526d191e481a5b9a5d1a585b1a5e995960921b606082015260800190565b60208082526031908201527f4552433732313a207472616e736665722063616c6c6572206973206e6f74206f6040820152701ddb995c881b9bdc88185c1c1c9bdd9959607a1b606082015260800190565b602081528151602082015260018060a01b0360208301511660408201526000604083015160a060608401526132a060c0840182612f46565b90506060840151601f19808584030160808601526132be8383612f46565b925060808601519150808584030160a0860152506132dc8282612f46565b95945050505050565b600082198211156132f8576132f8613556565b500190565b600060ff821660ff84168060ff0382111561331a5761331a613556565b019392505050565b6000826133315761333161356c565b500490565b600060ff8316806133495761334961356c565b8060ff84160491505092915050565b600181815b8085111561339357816000190482111561337957613379613556565b8085161561338657918102915b93841c939080029061335d565b509250929050565b600061105583836000826133b15750600161074f565b816133be5750600061074f565b81600181146133d457600281146133de576133fa565b600191505061074f565b60ff8411156133ef576133ef613556565b50506001821b61074f565b5060208310610133831016604e8410600b841016171561341d575081810a61074f565b6134278383613358565b806000190482111561343b5761343b613556565b029392505050565b600081600019048311821515161561345d5761345d613556565b500290565b600060ff821660ff84168160ff048111821515161561343b5761343b613556565b60008282101561349557613495613556565b500390565b600060ff821660ff8416808210156134b4576134b4613556565b90039392505050565b60005b838110156134d85781810151838201526020016134c0565b838111156114145750506000910152565b6000816134f8576134f8613556565b506000190190565b600181811c9082168061351457607f821691505b6020821081141561353557634e487b7160e01b600052602260045260246000fd5b50919050565b600060001982141561354f5761354f613556565b5060010190565b634e487b7160e01b600052601160045260246000fd5b634e487b7160e01b600052601260045260246000fd5b634e487b7160e01b600052604160045260246000fd5b6001600160e01b031981168114610d4c57600080fdfe9f2df0fed2c77648de5860a4cc508cd0818c85b8b8a1ab4ceeef8d981c8956a6a264697066735822122038c091a2efb9f2c685950586480dcfef6cc9d0cc913f465f8ce2c5306757b27d64736f6c63430008040033","linkReferences":{},"deployedLinkReferences":{}}