{"_format":"hh-sol-artifact-1","contractName":"OwnYourSocialNetwork","sourceName":"contracts/OwnYourSocialNetwork.sol","abi":[{"anonymous":false,"inputs":[{"indexed":true,"internalType":"address","name":"owner","type":"address"},{"indexed":true,"internalType":"address","name":"approved","type":"address"},{"indexed":true,"internalType":"uint256","name":"tokenId","type":"uint256"}],"name":"Approval","type":"event"},{"anonymous":false,"inputs":[{"indexed":true,"internalType":"address","name":"owner","type":"address"},{"indexed":true,"internalType":"address","name":"operator","type":"address"},{"indexed":false,"internalType":"bool","name":"approved","type":"bool"}],"name":"ApprovalForAll","type":"event"},{"anonymous":false,"inputs":[{"indexed":true,"internalType":"bytes32","name":"role","type":"bytes32"},{"indexed":true,"internalType":"bytes32","name":"previousAdminRole","type":"bytes32"},{"indexed":true,"internalType":"bytes32","name":"newAdminRole","type":"bytes32"}],"name":"RoleAdminChanged","type":"event"},{"anonymous":false,"inputs":[{"indexed":true,"internalType":"bytes32","name":"role","type":"bytes32"},{"indexed":true,"internalType":"address","name":"account","type":"address"},{"indexed":true,"internalType":"address","name":"sender","type":"address"}],"name":"RoleGranted","type":"event"},{"anonymous":false,"inputs":[{"indexed":true,"internalType":"bytes32","name":"role","type":"bytes32"},{"indexed":true,"internalType":"address","name":"account","type":"address"},{"indexed":true,"internalType":"address","name":"sender","type":"address"}],"name":"RoleRevoked","type":"event"},{"anonymous":false,"inputs":[{"indexed":true,"internalType":"address","name":"from","type":"address"},{"indexed":true,"internalType":"address","name":"to","type":"address"},{"indexed":true,"internalType":"uint256","name":"tokenId","type":"uint256"}],"name":"Transfer","type":"event"},{"inputs":[],"name":"DEFAULT_ADMIN_ROLE","outputs":[{"internalType":"bytes32","name":"","type":"bytes32"}],"stateMutability":"view","type":"function"},{"inputs":[],"name":"MINTER_ROLE","outputs":[{"internalType":"bytes32","name":"","type":"bytes32"}],"stateMutability":"view","type":"function"},{"inputs":[],"name":"PAUSER_ROLE","outputs":[{"internalType":"bytes32","name":"","type":"bytes32"}],"stateMutability":"view","type":"function"},{"inputs":[{"internalType":"string","name":"name","type":"string"},{"internalType":"string","name":"symbol","type":"string"}],"name":"__OwnYourSocialNetwork__init","outputs":[],"stateMutability":"nonpayable","type":"function"},{"inputs":[{"internalType":"address","name":"to","type":"address"},{"internalType":"uint256","name":"tokenId","type":"uint256"}],"name":"approve","outputs":[],"stateMutability":"nonpayable","type":"function"},{"inputs":[{"internalType":"address","name":"owner","type":"address"}],"name":"balanceOf","outputs":[{"internalType":"uint256","name":"","type":"uint256"}],"stateMutability":"view","type":"function"},{"inputs":[{"internalType":"uint256","name":"tokenId","type":"uint256"}],"name":"burn","outputs":[],"stateMutability":"nonpayable","type":"function"},{"inputs":[{"internalType":"uint256","name":"tokenId","type":"uint256"}],"name":"getApproved","outputs":[{"internalType":"address","name":"","type":"address"}],"stateMutability":"view","type":"function"},{"inputs":[{"internalType":"string","name":"gen_sn_id","type":"string"}],"name":"getOwnedAccountByGenSnId","outputs":[{"components":[{"internalType":"uint256","name":"id","type":"uint256"},{"internalType":"address","name":"owner","type":"address"},{"internalType":"string","name":"sn_name","type":"string"},{"internalType":"string","name":"sn_id","type":"string"},{"internalType":"string","name":"sn_url","type":"string"}],"internalType":"struct OwnedAccount.data","name":"","type":"tuple"}],"stateMutability":"view","type":"function"},{"inputs":[{"internalType":"uint256","name":"token_id","type":"uint256"}],"name":"getOwnedAccountByToken","outputs":[{"components":[{"internalType":"uint256","name":"id","type":"uint256"},{"internalType":"address","name":"owner","type":"address"},{"internalType":"string","name":"sn_name","type":"string"},{"internalType":"string","name":"sn_id","type":"string"},{"internalType":"string","name":"sn_url","type":"string"}],"internalType":"struct OwnedAccount.data","name":"","type":"tuple"}],"stateMutability":"view","type":"function"},{"inputs":[{"internalType":"bytes32","name":"role","type":"bytes32"}],"name":"getRoleAdmin","outputs":[{"internalType":"bytes32","name":"","type":"bytes32"}],"stateMutability":"view","type":"function"},{"inputs":[{"internalType":"bytes32","name":"role","type":"bytes32"},{"internalType":"uint256","name":"index","type":"uint256"}],"name":"getRoleMember","outputs":[{"internalType":"address","name":"","type":"address"}],"stateMutability":"view","type":"function"},{"inputs":[{"internalType":"bytes32","name":"role","type":"bytes32"}],"name":"getRoleMemberCount","outputs":[{"internalType":"uint256","name":"","type":"uint256"}],"stateMutability":"view","type":"function"},{"inputs":[],"name":"getVersion","outputs":[{"internalType":"string","name":"","type":"string"}],"stateMutability":"pure","type":"function"},{"inputs":[{"internalType":"bytes32","name":"role","type":"bytes32"},{"internalType":"address","name":"account","type":"address"}],"name":"grantRole","outputs":[],"stateMutability":"nonpayable","type":"function"},{"inputs":[{"internalType":"bytes32","name":"role","type":"bytes32"},{"internalType":"address","name":"account","type":"address"}],"name":"hasRole","outputs":[{"internalType":"bool","name":"","type":"bool"}],"stateMutability":"view","type":"function"},{"inputs":[{"internalType":"string","name":"name","type":"string"},{"internalType":"string","name":"symbol","type":"string"}],"name":"initialize","outputs":[],"stateMutability":"nonpayable","type":"function"},{"inputs":[{"internalType":"address","name":"owner","type":"address"},{"internalType":"address","name":"operator","type":"address"}],"name":"isApprovedForAll","outputs":[{"internalType":"bool","name":"","type":"bool"}],"stateMutability":"view","type":"function"},{"inputs":[{"internalType":"string","name":"sn_name","type":"string"},{"internalType":"string","name":"sn_id","type":"string"},{"internalType":"string","name":"sn_url","type":"string"},{"internalType":"address","name":"to","type":"address"}],"name":"mint","outputs":[{"internalType":"uint256","name":"","type":"uint256"}],"stateMutability":"nonpayable","type":"function"},{"inputs":[{"internalType":"string","name":"oauthToken","type":"string"},{"internalType":"string","name":"oauthVerifier","type":"string"}],"name":"mintTwitter","outputs":[],"stateMutability":"payable","type":"function"},{"inputs":[],"name":"name","outputs":[{"internalType":"string","name":"","type":"string"}],"stateMutability":"view","type":"function"},{"inputs":[{"internalType":"uint256","name":"tokenId","type":"uint256"}],"name":"ownerOf","outputs":[{"internalType":"address","name":"","type":"address"}],"stateMutability":"view","type":"function"},{"inputs":[{"internalType":"bytes32","name":"role","type":"bytes32"},{"internalType":"address","name":"account","type":"address"}],"name":"renounceRole","outputs":[],"stateMutability":"nonpayable","type":"function"},{"inputs":[],"name":"retrieveFunds","outputs":[],"stateMutability":"nonpayable","type":"function"},{"inputs":[{"internalType":"bytes32","name":"role","type":"bytes32"},{"internalType":"address","name":"account","type":"address"}],"name":"revokeRole","outputs":[],"stateMutability":"nonpayable","type":"function"},{"inputs":[{"internalType":"address","name":"from","type":"address"},{"internalType":"address","name":"to","type":"address"},{"internalType":"uint256","name":"tokenId","type":"uint256"}],"name":"safeTransferFrom","outputs":[],"stateMutability":"nonpayable","type":"function"},{"inputs":[{"internalType":"address","name":"from","type":"address"},{"internalType":"address","name":"to","type":"address"},{"internalType":"uint256","name":"tokenId","type":"uint256"},{"internalType":"bytes","name":"_data","type":"bytes"}],"name":"safeTransferFrom","outputs":[],"stateMutability":"nonpayable","type":"function"},{"inputs":[{"internalType":"address","name":"operator","type":"address"},{"internalType":"bool","name":"approved","type":"bool"}],"name":"setApprovalForAll","outputs":[],"stateMutability":"nonpayable","type":"function"},{"inputs":[{"internalType":"bytes4","name":"interfaceId","type":"bytes4"}],"name":"supportsInterface","outputs":[{"internalType":"bool","name":"","type":"bool"}],"stateMutability":"view","type":"function"},{"inputs":[],"name":"symbol","outputs":[{"internalType":"string","name":"","type":"string"}],"stateMutability":"view","type":"function"},{"inputs":[{"internalType":"uint256","name":"index","type":"uint256"}],"name":"tokenByIndex","outputs":[{"internalType":"uint256","name":"","type":"uint256"}],"stateMutability":"view","type":"function"},{"inputs":[{"internalType":"address","name":"owner","type":"address"},{"internalType":"uint256","name":"index","type":"uint256"}],"name":"tokenOfOwnerByIndex","outputs":[{"internalType":"uint256","name":"","type":"uint256"}],"stateMutability":"view","type":"function"},{"inputs":[{"internalType":"uint256","name":"tokenId","type":"uint256"}],"name":"tokenURI","outputs":[{"internalType":"string","name":"","type":"string"}],"stateMutability":"view","type":"function"},{"inputs":[],"name":"totalSupply","outputs":[{"internalType":"uint256","name":"","type":"uint256"}],"stateMutability":"view","type":"function"},{"inputs":[{"internalType":"address","name":"from","type":"address"},{"internalType":"address","name":"to","type":"address"},{"internalType":"uint256","name":"tokenId","type":"uint256"}],"name":"transferFrom","outputs":[],"stateMutability":"nonpayable","type":"function"},{"inputs":[],"name":"twitterMinter","outputs":[{"internalType":"contract TwitterMinter","name":"","type":"address"}],"stateMutability":"view","type":"function"},{"inputs":[{"internalType":"address","name":"twitterMinterAddress","type":"address"}],"name":"updateTwitterMinterAddress","outputs":[],"stateMutability":"nonpayable","type":"function"}],"bytecode":"0x608060405234801561001057600080fd5b506131b8806100206000396000f3fe60806040526004361061021a5760003560e01c80636352211e11610123578063a56e0f1b116100ab578063d547741f1161006f578063d547741f1461062f578063e38f87a31461064f578063e63ab1e91461066f578063e985e9c5146106a3578063f9751b28146106ec57600080fd5b8063a56e0f1b14610580578063b88d4fde146105ad578063c87b56dd146105cd578063ca15c873146105ed578063d53913931461060d57600080fd5b806391d14854116100f257806391d148541461051657806395d89b41146105365780639ea8705e1461044e578063a217fddf1461054b578063a22cb4651461056057600080fd5b80636352211e146104a357806370a08231146104c35780638e8876b1146104e35780639010d07c146104f657600080fd5b80632f2ff15d116101a657806342842e0e1161017557806342842e0e1461040e57806342966c681461042e5780634cd88b761461044e5780634f6ccce71461046e57806361b20d8c1461048e57600080fd5b80632f2ff15d1461038d5780632f745c59146103ad57806336568abe146103cd5780633f4acc32146103ed57600080fd5b80630d8e6e2c116101ed5780630d8e6e2c146102d057806318160ddd146102fe57806323b872dd1461031d578063248a9ca31461033d5780632aedc3f91461036d57600080fd5b806301ffc9a71461021f57806306fdde0314610254578063081812fc14610276578063095ea7b3146102ae575b600080fd5b34801561022b57600080fd5b5061023f61023a366004612bf5565b61070c565b60405190151581526020015b60405180910390f35b34801561026057600080fd5b5061026961071d565b60405161024b9190612e7f565b34801561028257600080fd5b50610296610291366004612b9a565b6107af565b6040516001600160a01b03909116815260200161024b565b3480156102ba57600080fd5b506102ce6102c9366004612b71565b61083c565b005b3480156102dc57600080fd5b50604080518082019091526005815264312e302e3160d81b6020820152610269565b34801561030a57600080fd5b5060fd545b60405190815260200161024b565b34801561032957600080fd5b506102ce610338366004612a83565b610952565b34801561034957600080fd5b5061030f610358366004612b9a565b60009081526065602052604090206001015490565b34801561037957600080fd5b5061030f610388366004612cc1565b610984565b34801561039957600080fd5b506102ce6103a8366004612bb2565b610b0e565b3480156103b957600080fd5b5061030f6103c8366004612b71565b610b30565b3480156103d957600080fd5b506102ce6103e8366004612bb2565b610bc6565b3480156103f957600080fd5b5061019254610296906001600160a01b031681565b34801561041a57600080fd5b506102ce610429366004612a83565b610be8565b34801561043a57600080fd5b506102ce610449366004612b9a565b610c03565b34801561045a57600080fd5b506102ce610469366004612c60565b610c7d565b34801561047a57600080fd5b5061030f610489366004612b9a565b610cf4565b34801561049a57600080fd5b506102ce610d95565b3480156104af57600080fd5b506102966104be366004612b9a565b610e43565b3480156104cf57600080fd5b5061030f6104de366004612a37565b610eba565b6102ce6104f1366004612c60565b610f41565b34801561050257600080fd5b50610296610511366004612bd4565b610fb8565b34801561052257600080fd5b5061023f610531366004612bb2565b610fd7565b34801561054257600080fd5b50610269611002565b34801561055757600080fd5b5061030f600081565b34801561056c57600080fd5b506102ce61057b366004612b37565b611011565b34801561058c57600080fd5b506105a061059b366004612b9a565b6110d6565b60405161024b9190612fd7565b3480156105b957600080fd5b506102ce6105c8366004612abe565b61135d565b3480156105d957600080fd5b506102696105e8366004612b9a565b611395565b3480156105f957600080fd5b5061030f610608366004612b9a565b611433565b34801561061957600080fd5b5061030f60008051602061316383398151915281565b34801561063b57600080fd5b506102ce61064a366004612bb2565b61144a565b34801561065b57600080fd5b506105a061066a366004612c2d565b611454565b34801561067b57600080fd5b5061030f7f65d7a28e3265b37a6474929f336521b332c1681b933f6cb9f3376673440d862a81565b3480156106af57600080fd5b5061023f6106be366004612a51565b6001600160a01b03918216600090815260ce6020908152604080832093909416825291909152205460ff1690565b3480156106f857600080fd5b506102ce610707366004612a37565b611560565b600061071782611649565b92915050565b606060c9805461072c906130e5565b80601f0160208091040260200160405190810160405280929190818152602001828054610758906130e5565b80156107a55780601f1061077a576101008083540402835291602001916107a5565b820191906000526020600020905b81548152906001019060200180831161078857829003601f168201915b5050505050905090565b60006107ba8261166e565b6108205760405162461bcd60e51b815260206004820152602c60248201527f4552433732313a20617070726f76656420717565727920666f72206e6f6e657860448201526b34b9ba32b73a103a37b5b2b760a11b60648201526084015b60405180910390fd5b50600090815260cd60205260409020546001600160a01b031690565b600061084782610e43565b9050806001600160a01b0316836001600160a01b031614156108b55760405162461bcd60e51b815260206004820152602160248201527f4552433732313a20617070726f76616c20746f2063757272656e74206f776e656044820152603960f91b6064820152608401610817565b336001600160a01b03821614806108d157506108d181336106be565b6109435760405162461bcd60e51b815260206004820152603860248201527f4552433732313a20617070726f76652063616c6c6572206973206e6f74206f7760448201527f6e6572206e6f7220617070726f76656420666f7220616c6c00000000000000006064820152608401610817565b61094d838361168b565b505050565b61095d335b826116f9565b6109795760405162461bcd60e51b815260040161081790612f86565b61094d8383836117df565b600080858560405160200161099a929190612d9e565b60405160208183030381529060405290506109d3610190826040516109bf9190612d82565b90815260200160405180910390205461166e565b15610a3d5760405162461bcd60e51b815260206004820152603460248201527f4f776e596f7572536f6369616c4e6574776f726b3a20546865206163636f756e6044820152731d081dd85cc8185b1c9958591e481b5a5b9d195960621b6064820152608401610817565b6000610a488461198a565b6000818152610191602090815260409091208281556001810180546001600160a01b0319166001600160a01b0389161790558951929350610a91926002909101918a01906128b5565b506000818152610191602090815260409091208751610ab8926003909201918901906128b5565b506000818152610191602090815260409091208651610adf926004909201918801906128b5565b508061019083604051610af29190612d82565b908152604051908190036020019020559150505b949350505050565b610b188282611a49565b600082815260976020526040902061094d9082611a6f565b6000610b3b83610eba565b8210610b9d5760405162461bcd60e51b815260206004820152602b60248201527f455243373231456e756d657261626c653a206f776e657220696e646578206f7560448201526a74206f6620626f756e647360a81b6064820152608401610817565b506001600160a01b0391909116600090815260fb60209081526040808320938352929052205490565b610bd08282611a84565b600082815260976020526040902061094d9082611b02565b61094d8383836040518060200160405280600081525061135d565b610c0c33610957565b610c715760405162461bcd60e51b815260206004820152603060248201527f4552433732314275726e61626c653a2063616c6c6572206973206e6f74206f7760448201526f1b995c881b9bdc88185c1c1c9bdd995960821b6064820152608401610817565b610c7a81611b17565b50565b600054610100900460ff1680610c96575060005460ff16155b610cb25760405162461bcd60e51b815260040161081790612f38565b600054610100900460ff16158015610cd4576000805461ffff19166101011790555b610cde8383611bbe565b801561094d576000805461ff0019169055505050565b6000610cff60fd5490565b8210610d625760405162461bcd60e51b815260206004820152602c60248201527f455243373231456e756d657261626c653a20676c6f62616c20696e646578206f60448201526b7574206f6620626f756e647360a01b6064820152608401610817565b60fd8281548110610d8357634e487b7160e01b600052603260045260246000fd5b90600052602060002001549050919050565b610dbf7f65d7a28e3265b37a6474929f336521b332c1681b933f6cb9f3376673440d862a33610fd7565b610e175760405162461bcd60e51b815260206004820152602360248201527f455243373231437573746f6d3a206d75737420686176652070617573657220726044820152626f6c6560e81b6064820152608401610817565b60405133904780156108fc02916000818181858888f19350505050158015610c7a573d6000803e3d6000fd5b600081815260cb60205260408120546001600160a01b0316806107175760405162461bcd60e51b815260206004820152602960248201527f4552433732313a206f776e657220717565727920666f72206e6f6e657869737460448201526832b73a103a37b5b2b760b91b6064820152608401610817565b60006001600160a01b038216610f255760405162461bcd60e51b815260206004820152602a60248201527f4552433732313a2062616c616e636520717565727920666f7220746865207a65604482015269726f206164647265737360b01b6064820152608401610817565b506001600160a01b0316600090815260cc602052604090205490565b610192546001600160a01b03166329b1164f348484336040516001600160e01b031960e087901b168152610f82939291903090632aedc3f990600401612e92565b6000604051808303818588803b158015610f9b57600080fd5b505af1158015610faf573d6000803e3d6000fd5b50505050505050565b6000828152609760205260408120610fd09083611c57565b9392505050565b60009182526065602090815260408084206001600160a01b0393909316845291905290205460ff1690565b606060ca805461072c906130e5565b6001600160a01b03821633141561106a5760405162461bcd60e51b815260206004820152601960248201527f4552433732313a20617070726f766520746f2063616c6c6572000000000000006044820152606401610817565b33600081815260ce602090815260408083206001600160a01b03871680855290835292819020805460ff191686151590811790915590519081529192917f17307eab39ab6107e8899845ad3d59bd9653f200f220920489ca2b5937696c31910160405180910390a35050565b6110de612939565b6110e78261166e565b6111655760405162461bcd60e51b815260206004820152604360248201527f4f776e596f7572536f6369616c4e6574776f726b3a20476574206f776e65642060448201527f6163636f756e7420717565727920666f72206e6f6e6578697374656e7420746f60648201526235b2b760e91b608482015260a401610817565b60008281526101916020908152604091829020825160a0810184528154815260018201546001600160a01b03169281019290925260028101805492939192918401916111b0906130e5565b80601f01602080910402602001604051908101604052809291908181526020018280546111dc906130e5565b80156112295780601f106111fe57610100808354040283529160200191611229565b820191906000526020600020905b81548152906001019060200180831161120c57829003601f168201915b50505050508152602001600382018054611242906130e5565b80601f016020809104026020016040519081016040528092919081815260200182805461126e906130e5565b80156112bb5780601f10611290576101008083540402835291602001916112bb565b820191906000526020600020905b81548152906001019060200180831161129e57829003601f168201915b505050505081526020016004820180546112d4906130e5565b80601f0160208091040260200160405190810160405280929190818152602001828054611300906130e5565b801561134d5780601f106113225761010080835404028352916020019161134d565b820191906000526020600020905b81548152906001019060200180831161133057829003601f168201915b5050505050815250509050919050565b61136733836116f9565b6113835760405162461bcd60e51b815260040161081790612f86565b61138f84848484611c63565b50505050565b60606113a08261166e565b6114045760405162461bcd60e51b815260206004820152602f60248201527f4552433732314d657461646174613a2055524920717565727920666f72206e6f60448201526e3732bc34b9ba32b73a103a37b5b2b760891b6064820152608401610817565b50506040805180820190915260138152721393d508125354131153515395115108165155606a1b602082015290565b600081815260976020526040812061071790611c96565b610bd08282611ca0565b61145c612939565b611470610190836040516109bf9190612d82565b6114d95760405162461bcd60e51b815260206004820152603460248201527f4f776e596f7572536f6369616c4e6574776f726b3a20546865206163636f756e6044820152731d081dd85cc81b9bdd081e595d081b5a5b9d195960621b6064820152608401610817565b6101916000610190846040516114ef9190612d82565b90815260200160405180910390205481526020019081526020016000206040518060a0016040529081600082015481526020016001820160009054906101000a90046001600160a01b03166001600160a01b03166001600160a01b031681526020016002820180546111b0906130e5565b61156b600033610fd7565b6115ef5760405162461bcd60e51b815260206004820152604960248201527f4f776e596f7572536f6369616c4e6574776f726b3a206d75737420686176652060448201527f6d696e74657220726f6c6520746f20757064617465547769747465724d696e7460648201526865724164647265737360b81b608482015260a401610817565b6101925461161590600080516020613163833981519152906001600160a01b031661144a565b61019280546001600160a01b0319166001600160a01b038316179055610c7a60008051602061316383398151915282611cc6565b60006001600160e01b0319821663780e9d6360e01b1480610717575061071782611cd0565b600090815260cb60205260409020546001600160a01b0316151590565b600081815260cd6020526040902080546001600160a01b0319166001600160a01b03841690811790915581906116c082610e43565b6001600160a01b03167f8c5be1e5ebec7d5bd14f71427d1e84f3dd0314c0f7b2291e5b200ac8c7c3b92560405160405180910390a45050565b60006117048261166e565b6117655760405162461bcd60e51b815260206004820152602c60248201527f4552433732313a206f70657261746f7220717565727920666f72206e6f6e657860448201526b34b9ba32b73a103a37b5b2b760a11b6064820152608401610817565b600061177083610e43565b9050806001600160a01b0316846001600160a01b031614806117ab5750836001600160a01b03166117a0846107af565b6001600160a01b0316145b80610b0657506001600160a01b03808216600090815260ce602090815260408083209388168352929052205460ff16610b06565b826001600160a01b03166117f282610e43565b6001600160a01b03161461185a5760405162461bcd60e51b815260206004820152602960248201527f4552433732313a207472616e73666572206f6620746f6b656e2074686174206960448201526839903737ba1037bbb760b91b6064820152608401610817565b6001600160a01b0382166118bc5760405162461bcd60e51b8152602060048201526024808201527f4552433732313a207472616e7366657220746f20746865207a65726f206164646044820152637265737360e01b6064820152608401610817565b6118c7838383611d10565b6118d260008261168b565b6001600160a01b038316600090815260cc602052604081208054600192906118fb90849061308b565b90915550506001600160a01b038216600090815260cc60205260408120805460019290611929908490613054565b9091555050600081815260cb602052604080822080546001600160a01b0319166001600160a01b0386811691821790925591518493918716917fddf252ad1be2c89b69c2b068fc378daa952ba7f163c4a11628f55a4df523b3ef91a4505050565b60006119a460008051602061316383398151915233610fd7565b6040516020016119eb907f455243373231437573746f6d3a206d7573742068617665206d696e746572207281526a1bdb19481d1bc81b5a5b9d60aa1b6020820152602b0190565b60405160208183030381529060405290611a185760405162461bcd60e51b81526004016108179190612e7f565b506000611a2561015f5490565b9050611a3a83611a3561015f5490565b611d1b565b61071761015f80546001019055565b600082815260656020526040902060010154611a658133611e5a565b61094d8383611ebe565b6000610fd0836001600160a01b038416611f44565b6001600160a01b0381163314611af45760405162461bcd60e51b815260206004820152602f60248201527f416363657373436f6e74726f6c3a2063616e206f6e6c792072656e6f756e636560448201526e103937b632b9903337b91039b2b63360891b6064820152608401610817565b611afe8282611f93565b5050565b6000610fd0836001600160a01b038416611ffa565b6000611b2282610e43565b9050611b3081600084611d10565b611b3b60008361168b565b6001600160a01b038116600090815260cc60205260408120805460019290611b6490849061308b565b9091555050600082815260cb602052604080822080546001600160a01b0319169055518391906001600160a01b038416907fddf252ad1be2c89b69c2b068fc378daa952ba7f163c4a11628f55a4df523b3ef908390a45050565b600054610100900460ff1680611bd7575060005460ff16155b611bf35760405162461bcd60e51b815260040161081790612f38565b600054610100900460ff16158015611c15576000805461ffff19166101011790555b611c1d612117565b611c25612117565b611c2d612117565b611c35612117565b611c3f8383612182565b611c47612117565b611c4f612117565b610cde612217565b6000610fd083836122bb565b611c6e8484846117df565b611c7a848484846122f3565b61138f5760405162461bcd60e51b815260040161081790612ee6565b6000610717825490565b600082815260656020526040902060010154611cbc8133611e5a565b61094d8383611f93565b610b1882826123fd565b60006001600160e01b031982166380ac58cd60e01b1480611d0157506001600160e01b03198216635b5e139f60e01b145b80610717575061071782612407565b61094d83838361242c565b6001600160a01b038216611d715760405162461bcd60e51b815260206004820181905260248201527f4552433732313a206d696e7420746f20746865207a65726f20616464726573736044820152606401610817565b611d7a8161166e565b15611dc75760405162461bcd60e51b815260206004820152601c60248201527f4552433732313a20746f6b656e20616c7265616479206d696e746564000000006044820152606401610817565b611dd360008383611d10565b6001600160a01b038216600090815260cc60205260408120805460019290611dfc908490613054565b9091555050600081815260cb602052604080822080546001600160a01b0319166001600160a01b03861690811790915590518392907fddf252ad1be2c89b69c2b068fc378daa952ba7f163c4a11628f55a4df523b3ef908290a45050565b611e648282610fd7565b611afe57611e7c816001600160a01b031660146124e4565b611e878360206124e4565b604051602001611e98929190612dcd565b60408051601f198184030181529082905262461bcd60e51b825261081791600401612e7f565b611ec88282610fd7565b611afe5760008281526065602090815260408083206001600160a01b03851684529091529020805460ff19166001179055611f003390565b6001600160a01b0316816001600160a01b0316837f2f8788117e7eff1d82e926ec794901d17c78024a50270940304540a733656f0d60405160405180910390a45050565b6000818152600183016020526040812054611f8b57508154600181810184556000848152602080822090930184905584548482528286019093526040902091909155610717565b506000610717565b611f9d8282610fd7565b15611afe5760008281526065602090815260408083206001600160a01b0385168085529252808320805460ff1916905551339285917ff6391f5c32d9c69d2a47ea670b442974b53935d1edc7fd64eb21e047a839171b9190a45050565b6000818152600183016020526040812054801561210d57600061201e60018361308b565b85549091506000906120329060019061308b565b90508181146120b357600086600001828154811061206057634e487b7160e01b600052603260045260246000fd5b906000526020600020015490508087600001848154811061209157634e487b7160e01b600052603260045260246000fd5b6000918252602080832090910192909255918252600188019052604090208390555b85548690806120d257634e487b7160e01b600052603160045260246000fd5b600190038181906000526020600020016000905590558560010160008681526020019081526020016000206000905560019350505050610717565b6000915050610717565b600054610100900460ff1680612130575060005460ff16155b61214c5760405162461bcd60e51b815260040161081790612f38565b600054610100900460ff1615801561216e576000805461ffff19166101011790555b8015610c7a576000805461ff001916905550565b600054610100900460ff168061219b575060005460ff16155b6121b75760405162461bcd60e51b815260040161081790612f38565b600054610100900460ff161580156121d9576000805461ffff19166101011790555b82516121ec9060c99060208601906128b5565b5081516122009060ca9060208501906128b5565b50801561094d576000805461ff0019169055505050565b600054610100900460ff1680612230575060005460ff16155b61224c5760405162461bcd60e51b815260040161081790612f38565b600054610100900460ff1615801561226e576000805461ffff19166101011790555b612279600033611cc6565b61229160008051602061316383398151915233611cc6565b61216e7f65d7a28e3265b37a6474929f336521b332c1681b933f6cb9f3376673440d862a33611cc6565b60008260000182815481106122e057634e487b7160e01b600052603260045260246000fd5b9060005260206000200154905092915050565b60006001600160a01b0384163b156123f557604051630a85bd0160e11b81526001600160a01b0385169063150b7a0290612337903390899088908890600401612e42565b602060405180830381600087803b15801561235157600080fd5b505af1925050508015612381575060408051601f3d908101601f1916820190925261237e91810190612c11565b60015b6123db573d8080156123af576040519150601f19603f3d011682016040523d82523d6000602084013e6123b4565b606091505b5080516123d35760405162461bcd60e51b815260040161081790612ee6565b805181602001fd5b6001600160e01b031916630a85bd0160e11b149050610b06565b506001610b06565b611afe8282611ebe565b60006001600160e01b03198216635a05180f60e01b14806107175750610717826126c6565b6001600160a01b038316612487576124828160fd8054600083815260fe60205260408120829055600182018355919091527f9346ac6dd7de6b96975fec380d4d994c4c12e6a8897544f22915316cc6cca2800155565b6124aa565b816001600160a01b0316836001600160a01b0316146124aa576124aa83826126fb565b6001600160a01b0382166124c15761094d81612798565b826001600160a01b0316826001600160a01b03161461094d5761094d8282612871565b606060006124f383600261306c565b6124fe906002613054565b67ffffffffffffffff81111561252457634e487b7160e01b600052604160045260246000fd5b6040519080825280601f01601f19166020018201604052801561254e576020820181803683370190505b509050600360fc1b8160008151811061257757634e487b7160e01b600052603260045260246000fd5b60200101906001600160f81b031916908160001a905350600f60fb1b816001815181106125b457634e487b7160e01b600052603260045260246000fd5b60200101906001600160f81b031916908160001a90535060006125d884600261306c565b6125e3906001613054565b90505b6001811115612677576f181899199a1a9b1b9c1cb0b131b232b360811b85600f166010811061262557634e487b7160e01b600052603260045260246000fd5b1a60f81b82828151811061264957634e487b7160e01b600052603260045260246000fd5b60200101906001600160f81b031916908160001a90535060049490941c93612670816130ce565b90506125e6565b508315610fd05760405162461bcd60e51b815260206004820181905260248201527f537472696e67733a20686578206c656e67746820696e73756666696369656e746044820152606401610817565b60006001600160e01b03198216637965db0b60e01b148061071757506301ffc9a760e01b6001600160e01b0319831614610717565b6000600161270884610eba565b612712919061308b565b600083815260fc6020526040902054909150808214612765576001600160a01b038416600090815260fb60209081526040808320858452825280832054848452818420819055835260fc90915290208190555b50600091825260fc602090815260408084208490556001600160a01b03909416835260fb81528383209183525290812055565b60fd546000906127aa9060019061308b565b600083815260fe602052604081205460fd80549394509092849081106127e057634e487b7160e01b600052603260045260246000fd5b906000526020600020015490508060fd838154811061280f57634e487b7160e01b600052603260045260246000fd5b600091825260208083209091019290925582815260fe909152604080822084905585825281205560fd80548061285557634e487b7160e01b600052603160045260246000fd5b6001900381819060005260206000200160009055905550505050565b600061287c83610eba565b6001600160a01b03909316600090815260fb60209081526040808320868452825280832085905593825260fc9052919091209190915550565b8280546128c1906130e5565b90600052602060002090601f0160209004810192826128e35760008555612929565b82601f106128fc57805160ff1916838001178555612929565b82800160010185558215612929579182015b8281111561292957825182559160200191906001019061290e565b50612935929150612971565b5090565b6040518060a001604052806000815260200160006001600160a01b031681526020016060815260200160608152602001606081525090565b5b808211156129355760008155600101612972565b600067ffffffffffffffff808411156129a1576129a1613136565b604051601f8501601f19908116603f011681019082821181831017156129c9576129c9613136565b816040528093508581528686860111156129e257600080fd5b858560208301376000602087830101525050509392505050565b80356001600160a01b0381168114612a1357600080fd5b919050565b600082601f830112612a28578081fd5b610fd083833560208501612986565b600060208284031215612a48578081fd5b610fd0826129fc565b60008060408385031215612a63578081fd5b612a6c836129fc565b9150612a7a602084016129fc565b90509250929050565b600080600060608486031215612a97578081fd5b612aa0846129fc565b9250612aae602085016129fc565b9150604084013590509250925092565b60008060008060808587031215612ad3578081fd5b612adc856129fc565b9350612aea602086016129fc565b925060408501359150606085013567ffffffffffffffff811115612b0c578182fd5b8501601f81018713612b1c578182fd5b612b2b87823560208401612986565b91505092959194509250565b60008060408385031215612b49578182fd5b612b52836129fc565b915060208301358015158114612b66578182fd5b809150509250929050565b60008060408385031215612b83578182fd5b612b8c836129fc565b946020939093013593505050565b600060208284031215612bab578081fd5b5035919050565b60008060408385031215612bc4578182fd5b82359150612a7a602084016129fc565b60008060408385031215612be6578182fd5b50508035926020909101359150565b600060208284031215612c06578081fd5b8135610fd08161314c565b600060208284031215612c22578081fd5b8151610fd08161314c565b600060208284031215612c3e578081fd5b813567ffffffffffffffff811115612c54578182fd5b610b0684828501612a18565b60008060408385031215612c72578182fd5b823567ffffffffffffffff80821115612c89578384fd5b612c9586838701612a18565b93506020850135915080821115612caa578283fd5b50612cb785828601612a18565b9150509250929050565b60008060008060808587031215612cd6578182fd5b843567ffffffffffffffff80821115612ced578384fd5b612cf988838901612a18565b95506020870135915080821115612d0e578384fd5b612d1a88838901612a18565b94506040870135915080821115612d2f578384fd5b50612d3c87828801612a18565b925050612d4b606086016129fc565b905092959194509250565b60008151808452612d6e8160208601602086016130a2565b601f01601f19169290920160200192915050565b60008251612d948184602087016130a2565b9190910192915050565b60008351612db08184602088016130a2565b835190830190612dc48183602088016130a2565b01949350505050565b7f416363657373436f6e74726f6c3a206163636f756e7420000000000000000000815260008351612e058160178501602088016130a2565b7001034b99036b4b9b9b4b733903937b6329607d1b6017918401918201528351612e368160288401602088016130a2565b01602801949350505050565b6001600160a01b0385811682528416602082015260408101839052608060608201819052600090612e7590830184612d56565b9695505050505050565b602081526000610fd06020830184612d56565b608081526000612ea56080830188612d56565b8281036020840152612eb78188612d56565b91505060018060a01b038516604083015263ffffffff83168460201b1760401b60608301529695505050505050565b60208082526032908201527f4552433732313a207472616e7366657220746f206e6f6e20455243373231526560408201527131b2b4bb32b91034b6b83632b6b2b73a32b960711b606082015260800190565b6020808252602e908201527f496e697469616c697a61626c653a20636f6e747261637420697320616c72656160408201526d191e481a5b9a5d1a585b1a5e995960921b606082015260800190565b60208082526031908201527f4552433732313a207472616e736665722063616c6c6572206973206e6f74206f6040820152701ddb995c881b9bdc88185c1c1c9bdd9959607a1b606082015260800190565b602081528151602082015260018060a01b0360208301511660408201526000604083015160a0606084015261300f60c0840182612d56565b90506060840151601f198085840301608086015261302d8383612d56565b925060808601519150808584030160a08601525061304b8282612d56565b95945050505050565b6000821982111561306757613067613120565b500190565b600081600019048311821515161561308657613086613120565b500290565b60008282101561309d5761309d613120565b500390565b60005b838110156130bd5781810151838201526020016130a5565b8381111561138f5750506000910152565b6000816130dd576130dd613120565b506000190190565b600181811c908216806130f957607f821691505b6020821081141561311a57634e487b7160e01b600052602260045260246000fd5b50919050565b634e487b7160e01b600052601160045260246000fd5b634e487b7160e01b600052604160045260246000fd5b6001600160e01b031981168114610c7a57600080fdfe9f2df0fed2c77648de5860a4cc508cd0818c85b8b8a1ab4ceeef8d981c8956a6a26469706673582212208c703d722d332237fbfcb9bf101be2d1e32c0ae2d160b5f883bd45516b658fbb64736f6c63430008040033","linkReferences":{},"deployedLinkReferences":{}}