{"_format":"hh-sol-artifact-1","contractName":"TwitterMinter","sourceName":"contracts/minters/TwitterMinter.sol","abi":[{"inputs":[{"internalType":"address","name":"twitterAuthOracleAddress","type":"address"}],"stateMutability":"nonpayable","type":"constructor"},{"anonymous":false,"inputs":[{"indexed":true,"internalType":"bytes32","name":"role","type":"bytes32"},{"indexed":true,"internalType":"bytes32","name":"previousAdminRole","type":"bytes32"},{"indexed":true,"internalType":"bytes32","name":"newAdminRole","type":"bytes32"}],"name":"RoleAdminChanged","type":"event"},{"anonymous":false,"inputs":[{"indexed":true,"internalType":"bytes32","name":"role","type":"bytes32"},{"indexed":true,"internalType":"address","name":"account","type":"address"},{"indexed":true,"internalType":"address","name":"sender","type":"address"}],"name":"RoleGranted","type":"event"},{"anonymous":false,"inputs":[{"indexed":true,"internalType":"bytes32","name":"role","type":"bytes32"},{"indexed":true,"internalType":"address","name":"account","type":"address"},{"indexed":true,"internalType":"address","name":"sender","type":"address"}],"name":"RoleRevoked","type":"event"},{"anonymous":false,"inputs":[{"indexed":true,"internalType":"uint256","name":"requestId","type":"uint256"},{"indexed":false,"internalType":"string","name":"error","type":"string"}],"name":"TwitterAuthRequestFailed","type":"event"},{"anonymous":false,"inputs":[{"indexed":true,"internalType":"address","name":"sender","type":"address"},{"indexed":false,"internalType":"uint256","name":"requestId","type":"uint256"}],"name":"TwitterAuthRequestSubmited","type":"event"},{"anonymous":false,"inputs":[{"indexed":true,"internalType":"uint256","name":"requestId","type":"uint256"},{"indexed":false,"internalType":"uint256","name":"tokenId","type":"uint256"}],"name":"TwitterAuthRequestSucceeded","type":"event"},{"inputs":[],"name":"ADMIN_ROLE","outputs":[{"internalType":"bytes32","name":"","type":"bytes32"}],"stateMutability":"view","type":"function"},{"inputs":[],"name":"DEFAULT_ADMIN_ROLE","outputs":[{"internalType":"bytes32","name":"","type":"bytes32"}],"stateMutability":"view","type":"function"},{"inputs":[],"name":"USER_ROLE","outputs":[{"internalType":"bytes32","name":"","type":"bytes32"}],"stateMutability":"view","type":"function"},{"inputs":[{"internalType":"uint256","name":"reqId","type":"uint256"},{"internalType":"string","name":"err","type":"string"}],"name":"failMint","outputs":[],"stateMutability":"nonpayable","type":"function"},{"inputs":[],"name":"getPriceWEI","outputs":[{"internalType":"uint256","name":"","type":"uint256"}],"stateMutability":"view","type":"function"},{"inputs":[{"internalType":"bytes32","name":"role","type":"bytes32"}],"name":"getRoleAdmin","outputs":[{"internalType":"bytes32","name":"","type":"bytes32"}],"stateMutability":"view","type":"function"},{"inputs":[{"internalType":"bytes32","name":"role","type":"bytes32"},{"internalType":"address","name":"account","type":"address"}],"name":"grantRole","outputs":[],"stateMutability":"nonpayable","type":"function"},{"inputs":[{"internalType":"bytes32","name":"role","type":"bytes32"},{"internalType":"address","name":"account","type":"address"}],"name":"hasRole","outputs":[{"internalType":"bool","name":"","type":"bool"}],"stateMutability":"view","type":"function"},{"inputs":[],"name":"oracle","outputs":[{"internalType":"contract TwitterAuthOracle","name":"","type":"address"}],"stateMutability":"view","type":"function"},{"inputs":[{"internalType":"bytes32","name":"role","type":"bytes32"},{"internalType":"address","name":"account","type":"address"}],"name":"renounceRole","outputs":[],"stateMutability":"nonpayable","type":"function"},{"inputs":[{"internalType":"bytes32","name":"role","type":"bytes32"},{"internalType":"address","name":"account","type":"address"}],"name":"revokeRole","outputs":[],"stateMutability":"nonpayable","type":"function"},{"inputs":[{"internalType":"string","name":"oauthToken","type":"string"},{"internalType":"string","name":"oauthVerifier","type":"string"},{"internalType":"address","name":"owner","type":"address"},{"internalType":"function (string,string,string,address) external returns (uint256)","name":"cb","type":"function"}],"name":"startMint","outputs":[],"stateMutability":"payable","type":"function"},{"inputs":[{"components":[{"internalType":"uint256","name":"requestId","type":"uint256"},{"internalType":"string","name":"screenName","type":"string"},{"internalType":"string","name":"userId","type":"string"},{"internalType":"address","name":"owner","type":"address"}],"internalType":"struct TwitterAuthData.Response","name":"res","type":"tuple"}],"name":"succeedMint","outputs":[],"stateMutability":"nonpayable","type":"function"},{"inputs":[{"internalType":"bytes4","name":"interfaceId","type":"bytes4"}],"name":"supportsInterface","outputs":[{"internalType":"bool","name":"","type":"bool"}],"stateMutability":"view","type":"function"}],"bytecode":"0x60806040523480156200001157600080fd5b5060405162001252380380620012528339810160408190526200003491620001b8565b600180546001600160a01b0319166001600160a01b03831617905562000071600080516020620012328339815191526200006b3390565b620000bd565b6200009b6000805160206200123283398151915260008051602062001212833981519152620000cd565b620000b66000805160206200121283398151915282620000bd565b50620001e8565b620000c9828262000118565b5050565b600082815260208190526040808220600101805490849055905190918391839186917fbd79b86ffe0ab8e8776151514217cd7cacd52c909f66475c3af44e129f0b00ff9190a4505050565b6000828152602081815260408083206001600160a01b038516845290915290205460ff16620000c9576000828152602081815260408083206001600160a01b03851684529091529020805460ff19166001179055620001743390565b6001600160a01b0316816001600160a01b0316837f2f8788117e7eff1d82e926ec794901d17c78024a50270940304540a733656f0d60405160405180910390a45050565b600060208284031215620001ca578081fd5b81516001600160a01b0381168114620001e1578182fd5b9392505050565b61101a80620001f86000396000f3fe6080604052600436106100dd5760003560e01c806336568abe1161007f57806391d148541161005957806391d148541461028a578063a217fddf146102aa578063d547741f146102bf578063ee0f9d3b146102df57600080fd5b806336568abe146101fe57806375b238fc1461021e5780637dc0d1d01461025257600080fd5b80631ed6c886116100bb5780631ed6c8861461017b578063248a9ca31461019b57806329b1164f146101cb5780632f2ff15d146101de57600080fd5b806301ffc9a7146100e25780630b84be38146101175780631311916114610139575b600080fd5b3480156100ee57600080fd5b506101026100fd366004610b7f565b6102f4565b60405190151581526020015b60405180910390f35b34801561012357600080fd5b50610137610132366004610d0a565b61032b565b005b34801561014557600080fd5b5061016d7f14823911f2da1b49f045a0929a60b8c1f2a7fc8c06c7284ca3e8ab4e193a08c881565b60405190815260200161010e565b34801561018757600080fd5b50610137610196366004610c4b565b610393565b3480156101a757600080fd5b5061016d6101b6366004610b3c565b60009081526020819052604090206001015490565b6101376101d9366004610ba7565b6104bb565b3480156101ea57600080fd5b506101376101f9366004610b54565b6105e4565b34801561020a57600080fd5b50610137610219366004610b54565b61060f565b34801561022a57600080fd5b5061016d7fa49807205ce4d355092ef5a8a18f56e8913cf4a201fbe287825b095693c2177581565b34801561025e57600080fd5b50600154610272906001600160a01b031681565b6040516001600160a01b03909116815260200161010e565b34801561029657600080fd5b506101026102a5366004610b54565b610692565b3480156102b657600080fd5b5061016d600081565b3480156102cb57600080fd5b506101376102da366004610b54565b6106bb565b3480156102eb57600080fd5b5061016d6106e1565b60006001600160e01b03198216637965db0b60e01b148061032557506301ffc9a760e01b6001600160e01b03198316145b92915050565b7f14823911f2da1b49f045a0929a60b8c1f2a7fc8c06c7284ca3e8ab4e193a08c86103568133610763565b827ffaaf030a237696352029447cf0ba20b79bcbdd4aa458af2d1de1ad993fe5445f836040516103869190610e2c565b60405180910390a2505050565b7f14823911f2da1b49f045a0929a60b8c1f2a7fc8c06c7284ca3e8ab4e193a08c86103be8133610763565b8151600090815260026020908152604080832054818601518387015192516001600160a01b0383861c169463ffffffff9093169391926103ff929101610d7b565b60408051601f198184030181529082905260608801516001600160e01b031960e086901b1683526104339392600401610eb5565b602060405180830381600087803b15801561044d57600080fd5b505af1158015610461573d6000803e3d6000fd5b505050506040513d601f19601f820116820180604052508101906104859190610cf2565b8351604051828152919250907f882c4362c393268eb160b6ae4ecb7d97739d6d962bff8297f7f72b2af01d799f90602001610386565b60015460405163cb2859b160e01b81526000916001600160a01b03169063cb2859b1903490610502908a908a908a903090631ed6c886908290630b84be3890600401610e3f565b6020604051808303818588803b15801561051b57600080fd5b505af115801561052f573d6000803e3d6000fd5b50505050506040513d601f19601f820116820180604052508101906105549190610cf2565b604080516020808201835263ffffffff86811688831b17841b8352600085815260028352849020925183546001600160c01b03191690851c918216640100000000600160c01b03929092169190911717909155905182815291925033917f6a2696e81bc18547598d0b304f71f9ec1735b6b43abe58220d183bb3c260d0fb910160405180910390a2505050505050565b6000828152602081905260409020600101546106008133610763565b61060a83836107c7565b505050565b6001600160a01b03811633146106845760405162461bcd60e51b815260206004820152602f60248201527f416363657373436f6e74726f6c3a2063616e206f6e6c792072656e6f756e636560448201526e103937b632b9903337b91039b2b63360891b60648201526084015b60405180910390fd5b61068e828261084b565b5050565b6000918252602082815260408084206001600160a01b0393909316845291905290205460ff1690565b6000828152602081905260409020600101546106d78133610763565b61060a838361084b565b600154604080516378bb750960e11b815290516000926001600160a01b03169163f176ea12916004808301926020929190829003018186803b15801561072657600080fd5b505afa15801561073a573d6000803e3d6000fd5b505050506040513d601f19601f8201168201806040525081019061075e9190610cf2565b905090565b61076d8282610692565b61068e57610785816001600160a01b031660146108b0565b6107908360206108b0565b6040516020016107a1929190610db7565b60408051601f198184030181529082905262461bcd60e51b825261067b91600401610e2c565b6107d18282610692565b61068e576000828152602081815260408083206001600160a01b03851684529091529020805460ff191660011790556108073390565b6001600160a01b0316816001600160a01b0316837f2f8788117e7eff1d82e926ec794901d17c78024a50270940304540a733656f0d60405160405180910390a45050565b6108558282610692565b1561068e576000828152602081815260408083206001600160a01b0385168085529252808320805460ff1916905551339285917ff6391f5c32d9c69d2a47ea670b442974b53935d1edc7fd64eb21e047a839171b9190a45050565b606060006108bf836002610f52565b6108ca906002610f3a565b67ffffffffffffffff8111156108f057634e487b7160e01b600052604160045260246000fd5b6040519080825280601f01601f19166020018201604052801561091a576020820181803683370190505b509050600360fc1b8160008151811061094357634e487b7160e01b600052603260045260246000fd5b60200101906001600160f81b031916908160001a905350600f60fb1b8160018151811061098057634e487b7160e01b600052603260045260246000fd5b60200101906001600160f81b031916908160001a90535060006109a4846002610f52565b6109af906001610f3a565b90505b6001811115610a43576f181899199a1a9b1b9c1cb0b131b232b360811b85600f16601081106109f157634e487b7160e01b600052603260045260246000fd5b1a60f81b828281518110610a1557634e487b7160e01b600052603260045260246000fd5b60200101906001600160f81b031916908160001a90535060049490941c93610a3c81610fa1565b90506109b2565b508315610a925760405162461bcd60e51b815260206004820181905260248201527f537472696e67733a20686578206c656e67746820696e73756666696369656e74604482015260640161067b565b9392505050565b80356001600160a01b0381168114610ab057600080fd5b919050565b600082601f830112610ac5578081fd5b813567ffffffffffffffff80821115610ae057610ae0610fce565b604051601f8301601f19908116603f01168101908282118183101715610b0857610b08610fce565b81604052838152866020858801011115610b20578485fd5b8360208701602083013792830160200193909352509392505050565b600060208284031215610b4d578081fd5b5035919050565b60008060408385031215610b66578081fd5b82359150610b7660208401610a99565b90509250929050565b600060208284031215610b90578081fd5b81356001600160e01b031981168114610a92578182fd5b600080600080600060808688031215610bbe578081fd5b853567ffffffffffffffff80821115610bd5578283fd5b610be189838a01610ab5565b96506020880135915080821115610bf6578283fd5b50610c0388828901610ab5565b945050610c1260408701610a99565b9250606086013567ffffffffffffffff1981168114610c2f578182fd5b94979396509194505050606082901c9160401c63ffffffff1690565b600060208284031215610c5c578081fd5b813567ffffffffffffffff80821115610c73578283fd5b9083019060808286031215610c86578283fd5b610c8e610f11565b82358152602083013582811115610ca3578485fd5b610caf87828601610ab5565b602083015250604083013582811115610cc6578485fd5b610cd287828601610ab5565b604083015250610ce460608401610a99565b606082015295945050505050565b600060208284031215610d03578081fd5b5051919050565b60008060408385031215610d1c578182fd5b82359150602083013567ffffffffffffffff811115610d39578182fd5b610d4585828601610ab5565b9150509250929050565b60008151808452610d67816020860160208601610f71565b601f01601f19169290920160200192915050565b7368747470733a2f2f747769747465722e636f6d2f60601b815260008251610daa816014850160208701610f71565b9190910160140192915050565b7f416363657373436f6e74726f6c3a206163636f756e7420000000000000000000815260008351610def816017850160208801610f71565b7001034b99036b4b9b9b4b733903937b6329607d1b6017918401918201528351610e20816028840160208801610f71565b01602801949350505050565b602081526000610a926020830184610d4f565b60a081526000610e5260a083018a610d4f565b8281036020840152610e64818a610d4f565b6001600160a01b03891660408501529150610e94905060608301868860201b63ffffffff919091161760401b9052565b63ffffffff8316602085901b1760401b608083015298975050505050505050565b6080815260076080820152663a3bb4ba3a32b960c91b60a082015260c060208201526000610ee660c0830186610d4f565b8281036040840152610ef88186610d4f565b91505060018060a01b0383166060830152949350505050565b6040516080810167ffffffffffffffff81118282101715610f3457610f34610fce565b60405290565b60008219821115610f4d57610f4d610fb8565b500190565b6000816000190483118215151615610f6c57610f6c610fb8565b500290565b60005b83811015610f8c578181015183820152602001610f74565b83811115610f9b576000848401525b50505050565b600081610fb057610fb0610fb8565b506000190190565b634e487b7160e01b600052601160045260246000fd5b634e487b7160e01b600052604160045260246000fdfea26469706673582212208f8c9253da8133c33ba7c32820d22d6a3ba71653c6bc9422e12340f1525a854c64736f6c6343000804003314823911f2da1b49f045a0929a60b8c1f2a7fc8c06c7284ca3e8ab4e193a08c8a49807205ce4d355092ef5a8a18f56e8913cf4a201fbe287825b095693c21775","linkReferences":{},"deployedLinkReferences":{}}