{"_format":"hh-sol-artifact-1","contractName":"TwitterMinter","sourceName":"contracts/minters/TwitterMinter.sol","abi":[{"inputs":[{"internalType":"address","name":"twitterAuthOracleAddress","type":"address"}],"stateMutability":"nonpayable","type":"constructor"},{"anonymous":false,"inputs":[{"indexed":true,"internalType":"address","name":"previousOwner","type":"address"},{"indexed":true,"internalType":"address","name":"newOwner","type":"address"}],"name":"OwnershipTransferred","type":"event"},{"anonymous":false,"inputs":[{"indexed":true,"internalType":"uint256","name":"requestId","type":"uint256"},{"indexed":false,"internalType":"string","name":"error","type":"string"}],"name":"TwitterAuthRequestFailed","type":"event"},{"anonymous":false,"inputs":[{"indexed":true,"internalType":"address","name":"sender","type":"address"},{"indexed":false,"internalType":"uint256","name":"requestId","type":"uint256"}],"name":"TwitterAuthRequestSubmited","type":"event"},{"anonymous":false,"inputs":[{"indexed":true,"internalType":"uint256","name":"requestId","type":"uint256"},{"indexed":false,"internalType":"uint256","name":"tokenId","type":"uint256"}],"name":"TwitterAuthRequestSucceeded","type":"event"},{"inputs":[{"internalType":"uint256","name":"reqId","type":"uint256"},{"internalType":"string","name":"err","type":"string"}],"name":"failMint","outputs":[],"stateMutability":"nonpayable","type":"function"},{"inputs":[],"name":"getPriceWEI","outputs":[{"internalType":"uint256","name":"","type":"uint256"}],"stateMutability":"view","type":"function"},{"inputs":[],"name":"oracle","outputs":[{"internalType":"contract TwitterAuthOracle","name":"","type":"address"}],"stateMutability":"view","type":"function"},{"inputs":[],"name":"owner","outputs":[{"internalType":"address","name":"","type":"address"}],"stateMutability":"view","type":"function"},{"inputs":[],"name":"renounceOwnership","outputs":[],"stateMutability":"nonpayable","type":"function"},{"inputs":[{"internalType":"string","name":"oauthToken","type":"string"},{"internalType":"string","name":"oauthVerifier","type":"string"},{"internalType":"address","name":"owner","type":"address"},{"internalType":"function (string,string,string,address) external returns (uint256)","name":"cb","type":"function"}],"name":"startMint","outputs":[],"stateMutability":"payable","type":"function"},{"inputs":[{"components":[{"internalType":"uint256","name":"requestId","type":"uint256"},{"internalType":"string","name":"screenName","type":"string"},{"internalType":"string","name":"userId","type":"string"},{"internalType":"address","name":"owner","type":"address"}],"internalType":"struct TwitterAuthData.Response","name":"res","type":"tuple"}],"name":"succeedMint","outputs":[],"stateMutability":"nonpayable","type":"function"},{"inputs":[{"internalType":"address","name":"newOwner","type":"address"}],"name":"transferOwnership","outputs":[],"stateMutability":"nonpayable","type":"function"}],"bytecode":"0x608060405234801561001057600080fd5b50604051610b67380380610b6783398101604081905261002f916100ad565b6100383361005d565b600180546001600160a01b0319166001600160a01b03929092169190911790556100db565b600080546001600160a01b038381166001600160a01b0319831681178455604051919092169283917f8be0079c531659141344cd1fd0a4f28419497f9722a3daafe3b4186f6b6457e09190a35050565b6000602082840312156100be578081fd5b81516001600160a01b03811681146100d4578182fd5b9392505050565b610a7d806100ea6000396000f3fe60806040526004361061007b5760003560e01c80637dc0d1d01161004e5780637dc0d1d0146100ea5780638da5cb5b14610127578063ee0f9d3b14610145578063f2fde38b1461016857600080fd5b80630b84be38146100805780631ed6c886146100a257806329b1164f146100c2578063715018a6146100d5575b600080fd5b34801561008c57600080fd5b506100a061009b366004610811565b610188565b005b3480156100ae57600080fd5b506100a06100bd366004610752565b6101f7565b6100a06100d03660046106ae565b61031e565b3480156100e157600080fd5b506100a0610447565b3480156100f657600080fd5b5060015461010a906001600160a01b031681565b6040516001600160a01b0390911681526020015b60405180910390f35b34801561013357600080fd5b506000546001600160a01b031661010a565b34801561015157600080fd5b5061015a61047d565b60405190815260200161011e565b34801561017457600080fd5b506100a061018336600461068d565b6104ff565b6000546001600160a01b031633146101bb5760405162461bcd60e51b81526004016101b290610947565b60405180910390fd5b817ffaaf030a237696352029447cf0ba20b79bcbdd4aa458af2d1de1ad993fe5445f826040516101eb91906108be565b60405180910390a25050565b6000546001600160a01b031633146102215760405162461bcd60e51b81526004016101b290610947565b8051600090815260026020908152604080832054818501518386015192516001600160a01b0383861c169463ffffffff909316939192610262929101610882565b60408051601f198184030181529082905260608701516001600160e01b031960e086901b168352610296939260040161097c565b602060405180830381600087803b1580156102b057600080fd5b505af11580156102c4573d6000803e3d6000fd5b505050506040513d601f19601f820116820180604052508101906102e891906107f9565b8251604051828152919250907f882c4362c393268eb160b6ae4ecb7d97739d6d962bff8297f7f72b2af01d799f906020016101eb565b60015460405163cb2859b160e01b81526000916001600160a01b03169063cb2859b1903490610365908a908a908a903090631ed6c886908290630b84be38906004016108d1565b6020604051808303818588803b15801561037e57600080fd5b505af1158015610392573d6000803e3d6000fd5b50505050506040513d601f19601f820116820180604052508101906103b791906107f9565b604080516020808201835263ffffffff86811688831b17841b8352600085815260028352849020925183546001600160c01b03191690851c918216640100000000600160c01b03929092169190911717909155905182815291925033917f6a2696e81bc18547598d0b304f71f9ec1735b6b43abe58220d183bb3c260d0fb910160405180910390a2505050505050565b6000546001600160a01b031633146104715760405162461bcd60e51b81526004016101b290610947565b61047b600061059a565b565b600154604080516378bb750960e11b815290516000926001600160a01b03169163f176ea12916004808301926020929190829003018186803b1580156104c257600080fd5b505afa1580156104d6573d6000803e3d6000fd5b505050506040513d601f19601f820116820180604052508101906104fa91906107f9565b905090565b6000546001600160a01b031633146105295760405162461bcd60e51b81526004016101b290610947565b6001600160a01b03811661058e5760405162461bcd60e51b815260206004820152602660248201527f4f776e61626c653a206e6577206f776e657220697320746865207a65726f206160448201526564647265737360d01b60648201526084016101b2565b6105978161059a565b50565b600080546001600160a01b038381166001600160a01b0319831681178455604051919092169283917f8be0079c531659141344cd1fd0a4f28419497f9722a3daafe3b4186f6b6457e09190a35050565b80356001600160a01b038116811461060157600080fd5b919050565b600082601f830112610616578081fd5b813567ffffffffffffffff8082111561063157610631610a31565b604051601f8301601f19908116603f0116810190828211818310171561065957610659610a31565b81604052838152866020858801011115610671578485fd5b8360208701602083013792830160200193909352509392505050565b60006020828403121561069e578081fd5b6106a7826105ea565b9392505050565b6000806000806000608086880312156106c5578081fd5b853567ffffffffffffffff808211156106dc578283fd5b6106e889838a01610606565b965060208801359150808211156106fd578283fd5b5061070a88828901610606565b945050610719604087016105ea565b9250606086013567ffffffffffffffff1981168114610736578182fd5b94979396509194505050606082901c9160401c63ffffffff1690565b600060208284031215610763578081fd5b813567ffffffffffffffff8082111561077a578283fd5b908301906080828603121561078d578283fd5b6107956109d8565b823581526020830135828111156107aa578485fd5b6107b687828601610606565b6020830152506040830135828111156107cd578485fd5b6107d987828601610606565b6040830152506107eb606084016105ea565b606082015295945050505050565b60006020828403121561080a578081fd5b5051919050565b60008060408385031215610823578182fd5b82359150602083013567ffffffffffffffff811115610840578182fd5b61084c85828601610606565b9150509250929050565b6000815180845261086e816020860160208601610a01565b601f01601f19169290920160200192915050565b7368747470733a2f2f747769747465722e636f6d2f60601b8152600082516108b1816014850160208701610a01565b9190910160140192915050565b6020815260006106a76020830184610856565b60a0815260006108e460a083018a610856565b82810360208401526108f6818a610856565b6001600160a01b03891660408501529150610926905060608301868860201b63ffffffff919091161760401b9052565b63ffffffff8316602085901b1760401b608083015298975050505050505050565b6020808252818101527f4f776e61626c653a2063616c6c6572206973206e6f7420746865206f776e6572604082015260600190565b6080815260076080820152663a3bb4ba3a32b960c91b60a082015260c0602082015260006109ad60c0830186610856565b82810360408401526109bf8186610856565b91505060018060a01b0383166060830152949350505050565b6040516080810167ffffffffffffffff811182821017156109fb576109fb610a31565b60405290565b60005b83811015610a1c578181015183820152602001610a04565b83811115610a2b576000848401525b50505050565b634e487b7160e01b600052604160045260246000fdfea264697066735822122016983c423320189004e1fb36d0520a6fd7cd9bb67f95bf0e6548f07f3fffabbd64736f6c63430008040033","linkReferences":{},"deployedLinkReferences":{}}