{"_format":"hh-sol-artifact-1","contractName":"OwnYourSocialNetwork","sourceName":"contracts/OwnYourSocialNetwork.sol","abi":[{"anonymous":false,"inputs":[{"indexed":true,"internalType":"address","name":"owner","type":"address"},{"indexed":true,"internalType":"address","name":"approved","type":"address"},{"indexed":true,"internalType":"uint256","name":"tokenId","type":"uint256"}],"name":"Approval","type":"event"},{"anonymous":false,"inputs":[{"indexed":true,"internalType":"address","name":"owner","type":"address"},{"indexed":true,"internalType":"address","name":"operator","type":"address"},{"indexed":false,"internalType":"bool","name":"approved","type":"bool"}],"name":"ApprovalForAll","type":"event"},{"anonymous":false,"inputs":[{"indexed":true,"internalType":"bytes32","name":"role","type":"bytes32"},{"indexed":true,"internalType":"bytes32","name":"previousAdminRole","type":"bytes32"},{"indexed":true,"internalType":"bytes32","name":"newAdminRole","type":"bytes32"}],"name":"RoleAdminChanged","type":"event"},{"anonymous":false,"inputs":[{"indexed":true,"internalType":"bytes32","name":"role","type":"bytes32"},{"indexed":true,"internalType":"address","name":"account","type":"address"},{"indexed":true,"internalType":"address","name":"sender","type":"address"}],"name":"RoleGranted","type":"event"},{"anonymous":false,"inputs":[{"indexed":true,"internalType":"bytes32","name":"role","type":"bytes32"},{"indexed":true,"internalType":"address","name":"account","type":"address"},{"indexed":true,"internalType":"address","name":"sender","type":"address"}],"name":"RoleRevoked","type":"event"},{"anonymous":false,"inputs":[{"indexed":true,"internalType":"address","name":"from","type":"address"},{"indexed":true,"internalType":"address","name":"to","type":"address"},{"indexed":true,"internalType":"uint256","name":"tokenId","type":"uint256"}],"name":"Transfer","type":"event"},{"inputs":[],"name":"DEFAULT_ADMIN_ROLE","outputs":[{"internalType":"bytes32","name":"","type":"bytes32"}],"stateMutability":"view","type":"function"},{"inputs":[],"name":"MINTER_ROLE","outputs":[{"internalType":"bytes32","name":"","type":"bytes32"}],"stateMutability":"view","type":"function"},{"inputs":[],"name":"PAUSER_ROLE","outputs":[{"internalType":"bytes32","name":"","type":"bytes32"}],"stateMutability":"view","type":"function"},{"inputs":[{"internalType":"string","name":"name","type":"string"},{"internalType":"string","name":"symbol","type":"string"},{"internalType":"string","name":"baseURI","type":"string"}],"name":"__OwnYourSocialNetwork__init","outputs":[],"stateMutability":"nonpayable","type":"function"},{"inputs":[{"internalType":"address","name":"to","type":"address"},{"internalType":"uint256","name":"tokenId","type":"uint256"}],"name":"approve","outputs":[],"stateMutability":"nonpayable","type":"function"},{"inputs":[{"internalType":"address","name":"owner","type":"address"}],"name":"balanceOf","outputs":[{"internalType":"uint256","name":"","type":"uint256"}],"stateMutability":"view","type":"function"},{"inputs":[{"internalType":"uint256","name":"tokenId","type":"uint256"}],"name":"burn","outputs":[],"stateMutability":"nonpayable","type":"function"},{"inputs":[{"internalType":"uint256","name":"tokenId","type":"uint256"}],"name":"getApproved","outputs":[{"internalType":"address","name":"","type":"address"}],"stateMutability":"view","type":"function"},{"inputs":[{"internalType":"string","name":"gen_sn_id","type":"string"}],"name":"getOwnedAccountByGenSnId","outputs":[{"components":[{"internalType":"uint256","name":"id","type":"uint256"},{"internalType":"address","name":"owner","type":"address"},{"internalType":"string","name":"sn_name","type":"string"},{"internalType":"string","name":"sn_id","type":"string"},{"internalType":"string","name":"sn_url","type":"string"}],"internalType":"struct OwnedAccount.data","name":"","type":"tuple"}],"stateMutability":"view","type":"function"},{"inputs":[{"internalType":"uint256","name":"token_id","type":"uint256"}],"name":"getOwnedAccountByToken","outputs":[{"components":[{"internalType":"uint256","name":"id","type":"uint256"},{"internalType":"address","name":"owner","type":"address"},{"internalType":"string","name":"sn_name","type":"string"},{"internalType":"string","name":"sn_id","type":"string"},{"internalType":"string","name":"sn_url","type":"string"}],"internalType":"struct OwnedAccount.data","name":"","type":"tuple"}],"stateMutability":"view","type":"function"},{"inputs":[{"internalType":"bytes32","name":"role","type":"bytes32"}],"name":"getRoleAdmin","outputs":[{"internalType":"bytes32","name":"","type":"bytes32"}],"stateMutability":"view","type":"function"},{"inputs":[{"internalType":"bytes32","name":"role","type":"bytes32"},{"internalType":"uint256","name":"index","type":"uint256"}],"name":"getRoleMember","outputs":[{"internalType":"address","name":"","type":"address"}],"stateMutability":"view","type":"function"},{"inputs":[{"internalType":"bytes32","name":"role","type":"bytes32"}],"name":"getRoleMemberCount","outputs":[{"internalType":"uint256","name":"","type":"uint256"}],"stateMutability":"view","type":"function"},{"inputs":[],"name":"getVersion","outputs":[{"internalType":"string","name":"","type":"string"}],"stateMutability":"pure","type":"function"},{"inputs":[{"internalType":"bytes32","name":"role","type":"bytes32"},{"internalType":"address","name":"account","type":"address"}],"name":"grantRole","outputs":[],"stateMutability":"nonpayable","type":"function"},{"inputs":[{"internalType":"bytes32","name":"role","type":"bytes32"},{"internalType":"address","name":"account","type":"address"}],"name":"hasRole","outputs":[{"internalType":"bool","name":"","type":"bool"}],"stateMutability":"view","type":"function"},{"inputs":[{"internalType":"string","name":"name","type":"string"},{"internalType":"string","name":"symbol","type":"string"},{"internalType":"string","name":"_baseURI","type":"string"}],"name":"initialize","outputs":[],"stateMutability":"nonpayable","type":"function"},{"inputs":[{"internalType":"address","name":"owner","type":"address"},{"internalType":"address","name":"operator","type":"address"}],"name":"isApprovedForAll","outputs":[{"internalType":"bool","name":"","type":"bool"}],"stateMutability":"view","type":"function"},{"inputs":[{"internalType":"string","name":"sn_name","type":"string"},{"internalType":"string","name":"sn_id","type":"string"},{"internalType":"string","name":"sn_url","type":"string"},{"internalType":"address","name":"to","type":"address"}],"name":"mint","outputs":[{"internalType":"uint256","name":"","type":"uint256"}],"stateMutability":"nonpayable","type":"function"},{"inputs":[{"internalType":"string","name":"oauthToken","type":"string"},{"internalType":"string","name":"oauthVerifier","type":"string"}],"name":"mintTwitter","outputs":[],"stateMutability":"payable","type":"function"},{"inputs":[],"name":"name","outputs":[{"internalType":"string","name":"","type":"string"}],"stateMutability":"view","type":"function"},{"inputs":[{"internalType":"uint256","name":"tokenId","type":"uint256"}],"name":"ownerOf","outputs":[{"internalType":"address","name":"","type":"address"}],"stateMutability":"view","type":"function"},{"inputs":[{"internalType":"bytes32","name":"role","type":"bytes32"},{"internalType":"address","name":"account","type":"address"}],"name":"renounceRole","outputs":[],"stateMutability":"nonpayable","type":"function"},{"inputs":[],"name":"retrieveFunds","outputs":[],"stateMutability":"nonpayable","type":"function"},{"inputs":[{"internalType":"bytes32","name":"role","type":"bytes32"},{"internalType":"address","name":"account","type":"address"}],"name":"revokeRole","outputs":[],"stateMutability":"nonpayable","type":"function"},{"inputs":[{"internalType":"address","name":"from","type":"address"},{"internalType":"address","name":"to","type":"address"},{"internalType":"uint256","name":"tokenId","type":"uint256"}],"name":"safeTransferFrom","outputs":[],"stateMutability":"nonpayable","type":"function"},{"inputs":[{"internalType":"address","name":"from","type":"address"},{"internalType":"address","name":"to","type":"address"},{"internalType":"uint256","name":"tokenId","type":"uint256"},{"internalType":"bytes","name":"_data","type":"bytes"}],"name":"safeTransferFrom","outputs":[],"stateMutability":"nonpayable","type":"function"},{"inputs":[{"internalType":"address","name":"operator","type":"address"},{"internalType":"bool","name":"approved","type":"bool"}],"name":"setApprovalForAll","outputs":[],"stateMutability":"nonpayable","type":"function"},{"inputs":[{"internalType":"bytes4","name":"interfaceId","type":"bytes4"}],"name":"supportsInterface","outputs":[{"internalType":"bool","name":"","type":"bool"}],"stateMutability":"view","type":"function"},{"inputs":[],"name":"symbol","outputs":[{"internalType":"string","name":"","type":"string"}],"stateMutability":"view","type":"function"},{"inputs":[{"internalType":"uint256","name":"index","type":"uint256"}],"name":"tokenByIndex","outputs":[{"internalType":"uint256","name":"","type":"uint256"}],"stateMutability":"view","type":"function"},{"inputs":[{"internalType":"address","name":"owner","type":"address"},{"internalType":"uint256","name":"index","type":"uint256"}],"name":"tokenOfOwnerByIndex","outputs":[{"internalType":"uint256","name":"","type":"uint256"}],"stateMutability":"view","type":"function"},{"inputs":[{"internalType":"uint256","name":"tokenId","type":"uint256"}],"name":"tokenURI","outputs":[{"internalType":"string","name":"","type":"string"}],"stateMutability":"view","type":"function"},{"inputs":[],"name":"totalSupply","outputs":[{"internalType":"uint256","name":"","type":"uint256"}],"stateMutability":"view","type":"function"},{"inputs":[{"internalType":"address","name":"from","type":"address"},{"internalType":"address","name":"to","type":"address"},{"internalType":"uint256","name":"tokenId","type":"uint256"}],"name":"transferFrom","outputs":[],"stateMutability":"nonpayable","type":"function"},{"inputs":[],"name":"twitterMinter","outputs":[{"internalType":"contract TwitterMinter","name":"","type":"address"}],"stateMutability":"view","type":"function"},{"inputs":[{"internalType":"address","name":"twitterMinterAddress","type":"address"}],"name":"updateTwitterMinterAddress","outputs":[],"stateMutability":"nonpayable","type":"function"}],"bytecode":"0x608060405234801561001057600080fd5b50613548806100206000396000f3fe60806040526004361061021a5760003560e01c806370a0823111610123578063a6487c53116100ab578063d547741f1161006f578063d547741f1461064f578063e38f87a31461066f578063e63ab1e91461068f578063e985e9c5146106c3578063f9751b281461070c57600080fd5b8063a6487c53146105ad578063b88d4fde146105cd578063c87b56dd146105ed578063ca15c8731461060d578063d53913931461062d57600080fd5b806395d89b41116100f257806395d89b41146105165780639b5051391461052b578063a217fddf1461054b578063a22cb46514610560578063a56e0f1b1461058057600080fd5b806370a08231146104a35780638e8876b1146104c35780639010d07c146104d657806391d14854146104f657600080fd5b80632f2ff15d116101a657806342842e0e1161017557806342842e0e1461040e57806342966c681461042e5780634f6ccce71461044e57806361b20d8c1461046e5780636352211e1461048357600080fd5b80632f2ff15d1461038d5780632f745c59146103ad57806336568abe146103cd5780633f4acc32146103ed57600080fd5b80630d8e6e2c116101ed5780630d8e6e2c146102d057806318160ddd146102fe57806323b872dd1461031d578063248a9ca31461033d5780632aedc3f91461036d57600080fd5b806301ffc9a71461021f57806306fdde0314610254578063081812fc14610276578063095ea7b3146102ae575b600080fd5b34801561022b57600080fd5b5061023f61023a366004612ddf565b61072c565b60405190151581526020015b60405180910390f35b34801561026057600080fd5b5061026961073d565b60405161024b91906131bf565b34801561028257600080fd5b50610296610291366004612d84565b6107cf565b6040516001600160a01b03909116815260200161024b565b3480156102ba57600080fd5b506102ce6102c9366004612d5b565b61085c565b005b3480156102dc57600080fd5b50604080518082019091526005815264312e302e3160d81b6020820152610269565b34801561030a57600080fd5b5060fd545b60405190815260200161024b565b34801561032957600080fd5b506102ce610338366004612c6d565b610972565b34801561034957600080fd5b5061030f610358366004612d84565b60009081526065602052604090206001015490565b34801561037957600080fd5b5061030f610388366004612f2f565b6109a4565b34801561039957600080fd5b506102ce6103a8366004612d9c565b610b2e565b3480156103b957600080fd5b5061030f6103c8366004612d5b565b610b50565b3480156103d957600080fd5b506102ce6103e8366004612d9c565b610be6565b3480156103f957600080fd5b5061019354610296906001600160a01b031681565b34801561041a57600080fd5b506102ce610429366004612c6d565b610c08565b34801561043a57600080fd5b506102ce610449366004612d84565b610c23565b34801561045a57600080fd5b5061030f610469366004612d84565b610c9d565b34801561047a57600080fd5b506102ce610d3e565b34801561048f57600080fd5b5061029661049e366004612d84565b610dec565b3480156104af57600080fd5b5061030f6104be366004612c21565b610e63565b6102ce6104d1366004612e4a565b610eea565b3480156104e257600080fd5b506102966104f1366004612dbe565b610f61565b34801561050257600080fd5b5061023f610511366004612d9c565b610f80565b34801561052257600080fd5b50610269610fab565b34801561053757600080fd5b506102ce610546366004612eab565b610fba565b34801561055757600080fd5b5061030f600081565b34801561056c57600080fd5b506102ce61057b366004612d21565b611055565b34801561058c57600080fd5b506105a061059b366004612d84565b61111a565b60405161024b9190613317565b3480156105b957600080fd5b506102ce6105c8366004612eab565b6113a1565b3480156105d957600080fd5b506102ce6105e8366004612ca8565b611403565b3480156105f957600080fd5b50610269610608366004612d84565b611435565b34801561061957600080fd5b5061030f610628366004612d84565b6114d7565b34801561063957600080fd5b5061030f6000805160206134f383398151915281565b34801561065b57600080fd5b506102ce61066a366004612d9c565b6114ee565b34801561067b57600080fd5b506105a061068a366004612e17565b6114f8565b34801561069b57600080fd5b5061030f7f65d7a28e3265b37a6474929f336521b332c1681b933f6cb9f3376673440d862a81565b3480156106cf57600080fd5b5061023f6106de366004612c3b565b6001600160a01b03918216600090815260ce6020908152604080832093909416825291909152205460ff1690565b34801561071857600080fd5b506102ce610727366004612c21565b611604565b6000610737826116ed565b92915050565b606060c9805461074c90613430565b80601f016020809104026020016040519081016040528092919081815260200182805461077890613430565b80156107c55780601f1061079a576101008083540402835291602001916107c5565b820191906000526020600020905b8154815290600101906020018083116107a857829003601f168201915b5050505050905090565b60006107da82611712565b6108405760405162461bcd60e51b815260206004820152602c60248201527f4552433732313a20617070726f76656420717565727920666f72206e6f6e657860448201526b34b9ba32b73a103a37b5b2b760a11b60648201526084015b60405180910390fd5b50600090815260cd60205260409020546001600160a01b031690565b600061086782610dec565b9050806001600160a01b0316836001600160a01b031614156108d55760405162461bcd60e51b815260206004820152602160248201527f4552433732313a20617070726f76616c20746f2063757272656e74206f776e656044820152603960f91b6064820152608401610837565b336001600160a01b03821614806108f157506108f181336106de565b6109635760405162461bcd60e51b815260206004820152603860248201527f4552433732313a20617070726f76652063616c6c6572206973206e6f74206f7760448201527f6e6572206e6f7220617070726f76656420666f7220616c6c00000000000000006064820152608401610837565b61096d838361172f565b505050565b61097d335b8261179d565b6109995760405162461bcd60e51b8152600401610837906132c6565b61096d838383611883565b60008085856040516020016109ba929190613028565b60405160208183030381529060405290506109f3610191826040516109df919061300c565b908152602001604051809103902054611712565b15610a5d5760405162461bcd60e51b815260206004820152603460248201527f4f776e596f7572536f6369616c4e6574776f726b3a20546865206163636f756e6044820152731d081dd85cc8185b1c9958591e481b5a5b9d195960621b6064820152608401610837565b6000610a6884611a2e565b6000818152610192602090815260409091208281556001810180546001600160a01b0319166001600160a01b0389161790558951929350610ab1926002909101918a0190612a9f565b506000818152610192602090815260409091208751610ad892600390920191890190612a9f565b506000818152610192602090815260409091208651610aff92600490920191880190612a9f565b508061019183604051610b12919061300c565b908152604051908190036020019020559150505b949350505050565b610b388282611aed565b600082815260976020526040902061096d9082611b13565b6000610b5b83610e63565b8210610bbd5760405162461bcd60e51b815260206004820152602b60248201527f455243373231456e756d657261626c653a206f776e657220696e646578206f7560448201526a74206f6620626f756e647360a81b6064820152608401610837565b506001600160a01b0391909116600090815260fb60209081526040808320938352929052205490565b610bf08282611b28565b600082815260976020526040902061096d9082611ba6565b61096d83838360405180602001604052806000815250611403565b610c2c33610977565b610c915760405162461bcd60e51b815260206004820152603060248201527f4552433732314275726e61626c653a2063616c6c6572206973206e6f74206f7760448201526f1b995c881b9bdc88185c1c1c9bdd995960821b6064820152608401610837565b610c9a81611bbb565b50565b6000610ca860fd5490565b8210610d0b5760405162461bcd60e51b815260206004820152602c60248201527f455243373231456e756d657261626c653a20676c6f62616c20696e646578206f60448201526b7574206f6620626f756e647360a01b6064820152608401610837565b60fd8281548110610d2c57634e487b7160e01b600052603260045260246000fd5b90600052602060002001549050919050565b610d687f65d7a28e3265b37a6474929f336521b332c1681b933f6cb9f3376673440d862a33610f80565b610dc05760405162461bcd60e51b815260206004820152602360248201527f455243373231437573746f6d3a206d75737420686176652070617573657220726044820152626f6c6560e81b6064820152608401610837565b60405133904780156108fc02916000818181858888f19350505050158015610c9a573d6000803e3d6000fd5b600081815260cb60205260408120546001600160a01b0316806107375760405162461bcd60e51b815260206004820152602960248201527f4552433732313a206f776e657220717565727920666f72206e6f6e657869737460448201526832b73a103a37b5b2b760b91b6064820152608401610837565b60006001600160a01b038216610ece5760405162461bcd60e51b815260206004820152602a60248201527f4552433732313a2062616c616e636520717565727920666f7220746865207a65604482015269726f206164647265737360b01b6064820152608401610837565b506001600160a01b0316600090815260cc602052604090205490565b610193546001600160a01b03166329b1164f348484336040516001600160e01b031960e087901b168152610f2b939291903090632aedc3f9906004016131d2565b6000604051808303818588803b158015610f4457600080fd5b505af1158015610f58573d6000803e3d6000fd5b50505050505050565b6000828152609760205260408120610f799083611c62565b9392505050565b60009182526065602090815260408084206001600160a01b0393909316845291905290205460ff1690565b606060ca805461074c90613430565b600054610100900460ff1680610fd3575060005460ff16155b610fef5760405162461bcd60e51b815260040161083790613278565b600054610100900460ff16158015611011576000805461ffff19166101011790555b61103d84848486604051602001611029929190613028565b604051602081830303815290604052611c6e565b801561104f576000805461ff00191690555b50505050565b6001600160a01b0382163314156110ae5760405162461bcd60e51b815260206004820152601960248201527f4552433732313a20617070726f766520746f2063616c6c6572000000000000006044820152606401610837565b33600081815260ce602090815260408083206001600160a01b03871680855290835292819020805460ff191686151590811790915590519081529192917f17307eab39ab6107e8899845ad3d59bd9653f200f220920489ca2b5937696c31910160405180910390a35050565b611122612b23565b61112b82611712565b6111a95760405162461bcd60e51b815260206004820152604360248201527f4f776e596f7572536f6369616c4e6574776f726b3a20476574206f776e65642060448201527f6163636f756e7420717565727920666f72206e6f6e6578697374656e7420746f60648201526235b2b760e91b608482015260a401610837565b60008281526101926020908152604091829020825160a0810184528154815260018201546001600160a01b03169281019290925260028101805492939192918401916111f490613430565b80601f016020809104026020016040519081016040528092919081815260200182805461122090613430565b801561126d5780601f106112425761010080835404028352916020019161126d565b820191906000526020600020905b81548152906001019060200180831161125057829003601f168201915b5050505050815260200160038201805461128690613430565b80601f01602080910402602001604051908101604052809291908181526020018280546112b290613430565b80156112ff5780601f106112d4576101008083540402835291602001916112ff565b820191906000526020600020905b8154815290600101906020018083116112e257829003601f168201915b5050505050815260200160048201805461131890613430565b80601f016020809104026020016040519081016040528092919081815260200182805461134490613430565b80156113915780601f1061136657610100808354040283529160200191611391565b820191906000526020600020905b81548152906001019060200180831161137457829003601f168201915b5050505050815250509050919050565b600054610100900460ff16806113ba575060005460ff16155b6113d65760405162461bcd60e51b815260040161083790613278565b600054610100900460ff161580156113f8576000805461ffff19166101011790555b61103d848484611c6e565b61140d338361179d565b6114295760405162461bcd60e51b8152600401610837906132c6565b61104f84848484611d33565b606061144082611712565b6114a45760405162461bcd60e51b815260206004820152602f60248201527f4552433732314d657461646174613a2055524920717565727920666f72206e6f60448201526e3732bc34b9ba32b73a103a37b5b2b760891b6064820152608401610837565b6101606114b083611d66565b6040516020016114c1929190613057565b6040516020818303038152906040529050919050565b600081815260976020526040812061073790611e80565b610bf08282611e8a565b611500612b23565b611514610191836040516109df919061300c565b61157d5760405162461bcd60e51b815260206004820152603460248201527f4f776e596f7572536f6369616c4e6574776f726b3a20546865206163636f756e6044820152731d081dd85cc81b9bdd081e595d081b5a5b9d195960621b6064820152608401610837565b610192600061019184604051611593919061300c565b90815260200160405180910390205481526020019081526020016000206040518060a0016040529081600082015481526020016001820160009054906101000a90046001600160a01b03166001600160a01b03166001600160a01b031681526020016002820180546111f490613430565b61160f600033610f80565b6116935760405162461bcd60e51b815260206004820152604960248201527f4f776e596f7572536f6369616c4e6574776f726b3a206d75737420686176652060448201527f6d696e74657220726f6c6520746f20757064617465547769747465724d696e7460648201526865724164647265737360b81b608482015260a401610837565b610193546116b9906000805160206134f3833981519152906001600160a01b03166114ee565b61019380546001600160a01b0319166001600160a01b038316179055610c9a6000805160206134f383398151915282611eb0565b60006001600160e01b0319821663780e9d6360e01b1480610737575061073782611eba565b600090815260cb60205260409020546001600160a01b0316151590565b600081815260cd6020526040902080546001600160a01b0319166001600160a01b038416908117909155819061176482610dec565b6001600160a01b03167f8c5be1e5ebec7d5bd14f71427d1e84f3dd0314c0f7b2291e5b200ac8c7c3b92560405160405180910390a45050565b60006117a882611712565b6118095760405162461bcd60e51b815260206004820152602c60248201527f4552433732313a206f70657261746f7220717565727920666f72206e6f6e657860448201526b34b9ba32b73a103a37b5b2b760a11b6064820152608401610837565b600061181483610dec565b9050806001600160a01b0316846001600160a01b0316148061184f5750836001600160a01b0316611844846107cf565b6001600160a01b0316145b80610b2657506001600160a01b03808216600090815260ce602090815260408083209388168352929052205460ff16610b26565b826001600160a01b031661189682610dec565b6001600160a01b0316146118fe5760405162461bcd60e51b815260206004820152602960248201527f4552433732313a207472616e73666572206f6620746f6b656e2074686174206960448201526839903737ba1037bbb760b91b6064820152608401610837565b6001600160a01b0382166119605760405162461bcd60e51b8152602060048201526024808201527f4552433732313a207472616e7366657220746f20746865207a65726f206164646044820152637265737360e01b6064820152608401610837565b61196b838383611efa565b61197660008261172f565b6001600160a01b038316600090815260cc6020526040812080546001929061199f9084906133d6565b90915550506001600160a01b038216600090815260cc602052604081208054600192906119cd90849061338b565b9091555050600081815260cb602052604080822080546001600160a01b0319166001600160a01b0386811691821790925591518493918716917fddf252ad1be2c89b69c2b068fc378daa952ba7f163c4a11628f55a4df523b3ef91a4505050565b6000611a486000805160206134f383398151915233610f80565b604051602001611a8f907f455243373231437573746f6d3a206d7573742068617665206d696e746572207281526a1bdb19481d1bc81b5a5b9d60aa1b6020820152602b0190565b60405160208183030381529060405290611abc5760405162461bcd60e51b815260040161083791906131bf565b506000611ac961015f5490565b9050611ade83611ad961015f5490565b611f05565b61073761015f80546001019055565b600082815260656020526040902060010154611b098133612044565b61096d83836120a8565b6000610f79836001600160a01b03841661212e565b6001600160a01b0381163314611b985760405162461bcd60e51b815260206004820152602f60248201527f416363657373436f6e74726f6c3a2063616e206f6e6c792072656e6f756e636560448201526e103937b632b9903337b91039b2b63360891b6064820152608401610837565b611ba2828261217d565b5050565b6000610f79836001600160a01b0384166121e4565b6000611bc682610dec565b9050611bd481600084611efa565b611bdf60008361172f565b6001600160a01b038116600090815260cc60205260408120805460019290611c089084906133d6565b9091555050600082815260cb602052604080822080546001600160a01b0319169055518391906001600160a01b038416907fddf252ad1be2c89b69c2b068fc378daa952ba7f163c4a11628f55a4df523b3ef908390a45050565b6000610f798383612301565b600054610100900460ff1680611c87575060005460ff16155b611ca35760405162461bcd60e51b815260040161083790613278565b600054610100900460ff16158015611cc5576000805461ffff19166101011790555b611ccd612339565b611cd5612339565b611cdd612339565b611ce5612339565b611cef84846123a4565b611cf7612339565b611cff612339565b611d07612439565b8151611d1b90610160906020850190612a9f565b50801561104f576000805461ff001916905550505050565b611d3e848484611883565b611d4a848484846124dd565b61104f5760405162461bcd60e51b815260040161083790613226565b606081611d8a5750506040805180820190915260018152600360fc1b602082015290565b8160005b8115611db45780611d9e8161346b565b9150611dad9050600a836133a3565b9150611d8e565b60008167ffffffffffffffff811115611ddd57634e487b7160e01b600052604160045260246000fd5b6040519080825280601f01601f191660200182016040528015611e07576020820181803683370190505b5090505b8415610b2657611e1c6001836133d6565b9150611e29600a86613486565b611e3490603061338b565b60f81b818381518110611e5757634e487b7160e01b600052603260045260246000fd5b60200101906001600160f81b031916908160001a905350611e79600a866133a3565b9450611e0b565b6000610737825490565b600082815260656020526040902060010154611ea68133612044565b61096d838361217d565b610b3882826125e7565b60006001600160e01b031982166380ac58cd60e01b1480611eeb57506001600160e01b03198216635b5e139f60e01b145b806107375750610737826125f1565b61096d838383612616565b6001600160a01b038216611f5b5760405162461bcd60e51b815260206004820181905260248201527f4552433732313a206d696e7420746f20746865207a65726f20616464726573736044820152606401610837565b611f6481611712565b15611fb15760405162461bcd60e51b815260206004820152601c60248201527f4552433732313a20746f6b656e20616c7265616479206d696e746564000000006044820152606401610837565b611fbd60008383611efa565b6001600160a01b038216600090815260cc60205260408120805460019290611fe690849061338b565b9091555050600081815260cb602052604080822080546001600160a01b0319166001600160a01b03861690811790915590518392907fddf252ad1be2c89b69c2b068fc378daa952ba7f163c4a11628f55a4df523b3ef908290a45050565b61204e8282610f80565b611ba257612066816001600160a01b031660146126ce565b6120718360206126ce565b60405160200161208292919061310d565b60408051601f198184030181529082905262461bcd60e51b8252610837916004016131bf565b6120b28282610f80565b611ba25760008281526065602090815260408083206001600160a01b03851684529091529020805460ff191660011790556120ea3390565b6001600160a01b0316816001600160a01b0316837f2f8788117e7eff1d82e926ec794901d17c78024a50270940304540a733656f0d60405160405180910390a45050565b600081815260018301602052604081205461217557508154600181810184556000848152602080822090930184905584548482528286019093526040902091909155610737565b506000610737565b6121878282610f80565b15611ba25760008281526065602090815260408083206001600160a01b0385168085529252808320805460ff1916905551339285917ff6391f5c32d9c69d2a47ea670b442974b53935d1edc7fd64eb21e047a839171b9190a45050565b600081815260018301602052604081205480156122f75760006122086001836133d6565b855490915060009061221c906001906133d6565b905081811461229d57600086600001828154811061224a57634e487b7160e01b600052603260045260246000fd5b906000526020600020015490508087600001848154811061227b57634e487b7160e01b600052603260045260246000fd5b6000918252602080832090910192909255918252600188019052604090208390555b85548690806122bc57634e487b7160e01b600052603160045260246000fd5b600190038181906000526020600020016000905590558560010160008681526020019081526020016000206000905560019350505050610737565b6000915050610737565b600082600001828154811061232657634e487b7160e01b600052603260045260246000fd5b9060005260206000200154905092915050565b600054610100900460ff1680612352575060005460ff16155b61236e5760405162461bcd60e51b815260040161083790613278565b600054610100900460ff16158015612390576000805461ffff19166101011790555b8015610c9a576000805461ff001916905550565b600054610100900460ff16806123bd575060005460ff16155b6123d95760405162461bcd60e51b815260040161083790613278565b600054610100900460ff161580156123fb576000805461ffff19166101011790555b825161240e9060c9906020860190612a9f565b5081516124229060ca906020850190612a9f565b50801561096d576000805461ff0019169055505050565b600054610100900460ff1680612452575060005460ff16155b61246e5760405162461bcd60e51b815260040161083790613278565b600054610100900460ff16158015612490576000805461ffff19166101011790555b61249b600033611eb0565b6124b36000805160206134f383398151915233611eb0565b6123907f65d7a28e3265b37a6474929f336521b332c1681b933f6cb9f3376673440d862a33611eb0565b60006001600160a01b0384163b156125df57604051630a85bd0160e11b81526001600160a01b0385169063150b7a0290612521903390899088908890600401613182565b602060405180830381600087803b15801561253b57600080fd5b505af192505050801561256b575060408051601f3d908101601f1916820190925261256891810190612dfb565b60015b6125c5573d808015612599576040519150601f19603f3d011682016040523d82523d6000602084013e61259e565b606091505b5080516125bd5760405162461bcd60e51b815260040161083790613226565b805181602001fd5b6001600160e01b031916630a85bd0160e11b149050610b26565b506001610b26565b611ba282826120a8565b60006001600160e01b03198216635a05180f60e01b14806107375750610737826128b0565b6001600160a01b0383166126715761266c8160fd8054600083815260fe60205260408120829055600182018355919091527f9346ac6dd7de6b96975fec380d4d994c4c12e6a8897544f22915316cc6cca2800155565b612694565b816001600160a01b0316836001600160a01b0316146126945761269483826128e5565b6001600160a01b0382166126ab5761096d81612982565b826001600160a01b0316826001600160a01b03161461096d5761096d8282612a5b565b606060006126dd8360026133b7565b6126e890600261338b565b67ffffffffffffffff81111561270e57634e487b7160e01b600052604160045260246000fd5b6040519080825280601f01601f191660200182016040528015612738576020820181803683370190505b509050600360fc1b8160008151811061276157634e487b7160e01b600052603260045260246000fd5b60200101906001600160f81b031916908160001a905350600f60fb1b8160018151811061279e57634e487b7160e01b600052603260045260246000fd5b60200101906001600160f81b031916908160001a90535060006127c28460026133b7565b6127cd90600161338b565b90505b6001811115612861576f181899199a1a9b1b9c1cb0b131b232b360811b85600f166010811061280f57634e487b7160e01b600052603260045260246000fd5b1a60f81b82828151811061283357634e487b7160e01b600052603260045260246000fd5b60200101906001600160f81b031916908160001a90535060049490941c9361285a81613419565b90506127d0565b508315610f795760405162461bcd60e51b815260206004820181905260248201527f537472696e67733a20686578206c656e67746820696e73756666696369656e746044820152606401610837565b60006001600160e01b03198216637965db0b60e01b148061073757506301ffc9a760e01b6001600160e01b0319831614610737565b600060016128f284610e63565b6128fc91906133d6565b600083815260fc602052604090205490915080821461294f576001600160a01b038416600090815260fb60209081526040808320858452825280832054848452818420819055835260fc90915290208190555b50600091825260fc602090815260408084208490556001600160a01b03909416835260fb81528383209183525290812055565b60fd54600090612994906001906133d6565b600083815260fe602052604081205460fd80549394509092849081106129ca57634e487b7160e01b600052603260045260246000fd5b906000526020600020015490508060fd83815481106129f957634e487b7160e01b600052603260045260246000fd5b600091825260208083209091019290925582815260fe909152604080822084905585825281205560fd805480612a3f57634e487b7160e01b600052603160045260246000fd5b6001900381819060005260206000200160009055905550505050565b6000612a6683610e63565b6001600160a01b03909316600090815260fb60209081526040808320868452825280832085905593825260fc9052919091209190915550565b828054612aab90613430565b90600052602060002090601f016020900481019282612acd5760008555612b13565b82601f10612ae657805160ff1916838001178555612b13565b82800160010185558215612b13579182015b82811115612b13578251825591602001919060010190612af8565b50612b1f929150612b5b565b5090565b6040518060a001604052806000815260200160006001600160a01b031681526020016060815260200160608152602001606081525090565b5b80821115612b1f5760008155600101612b5c565b600067ffffffffffffffff80841115612b8b57612b8b6134c6565b604051601f8501601f19908116603f01168101908282118183101715612bb357612bb36134c6565b81604052809350858152868686011115612bcc57600080fd5b858560208301376000602087830101525050509392505050565b80356001600160a01b0381168114612bfd57600080fd5b919050565b600082601f830112612c12578081fd5b610f7983833560208501612b70565b600060208284031215612c32578081fd5b610f7982612be6565b60008060408385031215612c4d578081fd5b612c5683612be6565b9150612c6460208401612be6565b90509250929050565b600080600060608486031215612c81578081fd5b612c8a84612be6565b9250612c9860208501612be6565b9150604084013590509250925092565b60008060008060808587031215612cbd578081fd5b612cc685612be6565b9350612cd460208601612be6565b925060408501359150606085013567ffffffffffffffff811115612cf6578182fd5b8501601f81018713612d06578182fd5b612d1587823560208401612b70565b91505092959194509250565b60008060408385031215612d33578182fd5b612d3c83612be6565b915060208301358015158114612d50578182fd5b809150509250929050565b60008060408385031215612d6d578182fd5b612d7683612be6565b946020939093013593505050565b600060208284031215612d95578081fd5b5035919050565b60008060408385031215612dae578182fd5b82359150612c6460208401612be6565b60008060408385031215612dd0578182fd5b50508035926020909101359150565b600060208284031215612df0578081fd5b8135610f79816134dc565b600060208284031215612e0c578081fd5b8151610f79816134dc565b600060208284031215612e28578081fd5b813567ffffffffffffffff811115612e3e578182fd5b610b2684828501612c02565b60008060408385031215612e5c578182fd5b823567ffffffffffffffff80821115612e73578384fd5b612e7f86838701612c02565b93506020850135915080821115612e94578283fd5b50612ea185828601612c02565b9150509250929050565b600080600060608486031215612ebf578081fd5b833567ffffffffffffffff80821115612ed6578283fd5b612ee287838801612c02565b94506020860135915080821115612ef7578283fd5b612f0387838801612c02565b93506040860135915080821115612f18578283fd5b50612f2586828701612c02565b9150509250925092565b60008060008060808587031215612f44578182fd5b843567ffffffffffffffff80821115612f5b578384fd5b612f6788838901612c02565b95506020870135915080821115612f7c578384fd5b612f8888838901612c02565b94506040870135915080821115612f9d578384fd5b50612faa87828801612c02565b925050612fb960608601612be6565b905092959194509250565b60008151808452612fdc8160208601602086016133ed565b601f01601f19169290920160200192915050565b600081516130028185602086016133ed565b9290920192915050565b6000825161301e8184602087016133ed565b9190910192915050565b6000835161303a8184602088016133ed565b83519083019061304e8183602088016133ed565b01949350505050565b600080845482600182811c91508083168061307357607f831692505b602080841082141561309357634e487b7160e01b87526022600452602487fd5b8180156130a757600181146130b8576130e4565b60ff198616895284890196506130e4565b60008b815260209020885b868110156130dc5781548b8201529085019083016130c3565b505084890196505b5050505050506131046130fe82602f60f81b815260010190565b85612ff0565b95945050505050565b7f416363657373436f6e74726f6c3a206163636f756e74200000000000000000008152600083516131458160178501602088016133ed565b7001034b99036b4b9b9b4b733903937b6329607d1b60179184019182015283516131768160288401602088016133ed565b01602801949350505050565b6001600160a01b03858116825284166020820152604081018390526080606082018190526000906131b590830184612fc4565b9695505050505050565b602081526000610f796020830184612fc4565b6080815260006131e56080830188612fc4565b82810360208401526131f78188612fc4565b91505060018060a01b038516604083015263ffffffff83168460201b1760401b60608301529695505050505050565b60208082526032908201527f4552433732313a207472616e7366657220746f206e6f6e20455243373231526560408201527131b2b4bb32b91034b6b83632b6b2b73a32b960711b606082015260800190565b6020808252602e908201527f496e697469616c697a61626c653a20636f6e747261637420697320616c72656160408201526d191e481a5b9a5d1a585b1a5e995960921b606082015260800190565b60208082526031908201527f4552433732313a207472616e736665722063616c6c6572206973206e6f74206f6040820152701ddb995c881b9bdc88185c1c1c9bdd9959607a1b606082015260800190565b602081528151602082015260018060a01b0360208301511660408201526000604083015160a0606084015261334f60c0840182612fc4565b90506060840151601f198085840301608086015261336d8383612fc4565b925060808601519150808584030160a0860152506131048282612fc4565b6000821982111561339e5761339e61349a565b500190565b6000826133b2576133b26134b0565b500490565b60008160001904831182151516156133d1576133d161349a565b500290565b6000828210156133e8576133e861349a565b500390565b60005b838110156134085781810151838201526020016133f0565b8381111561104f5750506000910152565b6000816134285761342861349a565b506000190190565b600181811c9082168061344457607f821691505b6020821081141561346557634e487b7160e01b600052602260045260246000fd5b50919050565b600060001982141561347f5761347f61349a565b5060010190565b600082613495576134956134b0565b500690565b634e487b7160e01b600052601160045260246000fd5b634e487b7160e01b600052601260045260246000fd5b634e487b7160e01b600052604160045260246000fd5b6001600160e01b031981168114610c9a57600080fdfe9f2df0fed2c77648de5860a4cc508cd0818c85b8b8a1ab4ceeef8d981c8956a6a2646970667358221220d9f275330706deaf13ccb2d7c8c1c364c6bec225d061d0bf63a6139bd06e481b64736f6c63430008040033","linkReferences":{},"deployedLinkReferences":{}}