{"_format":"hh-sol-artifact-1","contractName":"TwitterAuthOracle","sourceName":"contracts/oracles/TwitterAuthOracle.sol","abi":[{"inputs":[],"stateMutability":"nonpayable","type":"constructor"},{"anonymous":false,"inputs":[{"indexed":false,"internalType":"uint256","name":"requestId","type":"uint256"}],"name":"NewPendingRequest","type":"event"},{"anonymous":false,"inputs":[{"indexed":true,"internalType":"address","name":"previousOwner","type":"address"},{"indexed":true,"internalType":"address","name":"newOwner","type":"address"}],"name":"OwnershipTransferred","type":"event"},{"anonymous":false,"inputs":[{"indexed":false,"internalType":"uint256[]","name":"requestsIds","type":"uint256[]"},{"indexed":false,"internalType":"uint8","name":"count","type":"uint8"}],"name":"RetrievePendingRequestsFromQueue","type":"event"},{"inputs":[{"internalType":"uint256","name":"id","type":"uint256"},{"internalType":"string","name":"err","type":"string"}],"name":"failed","outputs":[],"stateMutability":"nonpayable","type":"function"},{"inputs":[],"name":"getPendingRequestsIdsFromQueue","outputs":[{"internalType":"uint8","name":"count","type":"uint8"}],"stateMutability":"nonpayable","type":"function"},{"inputs":[{"internalType":"uint256","name":"id","type":"uint256"}],"name":"getRequestById","outputs":[{"components":[{"internalType":"address","name":"owner","type":"address"},{"internalType":"uint256","name":"id","type":"uint256"},{"internalType":"string","name":"oauthToken","type":"string"},{"internalType":"string","name":"oauthVerifier","type":"string"},{"internalType":"uint8","name":"status","type":"uint8"},{"internalType":"string","name":"err","type":"string"}],"internalType":"struct TwitterAuthData.RequestSerialized","name":"","type":"tuple"}],"stateMutability":"view","type":"function"},{"inputs":[],"name":"owner","outputs":[{"internalType":"address","name":"","type":"address"}],"stateMutability":"view","type":"function"},{"inputs":[],"name":"priceWEI","outputs":[{"internalType":"uint256","name":"","type":"uint256"}],"stateMutability":"view","type":"function"},{"inputs":[],"name":"renounceOwnership","outputs":[],"stateMutability":"nonpayable","type":"function"},{"inputs":[{"internalType":"string","name":"oauthToken","type":"string"},{"internalType":"string","name":"oauthVerifier","type":"string"},{"internalType":"address","name":"owner","type":"address"},{"internalType":"function (struct TwitterAuthData.Response) external","name":"successCallback","type":"function"},{"internalType":"function (uint256,string) external","name":"failureCallback","type":"function"}],"name":"request","outputs":[{"internalType":"uint256","name":"","type":"uint256"}],"stateMutability":"payable","type":"function"},{"inputs":[],"name":"retrieveFunds","outputs":[],"stateMutability":"nonpayable","type":"function"},{"inputs":[{"internalType":"uint256","name":"_priceWEI","type":"uint256"}],"name":"setPriceETH","outputs":[],"stateMutability":"nonpayable","type":"function"},{"inputs":[{"internalType":"uint256","name":"id","type":"uint256"}],"name":"startProcessing","outputs":[],"stateMutability":"nonpayable","type":"function"},{"inputs":[{"internalType":"uint256","name":"id","type":"uint256"},{"internalType":"string","name":"screenName","type":"string"},{"internalType":"string","name":"userId","type":"string"}],"name":"succeeded","outputs":[],"stateMutability":"nonpayable","type":"function"},{"inputs":[{"internalType":"address","name":"newOwner","type":"address"}],"name":"transferOwnership","outputs":[],"stateMutability":"nonpayable","type":"function"}],"bytecode":"0x608060405234801561001057600080fd5b5061001a33610041565b66b1a2bc2ec5000060015561003c600460c8610091602090811b610d9917901c565b6100cd565b600080546001600160a01b038381166001600160a01b0319831681178455604051919092169283917f8be0079c531659141344cd1fd0a4f28419497f9722a3daafe3b4186f6b6457e09190a35050565b60018201805463ffffffff1916630100000060ff8416021790555b815460ff821611156100c9578154600101825560008290526100ac565b5050565b6118ae80620000dd6000396000f3fe6080604052600436106100a75760003560e01c8063954db88e11610064578063954db88e1461017657806399a752d714610196578063c1500a57146101b6578063cb2859b1146101dd578063f176ea12146101fe578063f2fde38b1461021457600080fd5b806317a8791d146100ac57806326757b73146100ce57806329fa50f91461010457806361b20d8c14610124578063715018a6146101395780638da5cb5b1461014e575b600080fd5b3480156100b857600080fd5b506100cc6100c7366004611467565b610234565b005b3480156100da57600080fd5b506100ee6100e9366004611467565b610328565b6040516100fb9190611668565b60405180910390f35b34801561011057600080fd5b506100cc61011f36600461147f565b6103a3565b34801561013057600080fd5b506100cc6104c8565b34801561014557600080fd5b506100cc610521565b34801561015a57600080fd5b506000546040516001600160a01b0390911681526020016100fb565b34801561018257600080fd5b506100cc6101913660046114c4565b610557565b3480156101a257600080fd5b506100cc6101b1366004611467565b6106ad565b3480156101c257600080fd5b506101cb6106dc565b60405160ff90911681526020016100fb565b6101f06101eb3660046113a6565b610ab1565b6040519081526020016100fb565b34801561020a57600080fd5b506101f060015481565b34801561022057600080fd5b506100cc61022f366004611385565b610d01565b6000546001600160a01b031633146102675760405162461bcd60e51b815260040161025e906115c7565b60405180910390fd5b600081815260026020526040902060050154600160c01b900460ff166001146103045760405162461bcd60e51b815260206004820152604360248201527f5265717565737420776974682070726f7669646564206964206973206e6f742060448201527f696e2070656e64696e672073746174652c206f7220646f6573206e6f742065786064820152621a5cdd60ea1b608482015260a40161025e565b6000908152600260205260409020600501805460ff60c01b1916600160c11b179055565b61033061120c565b6000546001600160a01b0316331461035a5760405162461bcd60e51b815260040161025e906115c7565b600082815260026020526040902060050154600160c01b900460ff166103925760405162461bcd60e51b815260040161025e906115fc565b61039b82610dd5565b90505b919050565b6000546001600160a01b031633146103cd5760405162461bcd60e51b815260040161025e906115c7565b600082815260026020819052604090912060050154600160c01b900460ff16146104095760405162461bcd60e51b815260040161025e906115fc565b600082815260026020908152604090912060058101805460ff60c01b1916600160c21b17905582516104439260069092019184019061124e565b5060008281526002602090815260409182902060050154915160e083901b6001600160e01b03191681529082901c6001600160a01b03169163ffffffff16906104929085908590600401611757565b600060405180830381600087803b1580156104ac57600080fd5b505af11580156104c0573d6000803e3d6000fd5b505050505050565b6000546001600160a01b031633146104f25760405162461bcd60e51b815260040161025e906115c7565b60405133904780156108fc02916000818181858888f1935050505015801561051e573d6000803e3d6000fd5b50565b6000546001600160a01b0316331461054b5760405162461bcd60e51b815260040161025e906115c7565b610555600061102b565b565b6000546001600160a01b031633146105815760405162461bcd60e51b815260040161025e906115c7565b600083815260026020819052604090912060050154600160c01b900460ff16146105bd5760405162461bcd60e51b815260040161025e906115fc565b6105f1604051806080016040528060008152602001606081526020016060815260200160006001600160a01b031681525090565b838152602080820184905260408083018490526000868152600280845282822080546001600160a01b0390811660608801529289905290845260058101805460ff60c01b1916600360c01b179055600490810154925160e084901b6001600160e01b03191681529383901c9091169263ffffffff90921691610675918591016116f2565b600060405180830381600087803b15801561068f57600080fd5b505af11580156106a3573d6000803e3d6000fd5b5050505050505050565b6000546001600160a01b031633146106d75760405162461bcd60e51b815260040161025e906115c7565b600155565b600080546001600160a01b031633146107075760405162461bcd60e51b815260040161025e906115c7565b600080610714600461107b565b9150915061075e604080516101008101825260008082526020820181905260609282018390528282018390526080820181905260a0820181905260c082015260e081019190915290565b6005546000906301000000900460ff1667ffffffffffffffff81111561079457634e487b7160e01b600052604160045260246000fd5b6040519080825280602002602001820160405280156107bd578160200160208202803683370190505b50905060005b8315610a6f5760008581526002602081815260409283902083516101008101855281546001600160a01b0316815260018201549281019290925291820180549193840191610810906117ba565b80601f016020809104026020016040519081016040528092919081815260200182805461083c906117ba565b80156108895780601f1061085e57610100808354040283529160200191610889565b820191906000526020600020905b81548152906001019060200180831161086c57829003601f168201915b505050505081526020016003820180546108a2906117ba565b80601f01602080910402602001604051908101604052809291908181526020018280546108ce906117ba565b801561091b5780601f106108f05761010080835404028352916020019161091b565b820191906000526020600020905b8154815290600101906020018083116108fe57829003601f168201915b5050509183525050600482015463ffffffff808216640100000000600160c01b0392831617604090811b6020850152600585015491821692821692909217821b91830191909152600160c01b900460ff166060820152600682018054608090920191610986906117ba565b80601f01602080910402602001604051908101604052809291908181526020018280546109b2906117ba565b80156109ff5780601f106109d4576101008083540402835291602001916109ff565b820191906000526020600020905b8154815290600101906020018083116109e257829003601f168201915b50505050508152505092508260c0015160ff1660011415610a5b578260200151828260ff1681518110610a4257634e487b7160e01b600052603260045260246000fd5b602090810291909101015280610a57816117f5565b9150505b610a65600461107b565b90955093506107c3565b7f66cb254fb886e0d489510b04c89acde5be432fc7247b241872ad1fc23b55f4c18282604051610aa0929190611579565b60405180910390a194505050505090565b60006001543414610b145760405162461bcd60e51b815260206004820152602760248201527f506c656173652073656e6420656e6f756768742045544820666f7220746865206044820152661c995c5d595cdd60ca1b606482015260840161025e565b604080516101008101825260008082526020820181905260609282018390528282018390526080820181905260a0820181905260c082015260e08101919091526000610b5f60035490565b9050610b6f600380546001019055565b60208281018281526001600160a01b038a8116855260408086018e8152606087018e905263ffffffff8b81168d871b17831b608089015289168a861b17821b60a0880152600160c0880181905260008781526002808852939020885181546001600160a01b03191695169490941784559351938301939093559151805186949293610bff9390850192019061124e565b5060608201518051610c1b91600384019160209091019061124e565b5060808201516004820180546001600160c01b03191663ffffffff604093841c818116640100000000600160c01b03918216179290921790925560a085015160058501805460c08801519290951c93841693909216929092176001600160c81b031990931692909217600160c01b60ff9092169190910217905560e08201518051610cb091600684019160209091019061124e565b50610cc09150600490508261113c565b506040518181527f1d5ba61d36a1cd5c3cd949b43386ae4e8c065fe019d3d727fdcf69249cde75be9060200160405180910390a19998505050505050505050565b6000546001600160a01b03163314610d2b5760405162461bcd60e51b815260040161025e906115c7565b6001600160a01b038116610d905760405162461bcd60e51b815260206004820152602660248201527f4f776e61626c653a206e6577206f776e657220697320746865207a65726f206160448201526564647265737360d01b606482015260840161025e565b61051e8161102b565b60018201805463ffffffff1916630100000060ff8416021790555b815460ff82161115610dd157815460010182556000829052610db4565b5050565b610ddd61120c565b6000546001600160a01b03163314610e075760405162461bcd60e51b815260040161025e906115c7565b610e0f61120c565b6000838152600260208181526040832060018101548583015280546001600160a01b0316855292869052819052018054610e48906117ba565b80601f0160208091040260200160405190810160405280929190818152602001828054610e74906117ba565b8015610ec15780601f10610e9657610100808354040283529160200191610ec1565b820191906000526020600020905b815481529060010190602001808311610ea457829003601f168201915b505050506040808401929092525060008481526002602052206003018054610ee8906117ba565b80601f0160208091040260200160405190810160405280929190818152602001828054610f14906117ba565b8015610f615780601f10610f3657610100808354040283529160200191610f61565b820191906000526020600020905b815481529060010190602001808311610f4457829003601f168201915b50505050506060820152600083815260026020818152604083206005810154600160c01b900460ff16608086015292869052526006018054610fa2906117ba565b80601f0160208091040260200160405190810160405280929190818152602001828054610fce906117ba565b801561101b5780601f10610ff05761010080835404028352916020019161101b565b820191906000526020600020905b815481529060010190602001808311610ffe57829003601f168201915b505050505060a082015292915050565b600080546001600160a01b038381166001600160a01b0319831681178455604051919092169283917f8be0079c531659141344cd1fd0a4f28419497f9722a3daafe3b4186f6b6457e09190a35050565b6001810154600090819062010000900460ff16156111375760018301548354849160ff169081106110bc57634e487b7160e01b600052603260045260246000fd5b600091825260209091200154835460018086015492945090916110e49160ff90911690611778565b60ff166110f19190611815565b60018401805460ff191660ff928316178082556201000090049091169060026111198361179d565b91906101000a81548160ff021916908360ff16021790555050600190505b915091565b815460018301546000916201000090910460ff16101561120657600183015483548391859161010090910460ff1690811061118757634e487b7160e01b600052603260045260246000fd5b60009182526020909120015582546001808501546111ae9161010090910460ff1690611778565b60ff166111bb9190611815565b60018401805461ff00191661010060ff93841602178082556201000090049091169060026111e8836117f5565b91906101000a81548160ff021916908360ff16021790555050600190505b92915050565b6040518060c0016040528060006001600160a01b03168152602001600081526020016060815260200160608152602001600060ff168152602001606081525090565b82805461125a906117ba565b90600052602060002090601f01602090048101928261127c57600085556112c2565b82601f1061129557805160ff19168380011785556112c2565b828001600101855582156112c2579182015b828111156112c25782518255916020019190600101906112a7565b506112ce9291506112d2565b5090565b5b808211156112ce57600081556001016112d3565b80356001600160a01b038116811461039e57600080fd5b600082601f83011261130e578081fd5b813567ffffffffffffffff808211156113295761132961184b565b604051601f8301601f19908116603f011681019082821181831017156113515761135161184b565b81604052838152866020858801011115611369578485fd5b8360208701602083013792830160200193909352509392505050565b600060208284031215611396578081fd5b61139f826112e7565b9392505050565b600080600080600080600060a0888a0312156113c0578283fd5b873567ffffffffffffffff808211156113d7578485fd5b6113e38b838c016112fe565b985060208a01359150808211156113f8578485fd5b506114058a828b016112fe565b965050611414604089016112e7565b9450606088013561142481611861565b606081901c945060401c63ffffffff169250608088013561144481611861565b606081901c63ffffffff604083901c16989b979a50959850939692959293505050565b600060208284031215611478578081fd5b5035919050565b60008060408385031215611491578182fd5b82359150602083013567ffffffffffffffff8111156114ae578182fd5b6114ba858286016112fe565b9150509250929050565b6000806000606084860312156114d8578283fd5b83359250602084013567ffffffffffffffff808211156114f6578384fd5b611502878388016112fe565b93506040860135915080821115611517578283fd5b50611524868287016112fe565b9150509250925092565b60008151808452815b8181101561155357602081850181015186830182015201611537565b818111156115645782602083870101525b50601f01601f19169290920160200192915050565b604080825283519082018190526000906020906060840190828701845b828110156115b257815184529284019290840190600101611596565b50505060ff9490941692019190915250919050565b6020808252818101527f4f776e61626c653a2063616c6c6572206973206e6f7420746865206f776e6572604082015260600190565b60208082526046908201527f5265717565737420776974682070726f7669646564206964206973206e6f742060408201527f696e2070726f63657373696e672073746174652c206f7220646f6573206e6f7460608201526508195e1a5cdd60d21b608082015260a00190565b6020815260018060a01b038251166020820152602082015160408201526000604083015160c060608401526116a060e084018261152e565b90506060840151601f19808584030160808601526116be838361152e565b925060ff60808701511660a086015260a08601519150808584030160c0860152506116e9828261152e565b95945050505050565b6020815281516020820152600060208301516080604084015261171860a084018261152e565b90506040840151601f19848303016060850152611735828261152e565b606095909501516001600160a01b031660809490940193909352509192915050565b828152604060208201526000611770604083018461152e565b949350505050565b600060ff821660ff84168060ff0382111561179557611795611835565b019392505050565b600060ff8216806117b0576117b0611835565b6000190192915050565b600181811c908216806117ce57607f821691505b602082108114156117ef57634e487b7160e01b600052602260045260246000fd5b50919050565b600060ff821660ff81141561180c5761180c611835565b60010192915050565b60008261183057634e487b7160e01b81526012600452602481fd5b500690565b634e487b7160e01b600052601160045260246000fd5b634e487b7160e01b600052604160045260246000fd5b67ffffffffffffffff198116811461051e57600080fdfea2646970667358221220635800742e5d6b0e957bbd444d908aca915165b11e54623607e08496f69b1eb464736f6c63430008040033","linkReferences":{},"deployedLinkReferences":{}}