{
  "contractName": "OwnedWords",
  "abi": [
    {
      "inputs": [],
      "stateMutability": "nonpayable",
      "type": "constructor"
    },
    {
      "anonymous": false,
      "inputs": [
        {
          "indexed": true,
          "internalType": "address",
          "name": "owner",
          "type": "address"
        },
        {
          "indexed": true,
          "internalType": "address",
          "name": "approved",
          "type": "address"
        },
        {
          "indexed": true,
          "internalType": "uint256",
          "name": "tokenId",
          "type": "uint256"
        }
      ],
      "name": "Approval",
      "type": "event"
    },
    {
      "anonymous": false,
      "inputs": [
        {
          "indexed": true,
          "internalType": "address",
          "name": "owner",
          "type": "address"
        },
        {
          "indexed": true,
          "internalType": "address",
          "name": "operator",
          "type": "address"
        },
        {
          "indexed": false,
          "internalType": "bool",
          "name": "approved",
          "type": "bool"
        }
      ],
      "name": "ApprovalForAll",
      "type": "event"
    },
    {
      "anonymous": false,
      "inputs": [
        {
          "indexed": true,
          "internalType": "bytes32",
          "name": "role",
          "type": "bytes32"
        },
        {
          "indexed": true,
          "internalType": "bytes32",
          "name": "previousAdminRole",
          "type": "bytes32"
        },
        {
          "indexed": true,
          "internalType": "bytes32",
          "name": "newAdminRole",
          "type": "bytes32"
        }
      ],
      "name": "RoleAdminChanged",
      "type": "event"
    },
    {
      "anonymous": false,
      "inputs": [
        {
          "indexed": true,
          "internalType": "bytes32",
          "name": "role",
          "type": "bytes32"
        },
        {
          "indexed": true,
          "internalType": "address",
          "name": "account",
          "type": "address"
        },
        {
          "indexed": true,
          "internalType": "address",
          "name": "sender",
          "type": "address"
        }
      ],
      "name": "RoleGranted",
      "type": "event"
    },
    {
      "anonymous": false,
      "inputs": [
        {
          "indexed": true,
          "internalType": "bytes32",
          "name": "role",
          "type": "bytes32"
        },
        {
          "indexed": true,
          "internalType": "address",
          "name": "account",
          "type": "address"
        },
        {
          "indexed": true,
          "internalType": "address",
          "name": "sender",
          "type": "address"
        }
      ],
      "name": "RoleRevoked",
      "type": "event"
    },
    {
      "anonymous": false,
      "inputs": [
        {
          "indexed": true,
          "internalType": "address",
          "name": "from",
          "type": "address"
        },
        {
          "indexed": true,
          "internalType": "address",
          "name": "to",
          "type": "address"
        },
        {
          "indexed": true,
          "internalType": "uint256",
          "name": "tokenId",
          "type": "uint256"
        }
      ],
      "name": "Transfer",
      "type": "event"
    },
    {
      "inputs": [],
      "name": "DEFAULT_ADMIN_ROLE",
      "outputs": [
        {
          "internalType": "bytes32",
          "name": "",
          "type": "bytes32"
        }
      ],
      "stateMutability": "view",
      "type": "function",
      "constant": true
    },
    {
      "inputs": [],
      "name": "MINTER_ROLE",
      "outputs": [
        {
          "internalType": "bytes32",
          "name": "",
          "type": "bytes32"
        }
      ],
      "stateMutability": "view",
      "type": "function",
      "constant": true
    },
    {
      "inputs": [],
      "name": "PAUSER_ROLE",
      "outputs": [
        {
          "internalType": "bytes32",
          "name": "",
          "type": "bytes32"
        }
      ],
      "stateMutability": "view",
      "type": "function",
      "constant": true
    },
    {
      "inputs": [
        {
          "internalType": "address",
          "name": "to",
          "type": "address"
        },
        {
          "internalType": "uint256",
          "name": "tokenId",
          "type": "uint256"
        }
      ],
      "name": "approve",
      "outputs": [],
      "stateMutability": "nonpayable",
      "type": "function"
    },
    {
      "inputs": [
        {
          "internalType": "address",
          "name": "owner",
          "type": "address"
        }
      ],
      "name": "balanceOf",
      "outputs": [
        {
          "internalType": "uint256",
          "name": "",
          "type": "uint256"
        }
      ],
      "stateMutability": "view",
      "type": "function",
      "constant": true
    },
    {
      "inputs": [
        {
          "internalType": "uint256",
          "name": "tokenId",
          "type": "uint256"
        }
      ],
      "name": "burn",
      "outputs": [],
      "stateMutability": "nonpayable",
      "type": "function"
    },
    {
      "inputs": [
        {
          "internalType": "uint256",
          "name": "tokenId",
          "type": "uint256"
        }
      ],
      "name": "getApproved",
      "outputs": [
        {
          "internalType": "address",
          "name": "",
          "type": "address"
        }
      ],
      "stateMutability": "view",
      "type": "function",
      "constant": true
    },
    {
      "inputs": [
        {
          "internalType": "bytes32",
          "name": "role",
          "type": "bytes32"
        }
      ],
      "name": "getRoleAdmin",
      "outputs": [
        {
          "internalType": "bytes32",
          "name": "",
          "type": "bytes32"
        }
      ],
      "stateMutability": "view",
      "type": "function",
      "constant": true
    },
    {
      "inputs": [
        {
          "internalType": "bytes32",
          "name": "role",
          "type": "bytes32"
        },
        {
          "internalType": "uint256",
          "name": "index",
          "type": "uint256"
        }
      ],
      "name": "getRoleMember",
      "outputs": [
        {
          "internalType": "address",
          "name": "",
          "type": "address"
        }
      ],
      "stateMutability": "view",
      "type": "function",
      "constant": true
    },
    {
      "inputs": [
        {
          "internalType": "bytes32",
          "name": "role",
          "type": "bytes32"
        }
      ],
      "name": "getRoleMemberCount",
      "outputs": [
        {
          "internalType": "uint256",
          "name": "",
          "type": "uint256"
        }
      ],
      "stateMutability": "view",
      "type": "function",
      "constant": true
    },
    {
      "inputs": [
        {
          "internalType": "bytes32",
          "name": "role",
          "type": "bytes32"
        },
        {
          "internalType": "address",
          "name": "account",
          "type": "address"
        }
      ],
      "name": "grantRole",
      "outputs": [],
      "stateMutability": "nonpayable",
      "type": "function"
    },
    {
      "inputs": [
        {
          "internalType": "bytes32",
          "name": "role",
          "type": "bytes32"
        },
        {
          "internalType": "address",
          "name": "account",
          "type": "address"
        }
      ],
      "name": "hasRole",
      "outputs": [
        {
          "internalType": "bool",
          "name": "",
          "type": "bool"
        }
      ],
      "stateMutability": "view",
      "type": "function",
      "constant": true
    },
    {
      "inputs": [
        {
          "internalType": "address",
          "name": "owner",
          "type": "address"
        },
        {
          "internalType": "address",
          "name": "operator",
          "type": "address"
        }
      ],
      "name": "isApprovedForAll",
      "outputs": [
        {
          "internalType": "bool",
          "name": "",
          "type": "bool"
        }
      ],
      "stateMutability": "view",
      "type": "function",
      "constant": true
    },
    {
      "inputs": [],
      "name": "name",
      "outputs": [
        {
          "internalType": "string",
          "name": "",
          "type": "string"
        }
      ],
      "stateMutability": "view",
      "type": "function",
      "constant": true
    },
    {
      "inputs": [
        {
          "internalType": "uint256",
          "name": "tokenId",
          "type": "uint256"
        }
      ],
      "name": "ownerOf",
      "outputs": [
        {
          "internalType": "address",
          "name": "",
          "type": "address"
        }
      ],
      "stateMutability": "view",
      "type": "function",
      "constant": true
    },
    {
      "inputs": [
        {
          "internalType": "bytes32",
          "name": "role",
          "type": "bytes32"
        },
        {
          "internalType": "address",
          "name": "account",
          "type": "address"
        }
      ],
      "name": "renounceRole",
      "outputs": [],
      "stateMutability": "nonpayable",
      "type": "function"
    },
    {
      "inputs": [
        {
          "internalType": "bytes32",
          "name": "role",
          "type": "bytes32"
        },
        {
          "internalType": "address",
          "name": "account",
          "type": "address"
        }
      ],
      "name": "revokeRole",
      "outputs": [],
      "stateMutability": "nonpayable",
      "type": "function"
    },
    {
      "inputs": [
        {
          "internalType": "address",
          "name": "from",
          "type": "address"
        },
        {
          "internalType": "address",
          "name": "to",
          "type": "address"
        },
        {
          "internalType": "uint256",
          "name": "tokenId",
          "type": "uint256"
        }
      ],
      "name": "safeTransferFrom",
      "outputs": [],
      "stateMutability": "nonpayable",
      "type": "function"
    },
    {
      "inputs": [
        {
          "internalType": "address",
          "name": "from",
          "type": "address"
        },
        {
          "internalType": "address",
          "name": "to",
          "type": "address"
        },
        {
          "internalType": "uint256",
          "name": "tokenId",
          "type": "uint256"
        },
        {
          "internalType": "bytes",
          "name": "_data",
          "type": "bytes"
        }
      ],
      "name": "safeTransferFrom",
      "outputs": [],
      "stateMutability": "nonpayable",
      "type": "function"
    },
    {
      "inputs": [
        {
          "internalType": "address",
          "name": "operator",
          "type": "address"
        },
        {
          "internalType": "bool",
          "name": "approved",
          "type": "bool"
        }
      ],
      "name": "setApprovalForAll",
      "outputs": [],
      "stateMutability": "nonpayable",
      "type": "function"
    },
    {
      "inputs": [
        {
          "internalType": "bytes4",
          "name": "interfaceId",
          "type": "bytes4"
        }
      ],
      "name": "supportsInterface",
      "outputs": [
        {
          "internalType": "bool",
          "name": "",
          "type": "bool"
        }
      ],
      "stateMutability": "view",
      "type": "function",
      "constant": true
    },
    {
      "inputs": [],
      "name": "symbol",
      "outputs": [
        {
          "internalType": "string",
          "name": "",
          "type": "string"
        }
      ],
      "stateMutability": "view",
      "type": "function",
      "constant": true
    },
    {
      "inputs": [
        {
          "internalType": "uint256",
          "name": "index",
          "type": "uint256"
        }
      ],
      "name": "tokenByIndex",
      "outputs": [
        {
          "internalType": "uint256",
          "name": "",
          "type": "uint256"
        }
      ],
      "stateMutability": "view",
      "type": "function",
      "constant": true
    },
    {
      "inputs": [
        {
          "internalType": "address",
          "name": "owner",
          "type": "address"
        },
        {
          "internalType": "uint256",
          "name": "index",
          "type": "uint256"
        }
      ],
      "name": "tokenOfOwnerByIndex",
      "outputs": [
        {
          "internalType": "uint256",
          "name": "",
          "type": "uint256"
        }
      ],
      "stateMutability": "view",
      "type": "function",
      "constant": true
    },
    {
      "inputs": [],
      "name": "totalSupply",
      "outputs": [
        {
          "internalType": "uint256",
          "name": "",
          "type": "uint256"
        }
      ],
      "stateMutability": "view",
      "type": "function",
      "constant": true
    },
    {
      "inputs": [
        {
          "internalType": "address",
          "name": "from",
          "type": "address"
        },
        {
          "internalType": "address",
          "name": "to",
          "type": "address"
        },
        {
          "internalType": "uint256",
          "name": "tokenId",
          "type": "uint256"
        }
      ],
      "name": "transferFrom",
      "outputs": [],
      "stateMutability": "nonpayable",
      "type": "function"
    },
    {
      "inputs": [
        {
          "internalType": "string",
          "name": "sn_name",
          "type": "string"
        },
        {
          "internalType": "string",
          "name": "author_id",
          "type": "string"
        },
        {
          "internalType": "string",
          "name": "author_name",
          "type": "string"
        },
        {
          "internalType": "string",
          "name": "author_picture_url",
          "type": "string"
        },
        {
          "internalType": "string",
          "name": "post_id",
          "type": "string"
        },
        {
          "internalType": "string",
          "name": "post_url",
          "type": "string"
        },
        {
          "internalType": "string",
          "name": "message",
          "type": "string"
        },
        {
          "internalType": "string",
          "name": "token_uri",
          "type": "string"
        }
      ],
      "name": "mint",
      "outputs": [
        {
          "internalType": "uint256",
          "name": "",
          "type": "uint256"
        }
      ],
      "stateMutability": "nonpayable",
      "type": "function"
    },
    {
      "inputs": [
        {
          "internalType": "uint256",
          "name": "tokenId",
          "type": "uint256"
        }
      ],
      "name": "get_post_url",
      "outputs": [
        {
          "internalType": "string",
          "name": "",
          "type": "string"
        }
      ],
      "stateMutability": "view",
      "type": "function",
      "constant": true
    },
    {
      "inputs": [],
      "name": "get_tokens",
      "outputs": [
        {
          "internalType": "uint256[]",
          "name": "",
          "type": "uint256[]"
        }
      ],
      "stateMutability": "view",
      "type": "function",
      "constant": true
    },
    {
      "inputs": [
        {
          "internalType": "string",
          "name": "sn_name",
          "type": "string"
        },
        {
          "internalType": "string",
          "name": "author_id",
          "type": "string"
        },
        {
          "internalType": "string",
          "name": "post_id",
          "type": "string"
        }
      ],
      "name": "get_token_id_for_post",
      "outputs": [
        {
          "internalType": "uint256",
          "name": "",
          "type": "uint256"
        }
      ],
      "stateMutability": "view",
      "type": "function",
      "constant": true
    },
    {
      "inputs": [
        {
          "internalType": "uint256",
          "name": "tokenId",
          "type": "uint256"
        }
      ],
      "name": "tokenURI",
      "outputs": [
        {
          "internalType": "string",
          "name": "",
          "type": "string"
        }
      ],
      "stateMutability": "view",
      "type": "function",
      "constant": true
    }
  ],
  "bytecode": "0x60806040523480156200001157600080fd5b506040518060400160405280600a81526020017f4f776e6564576f726473000000000000000000000000000000000000000000008152506040518060400160405280600381526020017f4f575700000000000000000000000000000000000000000000000000000000008152508181816002908051906020019062000098929190620003f8565b508060039080519060200190620000b1929190620003f8565b505050620000d86000801b620000cc6200016260201b60201c565b6200016a60201b60201c565b620001197f9f2df0fed2c77648de5860a4cc508cd0818c85b8b8a1ab4ceeef8d981c8956a66200010d6200016260201b60201c565b6200016a60201b60201c565b6200015a7f65d7a28e3265b37a6474929f336521b332c1681b933f6cb9f3376673440d862a6200014e6200016260201b60201c565b6200016a60201b60201c565b50506200050d565b600033905090565b620001818282620001b260201b6200181c1760201c565b620001ad8160016000858152602001908152602001600020620001c860201b6200182a1790919060201c565b505050565b620001c482826200020060201b60201c565b5050565b6000620001f8836000018373ffffffffffffffffffffffffffffffffffffffff1660001b620002f160201b60201c565b905092915050565b6200021282826200036b60201b60201c565b620002ed57600160008084815260200190815260200160002060000160008373ffffffffffffffffffffffffffffffffffffffff1673ffffffffffffffffffffffffffffffffffffffff16815260200190815260200160002060006101000a81548160ff021916908315150217905550620002926200016260201b60201c565b73ffffffffffffffffffffffffffffffffffffffff168173ffffffffffffffffffffffffffffffffffffffff16837f2f8788117e7eff1d82e926ec794901d17c78024a50270940304540a733656f0d60405160405180910390a45b5050565b6000620003058383620003d560201b60201c565b6200036057826000018290806001815401808255809150506001900390600052602060002001600090919091909150558260000180549050836001016000848152602001908152602001600020819055506001905062000365565b600090505b92915050565b600080600084815260200190815260200160002060000160008373ffffffffffffffffffffffffffffffffffffffff1673ffffffffffffffffffffffffffffffffffffffff16815260200190815260200160002060009054906101000a900460ff16905092915050565b600080836001016000848152602001908152602001600020541415905092915050565b8280546200040690620004a8565b90600052602060002090601f0160209004810192826200042a576000855562000476565b82601f106200044557805160ff191683800117855562000476565b8280016001018555821562000476579182015b828111156200047557825182559160200191906001019062000458565b5b50905062000485919062000489565b5090565b5b80821115620004a45760008160009055506001016200048a565b5090565b60006002820490506001821680620004c157607f821691505b60208210811415620004d857620004d7620004de565b5b50919050565b7f4e487b7100000000000000000000000000000000000000000000000000000000600052602260045260246000fd5b614cad806200051d6000396000f3fe608060405234801561001057600080fd5b50600436106101e55760003560e01c806370a082311161010f578063c87b56dd116100a2578063d547741f11610071578063d547741f146105ee578063e63ab1e91461060a578063e985e9c514610628578063fb88680414610658576101e5565b8063c87b56dd14610540578063ca15c87314610570578063cb995f8e146105a0578063d5391393146105d0576101e5565b8063a217fddf116100de578063a217fddf146104cc578063a22cb465146104ea578063b88d4fde14610506578063bab2b9e714610522576101e5565b806370a082311461041e5780639010d07c1461044e57806391d148541461047e57806395d89b41146104ae576101e5565b80632f2ff15d1161018757806342966c681161015657806342966c68146103725780634f6ccce71461038e57806361bd4aff146103be5780636352211e146103ee576101e5565b80632f2ff15d146102ee5780632f745c591461030a57806336568abe1461033a57806342842e0e14610356576101e5565b8063095ea7b3116101c3578063095ea7b31461026857806318160ddd1461028457806323b872dd146102a2578063248a9ca3146102be576101e5565b806301ffc9a7146101ea57806306fdde031461021a578063081812fc14610238575b600080fd5b61020460048036038101906101ff919061358e565b610688565b6040516102119190613e09565b60405180910390f35b61022261069a565b60405161022f9190613e3f565b60405180910390f35b610252600480360381019061024d9190613825565b61072c565b60405161025f9190613d80565b60405180910390f35b610282600480360381019061027d91906134a1565b6107b1565b005b61028c6108c9565b6040516102999190614121565b60405180910390f35b6102bc60048036038101906102b7919061338b565b6108d6565b005b6102d860048036038101906102d391906134e1565b610936565b6040516102e59190613e24565b60405180910390f35b6103086004803603810190610303919061350e565b610955565b005b610324600480360381019061031f91906134a1565b610989565b6040516103319190614121565b60405180910390f35b610354600480360381019061034f919061350e565b610a2e565b005b610370600480360381019061036b919061338b565b610a62565b005b61038c60048036038101906103879190613825565b610a82565b005b6103a860048036038101906103a39190613825565b610ade565b6040516103b59190614121565b60405180910390f35b6103d860048036038101906103d39190613825565b610b4f565b6040516103e59190613e3f565b60405180910390f35b61040860048036038101906104039190613825565b610c3f565b6040516104159190613d80565b60405180910390f35b6104386004803603810190610433919061331e565b610cf1565b6040516104459190614121565b60405180910390f35b6104686004803603810190610463919061354e565b610da9565b6040516104759190613d80565b60405180910390f35b6104986004803603810190610493919061350e565b610dd8565b6040516104a59190613e09565b60405180910390f35b6104b6610e42565b6040516104c39190613e3f565b60405180910390f35b6104d4610ed4565b6040516104e19190613e24565b60405180910390f35b61050460048036038101906104ff9190613461565b610edb565b005b610520600480360381019061051b91906133de565b61105c565b005b61052a6110be565b6040516105379190613de7565b60405180910390f35b61055a60048036038101906105559190613825565b611153565b6040516105679190613e3f565b60405180910390f35b61058a600480360381019061058591906134e1565b611243565b6040516105979190614121565b60405180910390f35b6105ba60048036038101906105b591906135e8565b611267565b6040516105c79190614121565b60405180910390f35b6105d8611321565b6040516105e59190613e24565b60405180910390f35b6106086004803603810190610603919061350e565b611345565b005b610612611379565b60405161061f9190613e24565b60405180910390f35b610642600480360381019061063d919061334b565b61139d565b60405161064f9190613e09565b60405180910390f35b610672600480360381019061066d919061368f565b611431565b60405161067f9190614121565b60405180910390f35b60006106938261185a565b9050919050565b6060600280546106a99061440d565b80601f01602080910402602001604051908101604052809291908181526020018280546106d59061440d565b80156107225780601f106106f757610100808354040283529160200191610722565b820191906000526020600020905b81548152906001019060200180831161070557829003601f168201915b5050505050905090565b6000610737826118d4565b610776576040517f08c379a000000000000000000000000000000000000000000000000000000000815260040161076d90613fe1565b60405180910390fd5b6006600083815260200190815260200160002060009054906101000a900473ffffffffffffffffffffffffffffffffffffffff169050919050565b60006107bc82610c3f565b90508073ffffffffffffffffffffffffffffffffffffffff168373ffffffffffffffffffffffffffffffffffffffff16141561082d576040517f08c379a000000000000000000000000000000000000000000000000000000000815260040161082490614041565b60405180910390fd5b8073ffffffffffffffffffffffffffffffffffffffff1661084c611940565b73ffffffffffffffffffffffffffffffffffffffff16148061087b575061087a81610875611940565b61139d565b5b6108ba576040517f08c379a00000000000000000000000000000000000000000000000000000000081526004016108b190613f61565b60405180910390fd5b6108c48383611948565b505050565b6000600a80549050905090565b6108e76108e1611940565b82611a01565b610926576040517f08c379a000000000000000000000000000000000000000000000000000000000815260040161091d90614061565b60405180910390fd5b610931838383611adf565b505050565b6000806000838152602001908152602001600020600101549050919050565b61095f8282611d3b565b610984816001600085815260200190815260200160002061182a90919063ffffffff16565b505050565b600061099483610cf1565b82106109d5576040517f08c379a00000000000000000000000000000000000000000000000000000000081526004016109cc90613e81565b60405180910390fd5b600860008473ffffffffffffffffffffffffffffffffffffffff1673ffffffffffffffffffffffffffffffffffffffff168152602001908152602001600020600083815260200190815260200160002054905092915050565b610a388282611d64565b610a5d8160016000858152602001908152602001600020611de790919063ffffffff16565b505050565b610a7d8383836040518060200160405280600081525061105c565b505050565b610a93610a8d611940565b82611a01565b610ad2576040517f08c379a0000000000000000000000000000000000000000000000000000000008152600401610ac9906140e1565b60405180910390fd5b610adb81611e17565b50565b6000610ae86108c9565b8210610b29576040517f08c379a0000000000000000000000000000000000000000000000000000000008152600401610b2090614081565b60405180910390fd5b600a8281548110610b3d57610b3c6144fd565b5b90600052602060002001549050919050565b6060610b5a826118d4565b610b99576040517f08c379a0000000000000000000000000000000000000000000000000000000008152600401610b9090613f21565b60405180910390fd5b600d60008381526020019081526020016000206006018054610bba9061440d565b80601f0160208091040260200160405190810160405280929190818152602001828054610be69061440d565b8015610c335780601f10610c0857610100808354040283529160200191610c33565b820191906000526020600020905b815481529060010190602001808311610c1657829003601f168201915b50505050509050919050565b6000806004600084815260200190815260200160002060009054906101000a900473ffffffffffffffffffffffffffffffffffffffff169050600073ffffffffffffffffffffffffffffffffffffffff168173ffffffffffffffffffffffffffffffffffffffff161415610ce8576040517f08c379a0000000000000000000000000000000000000000000000000000000008152600401610cdf90613fa1565b60405180910390fd5b80915050919050565b60008073ffffffffffffffffffffffffffffffffffffffff168273ffffffffffffffffffffffffffffffffffffffff161415610d62576040517f08c379a0000000000000000000000000000000000000000000000000000000008152600401610d5990613f81565b60405180910390fd5b600560008373ffffffffffffffffffffffffffffffffffffffff1673ffffffffffffffffffffffffffffffffffffffff168152602001908152602001600020549050919050565b6000610dd08260016000868152602001908152602001600020611f2890919063ffffffff16565b905092915050565b600080600084815260200190815260200160002060000160008373ffffffffffffffffffffffffffffffffffffffff1673ffffffffffffffffffffffffffffffffffffffff16815260200190815260200160002060009054906101000a900460ff16905092915050565b606060038054610e519061440d565b80601f0160208091040260200160405190810160405280929190818152602001828054610e7d9061440d565b8015610eca5780601f10610e9f57610100808354040283529160200191610eca565b820191906000526020600020905b815481529060010190602001808311610ead57829003601f168201915b5050505050905090565b6000801b81565b610ee3611940565b73ffffffffffffffffffffffffffffffffffffffff168273ffffffffffffffffffffffffffffffffffffffff161415610f51576040517f08c379a0000000000000000000000000000000000000000000000000000000008152600401610f4890613f01565b60405180910390fd5b8060076000610f5e611940565b73ffffffffffffffffffffffffffffffffffffffff1673ffffffffffffffffffffffffffffffffffffffff16815260200190815260200160002060008473ffffffffffffffffffffffffffffffffffffffff1673ffffffffffffffffffffffffffffffffffffffff16815260200190815260200160002060006101000a81548160ff0219169083151502179055508173ffffffffffffffffffffffffffffffffffffffff1661100b611940565b73ffffffffffffffffffffffffffffffffffffffff167f17307eab39ab6107e8899845ad3d59bd9653f200f220920489ca2b5937696c31836040516110509190613e09565b60405180910390a35050565b61106d611067611940565b83611a01565b6110ac576040517f08c379a00000000000000000000000000000000000000000000000000000000081526004016110a390614061565b60405180910390fd5b6110b884848484611f42565b50505050565b6060600f60003373ffffffffffffffffffffffffffffffffffffffff1673ffffffffffffffffffffffffffffffffffffffff16815260200190815260200160002080548060200260200160405190810160405280929190818152602001828054801561114957602002820191906000526020600020905b815481526020019060010190808311611135575b5050505050905090565b606061115e826118d4565b61119d576040517f08c379a000000000000000000000000000000000000000000000000000000000815260040161119490614021565b60405180910390fd5b600d600083815260200190815260200160002060080180546111be9061440d565b80601f01602080910402602001604051908101604052809291908181526020018280546111ea9061440d565b80156112375780601f1061120c57610100808354040283529160200191611237565b820191906000526020600020905b81548152906001019060200180831161121a57829003601f168201915b50505050509050919050565b600061126060016000848152602001908152602001600020611f9e565b9050919050565b60008084848460405160200161127f93929190613d15565b60405160208183030381529060405290506101c9600e826040516112a39190613cfe565b908152602001604051809103902060090154146112f5576040517f08c379a00000000000000000000000000000000000000000000000000000000081526004016112ec906140a1565b60405180910390fd5b600e816040516113059190613cfe565b9081526020016040518091039020600001549150509392505050565b7f9f2df0fed2c77648de5860a4cc508cd0818c85b8b8a1ab4ceeef8d981c8956a681565b61134f8282611fb3565b6113748160016000858152602001908152602001600020611de790919063ffffffff16565b505050565b7f65d7a28e3265b37a6474929f336521b332c1681b933f6cb9f3376673440d862a81565b6000600760008473ffffffffffffffffffffffffffffffffffffffff1673ffffffffffffffffffffffffffffffffffffffff16815260200190815260200160002060008373ffffffffffffffffffffffffffffffffffffffff1673ffffffffffffffffffffffffffffffffffffffff16815260200190815260200160002060009054906101000a900460ff16905092915050565b60008089898760405160200161144993929190613d15565b60405160208183030381529060405290506101c9600e8260405161146d9190613cfe565b90815260200160405180910390206009015414156114c0576040517f08c379a00000000000000000000000000000000000000000000000000000000081526004016114b7906140c1565b60405180910390fd5b60006114cb33611fdc565b905080600d6000838152602001908152602001600020600001819055508a600d60008381526020019081526020016000206001019080519060200190611512929190613090565b5089600d6000838152602001908152602001600020600201908051906020019061153d929190613090565b5088600d60008381526020019081526020016000206003019080519060200190611568929190613090565b5087600d60008381526020019081526020016000206004019080519060200190611593929190613090565b5086600d600083815260200190815260200160002060050190805190602001906115be929190613090565b5085600d600083815260200190815260200160002060060190805190602001906115e9929190613090565b5084600d60008381526020019081526020016000206007019080519060200190611614929190613090565b5083600d6000838152602001908152602001600020600801908051906020019061163f929190613090565b506101c9600d600083815260200190815260200160002060090181905550600d6000828152602001908152602001600020600e836040516116809190613cfe565b90815260200160405180910390206000820154816000015560018201816001019080546116ac9061440d565b6116b7929190613116565b5060028201816002019080546116cc9061440d565b6116d7929190613116565b5060038201816003019080546116ec9061440d565b6116f7929190613116565b50600482018160040190805461170c9061440d565b611717929190613116565b50600582018160050190805461172c9061440d565b611737929190613116565b50600682018160060190805461174c9061440d565b611757929190613116565b50600782018160070190805461176c9061440d565b611777929190613116565b50600882018160080190805461178c9061440d565b611797929190613116565b5060098201548160090155905050600f60003373ffffffffffffffffffffffffffffffffffffffff1673ffffffffffffffffffffffffffffffffffffffff168152602001908152602001600020819080600181540180825580915050600190039060005260206000200160009091909190915055809250505098975050505050505050565b6118268282612008565b5050565b6000611852836000018373ffffffffffffffffffffffffffffffffffffffff1660001b6120e8565b905092915050565b60007f780e9d63000000000000000000000000000000000000000000000000000000007bffffffffffffffffffffffffffffffffffffffffffffffffffffffff1916827bffffffffffffffffffffffffffffffffffffffffffffffffffffffff191614806118cd57506118cc82612158565b5b9050919050565b60008073ffffffffffffffffffffffffffffffffffffffff166004600084815260200190815260200160002060009054906101000a900473ffffffffffffffffffffffffffffffffffffffff1673ffffffffffffffffffffffffffffffffffffffff1614159050919050565b600033905090565b816006600083815260200190815260200160002060006101000a81548173ffffffffffffffffffffffffffffffffffffffff021916908373ffffffffffffffffffffffffffffffffffffffff160217905550808273ffffffffffffffffffffffffffffffffffffffff166119bb83610c3f565b73ffffffffffffffffffffffffffffffffffffffff167f8c5be1e5ebec7d5bd14f71427d1e84f3dd0314c0f7b2291e5b200ac8c7c3b92560405160405180910390a45050565b6000611a0c826118d4565b611a4b576040517f08c379a0000000000000000000000000000000000000000000000000000000008152600401611a4290613f41565b60405180910390fd5b6000611a5683610c3f565b90508073ffffffffffffffffffffffffffffffffffffffff168473ffffffffffffffffffffffffffffffffffffffff161480611ac557508373ffffffffffffffffffffffffffffffffffffffff16611aad8461072c565b73ffffffffffffffffffffffffffffffffffffffff16145b80611ad65750611ad5818561139d565b5b91505092915050565b8273ffffffffffffffffffffffffffffffffffffffff16611aff82610c3f565b73ffffffffffffffffffffffffffffffffffffffff1614611b55576040517f08c379a0000000000000000000000000000000000000000000000000000000008152600401611b4c90614001565b60405180910390fd5b600073ffffffffffffffffffffffffffffffffffffffff168273ffffffffffffffffffffffffffffffffffffffff161415611bc5576040517f08c379a0000000000000000000000000000000000000000000000000000000008152600401611bbc90613ee1565b60405180910390fd5b611bd083838361223a565b611bdb600082611948565b6001600560008573ffffffffffffffffffffffffffffffffffffffff1673ffffffffffffffffffffffffffffffffffffffff1681526020019081526020016000206000828254611c2b91906142ef565b925050819055506001600560008473ffffffffffffffffffffffffffffffffffffffff1673ffffffffffffffffffffffffffffffffffffffff1681526020019081526020016000206000828254611c82919061423f565b92505081905550816004600083815260200190815260200160002060006101000a81548173ffffffffffffffffffffffffffffffffffffffff021916908373ffffffffffffffffffffffffffffffffffffffff160217905550808273ffffffffffffffffffffffffffffffffffffffff168473ffffffffffffffffffffffffffffffffffffffff167fddf252ad1be2c89b69c2b068fc378daa952ba7f163c4a11628f55a4df523b3ef60405160405180910390a4505050565b611d4482610936565b611d5581611d50611940565b61224a565b611d5f8383612008565b505050565b611d6c611940565b73ffffffffffffffffffffffffffffffffffffffff168173ffffffffffffffffffffffffffffffffffffffff1614611dd9576040517f08c379a0000000000000000000000000000000000000000000000000000000008152600401611dd090614101565b60405180910390fd5b611de382826122e7565b5050565b6000611e0f836000018373ffffffffffffffffffffffffffffffffffffffff1660001b6123c8565b905092915050565b6000611e2282610c3f565b9050611e308160008461223a565b611e3b600083611948565b6001600560008373ffffffffffffffffffffffffffffffffffffffff1673ffffffffffffffffffffffffffffffffffffffff1681526020019081526020016000206000828254611e8b91906142ef565b925050819055506004600083815260200190815260200160002060006101000a81549073ffffffffffffffffffffffffffffffffffffffff021916905581600073ffffffffffffffffffffffffffffffffffffffff168273ffffffffffffffffffffffffffffffffffffffff167fddf252ad1be2c89b69c2b068fc378daa952ba7f163c4a11628f55a4df523b3ef60405160405180910390a45050565b6000611f3783600001836124dc565b60001c905092915050565b611f4d848484611adf565b611f5984848484612507565b611f98576040517f08c379a0000000000000000000000000000000000000000000000000000000008152600401611f8f90613ea1565b60405180910390fd5b50505050565b6000611fac8260000161269e565b9050919050565b611fbc82610936565b611fcd81611fc8611940565b61224a565b611fd783836122e7565b505050565b600080611fe9600c6126af565b9050611ff583826126bd565b611fff600c61288b565b80915050919050565b6120128282610dd8565b6120e457600160008084815260200190815260200160002060000160008373ffffffffffffffffffffffffffffffffffffffff1673ffffffffffffffffffffffffffffffffffffffff16815260200190815260200160002060006101000a81548160ff021916908315150217905550612089611940565b73ffffffffffffffffffffffffffffffffffffffff168173ffffffffffffffffffffffffffffffffffffffff16837f2f8788117e7eff1d82e926ec794901d17c78024a50270940304540a733656f0d60405160405180910390a45b5050565b60006120f483836128a1565b61214d578260000182908060018154018082558091505060019003906000526020600020016000909190919091505582600001805490508360010160008481526020019081526020016000208190555060019050612152565b600090505b92915050565b60007f80ac58cd000000000000000000000000000000000000000000000000000000007bffffffffffffffffffffffffffffffffffffffffffffffffffffffff1916827bffffffffffffffffffffffffffffffffffffffffffffffffffffffff1916148061222357507f5b5e139f000000000000000000000000000000000000000000000000000000007bffffffffffffffffffffffffffffffffffffffffffffffffffffffff1916827bffffffffffffffffffffffffffffffffffffffffffffffffffffffff1916145b806122335750612232826128c4565b5b9050919050565b61224583838361293e565b505050565b6122548282610dd8565b6122e3576122798173ffffffffffffffffffffffffffffffffffffffff166014612a52565b6122878360001c6020612a52565b604051602001612298929190613d46565b6040516020818303038152906040526040517f08c379a00000000000000000000000000000000000000000000000000000000081526004016122da9190613e3f565b60405180910390fd5b5050565b6122f18282610dd8565b156123c457600080600084815260200190815260200160002060000160008373ffffffffffffffffffffffffffffffffffffffff1673ffffffffffffffffffffffffffffffffffffffff16815260200190815260200160002060006101000a81548160ff021916908315150217905550612369611940565b73ffffffffffffffffffffffffffffffffffffffff168173ffffffffffffffffffffffffffffffffffffffff16837ff6391f5c32d9c69d2a47ea670b442974b53935d1edc7fd64eb21e047a839171b60405160405180910390a45b5050565b600080836001016000848152602001908152602001600020549050600081146124d05760006001826123fa91906142ef565b905060006001866000018054905061241291906142ef565b9050818114612481576000866000018281548110612433576124326144fd565b5b9060005260206000200154905080876000018481548110612457576124566144fd565b5b90600052602060002001819055508387600101600083815260200190815260200160002081905550505b85600001805480612495576124946144ce565b5b6001900381819060005260206000200160009055905585600101600086815260200190815260200160002060009055600193505050506124d6565b60009150505b92915050565b60008260000182815481106124f4576124f36144fd565b5b9060005260206000200154905092915050565b60006125288473ffffffffffffffffffffffffffffffffffffffff16612c8e565b15612691578373ffffffffffffffffffffffffffffffffffffffff1663150b7a02612551611940565b8786866040518563ffffffff1660e01b81526004016125739493929190613d9b565b602060405180830381600087803b15801561258d57600080fd5b505af19250505080156125be57506040513d601f19601f820116820180604052508101906125bb91906135bb565b60015b612641573d80600081146125ee576040519150601f19603f3d011682016040523d82523d6000602084013e6125f3565b606091505b50600081511415612639576040517f08c379a000000000000000000000000000000000000000000000000000000000815260040161263090613ea1565b60405180910390fd5b805181602001fd5b63150b7a0260e01b7bffffffffffffffffffffffffffffffffffffffffffffffffffffffff1916817bffffffffffffffffffffffffffffffffffffffffffffffffffffffff191614915050612696565b600190505b949350505050565b600081600001805490509050919050565b600081600001549050919050565b600073ffffffffffffffffffffffffffffffffffffffff168273ffffffffffffffffffffffffffffffffffffffff16141561272d576040517f08c379a000000000000000000000000000000000000000000000000000000000815260040161272490613fc1565b60405180910390fd5b612736816118d4565b15612776576040517f08c379a000000000000000000000000000000000000000000000000000000000815260040161276d90613ec1565b60405180910390fd5b6127826000838361223a565b6001600560008473ffffffffffffffffffffffffffffffffffffffff1673ffffffffffffffffffffffffffffffffffffffff16815260200190815260200160002060008282546127d2919061423f565b92505081905550816004600083815260200190815260200160002060006101000a81548173ffffffffffffffffffffffffffffffffffffffff021916908373ffffffffffffffffffffffffffffffffffffffff160217905550808273ffffffffffffffffffffffffffffffffffffffff16600073ffffffffffffffffffffffffffffffffffffffff167fddf252ad1be2c89b69c2b068fc378daa952ba7f163c4a11628f55a4df523b3ef60405160405180910390a45050565b6001816000016000828254019250508190555050565b600080836001016000848152602001908152602001600020541415905092915050565b60007f5a05180f000000000000000000000000000000000000000000000000000000007bffffffffffffffffffffffffffffffffffffffffffffffffffffffff1916827bffffffffffffffffffffffffffffffffffffffffffffffffffffffff19161480612937575061293682612ca1565b5b9050919050565b612949838383612d1b565b600073ffffffffffffffffffffffffffffffffffffffff168373ffffffffffffffffffffffffffffffffffffffff16141561298c5761298781612d20565b6129cb565b8173ffffffffffffffffffffffffffffffffffffffff168373ffffffffffffffffffffffffffffffffffffffff16146129ca576129c98382612d69565b5b5b600073ffffffffffffffffffffffffffffffffffffffff168273ffffffffffffffffffffffffffffffffffffffff161415612a0e57612a0981612ed6565b612a4d565b8273ffffffffffffffffffffffffffffffffffffffff168273ffffffffffffffffffffffffffffffffffffffff1614612a4c57612a4b8282612fa7565b5b5b505050565b606060006002836002612a659190614295565b612a6f919061423f565b67ffffffffffffffff811115612a8857612a8761452c565b5b6040519080825280601f01601f191660200182016040528015612aba5781602001600182028036833780820191505090505b5090507f300000000000000000000000000000000000000000000000000000000000000081600081518110612af257612af16144fd565b5b60200101907effffffffffffffffffffffffffffffffffffffffffffffffffffffffffffff1916908160001a9053507f780000000000000000000000000000000000000000000000000000000000000081600181518110612b5657612b556144fd565b5b60200101907effffffffffffffffffffffffffffffffffffffffffffffffffffffffffffff1916908160001a90535060006001846002612b969190614295565b612ba0919061423f565b90505b6001811115612c40577f3031323334353637383961626364656600000000000000000000000000000000600f861660108110612be257612be16144fd565b5b1a60f81b828281518110612bf957612bf86144fd565b5b60200101907effffffffffffffffffffffffffffffffffffffffffffffffffffffffffffff1916908160001a905350600485901c945080612c39906143e3565b9050612ba3565b5060008414612c84576040517f08c379a0000000000000000000000000000000000000000000000000000000008152600401612c7b90613e61565b60405180910390fd5b8091505092915050565b600080823b905060008111915050919050565b60007f7965db0b000000000000000000000000000000000000000000000000000000007bffffffffffffffffffffffffffffffffffffffffffffffffffffffff1916827bffffffffffffffffffffffffffffffffffffffffffffffffffffffff19161480612d145750612d1382613026565b5b9050919050565b505050565b600a80549050600b600083815260200190815260200160002081905550600a81908060018154018082558091505060019003906000526020600020016000909190919091505550565b60006001612d7684610cf1565b612d8091906142ef565b9050600060096000848152602001908152602001600020549050818114612e65576000600860008673ffffffffffffffffffffffffffffffffffffffff1673ffffffffffffffffffffffffffffffffffffffff168152602001908152602001600020600084815260200190815260200160002054905080600860008773ffffffffffffffffffffffffffffffffffffffff1673ffffffffffffffffffffffffffffffffffffffff168152602001908152602001600020600084815260200190815260200160002081905550816009600083815260200190815260200160002081905550505b6009600084815260200190815260200160002060009055600860008573ffffffffffffffffffffffffffffffffffffffff1673ffffffffffffffffffffffffffffffffffffffff16815260200190815260200160002060008381526020019081526020016000206000905550505050565b60006001600a80549050612eea91906142ef565b90506000600b60008481526020019081526020016000205490506000600a8381548110612f1a57612f196144fd565b5b9060005260206000200154905080600a8381548110612f3c57612f3b6144fd565b5b906000526020600020018190555081600b600083815260200190815260200160002081905550600b600085815260200190815260200160002060009055600a805480612f8b57612f8a6144ce565b5b6001900381819060005260206000200160009055905550505050565b6000612fb283610cf1565b905081600860008573ffffffffffffffffffffffffffffffffffffffff1673ffffffffffffffffffffffffffffffffffffffff168152602001908152602001600020600083815260200190815260200160002081905550806009600084815260200190815260200160002081905550505050565b60007f01ffc9a7000000000000000000000000000000000000000000000000000000007bffffffffffffffffffffffffffffffffffffffffffffffffffffffff1916827bffffffffffffffffffffffffffffffffffffffffffffffffffffffff1916149050919050565b82805461309c9061440d565b90600052602060002090601f0160209004810192826130be5760008555613105565b82601f106130d757805160ff1916838001178555613105565b82800160010185558215613105579182015b828111156131045782518255916020019190600101906130e9565b5b50905061311291906131a3565b5090565b8280546131229061440d565b90600052602060002090601f0160209004810192826131445760008555613192565b82601f106131555780548555613192565b8280016001018555821561319257600052602060002091601f016020900482015b82811115613191578254825591600101919060010190613176565b5b50905061319f91906131a3565b5090565b5b808211156131bc5760008160009055506001016131a4565b5090565b60006131d36131ce84614161565b61413c565b9050828152602081018484840111156131ef576131ee614560565b5b6131fa8482856143a1565b509392505050565b600061321561321084614192565b61413c565b90508281526020810184848401111561323157613230614560565b5b61323c8482856143a1565b509392505050565b60008135905061325381614c04565b92915050565b60008135905061326881614c1b565b92915050565b60008135905061327d81614c32565b92915050565b60008135905061329281614c49565b92915050565b6000815190506132a781614c49565b92915050565b600082601f8301126132c2576132c161455b565b5b81356132d28482602086016131c0565b91505092915050565b600082601f8301126132f0576132ef61455b565b5b8135613300848260208601613202565b91505092915050565b60008135905061331881614c60565b92915050565b6000602082840312156133345761333361456a565b5b600061334284828501613244565b91505092915050565b600080604083850312156133625761336161456a565b5b600061337085828601613244565b925050602061338185828601613244565b9150509250929050565b6000806000606084860312156133a4576133a361456a565b5b60006133b286828701613244565b93505060206133c386828701613244565b92505060406133d486828701613309565b9150509250925092565b600080600080608085870312156133f8576133f761456a565b5b600061340687828801613244565b945050602061341787828801613244565b935050604061342887828801613309565b925050606085013567ffffffffffffffff81111561344957613448614565565b5b613455878288016132ad565b91505092959194509250565b600080604083850312156134785761347761456a565b5b600061348685828601613244565b925050602061349785828601613259565b9150509250929050565b600080604083850312156134b8576134b761456a565b5b60006134c685828601613244565b92505060206134d785828601613309565b9150509250929050565b6000602082840312156134f7576134f661456a565b5b60006135058482850161326e565b91505092915050565b600080604083850312156135255761352461456a565b5b60006135338582860161326e565b925050602061354485828601613244565b9150509250929050565b600080604083850312156135655761356461456a565b5b60006135738582860161326e565b925050602061358485828601613309565b9150509250929050565b6000602082840312156135a4576135a361456a565b5b60006135b284828501613283565b91505092915050565b6000602082840312156135d1576135d061456a565b5b60006135df84828501613298565b91505092915050565b6000806000606084860312156136015761360061456a565b5b600084013567ffffffffffffffff81111561361f5761361e614565565b5b61362b868287016132db565b935050602084013567ffffffffffffffff81111561364c5761364b614565565b5b613658868287016132db565b925050604084013567ffffffffffffffff81111561367957613678614565565b5b613685868287016132db565b9150509250925092565b600080600080600080600080610100898b0312156136b0576136af61456a565b5b600089013567ffffffffffffffff8111156136ce576136cd614565565b5b6136da8b828c016132db565b985050602089013567ffffffffffffffff8111156136fb576136fa614565565b5b6137078b828c016132db565b975050604089013567ffffffffffffffff81111561372857613727614565565b5b6137348b828c016132db565b965050606089013567ffffffffffffffff81111561375557613754614565565b5b6137618b828c016132db565b955050608089013567ffffffffffffffff81111561378257613781614565565b5b61378e8b828c016132db565b94505060a089013567ffffffffffffffff8111156137af576137ae614565565b5b6137bb8b828c016132db565b93505060c089013567ffffffffffffffff8111156137dc576137db614565565b5b6137e88b828c016132db565b92505060e089013567ffffffffffffffff81111561380957613808614565565b5b6138158b828c016132db565b9150509295985092959890939650565b60006020828403121561383b5761383a61456a565b5b600061384984828501613309565b91505092915050565b600061385e8383613ce0565b60208301905092915050565b61387381614323565b82525050565b6000613884826141d3565b61388e8185614201565b9350613899836141c3565b8060005b838110156138ca5781516138b18882613852565b97506138bc836141f4565b92505060018101905061389d565b5085935050505092915050565b6138e081614335565b82525050565b6138ef81614341565b82525050565b6000613900826141de565b61390a8185614212565b935061391a8185602086016143b0565b6139238161456f565b840191505092915050565b6000613939826141e9565b6139438185614223565b93506139538185602086016143b0565b61395c8161456f565b840191505092915050565b6000613972826141e9565b61397c8185614234565b935061398c8185602086016143b0565b80840191505092915050565b60006139a5602083614223565b91506139b082614580565b602082019050919050565b60006139c8602b83614223565b91506139d3826145a9565b604082019050919050565b60006139eb603283614223565b91506139f6826145f8565b604082019050919050565b6000613a0e601c83614223565b9150613a1982614647565b602082019050919050565b6000613a31602483614223565b9150613a3c82614670565b604082019050919050565b6000613a54601983614223565b9150613a5f826146bf565b602082019050919050565b6000613a77603083614223565b9150613a82826146e8565b604082019050919050565b6000613a9a602c83614223565b9150613aa582614737565b604082019050919050565b6000613abd603883614223565b9150613ac882614786565b604082019050919050565b6000613ae0602a83614223565b9150613aeb826147d5565b604082019050919050565b6000613b03602983614223565b9150613b0e82614824565b604082019050919050565b6000613b26602083614223565b9150613b3182614873565b602082019050919050565b6000613b49602c83614223565b9150613b548261489c565b604082019050919050565b6000613b6c602983614223565b9150613b77826148eb565b604082019050919050565b6000613b8f602f83614223565b9150613b9a8261493a565b604082019050919050565b6000613bb2602183614223565b9150613bbd82614989565b604082019050919050565b6000613bd5603183614223565b9150613be0826149d8565b604082019050919050565b6000613bf8602c83614223565b9150613c0382614a27565b604082019050919050565b6000613c1b601783614234565b9150613c2682614a76565b601782019050919050565b6000613c3e602683614223565b9150613c4982614a9f565b604082019050919050565b6000613c61602783614223565b9150613c6c82614aee565b604082019050919050565b6000613c84603083614223565b9150613c8f82614b3d565b604082019050919050565b6000613ca7601183614234565b9150613cb282614b8c565b601182019050919050565b6000613cca602f83614223565b9150613cd582614bb5565b604082019050919050565b613ce981614397565b82525050565b613cf881614397565b82525050565b6000613d0a8284613967565b915081905092915050565b6000613d218286613967565b9150613d2d8285613967565b9150613d398284613967565b9150819050949350505050565b6000613d5182613c0e565b9150613d5d8285613967565b9150613d6882613c9a565b9150613d748284613967565b91508190509392505050565b6000602082019050613d95600083018461386a565b92915050565b6000608082019050613db0600083018761386a565b613dbd602083018661386a565b613dca6040830185613cef565b8181036060830152613ddc81846138f5565b905095945050505050565b60006020820190508181036000830152613e018184613879565b905092915050565b6000602082019050613e1e60008301846138d7565b92915050565b6000602082019050613e3960008301846138e6565b92915050565b60006020820190508181036000830152613e59818461392e565b905092915050565b60006020820190508181036000830152613e7a81613998565b9050919050565b60006020820190508181036000830152613e9a816139bb565b9050919050565b60006020820190508181036000830152613eba816139de565b9050919050565b60006020820190508181036000830152613eda81613a01565b9050919050565b60006020820190508181036000830152613efa81613a24565b9050919050565b60006020820190508181036000830152613f1a81613a47565b9050919050565b60006020820190508181036000830152613f3a81613a6a565b9050919050565b60006020820190508181036000830152613f5a81613a8d565b9050919050565b60006020820190508181036000830152613f7a81613ab0565b9050919050565b60006020820190508181036000830152613f9a81613ad3565b9050919050565b60006020820190508181036000830152613fba81613af6565b9050919050565b60006020820190508181036000830152613fda81613b19565b9050919050565b60006020820190508181036000830152613ffa81613b3c565b9050919050565b6000602082019050818103600083015261401a81613b5f565b9050919050565b6000602082019050818103600083015261403a81613b82565b9050919050565b6000602082019050818103600083015261405a81613ba5565b9050919050565b6000602082019050818103600083015261407a81613bc8565b9050919050565b6000602082019050818103600083015261409a81613beb565b9050919050565b600060208201905081810360008301526140ba81613c31565b9050919050565b600060208201905081810360008301526140da81613c54565b9050919050565b600060208201905081810360008301526140fa81613c77565b9050919050565b6000602082019050818103600083015261411a81613cbd565b9050919050565b60006020820190506141366000830184613cef565b92915050565b6000614146614157565b9050614152828261443f565b919050565b6000604051905090565b600067ffffffffffffffff82111561417c5761417b61452c565b5b6141858261456f565b9050602081019050919050565b600067ffffffffffffffff8211156141ad576141ac61452c565b5b6141b68261456f565b9050602081019050919050565b6000819050602082019050919050565b600081519050919050565b600081519050919050565b600081519050919050565b6000602082019050919050565b600082825260208201905092915050565b600082825260208201905092915050565b600082825260208201905092915050565b600081905092915050565b600061424a82614397565b915061425583614397565b9250827fffffffffffffffffffffffffffffffffffffffffffffffffffffffffffffffff0382111561428a57614289614470565b5b828201905092915050565b60006142a082614397565b91506142ab83614397565b9250817fffffffffffffffffffffffffffffffffffffffffffffffffffffffffffffffff04831182151516156142e4576142e3614470565b5b828202905092915050565b60006142fa82614397565b915061430583614397565b92508282101561431857614317614470565b5b828203905092915050565b600061432e82614377565b9050919050565b60008115159050919050565b6000819050919050565b60007fffffffff0000000000000000000000000000000000000000000000000000000082169050919050565b600073ffffffffffffffffffffffffffffffffffffffff82169050919050565b6000819050919050565b82818337600083830152505050565b60005b838110156143ce5780820151818401526020810190506143b3565b838111156143dd576000848401525b50505050565b60006143ee82614397565b9150600082141561440257614401614470565b5b600182039050919050565b6000600282049050600182168061442557607f821691505b602082108114156144395761443861449f565b5b50919050565b6144488261456f565b810181811067ffffffffffffffff821117156144675761446661452c565b5b80604052505050565b7f4e487b7100000000000000000000000000000000000000000000000000000000600052601160045260246000fd5b7f4e487b7100000000000000000000000000000000000000000000000000000000600052602260045260246000fd5b7f4e487b7100000000000000000000000000000000000000000000000000000000600052603160045260246000fd5b7f4e487b7100000000000000000000000000000000000000000000000000000000600052603260045260246000fd5b7f4e487b7100000000000000000000000000000000000000000000000000000000600052604160045260246000fd5b600080fd5b600080fd5b600080fd5b600080fd5b6000601f19601f8301169050919050565b7f537472696e67733a20686578206c656e67746820696e73756666696369656e74600082015250565b7f455243373231456e756d657261626c653a206f776e657220696e646578206f7560008201527f74206f6620626f756e6473000000000000000000000000000000000000000000602082015250565b7f4552433732313a207472616e7366657220746f206e6f6e20455243373231526560008201527f63656976657220696d706c656d656e7465720000000000000000000000000000602082015250565b7f4552433732313a20746f6b656e20616c7265616479206d696e74656400000000600082015250565b7f4552433732313a207472616e7366657220746f20746865207a65726f2061646460008201527f7265737300000000000000000000000000000000000000000000000000000000602082015250565b7f4552433732313a20617070726f766520746f2063616c6c657200000000000000600082015250565b7f4f776e6564576f7264733a20504f53542055524c20717565727920666f72206e60008201527f6f6e6578697374656e7420746f6b656e00000000000000000000000000000000602082015250565b7f4552433732313a206f70657261746f7220717565727920666f72206e6f6e657860008201527f697374656e7420746f6b656e0000000000000000000000000000000000000000602082015250565b7f4552433732313a20617070726f76652063616c6c6572206973206e6f74206f7760008201527f6e6572206e6f7220617070726f76656420666f7220616c6c0000000000000000602082015250565b7f4552433732313a2062616c616e636520717565727920666f7220746865207a6560008201527f726f206164647265737300000000000000000000000000000000000000000000602082015250565b7f4552433732313a206f776e657220717565727920666f72206e6f6e657869737460008201527f656e7420746f6b656e0000000000000000000000000000000000000000000000602082015250565b7f4552433732313a206d696e7420746f20746865207a65726f2061646472657373600082015250565b7f4552433732313a20617070726f76656420717565727920666f72206e6f6e657860008201527f697374656e7420746f6b656e0000000000000000000000000000000000000000602082015250565b7f4552433732313a207472616e73666572206f6620746f6b656e2074686174206960008201527f73206e6f74206f776e0000000000000000000000000000000000000000000000602082015250565b7f4552433732314d657461646174613a2055524920717565727920666f72206e6f60008201527f6e6578697374656e7420746f6b656e0000000000000000000000000000000000602082015250565b7f4552433732313a20617070726f76616c20746f2063757272656e74206f776e6560008201527f7200000000000000000000000000000000000000000000000000000000000000602082015250565b7f4552433732313a207472616e736665722063616c6c6572206973206e6f74206f60008201527f776e6572206e6f7220617070726f766564000000000000000000000000000000602082015250565b7f455243373231456e756d657261626c653a20676c6f62616c20696e646578206f60008201527f7574206f6620626f756e64730000000000000000000000000000000000000000602082015250565b7f416363657373436f6e74726f6c3a206163636f756e7420000000000000000000600082015250565b7f4f776e6564576f7264733a2054686520706f7374206973206e6f74207965742060008201527f6d696e7465640000000000000000000000000000000000000000000000000000602082015250565b7f4f776e6564576f7264733a2054686520706f73742077617320616c726561647960008201527f206d696e74656400000000000000000000000000000000000000000000000000602082015250565b7f4552433732314275726e61626c653a2063616c6c6572206973206e6f74206f7760008201527f6e6572206e6f7220617070726f76656400000000000000000000000000000000602082015250565b7f206973206d697373696e6720726f6c6520000000000000000000000000000000600082015250565b7f416363657373436f6e74726f6c3a2063616e206f6e6c792072656e6f756e636560008201527f20726f6c657320666f722073656c660000000000000000000000000000000000602082015250565b614c0d81614323565b8114614c1857600080fd5b50565b614c2481614335565b8114614c2f57600080fd5b50565b614c3b81614341565b8114614c4657600080fd5b50565b614c528161434b565b8114614c5d57600080fd5b50565b614c6981614397565b8114614c7457600080fd5b5056fea2646970667358221220251f7de224afb7133a20a078d17bf8f20912851a4baad9951cf8707c236c1ce764736f6c63430008070033",
  "immutableReferences": {},
  "source": "// SPDX-License-Identifier: MIT \n\npragma solidity ^0.8.0;\n\nimport \"./ERC721PresetMinterAutoId.sol\";\n\nlibrary MintedPost {\n  struct data {\n    uint256 id;\n    string sn_name;\n    string author_id;\n    string author_name;\n    string author_picture_url;\n    string post_id;\n    string post_url;\n    string message;\n    string token_uri;\n    uint256 isValue;\n  }\n}\n\ncontract OwnedWords is ERC721PresetMinterAutoId {\n  using MintedPost for MintedPost.data;\n\n  constructor() ERC721PresetMinterAutoId(\"OwnedWords\", \"OWW\") {}\n\n  mapping(uint256 => MintedPost.data) private _owned_posts_by_id;\n  mapping(string => MintedPost.data) private _owned_posts_by_gen_id;\n  mapping(address => uint256[]) private _owned_tokens_by_address;\n\n  function mint(\n    string memory sn_name,\n    string memory author_id,\n    string memory author_name,\n    string memory author_picture_url,\n    string memory post_id,\n    string memory post_url,\n    string memory message,\n    string memory token_uri\n  ) public virtual returns (uint256) {\n    string memory gen_id = string(\n      abi.encodePacked(sn_name, author_id, post_id)\n    );\n    require(\n      _owned_posts_by_gen_id[gen_id].isValue != 457,\n      \"OwnedWords: The post was already minted\"\n    );\n\n    uint256 _token_id = _mint_without_owner(msg.sender);\n    _owned_posts_by_id[_token_id].id = _token_id;\n    _owned_posts_by_id[_token_id].sn_name = sn_name;\n    _owned_posts_by_id[_token_id].author_id = author_id;\n    _owned_posts_by_id[_token_id].author_name = author_name;\n    _owned_posts_by_id[_token_id].author_picture_url = author_picture_url;\n    _owned_posts_by_id[_token_id].post_id = post_id;\n    _owned_posts_by_id[_token_id].post_url = post_url;\n    _owned_posts_by_id[_token_id].message = message;\n    _owned_posts_by_id[_token_id].token_uri = token_uri;\n    _owned_posts_by_id[_token_id].isValue = 457;\n\n    _owned_posts_by_gen_id[gen_id] = _owned_posts_by_id[_token_id];\n    _owned_tokens_by_address[msg.sender].push(_token_id);\n\n    return _token_id;\n  }\n\n  function get_post_url(uint256 tokenId) public view returns (string memory) {\n    require(\n      _exists(tokenId),\n      \"OwnedWords: POST URL query for nonexistent token\"\n    );\n\n    return _owned_posts_by_id[tokenId].post_url;\n  }\n\n  function get_tokens() public view returns (uint256[] memory) {\n    return _owned_tokens_by_address[msg.sender];\n  }\n\n  function get_token_id_for_post(\n    string memory sn_name,\n    string memory author_id,\n    string memory post_id\n  ) public view returns (uint256) {\n    string memory gen_id = string(\n      abi.encodePacked(sn_name, author_id, post_id)\n    );\n    require(\n      _owned_posts_by_gen_id[gen_id].isValue == 457,\n      \"OwnedWords: The post is not yet minted\"\n    );\n\n    return _owned_posts_by_gen_id[gen_id].id;\n  }\n\n  function tokenURI(uint256 tokenId)\n    public\n    view\n    virtual\n    override\n    returns (string memory)\n  {\n    require(\n      _exists(tokenId),\n      \"ERC721Metadata: URI query for nonexistent token\"\n    );\n\n    return _owned_posts_by_id[tokenId].token_uri;\n  }\n}\n",
  "sourcePath": "/Users/mgrin/Projects/own-your-words/contracts/OwnedWords.sol",
  "compiler": {
    "name": "solc",
    "version": "0.8.7+commit.e28d00a7.Emscripten.clang"
  },
  "schemaVersion": "3.4.3",
  "updatedAt": "2021-09-16T13:54:23.886Z",
  "networkType": "ethereum",
  "devdoc": {
    "kind": "dev",
    "methods": {
      "approve(address,uint256)": {
        "details": "See {IERC721-approve}."
      },
      "balanceOf(address)": {
        "details": "See {IERC721-balanceOf}."
      },
      "burn(uint256)": {
        "details": "Burns `tokenId`. See {ERC721-_burn}. Requirements: - The caller must own `tokenId` or be an approved operator."
      },
      "getApproved(uint256)": {
        "details": "See {IERC721-getApproved}."
      },
      "getRoleAdmin(bytes32)": {
        "details": "Returns the admin role that controls `role`. See {grantRole} and {revokeRole}. To change a role's admin, use {_setRoleAdmin}."
      },
      "getRoleMember(bytes32,uint256)": {
        "details": "Returns one of the accounts that have `role`. `index` must be a value between 0 and {getRoleMemberCount}, non-inclusive. Role bearers are not sorted in any particular way, and their ordering may change at any point. WARNING: When using {getRoleMember} and {getRoleMemberCount}, make sure you perform all queries on the same block. See the following https://forum.openzeppelin.com/t/iterating-over-elements-on-enumerableset-in-openzeppelin-contracts/2296[forum post] for more information."
      },
      "getRoleMemberCount(bytes32)": {
        "details": "Returns the number of accounts that have `role`. Can be used together with {getRoleMember} to enumerate all bearers of a role."
      },
      "grantRole(bytes32,address)": {
        "details": "Overload {grantRole} to track enumerable memberships"
      },
      "hasRole(bytes32,address)": {
        "details": "Returns `true` if `account` has been granted `role`."
      },
      "isApprovedForAll(address,address)": {
        "details": "See {IERC721-isApprovedForAll}."
      },
      "name()": {
        "details": "See {IERC721Metadata-name}."
      },
      "ownerOf(uint256)": {
        "details": "See {IERC721-ownerOf}."
      },
      "renounceRole(bytes32,address)": {
        "details": "Overload {renounceRole} to track enumerable memberships"
      },
      "revokeRole(bytes32,address)": {
        "details": "Overload {revokeRole} to track enumerable memberships"
      },
      "safeTransferFrom(address,address,uint256)": {
        "details": "See {IERC721-safeTransferFrom}."
      },
      "safeTransferFrom(address,address,uint256,bytes)": {
        "details": "See {IERC721-safeTransferFrom}."
      },
      "setApprovalForAll(address,bool)": {
        "details": "See {IERC721-setApprovalForAll}."
      },
      "supportsInterface(bytes4)": {
        "details": "See {IERC165-supportsInterface}."
      },
      "symbol()": {
        "details": "See {IERC721Metadata-symbol}."
      },
      "tokenByIndex(uint256)": {
        "details": "See {IERC721Enumerable-tokenByIndex}."
      },
      "tokenOfOwnerByIndex(address,uint256)": {
        "details": "See {IERC721Enumerable-tokenOfOwnerByIndex}."
      },
      "tokenURI(uint256)": {
        "details": "See {IERC721Metadata-tokenURI}."
      },
      "totalSupply()": {
        "details": "See {IERC721Enumerable-totalSupply}."
      },
      "transferFrom(address,address,uint256)": {
        "details": "See {IERC721-transferFrom}."
      }
    },
    "version": 1
  },
  "userdoc": {
    "kind": "user",
    "methods": {},
    "version": 1
  }
}