{
  "contractName": "OwnedWords",
  "abi": [
    {
      "anonymous": false,
      "inputs": [
        {
          "indexed": true,
          "internalType": "address",
          "name": "owner",
          "type": "address"
        },
        {
          "indexed": true,
          "internalType": "address",
          "name": "approved",
          "type": "address"
        },
        {
          "indexed": true,
          "internalType": "uint256",
          "name": "tokenId",
          "type": "uint256"
        }
      ],
      "name": "Approval",
      "type": "event"
    },
    {
      "anonymous": false,
      "inputs": [
        {
          "indexed": true,
          "internalType": "address",
          "name": "owner",
          "type": "address"
        },
        {
          "indexed": true,
          "internalType": "address",
          "name": "operator",
          "type": "address"
        },
        {
          "indexed": false,
          "internalType": "bool",
          "name": "approved",
          "type": "bool"
        }
      ],
      "name": "ApprovalForAll",
      "type": "event"
    },
    {
      "anonymous": false,
      "inputs": [
        {
          "indexed": true,
          "internalType": "bytes32",
          "name": "role",
          "type": "bytes32"
        },
        {
          "indexed": true,
          "internalType": "bytes32",
          "name": "previousAdminRole",
          "type": "bytes32"
        },
        {
          "indexed": true,
          "internalType": "bytes32",
          "name": "newAdminRole",
          "type": "bytes32"
        }
      ],
      "name": "RoleAdminChanged",
      "type": "event"
    },
    {
      "anonymous": false,
      "inputs": [
        {
          "indexed": true,
          "internalType": "bytes32",
          "name": "role",
          "type": "bytes32"
        },
        {
          "indexed": true,
          "internalType": "address",
          "name": "account",
          "type": "address"
        },
        {
          "indexed": true,
          "internalType": "address",
          "name": "sender",
          "type": "address"
        }
      ],
      "name": "RoleGranted",
      "type": "event"
    },
    {
      "anonymous": false,
      "inputs": [
        {
          "indexed": true,
          "internalType": "bytes32",
          "name": "role",
          "type": "bytes32"
        },
        {
          "indexed": true,
          "internalType": "address",
          "name": "account",
          "type": "address"
        },
        {
          "indexed": true,
          "internalType": "address",
          "name": "sender",
          "type": "address"
        }
      ],
      "name": "RoleRevoked",
      "type": "event"
    },
    {
      "anonymous": false,
      "inputs": [
        {
          "indexed": true,
          "internalType": "address",
          "name": "from",
          "type": "address"
        },
        {
          "indexed": true,
          "internalType": "address",
          "name": "to",
          "type": "address"
        },
        {
          "indexed": true,
          "internalType": "uint256",
          "name": "tokenId",
          "type": "uint256"
        }
      ],
      "name": "Transfer",
      "type": "event"
    },
    {
      "inputs": [],
      "name": "DEFAULT_ADMIN_ROLE",
      "outputs": [
        {
          "internalType": "bytes32",
          "name": "",
          "type": "bytes32"
        }
      ],
      "stateMutability": "view",
      "type": "function"
    },
    {
      "inputs": [],
      "name": "MINTER_ROLE",
      "outputs": [
        {
          "internalType": "bytes32",
          "name": "",
          "type": "bytes32"
        }
      ],
      "stateMutability": "view",
      "type": "function"
    },
    {
      "inputs": [],
      "name": "PAUSER_ROLE",
      "outputs": [
        {
          "internalType": "bytes32",
          "name": "",
          "type": "bytes32"
        }
      ],
      "stateMutability": "view",
      "type": "function"
    },
    {
      "inputs": [
        {
          "internalType": "address",
          "name": "to",
          "type": "address"
        },
        {
          "internalType": "uint256",
          "name": "tokenId",
          "type": "uint256"
        }
      ],
      "name": "approve",
      "outputs": [],
      "stateMutability": "nonpayable",
      "type": "function"
    },
    {
      "inputs": [
        {
          "internalType": "address",
          "name": "owner",
          "type": "address"
        }
      ],
      "name": "balanceOf",
      "outputs": [
        {
          "internalType": "uint256",
          "name": "",
          "type": "uint256"
        }
      ],
      "stateMutability": "view",
      "type": "function"
    },
    {
      "inputs": [
        {
          "internalType": "uint256",
          "name": "tokenId",
          "type": "uint256"
        }
      ],
      "name": "burn",
      "outputs": [],
      "stateMutability": "nonpayable",
      "type": "function"
    },
    {
      "inputs": [
        {
          "internalType": "uint256",
          "name": "tokenId",
          "type": "uint256"
        }
      ],
      "name": "getApproved",
      "outputs": [
        {
          "internalType": "address",
          "name": "",
          "type": "address"
        }
      ],
      "stateMutability": "view",
      "type": "function"
    },
    {
      "inputs": [
        {
          "internalType": "bytes32",
          "name": "role",
          "type": "bytes32"
        }
      ],
      "name": "getRoleAdmin",
      "outputs": [
        {
          "internalType": "bytes32",
          "name": "",
          "type": "bytes32"
        }
      ],
      "stateMutability": "view",
      "type": "function"
    },
    {
      "inputs": [
        {
          "internalType": "bytes32",
          "name": "role",
          "type": "bytes32"
        },
        {
          "internalType": "uint256",
          "name": "index",
          "type": "uint256"
        }
      ],
      "name": "getRoleMember",
      "outputs": [
        {
          "internalType": "address",
          "name": "",
          "type": "address"
        }
      ],
      "stateMutability": "view",
      "type": "function"
    },
    {
      "inputs": [
        {
          "internalType": "bytes32",
          "name": "role",
          "type": "bytes32"
        }
      ],
      "name": "getRoleMemberCount",
      "outputs": [
        {
          "internalType": "uint256",
          "name": "",
          "type": "uint256"
        }
      ],
      "stateMutability": "view",
      "type": "function"
    },
    {
      "inputs": [
        {
          "internalType": "bytes32",
          "name": "role",
          "type": "bytes32"
        },
        {
          "internalType": "address",
          "name": "account",
          "type": "address"
        }
      ],
      "name": "grantRole",
      "outputs": [],
      "stateMutability": "nonpayable",
      "type": "function"
    },
    {
      "inputs": [
        {
          "internalType": "bytes32",
          "name": "role",
          "type": "bytes32"
        },
        {
          "internalType": "address",
          "name": "account",
          "type": "address"
        }
      ],
      "name": "hasRole",
      "outputs": [
        {
          "internalType": "bool",
          "name": "",
          "type": "bool"
        }
      ],
      "stateMutability": "view",
      "type": "function"
    },
    {
      "inputs": [
        {
          "internalType": "address",
          "name": "owner",
          "type": "address"
        },
        {
          "internalType": "address",
          "name": "operator",
          "type": "address"
        }
      ],
      "name": "isApprovedForAll",
      "outputs": [
        {
          "internalType": "bool",
          "name": "",
          "type": "bool"
        }
      ],
      "stateMutability": "view",
      "type": "function"
    },
    {
      "inputs": [],
      "name": "name",
      "outputs": [
        {
          "internalType": "string",
          "name": "",
          "type": "string"
        }
      ],
      "stateMutability": "view",
      "type": "function"
    },
    {
      "inputs": [
        {
          "internalType": "uint256",
          "name": "tokenId",
          "type": "uint256"
        }
      ],
      "name": "ownerOf",
      "outputs": [
        {
          "internalType": "address",
          "name": "",
          "type": "address"
        }
      ],
      "stateMutability": "view",
      "type": "function"
    },
    {
      "inputs": [
        {
          "internalType": "bytes32",
          "name": "role",
          "type": "bytes32"
        },
        {
          "internalType": "address",
          "name": "account",
          "type": "address"
        }
      ],
      "name": "renounceRole",
      "outputs": [],
      "stateMutability": "nonpayable",
      "type": "function"
    },
    {
      "inputs": [
        {
          "internalType": "bytes32",
          "name": "role",
          "type": "bytes32"
        },
        {
          "internalType": "address",
          "name": "account",
          "type": "address"
        }
      ],
      "name": "revokeRole",
      "outputs": [],
      "stateMutability": "nonpayable",
      "type": "function"
    },
    {
      "inputs": [
        {
          "internalType": "address",
          "name": "from",
          "type": "address"
        },
        {
          "internalType": "address",
          "name": "to",
          "type": "address"
        },
        {
          "internalType": "uint256",
          "name": "tokenId",
          "type": "uint256"
        }
      ],
      "name": "safeTransferFrom",
      "outputs": [],
      "stateMutability": "nonpayable",
      "type": "function"
    },
    {
      "inputs": [
        {
          "internalType": "address",
          "name": "from",
          "type": "address"
        },
        {
          "internalType": "address",
          "name": "to",
          "type": "address"
        },
        {
          "internalType": "uint256",
          "name": "tokenId",
          "type": "uint256"
        },
        {
          "internalType": "bytes",
          "name": "_data",
          "type": "bytes"
        }
      ],
      "name": "safeTransferFrom",
      "outputs": [],
      "stateMutability": "nonpayable",
      "type": "function"
    },
    {
      "inputs": [
        {
          "internalType": "address",
          "name": "operator",
          "type": "address"
        },
        {
          "internalType": "bool",
          "name": "approved",
          "type": "bool"
        }
      ],
      "name": "setApprovalForAll",
      "outputs": [],
      "stateMutability": "nonpayable",
      "type": "function"
    },
    {
      "inputs": [
        {
          "internalType": "bytes4",
          "name": "interfaceId",
          "type": "bytes4"
        }
      ],
      "name": "supportsInterface",
      "outputs": [
        {
          "internalType": "bool",
          "name": "",
          "type": "bool"
        }
      ],
      "stateMutability": "view",
      "type": "function"
    },
    {
      "inputs": [],
      "name": "symbol",
      "outputs": [
        {
          "internalType": "string",
          "name": "",
          "type": "string"
        }
      ],
      "stateMutability": "view",
      "type": "function"
    },
    {
      "inputs": [
        {
          "internalType": "uint256",
          "name": "index",
          "type": "uint256"
        }
      ],
      "name": "tokenByIndex",
      "outputs": [
        {
          "internalType": "uint256",
          "name": "",
          "type": "uint256"
        }
      ],
      "stateMutability": "view",
      "type": "function"
    },
    {
      "inputs": [
        {
          "internalType": "address",
          "name": "owner",
          "type": "address"
        },
        {
          "internalType": "uint256",
          "name": "index",
          "type": "uint256"
        }
      ],
      "name": "tokenOfOwnerByIndex",
      "outputs": [
        {
          "internalType": "uint256",
          "name": "",
          "type": "uint256"
        }
      ],
      "stateMutability": "view",
      "type": "function"
    },
    {
      "inputs": [],
      "name": "totalSupply",
      "outputs": [
        {
          "internalType": "uint256",
          "name": "",
          "type": "uint256"
        }
      ],
      "stateMutability": "view",
      "type": "function"
    },
    {
      "inputs": [
        {
          "internalType": "address",
          "name": "from",
          "type": "address"
        },
        {
          "internalType": "address",
          "name": "to",
          "type": "address"
        },
        {
          "internalType": "uint256",
          "name": "tokenId",
          "type": "uint256"
        }
      ],
      "name": "transferFrom",
      "outputs": [],
      "stateMutability": "nonpayable",
      "type": "function"
    },
    {
      "inputs": [],
      "name": "getVersion",
      "outputs": [
        {
          "internalType": "string",
          "name": "",
          "type": "string"
        }
      ],
      "stateMutability": "pure",
      "type": "function"
    },
    {
      "inputs": [
        {
          "internalType": "string",
          "name": "name",
          "type": "string"
        },
        {
          "internalType": "string",
          "name": "symbol",
          "type": "string"
        }
      ],
      "name": "initialize",
      "outputs": [],
      "stateMutability": "nonpayable",
      "type": "function"
    },
    {
      "inputs": [],
      "name": "initialize",
      "outputs": [],
      "stateMutability": "nonpayable",
      "type": "function"
    },
    {
      "inputs": [
        {
          "internalType": "string",
          "name": "sn_name",
          "type": "string"
        },
        {
          "internalType": "string",
          "name": "author_id",
          "type": "string"
        },
        {
          "internalType": "string",
          "name": "author_name",
          "type": "string"
        },
        {
          "internalType": "string",
          "name": "author_picture_url",
          "type": "string"
        },
        {
          "internalType": "string",
          "name": "post_id",
          "type": "string"
        },
        {
          "internalType": "string",
          "name": "post_url",
          "type": "string"
        },
        {
          "internalType": "string",
          "name": "message",
          "type": "string"
        },
        {
          "internalType": "string",
          "name": "token_uri",
          "type": "string"
        }
      ],
      "name": "mint",
      "outputs": [
        {
          "internalType": "uint256",
          "name": "",
          "type": "uint256"
        }
      ],
      "stateMutability": "nonpayable",
      "type": "function"
    },
    {
      "inputs": [
        {
          "internalType": "uint256",
          "name": "tokenId",
          "type": "uint256"
        }
      ],
      "name": "getPostUrl",
      "outputs": [
        {
          "internalType": "string",
          "name": "",
          "type": "string"
        }
      ],
      "stateMutability": "view",
      "type": "function"
    },
    {
      "inputs": [],
      "name": "getTokens",
      "outputs": [
        {
          "internalType": "uint256[]",
          "name": "",
          "type": "uint256[]"
        }
      ],
      "stateMutability": "view",
      "type": "function"
    },
    {
      "inputs": [
        {
          "internalType": "string",
          "name": "sn_name",
          "type": "string"
        },
        {
          "internalType": "string",
          "name": "author_id",
          "type": "string"
        },
        {
          "internalType": "string",
          "name": "post_id",
          "type": "string"
        }
      ],
      "name": "getTokenIdForPost",
      "outputs": [
        {
          "internalType": "uint256",
          "name": "",
          "type": "uint256"
        }
      ],
      "stateMutability": "view",
      "type": "function"
    },
    {
      "inputs": [
        {
          "internalType": "uint256",
          "name": "tokenId",
          "type": "uint256"
        }
      ],
      "name": "tokenURI",
      "outputs": [
        {
          "internalType": "string",
          "name": "",
          "type": "string"
        }
      ],
      "stateMutability": "view",
      "type": "function"
    }
  ],
  "bytecode": "0x608060405234801561001057600080fd5b50615a4480620000216000396000f3fe608060405234801561001057600080fd5b50600436106102065760003560e01c80636352211e1161011a578063aa6ca808116100ad578063d53913931161007c578063d539139314610635578063d547741f14610653578063e63ab1e91461066f578063e985e9c51461068d578063fb886804146106bd57610206565b8063aa6ca8081461059b578063b88d4fde146105b9578063c87b56dd146105d5578063ca15c8731461060557610206565b806391d14854116100e957806391d148541461051357806395d89b4114610543578063a217fddf14610561578063a22cb4651461057f57610206565b80636352211e1461047957806370a08231146104a95780638129fc1c146104d95780639010d07c146104e357610206565b8063248a9ca31161019d57806336568abe1161016c57806336568abe146103d957806342842e0e146103f557806342966c68146104115780634cd88b761461042d5780634f6ccce71461044957610206565b8063248a9ca31461032d5780632cbc04641461035d5780632f2ff15d1461038d5780632f745c59146103a957610206565b80630d8e6e2c116101d95780630d8e6e2c146102a557806318160ddd146102c357806323b872dd146102e157806324416fc5146102fd57610206565b806301ffc9a71461020b57806306fdde031461023b578063081812fc14610259578063095ea7b314610289575b600080fd5b6102256004803603810190610220919061421b565b6106ed565b6040516102329190614b31565b60405180910390f35b6102436106ff565b6040516102509190614b67565b60405180910390f35b610273600480360381019061026e919061452a565b610791565b6040516102809190614aa8565b60405180910390f35b6102a3600480360381019061029e919061412e565b610816565b005b6102ad61092e565b6040516102ba9190614b67565b60405180910390f35b6102cb61096b565b6040516102d89190614e69565b60405180910390f35b6102fb60048036038101906102f69190614018565b610978565b005b610317600480360381019061031291906142ed565b6109d8565b6040516103249190614e69565b60405180910390f35b6103476004803603810190610342919061416e565b610a94565b6040516103549190614b4c565b60405180910390f35b6103776004803603810190610372919061452a565b610ab4565b6040516103849190614b67565b60405180910390f35b6103a760048036038101906103a2919061419b565b610ba5565b005b6103c360048036038101906103be919061412e565b610bd9565b6040516103d09190614e69565b60405180910390f35b6103f360048036038101906103ee919061419b565b610c7e565b005b61040f600480360381019061040a9190614018565b610cb2565b005b61042b6004803603810190610426919061452a565b610cd2565b005b61044760048036038101906104429190614275565b610d2e565b005b610463600480360381019061045e919061452a565b610e13565b6040516104709190614e69565b60405180910390f35b610493600480360381019061048e919061452a565b610e84565b6040516104a09190614aa8565b60405180910390f35b6104c360048036038101906104be9190613fab565b610f36565b6040516104d09190614e69565b60405180910390f35b6104e1610fee565b005b6104fd60048036038101906104f891906141db565b6110cf565b60405161050a9190614aa8565b60405180910390f35b61052d6004803603810190610528919061419b565b6110fe565b60405161053a9190614b31565b60405180910390f35b61054b611169565b6040516105589190614b67565b60405180910390f35b6105696111fb565b6040516105769190614b4c565b60405180910390f35b610599600480360381019061059491906140ee565b611202565b005b6105a3611383565b6040516105b09190614b0f565b60405180910390f35b6105d360048036038101906105ce919061406b565b611419565b005b6105ef60048036038101906105ea919061452a565b61147b565b6040516105fc9190614b67565b60405180910390f35b61061f600480360381019061061a919061416e565b61156c565b60405161062c9190614e69565b60405180910390f35b61063d611590565b60405161064a9190614b4c565b60405180910390f35b61066d6004803603810190610668919061419b565b6115b4565b005b6106776115e8565b6040516106849190614b4c565b60405180910390f35b6106a760048036038101906106a29190613fd8565b61160c565b6040516106b49190614b31565b60405180910390f35b6106d760048036038101906106d29190614394565b6116a0565b6040516106e49190614e69565b60405180910390f35b60006106f882611a99565b9050919050565b606060c9805461070e90615155565b80601f016020809104026020016040519081016040528092919081815260200182805461073a90615155565b80156107875780601f1061075c57610100808354040283529160200191610787565b820191906000526020600020905b81548152906001019060200180831161076a57829003601f168201915b5050505050905090565b600061079c82611b13565b6107db576040517f08c379a00000000000000000000000000000000000000000000000000000000081526004016107d290614d29565b60405180910390fd5b60cd600083815260200190815260200160002060009054906101000a900473ffffffffffffffffffffffffffffffffffffffff169050919050565b600061082182610e84565b90508073ffffffffffffffffffffffffffffffffffffffff168373ffffffffffffffffffffffffffffffffffffffff161415610892576040517f08c379a000000000000000000000000000000000000000000000000000000000815260040161088990614d89565b60405180910390fd5b8073ffffffffffffffffffffffffffffffffffffffff166108b1611b7f565b73ffffffffffffffffffffffffffffffffffffffff1614806108e057506108df816108da611b7f565b61160c565b5b61091f576040517f08c379a000000000000000000000000000000000000000000000000000000000815260040161091690614c89565b60405180910390fd5b6109298383611b87565b505050565b60606040518060400160405280600581526020017f312e302e32000000000000000000000000000000000000000000000000000000815250905090565b600060fd80549050905090565b610989610983611b7f565b82611c40565b6109c8576040517f08c379a00000000000000000000000000000000000000000000000000000000081526004016109bf90614da9565b60405180910390fd5b6109d3838383611d1e565b505050565b6000808484846040516020016109f093929190614a3d565b60405160208183030381529060405290506101c961019182604051610a159190614a26565b90815260200160405180910390206009015414610a67576040517f08c379a0000000000000000000000000000000000000000000000000000000008152600401610a5e90614de9565b60405180910390fd5b61019181604051610a789190614a26565b9081526020016040518091039020600001549150509392505050565b600060656000838152602001908152602001600020600101549050919050565b6060610abf82611b13565b610afe576040517f08c379a0000000000000000000000000000000000000000000000000000000008152600401610af590614c49565b60405180910390fd5b61019060008381526020019081526020016000206006018054610b2090615155565b80601f0160208091040260200160405190810160405280929190818152602001828054610b4c90615155565b8015610b995780601f10610b6e57610100808354040283529160200191610b99565b820191906000526020600020905b815481529060010190602001808311610b7c57829003601f168201915b50505050509050919050565b610baf8282611f7a565b610bd48160976000858152602001908152602001600020611fa390919063ffffffff16565b505050565b6000610be483610f36565b8210610c25576040517f08c379a0000000000000000000000000000000000000000000000000000000008152600401610c1c90614ba9565b60405180910390fd5b60fb60008473ffffffffffffffffffffffffffffffffffffffff1673ffffffffffffffffffffffffffffffffffffffff168152602001908152602001600020600083815260200190815260200160002054905092915050565b610c888282611fd3565b610cad816097600085815260200190815260200160002061205690919063ffffffff16565b505050565b610ccd83838360405180602001604052806000815250611419565b505050565b610ce3610cdd611b7f565b82611c40565b610d22576040517f08c379a0000000000000000000000000000000000000000000000000000000008152600401610d1990614e29565b60405180910390fd5b610d2b81612086565b50565b600060019054906101000a900460ff1680610d54575060008054906101000a900460ff16155b610d93576040517f08c379a0000000000000000000000000000000000000000000000000000000008152600401610d8a90614ce9565b60405180910390fd5b60008060019054906101000a900460ff161590508015610de3576001600060016101000a81548160ff02191690831515021790555060016000806101000a81548160ff0219169083151502179055505b610ded8383612197565b8015610e0e5760008060016101000a81548160ff0219169083151502179055505b505050565b6000610e1d61096b565b8210610e5e576040517f08c379a0000000000000000000000000000000000000000000000000000000008152600401610e5590614dc9565b60405180910390fd5b60fd8281548110610e7257610e71615245565b5b90600052602060002001549050919050565b60008060cb600084815260200190815260200160002060009054906101000a900473ffffffffffffffffffffffffffffffffffffffff169050600073ffffffffffffffffffffffffffffffffffffffff168173ffffffffffffffffffffffffffffffffffffffff161415610f2d576040517f08c379a0000000000000000000000000000000000000000000000000000000008152600401610f2490614cc9565b60405180910390fd5b80915050919050565b60008073ffffffffffffffffffffffffffffffffffffffff168273ffffffffffffffffffffffffffffffffffffffff161415610fa7576040517f08c379a0000000000000000000000000000000000000000000000000000000008152600401610f9e90614ca9565b60405180910390fd5b60cc60008373ffffffffffffffffffffffffffffffffffffffff1673ffffffffffffffffffffffffffffffffffffffff168152602001908152602001600020549050919050565b600060019054906101000a900460ff1680611014575060008054906101000a900460ff16155b611053576040517f08c379a000000000000000000000000000000000000000000000000000000000815260040161104a90614ce9565b60405180910390fd5b60008060019054906101000a900460ff1615905080156110a3576001600060016101000a81548160ff02191690831515021790555060016000806101000a81548160ff0219169083151502179055505b6110ab6122b4565b80156110cc5760008060016101000a81548160ff0219169083151502179055505b50565b60006110f6826097600086815260200190815260200160002061240190919063ffffffff16565b905092915050565b60006065600084815260200190815260200160002060000160008373ffffffffffffffffffffffffffffffffffffffff1673ffffffffffffffffffffffffffffffffffffffff16815260200190815260200160002060009054906101000a900460ff16905092915050565b606060ca805461117890615155565b80601f01602080910402602001604051908101604052809291908181526020018280546111a490615155565b80156111f15780601f106111c6576101008083540402835291602001916111f1565b820191906000526020600020905b8154815290600101906020018083116111d457829003601f168201915b5050505050905090565b6000801b81565b61120a611b7f565b73ffffffffffffffffffffffffffffffffffffffff168273ffffffffffffffffffffffffffffffffffffffff161415611278576040517f08c379a000000000000000000000000000000000000000000000000000000000815260040161126f90614c29565b60405180910390fd5b8060ce6000611285611b7f565b73ffffffffffffffffffffffffffffffffffffffff1673ffffffffffffffffffffffffffffffffffffffff16815260200190815260200160002060008473ffffffffffffffffffffffffffffffffffffffff1673ffffffffffffffffffffffffffffffffffffffff16815260200190815260200160002060006101000a81548160ff0219169083151502179055508173ffffffffffffffffffffffffffffffffffffffff16611332611b7f565b73ffffffffffffffffffffffffffffffffffffffff167f17307eab39ab6107e8899845ad3d59bd9653f200f220920489ca2b5937696c31836040516113779190614b31565b60405180910390a35050565b606061019260003373ffffffffffffffffffffffffffffffffffffffff1673ffffffffffffffffffffffffffffffffffffffff16815260200190815260200160002080548060200260200160405190810160405280929190818152602001828054801561140f57602002820191906000526020600020905b8154815260200190600101908083116113fb575b5050505050905090565b61142a611424611b7f565b83611c40565b611469576040517f08c379a000000000000000000000000000000000000000000000000000000000815260040161146090614da9565b60405180910390fd5b6114758484848461241b565b50505050565b606061148682611b13565b6114c5576040517f08c379a00000000000000000000000000000000000000000000000000000000081526004016114bc90614d69565b60405180910390fd5b610190600083815260200190815260200160002060080180546114e790615155565b80601f016020809104026020016040519081016040528092919081815260200182805461151390615155565b80156115605780601f1061153557610100808354040283529160200191611560565b820191906000526020600020905b81548152906001019060200180831161154357829003601f168201915b50505050509050919050565b600061158960976000848152602001908152602001600020612477565b9050919050565b7f9f2df0fed2c77648de5860a4cc508cd0818c85b8b8a1ab4ceeef8d981c8956a681565b6115be828261248c565b6115e3816097600085815260200190815260200160002061205690919063ffffffff16565b505050565b7f65d7a28e3265b37a6474929f336521b332c1681b933f6cb9f3376673440d862a81565b600060ce60008473ffffffffffffffffffffffffffffffffffffffff1673ffffffffffffffffffffffffffffffffffffffff16815260200190815260200160002060008373ffffffffffffffffffffffffffffffffffffffff1673ffffffffffffffffffffffffffffffffffffffff16815260200190815260200160002060009054906101000a900460ff16905092915050565b6000808989876040516020016116b893929190614a3d565b60405160208183030381529060405290506101c9610191826040516116dd9190614a26565b9081526020016040518091039020600901541415611730576040517f08c379a000000000000000000000000000000000000000000000000000000000815260040161172790614e09565b60405180910390fd5b600061173b336124b5565b9050806101906000838152602001908152602001600020600001819055508a61019060008381526020019081526020016000206001019080519060200190611784929190613d1d565b5089610190600083815260200190815260200160002060020190805190602001906117b0929190613d1d565b5088610190600083815260200190815260200160002060030190805190602001906117dc929190613d1d565b508761019060008381526020019081526020016000206004019080519060200190611808929190613d1d565b508661019060008381526020019081526020016000206005019080519060200190611834929190613d1d565b508561019060008381526020019081526020016000206006019080519060200190611860929190613d1d565b50846101906000838152602001908152602001600020600701908051906020019061188c929190613d1d565b5083610190600083815260200190815260200160002060080190805190602001906118b8929190613d1d565b506101c96101906000838152602001908152602001600020600901819055506101906000828152602001908152602001600020610191836040516118fc9190614a26565b908152602001604051809103902060008201548160000155600182018160010190805461192890615155565b611933929190613da3565b50600282018160020190805461194890615155565b611953929190613da3565b50600382018160030190805461196890615155565b611973929190613da3565b50600482018160040190805461198890615155565b611993929190613da3565b5060058201816005019080546119a890615155565b6119b3929190613da3565b5060068201816006019080546119c890615155565b6119d3929190613da3565b5060078201816007019080546119e890615155565b6119f3929190613da3565b506008820181600801908054611a0890615155565b611a13929190613da3565b506009820154816009015590505061019260003373ffffffffffffffffffffffffffffffffffffffff1673ffffffffffffffffffffffffffffffffffffffff168152602001908152602001600020819080600181540180825580915050600190039060005260206000200160009091909190915055809250505098975050505050505050565b60007f780e9d63000000000000000000000000000000000000000000000000000000007bffffffffffffffffffffffffffffffffffffffffffffffffffffffff1916827bffffffffffffffffffffffffffffffffffffffffffffffffffffffff19161480611b0c5750611b0b826124e3565b5b9050919050565b60008073ffffffffffffffffffffffffffffffffffffffff1660cb600084815260200190815260200160002060009054906101000a900473ffffffffffffffffffffffffffffffffffffffff1673ffffffffffffffffffffffffffffffffffffffff1614159050919050565b600033905090565b8160cd600083815260200190815260200160002060006101000a81548173ffffffffffffffffffffffffffffffffffffffff021916908373ffffffffffffffffffffffffffffffffffffffff160217905550808273ffffffffffffffffffffffffffffffffffffffff16611bfa83610e84565b73ffffffffffffffffffffffffffffffffffffffff167f8c5be1e5ebec7d5bd14f71427d1e84f3dd0314c0f7b2291e5b200ac8c7c3b92560405160405180910390a45050565b6000611c4b82611b13565b611c8a576040517f08c379a0000000000000000000000000000000000000000000000000000000008152600401611c8190614c69565b60405180910390fd5b6000611c9583610e84565b90508073ffffffffffffffffffffffffffffffffffffffff168473ffffffffffffffffffffffffffffffffffffffff161480611d0457508373ffffffffffffffffffffffffffffffffffffffff16611cec84610791565b73ffffffffffffffffffffffffffffffffffffffff16145b80611d155750611d14818561160c565b5b91505092915050565b8273ffffffffffffffffffffffffffffffffffffffff16611d3e82610e84565b73ffffffffffffffffffffffffffffffffffffffff1614611d94576040517f08c379a0000000000000000000000000000000000000000000000000000000008152600401611d8b90614d49565b60405180910390fd5b600073ffffffffffffffffffffffffffffffffffffffff168273ffffffffffffffffffffffffffffffffffffffff161415611e04576040517f08c379a0000000000000000000000000000000000000000000000000000000008152600401611dfb90614c09565b60405180910390fd5b611e0f8383836125c5565b611e1a600082611b87565b600160cc60008573ffffffffffffffffffffffffffffffffffffffff1673ffffffffffffffffffffffffffffffffffffffff1681526020019081526020016000206000828254611e6a9190615037565b92505081905550600160cc60008473ffffffffffffffffffffffffffffffffffffffff1673ffffffffffffffffffffffffffffffffffffffff1681526020019081526020016000206000828254611ec19190614f87565b925050819055508160cb600083815260200190815260200160002060006101000a81548173ffffffffffffffffffffffffffffffffffffffff021916908373ffffffffffffffffffffffffffffffffffffffff160217905550808273ffffffffffffffffffffffffffffffffffffffff168473ffffffffffffffffffffffffffffffffffffffff167fddf252ad1be2c89b69c2b068fc378daa952ba7f163c4a11628f55a4df523b3ef60405160405180910390a4505050565b611f8382610a94565b611f9481611f8f611b7f565b6125d5565b611f9e8383612672565b505050565b6000611fcb836000018373ffffffffffffffffffffffffffffffffffffffff1660001b612753565b905092915050565b611fdb611b7f565b73ffffffffffffffffffffffffffffffffffffffff168173ffffffffffffffffffffffffffffffffffffffff1614612048576040517f08c379a000000000000000000000000000000000000000000000000000000000815260040161203f90614e49565b60405180910390fd5b61205282826127c3565b5050565b600061207e836000018373ffffffffffffffffffffffffffffffffffffffff1660001b6128a5565b905092915050565b600061209182610e84565b905061209f816000846125c5565b6120aa600083611b87565b600160cc60008373ffffffffffffffffffffffffffffffffffffffff1673ffffffffffffffffffffffffffffffffffffffff16815260200190815260200160002060008282546120fa9190615037565b9250508190555060cb600083815260200190815260200160002060006101000a81549073ffffffffffffffffffffffffffffffffffffffff021916905581600073ffffffffffffffffffffffffffffffffffffffff168273ffffffffffffffffffffffffffffffffffffffff167fddf252ad1be2c89b69c2b068fc378daa952ba7f163c4a11628f55a4df523b3ef60405160405180910390a45050565b600060019054906101000a900460ff16806121bd575060008054906101000a900460ff16155b6121fc576040517f08c379a00000000000000000000000000000000000000000000000000000000081526004016121f390614ce9565b60405180910390fd5b60008060019054906101000a900460ff16159050801561224c576001600060016101000a81548160ff02191690831515021790555060016000806101000a81548160ff0219169083151502179055505b6122546129b9565b61225c612a92565b612264612b6b565b61226c612c44565b6122768383612d1d565b61227e612e26565b612286612eff565b61228e612fd8565b80156122af5760008060016101000a81548160ff0219169083151502179055505b505050565b600060019054906101000a900460ff16806122da575060008054906101000a900460ff16155b612319576040517f08c379a000000000000000000000000000000000000000000000000000000000815260040161231090614ce9565b60405180910390fd5b60008060019054906101000a900460ff161590508015612369576001600060016101000a81548160ff02191690831515021790555060016000806101000a81548160ff0219169083151502179055505b6123dd6040518060400160405280600a81526020017f4f776e6564576f726473000000000000000000000000000000000000000000008152506040518060400160405280600381526020017f4f57570000000000000000000000000000000000000000000000000000000000815250612197565b80156123fe5760008060016101000a81548160ff0219169083151502179055505b50565b60006124108360000183613127565b60001c905092915050565b612426848484611d1e565b61243284848484613152565b612471576040517f08c379a000000000000000000000000000000000000000000000000000000000815260040161246890614bc9565b60405180910390fd5b50505050565b6000612485826000016132e9565b9050919050565b61249582610a94565b6124a6816124a1611b7f565b6125d5565b6124b083836127c3565b505050565b6000806124c361015f6132fa565b90506124cf8382613308565b6124da61015f6134d6565b80915050919050565b60007f80ac58cd000000000000000000000000000000000000000000000000000000007bffffffffffffffffffffffffffffffffffffffffffffffffffffffff1916827bffffffffffffffffffffffffffffffffffffffffffffffffffffffff191614806125ae57507f5b5e139f000000000000000000000000000000000000000000000000000000007bffffffffffffffffffffffffffffffffffffffffffffffffffffffff1916827bffffffffffffffffffffffffffffffffffffffffffffffffffffffff1916145b806125be57506125bd826134ec565b5b9050919050565b6125d0838383613566565b505050565b6125df82826110fe565b61266e576126048173ffffffffffffffffffffffffffffffffffffffff16601461367a565b6126128360001c602061367a565b604051602001612623929190614a6e565b6040516020818303038152906040526040517f08c379a00000000000000000000000000000000000000000000000000000000081526004016126659190614b67565b60405180910390fd5b5050565b61267c82826110fe565b61274f5760016065600084815260200190815260200160002060000160008373ffffffffffffffffffffffffffffffffffffffff1673ffffffffffffffffffffffffffffffffffffffff16815260200190815260200160002060006101000a81548160ff0219169083151502179055506126f4611b7f565b73ffffffffffffffffffffffffffffffffffffffff168173ffffffffffffffffffffffffffffffffffffffff16837f2f8788117e7eff1d82e926ec794901d17c78024a50270940304540a733656f0d60405160405180910390a45b5050565b600061275f83836138b6565b6127b85782600001829080600181540180825580915050600190039060005260206000200160009091909190915055826000018054905083600101600084815260200190815260200160002081905550600190506127bd565b600090505b92915050565b6127cd82826110fe565b156128a15760006065600084815260200190815260200160002060000160008373ffffffffffffffffffffffffffffffffffffffff1673ffffffffffffffffffffffffffffffffffffffff16815260200190815260200160002060006101000a81548160ff021916908315150217905550612846611b7f565b73ffffffffffffffffffffffffffffffffffffffff168173ffffffffffffffffffffffffffffffffffffffff16837ff6391f5c32d9c69d2a47ea670b442974b53935d1edc7fd64eb21e047a839171b60405160405180910390a45b5050565b600080836001016000848152602001908152602001600020549050600081146129ad5760006001826128d79190615037565b90506000600186600001805490506128ef9190615037565b905081811461295e5760008660000182815481106129105761290f615245565b5b906000526020600020015490508087600001848154811061293457612933615245565b5b90600052602060002001819055508387600101600083815260200190815260200160002081905550505b8560000180548061297257612971615216565b5b6001900381819060005260206000200160009055905585600101600086815260200190815260200160002060009055600193505050506129b3565b60009150505b92915050565b600060019054906101000a900460ff16806129df575060008054906101000a900460ff16155b612a1e576040517f08c379a0000000000000000000000000000000000000000000000000000000008152600401612a1590614ce9565b60405180910390fd5b60008060019054906101000a900460ff161590508015612a6e576001600060016101000a81548160ff02191690831515021790555060016000806101000a81548160ff0219169083151502179055505b8015612a8f5760008060016101000a81548160ff0219169083151502179055505b50565b600060019054906101000a900460ff1680612ab8575060008054906101000a900460ff16155b612af7576040517f08c379a0000000000000000000000000000000000000000000000000000000008152600401612aee90614ce9565b60405180910390fd5b60008060019054906101000a900460ff161590508015612b47576001600060016101000a81548160ff02191690831515021790555060016000806101000a81548160ff0219169083151502179055505b8015612b685760008060016101000a81548160ff0219169083151502179055505b50565b600060019054906101000a900460ff1680612b91575060008054906101000a900460ff16155b612bd0576040517f08c379a0000000000000000000000000000000000000000000000000000000008152600401612bc790614ce9565b60405180910390fd5b60008060019054906101000a900460ff161590508015612c20576001600060016101000a81548160ff02191690831515021790555060016000806101000a81548160ff0219169083151502179055505b8015612c415760008060016101000a81548160ff0219169083151502179055505b50565b600060019054906101000a900460ff1680612c6a575060008054906101000a900460ff16155b612ca9576040517f08c379a0000000000000000000000000000000000000000000000000000000008152600401612ca090614ce9565b60405180910390fd5b60008060019054906101000a900460ff161590508015612cf9576001600060016101000a81548160ff02191690831515021790555060016000806101000a81548160ff0219169083151502179055505b8015612d1a5760008060016101000a81548160ff0219169083151502179055505b50565b600060019054906101000a900460ff1680612d43575060008054906101000a900460ff16155b612d82576040517f08c379a0000000000000000000000000000000000000000000000000000000008152600401612d7990614ce9565b60405180910390fd5b60008060019054906101000a900460ff161590508015612dd2576001600060016101000a81548160ff02191690831515021790555060016000806101000a81548160ff0219169083151502179055505b8260c99080519060200190612de8929190613d1d565b508160ca9080519060200190612dff929190613d1d565b508015612e215760008060016101000a81548160ff0219169083151502179055505b505050565b600060019054906101000a900460ff1680612e4c575060008054906101000a900460ff16155b612e8b576040517f08c379a0000000000000000000000000000000000000000000000000000000008152600401612e8290614ce9565b60405180910390fd5b60008060019054906101000a900460ff161590508015612edb576001600060016101000a81548160ff02191690831515021790555060016000806101000a81548160ff0219169083151502179055505b8015612efc5760008060016101000a81548160ff0219169083151502179055505b50565b600060019054906101000a900460ff1680612f25575060008054906101000a900460ff16155b612f64576040517f08c379a0000000000000000000000000000000000000000000000000000000008152600401612f5b90614ce9565b60405180910390fd5b60008060019054906101000a900460ff161590508015612fb4576001600060016101000a81548160ff02191690831515021790555060016000806101000a81548160ff0219169083151502179055505b8015612fd55760008060016101000a81548160ff0219169083151502179055505b50565b600060019054906101000a900460ff1680612ffe575060008054906101000a900460ff16155b61303d576040517f08c379a000000000000000000000000000000000000000000000000000000000815260040161303490614ce9565b60405180910390fd5b60008060019054906101000a900460ff16159050801561308d576001600060016101000a81548160ff02191690831515021790555060016000806101000a81548160ff0219169083151502179055505b6130a16000801b61309c611b7f565b6138d9565b6130d27f9f2df0fed2c77648de5860a4cc508cd0818c85b8b8a1ab4ceeef8d981c8956a66130cd611b7f565b6138d9565b6131037f65d7a28e3265b37a6474929f336521b332c1681b933f6cb9f3376673440d862a6130fe611b7f565b6138d9565b80156131245760008060016101000a81548160ff0219169083151502179055505b50565b600082600001828154811061313f5761313e615245565b5b9060005260206000200154905092915050565b60006131738473ffffffffffffffffffffffffffffffffffffffff1661390d565b156132dc578373ffffffffffffffffffffffffffffffffffffffff1663150b7a0261319c611b7f565b8786866040518563ffffffff1660e01b81526004016131be9493929190614ac3565b602060405180830381600087803b1580156131d857600080fd5b505af192505050801561320957506040513d601f19601f820116820180604052508101906132069190614248565b60015b61328c573d8060008114613239576040519150601f19603f3d011682016040523d82523d6000602084013e61323e565b606091505b50600081511415613284576040517f08c379a000000000000000000000000000000000000000000000000000000000815260040161327b90614bc9565b60405180910390fd5b805181602001fd5b63150b7a0260e01b7bffffffffffffffffffffffffffffffffffffffffffffffffffffffff1916817bffffffffffffffffffffffffffffffffffffffffffffffffffffffff1916149150506132e1565b600190505b949350505050565b600081600001805490509050919050565b600081600001549050919050565b600073ffffffffffffffffffffffffffffffffffffffff168273ffffffffffffffffffffffffffffffffffffffff161415613378576040517f08c379a000000000000000000000000000000000000000000000000000000000815260040161336f90614d09565b60405180910390fd5b61338181611b13565b156133c1576040517f08c379a00000000000000000000000000000000000000000000000000000000081526004016133b890614be9565b60405180910390fd5b6133cd600083836125c5565b600160cc60008473ffffffffffffffffffffffffffffffffffffffff1673ffffffffffffffffffffffffffffffffffffffff168152602001908152602001600020600082825461341d9190614f87565b925050819055508160cb600083815260200190815260200160002060006101000a81548173ffffffffffffffffffffffffffffffffffffffff021916908373ffffffffffffffffffffffffffffffffffffffff160217905550808273ffffffffffffffffffffffffffffffffffffffff16600073ffffffffffffffffffffffffffffffffffffffff167fddf252ad1be2c89b69c2b068fc378daa952ba7f163c4a11628f55a4df523b3ef60405160405180910390a45050565b6001816000016000828254019250508190555050565b60007f5a05180f000000000000000000000000000000000000000000000000000000007bffffffffffffffffffffffffffffffffffffffffffffffffffffffff1916827bffffffffffffffffffffffffffffffffffffffffffffffffffffffff1916148061355f575061355e82613920565b5b9050919050565b61357183838361399a565b600073ffffffffffffffffffffffffffffffffffffffff168373ffffffffffffffffffffffffffffffffffffffff1614156135b4576135af8161399f565b6135f3565b8173ffffffffffffffffffffffffffffffffffffffff168373ffffffffffffffffffffffffffffffffffffffff16146135f2576135f183826139e8565b5b5b600073ffffffffffffffffffffffffffffffffffffffff168273ffffffffffffffffffffffffffffffffffffffff1614156136365761363181613b55565b613675565b8273ffffffffffffffffffffffffffffffffffffffff168273ffffffffffffffffffffffffffffffffffffffff1614613674576136738282613c26565b5b5b505050565b60606000600283600261368d9190614fdd565b6136979190614f87565b67ffffffffffffffff8111156136b0576136af615274565b5b6040519080825280601f01601f1916602001820160405280156136e25781602001600182028036833780820191505090505b5090507f30000000000000000000000000000000000000000000000000000000000000008160008151811061371a57613719615245565b5b60200101907effffffffffffffffffffffffffffffffffffffffffffffffffffffffffffff1916908160001a9053507f78000000000000000000000000000000000000000000000000000000000000008160018151811061377e5761377d615245565b5b60200101907effffffffffffffffffffffffffffffffffffffffffffffffffffffffffffff1916908160001a905350600060018460026137be9190614fdd565b6137c89190614f87565b90505b6001811115613868577f3031323334353637383961626364656600000000000000000000000000000000600f86166010811061380a57613809615245565b5b1a60f81b82828151811061382157613820615245565b5b60200101907effffffffffffffffffffffffffffffffffffffffffffffffffffffffffffff1916908160001a905350600485901c9450806138619061512b565b90506137cb565b50600084146138ac576040517f08c379a00000000000000000000000000000000000000000000000000000000081526004016138a390614b89565b60405180910390fd5b8091505092915050565b600080836001016000848152602001908152602001600020541415905092915050565b6138e38282613ca5565b6139088160976000858152602001908152602001600020611fa390919063ffffffff16565b505050565b600080823b905060008111915050919050565b60007f7965db0b000000000000000000000000000000000000000000000000000000007bffffffffffffffffffffffffffffffffffffffffffffffffffffffff1916827bffffffffffffffffffffffffffffffffffffffffffffffffffffffff19161480613993575061399282613cb3565b5b9050919050565b505050565b60fd8054905060fe60008381526020019081526020016000208190555060fd81908060018154018082558091505060019003906000526020600020016000909190919091505550565b600060016139f584610f36565b6139ff9190615037565b9050600060fc6000848152602001908152602001600020549050818114613ae457600060fb60008673ffffffffffffffffffffffffffffffffffffffff1673ffffffffffffffffffffffffffffffffffffffff16815260200190815260200160002060008481526020019081526020016000205490508060fb60008773ffffffffffffffffffffffffffffffffffffffff1673ffffffffffffffffffffffffffffffffffffffff1681526020019081526020016000206000848152602001908152602001600020819055508160fc600083815260200190815260200160002081905550505b60fc60008481526020019081526020016000206000905560fb60008573ffffffffffffffffffffffffffffffffffffffff1673ffffffffffffffffffffffffffffffffffffffff16815260200190815260200160002060008381526020019081526020016000206000905550505050565b6000600160fd80549050613b699190615037565b9050600060fe6000848152602001908152602001600020549050600060fd8381548110613b9957613b98615245565b5b906000526020600020015490508060fd8381548110613bbb57613bba615245565b5b90600052602060002001819055508160fe60008381526020019081526020016000208190555060fe60008581526020019081526020016000206000905560fd805480613c0a57613c09615216565b5b6001900381819060005260206000200160009055905550505050565b6000613c3183610f36565b90508160fb60008573ffffffffffffffffffffffffffffffffffffffff1673ffffffffffffffffffffffffffffffffffffffff1681526020019081526020016000206000838152602001908152602001600020819055508060fc600084815260200190815260200160002081905550505050565b613caf8282612672565b5050565b60007f01ffc9a7000000000000000000000000000000000000000000000000000000007bffffffffffffffffffffffffffffffffffffffffffffffffffffffff1916827bffffffffffffffffffffffffffffffffffffffffffffffffffffffff1916149050919050565b828054613d2990615155565b90600052602060002090601f016020900481019282613d4b5760008555613d92565b82601f10613d6457805160ff1916838001178555613d92565b82800160010185558215613d92579182015b82811115613d91578251825591602001919060010190613d76565b5b509050613d9f9190613e30565b5090565b828054613daf90615155565b90600052602060002090601f016020900481019282613dd15760008555613e1f565b82601f10613de25780548555613e1f565b82800160010185558215613e1f57600052602060002091601f016020900482015b82811115613e1e578254825591600101919060010190613e03565b5b509050613e2c9190613e30565b5090565b5b80821115613e49576000816000905550600101613e31565b5090565b6000613e60613e5b84614ea9565b614e84565b905082815260208101848484011115613e7c57613e7b6152a8565b5b613e878482856150e9565b509392505050565b6000613ea2613e9d84614eda565b614e84565b905082815260208101848484011115613ebe57613ebd6152a8565b5b613ec98482856150e9565b509392505050565b600081359050613ee08161599b565b92915050565b600081359050613ef5816159b2565b92915050565b600081359050613f0a816159c9565b92915050565b600081359050613f1f816159e0565b92915050565b600081519050613f34816159e0565b92915050565b600082601f830112613f4f57613f4e6152a3565b5b8135613f5f848260208601613e4d565b91505092915050565b600082601f830112613f7d57613f7c6152a3565b5b8135613f8d848260208601613e8f565b91505092915050565b600081359050613fa5816159f7565b92915050565b600060208284031215613fc157613fc06152b2565b5b6000613fcf84828501613ed1565b91505092915050565b60008060408385031215613fef57613fee6152b2565b5b6000613ffd85828601613ed1565b925050602061400e85828601613ed1565b9150509250929050565b600080600060608486031215614031576140306152b2565b5b600061403f86828701613ed1565b935050602061405086828701613ed1565b925050604061406186828701613f96565b9150509250925092565b60008060008060808587031215614085576140846152b2565b5b600061409387828801613ed1565b94505060206140a487828801613ed1565b93505060406140b587828801613f96565b925050606085013567ffffffffffffffff8111156140d6576140d56152ad565b5b6140e287828801613f3a565b91505092959194509250565b60008060408385031215614105576141046152b2565b5b600061411385828601613ed1565b925050602061412485828601613ee6565b9150509250929050565b60008060408385031215614145576141446152b2565b5b600061415385828601613ed1565b925050602061416485828601613f96565b9150509250929050565b600060208284031215614184576141836152b2565b5b600061419284828501613efb565b91505092915050565b600080604083850312156141b2576141b16152b2565b5b60006141c085828601613efb565b92505060206141d185828601613ed1565b9150509250929050565b600080604083850312156141f2576141f16152b2565b5b600061420085828601613efb565b925050602061421185828601613f96565b9150509250929050565b600060208284031215614231576142306152b2565b5b600061423f84828501613f10565b91505092915050565b60006020828403121561425e5761425d6152b2565b5b600061426c84828501613f25565b91505092915050565b6000806040838503121561428c5761428b6152b2565b5b600083013567ffffffffffffffff8111156142aa576142a96152ad565b5b6142b685828601613f68565b925050602083013567ffffffffffffffff8111156142d7576142d66152ad565b5b6142e385828601613f68565b9150509250929050565b600080600060608486031215614306576143056152b2565b5b600084013567ffffffffffffffff811115614324576143236152ad565b5b61433086828701613f68565b935050602084013567ffffffffffffffff811115614351576143506152ad565b5b61435d86828701613f68565b925050604084013567ffffffffffffffff81111561437e5761437d6152ad565b5b61438a86828701613f68565b9150509250925092565b600080600080600080600080610100898b0312156143b5576143b46152b2565b5b600089013567ffffffffffffffff8111156143d3576143d26152ad565b5b6143df8b828c01613f68565b985050602089013567ffffffffffffffff811115614400576143ff6152ad565b5b61440c8b828c01613f68565b975050604089013567ffffffffffffffff81111561442d5761442c6152ad565b5b6144398b828c01613f68565b965050606089013567ffffffffffffffff81111561445a576144596152ad565b5b6144668b828c01613f68565b955050608089013567ffffffffffffffff811115614487576144866152ad565b5b6144938b828c01613f68565b94505060a089013567ffffffffffffffff8111156144b4576144b36152ad565b5b6144c08b828c01613f68565b93505060c089013567ffffffffffffffff8111156144e1576144e06152ad565b5b6144ed8b828c01613f68565b92505060e089013567ffffffffffffffff81111561450e5761450d6152ad565b5b61451a8b828c01613f68565b9150509295985092959890939650565b6000602082840312156145405761453f6152b2565b5b600061454e84828501613f96565b91505092915050565b60006145638383614a08565b60208301905092915050565b6145788161506b565b82525050565b600061458982614f1b565b6145938185614f49565b935061459e83614f0b565b8060005b838110156145cf5781516145b68882614557565b97506145c183614f3c565b9250506001810190506145a2565b5085935050505092915050565b6145e58161507d565b82525050565b6145f481615089565b82525050565b600061460582614f26565b61460f8185614f5a565b935061461f8185602086016150f8565b614628816152b7565b840191505092915050565b600061463e82614f31565b6146488185614f6b565b93506146588185602086016150f8565b614661816152b7565b840191505092915050565b600061467782614f31565b6146818185614f7c565b93506146918185602086016150f8565b80840191505092915050565b60006146aa602083614f6b565b91506146b5826152c8565b602082019050919050565b60006146cd602b83614f6b565b91506146d8826152f1565b604082019050919050565b60006146f0603283614f6b565b91506146fb82615340565b604082019050919050565b6000614713601c83614f6b565b915061471e8261538f565b602082019050919050565b6000614736602483614f6b565b9150614741826153b8565b604082019050919050565b6000614759601983614f6b565b915061476482615407565b602082019050919050565b600061477c603083614f6b565b915061478782615430565b604082019050919050565b600061479f602c83614f6b565b91506147aa8261547f565b604082019050919050565b60006147c2603883614f6b565b91506147cd826154ce565b604082019050919050565b60006147e5602a83614f6b565b91506147f08261551d565b604082019050919050565b6000614808602983614f6b565b91506148138261556c565b604082019050919050565b600061482b602e83614f6b565b9150614836826155bb565b604082019050919050565b600061484e602083614f6b565b91506148598261560a565b602082019050919050565b6000614871602c83614f6b565b915061487c82615633565b604082019050919050565b6000614894602983614f6b565b915061489f82615682565b604082019050919050565b60006148b7602f83614f6b565b91506148c2826156d1565b604082019050919050565b60006148da602183614f6b565b91506148e582615720565b604082019050919050565b60006148fd603183614f6b565b91506149088261576f565b604082019050919050565b6000614920602c83614f6b565b915061492b826157be565b604082019050919050565b6000614943601783614f7c565b915061494e8261580d565b601782019050919050565b6000614966602683614f6b565b915061497182615836565b604082019050919050565b6000614989602783614f6b565b915061499482615885565b604082019050919050565b60006149ac603083614f6b565b91506149b7826158d4565b604082019050919050565b60006149cf601183614f7c565b91506149da82615923565b601182019050919050565b60006149f2602f83614f6b565b91506149fd8261594c565b604082019050919050565b614a11816150df565b82525050565b614a20816150df565b82525050565b6000614a32828461466c565b915081905092915050565b6000614a49828661466c565b9150614a55828561466c565b9150614a61828461466c565b9150819050949350505050565b6000614a7982614936565b9150614a85828561466c565b9150614a90826149c2565b9150614a9c828461466c565b91508190509392505050565b6000602082019050614abd600083018461456f565b92915050565b6000608082019050614ad8600083018761456f565b614ae5602083018661456f565b614af26040830185614a17565b8181036060830152614b0481846145fa565b905095945050505050565b60006020820190508181036000830152614b29818461457e565b905092915050565b6000602082019050614b4660008301846145dc565b92915050565b6000602082019050614b6160008301846145eb565b92915050565b60006020820190508181036000830152614b818184614633565b905092915050565b60006020820190508181036000830152614ba28161469d565b9050919050565b60006020820190508181036000830152614bc2816146c0565b9050919050565b60006020820190508181036000830152614be2816146e3565b9050919050565b60006020820190508181036000830152614c0281614706565b9050919050565b60006020820190508181036000830152614c2281614729565b9050919050565b60006020820190508181036000830152614c428161474c565b9050919050565b60006020820190508181036000830152614c628161476f565b9050919050565b60006020820190508181036000830152614c8281614792565b9050919050565b60006020820190508181036000830152614ca2816147b5565b9050919050565b60006020820190508181036000830152614cc2816147d8565b9050919050565b60006020820190508181036000830152614ce2816147fb565b9050919050565b60006020820190508181036000830152614d028161481e565b9050919050565b60006020820190508181036000830152614d2281614841565b9050919050565b60006020820190508181036000830152614d4281614864565b9050919050565b60006020820190508181036000830152614d6281614887565b9050919050565b60006020820190508181036000830152614d82816148aa565b9050919050565b60006020820190508181036000830152614da2816148cd565b9050919050565b60006020820190508181036000830152614dc2816148f0565b9050919050565b60006020820190508181036000830152614de281614913565b9050919050565b60006020820190508181036000830152614e0281614959565b9050919050565b60006020820190508181036000830152614e228161497c565b9050919050565b60006020820190508181036000830152614e428161499f565b9050919050565b60006020820190508181036000830152614e62816149e5565b9050919050565b6000602082019050614e7e6000830184614a17565b92915050565b6000614e8e614e9f565b9050614e9a8282615187565b919050565b6000604051905090565b600067ffffffffffffffff821115614ec457614ec3615274565b5b614ecd826152b7565b9050602081019050919050565b600067ffffffffffffffff821115614ef557614ef4615274565b5b614efe826152b7565b9050602081019050919050565b6000819050602082019050919050565b600081519050919050565b600081519050919050565b600081519050919050565b6000602082019050919050565b600082825260208201905092915050565b600082825260208201905092915050565b600082825260208201905092915050565b600081905092915050565b6000614f92826150df565b9150614f9d836150df565b9250827fffffffffffffffffffffffffffffffffffffffffffffffffffffffffffffffff03821115614fd257614fd16151b8565b5b828201905092915050565b6000614fe8826150df565b9150614ff3836150df565b9250817fffffffffffffffffffffffffffffffffffffffffffffffffffffffffffffffff048311821515161561502c5761502b6151b8565b5b828202905092915050565b6000615042826150df565b915061504d836150df565b9250828210156150605761505f6151b8565b5b828203905092915050565b6000615076826150bf565b9050919050565b60008115159050919050565b6000819050919050565b60007fffffffff0000000000000000000000000000000000000000000000000000000082169050919050565b600073ffffffffffffffffffffffffffffffffffffffff82169050919050565b6000819050919050565b82818337600083830152505050565b60005b838110156151165780820151818401526020810190506150fb565b83811115615125576000848401525b50505050565b6000615136826150df565b9150600082141561514a576151496151b8565b5b600182039050919050565b6000600282049050600182168061516d57607f821691505b60208210811415615181576151806151e7565b5b50919050565b615190826152b7565b810181811067ffffffffffffffff821117156151af576151ae615274565b5b80604052505050565b7f4e487b7100000000000000000000000000000000000000000000000000000000600052601160045260246000fd5b7f4e487b7100000000000000000000000000000000000000000000000000000000600052602260045260246000fd5b7f4e487b7100000000000000000000000000000000000000000000000000000000600052603160045260246000fd5b7f4e487b7100000000000000000000000000000000000000000000000000000000600052603260045260246000fd5b7f4e487b7100000000000000000000000000000000000000000000000000000000600052604160045260246000fd5b600080fd5b600080fd5b600080fd5b600080fd5b6000601f19601f8301169050919050565b7f537472696e67733a20686578206c656e67746820696e73756666696369656e74600082015250565b7f455243373231456e756d657261626c653a206f776e657220696e646578206f7560008201527f74206f6620626f756e6473000000000000000000000000000000000000000000602082015250565b7f4552433732313a207472616e7366657220746f206e6f6e20455243373231526560008201527f63656976657220696d706c656d656e7465720000000000000000000000000000602082015250565b7f4552433732313a20746f6b656e20616c7265616479206d696e74656400000000600082015250565b7f4552433732313a207472616e7366657220746f20746865207a65726f2061646460008201527f7265737300000000000000000000000000000000000000000000000000000000602082015250565b7f4552433732313a20617070726f766520746f2063616c6c657200000000000000600082015250565b7f4f776e6564576f7264733a20504f53542055524c20717565727920666f72206e60008201527f6f6e6578697374656e7420746f6b656e00000000000000000000000000000000602082015250565b7f4552433732313a206f70657261746f7220717565727920666f72206e6f6e657860008201527f697374656e7420746f6b656e0000000000000000000000000000000000000000602082015250565b7f4552433732313a20617070726f76652063616c6c6572206973206e6f74206f7760008201527f6e6572206e6f7220617070726f76656420666f7220616c6c0000000000000000602082015250565b7f4552433732313a2062616c616e636520717565727920666f7220746865207a6560008201527f726f206164647265737300000000000000000000000000000000000000000000602082015250565b7f4552433732313a206f776e657220717565727920666f72206e6f6e657869737460008201527f656e7420746f6b656e0000000000000000000000000000000000000000000000602082015250565b7f496e697469616c697a61626c653a20636f6e747261637420697320616c72656160008201527f647920696e697469616c697a6564000000000000000000000000000000000000602082015250565b7f4552433732313a206d696e7420746f20746865207a65726f2061646472657373600082015250565b7f4552433732313a20617070726f76656420717565727920666f72206e6f6e657860008201527f697374656e7420746f6b656e0000000000000000000000000000000000000000602082015250565b7f4552433732313a207472616e73666572206f6620746f6b656e2074686174206960008201527f73206e6f74206f776e0000000000000000000000000000000000000000000000602082015250565b7f4552433732314d657461646174613a2055524920717565727920666f72206e6f60008201527f6e6578697374656e7420746f6b656e0000000000000000000000000000000000602082015250565b7f4552433732313a20617070726f76616c20746f2063757272656e74206f776e6560008201527f7200000000000000000000000000000000000000000000000000000000000000602082015250565b7f4552433732313a207472616e736665722063616c6c6572206973206e6f74206f60008201527f776e6572206e6f7220617070726f766564000000000000000000000000000000602082015250565b7f455243373231456e756d657261626c653a20676c6f62616c20696e646578206f60008201527f7574206f6620626f756e64730000000000000000000000000000000000000000602082015250565b7f416363657373436f6e74726f6c3a206163636f756e7420000000000000000000600082015250565b7f4f776e6564576f7264733a2054686520706f7374206973206e6f74207965742060008201527f6d696e7465640000000000000000000000000000000000000000000000000000602082015250565b7f4f776e6564576f7264733a2054686520706f73742077617320616c726561647960008201527f206d696e74656400000000000000000000000000000000000000000000000000602082015250565b7f4552433732314275726e61626c653a2063616c6c6572206973206e6f74206f7760008201527f6e6572206e6f7220617070726f76656400000000000000000000000000000000602082015250565b7f206973206d697373696e6720726f6c6520000000000000000000000000000000600082015250565b7f416363657373436f6e74726f6c3a2063616e206f6e6c792072656e6f756e636560008201527f20726f6c657320666f722073656c660000000000000000000000000000000000602082015250565b6159a48161506b565b81146159af57600080fd5b50565b6159bb8161507d565b81146159c657600080fd5b50565b6159d281615089565b81146159dd57600080fd5b50565b6159e981615093565b81146159f457600080fd5b50565b615a00816150df565b8114615a0b57600080fd5b5056fea2646970667358221220ba3e6a37dbf0e49f7f0db39d03521fb23c6913ad7c6e6690aebc7fa066a4eb9364736f6c63430008070033",
  "immutableReferences": {},
  "source": "// SPDX-License-Identifier: MIT \n\npragma solidity ^0.8.0;\n\nimport \"./ERC721PresetMinterAutoIdUpgradeable.sol\";\n\nlibrary MintedPost {\n  struct data {\n    uint256 id;\n    string sn_name;\n    string author_id;\n    string author_name;\n    string author_picture_url;\n    string post_id;\n    string post_url;\n    string message;\n    string token_uri;\n    uint256 isValue;\n  }\n}\n\ncontract OwnedWords is ERC721PresetMinterAutoIdUpgradeable {\n  using MintedPost for MintedPost.data;\n\n  function getVersion() public pure returns (string memory) {\n    return \"1.0.2\";\n  }\n\n  function initialize() public virtual initializer {\n    __OwnedWords_init();\n  }\n\n  function __OwnedWords_init() internal initializer {\n    __ERC721PresetMinterAutoId_init(\"OwnedWords\", \"OWW\");\n  }\n\n  mapping(uint256 => MintedPost.data) private _owned_posts_by_id;\n  mapping(string => MintedPost.data) private _owned_posts_by_gen_id;\n  mapping(address => uint256[]) private _owned_tokens_by_address;\n\n  function mint(\n    string memory sn_name,\n    string memory author_id,\n    string memory author_name,\n    string memory author_picture_url,\n    string memory post_id,\n    string memory post_url,\n    string memory message,\n    string memory token_uri\n  ) public virtual returns (uint256) {\n    string memory gen_id = string(\n      abi.encodePacked(sn_name, author_id, post_id)\n    );\n    require(\n      _owned_posts_by_gen_id[gen_id].isValue != 457,\n      \"OwnedWords: The post was already minted\"\n    );\n\n    uint256 _token_id = _mint_without_owner(msg.sender);\n    _owned_posts_by_id[_token_id].id = _token_id;\n    _owned_posts_by_id[_token_id].sn_name = sn_name;\n    _owned_posts_by_id[_token_id].author_id = author_id;\n    _owned_posts_by_id[_token_id].author_name = author_name;\n    _owned_posts_by_id[_token_id].author_picture_url = author_picture_url;\n    _owned_posts_by_id[_token_id].post_id = post_id;\n    _owned_posts_by_id[_token_id].post_url = post_url;\n    _owned_posts_by_id[_token_id].message = message;\n    _owned_posts_by_id[_token_id].token_uri = token_uri;\n    _owned_posts_by_id[_token_id].isValue = 457;\n\n    _owned_posts_by_gen_id[gen_id] = _owned_posts_by_id[_token_id];\n    _owned_tokens_by_address[msg.sender].push(_token_id);\n\n    return _token_id;\n  }\n\n  function getPostUrl(uint256 tokenId) public view returns (string memory) {\n    require(\n      _exists(tokenId),\n      \"OwnedWords: POST URL query for nonexistent token\"\n    );\n\n    return _owned_posts_by_id[tokenId].post_url;\n  }\n\n  function getTokens() public view returns (uint256[] memory) {\n    return _owned_tokens_by_address[msg.sender];\n  }\n\n  function getTokenIdForPost(\n    string memory sn_name,\n    string memory author_id,\n    string memory post_id\n  ) public view returns (uint256) {\n    string memory gen_id = string(\n      abi.encodePacked(sn_name, author_id, post_id)\n    );\n    require(\n      _owned_posts_by_gen_id[gen_id].isValue == 457,\n      \"OwnedWords: The post is not yet minted\"\n    );\n\n    return _owned_posts_by_gen_id[gen_id].id;\n  }\n\n  function tokenURI(uint256 tokenId)\n    public\n    view\n    virtual\n    override\n    returns (string memory)\n  {\n    require(\n      _exists(tokenId),\n      \"ERC721Metadata: URI query for nonexistent token\"\n    );\n\n    return _owned_posts_by_id[tokenId].token_uri;\n  }\n}\n",
  "sourcePath": "/Users/mgrin/Projects/own-your-words/contracts/OwnedWords.sol",
  "compiler": {
    "name": "solc",
    "version": "0.8.7+commit.e28d00a7.Emscripten.clang"
  },
  "schemaVersion": "3.4.3",
  "updatedAt": "2021-09-18T11:36:42.990Z",
  "devdoc": {
    "kind": "dev",
    "methods": {
      "approve(address,uint256)": {
        "details": "See {IERC721-approve}."
      },
      "balanceOf(address)": {
        "details": "See {IERC721-balanceOf}."
      },
      "burn(uint256)": {
        "details": "Burns `tokenId`. See {ERC721-_burn}. Requirements: - The caller must own `tokenId` or be an approved operator."
      },
      "getApproved(uint256)": {
        "details": "See {IERC721-getApproved}."
      },
      "getRoleAdmin(bytes32)": {
        "details": "Returns the admin role that controls `role`. See {grantRole} and {revokeRole}. To change a role's admin, use {_setRoleAdmin}."
      },
      "getRoleMember(bytes32,uint256)": {
        "details": "Returns one of the accounts that have `role`. `index` must be a value between 0 and {getRoleMemberCount}, non-inclusive. Role bearers are not sorted in any particular way, and their ordering may change at any point. WARNING: When using {getRoleMember} and {getRoleMemberCount}, make sure you perform all queries on the same block. See the following https://forum.openzeppelin.com/t/iterating-over-elements-on-enumerableset-in-openzeppelin-contracts/2296[forum post] for more information."
      },
      "getRoleMemberCount(bytes32)": {
        "details": "Returns the number of accounts that have `role`. Can be used together with {getRoleMember} to enumerate all bearers of a role."
      },
      "grantRole(bytes32,address)": {
        "details": "Overload {grantRole} to track enumerable memberships"
      },
      "hasRole(bytes32,address)": {
        "details": "Returns `true` if `account` has been granted `role`."
      },
      "initialize(string,string)": {
        "details": "Grants `DEFAULT_ADMIN_ROLE`, `MINTER_ROLE` and `PAUSER_ROLE` to the account that deploys the contract. Token URIs will be autogenerated based on `baseURI` and their token IDs. See {ERC721-tokenURI}."
      },
      "isApprovedForAll(address,address)": {
        "details": "See {IERC721-isApprovedForAll}."
      },
      "name()": {
        "details": "See {IERC721Metadata-name}."
      },
      "ownerOf(uint256)": {
        "details": "See {IERC721-ownerOf}."
      },
      "renounceRole(bytes32,address)": {
        "details": "Overload {renounceRole} to track enumerable memberships"
      },
      "revokeRole(bytes32,address)": {
        "details": "Overload {revokeRole} to track enumerable memberships"
      },
      "safeTransferFrom(address,address,uint256)": {
        "details": "See {IERC721-safeTransferFrom}."
      },
      "safeTransferFrom(address,address,uint256,bytes)": {
        "details": "See {IERC721-safeTransferFrom}."
      },
      "setApprovalForAll(address,bool)": {
        "details": "See {IERC721-setApprovalForAll}."
      },
      "supportsInterface(bytes4)": {
        "details": "See {IERC165-supportsInterface}."
      },
      "symbol()": {
        "details": "See {IERC721Metadata-symbol}."
      },
      "tokenByIndex(uint256)": {
        "details": "See {IERC721Enumerable-tokenByIndex}."
      },
      "tokenOfOwnerByIndex(address,uint256)": {
        "details": "See {IERC721Enumerable-tokenOfOwnerByIndex}."
      },
      "tokenURI(uint256)": {
        "details": "See {IERC721Metadata-tokenURI}."
      },
      "totalSupply()": {
        "details": "See {IERC721Enumerable-totalSupply}."
      },
      "transferFrom(address,address,uint256)": {
        "details": "See {IERC721-transferFrom}."
      }
    },
    "version": 1
  },
  "userdoc": {
    "kind": "user",
    "methods": {},
    "version": 1
  }
}